:0414000045EF0AF0BA
:101408004982FACF17F0FBCF18F0E9CF19F0EACFED
:101418001AF0E1CF1BF0E2CF1CF0D9CF1DF0DACFE4
:101428001EF0F3CF1FF0F4CF20F0F6CF21F0F7CF66
:1014380022F0F8CF23F0F5CF24F0F292F2B4F2AA1A
:1014480002D09BECA1F024C0F5FF23C0F8FF22C016
:10145800F7FF21C0F6FF20C0F4FF1FC0F3FF1EC036
:10146800DAFF1DC0D9FF1CC0E2FF1BC0E1FF1AC094
:10147800EAFF19C0E9FF18C0FBFF17C0FAFF49923D
:0614880011006DEF95F06C
:10FD180000001180002C0100B102003500360000FF
:10FD2800B202003500360000B3020035003600028A
:10FD3800003500360000B4000000C0A200020084B4
:10FD48000000C1C50000C20D00000000C38D002ADC
:10FD58000000C48D00EE0000C50A000036C800008F
:10FD6800E012001C001000180033002C00250028A9
:10FD780000280027002F003C0000000300030010AB
:10FD8800008000780000E112001C00100018002D0F
:10FD980000280023002800280026002F003B000030
:10FDA80000030003001000003A0500002A000002CA
:10FDB8000000008100002B000003000000A20000EA
:10FDC80029002C02000400080010002000400080D8
:10FDD800000001000102000100010002020000030E
:10FDE800030300000103070F1F3F7FFF0002010309
:10FDF800010410000000000000005F000000070080
:10FE08000700147F147F14242A7F2A1223130864FE
:10FE18006236495522500005030000001C224100AB
:10FE28000041221C00082A1C2A0808083E0808006D
:10FE38005030000008080808080060600000201022
:10FE48000804023E5149453E00427F40004261514C
:10FE580049462141454B311814127F102745454525
:10FE6800393C4A494930017109050336494949363F
:10FE7800064949291E0036360000005636000000A3
:10FE88000814224114141414144122140800020105
:10FE9800510906324979413E7E1111117E7F494947
:10FEA80049363E414141227F4141221C7F4949490F
:10FEB800417F090901013E414151327F0808087F0D
:10FEC80000417F41002040413F017F081422417FCB
:10FED800404040407F0204027F7F0408107F3E417B
:10FEE80041413E7F090909063E4151215E7F0919BA
:10FEF8002946464949493101017F01013F404040B7
:10FF08003F1F2040201F7F2018207F6314081463A0
:10FF18000304780403615149454300007F414102CD
:10FF28000408102041417F000004020102044040FF
:10FF3800404040000102040020545454787F484453
:10FF480044383844444420384444487F385454544E
:10FF580018087E090102081454543C7F08040478E8
:10FF680000447D40002040443D00007F10284400AC
:10FF7800417F40007C041804787C080404783844E5
:10FF88004444387C14141408081414187C7C08049D
:10FF980004084854545420043F4440203C40402026
:10FFA8007C1C2040201C3C4030403C442810284405
:10FFB8000C5050503C4464544C44000836410000F6
:10FFC800007F0000004136080008082A1C08081CA9
:10FFD8002A080800FCFF0F0000FFFFF0FF00FFFFEA
:10FFE8000020496E666F726D6174696F6E0A003227
:08FFF8003031370025630000E1
:020000040001F9
:100000000CD0610E0001E46F010E04D06C0E0001F3
:10001000E46F010E0001E56F08D00001E251000A13
:10002000D8B4EFD7010AD8B4F1D7000120EE02F01E
:10003000E451D926E551DA22E2C0DFFFB1D0950EB6
:100040000001D76F000E0001D86F020E0001D96FBA
:10005000030E0001DA6F77EC8AF0950E0001D76F7E
:10006000000E0001D86F030E0001D96F030E0001CE
:10007000DA6F77EC8AF0950E0001D76F000E000161
:10008000D86F050E0001D96F030E0001DA6F77EC0F
:100090008AF0950E0001D76F000E0001D86F040E94
:1000A0000001D96F000E0001DA6F77EC8AF00001D1
:1000B00020EE03F0E451D926E551DA22C70EDE6EB8
:1000C0000F0EDD6E000120EE06F0E451D926E55159
:1000D000DA22C60EDE6E0F0EDD6E000120EE09F094
:1000E000E451D926E551DA22C90E56D08B0E000113
:1000F000D76F000E0001D86F070E0001D96F030EF5
:100100000001DA6F77EC8AF08B0E0001D76F000EDA
:100110000001D86F060E0001D96F030E0001DA6FDF
:1001200077EC8AF08B0E0001D76F000E0001D86FBC
:10013000040E0001D96F030E0001DA6F77EC8AF02C
:100140008B0E0001D76F000E0001D86F050E000165
:10015000D96F000E0001DA6F77EC8AF0000120EE13
:1001600003F0E451D926E551DA226D0EDE6E0F0E52
:10017000DD6E000120EE06F0E451D926E551DA22C9
:100180006C0EDE6E0F0EDD6E000120EE09F0E45104
:10019000D926E551DA226F0EDE6E0F0EDD6E09D024
:1001A0000001E251000AD8B44AD7010AD8A41200CB
:1001B0009DD7000120EE06F0E451D926E551DA2260
:1001C000DECFB1F0DDCFB2F0050E0001B36F000E4F
:1001D0000001B46FD6EC9CF09CD0000120EE06F03C
:1001E000E451D926E551DA22DECFB1F0DDCFB2F00D
:1001F000040E0001B36F000E0001B46FD6EC9CF04A
:10020000000120EE03F0E451D926E551DA22DECFD9
:10021000B1F0DDCFB2F0060E0001B36F000E0001A9
:10022000B46FD6EC9CF084D0000120EE06F0E451CF
:10023000D926E551DA22DECFB1F0DDCFB2F0040EDF
:100240000001B36F000E0001B46FD6EC9CF000010A
:1002500020EE03F0E451D926E551DA22DECFB1F0E9
:10026000DDCFB2F0060E0001B36F010E0001B46FD6
:10027000D6EC9CF05DD0000120EE06F0E451D926CA
:10028000E551DA22DECFB1F0DDCFB2F0040E00018D
:10029000B36F010E0001B46FD6EC9CF0000120EEAC
:1002A00003F0E451D926E551DA22DECFB1F0DDCFFB
:1002B000B2F0060E0001B36F000E0001B46FD6EC71
:1002C0009CF036D0000120EE06F0E451D926E5512D
:1002D000DA22DECFB1F0DDCFB2F0040E0001B36F51
:1002E000010E0001B46FD6EC9CF0000120EE03F08B
:1002F000E451D926E551DA22DECFB1F0DDCFB2F0FC
:10030000060E0001B36F010E0001B46FD6EC9CF035
:100310000FD00001E351000AD8B45FD7010AD8B466
:1003200083D7030AD8B4A7D7010AD8A41200CAD722
:10033000000120EE06F0E451D926E551DA22DECFA5
:10034000B1F0DDCFB2F0070E0001B36F000E000177
:10035000B46FD6EC9CF0000120EE06F0E451D926F3
:10036000E551DA22DECFB1F0DDCFB2F0060E0001AA
:10037000B36F000E0001B46FD6EC9CF0DEC0BEF08F
:10038000DFC0BFF0E0C0C0F0E1C0C1F0B9EC8FF059
:10039000E4C0B1F0E5C0B2F0F2ECA1F004D09F8669
:1003A0000BD0A58E09D00001E251000AD8B4F7D7CE
:1003B000010AD8A41200F5D7E4C0B1F0E5C0B2F04C
:1003C00054ECA1F0E4C0D9FFE5C0DAFF000EDF6E07
:1003D000000120EE06F0E451D926E551DA22DECF05
:1003E000BCF0DDCFBDF0000E0001BE6F030E0001BA
:1003F000BF6F29ECA2F0000120EE06F0E451D926EF
:10040000E551DA22DECFB1F0DDCFB2F0050E00010A
:10041000B36F010E0001B46FD6EC9CF01200080E11
:100420000001C0250001BD6F000E0001C1210001C7
:10043000BE6F000E0001BF6F2BECA0F00001D76F64
:100440000001D7510001C36FC46B0E0ED89000019C
:10045000C337C437E82EFAD70001D7510001C56F62
:10046000C66B0C0ED8900001C537C637E82EFAD7F8
:100470000001D7510001C76FC86B0A0ED890000168
:10048000C737C837E82EFAD70001D7510001CA6F25
:10049000C96B0001D7510001CB6FCC6B060ED89011
:1004A0000001CB37CC37E82EFAD70001D751000135
:1004B000CD6FCE6B0001CD3BCE3BF00ECE17CD51B4
:1004C0000F0BCE13F00ECD170001D7510001CF6FE7
:1004D000D06B0001D890CF37D0370001D890CF37FC
:1004E000D0370001D7510001D16FD26B0001CF513D
:1004F0000001D1130001D0510001D2130001CD51F0
:100500000001D1130001CE510001D2130001CB51E3
:100510000001D1130001CC510001D2130001C951D7
:100520000001D1130001CA510001D2130001C751CB
:100530000001D1130001C8510001D2130001C551BF
:100540000001D1130001C6510001D2130001C351B3
:100550000001D1110001D36F0001C4510001D2117B
:100560000001D46FD7C0D5F00001D66B080E000192
:10057000C0250001BD6F000E0001C1210001BE6F4A
:10058000010E0001BF6F2BECA0F00001C36FC46B24
:100590000001D890C337C4370001D890C337C4379F
:1005A0000001C3510001D5130001C4510001D6134D
:1005B000080E0001C0250001BD6F000E0001C12121
:1005C0000001BE6F020E0001BF6F2BECA0F0000116
:1005D000C36FC46B0001C33BC43BF00EC417C351CF
:1005E0000F0BC413F00EC3170001C3510001D51344
:1005F0000001C4510001D613080E0001C0250001FE
:10060000BD6F000E0001C1210001BE6F030E00018D
:10061000BF6F2BECA0F00001C36FC46B060ED89027
:100620000001C337C437E82EFAD70001C3510001D7
:10063000D5130001C4510001D613080E0001C025D6
:100640000001BD6F000E0001C1210001BE6F040E4C
:100650000001BF6F2BECA0F00001C36F0001C3517C
:100660000001C56FC46B0001C4510001D513000126
:10067000C5510001D613080E0001C0250001BD6F51
:10068000000E0001C1210001BE6F050E0001BF6F09
:100690002BECA0F00001C36FC46B0A0ED8900001D0
:1006A000C337C437E82EFAD70001C3510001D51370
:1006B0000001C4510001D613080E0001C02500013D
:1006C000BD6F000E0001C1210001BE6F060E0001CA
:1006D000BF6F2BECA0F00001C36FC46B0C0ED89061
:1006E0000001C337C437E82EFAD70001C351000117
:1006F000D5130001C4510001D613080E0001C02516
:100700000001BD6F000E0001C1210001BE6F070E88
:100710000001BF6F2BECA0F00001C36FC46B0E0E85
:10072000D8900001C337C437E82EFAD70001C3516F
:100730000001D5130001C4510001D6130001D551A9
:100740000001D31948E10001D6510001D419D8A401
:10075000120032D0000120EE02F0C051D926C15162
:10076000DA22DECFB1F0DDCFB2F0C2C0B3F066EC7A
:10077000A3F012000001C21F000120EE02F0C051E0
:10078000D926C151DA22DECFB1F0DDCFB2F0C2C03E
:10079000B3F066ECA3F01200000120EE04F0C051AB
:1007A000D926C151DA22DECFB1F0DDCFB2F0C2C01E
:1007B000B3F066ECA3F012000001D751000AD8B4E0
:1007C0001200010AD8B4C6D7030AD8B4D3D7010A95
:1007D000D8A41200E1D712000001B16F7ED03F0E05
:1007E0001200060E12005B0E12004F0E1200660E73
:1007F00012006D0E12007D0E1200070E12007F0E09
:1008000012006F0E12005F0E12007C0E1200580EC6
:1008100012005E0E12007B0E1200710E12006F0E9F
:100820001200740E1200040E12000E0E12007A0E48
:100830001200060E1200140E1200540E12005C0E6E
:100840001200730E1200670E1200500E12006D0E91
:100850001200780E12001C0E1200620E12002A0EF8
:100860001200640E12006E0E12005B0E1200770E64
:1008700012007F0E1200390E12003F0E1200790E88
:100880001200710E12003D0E1200760E1200060EBE
:1008900012001E0E1200570E1200380E1200760EB5
:1008A0001200760E12003F0E1200730E12003F0E61
:1008B0001200770E12006D0E1200310E12003E0E65
:1008C00012003E0E12007E0E1200760E1200660E10
:1008D00012005B0E1200800E12000001B1512E0AB0
:1008E000D8B4F9D71E0AD8B47AD7010AD8B479D7C0
:1008F000030AD8B478D7010AD8B477D7070AD8B48E
:1009000076D7010AD8B475D7030AD8B474D7010AC8
:10091000D8B473D70F0AD8B472D7010AD8B471D734
:10092000780AD8B4A4D7030AD8B4A3D7010AD8B494
:10093000A2D7070AD8B4A1D7010AD8B4A0D7030A0E
:10094000D8B49FD7010AD8B49ED70F0AD8B49DD780
:10095000010AD8B49CD7030AD8B49BD7010AD8B4EB
:100960009AD7070AD8B499D7010AD8B498D7030AF6
:10097000D8B497D7010AD8B496D71F0AD8B495D758
:10098000010AD8B494D7030AD8B493D7010AD8B4CB
:1009900092D7070AD8B491D7010AD8B490D7030ADE
:1009A000D8B48FD7010AD8B48ED70F0AD8B48DD750
:1009B000010AD8B48CD7030AD8B48BD73B0AD8B471
:1009C00022D7030AD8B421D7010AD8B420D7070AFE
:1009D000D8B41FD7010AD8B41ED7030AD8B41DD77C
:1009E000010AD8B41CD70F0AD8B41BD7010AD8B44F
:1009F0001AD7030AD8B419D7010AD8B418D7070AE6
:100A0000D8B417D7010AD8B416D7030AD8B415D763
:100A1000010AD8B414D71F0AD8B413D7010AD8B41E
:100A200012D7030AD8B411D7010AD8B410D7070ACD
:100A3000D8B40FD7010AD8B40ED7030AD8B40DD74B
:100A4000010AD8B40CD70F0AD8B40BD7010AD8B40E
:100A50000AD7030AD8B409D7000E1200050E000108
:100A6000EB6FC7D0000120EE02F0E751D926E85124
:100A7000DA22DECFBCF0DDCFBDF0E9C0BEF00F0E54
:100A80000001BF6F29ECA2F0000120EE04F0E75155
:100A9000D926E851DA22DECFBCF0DDCFBDF0E9C0C7
:100AA000BEF0000E0001BF6F29ECA2F0B0D0E7C08D
:100AB000E0F0E8C0E1F0E9C0E2F0030E0001E36F0E
:100AC0006AEC9DF00001EB6F0001EB51D8A412001D
:100AD000000120EE02F0E751D926E851DA22DECFFC
:100AE000BCF0DDCFBDF0E9C0BEF0000E0001BF6F6D
:100AF00029ECA2F0000120EE04F0E751D926E851DC
:100B0000DA22DECFBCF0DDCFBDF0E9C0BEF0000ED2
:100B10000001BF6F29ECA2F07AD0E7C0E0F0E8C096
:100B2000E1F0E9C0E2F0030E0001E36F6AEC9DF032
:100B30000001EB6F0001EB51D8A41200000120EE80
:100B400002F0E751D926E851DA22DECFBCF0DDCF42
:100B5000BDF0E9C0BEF00F0E0001BF6F29ECA2F09E
:100B6000000120EE04F0E751D926E851DA22DECF69
:100B7000BCF0DDCFBDF0E9C0BEF00F0E0001BF6FCD
:100B800029ECA2F044D0E7C0E0F0E8C0E1F0E9C011
:100B9000E2F0030E0001E36F6AEC9DF00001EB6FE1
:100BA0000001EB51D8A41200000120EE02F0E75141
:100BB000D926E851DA22DECFBCF0DDCFBDF0E9C0A6
:100BC000BEF0000E0001BF6F29ECA2F0000120EE84
:100BD00004F0E751D926E851DA22DECFBCF0DDCFB0
:100BE000BDF0E9C0BEF0000E0001BF6F29ECA2F01D
:100BF0000ED00001EA51000AD8B434D7010AD8B4A3
:100C000056D7030AD8B489D7010AD8B4BCD7080E7E
:100C10000001E7250001C06F000E0001E82100017E
:100C2000C16F0001E951040DF3CFC2F0EAC0C3F077
:100C300045EC9FF0080E0001E7250001C06F000E93
:100C40000001E8210001C16F0001E951040DF32802
:100C50000001C26FEAC0C3F045EC9FF0080E00012E
:100C6000E7250001C06F000E0001E8210001C16FFF
:100C70000001E951040DF350020F0001C26FEAC0F8
:100C8000C3F045EC9FF0080E0001E7250001C06F9E
:100C9000000E0001E8210001C16F0001E951040DBF
:100CA000F350030F0001C26FEAC0C3F045EC9FF0A0
:100CB0001200050E0001F06F7AD0000120EE02F064
:100CC000EB51D926EC51DA22DECFEEF0DDCFEFF09A
:100CD000EEC0D9FFEFC0DAFFFF0E67D0EBC0E7F040
:100CE000ECC0E8F0010E0001E96FDAEC9EF00001C3
:100CF000F06F0001F051D8A41200000120EE02F0C4
:100D0000EB51D926EC51DA22DECFEEF0DDCFEFF059
:100D1000EEC0D9FFEFC0DAFF000EDF6E000120EE5B
:100D200004F036D0EBC0E7F0ECC0E8F0020E0001B2
:100D3000E96FDAEC9EF00001F06F0001F051D8A4E9
:100D40001200000120EE02F0EB51D926EC51DA221C
:100D5000DECFEEF0DDCFEFF0EEC0D9FFEFC0DAFF6F
:100D6000FF0EDF6E000120EE04F0AAD7EBC0E7F023
:100D7000ECC0E8F0000E0001E96FDAEC9EF0000133
:100D8000F06F0001F051D8A41200000120EE02F033
:100D9000EB51D926EC51DA22DECFEEF0DDCFEFF0C9
:100DA000EEC0D9FFEFC0DAFF000EDF6E0ED00001FB
:100DB000ED51000AD8B481D7010AD8B48FD7030AFD
:100DC000D8B4B0D7010AD8B4D1D7080E0001EB25AA
:100DD0000001C06F000E0001EC210001C16F000E88
:100DE0000001C26FEDC0C3F045EC9FF0080E00019A
:100DF000EB250001C06F000E0001EC210001C16F66
:100E0000010E0001C26FEDC0C3F045EC9FF0080E6B
:100E10000001EB250001C06F000E0001EC21000174
:100E2000C16F020E0001C26FEDC0C3F045EC9FF030
:100E3000080E0001EB250001C06F000E0001EC213F
:100E40000001C16F030E0001C26FEDC0C3F045EC9D
:100E50009FF0080E0001EB250001C06F000E00019D
:100E6000EC210001C16F040E0001C26FEDC0C3F0A0
:100E700045EC9FF0080E0001EB250001C06F000E4D
:100E80000001EC210001C16F050E0001C26FEDC031
:100E9000C3F045EC9FF0080E0001EB250001C06F88
:100EA000000E0001EC210001C16F060E0001C26FAF
:100EB000EDC0C3F045EC9FF0080E0001EB250001EA
:100EC000C06F000E0001EC210001C16F070E000190
:100ED000C26FEDC0C3F045EC9FF01200E6EC8CF061
:100EE000010EEDEC9FF00009D8B40AD0A3EC8DF010
:100EF00075EC99F01FECA3F00009D8A40CECA1F05C
:100F0000010EEDEC9FF00009D8B408D07AEC89F01E
:100F10001FECA3F00009D8A40CECA1F0080EEDEC36
:100F20009FF00009D8B420D0BA0E0001DE6F010E88
:100F30000001DF6F000E0001E16F080EE06F55EC5D
:100F400092F0BA0E0001B46F010E0001B56F000EF1
:100F50000001B76F640EB66F86ECA0F01FECA3F033
:100F60000009D8A40CECA1F092ECA3F0010EEDEC7A
:100F70009FF00009D8B490D0FC0E0001C66FFF0EA0
:100F80000001C76F000E0001C96F230EC86F07EC88
:100F900098F021EECAF011EEEBF0090EDBCFE3FF83
:100FA000E806FCE221EED4F011EEE5F0050EDBCF11
:100FB000E3FFE806FCE2000E0101F76F000EF66F9A
:100FC0000101F7BF08D00101F75134E1050E01011D
:100FD000F65DD8B02FD0D8900101F635D96E010159
:100FE000F735DA6EEB0ED926010EDA22DECFB1F03C
:100FF000DDCFB2F09CECA3F0FC0E0001C66FFF0E3B
:101000000001C76FE50E0101F625D96E010E010141
:10101000F721DA6EDF500101E46F0101E4510001B4
:10102000C86FC96B07EC98F074EC88F00101F64BBF
:10103000F72BC6D7FF0E0001B26FB1699CECA3F08D
:10104000E90E0001C66FFF0E0001C76F07EC98F0B4
:1010500074EC88F0E8EC9AF021EE4AF001D80AD05E
:101060000500FA6EDE50FD6EDE50FE6EDE50FF6E45
:10107000FA5012000101F56FF70E0001B26FFF0E7A
:101080000001B36F73EC91F00CECA0F01FECA3F037
:101090000009D8A40CECA1F0080EEDEC9FF00009BB
:1010A000D8B464D7BA0E0001CC6F010E0001CD6F29
:1010B000010E0001CF6F000ECE6FC8ECA1F0BA0E8A
:1010C0000001B16F010E0001B26F000E0001B46F9C
:1010D000010EB36F68EC9FF01FECA3F00009D8B4C9
:1010E00045D70CECA1F042D70001FF51D8B4120053
:1010F000DAC1D7F0DBC1D8F0DCC1D9F0DDC1DAF05C
:1011000000018051D8B404D036C0D6F00F0E366E30
:10111000000E0001DC6FDFD00001DC51020D000E7B
:10112000F324D96E010EF420DA6EDECFFDF0DDCFB0
:10113000FEF0000E0001DB6F130E0001DB6501D035
:10114000BED00001DC51140D460E0001D46F020E1A
:101150000001D56FF3500001D427F4500001D523CE
:101160000001DB51010DF3500001D425D96EF4507C
:101170000001D521DA6EDFAE9AD00001DC51140DEA
:10118000460E0001D46F020E0001D56FF35000012E
:10119000D427F4500001D5230001DB51010DF35099
:1011A0000001D425D96EF4500001D521DA6E7F0EEE
:1011B000DF160001DC51140D460E0001D46F020E43
:1011C0000001D56FF3500001D427F4500001D5235E
:1011D0000001DB51010DF3500001D425D96EF4500C
:1011E0000001D521DA6EDF50D8B44AD077C0BAF00A
:1011F00078C0BBF0D7C0BCF0D8C0BDF0D9C0BEF03D
:10120000DAC0BFF0F9C0C0F0FAC0C1F0FBC0C2F054
:10121000FCC0C3F05CEC9BF00001DC51140D460EE9
:101220000001D46F020E0001D56FF3500001D427E6
:10123000F4500001D5230001DB51010DF3500001F2
:10124000D425D96EF4500001D521DA6EDF502AEC96
:1012500093F0B6C0C3F0B7C0C4F0D7C0C5F0D8C0D3
:10126000C6F0D9C0C7F0DAC0C8F0F9C0C9F0FAC0FA
:10127000CAF0FBC0CBF0FCC0CCF067EC97F017D005
:10128000000E0001BB6F000EBA6FD7C0BCF0D8C013
:10129000BDF0D9C0BEF0DAC0BFF0F9C0C0F0FAC0EE
:1012A000C1F0FBC0C2F0FCC0C3F05CEC9BF0060ECA
:1012B0000001D727000ED8230001DB2B3DD7080EF5
:1012C0000001D927000EDA23000E0001D86F060EA8
:1012D000D76F0001DC2B0001DC51365CD8B01CD785
:1012E00000018051D8B41200000E0001806FD6C0FA
:1012F00036F01200570E0001EC6F010E0001ED6F89
:10130000000E0001EF6F020EEE6F6A0E0001F06F2B
:10131000470E0001F16F010E0001F26FAE0E0001E9
:10132000F36F450E0001F46F010E0001F56F640EBE
:101330000001F66F430E0001F76F010E0001F86F18
:10134000C0EC92F0390E0001EC6F010E0001ED6F60
:10135000000E0001EF6F020EEE6F6A0E0001F06FDB
:10136000470E0001F16F010E0001F26F0E0E000139
:10137000F36F460E0001F46F010E0001F56F860E4B
:101380000001F66F3B0E0001F76F010E0001F86FD0
:10139000C0EC92F02F0E0001EC6F010E0001ED6F1A
:1013A000000E0001EF6F020EEE6F6A0E0001F06F8B
:1013B000470E0001F16F010E0001F26FF60E000101
:1013C000F36F450E0001F46F010E0001F56F140E6E
:1013D0000001F66F3F0E0001F76F010E0001F86F7C
:1013E000C0EC92F0430E0001EC6F010E0001ED6FB6
:1013F000000E0001EF6F020EEE6F6A0E0001F06F3B
:10140000470E0001F16F010E0001F26FDE0E0001C8
:10141000F36F450E0001F46F010E0001F56F480EE9
:101420000001F66F420E0001F76F010E0001F86F28
:10143000C0EC92F04D0E0001EC6F010E0001ED6F5B
:10144000000E0001EF6F020EEE6F6A0E0001F06FEA
:10145000470E0001F16F010E0001F26FC60E000190
:10146000F36F450E0001F46F010E0001F56FE60EFB
:101470000001F66F410E0001F76F010E0001F86FD9
:10148000C0EC92F0A00E0001DE6F860EDF6F010E41
:10149000E06F000EE16F000E0001E26F020E00012E
:1014A000E36F00EC80F0610E0001C06F010E0001DF
:1014B000C16F22EC9BF0000E0101E36F000EE26FA2
:1014C0000101E35113E1080E0101E25DD8B0120001
:1014D000270E0101E225D96E010E0101E321DA6E2A
:1014E000000EDF6E0101E24BE32BEAD71200D7C0FA
:1014F000D9FFD8C0DAFFDECFDCF0DDCFDDF0050E9E
:101500000001DB6FB5D0000120EE02F0D751D926E3
:10151000D851DA22DECFB1F0DDCFB2F0D9C0B3F0CE
:10152000010E0001B46FD6EC9CF0B0D0DCC0C0F06E
:10153000DDC0C1F0010E0001C26FD9C0C3F0F9ECEB
:1015400099F00001DB6F0001DB51D8A4120000010B
:1015500020EE02F0D751D926D851DA22DECFB1F0F1
:10156000DDCFB2F0D9C0B3F0000E0001B46FD6ECFD
:101570009CF0000120EE04F0D751D926D851DA2290
:10158000DECFB1F0DDCFB2F0D9C0B3F0000E000174
:10159000B46FD6EC9CF07AD0DCC0C0F0DDC0C1F0F6
:1015A000020E0001C26FD9C0C3F0F9EC99F000013E
:1015B000DB6F0001DB51D8A41200000120EE02F025
:1015C000D751D926D851DA22DECFB1F0DDCFB2F033
:1015D000D9C0B3F0010E0001B46FD6EC9CF000014D
:1015E00020EE04F0D751D926D851DA22DECFB1F05F
:1015F000DDCFB2F0D9C0B3F0010E0001B46FD6EC6C
:101600009CF044D0DCC0C0F0DDC0C1F0000E000191
:10161000C26FD9C0C3F0F9EC99F00001DB6F000193
:10162000DB51D8A41200000120EE02F0D751D926D8
:10163000D851DA22DECFB1F0DDCFB2F0D9C0B3F0AD
:10164000000E0001B46FD6EC9CF0000120EE04F017
:10165000D751D926D851DA22DECFB1F0DDCFB2F0A2
:10166000D9C0B3F0000E0001B46FD6EC9CF00ED0E0
:101670000001DA51000AD8B446D7010AD8B456D7C7
:10168000030AD8B489D7010AD8B4BCD7080E000120
:10169000D7250001C06F000E0001D8210001C16FE5
:1016A000D9C0C2F0DAC0C3F045EC9FF012000001CF
:1016B000F351C1EC96F0F1C0D9FFF2C0DAFF00019E
:1016C000B1C0DEFF0001B2C0DDFF0001F35114EC38
:1016D00097F0000120EE06F0F151D926F251DA22FE
:1016E0000001B1C0DEFF0001B2C0DDFF0001F35117
:1016F00014EC97F0000120EE04F0F151D926F251DC
:10170000DA220001B1C0DEFF0001B2C0DDFF00013E
:10171000F3516EEC96F0000120EE02F0F151D92663
:10172000F251DA220001B1C0DEFF0001B2C0DDFFDC
:10173000000120EE04F0F151D926F251DA22DECF79
:10174000F4F0DDCFF5F0F4C0D9FFF5C0DAFF000EFC
:10175000DF6E000120EE02F0F151D926F251DA22BB
:10176000DECFF4F0DDCFF5F0F4C0D9FFF5C0DAFF3D
:10177000FF0EDF6EF1C0EBF0F2C0ECF0000E0001E6
:10178000ED6F59EC86F0000E0001F66F070E0001B8
:10179000F66531D04BD0F1C0D7F0F2C0D8F0F6C02A
:1017A000D9F0030E0001DA6F77EC8AF03CD0F1C07B
:1017B000D7F0F2C0D8F0F6C0D9F0020E0001DA6F0F
:1017C00077EC8AF030D0F1C0D7F0F2C0D8F0F6C094
:1017D000D9F0010E0001DA6F77EC8AF024D0F1C065
:1017E000D7F0F2C0D8F0F6C0D9F0000E0001DA6FE1
:1017F00077EC8AF018D0F1C0D9FFF2C0DAFFDECF63
:10180000BDF0DDCFBEF0F6C0BFF02BECA0F0000ABB
:10181000D8B4C1D7010AD8B4D6D7030AD8B4C7D729
:10182000010AD8B4DCD70001F62BB0D7F1C0C0F064
:10183000F2C0C1F0000E0001C26F0FEC82F0120086
:101840000001C46FA8D09FEC98F0120068EC9EF0E5
:10185000120030EC99F01200F4EC93F01200A4ECBA
:101860009CF01200A5ECA2F01200C4C0C1F07F0EE3
:101870000001C1173650140D460E0001C26F020E52
:101880000001C36FF3500001C227F4500001C323CD
:101890003750010DF3500001C225D96EF4500001FC
:1018A000C321DA6EDF507F0B0001C119D8B42BD0F1
:1018B000010E0001FF6F3650140D460E0001C16F7E
:1018C000020E0001C26FF3500001C127F450000165
:1018D000C2233750010DF3500001C125D96EF450D9
:1018E0000001C221DA6E0001C4518009DF6E36505A
:1018F000020D000EF324D96E010EF420DA6EFDC045
:10190000DEFFFEC0DDFFA4EC9CF00009D8B412009D
:10191000C4C0C1F07F0E0001C1173650140D460E31
:101920000001C26F020E0001C36FF3500001C22715
:10193000F4500001C3233750010DF3500001C225BC
:10194000D96EF4500001C321DA6EDF507F0B000125
:10195000C119D8B41200010E0001FF6F3650140DEA
:10196000460E0001C16F020E0001C26FF35000016C
:10197000C127F4500001C2233750010DF35000017C
:10198000C125D96EF4500001C221DA6E0001C451A4
:101990008009DF6E12000001C451070AD8B45FD776
:1019A0000F0AD8B453D7010AD8B456D7030AD8B40B
:1019B0004AD7060AD8B44DD7010AD8B444D72D0A5D
:1019C000D8B453D7030AD8B44DD74FD7010E436EBE
:1019D000000E256E000E266E000E276E9F0E000173
:1019E000F16F010E0001F26F000E0001F36F57EC72
:1019F0008BF0950E0001F16F010E0001F26F010EE8
:101A00000001F36F57EC8BF0950E0001F16F000EA3
:101A10000001F26F020E0001F36F57EC8BF08B0E9A
:101A20000001F16F000E0001F26F030E0001F36F71
:101A300057EC8BF0810E0001F16F000E0001F26F88
:101A4000040E0001F36F57EC8BF0A90E0001F16F4B
:101A5000010E0001F26F050E0001F36F57EC8BF0E1
:101A60008B0E0001F16F010E0001F26F060E0001F6
:101A7000F36F57EC8BF0A90E0001D76F010E000138
:101A8000D86F050E0001D96F000E0001DA6F77ECF8
:101A90008AF0950E0001E76F010E0001E86F000E5D
:101AA0000001E96F000E0001EA6F2EEC85F0A90E2F
:101AB0000001D76F010E0001D86F060E0001D96F2B
:101AC000030E0001DA6F77EC8AF08B0E0001EB6FEA
:101AD000010E0001EC6F030E0001ED6F59EC86F072
:101AE0008B0E0001C06F010E0001C16F040E0001DA
:101AF000C26F000E0001C36F92EC93F0A90E0001BB
:101B0000C06F010E0001C16F060E0001C26F010E11
:101B10000001C36F92EC93F0000E08EC9DF0010EF3
:101B200008EC9DF0000E9E6E000EA16E000EA46EDD
:101B30009B8E9B8C000E0001B26F640EB16F3AEC6D
:101B40009CF0D08E120096EC9BF0000E0001E96F25
:101B5000000EE86F0001E95106E1590E0001E85D51
:101B6000D8B08BD001D089D0D8900001E835F66E7E
:101B70000001E935F76E190EF626FD0EF722F86A18
:101B8000000EF8220900800EF5180900F510D8A4FF
:101B900022D00001E9511FE1580E0001E85DD8B0E4
:101BA0001AD00001E84BE92BD8900001E835F66E19
:101BB0000001E935F76E190EF626FD0EF722F86AD8
:101BC000000EF8220900F5CFB1F00A00F5CFB2F00F
:101BD0003AEC9CF04BD0D8900001E835F66E00014D
:101BE000E935F76E190EF626FD0EF722F86A000E9B
:101BF000F8220900000EF55E0900010EF55AD8A082
:101C000020D0000E0001B46FD8900001E835F66EC8
:101C10000001E935F76E190EF626FD0EF722F86A77
:101C2000000EF8220900F5CFE6F00900F5CFE7F045
:101C3000E7C0E6F00001E76B0001E6513AECA2F0E4
:101C400015D0010E0001B46FD8900001E835F66E92
:101C50000001E935F76E190EF626FD0EF722F86A37
:101C6000000EF8220800F5503AECA2F00001E84B13
:101C7000E92B0001E95101E170D7000E0001B26FBC
:101C8000640EB16F3AEC9CF0000E0001B46F290EA7
:101C90003AECA2F0010E53EC98F0000E0001B26F86
:101CA000640EB16F3AEC9CF0000E0001BB6F000EA9
:101CB000BA6F97EC9DF01200000120EE07F0CC51B6
:101CC000D926CD51DA2201D80AD00500FA6EDE50AD
:101CD000FD6EDE50FE6EDE50FF6EFA501200000107
:101CE000D46FCCC0D9FFCDC0DAFF0001D451DE18CB
:101CF000D8A421D0000120EE01F0CC51D926CD513D
:101D0000DA220001CE51DE5CD8B00AD0000120EE0C
:101D100001F0CC51D926CD51DA22000EDF6E12002F
:101D2000000120EE01F0CC51D926CD51DA2200017C
:101D3000CE51DF5E1200000120EE01F0CC51D92619
:101D4000CD51DA22DF500001CF6FD06B0001CE51B0
:101D50000001CF27000ED023000120EE01F0CC516E
:101D6000D926CD51DA22DF500001D16FD26B0001AC
:101D7000CF510001D15D0001D251800A0001D36F23
:101D80000001D051800A0001D359D8B012000001DF
:101D900020EE01F0CC51D926CD51DA220001CE51EE
:101DA000DF26000120EE02F0CC51D926CD51DA22F7
:101DB000000110EE01F0CC51E126CD51E222E750B6
:101DC0000001D16FD26BDE500001D15DDE50000109
:101DD000D259D8A01200CCC0D9FFCDC0DAFFD4C0F0
:101DE000DFFF000120EE01F0CC51D926CD51DA22DF
:101DF000000EDF6E000120EE04F0CC51D926CD514B
:101E0000DA2201D812000500FA6EDE50FD6EDE50B7
:101E1000FE6EDE50FF6EFA500001D4511200800EAB
:101E20000001C46F8D0EC56F5B0EC66F000EC76FCD
:101E3000D59E0001BE510001BF110001C01100017B
:101E4000C111D8B41200D596D59CD59AD598C4C0E6
:101E5000B1F0C5C0B2F0C6C0B3F0C7C0B4F0BEC0E8
:101E6000B5F0BFC0B6F0C0C0B7F0C1C0B8F0B4ECB8
:101E700094F0B1C0C8F0B2C0C9F0B3C0CAF0B4C0E9
:101E8000CBF009D0312A020E316401D02DD0070EDB
:101E9000316401D01200C8C0B1F0C9C0B2F0CAC0EC
:101EA000B3F0CBC0B4F03150020DCB0EF324F66E7C
:101EB000FD0EF420F76EF86A000EF8220900F5CF47
:101EC000C2F00900F5CFC3F0C2C0B5F0C3C0B6F090
:101ED0000001B76BB86BB4EC94F00001B451D2E1DF
:101EE0000001B305D8B0CED73150020DCB0EF3248C
:101EF000F66EFD0EF420F76EF86A000EF822080068
:101F0000F5CF30F0FF0E0001C8250001646FFF0E11
:101F10000001C9210001656FFF0E0001CA21000107
:101F2000666FFF0E0001CB210001676F64C0B1F046
:101F300065C0B2F066C0B3F067C0B4F030500001C5
:101F4000B56FB66BB76BB86BB4EC94F00001B11F12
:101F50000001B21F0001B14BB22BFF0E0001B125F1
:101F6000286EFF0E0001B221296E7BECA3F0D58E06
:101F70001200000E0001C76F6C0EC86FDC0EC96F37
:101F8000020ECA6F0001D890BE37BF37C037C137C5
:101F9000020E0001C26FD8900001CA33C933C833A2
:101FA000C7330001C22FF7D7C7C0B1F0C8C0B2F025
:101FB000C9C0B3F0CAC0B4F0BEC0B5F0BFC0B6F07F
:101FC000C0C0B7F0C1C0B8F0B4EC94F0B1C0CBF071
:101FD000B2C0CCF0B3C0CDF0B4C0CEF00ED0000E85
:101FE0000001C36F000EC46F000EC56F000EC66FF8
:101FF0002F2A020E2F6401D025D0CBC0B1F0CCC067
:10200000B2F0CDC0B3F0CEC0B4F02F50010DF80E39
:10201000F324F66EFD0EF420F76EF86A000EF82237
:102020000800F5500001B56FB66BB76BB86BB4EC38
:1020300094F00001B4510001B311D1E10001B205E7
:10204000D8B0CDD7CA502F18FC0B2F18CA6ECA842F
:10205000A1ECA3F02F50010DF80EF324F66EFD0E47
:10206000F420F76EF86A000EF8220800F5CF2EF083
:10207000FF0E0001CB250001606FFF0E0001CC2197
:102080000001616FFF0E0001CD210001626FFF0EA4
:102090000001CE210001636F60C0B1F061C0B2F0F9
:1020A00062C0B3F063C0B4F02E500001B56FB66BE0
:1020B000B76BB86BB4EC94F00001B1512F6E2FC028
:1020C000CBFF120049B2F4EF90F020EE04F02A505A
:1020D000D9262B50DA22DF50ACEC9FF00009D8B49F
:1020E0007AD02AC0D9FF2BC0DAFFDE50DE10D8B478
:1020F0006DD02AC0D9FF2BC0DAFF010EDBBE26D07F
:10210000010EDB5003E1DE04D8A020D02AC0D9FFA5
:102110002BC0DAFFDE2804E17F0EDE18D8B407D02A
:102120002AC0D9FF2BC0DAFFDE06000EDD5A810E71
:102130000001C06F000E0001C16F000E0001C26FF0
:10214000010E0001C36F92EC93F01FD02AC0D9FF9B
:102150002BC0DAFFDE0404E1800EDE18D8B407D00D
:102160002AC0D9FF2BC0DAFFDE2A000EDD22810E45
:102170000001C06F000E0001C16F000E0001C26FB0
:10218000000E0001C36F92EC93F0810E0001C06F4E
:10219000000E0001C16F010E0001C26F010E0001AF
:1021A000C36F92EC93F0810E0001C06F000E00012E
:1021B000C16F010E0001C26F000E0001C36F92ECEF
:1021C00093F01FECA3F081ECA3F012001FECA3F03E
:1021D000A9ECA3F012006BC0B1F06CC0B2F06DC0FE
:1021E000B3F06DECA3F0120020EE04F02A50D926D3
:1021F0002B50DA22DF50BEECA0F00009D8B46AD030
:102200002AC0D9FF2BC0DAFFDE50DE10D8B45DD073
:102210002AC0D9FF2BC0DAFF010EDBBE22D0010E8F
:10222000DB5003E1DE04D8A01CD02AC0D9FF2BC0AC
:10223000DAFFDE2804E17F0EDE18D8B407D02AC00A
:10224000D9FF2BC0DAFFDE06000EDD5A810E106EBC
:10225000000E116E000E126E010E136E19EC96F048
:102260001BD02AC0D9FF2BC0DAFFDE0404E1800EA8
:10227000DE18D8B407D02AC0D9FF2BC0DAFFDE2A77
:10228000000EDD22810E106E000E116E000E126E19
:10229000000E136E19EC96F0810E106E000E116E8A
:1022A000010E126E010E136E19EC96F0810E106E77
:1022B000000E116E010E126E000E136E19EC96F0E8
:1022C000B2ECA3F087ECA3F01200B2ECA3F0AFECF9
:1022D000A3F012006BC001F06CC002F06DC003F0FF
:1022E00074ECA3F01200000E0001B66F000EB56F83
:1022F00044D0270E0001B525D96E010E0001B6218C
:10230000DA6EB2C0F6FFB3C0F7FF000EF86E0F0E24
:10231000F76403D00800F55005D0F6CFE9FFF7CFFA
:10232000EAFFEF50ECEC83F0DF6E270E0001B525DD
:10233000D96E010E0001B621DA6E800EDE18D8A427
:102340000ED00001B507D8A0B607270E0001B525AD
:10235000D96E010E0001B621DA6E000EDB8E00018F
:10236000B24BB32B0001B54BB62B0001B65127E1A0
:10237000060E0001B55DD8B022D0B2C0F6FFB3C0E2
:10238000F7FF000EF86E0F0EF76403D00800F5504B
:1023900005D0F6CFE9FFF7CFEAFFEF500009D8B438
:1023A0000ED0A7D7270E0001B525D96E010E00016A
:1023B000B621DA6E000EDF6E0001B54BB62B0001C0
:1023C000B65106E1060E0001B55DD8B01200EAD79D
:1023D0001200B8C0C0F0B9C0C1F0000E0001BF6F5C
:1023E000000EBE6FBAC0BCF0BBC0BDF00001C05152
:1023F0000001C111D8A434D0BCC0D9FFBDC0DAFFE0
:10240000300EDF6E000E0001BF6F010EBE6F40D0B8
:10241000C0C0B1F0C1C0B2F0000E0001B46F0A0E2E
:10242000B36F39EC9DF00001B151300FBCC0D9FF42
:10243000BDC0DAFFDF6EC0C0B1F0C1C0B2F0000EA7
:102440000001B46F0A0EB36F37EC9AF0B1C0C0F060
:10245000B2C0C1F00001BE4BBF2B0001BC4BBD2B75
:102460000001C0510001C111D8B408D00001BF5112
:1024700005E1060E0001BE5DD8A0CAD7BAC0B1F012
:10248000BBC0B2F0BEC0B3F0BFC0B4F0CEEC9BF0A6
:102490000001BE510001BA25D96E0001BF510001F3
:1024A000BB21DA6E000EDF6E1200DEC0D9FFDFC086
:1024B000DAFF000EDE6E000EDD6E000120EE02F08F
:1024C000DE51D926DF51DA22000EDE6E000EDD6EFF
:1024D000000120EE04F0DE51D926DF51DA22E0C0FF
:1024E000DEFFE1C0DDFF810E0001D76F000E0001AD
:1024F000D86F000E0001D96F030E0001DA6F77EC80
:102500008AF0810E0001D76F000E0001D86F010E16
:102510000001D96F030E0001DA6F77EC8AF0810EAB
:102520000001C06F000E0001C16F000E0001C26FFC
:10253000000E0001C36F92EC93F0810E0001C06F9A
:10254000000E0001C16F010E0001C26F000E0001FC
:10255000C36F92EC93F0C40E00016B6F200E00016C
:102560006C6F010E00016D6FE80E0001BE6F030E6F
:10257000BF6F000EC06F000EC16F0FEC8FF0120026
:102580000001EC510001ED11D8B412000001F0512E
:102590000001F1110001F211D8B412000001F35151
:1025A0000001F4110001F511D8B412000001F65138
:1025B0000001F7110001F811D8B412000001EE512A
:1025C0000001EF11D8A405D0000E0001EF6F010E3D
:1025D000EE6FECC0D9FFEDC0DAFF000EDF6E000138
:1025E00020EE01F0EC51D926ED51DA22000EDF6E1B
:1025F000000120EE02F0EC51D926ED51DA22EEC0B6
:10260000DEFFEFC0DDFF000120EE04F0EC51D92623
:10261000ED51DA22F6C0DEFFF7C0DEFFF8C0DEFFC4
:10262000000120EE07F0EC51D926ED51DA22F3C07B
:10263000DEFFF4C0DEFFF5C0DEFF01D812000500AA
:10264000FA6E0001F051FD6EF151FE6EF251FF6E17
:10265000FA5012000001BC6F200E0001BC5F0001A7
:10266000BC51050DF3CFBAF0F4CFBBF0FB0E000167
:10267000BA250001BD6FFD0E0001BB210001BE6F38
:10268000000E0001C16F040E0001C16501D043D0EE
:10269000000E0001C26F060E0001C26501D035D0E8
:1026A000BDC0B1F0BEC0B2F0C2C0B3F0D9ECA0F072
:1026B0000009D8A405D077C0BFF078C0C0F004D01E
:1026C000FDC0BFF0FEC0C0F00001C2510A0D000EF7
:1026D0000001B86F020E0001B96FF3500001B82776
:1026E000F4500001B9230001C151020DF350000163
:1026F000B825D96EF4500001B921DA6EBFC0DEFFF3
:10270000C0C0DDFF0001C22BC6D70001BD4BBE2BF0
:102710000001C12BB8D7000E0001B66F020E0001F8
:10272000B76F1200080E0001C0250001BD6F000E3A
:102730000001C1210001BE6FC2C0BFF02BECA0F0B0
:102740000001C46F42D0010E0001C317000120EE4A
:1027500002F0C051D926C151DA22DECFB1F0DDCF6F
:10276000B2F0C2C0B3F0C3C0B4F0D6EC9CF012001B
:10277000010E0001C317010E0001C31B000120EE72
:1027800002F0C051D926C151DA22DECFB1F0DDCF3F
:10279000B2F0C2C0B3F0C3C0B4F0D6EC9CF01200EB
:1027A000010E0001C317000120EE04F0C051D9262C
:1027B000C151DA22DECFB1F0DDCFB2F0C2C0B3F04A
:1027C000C3C0B4F0D6EC9CF012000001C451000A62
:1027D000D8B41200010AD8B4B6D7030AD8B4C8D7FF
:1027E000010AD8A41200DCD7000E0001BF6FFA0E58
:1027F0003F240001B16FFF0E40200001B26F000EB8
:102800000001B46F060EB36F55EC94F00001B151A6
:102810000001C06FC0C0B1F00001B26B000E00013A
:10282000B46F040EB36F55EC94F00001B151000188
:10283000BE6F000E0001BF6F06D04AECA0F0A4EC02
:102840009CF00001BF2B0001BE51040DF31EF41ECD
:10285000F34AF42A0001C0510001B96FBA6BF3507A
:102860000001B927F4500001BA230001B91FBA1FB3
:10287000B94BBA2B040E0001B927000EBA23000190
:10288000BF510001BB6FBC6B0001B9510001BB5DC2
:102890000001BC51800A0001BD6F0001BA51800ADD
:1028A0000001BD59D8B01200C8D7000E0001B66FA4
:1028B0000001B4AF08D00001B36DB41FD8B0B42B81
:1028C000010E0001B66F0001B2AF08D00001B16D7A
:1028D000B21FD8B0B22B010E0001B61B000E0001D2
:1028E000B86F000EB76F0001B3510001B411D8B436
:1028F0002CD0010E0001B56F06D00001D890B3377F
:10290000B4370001B52B0001B4AFF7D70001D89060
:10291000B737B8370001B3510001B15D0001B451C0
:102920000001B259D8A00AD00001B3510001B15F33
:102930000001B4510001B25B0001B7810001D890E1
:10294000B433B3330001B52FE1D70001B651000114
:10295000D8B405D00001B76DB81FD8B0B82BB7C038
:10296000B1F0B8C0B2F01200000E0001B96F000E55
:10297000BA6F000EBB6F000EBC6F0001B5510001B5
:10298000B6110001B7110001B811D8B442D0010E40
:102990000001BD6F08D00001D890B537B637B73702
:1029A000B8370001BD2B0001B8AFF5D70001D890B2
:1029B000B937BA37BB37BC370001B5510001B15D3B
:1029C0000001B6510001B2590001B7510001B359DD
:1029D0000001B8510001B459D8A012D00001B5517E
:1029E0000001B15F0001B6510001B25B0001B751B7
:1029F0000001B35B0001B8510001B45B0001B98173
:102A00000001D890B833B733B633B5330001BD2FCA
:102A1000CDD7B9C0B1F0BAC0B2F0BBC0B3F0BCC042
:102A2000B4F012000001B551010DEB0EF324F66E67
:102A3000FD0EF420F76EF86A000EF8220800F5CFBC
:102A4000BBF0000E0001BA6F06D00001B3510001C7
:102A5000B45F0001BA2B0001B3510001B45DD8B0DE
:102A6000F4D70001B5510001B403F350B46F000175
:102A7000BA510001B4270001BB510001B617B4C020
:102A8000B7F0BBC0B8F00001B72B03D00001D8905D
:102A9000B8370001B72FFAD70001B851FF0A00017B
:102AA000B96FB1C0D9FFB2C0DAFF0001B951DF166A
:102AB000B4C0B7F0B6C0B8F00001B72B03D0000126
:102AC000D890B8370001B72FFAD7B1C0D9FFB2C03C
:102AD000DAFF0001B851DF1212007E0EF66E450ECD
:102AE000F76E010EF86E01EECAF010EE18F0090054
:102AF000F5CFEEFFE550E150FAE14A0EF66E470ED3
:102B0000F76E010EF86E00EEF9F010EE07F0090016
:102B1000F5CFEEFFE550E150FAE11A0EF66E470EE2
:102B2000F76E010EF86E00EE3FF010EE0AF00900AD
:102B3000F5CFEEFFE550E150FAE102EE46F011EE7E
:102B40002CF0EE6AE550E150FCE1E250FAE102EED1
:102B500000F0460EEE6AE806FDE101EE00F0CA0E56
:102B6000EE6AE806FDE100EE60F0510EEE6AE8065E
:102B7000FDE100EE25F01A0EEE6AE806FDE149904F
:102B8000499200016EEF87F00001B96F020E00015B
:102B9000B627020E0001B827030E0001B927030E65
:102BA0000001B727000E0001B46F2A0E3AECA2F024
:102BB000010E0001B46F000E3AECA2F0010E00010C
:102BC000B46F0001B9513AECA2F0010E0001B46FEC
:102BD000000E3AECA2F0010E0001B46F0001B751F3
:102BE0003AECA2F0000E0001B46F2B0E3AECA2F00A
:102BF000010E0001B46F000E3AECA2F0010E0001CC
:102C0000B46F0001B6513AECA2F0010E0001B46FAE
:102C1000000E3AECA2F0010E0001B46F0001B851B1
:102C20003AECA2F0000E0001B46F2C0E3AECA2F0C8
:102C30001200080E10240D6E000E11200E6E12C030
:102C40000FF06CECA1F0146E3BD0010E131620EEC9
:102C500002F01050D9261150DA22DECF01F0DDCF7C
:102C600002F012C003F013C004F08FEC9EF01200CB
:102C7000010E1316010E131A20EE02F01050D92681
:102C80001150DA22DECF01F0DDCF02F012C003F0E6
:102C900013C004F08FEC9EF01200010E131620EE0C
:102CA00004F01050D9261150DA22DECF01F0DDCF2A
:102CB00002F012C003F013C004F08FEC9EF012007B
:102CC0001450000AD8B41200010AD8B4BED7030ABF
:102CD000D8B4CED7010AD8A41200DFD70001B36F51
:102CE00038D0920E0001B16F0F0E0001B26F1200CA
:102CF000930E0001B16F0F0E0001B26F1200940E1F
:102D00000001B16F0F0E0001B26F1200950E0001AD
:102D1000B16F0F0E0001B26F1200960E0001B16F7D
:102D20000F0E0001B26F1200970E0001B16F0F0E6F
:102D30000001B26F1200980E0001B16F0F0E00017A
:102D4000B26F1200000E0001B16F000E0001B26FF1
:102D500012000001B351000AD8B4C3D7010AD8B495
:102D6000C7D7030AD8B4CBD7010AD8B4CFD7070A3C
:102D7000D8B4D3D7010AD8B4D7D7030AD8B4DBD78D
:102D8000E1D70001B36F38D0E70E0001B16FFF0E3D
:102D90000001B26F1200E50E0001B16FFF0E0001DD
:102DA000B26F1200E30E0001B16FFF0E0001B26FAF
:102DB0001200E10E0001B16FFF0E0001B26F1200B0
:102DC000DF0E0001B16FFF0E0001B26F1200DD0EC9
:102DD0000001B16FFF0E0001B26F1200DB0E0001A7
:102DE000B16FFF0E0001B26F1200000E0001B16F53
:102DF000000E0001B26F12000001B351000AD8B4F6
:102E0000C3D7010AD8B4C7D7030AD8B4CBD7010AAD
:102E1000D8B4CFD7070AD8B4D3D7010AD8B4D7D7F4
:102E2000030AD8B4DBD7E1D70001B36F38D0800EE6
:102E30000001B16F0F0E0001B26F1200810E000190
:102E4000B16F0F0E0001B26F1200820E0001B16F60
:102E50000F0E0001B26F1200830E0001B16F0F0E52
:102E60000001B26F1200840E0001B16F0F0E00015D
:102E7000B26F1200850E0001B16F0F0E0001B26F2C
:102E80001200860E0001B16F0F0E0001B26F12002A
:102E9000000E0001B16F000E0001B26F12000001C0
:102EA000B351000AD8B4C3D7010AD8B4C7D7030AAC
:102EB000D8B4CBD7010AD8B4CFD7070AD8B4D3D760
:102EC000010AD8B4D7D7030AD8B4DBD7E1D7000EAC
:102ED0000001D36F0001C5510001C9250001D16F68
:102EE0000001C7510001CB250001D26FCBC0B1F06A
:102EF000CCC0B2F0C9C0B3F0CAC0B4F0A3ECA0F02B
:102F0000B1C0CFF0B2C0D0F0C7C0B6F00001D1055B
:102F10000001B76F0001D2050001B86F0001C55173
:102F2000C4EC95F0000E0001D36F13D00001D35113
:102F3000020DF3500001C325D96EF4500001C421E5
:102F4000DA6EDECFB6F0DDCFB7F096ECA2F000017E
:102F5000D32B0001D3510001CD6FCE6B0001CF51B7
:102F60000001CD5D0001D0510001CE59D8B0120052
:102F7000DDD7B1C0F6FFB2C0F7FF000EF86E0F0E3E
:102F8000F76403D00800F55005D0F6CFE9FFF7CF7E
:102F9000EAFFEF500001B96F0001B551010DEB0ED2
:102FA000F324F66EFD0EF420F76EF86A000EF82298
:102FB0000800F5CFB7F0000E0001B86F06D0000191
:102FC000B3510001B45F0001B82B0001B3510001FF
:102FD000B45DD8B0F4D70001B5510001B403F3508B
:102FE000B46F0001B8510001B4270001B4290001F9
:102FF000B66F03D00001D890B9330001B62FFAD7CD
:103000000001B7510001B9170001B9511200C80EF3
:103010000001CB6F000E0001CC6F34D0250E0001F3
:10302000CD19D8B405D00001CD515FECA3F02AD062
:10303000000E0001CA6F11D0CBC0D9FFCCC0DAFF9F
:10304000DF500001CD6F020E0001CB27000ECC2314
:103050000001CD515FECA3F015D0C6C0F6FFC7C08C
:10306000F7FF0001C64BC72B000EF86E0800F5CF26
:10307000CDF00001CD51000AD8B41200630AD8B4D3
:10308000DBD7E6D7C6C0F6FFC7C0F7FF0001C64BC7
:10309000C72B000EF86E0800F5CFCDF00001CD5122
:1030A000D8B41200BBD70001B66F000E0001B76F95
:1030B000000E0001B46F360E3AECA2F00001B651DA
:1030C000030B0001B76F2CD0010E0001B46FC80EC6
:1030D0003AECA2F0800E486E800E476E1200010E90
:1030E0000001B46FA80E3AECA2F0800E486E800E7C
:1030F000476E1200010E0001B46F080E3AECA2F008
:10310000800E486E800E476E1200010E0001B46FF3
:10311000680E3AECA2F0800E486E800E476E1200E8
:103120000001B751000AD8B4CFD7010AD8B4D7D715
:10313000030AD8B4DFD7010AD8A41200E6D739D0E1
:103140003650140D460E0001B16F020E0001B26F31
:10315000F3500001B127F4500001B2233750010DA4
:10316000F3500001B125D96EF4500001B221DA6E9E
:10317000DF50D8B41DD0010E0001FF6F3650140D82
:10318000460E0001B16F020E0001B26FF350000154
:10319000B127F4500001B2233750010DF350000164
:1031A000B125D96EF4500001B221DA6E800EDF6EC7
:1031B000372A130E3764C4D7000E376E362A080E2E
:1031C0004126000E4222000E406E060E3F6E120097
:1031D0000001B76FF40EF66EFD0EF76E000EF86E7E
:1031E0000900F5CFB3F00900F5CFB4F00900F5CF31
:1031F000B5F00A00F5CFB6F0110E0001B86F030E5E
:103200000001B7170001B751010DB30EF324D96EB9
:10321000000EF420DA6EDF500001B16FB8C0B2F0DA
:103220000001B12B03D00001D890B2370001B12FBB
:10323000FAD70001B2510001B86F0001B8390F0B85
:103240000001B86F0001B8510F0B0001B86F010108
:103250002D510001B819F00BB81901012D6F1200A2
:10326000000E376E000E366E000E0001B46F0E0EAB
:103270000001B46501D02DD0000E0001B36F130E14
:103280000001B36501D022D0010E0001FF6F0001E3
:10329000B451140D460E0001B16F020E0001B26F61
:1032A000F3500001B127F4500001B2230001B351E3
:1032B000010DF3500001B125D96EF4500001B22187
:1032C000DA6E800EDF6E0001B32BD9D70001B42B6C
:1032D000CED7010E0001806F000E406E060E3F6ECD
:1032E000000E426E060E416E1200000E376E000E8A
:1032F000366E000E0001B36F130E0001B36501D0EE
:103300001200000E0001B46F0E0E0001B46501D072
:103310002CD00001B451140D460E0001B16F020E05
:103320000001B26FF3500001B127F4500001B22345
:103330000001B351010DF3500001B125D96EF450D5
:103340000001B221DA6E000EDF6E0001B451020DF1
:10335000000EF324D96E010EF420DA6EFF0EDE6E3D
:10336000FF0EDD6E0001B42BCFD70001B32BC4D705
:103370000001B76F090E0001B4611200B7C035F04B
:10338000000E336E070E336401D027D035C0B5F080
:10339000010E0001B517060E0001B66F0001D890AE
:1033A000B5370001B62FFAD70001B551346E0001D0
:1033B000B439E842F80B331034100001B86FD890DC
:1033C0003532610E0001B16F010E0001B26FB8C05D
:1033D000B3F004EC9CF0332AD5D7610E0001B16F35
:1033E000010E0001B26F000E0001B36F04EC9CF0FF
:1033F0001200DB0EF66EFD0EF76E000EF86E20EE7C
:10340000C6F00F0E0900F5CFDEFFE806FBE2C0C0F4
:10341000BDF0C1C0BEF0C3C0BFF02BECA0F00001F6
:10342000D66F040E0001C26120D0040E0001D661E7
:103430001CD00001C251040DC60E0001C46F000E65
:103440000001C56FF3500001C427F4500001C523EB
:103450000001D651010DF3500001C425D96EF4507E
:103460000001C521DA6EDF501200050E1200000EB9
:103470000001B76F000EB66F0001B3510001B41127
:10348000D8B42CD0010E0001B56F06D00001D89041
:10349000B337B4370001B52B0001B4AFF7D7000143
:1034A000D890B637B7370001B3510001B15D0001C4
:1034B000B4510001B259D8A00AD00001B3510001A3
:1034C000B15F0001B4510001B25B0001B68100019F
:1034D000D890B433B3330001B52FE1D7B6C0B1F003
:1034E000B7C0B2F0120001C0F6FF02C0F7FF000E35
:1034F000F86E0F0EF76403D00800F55005D0F6CF34
:10350000E9FFF7CFEAFFEF50096E0550010DEB0E12
:10351000F324F66EFD0EF420F76EF86A000EF82222
:103520000800F5CF07F0000E086E03D00350045ECC
:10353000082A0350045CD8B0F9D705500402F350B0
:10354000046E085004260428066E02D0D890093272
:10355000062EFCD70750091609501200000120EE74
:1035600006F0C051D926C151DA22DECFB1F0DDCF4D
:10357000B2F0050E0001B36F000E0001B46FD6EC7F
:103580009CF0000120EE06F0C051D926C151DA228C
:10359000DECFBCF0DDCFBDF0000E0001BE6F000E2F
:1035A0000001BF6F29ECA2F0000120EE06F0C0512F
:1035B000D926C151DA22DECFB1F0DDCFB2F0050E4F
:1035C0000001B36F010E0001B46FD6EC9CF0120045
:1035D000FC0E966E570E0001CC6F010E0001CD6FF0
:1035E000010E0001CE6F5CEC8EF0390E0001CC6F45
:1035F000010E0001CD6F010E0001CE6F5CEC8EF06C
:103600002F0E0001CC6F010E0001CD6F010E0001E5
:10361000CE6F5CEC8EF0430E0001CC6F010E00010A
:10362000CD6F010E0001CE6F5CEC8EF04D0E0001EF
:10363000CC6F010E0001CD6F010E0001CE6F5CEC6E
:103640008EF01200000120EE06F0C051D926C151C3
:10365000DA22DECFB1F0DDCFB2F0050E0001B36F9C
:10366000000E0001B46FD6EC9CF0000120EE06F0D5
:10367000C051D926C151DA22DECFBCF0DDCFBDF07A
:10368000000E0001BE6F020E0001BF6F29ECA2F018
:10369000000120EE06F0C051D926C151DA22DECF5A
:1036A000B1F0DDCFB2F0050E0001B36F010E0001E5
:1036B000B46FD6EC9CF01200000E0001C66F000E35
:1036C0000001C76FBEC0B6F00001BC510001C025AB
:1036D0000001C46F0001C4050001B76F0001BE51B5
:1036E0000001C2250001C56F0001C5050001B86FCA
:1036F0000001BC51C4EC95F0C2C0C7F00001C75135
:103700000001D8B41200C0C0C6F00001C6510001CB
:10371000D8B409D0BAC0B6F0BBC0B7F096ECA2F0EE
:103720000001C607F2D70001C707E8D7A90E0001BC
:10373000D76F010E0001D86F070E0001D96F030E7D
:103740000001DA6F77EC8AF0A90E0001D76F010E45
:103750000001D86F060E0001D96F030E0001DA6F69
:1037600077EC8AF040EC9EF0C00E0001DE6FC60ED2
:10377000DF6F2D0EE06F000EE16F010E0001E26FB2
:10378000010E0001E36F00EC80F06C0E0001C06FD1
:10379000010E0001C16FAEEC9AF012000001B351AE
:1037A0000001B1250001B66F0001B4510001B22142
:1037B0000001B76F1AD0B1C0D9FFB2C0DAFFDF5035
:1037C0000001B56FB6C0D9FFB7C0DAFFB1C0E1FFE5
:1037D000B2C0E2FFDFCFE7FF0001B14BB22BB6C0B2
:1037E000D9FFB7C0DAFFB5C0DFFF0001B607D8A028
:1037F000B7070001B6510001B15D0001B7510001EA
:10380000B259D8B01200D7D726D099C0D9FF9AC0E4
:10381000DAFF0001DF94B3C0C9FFC7A0FED7C9CF4C
:10382000B3F099C0D9FF9AC0DAFF0001DF8412001B
:103830008FC0D9FF90C0DAFF0001DF9EB3C06FFFD9
:103840006DA0FED76FCFB3F08FC0D9FF90C0DAFF65
:103850000001DF8E1200000120EE02F0B151D926E6
:10386000B251DA22DF50000AD8B4CFD7010AD8A467
:103870001200DED71FD0000E0001B36F000EB46F30
:10388000000EB56F000EB66F0001B6510001B51104
:1038900011E1B00E0001B35D040E0001B459D8B0BF
:1038A00009D000F0010E0001B327000EB423B523A8
:1038B000B623EAD70001B107D8A0B2070001B129A9
:1038C000DAE10001B229D8A4D6D7080E0001B36FFF
:1038D000800EB46F000EB56F000EB66F1200050EAD
:1038E0000001DD6FD7C0D9FFD8C0DAFFDECFDEF030
:1038F000DDCFDFF00001D951020DF3CFDBF0000185
:10390000D951020DF3280001DC6FDEC0C0F0DFC02A
:10391000C1F0DAC0C2F0DBC0C3F0F9EC99F00001ED
:10392000DD6F0001DD51D8A40CD0DEC0C0F0DFC0D7
:10393000C1F0DAC0C2F0DCC0C3F0F9EC99F00001CC
:10394000DD6F0001DD511200372A060E3F26000E02
:103950004022060E3F240001B56F000E40200001FA
:10396000B66F0001B6BF09D00001B65104E1800E68
:103970000001B55DD8B09FEC98F0080E412400011D
:10398000B56F000E42200001B66F0001B6BF0CD02B
:103990000001B65105E1800E0001B55DD8A004D04C
:1039A00030EC99F0010E1200000E1200010E000121
:1039B000B417B3C0B5F0010E0001B66F0001B52B0E
:1039C00003D00001D890B6370001B52FFAD7000117
:1039D000B651FF0A0001B76FB1C0D9FFB2C0DAFF1C
:1039E0000001B751DF16B3C0B5F0B4C0B6F00001A6
:1039F000B52B03D00001D890B6370001B52FFAD708
:103A0000B1C0D9FFB2C0DAFF0001B651DF12120017
:103A10000001DE6F1ED0950E0001D76F000E000171
:103A2000D86F000E0001D96F030E0001DA6F77EC3A
:103A30008AF017D0950E0001D76F000E0001D86FE5
:103A4000010E0001D96F030E0001DA6F77EC8AF0E6
:103A500008D00001DE51000AD8B4DDD7010AD8B47D
:103A6000E9D7000E0001C56F0001DE5118EC9EF091
:103A700012000001B3510001B411D8B426D0010ED8
:103A80000001B56F06D00001D890B337B4370001FC
:103A9000B52B0001B4AFF7D70001B3510001B15D00
:103AA0000001B4510001B259D8A008D00001B351AF
:103AB0000001B15F0001B4510001B25B0001D89078
:103AC000B433B3330001B52FE7D7B1C0B1F0B2C002
:103AD000B2F01200050E0001E66F0001E251020D86
:103AE000F3CFE4F00001E251020DF3280001E56F8D
:103AF000E0C0D7F0E1C0D8F0E4C0D9F0E3C0DAF01C
:103B00006FEC9CF00001E66F0001E651D8A40CD0E8
:103B1000E0C0D7F0E1C0D8F0E5C0D9F0E3C0DAF0FA
:103B20006FEC9CF00001E66F0001E6511200000E00
:103B30000001BC6F000E0001BD6F000E0001B66FEA
:103B400048040001B76F47040001B86F000EC4ECD1
:103B500095F047C0BDF00001BD510001D8B412007E
:103B600048C0BCF00001BC510001D8B409D0BAC0B3
:103B7000B6F0BBC0B7F096ECA2F00001BC07F2D7DC
:103B80000001BD07E8D70001CA6F0001CA5140EC2F
:103B9000A3F00001CA510001D8A41DD00001D890A3
:103BA000713772370001722900017111D8A406D053
:103BB000000E0001726F000E716F09D0000172518A
:103BC00006E100017129D8B002D000017181000125
:103BD000715197ECA3F0000EFEEC9EF012001CD089
:103BE000000E0001B36F000EB46F000EB56F000E33
:103BF000B66F0001B3510001B4110001B51100010D
:103C0000B611D8A409D000F0010E0001B327000EB0
:103C1000B423B523B623EDD70001B107D8A0B2076E
:103C20000001B129DDE10001B229D8B41200D8D7D2
:103C30000001C66F1CD0950E0001C06F000E000180
:103C4000C16F000E0001C26FC5C0C3F092EC93F0CB
:103C50001200950E0001C06F000E0001C16F010E31
:103C60000001C26FC5C0C3F092EC93F012000001D6
:103C7000C651000AD8B4DFD7010AD8A41200E9D788
:103C80005AECA2F0010EFEEC9EF0000E0001B26FA5
:103C9000800EB16F3AEC9CF0010EFEEC9EF04BEC06
:103CA000A2F0000E0001B26F800EB16F3AEC9CF0F2
:103CB000010EFEEC9EF05AECA2F0000E0001B26F75
:103CC000800EB16F3AEC9CF0010EFEEC9EF01200FB
:103CD0003750D8B406D0FA0E3F26FF0E40223706E2
:103CE0001BD03650D8B40CD0000E406E720E3F6E12
:103CF000F80E4126FF0E4222130E376E36060CD008
:103D0000000E406E060E3F6E000E426E060E416EB5
:103D1000000E376E000E366E4AECA0F01200010E57
:103D2000041603C005F0010E066E052A02D0D890D5
:103D30000636052EFCD70650FF0A076E01C0D9FFD4
:103D400002C0DAFF0750DF1603C005F004C006F01A
:103D5000052A02D0D8900636052EFCD701C0D9FF1F
:103D600002C0DAFF0650DF121200000120EE06F05A
:103D7000B151D926B251DA22DECFB4F0DDCFB5F0A1
:103D8000B4C0D9FFB5C0DAFFDF500001B66F000143
:103D9000B351040DF3280001B46F03D00001D89093
:103DA000B6330001B42FFAD70F0E0001B617000189
:103DB000B6511200050E0001EA6FE7C0E0F0E8C05E
:103DC000E1F0000E0001E26FE9C0E3F06AEC9DF063
:103DD0000001EA6F0001EA51D8A40DD0E7C0E0F07D
:103DE000E8C0E1F0010E0001E26FE9C0E3F06AEC27
:103DF0009DF00001EA6F0001EA5112000001C96F55
:103E000018D0950E0001C56F000E0001C66F000EA0
:103E10000001C76F3CECA1F01200950E0001C56FC8
:103E2000000E0001C66F010E0001C76F3CECA1F04F
:103E300012000001C951000AD8B4E3D7010AD8A47E
:103E40001200EBD7000120EE06F0B151D926B25195
:103E5000DA22DECFB4F0DDCFB5F0B4C0D9FFB5C003
:103E6000DAFFDF500001B66F0001B3290001B46F23
:103E700003D00001D890B6330001B42FFAD7010E59
:103E80000001B6170001B6511200030E0001C26511
:103E900014D0010E0001C0250001BC6F000E00010E
:103EA000C1210001BD6F0001C251FC0F0001BE6FB6
:103EB000C3C0BFF018ECA2F01200C0C0BCF0C1C07B
:103EC000BDF0C2C0BEF0C3C0BFF018ECA2F012003B
:103ED0000001B1510001B211D8B412000001B4BF09
:103EE00010D00001B45104E10001B305D8A009D0FD
:103EF000B1C0D9FFB2C0DAFFFF0EDE6E7F0EDD6EFD
:103F00001200B1C0D9FFB2C0DAFF010EDE6E800E22
:103F1000DD6E12000001CA6F0001CA5135ECA3F03A
:103F20000001CA510001D8A413D000017151000151
:103F30007211D8A405D0FF0E0001726F000E716FD0
:103F40000001D890723371330001715197ECA3F0E6
:103F5000000EFEEC9EF012000001B86F86500F0BB1
:103F60000001B76F4350D8A402D0000E1200000E1B
:103F7000436E0001B8510001B719D8B40CD0F00E4F
:103F800086160001B8518612000E0001B26F0A0EAB
:103F9000B16FEFEC9DF0010E120016D0000E036E13
:103FA000000E046E000E056E000E066E0350041027
:103FB00005100610D8A408D000F0010E0326000E4C
:103FC000042205220622F2D70106D8A00206012803
:103FD000E5E10228D8B41200E1D70001B86F86509D
:103FE0000F0B0001B76F4350D8B4FDD7000E436EDE
:103FF0000001B8510001B719D8B40CD0F00E8616E4
:104000000001B8518612000E0001B26F0A0EB16FA6
:10401000EFEC9DF0010E1200000E0001BA6F000ED1
:10402000B96F0001BA5116E1080E0001B95DD8B0B0
:104030001200B9C0B4F0270E0001B925D96E010EE7
:104040000001BA21DA6EDF50B8EC99F00001B94BEB
:10405000BA2BE7D71200030E0001BF6512D0010E84
:104060000001BD250001BA6F000E0001BE21000154
:10407000BB6F0001BF51FC0F0001BC6F87ECA2F0C9
:104080001200BDC0BAF0BEC0BBF0BFC0BCF087EC30
:10409000A2F01200010E0001FF6F3650140D460E03
:1040A0000001B16F020E0001B26FF3500001B127A1
:1040B000F4500001B2233750010DF3500001B12537
:1040C000D96EF4500001B221DA6E800EDF6E12005C
:1040D0000001CA6F0001CA510001D8A413D0000129
:1040E0007B2B00017B5100017327000E742373C0EA
:1040F000C2F074C0C3F0DDECA1F000017B51030BF2
:10410000E8EC98F0000EFEEC9EF01200B4C02AF02D
:10411000B5C02BF0B4C0D9FFB5C0DAFFDE50DE1059
:10412000D8A41200B4C0D9FFB5C0DAFFB6C0DEFF14
:10413000B7C0DDFF6BC0B1F06CC0B2F06DC0B3F0C2
:1041400006ECA2F012000001B1510001B303F3CF5D
:10415000B5F0F4CFB6F00001B1510001B403F35053
:104160000001B6270001B2510001B303F350000172
:10417000B627B5C0B1F0B6C0B2F01200086E8650D6
:104180000F0B076E4350D8A402D0000E1200000E91
:10419000436E08500718D8B40AD0F00E861608509F
:1041A0008612000E026E0A0E016ECDEC9FF0010E1B
:1041B0001200B1C0F6FFB2C0F7FF000EF86E0800A3
:1041C000F5CFB5F00001B3290001B46F03D00001B1
:1041D000D890B5330001B42FFAD7010E0001B517FE
:1041E0000001B55112000001CA6F0001CA514BEC29
:1041F000A3F00001CA510001D8A40AD0000173073E
:10420000D8A0740773C0C2F074C0C3F0DDECA1F095
:10421000000EFEEC9EF01200255026102710D8B498
:104220000CD001D80AD00500FA6E2550FD6E26503C
:10423000FE6E2750FF6EFA501200000E256E000E23
:10424000266E000E276E12000001CA6F0001CA51CF
:104250002AECA3F00001CA510001D8A409D0000142
:10426000734B742B73C0C2F074C0C3F0DDECA1F0CB
:10427000000EFEEC9EF01200C5C0B1F0C6C0B2F058
:10428000C7C0B3F022EC9FF00001C86F010E00011F
:10429000C81BC5C0C0F0C6C0C1F0C7C0C2F0C8C00E
:1042A000C3F092EC93F01200000120EE02F0B15145
:1042B000D926B251DA22DF50D8A407D099C0D9FF4D
:1042C0009AC0DAFF0001DF8412008FC0D9FF90C0CE
:1042D000DAFF0001DF8E1200030E0F640CD0010E16
:1042E0000D240A6E000E0E200B6E0F50FC0F0C6E8C
:1042F000B2ECA2F012000DC00AF00EC00BF00FC01D
:104300000CF0B2ECA2F012000001CA6FACECA3F00A
:104310000001CB6F0F0E0001CB170001CA3BF00E5E
:10432000CA170001CA510001CB1197ECA3F0000E8F
:10433000FEEC9EF01200AFECA3F00001685100010A
:10434000691100016A11D8B4120001D812000500E9
:10435000FA6E00016851FD6E6951FE6E6A51FF6E82
:10436000FA5012000001CA6FACECA3F00001CB6F51
:104370000001CA510001CB1197ECA3F0F00E00012F
:10438000CB170F0E0001CA17000EFEEC9EF01200B4
:10439000000120EE02F0CC51D926CD51DA22CEC058
:1043A000DEFFCFC0DDFFCEC0BEF0CFC0BFF000014A
:1043B000C06BC16B0FEC8FF01200C2C0B8F0C3C06D
:1043C000B9F0270E0001BA6F010E0001BB6FE9ECD6
:1043D00091F0270E0001B26F010E0001B36F73EC74
:1043E00091F0120004D09D961200A39E12000001CD
:1043F00020EE02F0B151D926B251DA22DF50000A84
:10440000D8B4F1D7010AD8A41200EFD7B1C068F030
:10441000B2C069F0B3C06AF028C0D6FF29C0D7FF88
:10442000D5503118F80B3118D56EF294F28A12007B
:10443000BCC0B1F0BDC0B2F0040E0001B36FBEC08D
:10444000B4F0020E0001B56FBFC0B6F012EC95F0EB
:104450001200BCC0B1F0BDC0B2F0020E0001B36FDB
:10446000BEC0B4F0040E0001B56FBFC0B6F012ECD0
:1044700095F012000001B56F0001B45156ECA3F0A5
:104480006C0E0001B16F010E0001B26FB5C0B3F048
:1044900004EC9CF01200A90E0001C06F010E000197
:1044A000C16F060E0001C26F010E0001C36F92ECD6
:1044B00093F01200A90E0001C06F010E0001C16F40
:1044C000060E0001C26F000E0001C36F92EC93F064
:1044D00012008B0E0001E76F000E0001E86F000E66
:1044E0000001E96F000E0001EA6F2EEC85F012006A
:1044F000950E0001D76F010E0001D86F040E000168
:10450000D96F000E0001DA6F77EC8AF01200BAC0A2
:10451000B1F0BBC0B2F0040E0001B36FBCC0B4F088
:10452000020E0001B56FB9EC97F01200010E000108
:10453000B46F0001B7513AECA2F0010E0001B46F64
:104540000001B6513AECA2F01200000E406E060EC9
:104550003F6E000E426E060E416E000E376E000E6C
:10456000366E12000AC001F00BC002F0040E036E9A
:104570000CC004F0020E056E73EC9AF0120000F805
:10458000FFFF1F00E007FF074D6F746F720006000A
:104590000600800007008B0E0001B16F000E0001C5
:1045A000B26F000E0001B36FB5EC9EF01200810EE9
:1045B0000001B16F000E0001B26F000E0001B36F79
:1045C000B5EC9EF01200810E0001B16F000E0001EB
:1045D000B26F060E0001B36F22EC9FF01200810E45
:1045E0000001B16F000E0001B26F070E0001B36F42
:1045F00022EC9FF01200810E0001B16F000E00014D
:10460000B26F040E0001B36F22EC9FF01200810E16
:104610000001B16F000E0001B26F050E0001B36F13
:1046200022EC9FF01200950E0001B16F010E000107
:10463000B26F040E0001B36F22EC9FF01200010E66
:10464000436E255026102710D8B402D0010E120058
:10465000000E12000001B16F0001B1B103D00101E1
:104660002D9102D001012D8112000001B16F0001D6
:10467000B1B103D001012D9702D001012D871200A5
:104680000001B16F0001B1B103D001012D9502D03D
:1046900001012D8512000001B16F0001B1B103D0FD
:1046A00001012D9302D001012D8312000001B16F91
:1046B0000001B1B102D0859E01D0858E12000001AB
:1046C000C56F0001C55120EC8CF01200B1C0D9FFBC
:1046D000B2C0DAFFB3C0DFFF1200B1C025F0B2C034
:1046E00026F0B3C027F0120001C025F002C026F06A
:1046F00003C027F0120028C0D6FF29C0D7FFF294CC
:10470000120028C0D6FF29C0D7FFF28A120028C0A5
:10471000D6FF29C0D7FFF28A120006000600014129
:1047200061308080F28CF28EF288F29212000001E9
:10473000B16FB1C02EF11200B1C0FDF0B2C0FEF0F9
:1047400012009E929D929F92120005000700FFFFAB
:014750000167
:10475200F29AF294120001012E511200F29AF2948E
:0C4762001200010E436E12009668120057
:06FFF800AAF705FFF8F175
:00000001FF
