:100000000DEF04F026EF00F004EF0AF0D1EC04F05D
:10001000FF0000F000F012000CEF0AF018EF00F003
:10003000F26AFC6A9BEC04F004009EEC09F0D8EC38
:1000400003F0F3EC03F05EEC08F0F6D701501F0B61
:10005000E80601E01200055001E01200060E021849
:1000600014E01AD0020E3D6E4A0E3FD8306A090ED7
:100070000AD0020E3D6E450402E1870E36D84504D3
:100080000AE1306A1D0E2F6E06D00450210AEAE004
:10009000030AEFE0010A42820138E832030BE80666
:1000A00014E01200020E3D6E440E206E24D0020EAB
:1000B0003D6E04C044F0020C020E3D6E430EF5D7B7
:1000C000020E3D6E03C043F0020C0250010AD8B488
:1000D0001200030AE7E0010AEFE00A0AD8B41200AE
:1000E000030AE5E0010AECE01200206E2050D8A4DB
:1000F000100E216E1200216A4292010E2F6E010C29
:100100004F6A140E506E516A296A2A6A4FC0F6FF70
:1001100050C0F7FF51C0F8FF42D80800F5CFDFFF0D
:100120004F2A000E50225122294A2A2A040E2A5C04
:10013000EDE30D0EE8CFB2F4600EE8CFB3F4000E9D
:10014000496E050E486E0AEC03F04F68170E506EAC
:10015000516A030E2A6E296851C0F8FF50C0F7FF9C
:100160004FC0F6FF1CD8DF50F56E0C0029C04EF0D2
:100170003F0E4E1607E1FEEC09F0040EA66EB50E1A
:1001800067EC04F04F06000E505A515A0A002950ED
:100190002A1001E112002906D8A02A06DDD7AC0EEC
:1001A0002924D96E040E2A20DA6E120003040BE112
:1001B00001501F0B08E1010E3D6E030E021802E113
:1001C000428001D042900350D8A4120001501F0B6E
:1001D000020AD8A4120005500F0BD8B4120028D878
:1001E000476A040E486E4726000E4822F350472601
:1001F000F450482223D847241D6EF45048201E6E28
:10020000030E021805E10FD8040EDF6E0CD81CD0C7
:1002100005AE04D008D8400EDF6E400C04D8080E9E
:10022000DF6E01D811D01DC0D9FF1EC0DAFF120049
:10023000010E3D6E05500F0B080D1200010E05AEAC
:10024000000E040DF3501200000EDB8E000C3D502A
:1002500010E193EC03F0196E3A0405E1010E32EC63
:1002600003F03A6A1200000E32EC03F0010E3A6E0F
:10027000010C01AE1BD0010E3E6E2F50075C3050BA
:10028000085804E207C02FF008C030F076EC01F007
:10029000480E196E010E32EC03F0000E32EC03F042
:1002A000240E04010A6F040E0B6F1CD0020E3E6E6A
:1002B000040E196E0750081002E1480E196E3A0438
:1002C00005E1010E32EC03F03A6A05D0000E32EC83
:1002D00003F0010E3A6E07500810D8A41200040172
:1002E000096B00D0480E086F088F480C080E326E5C
:1002F00030500DE1080E2F5C0AE22FC032F0405062
:1003000002E1010E03D0400402E1020E406E32C051
:1003100009F432502F5E000E305A240E1D6E040E6A
:100320001E6E42A21AD00BD01BD813EC01F00F0E98
:10033000F76403D00800F55001D019D81ED8325008
:10034000F3E112000DD813EC01F00F0EF76403D0A7
:100350000800F55001D00BD810D83250F3E112004C
:1003600020C0F6FF21C0F7FF000EF86E1200F6CF96
:10037000E1FFF7CFE2FFE7501200DF6E1D4A1E2AB1
:10038000204A212A320612000138E832030B18E015
:100390001200010E3D6E040E416E040C010E3D6E06
:1003A000450E206E7BEF00F02CD8496E49C020F03E
:1003B0007BEF00F026D8D96EDA6A03C0DFFF1200A7
:1003C000025002E179EF02F0010A02E1D6EF00F0FB
:1003D000020A02E1D6EF00F0060ADBE0030A02E1BE
:1003E00006EF02F0010AD8B412000F0AD7E0010AA2
:1003F00002E155EF03F0030AD7E0010ADBE0070A48
:100400001200010E3D6E0550460F1200800E0118BD
:1004100030E01200010E3D6EA40E75EC00F0120EDD
:1004200009D003502DE1010E3D6E380E75EC00F041
:10043000306A290E2F6E24D0010E3D6E0350010F3D
:10044000476E47C0F6FF100EF76E000EF86E0900FB
:10045000F5CF20F0100E216EB0EC01F00F0EF76416
:1004600003D00800F55002D0B7EC01F02F6E306ACF
:1004700007D00450010ACEE0030AD3E0010ADCE011
:1004800042821200366A27D03850486E000E48BEAD
:10049000FF0E496E4A6E4B6E4850155C0D6E49500A
:1004A00016580E6E4A5017580F6E4B501858106E53
:1004B0000FC0F8FF0EC0F7FF0DC0F6FF11D80D00FA
:1004C000362A0ED80C00362A240EA66EB50E67EC1E
:1004D00004F0FE0E38263850800A7F0FD5E2120055
:1004E000AC0E3624D96EDA6A040EDA22DF50F56ECD
:1004F0001200246B256B22D0010E3D6E42B0248386
:1005000024D0010E3D6E21D018EC01F0476A040E94
:10051000486E4726000E4822F3504726F4504822E2
:100520001EEC01F047241D6EF45048201E6E13ECA3
:1005300001F0DFA40AD0010E246F07D001501F0B79
:10054000DBE0010ADEE0030ADFE03D04D8A412008C
:10055000240E206E040E216E4292020E2F6E020CAB
:10056000400E486401D0486E4A6A0DD047504A2474
:10057000D96EDA6A6C0E4A24E16EE26A040EE22257
:10058000DFCFE7FF4A2A48504A5CF0E348C011F445
:10059000400E0401101710BD03D0496A492A01D04A
:1005A000496A493A49464946040110514918BF0B66
:1005B0004918106F1087108F12003F6A0CBF12008D
:1005C00048500D5D02E20DC448F03F6A0BD02C0E7E
:1005D0003F24D96EDA6A040EDA2247503F24F9EC40
:1005E00009F03F2A48503F5CF2E3400E0D6F0C17B4
:1005F0000CBD03D0496A492A01D0496A493A4946A3
:10060000494604010C514918BF0B49180C6F0C875F
:100610000C8F1200495006E1050E485C03E2496A5E
:10062000050E486E48504A6E49504B6E4C6A4D6AF2
:100630000A0ED8904A364B364C364D36E82EF9D74E
:100640004AC009F04BC00AF04CC00BF04DC00CF092
:100650000BC0F8FF0AC0F7FFF66A140EA66EB50EBF
:1006600067EF04F0476E080E1A6E1C0E1B6E040E28
:100670001C6E475006E1140E1B6E040E1C6E256A9C
:1006800002D0040E256E266E0BD819C0DEFF1AC0EC
:10069000DEFF1BC0DEFF1CC0DEFF02D8DF8E1200B3
:1006A00025C0D9FF26C0DAFF1200010E3D6E0F01F2
:1006B00016D8346A3450460FD96EDA6ADF6A342AA3
:1006C0003450F8E003C045F04550C9EC04F0035045
:1006D00003E1050E416E050C060E416E060C4D6BD6
:1006E0004E6B4F6B506B516B526B536B1200040E81
:1006F000411808E103C05EFF0F015E51050ED8B43A
:10070000030E416E3E04D8A4120076EC01F0020EF6
:10071000401802E108D8040C0401480E08BD080E78
:10072000086F088F1200040E0401086F088F040C74
:10073000030E416E0F015D6B626A7B0E5C6F5E6B38
:100740006FEC03F0160E4C6F658C03D06296FEECD6
:1007500009F062B6FBD7659C6598040E196E000E11
:1007600032EC03F0010E3A6E426A456A000EC9EFA0
:1007700004F081B818EC00F0060EF66E14D80D0ED9
:10078000F5180DE10900600EF51809E1F66A0BD8BD
:10079000F52803E10900F52802E000EF0AF018EC63
:1007A00000F000EF00F0140EF76EF86A0900140C68
:1007B0002306D8A0240623502410D8A412004E0EDD
:1007C000246E236A060E416002D08B80060C8BB02B
:1007D00003D0476A472A01D0476A8B504718FE0B5F
:1007E00047188B6E1200C0BC1200030ED36E6592C8
:1007F0006596F26A0ED808D0C0AC04D02D06D8A0F9
:100800002E0601D006D804002D502E10F5E1FF0071
:100810001200040E2E6E2D6A040C04EEACF014EEE1
:1008200000F0EE6AE550E150FCE1E250FAE100EE42
:1008300060F0820EEE6AE806FDE100EE01F0460E81
:10084000EE6AE806FDE10001B9EF03F00401086B70
:10085000406A00AF02D0006B3A6A04AF03D0046B69
:10086000010E3A6E3E6A3D6A2F6A306A6598C4ECA2
:1008700001F002EC00F027EF01F005D80AD8376A42
:100880000CD8386A12007E0E3B6E116AFC0E126E96
:10089000FC0C010E136E146A000C156816681768BC
:1008A000186812003F6A1E0E0F014D6F400E0401C2
:1008B0000D6F2C0E0E6F040E0F6F080E0C6F0C8F49
:1008C0006C0E126F040E136F400E106F400C476ECB
:1008D000F29EF3EC03F0B50E471804E0030ED36E5E
:1008E0000300FED7550EA76EAA0EA76EA682A6B26B
:1008F000FED7A69412005CCF35F0040E0F015C6F9A
:1009000062986582A198A088AAEC04F0A09835505E
:100910000F015C131200390402E1D1EC04F0656AA6
:10092000150E0F015F6F5C6B658698EC03F0010E8E
:10093000416E396A1200600ED36E9B8CDCEC04F0C1
:10094000BFEC04F0C16AC26A3DEC04F08B90949055
:10095000E7EF04F08B90D3CF31F00300A1B802D0C1
:10096000D0A6FBD731C0D3FF1200D9EC04F06592BA
:100970000F015C9501D0629462A41200FCD705D0EF
:10098000FEEC09F04706D8A0480647504810F8E1A9
:100990001200476E4704D8A4120052EC04F03DEF59
:1009A00004F06592656A48684768BFEC04F0416AE4
:1009B000120002D8BFEF04F0030E486E476A030C22
:1009C000390401E1120065A68BEC04F0120065B653
:0E09D000D1EC04F0396AE0EF04F012001200DE
:1010000000B6046134034D006900630072006F0094
:1010100063006800690070002000540065006300F0
:1010200068006E006F006C006F00670079002000A0
:1010300049006E0063002E000902290001010080B2
:10104000320904000002030000000921110100011F
:10105000221D000705810340000107050103400030
:101060000126034800490044002000550053004277
:1010700000200042006F006F0074006C006F006180
:10108000006400650072000600FF0901A10119015A
:101090002940150026FF0075089540810019012997
:1010A000409100C01201000200000008D8043C007A
:0B10B00001010102000104030904001B
:1010BC00060E4118D8B465B21200375001E017D1B2
:1010CC0004010CBF1200600E476E400E486EDDEC42
:1010DC0002F0010E376E276A286A2750A10FD96ECD
:1010EC00DA6A000EDF6E274A282A285005E1400EE6
:1010FC00275CD8B01200F1D71200020EA16F3A0E85
:10110C00A26F010EA36FA46FA56B140EA66FA76B35
:10111C00A86B000E1124A96FEC0E1220AA6FFF0E03
:10112C001320AB6FFF0E1420AC6F030EAD6FF80ED7
:10113C00AE6FAF69010EB06FB16B080EB26FB36BCF
:10114C00B46BB56BB669A50EDA6F040110BFA50CB4
:10115C00A10E476E400E486EB0EC02F0376A1200DA
:10116C00615106E17F0E3B6EF80E116E126802D0D3
:10117C0043EC04F049EC04F0F1D7286A050E276E15
:10118C000CD0FEEC09F027C048F028C049F00AEC5E
:10119C0003F09EEC09F0274A282A3B50526E536A02
:1011AC00522A000E53225250275C53502858D6E234
:1011BC00E8D715280EE116280CE117280AE11828A3
:1011CC0008E161C015F062C016F063C017F064C08E
:1011DC0018F015506119C2E116506219BFE1175091
:1011EC006319BCE118506419B9E1276A286A1AD04E
:1011FC006551A0082724D96EDA6AAC0E3824E16E4A
:10120C00E26A040EE222DFCFE7FF382A152A000E2D
:10121C001622172218223A0E381802E142EC02F07C
:10122C00274A282A00017CD899E2E2D742EC02F046
:10123C004DEC04F093D7070EA16F61C0A2F062C011
:10124C00A3F063C0A4F064C0A5F065C0A6F063C0B1
:10125C00F8FF62C0F7FF61C0F6FF276A286A0BD05F
:10126C00090000016551E1082724D96EDA6AF5CF2F
:10127C00DFFF274A282A54D8F3E3040110BF1200D9
:10128C0067D780EC00F06AD70C0EA16F010EA36F2C
:10129C00020EA26F160EF66ED3EC03F0F5CFA4F08F
:1012AC000A00F5CFA5F0060EA66F140EA76FA86B5B
:1012BC00A96B600EAB6F0D0EAA6FAC6B040EAD6F0D
:1012CC00000EAE6BAF6BB069B169B269B369B4694A
:1012DC00B569B669B769B86BB96BBA6BBB6BBC6BEC
:1012EC00BD6BBE6BBF6BC9D706EC00F037D70001E6
:1012FC006051020A01E101D7010A01E131D7070A65
:10130C0001E13BD7010A01E154D7030A8FE0010A3E
:10131C0092E00F0AE9E0010AB4E0050AB5E01ED735
:10132C006551526E536A5250275C53502858120024
:10133C00E0EC04F0415001E1120062B4B5EC04F0B1
:10134C0065B2120062B098EC03F062B87BEC04F06A
:10135C00030E416001D0030C3C6A62A6120064507B
:10136C0064CF4AF07C0E4A162AE164B203D02B6A91
:10137C00040E02D0040E2B6E2C6E62962BC0D9FF7D
:10138C002CC0DAFFDF30E8320F0B0D0A20E1336A94
:10139C0023D8DECF4AF0DDCF4BF04AC0D9FF4BC08B
:1013AC00DAFF3350010F1FD817D8DE2A000EDD22CA
:1013BC00332A070E3364ECD726EC04F008D0040E65
:1013CC00641804E1629677EC03F001D062963C2A33
:1013DC00030E3C64C2D7030C20EE02F02B50D9262E
:1013EC002C50DA221200E16EE26ADFCFE7FF120026
:0413FC0004001200D7
:0414000045EF0AF0BA
:101406000D604982FACF17F0FBCF18F0E9CF19F03B
:10141600EACF1AF0E1CF1BF0E2CF1CF0D9CF1DF0D6
:10142600DACF1EF0F3CF1FF0F4CF20F0F6CF21F085
:10143600F7CF22F0F8CF23F0F5CF24F0F292F2B4F2
:10144600F2AA02D055EC8DF024C0F5FF23C0F8FFB8
:1014560022C0F7FF21C0F6FF20C0F4FF1FC0F3FF34
:101466001EC0DAFF1DC0D9FF1CC0E2FF1BC0E1FF92
:101476001AC0EAFF19C0E9FF18C0FBFF17C0FAFF40
:08148600499211009FEF89F06B
:10FD2E0000001180002C0100B102003500360000E9
:10FD3E00B202003500360000B30200350036000274
:10FD4E00003500360000B4000000C0A2000200849E
:10FD5E000000C1C50000C20D00000000C38D002AC6
:10FD6E000000C48D00EE0000C50A000036C8000079
:10FD7E00E012001C001000180033002C0025002893
:10FD8E0000280027002F003C000000030003001095
:10FD9E00008000780000E112001C00100018002DF9
:10FDAE0000280023002800280026002F003B00001A
:10FDBE0000030003001000003A0500002A000002B4
:10FDCE000000008100002B000003000000A20000D4
:10FDDE0029002C02000400080010002000400080C2
:10FDEE0000000100010200010001000202000003F8
:10FDFE00030300000103070F1F3F7FFF00020103F3
:10FE0E00010410000000000000005F000000070069
:10FE1E000700147F147F14242A7F2A1223130864E8
:10FE2E006236495522500005030000001C22410095
:10FE3E000041221C00082A1C2A0808083E08080057
:10FE4E00503000000808080808006060000020100C
:10FE5E000804023E5149453E00427F400042615136
:10FE6E0049462141454B311814127F10274545450F
:10FE7E00393C4A4949300171090503364949493629
:10FE8E00064949291E00363600000056360000008D
:10FE9E0008142241141414141441221408000201EF
:10FEAE00510906324979413E7E1111117E7F494931
:10FEBE0049363E414141227F4141221C7F494949F9
:10FECE00417F090901013E414151327F0808087FF7
:10FEDE0000417F41002040413F017F081422417FB5
:10FEEE00404040407F0204027F7F0408107F3E4165
:10FEFE0041413E7F090909063E4151215E7F0919A4
:10FF0E002946464949493101017F01013F404040A0
:10FF1E003F1F2040201F7F2018207F63140814638A
:10FF2E000304780403615149454300007F414102B7
:10FF3E000408102041417F000004020102044040E9
:10FF4E00404040000102040020545454787F48443D
:10FF5E0044383844444420384444487F3854545438
:10FF6E0018087E090102081454543C7F08040478D2
:10FF7E0000447D40002040443D00007F1028440096
:10FF8E00417F40007C041804787C080404783844CF
:10FF9E004444387C14141408081414187C7C080487
:10FFAE0004084854545420043F4440203C40402010
:10FFBE007C1C2040201C3C4030403C4428102844EF
:10FFCE000C5050503C4464544C44000836410000E0
:10FFDE00007F0000004136080008082A1C08081C93
:10FFEE002A080800FCFF0F0000FFFFF0FF00FFFFD4
:02FFFE00000001
:020000040001F9
:10000000080E0001D7250001D46F000E0001D82191
:100010000001D56F000E0001D66FB0EC8CF000012E
:10002000EE6F0001EE510001DA6FDB6B0E0ED8901F
:100030000001DA37DB37E82EFAD70001EE51000174
:10004000DC6FDD6B0C0ED8900001DC37DD37E82E5D
:10005000FAD70001EE510001DE6FDF6B0A0ED89077
:100060000001DE37DF37E82EFAD70001EE5100013C
:10007000E16FE06B0001EE510001E26FE36B060EF1
:10008000D8900001E237E337E82EFAD70001EE51AD
:100090000001E46FE56B0001E43BE53BF00EE51782
:1000A000E4510F0BE513F00EE4170001EE510001CF
:1000B000E66FE76B0001D890E637E7370001D8908C
:1000C000E637E7370001EE510001E86FE96B000108
:1000D000E6510001E8130001E7510001E9130001B6
:1000E000E4510001E8130001E5510001E9130001AA
:1000F000E2510001E8130001E3510001E91300019E
:10010000E0510001E8130001E1510001E913000191
:10011000DE510001E8130001DF510001E913000185
:10012000DC510001E8130001DD510001E913000179
:10013000DA510001E8110001EA6F0001DB51000112
:10014000E9110001EB6FEEC0ECF00001ED6B080E61
:100150000001D7250001D46F000E0001D821000155
:10016000D56F010E0001D66FB0EC8CF00001DA6F94
:10017000DB6B0001D890DA37DB370001D890DA3733
:10018000DB370001DA510001EC130001DB51000103
:10019000ED13080E0001D7250001D46F000E0001F9
:1001A000D8210001D56F020E0001D66FB0EC8CF0A3
:1001B0000001DA6FDB6B0001DA3BDB3BF00EDB1793
:1001C000DA510F0BDB13F00EDA170001DA510001E0
:1001D000EC130001DB510001ED13080E0001D725DF
:1001E0000001D46F000E0001D8210001D56F030E6D
:1001F0000001D66FB0EC8CF00001DA6FDB6B060EFD
:10020000D8900001DA37DB37E82EFAD70001DA514F
:100210000001EC130001DB510001ED13080E000199
:10022000D7250001D46F000E0001D8210001D56F41
:10023000040E0001D66FB0EC8CF00001DA6F000103
:10024000DA510001DC6FDB6B0001DB510001EC13C4
:100250000001DC510001ED13080E0001D72500015B
:10026000D46F000E0001D8210001D56F050E0001EA
:10027000D66FB0EC8CF00001DA6FDB6B0A0ED89011
:100280000001DA37DB37E82EFAD70001DA51000136
:10029000EC130001DB510001ED13080E0001D7251E
:1002A0000001D46F000E0001D8210001D56F060EA9
:1002B0000001D66FB0EC8CF00001DA6FDB6B0C0E36
:1002C000D8900001DA37DB37E82EFAD70001DA518F
:1002D0000001EC130001DB510001ED13080E0001D9
:1002E000D7250001D46F000E0001D8210001D56F81
:1002F000070E0001D66FB0EC8CF00001DA6FDB6BFB
:100300000E0ED8900001DA37DB37E82EFAD700015D
:10031000DA510001EC130001DB510001ED13000183
:10032000EC510001EA1948E10001ED510001EB191F
:10033000D8A4120032D0000120EE02F0D751D92605
:10034000D851DA22DECFC8F0DDCFC9F0D9C0CAF06B
:10035000B5EC8DF012000001D91F000120EE02F073
:10036000D751D926D851DA22DECFC8F0DDCFC9F077
:10037000D9C0CAF0B5EC8DF01200000120EE04F0F7
:10038000D751D926D851DA22DECFC8F0DDCFC9F057
:10039000D9C0CAF0B5EC8DF012000001EE51000A90
:1003A000D8B41200010AD8B4C6D7030AD8B4D3D738
:1003B000010AD8A41200E1D71200050E0001F76F60
:1003C000C7D0020120EE02F00351D9260451DA22EF
:1003D000DECFD3F0DDCFD4F005C2D5F00F0E000193
:1003E000D66F6CEC8DF0020120EE04F00351D9269B
:1003F0000451DA22DECFD3F0DDCFD4F005C2D5F040
:10040000000E0001D66F6CEC8DF0B0D003C2FAF193
:1004100004C2FBF105C2FCF1030E0101FD6F84EC87
:100420008BF00001F76F0001F751D8A41200020110
:1004300020EE02F00351D9260451DA22DECFD3F0A8
:10044000DDCFD4F005C2D5F0000E0001D66F6CEC04
:100450008DF0020120EE04F00351D9260451DA2276
:10046000DECFD3F0DDCFD4F005C2D5F0000E000111
:10047000D66F6CEC8DF07AD003C2FAF104C2FBF1B6
:1004800005C2FCF1030E0101FD6F84EC8BF000014D
:10049000F76F0001F751D8A41200020120EE02F01C
:1004A0000351D9260451DA22DECFD3F0DDCFD4F0C8
:1004B00005C2D5F00F0E0001D66F6CEC8DF0020175
:1004C00020EE04F00351D9260451DA22DECFD3F016
:1004D000DDCFD4F005C2D5F00F0E0001D66F6CEC65
:1004E0008DF044D003C2FAF104C2FBF105C2FCF165
:1004F000030E0101FD6F84EC8BF00001F76F00012A
:10050000F751D8A41200020120EE02F00351D926BF
:100510000451DA22DECFD3F0DDCFD4F005C2D5F01E
:10052000000E0001D66F6CEC8DF0020120EE04F09D
:100530000351D9260451DA22DECFD3F0DDCFD4F037
:1005400005C2D5F0000E0001D66F6CEC8DF00ED018
:1005500002010651000AD8B434D7010AD8B456D7DC
:10056000030AD8B489D7010AD8B4BCD7080E02014F
:1005700003250001D76F000E020104210001D86F8E
:1005800002010551040DF3CFD9F006C2DAF04CECAC
:100590008CF0080E020103250001D76F000E020146
:1005A00004210001D86F02010551040DF328000158
:1005B000D96F06C2DAF04CEC8CF0080E020103256C
:1005C0000001D76F000E020104210001D86F020163
:1005D0000551040DF350020F0001D96F06C2DAF085
:1005E0004CEC8CF0080E020103250001D76F000EC1
:1005F000020104210001D86F02010551040DF350DE
:10060000030F0001D96F06C2DAF04CEC8CF0120037
:10061000050E0201096F7AD0020120EE02F00651A8
:10062000D9260751DA22DECFFEF1DDCFFFF1FEC180
:10063000D9FFFFC1DAFFFF0E67D006C203F207C27F
:1006400004F2010E0201056F28EC8CF00201096F23
:1006500002010951D8A41200020120EE02F0065155
:10066000D9260751DA22DECFFEF1DDCFFFF1FEC140
:10067000D9FFFFC1DAFF000EDF6E020120EE04F0A9
:1006800036D006C203F207C204F2020E0201056F61
:1006900028EC8CF00201096F02010951D8A4120064
:1006A000020120EE02F00651D9260751DA22DECFF0
:1006B000FEF1DDCFFFF1FEC1D9FFFFC1DAFFFF0E72
:1006C000DF6E020120EE04F0AAD706C203F207C2D1
:1006D00004F2000E0201056F28EC8CF00201096F94
:1006E00002010951D8A41200020120EE02F00651C5
:1006F000D9260751DA22DECFFEF1DDCFFFF1FEC1B0
:10070000D9FFFFC1DAFF000EDF6E0ED002010851E3
:10071000000AD8B481D7010AD8B48FD7030AD8B455
:10072000B0D7010AD8B4D1D7080E020106250001BE
:10073000D76F000E020107210001D86F000E0001E3
:10074000D96F08C2DAF04CEC8CF0080E02010625D5
:100750000001D76F000E020107210001D86F010EC2
:100760000001D96F08C2DAF04CEC8CF0080E0201DF
:1007700006250001D76F000E020107210001D86F86
:10078000020E0001D96F08C2DAF04CEC8CF0080EB2
:10079000020106250001D76F000E020107210001AA
:1007A000D86F030E0001D96F08C2DAF04CEC8CF060
:1007B000080E020106250001D76F000E0201072175
:1007C0000001D86F040E0001D96F08C2DAF04CECBA
:1007D0008CF0080E020106250001D76F000E020101
:1007E00007210001D86F050E0001D96F08C2DAF0A9
:1007F0004CEC8CF0080E020106250001D76F000EAC
:10080000020107210001D86F060E0001D96F08C24E
:10081000DAF04CEC8CF0080E020106250001D76FCF
:10082000000E020107210001D86F070E0001D96FE9
:1008300008C2DAF04CEC8CF01200EEC0D9FFEFC029
:10084000DAFFDECFF3F0DDCFF4F0050E0001F26F3A
:10085000B5D0000120EE02F0EE51D926EF51DA2298
:10086000DECFC8F0DDCFC9F0F0C0CAF0010E000144
:10087000CB6F21EC8BF0B0D0F3C0D7F0F4C0D8F040
:10088000010E0001D96FF0C0DAF03EEC8AF00001F1
:10089000F26F0001F251D8A41200000120EE02F024
:1008A000EE51D926EF51DA22DECFC8F0DDCFC9F004
:1008B000F0C0CAF0000E0001CB6F21EC8BF00001FC
:1008C00020EE04F0EE51D926EF51DA22DECFC8F047
:1008D000DDCFC9F0F0C0CAF0000E0001CB6F21ECF3
:1008E0008BF07AD0F3C0D7F0F4C0D8F0020E00013C
:1008F000D96FF0C0DAF03EEC8AF00001F26F00012F
:10090000F251D8A41200000120EE02F0EE51D926D7
:10091000EF51DA22DECFC8F0DDCFC9F0F0C0CAF067
:10092000010E0001CB6F21EC8BF0000120EE04F0F2
:10093000EE51D926EF51DA22DECFC8F0DDCFC9F073
:10094000F0C0CAF0010E0001CB6F21EC8BF044D057
:10095000F3C0D7F0F4C0D8F0000E0001D96FF0C09A
:10096000DAF03EEC8AF00001F26F0001F251D8A4F7
:100970001200000120EE02F0EE51D926EF51DA22EA
:10098000DECFC8F0DDCFC9F0F0C0CAF0000E000124
:10099000CB6F21EC8BF0000120EE04F0EE51D92654
:1009A000EF51DA22DECFC8F0DDCFC9F0F0C0CAF0D7
:1009B000000E0001CB6F21EC8BF00ED00001F15145
:1009C000000AD8B446D7010AD8B456D7030AD8B417
:1009D00089D7010AD8B4BCD7080E0001EE25000162
:1009E000D76F000E0001EF210001D86FF0C0D9F0E1
:1009F000F1C0DAF04CEC8CF0120002010C51F9EC71
:100A000088F00AC2D9FF0BC2DAFF0001C8C0DEFFBE
:100A10000001C9C0DDFF02010C514CEC89F002015C
:100A200020EE06F00A51D9260B51DA220001C8C087
:100A3000DEFF0001C9C0DDFF02010C514CEC89F062
:100A4000020120EE04F00A51D9260B51DA220001EE
:100A5000C8C0DEFF0001C9C0DDFF02010C51A6ECD9
:100A600088F0020120EE02F00A51D9260B51DA2259
:100A70000001C8C0DEFF0001C9C0DDFF020120EE99
:100A800004F00A51D9260B51DA22DECF0DF2DDCF68
:100A90000EF20DC2D9FF0EC2DAFF000EDF6E0201A8
:100AA00020EE02F00A51D9260B51DA22DECF0DF2E8
:100AB000DDCF0EF20DC2D9FF0EC2DAFFFF0EDF6EE0
:100AC0000AC206F20BC207F2000E0201086F08EC20
:100AD00083F0000E02010F6F070E02010F6531D087
:100AE0004BD00AC2EEF00BC2EFF00FC2F0F0030ED3
:100AF0000001F16F1DEC84F03CD00AC2EEF00BC295
:100B0000EFF00FC2F0F0020E0001F16F1DEC84F067
:100B100030D00AC2EEF00BC2EFF00FC2F0F0010EBF
:100B20000001F16F1DEC84F024D00AC2EEF00BC27C
:100B3000EFF00FC2F0F0000E0001F16F1DEC84F039
:100B400018D00AC2D9FF0BC2DAFFDECFD4F0DDCF56
:100B5000D5F00FC2D6F0B0EC8CF0000AD8B4C1D7F3
:100B6000010AD8B4D6D7030AD8B4C7D7010AD8B473
:100B7000DCD702010F2BB0D70AC2D7F00BC2D8F0D6
:100B8000000E0001D96F00EC80F01200010E446EDF
:100B9000000E256E000E266E000E276EE80E020176
:100BA0000A6F010E02010B6F000E02010C6FFDECCB
:100BB00084F0DE0E02010A6F010E02010B6F010EBE
:100BC00002010C6FFDEC84F08A0E02010A6F000E28
:100BD00002010B6F020E02010C6FFDEC84F0800E1F
:100BE00002010A6F000E02010B6F030E02010C6F6F
:100BF000FDEC84F0760E02010A6F000E02010B6F0D
:100C0000040E02010C6FFDEC84F0940E02010A6FD9
:100C1000000E02010B6F050E02010C6FFDEC84F05B
:100C2000D40E02010A6F010E02010B6F060E0201C3
:100C30000C6FFDEC84F0940E0001EE6F000E0001CD
:100C4000EF6F050E0001F06F000E0001F16F1DEC5B
:100C500084F0DE0E0201036F010E0201046F000E2C
:100C60000201056F000E0201066FDDEC81F0940EAB
:100C70000001EE6F000E0001EF6F060E0001F06F35
:100C8000030E0001F16F1DEC84F0D40E0201066F1B
:100C9000010E0201076F030E0201086F08EC83F0DA
:100CA000D40E0001D76F010E0001D86F040E0001B1
:100CB000D96F000E0001DA6F94EC87F0940E0001FA
:100CC000D76F000E0001D86F060E0001D96F010E1C
:100CD0000001DA6F94EC87F0000E53EC8BF0010EFC
:100CE00053EC8BF0000E9E6E000EA16E000EA46EF3
:100CF0009B8E9B8C000E0001C96F640EC86FB7EC11
:100D00008AF0D08E120049B215EF87F020EE04F081
:100D10002C50D9262D50DA22DF506FEC8CF00009D0
:100D2000D8B47AD02CC0D9FF2DC0DAFFDE50DE1047
:100D3000D8B46DD02CC0D9FF2DC0DAFF010EDBBEB8
:100D400026D0010EDB5003E1DE04D8A020D02CC059
:100D5000D9FF2DC0DAFFDE2804E17F0EDE18D8B4FB
:100D600007D02CC0D9FF2DC0DAFFDE06000EDD5AF9
:100D7000760E0001D76F000E0001D86F000E000143
:100D8000D96F010E0001DA6F94EC87F01FD02CC0F0
:100D9000D9FF2DC0DAFFDE0404E1800EDE18D8B4DE
:100DA00007D02CC0D9FF2DC0DAFFDE2A000EDD22CD
:100DB000760E0001D76F000E0001D86F000E000103
:100DC000D96F000E0001DA6F94EC87F0760E000107
:100DD000D76F000E0001D86F010E0001D96F010E10
:100DE0000001DA6F94EC87F0760E0001D76F000EE9
:100DF0000001D86F010E0001D96F000E0001DA6FFB
:100E000094EC87F0AAEC8DF0CAEC8DF01200AAECFD
:100E10008DF0E3EC8DF012006BC0C8F06CC0C9F02F
:100E20006DC0CAF0BCEC8DF0120020EE04F02C5026
:100E3000D9262D50DA22DF500AEC8DF00009D8B403
:100E40006AD02CC0D9FF2DC0DAFFDE50DE10D8B436
:100E50005DD02CC0D9FF2DC0DAFF010EDBBE22D041
:100E6000010EDB5003E1DE04D8A01CD02CC0D9FF5A
:100E70002DC0DAFFDE2804E17F0EDE18D8B407D0DB
:100E80002CC0D9FF2DC0DAFFDE06000EDD5A760E2B
:100E9000106E000E116E000E126E010E136E51ECEC
:100EA00088F01BD02CC0D9FF2DC0DAFFDE0404E18E
:100EB000800EDE18D8B407D02CC0D9FF2DC0DAFFC1
:100EC000DE2A000EDD22760E106E000E116E000E70
:100ED000126E000E136E51EC88F0760E106E000E3E
:100EE000116E010E126E010E136E51EC88F0760E2B
:100EF000106E000E116E010E126E000E136E51EC8C
:100F000088F0E9EC8DF0D0EC8DF01200E9EC8DF07A
:100F1000E6EC8DF012006BC001F06CC002F06DC009
:100F200003F0C3EC8DF01200080E0001D72500017C
:100F3000D46F000E0001D8210001D56FD9C0D6F0C2
:100F4000B0EC8CF00001DB6F42D0010E0001DA172B
:100F5000000120EE02F0D751D926D851DA22DECF97
:100F6000C8F0DDCFC9F0D9C0CAF0DAC0CBF021ECAF
:100F70008BF01200010E0001DA17010E0001DA1BDE
:100F8000000120EE02F0D751D926D851DA22DECF67
:100F9000C8F0DDCFC9F0D9C0CAF0DAC0CBF021EC7F
:100FA0008BF01200010E0001DA17000120EE04F0B0
:100FB000D751D926D851DA22DECFC8F0DDCFC9F01B
:100FC000D9C0CAF0DAC0CBF021EC8BF012000001DE
:100FD000DB51000AD8B41200010AD8B4B6D7030A0C
:100FE000D8B4C8D7010AD8A41200DCD70001CC516C
:100FF000010D010EF324F66EFE0EF420F76EF86A72
:10100000000EF8220800F5CFD2F0000E0001D16FDB
:1010100006D00001CA510001CB5F0001D12B0001B5
:10102000CA510001CB5DD8B0F4D70001CC5100010A
:10103000CB03F350CB6F0001D1510001CB2700014E
:10104000D2510001CD17CBC0CEF0D2C0CFF00001FD
:10105000CE2B03D00001D890CF370001CE2FFAD786
:101060000001CF51FF0A0001D06FC8C0D9FFC9C02D
:10107000DAFF0001D051DF16CBC0CEF0CDC0CFF0EB
:101080000001CE2B03D00001D890CF370001CE2F26
:10109000FAD7C8C0D9FFC9C0DAFF0001CF51DF12AB
:1010A0001200080E10240D6E000E11200E6E12C0DC
:1010B0000FF03DEC8DF0146E3BD0010E131620EEB8
:1010C00002F01050D9261150DA22DECF01F0DDCF28
:1010D00002F012C003F013C004F002EC8CF0120016
:1010E000010E1316010E131A20EE02F01050D9262D
:1010F0001150DA22DECF01F0DDCF02F012C003F092
:1011000013C004F002EC8CF01200010E131620EE56
:1011100004F01050D9261150DA22DECF01F0DDCFD5
:1011200002F012C003F013C004F002EC8CF01200C5
:101130001450000AD8B41200010AD8B4BED7030A6A
:10114000D8B4CED7010AD8A41200DFD70001CA6FE5
:1011500038D0920E0001C86F0F0E0001C96F120047
:10116000930E0001C86F0F0E0001C96F1200940E9C
:101170000001C86F0F0E0001C96F1200950E00012B
:10118000C86F0F0E0001C96F1200960E0001C86FE4
:101190000F0E0001C96F1200970E0001C86F0F0EED
:1011A0000001C96F1200980E0001C86F0F0E0001F8
:1011B000C96F1200000E0001C86F000E0001C96F58
:1011C00012000001CA51000AD8B4C3D7010AD8B42A
:1011D000C7D7030AD8B4CBD7010AD8B4CFD7070AE8
:1011E000D8B4D3D7010AD8B4D7D7030AD8B4DBD739
:1011F000E1D70001CA6F38D0FD0E0001C86FFF0EA5
:101200000001C96F1200FB0E0001C86FFF0E000144
:10121000C96F1200F90E0001C86FFF0E0001C96FFF
:101220001200F70E0001C86FFF0E0001C96F120017
:10123000F50E0001C86FFF0E0001C96F1200F30E1A
:101240000001C86FFF0E0001C96F1200F10E00010E
:10125000C86FFF0E0001C96F1200000E0001C86FB9
:10126000000E0001C96F12000001CA51000AD8B473
:10127000C3D7010AD8B4C7D7030AD8B4CBD7010A59
:10128000D8B4CFD7070AD8B4D3D7010AD8B4D7D7A0
:10129000030AD8B4DBD7E1D70001CA6F38D0800E7B
:1012A0000001C86F0F0E0001C96F1200810E00010E
:1012B000C86F0F0E0001C96F1200820E0001C86FC7
:1012C0000F0E0001C96F1200830E0001C86F0F0ED0
:1012D0000001C96F1200840E0001C86F0F0E0001DB
:1012E000C96F1200850E0001C86F0F0E0001C96F93
:1012F0001200860E0001C86F0F0E0001C96F1200A8
:10130000000E0001C86F000E0001C96F120000013D
:10131000CA51000AD8B4C3D7010AD8B4C7D7030A40
:10132000D8B4CBD7010AD8B4CFD7070AD8B4D3D70B
:10133000010AD8B4D7D7030AD8B4DBD7E1D7BD0E9A
:10134000F66E1B0EF76E010EF86E01EEF2F010EE67
:1013500008F00900F5CFEEFFE550E150FAE1B50ED7
:10136000F66E1B0EF76E010EF86E00EEF8F010EE42
:1013700008F00900F5CFEEFFE550E150FAE1AC0EC0
:10138000F66E1B0EF76E010EF86E00EE40F010EEDA
:1013900009F00900F5CFEEFFE550E150FAE102EE69
:1013A00010F011EE2CF0EE6AE550E150FCE1E25055
:1013B000FAE101EE00F0F20EEE6AE806FDE100EE61
:1013C00060F0680EEE6AE806FDE100EE25F01B0E07
:1013D000EE6AE806FDE1499049920001EEEF8CF0DB
:1013E000C8C0F6FFC9C0F7FF000EF86E0F0EF76415
:1013F00003D00800F55005D0F6CFE9FFF7CFEAFF9C
:10140000EF500001D06F0001CC51010D010EF3240B
:10141000F66EFE0EF420F76EF86A000EF822080051
:10142000F5CFCEF0000E0001CF6F06D00001CA51FB
:101430000001CB5F0001CF2B0001CA510001CB5D41
:10144000D8B0F4D70001CC510001CB03F350CB6FDF
:101450000001CF510001CB270001CB290001CD6F46
:1014600003D00001D890D0330001CD2FFAD700016E
:10147000CE510001D0170001D0511200F10EF66ECE
:10148000FD0EF76E000EF86E20EEDDF00F0E090077
:10149000F5CFDEFFE806FBE2D7C0D4F0D8C0D5F028
:1014A000DAC0D6F0B0EC8CF00001ED6F040E000154
:1014B000D96120D0040E0001ED611CD00001D9518A
:1014C000040DDD0E0001DB6F000E0001DC6FF35038
:1014D0000001DB27F4500001DC230001ED51010D78
:1014E000F3500001DB25D96EF4500001DC21DA6EE7
:1014F000DF501200050E120001C0F6FF02C0F7FF18
:10150000000EF86E0F0EF76403D00800F55005D0FA
:10151000F6CFE9FFF7CFEAFFEF50096E0550010D56
:10152000010EF324F66EFE0EF420F76EF86A000E3C
:10153000F8220800F5CF07F0000E086E03D0035024
:10154000045E082A0350045CD8B0F9D705500402A1
:10155000F350046E085004260428066E02D0D8907A
:101560000932062EFCD707500916095012001FD069
:10157000000E0001CA6F000ECB6F000ECC6F000E84
:10158000CD6F0001CD510001CC1111E1B00E000171
:10159000CA5D040E0001CB59D8B009D000F0010E8D
:1015A0000001CA27000ECB23CC23CD23EAD70001AC
:1015B000C807D8A0C9070001C829DAE10001C92974
:1015C000D8A4D6D7080E0001CA6F800ECB6F000ECC
:1015D000CC6F000ECD6F1200050E0001F46FEEC04F
:1015E000D9FFEFC0DAFFDECFF5F0DDCFF6F0000176
:1015F000F051020DF3CFF2F00001F051020DF3288B
:101600000001F36FF5C0D7F0F6C0D8F0F1C0D9F003
:10161000F2C0DAF03EEC8AF00001F46F0001F45100
:10162000D8A40CD0F5C0D7F0F6C0D8F0F1C0D9F0EE
:10163000F3C0DAF03EEC8AF00001F46F0001F451DF
:101640001200010E0001CB17CAC0CCF0010E000140
:10165000CD6F0001CC2B03D00001D890CD37000115
:10166000CC2FFAD70001CD51FF0A0001CE6FC8C0C0
:10167000D9FFC9C0DAFF0001CE51DF16CAC0CCF0D5
:10168000CBC0CDF00001CC2B03D00001D890CD37DA
:101690000001CC2FFAD7C8C0D9FFC9C0DAFF0001BA
:1016A000CD51DF1212000001F56F1ED08A0E00012D
:1016B000EE6F000E0001EF6F000E0001F06F030EE1
:1016C0000001F16F1DEC84F017D08A0E0001EE6F5F
:1016D000000E0001EF6F010E0001F06F030E00011C
:1016E000F16F1DEC84F008D00001F551000AD8B468
:1016F000DDD7010AD8B4E9D7000E0001DC6F000184
:10170000F551DAEC8BF01200050E0201026F0101B7
:10171000FC51020DF3CF00F20101FC51020DF32840
:101720000201016FFAC1EEF0FBC1EFF000C2F0F070
:10173000FDC1F1F0ECEC8AF00201026F02010251EE
:10174000D8A40CD0FAC1EEF0FBC1EFF001C2F0F06A
:10175000FDC1F1F0ECEC8AF00201026F02010251CE
:1017600012001CD0000E0001CA6F000ECB6F000EDD
:10177000CC6F000ECD6F0001CA510001CB110001EA
:10178000CC110001CD11D8A409D000F0010E000148
:10179000CA27000ECB23CC23CD23EDD70001C807E9
:1017A000D8A0C9070001C829DDE10001C929D8B4C2
:1017B0001200D8D70001DD6F1CD08A0E0001D76F50
:1017C000000E0001D86F000E0001D96FDCC0DAF006
:1017D00094EC87F012008A0E0001D76F000E000112
:1017E000D86F010E0001D96FDCC0DAF094EC87F0FD
:1017F00012000001DD51000AD8B4DFD7010AD8A4D5
:101800001200E9D7010E041603C005F0010E066EA2
:10181000052A02D0D8900636052EFCD70650FF0ABE
:10182000076E01C0D9FF02C0DAFF0750DF1603C000
:1018300005F004C006F0052A02D0D8900636052E21
:10184000FCD701C0D9FF02C0DAFF0650DF12120038
:10185000050E0001F76F03C2FAF104C2FBF1000E9E
:101860000101FC6F05C2FDF184EC8BF00001F76F04
:101870000001F751D8A40DD003C2FAF104C2FBF164
:10188000010E0101FC6F05C2FDF184EC8BF000013B
:10189000F76F0001F7511200030E0001D96514D053
:1018A000010E0001D7250001D36F000E0001D821E1
:1018B0000001D46F0001D951FC0F0001D56FDAC0CF
:1018C000D6F07DEC8DF01200D7C0D3F0D8C0D4F0A4
:1018D000D9C0D5F0DAC0D6F07DEC8DF01200000151
:1018E000CF6F86500F0B0001CE6F4450D8A402D0AA
:1018F000000E1200000E446E0001CF510001CE19FF
:10190000D8B40CD0F00E86160001CF518612000E0E
:101910000001C96F0A0EC86FB1EC8BF0010E120006
:1019200016D0000E036E000E046E000E056E000E43
:10193000066E0350041005100610D8A408D000F05D
:10194000010E0326000E042205220622F2D701060C
:10195000D8A002060128E5E10228D8B41200E1D798
:10196000030E0001D66512D0010E0001D42500013E
:10197000D16F000E0001D5210001D26F0001D651B8
:10198000FC0F0001D36F8EEC8DF01200D4C0D1F0AB
:10199000D5C0D2F0D6C0D3F08EEC8DF0120000018D
:1019A000CF6F86500F0B0001CE6F4450D8B4FDD7D7
:1019B000000E446E0001CF510001CE19D8B40CD0F6
:1019C000F00E86160001CF518612000E0001C96F7D
:1019D0000A0EC86FB1EC8BF0010E1200C6EC85F058
:1019E000010ECFEC8CF00009D8B406D0AAEC8DF033
:1019F0000009D8A425EC8DF0010ECFEC8CF0000985
:101A0000D8B4FAD7AAEC8DF00009D8B4F5D725ECF4
:101A10008DF0F2D7086E86500F0B076E4450D8A495
:101A200002D0000E1200000E446E08500718D8B401
:101A30000AD0F00E861608508612000E026E0A0EAC
:101A4000016E90EC8CF0010E12002550261027102C
:101A5000D8B40CD001D80AD00500FA6E2550FD6E1E
:101A60002650FE6E2750FF6EFA501200000E256EB3
:101A7000000E266E000E276E1200030E0F640CD0AF
:101A8000010E0D240A6E000E0E200B6E0F50FC0F7F
:101A90000C6E9DEC8DF012000DC00AF00EC00BF024
:101AA0000FC00CF09DEC8DF01200E6EC8DF0000103
:101AB00068510001691100016A11D8B4120001D8FF
:101AC00012000500FA6E00016851FD6E6951FE6E4C
:101AD0006A51FF6EFA501200D3C0C8F0D4C0C9F0EA
:101AE000020E0001CA6FD5C0CBF0040E0001CC6F0E
:101AF000D6C0CDF0F6EC87F01200D3C0C8F0D4C049
:101B0000C9F0040E0001CA6FD5C0CBF0020E00016F
:101B1000CC6FD6C0CDF0F6EC87F01200D1C0C8F083
:101B2000D2C0C9F0040E0001CA6FD3C0CBF0020EC0
:101B30000001CC6FF0EC89F012000AC001F00BC07C
:101B400002F0040E036E0CC004F0020E056E7CEC75
:101B50008AF01200010E446E255026102710D8B4CA
:101B600002D0010E1200000E1200C8C0D9FFC9C079
:101B7000DAFFCAC0DFFF1200C8C025F0C9C026F0D6
:101B8000CAC027F0120001C025F002C026F003C031
:101B900027F012002AC0D6FF2BC0D7FFF28A12000E
:101BA0002AC0D6FF2BC0D7FFF28A1200060006001B
:101BB000010130808005000700FFFF41610600063B
:051BC000008000070099
:101BC600F29AF2941200F29AF2941200010E446E06
:021BD6001200FB
:06FFF800AAF705FFF8F175
:00000001FF
