:0414000055EF0AF0AA
:101408005182FACF17F0FBCF18F0E9CF19F0EACFE5
:101418001AF0E1CF1BF0E2CF1CF0D9CF1DF0DACFE4
:101428001EF0F3CF1FF0F4CF20F0F6CF21F0F7CF66
:1014380022F0F8CF23F0F5CF24F051C025F052C0A8
:1014480026F053C027F054C028F0F292F2B4F2AA62
:1014580002D088EC9FF028C054F027C053F026C073
:1014680052F025C051F024C0F5FF23C0F8FF22C078
:10147800F7FF21C0F6FF20C0F4FF1FC0F3FF1EC016
:10148800DAFF1DC0D9FF1CC0E2FF1BC0E1FF1AC074
:10149800EAFF19C0E9FF18C0FBFF17C0FAFF519215
:0614A8001100ACEF92F010
:10FBE20000001180002C0100B10200350036000037
:10FBF200B202003500360000B302003500360002C2
:10FC0200003500360000B4000000C0A200020084EB
:10FC12000000C1C50000C20D00000000C38D002A13
:10FC22000000C48D00EE0000C50A000036C80000C6
:10FC3200E012001C001000180033002C00250028E0
:10FC420000280027002F003C0000000300030010E2
:10FC5200008000780000E112001C00100018002D46
:10FC620000280023002800280026002F003B000067
:10FC720000030003001000003A0500002A00000201
:10FC82000000008100002B000003000000A2000021
:10FC920029002C020004000800100020004000800F
:10FCA2000000010001020001000100020200000345
:10FCB20003030001000A006400E8031027000103A7
:10FCC200070F1F3F7FFF300632013006320160030B
:10FCD200620460036204400E6404E00462024406AB
:10FCE200200E460470012206E002604440076006CE
:10FCF200600660066006F0004444000F2222AFFF57
:10FD020069FF35FF000201030104100A00F2FEC878
:10FD1200000000000000005F000000070007001460
:10FD22007F147F14242A7F2A12231308646236491F
:10FD32005522500005030000001C22410000412210
:10FD42001C00082A1C2A0808083E08080050300037
:10FD5200000808080808006060000020100804027B
:10FD62003E5149453E00427F400042615149462191
:10FD720041454B311814127F1027454545393C4AFD
:10FD8200494930017109050336494949360649494D
:10FD9200291E0036360000005636000000081422E4
:10FDA20041141414141441221408000201510906CA
:10FDB200324979413E7E1111117E7F494949363ED1
:10FDC200414141227F4141221C7F494949417F09EA
:10FDD2000901013E414151327F0808087F00417FFD
:10FDE20041002040413F017F081422417F404040B2
:10FDF200407F0204027F7F0408107F3E4141413E62
:10FE02007F090909063E4151215E7F0919294646AB
:10FE12004949493101017F01013F4040403F1F20D4
:10FE220040201F7F2018207F631408146303047886
:10FE32000403615149454300007F41410204081017
:10FE42002041417F00000402010204404040404042
:10FE5200000102040020545454787F484444383846
:10FE620044444420384444487F3854545418087E4B
:10FE7200090102081454543C7F0804047800447DAC
:10FE820040002040443D00007F10284400417F4054
:10FE9200007C041804787C0804047838444444380C
:10FEA2007C14141408081414187C7C0804040848F0
:10FEB20054545420043F4440203C4040207C1C20A9
:10FEC20040201C3C4030403C44281028440C5050F8
:10FED200503C4464544C44000836410000007F000A
:10FEE20000004136080008082A1C08081C2A0808D5
:10FEF20009024300020100C03209040000010202AB
:10FF02000100052400100104240202052406000158
:10FF1200052401000107058103080002090401000C
:10FF2200020A0000000705020240000007058202E3
:10FF3200400000340343004400430020004D0058B9
:10FF4200004B0020004B00490054002000200020FC
:10FF5200002000200020002000200020002000447B
:10FF62000065006D006F00340355005400530020FB
:10FF7200004D0058004B0020004B00490054002067
:10FF82000056003100200020002000200020002028
:10FF92000030003200310037002E00120100020250
:10FFA200000008D8040A000001010200010403094C
:10FFB2000400FCFF0F0000FFFFF0FF00FFFF0053F3
:10FFC2007465702072617465093D257520487A0A4E
:10FFD2000053595354454D205354415455533A0AF2
:10FFE200004175672031312032303137005072695B
:0EFFF2006E746600312E300025630020000082
:020000040001F9
:100000000CD06F0E0001E76F010E04D07A0E0001D4
:10001000E76F010E0001E86F08D00001E551000A0A
:10002000D8B4EFD7010AD8B4F1D7000120EE02F01E
:10003000E751D926E851DA22E5C0DFFFB1D0A40E9E
:100040000001DA6F000E0001DB6F020E0001DC6FB1
:10005000030E0001DD6F73EC89F0A40E0001DA6F6E
:10006000000E0001DB6F030E0001DC6F030E0001C8
:10007000DD6F73EC89F0A40E0001DA6F000E000151
:10008000DB6F050E0001DC6F030E0001DD6F73EC0A
:1000900089F0A40E0001DA6F000E0001DB6F040E80
:1000A0000001DC6F000E0001DD6F73EC89F00001D0
:1000B00020EE03F0E751D926E851DA22C70EDE6EB2
:1000C0000F0EDD6E000120EE06F0E751D926E85153
:1000D000DA22C60EDE6E0F0EDD6E000120EE09F094
:1000E000E751D926E851DA22C90E56D0A30E0001F5
:1000F000DA6F010E0001DB6F070E0001DC6F030EEB
:100100000001DD6F73EC89F0A30E0001DA6F010EC0
:100110000001DB6F060E0001DC6F030E0001DD6FD6
:1001200073EC89F0A30E0001DA6F010E0001DB6FA2
:10013000040E0001DC6F030E0001DD6F73EC89F02B
:10014000A30E0001DA6F010E0001DB6F050E000146
:10015000DC6F000E0001DD6F73EC89F0000120EE12
:1001600003F0E751D926E851DA226D0EDE6E0F0E4C
:10017000DD6E000120EE06F0E751D926E851DA22C3
:100180006C0EDE6E0F0EDD6E000120EE09F0E75101
:10019000D926E851DA226F0EDE6E0F0EDD6E09D021
:1001A0000001E551000AD8B44AD7010AD8A41200C8
:1001B0009DD7000120EE06F0E751D926E851DA225A
:1001C000DECFB4F0DDCFB5F0050E0001B66F000E46
:1001D0000001B76FA7EC9BF09CD0000120EE06F069
:1001E000E751D926E851DA22DECFB4F0DDCFB5F001
:1001F000040E0001B66F000E0001B76FA7EC9BF074
:10020000000120EE03F0E751D926E851DA22DECFD3
:10021000B4F0DDCFB5F0060E0001B66F000E0001A0
:10022000B76FA7EC9BF084D0000120EE06F0E751F9
:10023000D926E851DA22DECFB4F0DDCFB5F0040ED6
:100240000001B66F000E0001B76FA7EC9BF0000134
:1002500020EE03F0E751D926E851DA22DECFB4F0E0
:10026000DDCFB5F0060E0001B66F010E0001B76FCD
:10027000A7EC9BF05DD0000120EE06F0E751D926F7
:10028000E851DA22DECFB4F0DDCFB5F0040E000184
:10029000B66F010E0001B76FA7EC9BF0000120EED6
:1002A00003F0E751D926E851DA22DECFB4F0DDCFF2
:1002B000B5F0060E0001B66F000E0001B76FA7EC97
:1002C0009BF036D0000120EE06F0E751D926E85128
:1002D000DA22DECFB4F0DDCFB5F0040E0001B66F48
:1002E000010E0001B76FA7EC9BF0000120EE03F0B8
:1002F000E751D926E851DA22DECFB4F0DDCFB5F0F0
:10030000060E0001B66F010E0001B76FA7EC9BF05F
:100310000FD00001E651000AD8B45FD7010AD8B463
:1003200083D7030AD8B4A7D7010AD8A41200CAD722
:10033000000120EE06F0E751D926E851DA22DECF9F
:10034000B4F0DDCFB5F0070E0001B66F000E00016E
:10035000B76FA7EC9BF0000120EE06F0E751D9261D
:10036000E851DA22DECFB4F0DDCFB5F0060E0001A1
:10037000B66F000E0001B76FA7EC9BF0E1C0C1F0B3
:10038000E2C0C2F0E3C0C3F0E4C0C4F0CCEC8EF035
:10039000E7C0B4F0E8C0B5F0B4EC9FF004D09F869D
:1003A0000BD0A58E09D00001E551000AD8B4F7D7CB
:1003B000010AD8A41200F5D7E7C0B4F0E8C0B5F040
:1003C00058EC9FF0E7C0D9FFE8C0DAFF000EDF6EFF
:1003D000000120EE06F0E751D926E851DA22DECFFF
:1003E000BFF0DDCFC0F0000E0001C16F030E0001B1
:1003F000C26FFEEC9FF0000120EE06F0E751D92617
:10040000E851DA22DECFB4F0DDCFB5F0050E000101
:10041000B66F010E0001B76FA7EC9BF01200080E3B
:100420000001C3250001C06F000E0001C4210001BE
:10043000C16F000E0001C26F41EC9EF00001DA6F47
:100440000001DA510001C66FC76B0E0ED890000193
:10045000C637C737E82EFAD70001DA510001C86F56
:10046000C96B0C0ED8900001C837C937E82EFAD7EF
:100470000001DA510001CA6FCB6B0A0ED89000015F
:10048000CA37CB37E82EFAD70001DA510001CD6F19
:10049000CC6B0001DA510001CE6FCF6B060ED89005
:1004A0000001CE37CF37E82EFAD70001DA5100012C
:1004B000D06FD16B0001D03BD13BF00ED117D051A2
:1004C0000F0BD113F00ED0170001DA510001D26FDB
:1004D000D36B0001D890D237D3370001D890D237F0
:1004E000D3370001DA510001D46FD56B0001D2512E
:1004F0000001D4130001D3510001D5130001D051E4
:100500000001D4130001D1510001D5130001CE51D7
:100510000001D4130001CF510001D5130001CC51CB
:100520000001D4130001CD510001D5130001CA51BF
:100530000001D4130001CB510001D5130001C851B3
:100540000001D4130001C9510001D5130001C651A7
:100550000001D4110001D66F0001C7510001D5116F
:100560000001D76FDAC0D8F00001D96B080E000186
:10057000C3250001C06F000E0001C4210001C16F3E
:10058000010E0001C26F41EC9EF00001C66FC76B07
:100590000001D890C637C7370001D890C637C73793
:1005A0000001C6510001D8130001C7510001D91341
:1005B000080E0001C3250001C06F000E0001C42118
:1005C0000001C16F020E0001C26F41EC9EF00001FC
:1005D000C66FC76B0001C63BC73BF00EC717C651BD
:1005E0000F0BC713F00EC6170001C6510001D81338
:1005F0000001C7510001D913080E0001C3250001F5
:10060000C06F000E0001C4210001C16F030E000184
:10061000C26F41EC9EF00001C66FC76B060ED8900A
:100620000001C637C737E82EFAD70001C6510001CE
:10063000D8130001C7510001D913080E0001C325CA
:100640000001C06F000E0001C4210001C16F040E43
:100650000001C26F41EC9EF00001C66F0001C6515F
:100660000001C86FC76B0001C7510001D81300011A
:10067000C8510001D913080E0001C3250001C06F45
:10068000000E0001C4210001C16F050E0001C26F00
:1006900041EC9EF00001C66FC76B0A0ED8900001B6
:1006A000C637C737E82EFAD70001C6510001D81364
:1006B0000001C7510001D913080E0001C325000134
:1006C000C06F000E0001C4210001C16F060E0001C1
:1006D000C26F41EC9EF00001C66FC76B0C0ED89044
:1006E0000001C637C737E82EFAD70001C65100010E
:1006F000D8130001C7510001D913080E0001C3250A
:100700000001C06F000E0001C4210001C16F070E7F
:100710000001C26F41EC9EF00001C66FC76B0E0E68
:10072000D8900001C637C737E82EFAD70001C65166
:100730000001D8130001C7510001D9130001D8519D
:100740000001D61948E10001D9510001D719D8A4F8
:10075000120032D0000120EE02F0C351D926C4515C
:10076000DA22DECFB4F0DDCFB5F0C5C0B6F0C6EC0E
:10077000A0F012000001C51F000120EE02F0C351DD
:10078000D926C451DA22DECFB4F0DDCFB5F0C5C032
:10079000B6F0C6ECA0F01200000120EE04F0C35148
:1007A000D926C451DA22DECFB4F0DDCFB5F0C5C012
:1007B000B6F0C6ECA0F012000001DA51000AD8B47D
:1007C0001200010AD8B4C6D7030AD8B4D3D7010A95
:1007D000D8A41200E1D712000001B46F7ED03F0E02
:1007E0001200060E12005B0E12004F0E1200660E73
:1007F00012006D0E12007D0E1200070E12007F0E09
:1008000012006F0E12005F0E12007C0E1200580EC6
:1008100012005E0E12007B0E1200710E12006F0E9F
:100820001200740E1200040E12000E0E12007A0E48
:100830001200060E1200140E1200540E12005C0E6E
:100840001200730E1200670E1200500E12006D0E91
:100850001200780E12001C0E1200620E12002A0EF8
:100860001200640E12006E0E12005B0E1200770E64
:1008700012007F0E1200390E12003F0E1200790E88
:100880001200710E12003D0E1200760E1200060EBE
:1008900012001E0E1200570E1200380E1200760EB5
:1008A0001200760E12003F0E1200730E12003F0E61
:1008B0001200770E12006D0E1200310E12003E0E65
:1008C00012003E0E12007E0E1200760E1200660E10
:1008D00012005B0E1200800E12000001B4512E0AAD
:1008E000D8B4F9D71E0AD8B47AD7010AD8B479D7C0
:1008F000030AD8B478D7010AD8B477D7070AD8B48E
:1009000076D7010AD8B475D7030AD8B474D7010AC8
:10091000D8B473D70F0AD8B472D7010AD8B471D734
:10092000780AD8B4A4D7030AD8B4A3D7010AD8B494
:10093000A2D7070AD8B4A1D7010AD8B4A0D7030A0E
:10094000D8B49FD7010AD8B49ED70F0AD8B49DD780
:10095000010AD8B49CD7030AD8B49BD7010AD8B4EB
:100960009AD7070AD8B499D7010AD8B498D7030AF6
:10097000D8B497D7010AD8B496D71F0AD8B495D758
:10098000010AD8B494D7030AD8B493D7010AD8B4CB
:1009900092D7070AD8B491D7010AD8B490D7030ADE
:1009A000D8B48FD7010AD8B48ED70F0AD8B48DD750
:1009B000010AD8B48CD7030AD8B48BD73B0AD8B471
:1009C00022D7030AD8B421D7010AD8B420D7070AFE
:1009D000D8B41FD7010AD8B41ED7030AD8B41DD77C
:1009E000010AD8B41CD70F0AD8B41BD7010AD8B44F
:1009F0001AD7030AD8B419D7010AD8B418D7070AE6
:100A0000D8B417D7010AD8B416D7030AD8B415D763
:100A1000010AD8B414D71F0AD8B413D7010AD8B41E
:100A200012D7030AD8B411D7010AD8B410D7070ACD
:100A3000D8B40FD7010AD8B40ED7030AD8B40DD74B
:100A4000010AD8B40CD70F0AD8B40BD7010AD8B40E
:100A50000AD7030AD8B409D7000E1200050E000108
:100A6000EE6FC7D0000120EE02F0EA51D926EB511B
:100A7000DA22DECFBFF0DDCFC0F0ECC0C1F00F0E48
:100A80000001C26FFEEC9FF0000120EE04F0EA517D
:100A9000D926EB51DA22DECFBFF0DDCFC0F0ECC0BB
:100AA000C1F0000E0001C26FFEEC9FF0B0D0EAC0B2
:100AB000E3F0EBC0E4F0ECC0E5F0030E0001E66FFC
:100AC0003BEC9CF00001EE6F0001EE51D8A4120047
:100AD000000120EE02F0EA51D926EB51DA22DECFF6
:100AE000BFF0DDCFC0F0ECC0C1F0000E0001C26F5E
:100AF000FEEC9FF0000120EE04F0EA51D926EB5104
:100B0000DA22DECFBFF0DDCFC0F0ECC0C1F0000EC6
:100B10000001C26FFEEC9FF07AD0EAC0E3F0EBC0B8
:100B2000E4F0ECC0E5F0030E0001E66F3BEC9CF056
:100B30000001EE6F0001EE51D8A41200000120EE7A
:100B400002F0EA51D926EB51DA22DECFBFF0DDCF39
:100B5000C0F0ECC0C1F00F0E0001C26FFEEC9FF0C0
:100B6000000120EE04F0EA51D926EB51DA22DECF63
:100B7000BFF0DDCFC0F0ECC0C1F00F0E0001C26FBE
:100B8000FEEC9FF044D0EAC0E3F0EBC0E4F0ECC030
:100B9000E5F0030E0001E66F3BEC9CF00001EE6F08
:100BA0000001EE51D8A41200000120EE02F0EA513B
:100BB000D926EB51DA22DECFBFF0DDCFC0F0ECC09A
:100BC000C1F0000E0001C26FFEEC9FF0000120EEAC
:100BD00004F0EA51D926EB51DA22DECFBFF0DDCFA7
:100BE000C0F0ECC0C1F0000E0001C26FFEEC9FF03F
:100BF0000ED00001ED51000AD8B434D7010AD8B4A0
:100C000056D7030AD8B489D7010AD8B4BCD7080E7E
:100C10000001EA250001C36F000E0001EB21000175
:100C2000C46F0001EC51040DF3CFC5F0EDC0C6F068
:100C30009EEC9DF0080E0001EA250001C36F000E36
:100C40000001EB210001C46F0001EC51040DF328F9
:100C50000001C56FEDC0C6F09EEC9DF0080E0001CE
:100C6000EA250001C36F000E0001EB210001C46FF3
:100C70000001EC51040DF350020F0001C56FEDC0EF
:100C8000C6F09EEC9DF0080E0001EA250001C36F3E
:100C9000000E0001EB210001C46F0001EC51040DB6
:100CA000F350030F0001C56FEDC0C6F09EEC9DF040
:100CB0001200050E0201E86F7AD0000120EE02F06A
:100CC000EE51D926EF51DA22DECFFEF1DDCFFFF172
:100CD000FEC1D9FFFFC1DAFFFF0E67D0EEC0EAF018
:100CE000EFC0EBF0010E0001EC6F33EC9DF0020160
:100CF000E86F0201E851D8A41200000120EE02F0D2
:100D0000EE51D926EF51DA22DECFFEF1DDCFFFF131
:100D1000FEC1D9FFFFC1DAFF000EDF6E000120EE39
:100D200004F036D0EEC0EAF0EFC0EBF0020E0001A6
:100D3000EC6F33EC9DF00201E86F0201E851D8A49A
:100D40001200000120EE02F0EE51D926EF51DA2216
:100D5000DECFFEF1DDCFFFF1FEC1D9FFFFC1DAFF2B
:100D6000FF0EDF6E000120EE04F0AAD7EEC0EAF01D
:100D7000EFC0EBF0000E0001EC6F33EC9DF00201D0
:100D8000E86F0201E851D8A41200000120EE02F041
:100D9000EE51D926EF51DA22DECFFEF1DDCFFFF1A1
:100DA000FEC1D9FFFFC1DAFF000EDF6E0ED00001D9
:100DB000F051000AD8B481D7010AD8B48FD7030AFA
:100DC000D8B4B0D7010AD8B4D1D7080E0001EE25A7
:100DD0000001C36F000E0001EF210001C46F000E7F
:100DE0000001C56FF0C0C6F09EEC9DF0080E00013A
:100DF000EE250001C36F000E0001EF210001C46F5A
:100E0000010E0001C56FF0C0C6F09EEC9DF0080E0B
:100E10000001EE250001C36F000E0001EF2100016B
:100E2000C46F020E0001C56FF0C0C6F09EEC9DF0CD
:100E3000080E0001EE250001C36F000E0001EF2136
:100E40000001C46F030E0001C56FF0C0C6F09EEC38
:100E50009DF0080E0001EE250001C36F000E000199
:100E6000EF210001C46F040E0001C56FF0C0C6F091
:100E70009EEC9DF0080E0001EE250001C36F000EF0
:100E80000001EF210001C46F050E0001C56FF0C025
:100E9000C6F09EEC9DF0080E0001EE250001C36F28
:100EA000000E0001EF210001C46F060E0001C56FA6
:100EB000F0C0C6F09EEC9DF0080E0001EE2500018A
:100EC000C36F000E0001EF210001C46F070E000187
:100ED000C56FF0C0C6F09EEC9DF012000001FC5101
:100EE000D8B41200F2C1DAF0F3C1DBF0F4C1DCF0E7
:100EF000F5C1DDF000019D51D8B405D09BC0D9F0FB
:100F00000F0E00019B6F000E0001DF6FDFD00001AC
:100F1000DF51020D240EF324D96E020EF420DA6E96
:100F2000DECFF9F0DDCFFAF0000E0001DE6F130E18
:100F30000001DE6501D0BED00001DF51140D110E9D
:100F40000001D76F0C0E0001D86FF3500001D727B6
:100F5000F4500001D8230001DE51010DF3500001CF
:100F6000D725D96EF4500001D821DA6EDFAE9AD0C1
:100F70000001DF51140D110E0001D76F0C0E00019E
:100F8000D86FF3500001D727F4500001D823000197
:100F9000DE51010DF3500001D725D96EF450000148
:100FA000D821DA6E7F0EDF160001DF51140D110E0D
:100FB0000001D76F0C0E0001D86FF3500001D72746
:100FC000F4500001D8230001DE51010DF35000015F
:100FD000D725D96EF4500001D821DA6EDF50D8B48D
:100FE0004AD087C0BDF088C0BEF0DAC0BFF0DBC019
:100FF000C0F0DCC0C1F0DDC0C2F0FAC1C3F0FBC17B
:10100000C4F0FCC1C5F0FDC1C6F02AEC9AF00001A5
:10101000DF51140D110E0001D76F0C0E0001D86FB7
:10102000F3500001D727F4500001D8230001DE510E
:10103000010DF3500001D725D96EF4500001D821DD
:10104000DA6EDF5044EC92F0B9C0C6F0BAC0C7F017
:10105000DAC0C8F0DBC0C9F0DCC0CAF0DDC0CBF03C
:10106000FAC1CCF0FBC1CDF0FCC1CEF0FDC1CFF098
:1010700043EC97F017D0000E0001BE6F000EBD6F5D
:10108000DAC0BFF0DBC0C0F0DCC0C1F0DDC0C2F030
:10109000FAC1C3F0FBC1C4F0FCC1C5F0FDC1C6F08C
:1010A0002AEC9AF0060E0001DA27000EDB2300017D
:1010B000DE2B3DD7080E0001DC27000EDD23000EDD
:1010C0000001DB6F060EDA6F0001DF2B0001DF513C
:1010D00000019B5DD8B01BD700019D51D8B4120010
:1010E000000E00019D6FD9C09BF01200650E020139
:1010F000E86F010E0201E96F000E0201EB6F020EB4
:10110000EA6F2C0E0201EC6F420E0201ED6F010E30
:101110000201EE6F000E0201EF6F000E0201F06F90
:10112000000E0201F16F000E0201F26F000E0201CB
:10113000F36F000E0201F46F70EC91F0470E0201A4
:10114000E86F010E0201E96F000E0201EB6F020E63
:10115000EA6F2C0E0201EC6F420E0201ED6F010EE0
:101160000201EE6F000E0201EF6F000E0201F06F40
:10117000000E0201F16F000E0201F26F000E02017B
:10118000F36F000E0201F46F70EC91F03D0E02015E
:10119000E86F010E0201E96F000E0201EB6F020E13
:1011A000EA6F2C0E0201EC6F420E0201ED6F010E90
:1011B0000201EE6F000E0201EF6F000E0201F06FF0
:1011C000000E0201F16F000E0201F26F000E02012B
:1011D000F36F000E0201F46F70EC91F0510E0201FA
:1011E000E86F010E0201E96F000E0201EB6F020EC3
:1011F000EA6F2C0E0201EC6F420E0201ED6F010E40
:101200000201EE6F000E0201EF6F000E0201F06F9F
:10121000000E0201F16F000E0201F26F000E0201DA
:10122000F36F000E0201F46F70EC91F05B0E02019F
:10123000E86F010E0201E96F000E0201EB6F020E72
:10124000EA6F2C0E0201EC6F420E0201ED6F010EEF
:101250000201EE6F000E0201EF6F000E0201F06F4F
:10126000000E0201F16F000E0201F26F000E02018A
:10127000F36F000E0201F46F70EC91F0A00E00010C
:10128000E16F860EE26F010EE36F000EE46F000E59
:101290000001E56F020E0001E66F00EC80F06F0EBA
:1012A0000001C36F010E0001C46FF0EC99F0000E55
:1012B0000001F06F000EEF6F0001F05113E1080E16
:1012C0000001EF5DD8B01200350E0001EF25D96E98
:1012D000010E0001F021DA6E000EDF6E0001EF4B0F
:1012E000F02BEAD71200DAC0D9FFDBC0DAFFDECF7D
:1012F000DFF0DDCFE0F0050E0001DE6FB5D00001BC
:1013000020EE02F0DA51D926DB51DA22DECFB4F03A
:10131000DDCFB5F0DCC0B6F0010E0001B76FA7EC71
:101320009BF0B0D0DFC0C3F0E0C0C4F0010E0001FC
:10133000C56FDCC0C6F001EC99F00001DE6F000162
:10134000DE51D8A41200000120EE02F0DA51D926B5
:10135000DB51DA22DECFB4F0DDCFB5F0DCC0B6F081
:10136000000E0001B76FA7EC9BF0000120EE04F027
:10137000DA51D926DB51DA22DECFB4F0DDCFB5F079
:10138000DCC0B6F0000E0001B76FA7EC9BF07AD07E
:10139000DFC0C3F0E0C0C4F0020E0001C56FDCC0C6
:1013A000C6F001EC99F00001DE6F0001DE51D8A417
:1013B0001200000120EE02F0DA51D926DB51DA22C8
:1013C000DECFB4F0DDCFB5F0DCC0B6F0010E000129
:1013D000B76FA7EC9BF0000120EE04F0DA51D9269C
:1013E000DB51DA22DECFB4F0DDCFB5F0DCC0B6F0F1
:1013F000010E0001B76FA7EC9BF044D0DFC0C3F033
:10140000E0C0C4F0000E0001C56FDCC0C6F001EC06
:1014100099F00001DE6F0001DE51D8A41200000136
:1014200020EE02F0DA51D926DB51DA22DECFB4F019
:10143000DDCFB5F0DCC0B6F0000E0001B76FA7EC51
:101440009BF0000120EE04F0DA51D926DB51DA22BC
:10145000DECFB4F0DDCFB5F0DCC0B6F0000E000199
:10146000B76FA7EC9BF00ED00001DD51000AD8B495
:1014700046D7010AD8B456D7030AD8B489D7010A87
:10148000D8B4BCD7080E0001DA250001C36F000EE6
:101490000001DB210001C46FDCC0C5F0DDC0C6F077
:1014A0009EEC9DF012000001C76FB1D0F0EC96F0F9
:1014B000120074EC9BF012002FEC98F0120012EC6A
:1014C00093F012009CEC9AF012000FECA0F01200C6
:1014D000C7C0C4F07F0E0001C41700019B51140D5A
:1014E000110E0001C56F0C0E0001C66FF350000114
:1014F000C527F4500001C62300019C51010DF35093
:101500000001C525D96EF4500001C621DA6EDF5006
:101510007F0B0001C419D8B42ED0010E0001FC6F5E
:1015200000019B51140D110E0001C46F0C0E00013F
:10153000C56FF3500001C427F4500001C52300011A
:101540009C51010DF3500001C425D96EF4500001E7
:10155000C521DA6E0001C7518009DF6E00019B5181
:10156000020D240EF324D96E020EF420DA6EF9C0B7
:10157000DEFFFAC0DDFF9CEC9AF00009D8B412003F
:10158000C7C0C4F07F0E0001C41700019B51140DA9
:10159000110E0001C56F0C0E0001C66FF350000163
:1015A000C527F4500001C62300019C51010DF350E2
:1015B0000001C525D96EF4500001C621DA6EDF5056
:1015C0007F0B0001C419D8B41200010E0001FC6F9A
:1015D00000019B51140D110E0001C46F0C0E00018F
:1015E000C56FF3500001C427F4500001C52300016A
:1015F0009C51010DF3500001C425D96EF450000137
:10160000C521DA6E0001C7518009DF6E12000001AA
:10161000C751070AD8B456D70F0AD8B44AD7010A17
:10162000D8B44DD7030AD8B441D7060AD8B444D7A2
:10163000010AD8B43BD72D0AD8B44AD7030AD8B484
:1016400044D746D70201EB514AEC96F0E9C2D9FFE4
:10165000EAC2DAFF0001B4C0DEFF0001B5C0DDFF61
:101660000201EB519DEC96F0020120EE06F0E951EB
:10167000D926EA51DA220001B4C0DEFF0001B5C06C
:10168000DDFF0201EB519DEC96F0020120EE04F02B
:10169000E951D926EA51DA220001B4C0DEFF000187
:1016A000B5C0DDFF0201EB51F7EC95F0020120EE31
:1016B00002F0E951D926EA51DA220001B4C0DEFF76
:1016C0000001B5C0DDFF020120EE04F0E951D9268A
:1016D000EA51DA22DECFECF2DDCFEDF2ECC2D9FF37
:1016E000EDC2DAFF000EDF6E020120EE02F0E951DA
:1016F000D926EA51DA22DECFECF2DDCFEDF2ECC2F0
:10170000D9FFEDC2DAFFFF0EDF6EE9C2EEF0EAC2EA
:10171000EFF0000E0001F06F59EC86F0000E0201B0
:10172000EE6F070E0201EE6531D04BD0E9C2DAF060
:10173000EAC2DBF0EEC2DCF0030E0001DD6F73ECF9
:1017400089F03CD0E9C2DAF0EAC2DBF0EEC2DCF0AC
:10175000020E0001DD6F73EC89F030D0E9C2DAF0DF
:10176000EAC2DBF0EEC2DCF0010E0001DD6F73ECCB
:1017700089F024D0E9C2DAF0EAC2DBF0EEC2DCF094
:10178000000E0001DD6F73EC89F018D0E9C2D9FFBB
:10179000EAC2DAFFDECFC0F0DDCFC1F0EEC2C2F0A8
:1017A00041EC9EF0000AD8B4C1D7010AD8B4D6D70C
:1017B000030AD8B4C7D7010AD8B4DCD70201EE2B8C
:1017C000B0D7E9C2C3F0EAC2C4F0000E0001C56F91
:1017D0000FEC82F01200010E4E6E000E0001756FCC
:1017E000000E0001766F000E0001776FD60E020129
:1017F000E96F020E0201EA6F000E0201EB6F22ECAC
:101800008BF0AD0E0201E96F010E0201EA6F010ECD
:101810000201EB6F22EC8BF0A40E0201E96F000EC7
:101820000201EA6F020E0201EB6F22EC8BF0A30EB5
:101830000201E96F010E0201EA6F030E0201EB6F74
:1018400022EC8BF0990E0201E96F010E0201EA6FA2
:10185000040E0201EB6F22EC8BF0B70E0201E96F70
:10186000010E0201EA6F050E0201EB6F22EC8BF014
:101870008F0E0201E96F010E0201EA6F060E0201EE
:10188000EB6F22EC8BF0B70E0001DA6F010E000156
:10189000DB6F050E0001DC6F000E0001DD6F73ECE5
:1018A00089F0AD0E0001EA6F010E0001EB6F000E32
:1018B0000001EC6F000E0001ED6F2EEC85F0B70E0D
:1018C0000001DA6F010E0001DB6F060E0001DC6F14
:1018D000030E0001DD6F73EC89F08F0E0001EE6FD7
:1018E000010E0001EF6F030E0001F06F59EC86F05E
:1018F0008F0E0001C36F010E0001C46F040E0001C2
:10190000C56F000E0001C66F75EC93F0B70E0001B5
:10191000C36F010E0001C46F060E0001C56F010EFA
:101920000001C66F75EC93F0000ED9EC9BF0010E30
:10193000D9EC9BF0000E9E6E000EA16E000EA46E00
:101940009B8E9B8C000E0001B56F640EB46F0AEC89
:101950009BF0D08E120064EC9AF0000E0001EC6F48
:10196000000EEB6F0001EC5106E1590E0001EB5D3A
:10197000D8B08BD001D089D0D8900001EB35F66E6D
:101980000001EC35F76EE30EF626FB0EF722F86A3F
:10199000000EF8220900800EF5180900F510D8A4F1
:1019A00022D00001EC511FE1580E0001EB5DD8B0D0
:1019B0001AD00001EB4BEC2BD8900001EB35F66E02
:1019C0000001EC35F76EE30EF626FB0EF722F86AFF
:1019D000000EF8220900F5CFB4F00A00F5CFB5F0FB
:1019E0000AEC9BF04BD0D8900001EB35F66E00016D
:1019F000EC35F76EE30EF626FB0EF722F86A000EC2
:101A0000F8220900000EF55E0900010EF55AD8A073
:101A100020D0000E0001B76FD8900001EB35F66EB4
:101A20000001EC35F76EE30EF626FB0EF722F86A9E
:101A3000000EF8220900F5CFE9F00900F5CFEAF031
:101A4000EAC0E9F00001EA6B0001E95120ECA0F0E6
:101A500015D0010E0001B76FD8900001EB35F66E7E
:101A60000001EC35F76EE30EF626FB0EF722F86A5E
:101A7000000EF8220800F55020ECA0F00001EB4B1E
:101A8000EC2B0001EC5101E170D7000E0001B56FA5
:101A9000640EB46F0AEC9BF0000E0001B76F290EC4
:101AA00020ECA0F0010EE3EC97F0000E0001B56F02
:101AB000640EB46F0AEC9BF0000E0001BE6F000EC6
:101AC000BD6F68EC9CF01200CB0E0001D16F000ED0
:101AD0000001D26F9ED0250E0001D319D8B405D0D5
:101AE0000001D351CDECA0F094D0000E0001CD6FD9
:101AF00015D0D1C0D9FFD2C0DAFFDF500001D36FBB
:101B0000020E0001D127000ED2230001D351CDECEB
:101B1000A0F07FD0C00E0001CD1318D0C9C0F6FFD1
:101B2000CAC0F7FF0001C94BCA2B000EF86E0800AF
:101B3000F5CFD3F00001D351000AD8B41200630AE4
:101B4000D8B4D7D7160AD8B4E5D7DFD7D1C0D9FFD4
:101B5000D2C0DAFFDECFCEF0DDCFCFF0020E000133
:101B6000D127000ED223010E0001D36F18D000013F
:101B7000D351020DB50EF324F66EFC0EF420F76E71
:101B8000F86A000EF8220900F5500001CE5D090048
:101B9000F5500001CF59D8A007D00001D32B050E76
:101BA0000001D319D8A4E3D7D3C0D0F02CD00001C2
:101BB000D051020DB50EF324F66EFC0EF420F76E34
:101BC000F86A000EF8220900F5CFB6F00A00F5CF4A
:101BD000B7F0CEC0B4F0CFC0B5F03FEC99F0B4C0D0
:101BE000BBF0B5C0BCF0000E0001BE6F0A0EBD6FA9
:101BF0000AEC9CF00001BB51300F0001D36F0001D3
:101C0000D351CDECA0F00001D0070001D029D8A419
:101C1000CED7C9C0F6FFCAC0F7FF0001C94BCA2B17
:101C2000000EF86E0800F5CFD3F00001D351D8B400
:101C3000120051D7800E0001C76F8D0EC86F5B0E6A
:101C4000C96F000ECA6FD59E0001C1510001C211BB
:101C50000001C3110001C411D8B41200D596D59C5F
:101C6000D59AD598C7C0B4F0C8C0B5F0C9C0B6F011
:101C7000CAC0B7F0C1C0B8F0C2C0B9F0C3C0BAF0B2
:101C8000C4C0BBF094EC94F0B4C0CBF0B5C0CCF0C1
:101C9000B6C0CDF0B7C0CEF00CD00001952B020E2F
:101CA0000001956501D02FD0070E0001956501D088
:101CB0001200CBC0B4F0CCC0B5F0CDC0B6F0CEC0F1
:101CC000B7F000019551020D950EF324F66EFC0E4F
:101CD000F420F76EF86A000EF8220900F5CFC5F07F
:101CE0000900F5CFC6F0C5C0B8F0C6C0B9F0000114
:101CF000BA6BBB6B94EC94F00001B751CEE10001DC
:101D0000B605D8B0CAD700019551020D950EF3243F
:101D1000F66EFC0EF420F76EF86A000EF82208004A
:101D2000F5CF94F0FF0E0001CB2501010A6FFF0EE5
:101D30000001CC2101010B6FFF0E0001CD2101013B
:101D40000C6FFF0E0001CE2101010D6F0AC1B4F02E
:101D50000BC1B5F00CC1B6F00DC1B7F00001945144
:101D60000001B86FB96BBA6BBB6B94EC94F00001D7
:101D7000B41F0001B51F0001B44BB52BFF0E0001CD
:101D8000B42500017F6FFF0E0001B5210001806FB7
:101D9000E8ECA0F0D58E1200000E0001CA6F6C0EA8
:101DA000CB6FDC0ECC6F020ECD6F0001D890C13727
:101DB000C237C337C437020E0001C56FD890000187
:101DC000CD33CC33CB33CA330001C52FF7D7CAC0CC
:101DD000B4F0CBC0B5F0CCC0B6F0CDC0B7F0C1C048
:101DE000B8F0C2C0B9F0C3C0BAF0C4C0BBF094EC44
:101DF00094F0B4C0CEF0B5C0CFF0B6C0D0F0B7C04C
:101E0000D1F010D0000E0001C66F000EC76F000E9B
:101E1000C86F000EC96F0001932B020E000193657D
:101E200001D026D0CEC0B4F0CFC0B5F0D0C0B6F04F
:101E3000D1C0B7F000019351010D0A0EF324F66EE4
:101E4000FD0EF420F76EF86A000EF8220800F55037
:101E50000001B86FB96BBA6BBB6B94EC94F00001E6
:101E6000B7510001B611CEE10001B505D8B0CAD70F
:101E7000CA5000019319FC0B9319CA6ECA8409EC6D
:101E8000A1F000019351010D0A0EF324F66EFD0E30
:101E9000F420F76EF86A000EF8220800F5CF92F0F1
:101EA000FF0E0001CE250101066FFF0E0001CF21BC
:101EB0000101076FFF0E0001D0210101086FFF0E25
:101EC0000001D1210101096F06C1B4F007C1B5F0CD
:101ED00008C1B6F009C1B7F0000192510001B86F16
:101EE000B96BBA6BBB6B94EC94F00001B451000178
:101EF000936F93C0CBFF120051B20FEF90F000012F
:101F000020EE04F08151D9268251DA22DF50C1EC53
:101F10009DF00009D8B47AD081C0D9FF82C0DAFF21
:101F2000DE50DE10D8B46DD081C0D9FF82C0DAFF98
:101F3000010EDBBE26D0010EDB5003E1DE04D8A08B
:101F400020D081C0D9FF82C0DAFFDE2804E17F0EF5
:101F5000DE18D8B407D081C0D9FF82C0DAFFDE0610
:101F6000000EDD5A990E0001C36F010E0001C46F0F
:101F7000000E0001C56F010E0001C66F75EC93F0F5
:101F80001FD081C0D9FF82C0DAFFDE0404E1800ED9
:101F9000DE18D8B407D081C0D9FF82C0DAFFDE2AAC
:101FA000000EDD22990E0001C36F010E0001C46F07
:101FB000000E0001C56F000E0001C66F75EC93F0B6
:101FC000990E0001C36F010E0001C46F010E0001E4
:101FD000C56F010E0001C66F75EC93F0990E0001FC
:101FE000C36F010E0001C46F010E0001C56F000E2A
:101FF0000001C66F75EC93F09AECA0F0EEECA0F047
:1020000012009AECA0F00DECA1F0120078C0B4F030
:1020100079C0B5F07AC0B6F0D4ECA0F0120000019F
:1020200020EE04F08151D9268251DA22DF50F1EC02
:102030009EF00009D8B46AD081C0D9FF82C0DAFF0F
:10204000DE50DE10D8B45DD081C0D9FF82C0DAFF87
:10205000010EDBBE22D0010EDB5003E1DE04D8A06E
:102060001CD081C0D9FF82C0DAFFDE2804E17F0ED8
:10207000DE18D8B407D081C0D9FF82C0DAFFDE06EF
:10208000000EDD5A990E106E010E116E000E126ECA
:10209000010E136EA2EC95F01BD081C0D9FF82C057
:1020A000DAFFDE0404E1800EDE18D8B407D081C068
:1020B000D9FF82C0DAFFDE2A000EDD22990E106EF3
:1020C000010E116E000E126E000E136EA2EC95F052
:1020D000990E106E010E116E010E126E010E136E2E
:1020E000A2EC95F0990E106E010E116E010E126E9B
:1020F000000E136EA2EC95F013ECA1F0F4ECA0F03E
:10210000120013ECA1F010ECA1F0120078C001F065
:1021100079C002F07AC003F0DBECA0F01200000EF0
:102120000001B96F000EB86F44D0350E0001B8251C
:10213000D96E010E0001B921DA6EB5C0F6FFB6C046
:10214000F7FF000EF86E0F0EF76403D00800F5508D
:1021500005D0F6CFE9FFF7CFEAFFEF50ECEC83F0C4
:10216000DF6E350E0001B825D96E010E0001B921D0
:10217000DA6E800EDE18D8A40ED00001B807D8A001
:10218000B907350E0001B825D96E010E0001B9213D
:10219000DA6E000EDB8E0001B54BB62B0001B84B9A
:1021A000B92B0001B95127E1060E0001B85DD8B086
:1021B00022D0B5C0F6FFB6C0F7FF000EF86E0F0EC6
:1021C000F76403D00800F55005D0F6CFE9FFF7CF4C
:1021D000EAFFEF500009D8B40ED0A7D7350E0001A2
:1021E000B825D96E010E0001B921DA6E000EDF6E3E
:1021F0000001B84BB92B0001B95106E1060E0001F0
:10220000B85DD8B01200EAD71200E1C0D9FFE2C031
:10221000DAFF000EDE6E000EDD6E000120EE02F031
:10222000E151D926E251DA22000EDE6E000EDD6E9B
:10223000000120EE04F0E151D926E251DA22E3C098
:10224000DEFFE4C0DDFF990E0001DA6F010E000130
:10225000DB6F000E0001DC6F030E0001DD6F73EC1D
:1022600089F0990E0001DA6F010E0001DB6F010E9B
:102270000001DC6F030E0001DD6F73EC89F0990E35
:102280000001C36F010E0001C46F000E0001C56F95
:10229000000E0001C66F75EC93F0990E0001C36F3C
:1022A000010E0001C46F010E0001C56F000E000198
:1022B000C66F75EC93F0F80E0001786F1E0E0001EA
:1022C000796F010E00017A6FE80E0001C16F030EF5
:1022D000C26F000EC36F000EC46F1AEC8EF01200B6
:1022E0000201E8510201E911D8B412000201EC51D7
:1022F0000201ED110201EE11D8B412000201EF51FA
:102300000201F0110201F111D8B412000201F251E0
:102310000201F3110201F411D8B412000201EA51D2
:102320000201EB11D8A405D0000E0201EB6F010EE3
:10233000EA6FE8C2D9FFE9C2DAFF000EDF6E0201E0
:1023400020EE01F0E851D926E951DA22000EDF6EC5
:10235000020120EE02F0E851D926E951DA22EAC260
:10236000DEFFEBC2DDFF020120EE04F0E851D926CA
:10237000E951DA22F2C2DEFFF3C2DEFFF4C2DEFF71
:10238000020120EE07F0E851D926E951DA22EFC226
:10239000DEFFF0C2DEFFF1C2DEFF01D81200050051
:1023A000FA6E0201EC51FD6EED51FE6EEE51FF6EC4
:1023B000FA501200010E60EC9EF00009D8B4120031
:1023C0007FEC9EF00001FB070001FB29D8A454D04C
:1023D000C80E0001FB6FF80E0001B56F000EB46F60
:1023E00004ECA1F0FA0E0001C96FFF0E0001CA6FE4
:1023F000000E0001CC6F230ECB6F64EC8DF0D30E7A
:102400000001C96FFF0E0001CA6F64EC8DF0E30E8E
:102410000001C96FFF0E0001CA6F64EC8DF0FD0E64
:102420000001C96FFF0E0001CA6F64EC8DF0F60E5B
:102430000001C96FFF0E0001CA6F64EC8DF0E10E60
:102440000001C96FFF0E0001CA6F64EC8DF0FF0E32
:102450000001B56FE00EB46F04ECA1F0C10E0001F5
:10246000C96FFF0E0001CA6FF7C0CBF0F8C0CCF007
:1024700064EC8DF06EEC87F09AECA0F00009D8B413
:10248000120022EC9EF012000001BF6F200E00012E
:10249000BF5F0001BF51050DF3CFBDF0F4CFBEF01B
:1024A000120E0001BD250001C06FFD0E0001BE210E
:1024B0000001C16F000E0001C46F040E0001C4656D
:1024C00001D043D0000E0001C56F060E0001C565A6
:1024D00001D035D0C0C0B4F0C1C0B5F0C5C0B6F0B1
:1024E00026EC9FF00009D8A405D087C0C2F088C0B0
:1024F000C3F004D0F9C0C2F0FAC0C3F00001C55166
:102500000A0D400E0001BB6F030E0001BC6FF350BB
:102510000001BB27F4500001BC230001C451020D8F
:10252000F3500001BB25D96EF4500001BC21DA6ED6
:10253000C2C0DEFFC3C0DDFF0001C52BC6D700014E
:10254000C04BC12B0001C42BB8D7400E0001B96F9E
:10255000030E0001BA6F1200C40EF66E410EF76E44
:10256000010EF86E01EEF2F010EE0CF00900F5CF5E
:10257000EEFFE550E150FAE17C0EF66E410EF76E8B
:10258000010EF86E00EEF1F010EE0FF00900F5CF3D
:10259000EEFFE550E150FAE1300EF66E420EF76EB6
:1025A000010EF86E0900F5CF4EF00900F5CF4FF09F
:1025B0000900F5CF50F004EE40F017EED1F0EE6ACE
:1025C000E550E150FCE1E250FAE10CEE11F011EEC1
:1025D0002CF0EE6AE550E150FCE1E250FAE103EE46
:1025E00000F0C60EEE6AE806FDE102EE00F0E80E2D
:1025F000EE6AE806FDE101EE00F0F20EEE6AE80692
:10260000FDE100EE60F0540EEE6AE806FDE100EE3A
:1026100029F0250EEE6AE806FDE151905192000185
:1026200031EFA0F0000E0001C26FFA0E0001F1259B
:102630000001B46FFF0E0001F2210001B56F000E22
:102640000001B76F060EB66FD7EC93F00001B451DE
:102650000001C36FC3C0B4F00001B56B000E0001F0
:10266000B76F040EB66FD7EC93F00001B4510001C0
:10267000C16F000E0001C26F06D0E2EC9DF09CEC31
:102680009AF00001C22B0001C151040DF31EF41E8B
:10269000F34AF42A0001C3510001BC6FBD6BF35033
:1026A0000001BC27F4500001BD230001BC1FBD1F69
:1026B000BC4BBD2B040E0001BC27000EBD23000146
:1026C000C2510001BE6FBF6B0001BC510001BE5D75
:1026D0000001BF51800A0001C06F0001BD51800A96
:1026E0000001C059D8B01200C8D7080E0001C32598
:1026F0000001C06F000E0001C4210001C16FC5C000
:10270000C2F041EC9EF00001C76F42D0010E000103
:10271000C617000120EE02F0C351D926C451DA22B7
:10272000DECFB4F0DDCFB5F0C5C0B6F0C6C0B7F0AF
:10273000A7EC9BF01200010E0001C617010E00016C
:10274000C61B000120EE02F0C351D926C451DA2283
:10275000DECFB4F0DDCFB5F0C5C0B6F0C6C0B7F07F
:10276000A7EC9BF01200010E0001C617000120EE3D
:1027700004F0C351D926C451DA22DECFB4F0DDCF44
:10278000B5F0C5C0B6F0C6C0B7F0A7EC9BF012001C
:102790000001C751000AD8B41200010AD8B4B6D754
:1027A000030AD8B4C8D7010AD8A41200DCD7000E97
:1027B0000001B96F0001B7AF08D00001B66DB71FB7
:1027C000D8B0B72B010E0001B96F0001B5AF08D02A
:1027D0000001B46DB51FD8B0B52B010E0001B91BB7
:1027E000000E0001BB6F000EBA6F0001B651000170
:1027F000B711D8B42CD0010E0001B86F06D000017B
:10280000D890B637B7370001B82B0001B7AFF7D76C
:102810000001D890BA37BB370001B6510001B45D52
:102820000001B7510001B559D8A00AD00001B65136
:102830000001B45F0001B7510001B55B0001BA812E
:102840000001D890B733B6330001B82FE1D70001AB
:10285000B9510001D8B405D00001BA6DBB1FD8B082
:10286000BB2BBAC0B4F0BBC0B5F01200080E60ECD0
:102870009EF00009D8B412000101C8510101C9112C
:10288000D8A44AD00D0EF66EFD0EF76E000EF86E4F
:102890000900F5CFD3F00900F5CFD4F00001D351F2
:1028A0000001F7270001D4510001F8230001F55180
:1028B0000001F75D0001F6510001F859D8A00CD0D5
:1028C0000D0EF66EFD0EF76E000EF86E0900F5CFD8
:1028D000F7F00A00F5CFF8F0000E57EC9DF000017C
:1028E000F56DF61FD8B0F62BC80E0001CF6F010EA4
:1028F0000001D06FF7C0D1F0F8C0D2F09FEC9FF08C
:10290000C80E0001B76F010E0001B86FF5C0B9F035
:10291000F6C0BAF09EEC9EF09AECA0F00009D8B494
:10292000120022EC9EF01200000E0001BC6F000E9F
:10293000BD6F000EBE6F000EBF6F0001B8510001E9
:10294000B9110001BA110001BB11D8B442D0010E77
:102950000001C06F08D00001D890B837B937BA3736
:10296000BB370001C02B0001BBAFF5D70001D890E9
:10297000BC37BD37BE37BF370001B8510001B45D69
:102980000001B9510001B5590001BA510001B65911
:102990000001BB510001B759D8A012D00001B851B5
:1029A0000001B45F0001B9510001B55B0001BA51EB
:1029B0000001B65B0001BB510001B75B0001BC81A7
:1029C0000001D890BB33BA33B933B8330001C02FFC
:1029D000CDD7BCC0B4F0BDC0B5F0BEC0B6F0BFC06E
:1029E000B7F012000001B851010DBF0EF324F66ECE
:1029F000FC0EF420F76EF86A000EF8220800F5CFFE
:102A0000BEF0000E0001BD6F06D00001B6510001FE
:102A1000B75F0001BD2B0001B6510001B75DD8B012
:102A2000F4D70001B8510001B703F350B76F0001AC
:102A3000BD510001B7270001BE510001B917B7C051
:102A4000BAF0BEC0BBF00001BA2B03D00001D89091
:102A5000BB370001BA2FFAD70001BB51FF0A0001B2
:102A6000BC6FB4C0D9FFB5C0DAFF0001BC51DF169E
:102A7000B7C0BAF0B9C0BBF00001BA2B03D0000157
:102A8000D890BB370001BA2FFAD7B4C0D9FFB5C070
:102A9000DAFF0001BB51DF1212000001BC6F020E11
:102AA0000001B927020E0001BB27030E0001BC275D
:102AB000030E0001BA27000E0001B76F2A0E20ECAA
:102AC000A0F0010E0001B76F000E20ECA0F0010E87
:102AD0000001B76F0001BC5120ECA0F0010E000115
:102AE000B76F000E20ECA0F0010E0001B76F0001DF
:102AF000BA5120ECA0F0000E0001B76F2B0E20ECB5
:102B0000A0F0010E0001B76F000E20ECA0F0010E46
:102B10000001B76F0001B95120ECA0F0010E0001D7
:102B2000B76F000E20ECA0F0010E0001B76F00019E
:102B3000BB5120ECA0F0000E0001B76F2C0E20EC72
:102B4000A0F01200080E10240D6E000E11200E6E63
:102B500012C00FF070EC9FF0146E3BD0010E1316F4
:102B600020EE02F01050D9261150DA22DECF01F00B
:102B7000DDCF02F012C003F013C004F00DEC9DF0A5
:102B80001200010E1316010E131A20EE02F010505F
:102B9000D9261150DA22DECF01F0DDCF02F012C0CB
:102BA00003F013C004F00DEC9DF01200010E13169B
:102BB00020EE04F01050D9261150DA22DECF01F0B9
:102BC000DDCF02F012C003F013C004F00DEC9DF055
:102BD00012001450000AD8B41200010AD8B4BED7AB
:102BE000030AD8B4CED7010AD8A41200DFD7000157
:102BF000B66F38D0920E0001B46F0F0E0001B56FA2
:102C00001200930E0001B46F0F0E0001B56F120099
:102C1000940E0001B46F0F0E0001B56F1200950EF7
:102C20000001B46F0F0E0001B56F1200960E000187
:102C3000B46F0F0E0001B56F1200970E0001B46F54
:102C40000F0E0001B56F1200980E0001B46F0F0E49
:102C50000001B56F1200000E0001B46F000E0001FC
:102C6000B56F12000001B651000AD8B4C3D7010AEB
:102C7000D8B4C7D7030AD8B4CBD7010AD8B4CFD7B2
:102C8000070AD8B4D3D7010AD8B4D7D7030AD8B41F
:102C9000DBD7E1D70001B66F38D0BF0E0001B46FAB
:102CA000FF0E0001B56F1200BD0E0001B46FFF0EE4
:102CB0000001B56F1200BB0E0001B46FFF0E0001E2
:102CC000B56F1200B90E0001B46FFF0E0001B56FB1
:102CD0001200B70E0001B46FFF0E0001B56F1200B5
:102CE000B50E0001B46FFF0E0001B56F1200B30EF8
:102CF0000001B46FFF0E0001B56F1200000E00015D
:102D0000B46F000E0001B56F12000001B651000A49
:102D1000D8B4C3D7010AD8B4C7D7030AD8B4CBD71D
:102D2000010AD8B4CFD7070AD8B4D3D7010AD8B488
:102D3000D7D7030AD8B4DBD7E1D70001B66F38D0B4
:102D4000800E0001B46F0F0E0001B56F1200810EEE
:102D50000001B46F0F0E0001B56F1200820E00016A
:102D6000B46F0F0E0001B56F1200830E0001B46F37
:102D70000F0E0001B56F1200840E0001B46F0F0E2C
:102D80000001B56F1200850E0001B46F0F0E000137
:102D9000B56F1200860E0001B46F0F0E0001B56F03
:102DA0001200000E0001B46F000E0001B56F12009A
:102DB0000001B651000AD8B4C3D7010AD8B4C7D7A6
:102DC000030AD8B4CBD7010AD8B4CFD7070AD8B4EE
:102DD000D3D7010AD8B4D7D7030AD8B4DBD7E1D701
:102DE0003ED000019B51140D110E0001B46F0C0E6A
:102DF0000001B56FF3500001B427F4500001B52372
:102E000000019C51010DF3500001B425D96EF4501E
:102E10000001B521DA6EDF50D8B41FD0010E0001D9
:102E2000FC6F00019B51140D110E0001B46F0C0ECC
:102E30000001B56FF3500001B427F4500001B52331
:102E400000019C51010DF3500001B425D96EF450DE
:102E50000001B521DA6E800EDF6E00019C2B130E8F
:102E600000019C65BED7000E00019C6F00019B2BEA
:102E7000080E0001F327000EF423000E0001F26F8C
:102E8000060EF16F1200000E0001D66F0001C8514E
:102E90000001CC250001D46F0001CA510001CE25EC
:102EA0000001D56FCEC0B4F0CFC0B5F0CCC0B6F045
:102EB000CDC0B7F0D6EC9EF0B4C0D2F0B5C0D3F020
:102EC000CAC0B9F00001D4050001BA6F0001D505F0
:102ED0000001BB6F0001C8514DEC95F0000E0001E0
:102EE000D66F13D00001D651020DF3500001C62554
:102EF000D96EF4500001C721DA6EDECFB9F0DDCF14
:102F0000BAF08BECA0F00001D62B0001D6510001E5
:102F1000D06FD16B0001D2510001D05D0001D351BF
:102F20000001D159D8B01200DDD7B4C0F6FFB5C04A
:102F3000F7FF000EF86E0F0EF76403D00800F5508F
:102F400005D0F6CFE9FFF7CFEAFFEF500001BC6FE5
:102F50000001B851010DBF0EF324F66EFC0EF420F3
:102F6000F76EF86A000EF8220800F5CFBAF0000EEE
:102F70000001BB6F06D00001B6510001B75F000130
:102F8000BB2B0001B6510001B75DD8B0F4D70001EA
:102F9000B8510001B703F350B76F0001BB510001F6
:102FA000B7270001B7290001B96F03D00001D890FD
:102FB000BC330001B92FFAD70001BA510001BC1788
:102FC0000001BC5112000001B96F000E0001BA6F80
:102FD000000E0001B76F360E20ECA0F00001B951D1
:102FE000030B0001BA6F2CD0010E0001B76FC80EA1
:102FF00020ECA0F0800E506E800E4F6E1200010E7D
:103000000001B76FA80E20ECA0F0800E506E800E6D
:103010004F6E1200010E0001B76F080E20ECA0F0F9
:10302000800E506E800E4F6E1200010E0001B76FC1
:10303000680E20ECA0F0800E506E800E4F6E1200D5
:103040000001BA51000AD8B4CFD7010AD8B4D7D7F3
:10305000030AD8B4DFD7010AD8A41200E6D7000EBD
:1030600000019C6F000E00019B6F000E0001B76F06
:103070000E0E0001B76501D02DD0000E0001B66F15
:10308000130E0001B66501D022D0010E0001FC6FC5
:103090000001B751140D110E0001B46F0C0E0001A8
:1030A000B56FF3500001B427F4500001B5230001BF
:1030B000B651010DF3500001B425D96EF450000152
:1030C000B521DA6E800EDF6E0001B62BD9D7000174
:1030D000B72BCED7010E00019D6F000E0001F26FDD
:1030E000060EF16F000E0001F46F060EF36F120072
:1030F000000E00019C6F000E00019B6F000E00018E
:10310000B66F130E0001B66501D01200000E00016B
:10311000B76F0E0E0001B76501D02CD00001B7517A
:10312000140D110E0001B46F0C0E0001B56FF350B9
:103130000001B427F4500001B5230001B651010D80
:10314000F3500001B425D96EF4500001B521DA6EB8
:10315000000EDF6E0001B751020D240EF324D96E6C
:10316000020EF420DA6EFF0EDE6EFF0EDD6E000141
:10317000B72BCFD70001B62BC4D70001BA6F090E09
:103180000001B7611200BAC09AF0000E3C6E070E43
:103190003C6401D02AD09AC0B8F0010E0001B817E3
:1031A000060E0001B96F0001D890B8370001B92FA1
:1031B000FAD70001B8510001996F0001B739E84210
:1031C000F80B3C10000199110001BB6F0001D89071
:1031D0009A336F0E0001B46F010E0001B56FBBC0D2
:1031E000B6F0D4EC9AF03C2AD2D76F0E0001B46F3F
:1031F000010E0001B56F000E0001B66FD4EC9AF01D
:103200001200A50EF66EFC0EF76E000EF86E20EEA4
:10321000C9F00F0E0900F5CFDEFFE806FBE2C3C0E0
:10322000C0F0C4C0C1F0C6C0C2F041EC9EF00001C5
:10323000D96F040E0001C56120D0040E0001D961D0
:103240001CD00001C551040DC90E0001C76F000E4E
:103250000001C86FF3500001C727F4500001C823D4
:103260000001D951010DF3500001C725D96EF4506A
:103270000001C821DA6EDF501200050E1200000EA8
:103280000001BA6F000EB96F0001B6510001B7110D
:10329000D8B42CD0010E0001B86F06D00001D89030
:1032A000B637B7370001B82B0001B7AFF7D7000129
:1032B000D890B937BA370001B6510001B45D0001AA
:1032C000B7510001B559D8A00AD00001B65100018C
:1032D000B45F0001B7510001B55B0001B981000185
:1032E000D890B733B6330001B82FE1D7B9C0B4F0E6
:1032F000BAC0B5F0120001C0F6FF02C0F7FF000E21
:10330000F86E0F0EF76403D00800F55005D0F6CF25
:10331000E9FFF7CFEAFFEF50096E0550010DBF0E30
:10332000F324F66EFC0EF420F76EF86A000EF82215
:103330000800F5CF07F0000E086E03D00350045EBE
:10334000082A0350045CD8B0F9D705500402F350A2
:10335000046E085004260428066E02D0D890093264
:10336000062EFCD70750091609501200000120EE66
:1033700006F0C351D926C451DA22DECFB4F0DDCF36
:10338000B5F0050E0001B66F000E0001B76FA7EC97
:103390009BF0000120EE06F0C351D926C451DA2279
:1033A000DECFBFF0DDCFC0F0000E0001C16F000E18
:1033B0000001C26FFEEC9FF0000120EE06F0C35149
:1033C000D926C451DA22DECFB4F0DDCFB5F0050E38
:1033D0000001B66F010E0001B76FA7EC9BF0120061
:1033E000000120EE06F0C351D926C451DA22DECF07
:1033F000B4F0DDCFB5F0050E0001B66F000E000190
:10340000B76FA7EC9BF0000120EE06F0C351D92660
:10341000C451DA22DECFBFF0DDCFC0F0000E0001D4
:10342000C16F020E0001C26FFEEC9FF0000120EEA2
:1034300006F0C351D926C451DA22DECFB4F0DDCF75
:10344000B5F0050E0001B66F010E0001B76FA7ECD5
:103450009BF01200000E0001C96F000E0001CA6F40
:10346000C1C0B9F00001BF510001C3250001C76F01
:103470000001C7050001BA6F0001C1510001C52557
:103480000001C86F0001C8050001BB6F0001BF51FA
:103490004DEC95F0C5C0CAF00001CA510001D8B486
:1034A0001200C3C0C9F00001C9510001D8B409D04D
:1034B000BDC0B9F0BEC0BAF08BECA0F00001C907E6
:1034C000F2D70001CA07E8D7B70E0001DA6F010E84
:1034D0000001DB6F070E0001DC6F030E0001DD6FE2
:1034E00073EC89F0B70E0001DA6F010E0001DB6F9B
:1034F000060E0001DC6F030E0001DD6F73EC89F036
:10350000E5EC9CF0C00E0001E16FC60EE26F2D0EDF
:10351000E36F000EE46F010E0001E56F010E000184
:10352000E66F00EC80F07A0E0001C36F010E00011F
:10353000C46FB6EC99F0120000019C2B060E00013E
:10354000F127000EF223060E0001F1250001B86FED
:10355000000E0001F2210001B96F0001B9BF09D0CE
:103560000001B95104E1800E0001B85DD8B0F0EC63
:1035700096F0080E0001F3250001B86F000E00015F
:10358000F4210001B96F0001B9BF0CD00001B9519D
:1035900005E1800E0001B85DD8A004D02FEC98F0B2
:1035A000010E1200000E120026D0A8C0D9FFA9C03B
:1035B000DAFF0001DF94B6C0C9FFC7A0FED7C9CFAC
:1035C000B6F0A8C0D9FFA9C0DAFF0001DF8412005D
:1035D000A7C1D9FFA8C1DAFF0101DF9EB6C06FFF06
:1035E0006DA0FED76FCFB6F0A7C1D9FFA8C1DAFF93
:1035F0000101DF8E1200000120EE02F0B451D92645
:10360000B551DA22DF50000AD8B4CFD7010AD8A4C6
:103610001200DED71FD0000E0001B66F000EB76F8C
:10362000000EB86F000EB96F0001B9510001B8115A
:1036300011E1B00E0001B65D040E0001B759D8B01B
:1036400009D000F0010E0001B627000EB723B82301
:10365000B923EAD70001B407D8A0B5070001B429FF
:10366000DAE10001B529D8A4D6D7080E0001B66F5B
:10367000800EB76F000EB86F000EB96F1200050E06
:103680000001E06FDAC0D9FFDBC0DAFFDECFE1F086
:10369000DDCFE2F00001DC51020DF3CFDEF00001DE
:1036A000DC51020DF3280001DF6FE1C0C3F0E2C07E
:1036B000C4F0DDC0C5F0DEC0C6F001EC99F0000139
:1036C000E06F0001E051D8A40CD0E1C0C3F0E2C02B
:1036D000C4F0DDC0C5F0DFC0C6F001EC99F0000118
:1036E000E06F0001E051120000019C51D8B408D0F5
:1036F0000001FA0EF127FF0EF22300019C0724D0EF
:1037000000019B51D8B410D0000E0001F26F720E70
:10371000F16F0001F80EF327FF0EF423130E0001E2
:103720009C6F00019B0710D0000E0001F26F060E87
:10373000F16F000E0001F46F060EF36F000E000132
:103740009C6F000E00019B6FE2EC9DF01200010ED9
:103750000001B717B6C0B8F0010E0001B96F000143
:10376000B82B03D00001D890B9370001B82FFAD791
:103770000001B951FF0A0001BA6FB4C0D9FFB5C04A
:10378000DAFF0001BA51DF16B6C0B8F0B7C0B9F021
:103790000001B82B03D00001D890B9370001B82F31
:1037A000FAD7B4C0D9FFB5C0DAFF0001B951DF12B2
:1037B00012000001E16F1ED0A40E0001DA6F000EAE
:1037C0000001DB6F000E0001DC6F030E0001DD6FF6
:1037D00073EC89F017D0A40E0001DA6F000E00011F
:1037E000DB6F010E0001DC6F030E0001DD6F73EC77
:1037F00089F008D00001E151000AD8B4DDD7010AF0
:10380000D8B4E9D7000E0001C86F0001E151BDEC4A
:103810009CF012000001BD510001BE11D8B426D0A9
:10382000010E0001BF6F06D00001D890BD37BE3732
:103830000001BF2B0001BEAFF7D70001BD51000151
:10384000BB5D0001BE510001BC59D8A008D00001E9
:10385000BD510001BB5F0001BE510001BC5B000116
:10386000D890BE33BD330001BF2FE7D7BBC0BBF03C
:10387000BCC0BCF01200050E0001E96F0001E5516B
:10388000020DF3CFE7F00001E551020DF32800012E
:10389000E86FE3C0DAF0E4C0DBF0E7C0DCF0E6C0DC
:1038A000DDF03FEC9BF00001E96F0001E951D8A485
:1038B0000CD0E3C0DAF0E4C0DBF0E8C0DCF0E6C036
:1038C000DDF03FEC9BF00001E96F0001E9511200CF
:1038D000000E0001BF6F000E0001C06F000E00015E
:1038E000B96F50040001BA6F4F040001BB6F000EA6
:1038F0004DEC95F04FC0C0F00001C0510001D8B4AC
:10390000120050C0BFF00001BF510001D8B409D06F
:10391000BDC0B9F0BEC0BAF08BECA0F00001BF078B
:10392000F2D70001C007E8D71CD0000E0001B66F27
:10393000000EB76F000EB86F000EB96F0001B651E0
:103940000001B7110001B8110001B911D8A409D0C4
:1039500000F0010E0001B627000EB723B823B923EB
:10396000EDD70001B407D8A0B5070001B429DDE107
:103970000001B529D8B41200D8D70001C96F1CD0F6
:10398000A40E0001C36F000E0001C46F000E000101
:10399000C56FC8C0C6F075EC93F01200A40E00010C
:1039A000C36F000E0001C46F010E0001C56FC8C0D7
:1039B000C6F075EC93F012000001C951000AD8B4AA
:1039C000DFD7010AD8A41200E9D74FECA0F0010E0E
:1039D00057EC9DF0000E0001B56F800EB46F0AEC3D
:1039E0009BF0010E57EC9DF040ECA0F0000E0001A2
:1039F000B56F800EB46F0AEC9BF0010E57EC9DF092
:103A00004FECA0F0000E0001B56F800EB46F0AEC11
:103A10009BF0010E57EC9DF01200010E041603C03E
:103A200005F0010E066E052A02D0D8900636052E46
:103A3000FCD70650FF0A076E01C0D9FF02C0DAFFAB
:103A40000750DF1603C005F004C006F0052A02D0B7
:103A5000D8900636052EFCD701C0D9FF02C0DAFF88
:103A60000650DF121200050E0001ED6FEAC0E3F010
:103A7000EBC0E4F0000E0001E56FECC0E6F03BECBB
:103A80009CF00001ED6F0001ED51D8A40DD0EAC00B
:103A9000E3F0EBC0E4F0010E0001E56FECC0E6F0EE
:103AA0003BEC9CF00001ED6F0001ED5112000001B4
:103AB000CC6F18D0A40E0001C86F000E0001C96FB2
:103AC000000E0001CA6F40EC9FF01200A40E00012E
:103AD000C86F000E0001C96F010E0001CA6F40ECF3
:103AE0009FF012000001CC51000AD8B4E3D7010ABC
:103AF000D8A41200EBD7000120EE06F0B451D9266D
:103B0000B551DA22DECFB7F0DDCFB8F0B7C0D9FFBC
:103B1000B8C0DAFFDF500001B96F0001B62900011B
:103B2000B76F03D00001D890B9330001B72FFAD78F
:103B3000010E0001B9170001B9511200030E000176
:103B4000C56514D0010E0001C3250001BF6F000E32
:103B50000001C4210001C06F0001C551FC0F00012C
:103B6000C16FC6C0C2F0EDEC9FF01200C3C0BFF041
:103B7000C4C0C0F0C5C0C1F0C6C0C2F0EDEC9FF03B
:103B800012000001BB6F86500F0B0001BA6F4E5040
:103B9000D8A402D0000E1200000E4E6E0001BB51E0
:103BA0000001BA19D8B40CD0F00E86160001BB5132
:103BB0008612000E0001B56F0A0EB46F94EC9CF0F3
:103BC000010E1200010E0001FC6F00019B51140D4B
:103BD000110E0001B46F0C0E0001B56FF35000011F
:103BE000B427F4500001B52300019C51010DF3509E
:103BF0000001B425D96EF4500001B521DA6E800EB3
:103C0000DF6E120016D0000E036E000E046E000E62
:103C1000056E000E066E0350041005100610D8A4A1
:103C200008D000F0010E0326000E04220522062211
:103C3000F2D70106D8A002060128E5E10228D8B48F
:103C40001200E1D7000175510001761100017711D2
:103C5000D8B40DD001D80BD00500FA6E0001755113
:103C6000FD6E7651FE6E7751FF6EFA501200000E17
:103C70000001756F000E0001766F000E0001776F76
:103C80001200030E0001C26512D0010E0001C02512
:103C90000001BD6F000E0001C1210001BE6F0001D7
:103CA000C251FC0F0001BF6F7CECA0F01200C0C03D
:103CB000BDF0C1C0BEF0C2C0BFF07CECA0F01200ED
:103CC0000001BB6F86500F0B0001BA6F4E50D8B485
:103CD000FDD7000E4E6E0001BB510001BA19D8B4D9
:103CE0000CD0F00E86160001BB518612000E0001AA
:103CF000B56F0A0EB46F94EC9CF0010E1200000E2A
:103D00000001BD6F000EBC6F0001BD5116E1080E31
:103D10000001BC5DD8B01200BCC0B7F0350E000188
:103D2000BC25D96E010E0001BD21DA6EDF50BDEC5D
:103D300098F00001BC4BBD2BE7D71200B7C081F053
:103D4000B8C082F0B7C0D9FFB8C0DAFFDE50DE10CD
:103D5000D8A41200B7C0D9FFB8C0DAFFB9C0DEFFDF
:103D6000BAC0DDFF78C0B4F079C0B5F07AC0B6F063
:103D7000C8EC9FF01200010E60EC9EF00009D8B470
:103D8000120076EC88F0000EFFECA0F0EF0E0001C0
:103D9000B56FFF0E0001B66F8FEC90F09AECA0F0BB
:103DA0000009D8B4120022EC9EF012000001B451B8
:103DB0000001B603F3CFB8F0F4CFB9F00001B4516D
:103DC0000001B703F3500001B9270001B55100010C
:103DD000B603F3500001B927B8C0B4F0B9C0B5F0CC
:103DE0001200086E86500F0B076E4E50D8A402D0FA
:103DF000000E1200000E4E6E08500718D8B40AD0FC
:103E0000F00E861608508612000E026E0A0E016E23
:103E100002EC9EF0010E1200C80E0001E16F010ECF
:103E20000001E26F000E0001E46F080EE36F05EC85
:103E300091F0C80E0001B76F010E0001B86FF5C018
:103E4000B9F0F6C0BAF09EEC9EF01200B4C0F6FFD6
:103E5000B5C0F7FF000EF86E0800F5CFB8F000010E
:103E6000B6290001B76F03D00001D890B833000124
:103E7000B72FFAD7010E0001B8170001B851120090
:103E8000C8C0B4F0C9C0B5F0CAC0B6F07BEC9DF0B4
:103E90000001CB6F010E0001CB1BC8C0C3F0C9C02D
:103EA000C4F0CAC0C5F0CBC0C6F075EC93F01200E8
:103EB000000120EE02F0B451D926B551DA22DF50CC
:103EC000D8A407D0A8C0D9FFA9C0DAFF0001DF84B9
:103ED0001200A7C1D9FFA8C1DAFF0101DF8E1200CD
:103EE000030E0F640CD0010E0D240A6E000E0E207E
:103EF0000B6E0F50FC0F0C6EA8ECA0F012000DC062
:103F00000AF00EC00BF00FC00CF0A8ECA0F01200ED
:103F100010ECA1F001011651010117110101181156
:103F2000D8B4120001D812000500FA6E0101165132
:103F3000FD6E1751FE6E1851FF6EFA50120000010F
:103F400020EE02F0CF51D926D051DA22D1C0DEFFC7
:103F5000D2C0DDFFD1C0C1F0D2C0C2F00001C36B3E
:103F6000C46B1AEC8EF0120004D09D961200A39E32
:103F70001200000120EE02F0B451D926B551DA2228
:103F8000DF50000AD8B4F1D7010AD8A41200EFD745
:103F9000B4C016F1B5C017F1B6C018F17FC0D6FF96
:103FA00080C0D7FFD55000019519F80B9519D56E33
:103FB000F294F28A1200010E60EC9EF00009D8B46F
:103FC0001200ABEC8CF078EC98F09AECA0F00009C1
:103FD000D8B4120022EC9EF01200BFC0B4F0C0C0F2
:103FE000B5F0040E0001B66FC1C0B7F0020E0001BB
:103FF000B86FC2C0B9F0F2EC94F01200BFC0B4F0D8
:10400000C0C0B5F0020E0001B66FC1C0B7F0040E1B
:104010000001B86FC2C0B9F0F2EC94F01200000ECB
:104020000001F26F060EF16F000E0001F46F060E34
:10403000F36F000E00019C6F000E00019B6F1200D9
:104040000001B86F0001B751B5ECA0F07A0E000185
:10405000B46F010E0001B56FB8C0B6F0D4EC9AF0A1
:104060001200EBEC8BF0DBEC9FF0BBEC9EF00CEC69
:104070009FF0FAECA0F0DAEC91F036EC94F0FBD77C
:10408000B70E0001C36F010E0001C46F060E0001E0
:10409000C56F010E0001C66F75EC93F01200B70EEC
:1040A0000001C36F010E0001C46F060E0001C56F51
:1040B000000E0001C66F75EC93F01200A30E000114
:1040C000EA6F010E0001EB6F000E0001EC6F000EB5
:1040D0000001ED6F2EEC85F01200AD0E0001DA6FDD
:1040E000010E0001DB6F040E0001DC6F000E000109
:1040F000DD6F73EC89F01200BDC0B4F0BEC0B5F046
:10410000040E0001B66FBFC0B7F0020E0001B86F19
:1041100095EC97F01200010E0001B76F0001BA5143
:1041200020ECA0F0010E0001B76F0001B95120ECA6
:10413000A0F01200010E4E6E0001755100017611C3
:1041400000017711D8B402D0010E1200000E120047
:104150000AC001F00BC002F0040E036E0CC004F0A4
:10416000020E056E7BEC99F012000001B46F0001A5
:10417000B4B102D0859E01D0858E120006000600E3
:0B41800064000A00FFFFC8014161302D
:10418C00B4C0D9FFB5C0DAFFB6C0DFFF1200000122
:10419C00C86F0001C85153EC8AF01200B4C075F01E
:1041AC00B5C076F0B6C077F0120001C075F002C051
:1041BC0076F003C077F012000600060080000700BE
:1041CC00050007007FC0D6FF80C0D7FFF294120015
:1041DC007FC0D6FF80C0D7FFF28A12007FC0D6FF07
:1041EC0080C0D7FFF28A1200F28CF28EF288F29223
:1041FC0012000001B46FB4C03CF11200B4C0F9F06D
:10420C00B5C0FAF012009E929D929F921200F29A03
:10421C00F2941200F29AF2941200010E4E6E1200F9
:07422C00966812000180807A
:06FFF800AAF705FFF8F175
:00000001FF
