:100000000DEF04F026EF00F004EF0AF0D1EC04F05D
:10001000FF0000F000F012000CEF0AF018EF00F003
:10003000F26AFC6A9BEC04F004009EEC09F0D8EC38
:1000400003F0F3EC03F05EEC08F0F6D701501F0B61
:10005000E80601E01200055001E01200060E021849
:1000600014E01AD0020E3D6E4A0E3FD8306A090ED7
:100070000AD0020E3D6E450402E1870E36D84504D3
:100080000AE1306A1D0E2F6E06D00450210AEAE004
:10009000030AEFE0010A42820138E832030BE80666
:1000A00014E01200020E3D6E440E206E24D0020EAB
:1000B0003D6E04C044F0020C020E3D6E430EF5D7B7
:1000C000020E3D6E03C043F0020C0250010AD8B488
:1000D0001200030AE7E0010AEFE00A0AD8B41200AE
:1000E000030AE5E0010AECE01200206E2050D8A4DB
:1000F000100E216E1200216A4292010E2F6E010C29
:100100004F6A140E506E516A296A2A6A4FC0F6FF70
:1001100050C0F7FF51C0F8FF42D80800F5CFDFFF0D
:100120004F2A000E50225122294A2A2A040E2A5C04
:10013000EDE30D0EE8CFB2F4600EE8CFB3F4000E9D
:10014000496E050E486E0AEC03F04F68170E506EAC
:10015000516A030E2A6E296851C0F8FF50C0F7FF9C
:100160004FC0F6FF1CD8DF50F56E0C0029C04EF0D2
:100170003F0E4E1607E1FEEC09F0040EA66EB50E1A
:1001800067EC04F04F06000E505A515A0A002950ED
:100190002A1001E112002906D8A02A06DDD7AC0EEC
:1001A0002924D96E040E2A20DA6E120003040BE112
:1001B00001501F0B08E1010E3D6E030E021802E113
:1001C000428001D042900350D8A4120001501F0B6E
:1001D000020AD8A4120005500F0BD8B4120028D878
:1001E000476A040E486E4726000E4822F350472601
:1001F000F450482223D847241D6EF45048201E6E28
:10020000030E021805E10FD8040EDF6E0CD81CD0C7
:1002100005AE04D008D8400EDF6E400C04D8080E9E
:10022000DF6E01D811D01DC0D9FF1EC0DAFF120049
:10023000010E3D6E05500F0B080D1200010E05AEAC
:10024000000E040DF3501200000EDB8E000C3D502A
:1002500010E193EC03F0196E3A0405E1010E32EC63
:1002600003F03A6A1200000E32EC03F0010E3A6E0F
:10027000010C01AE1BD0010E3E6E2F50075C3050BA
:10028000085804E207C02FF008C030F076EC01F007
:10029000480E196E010E32EC03F0000E32EC03F042
:1002A000240E04010A6F040E0B6F1CD0020E3E6E6A
:1002B000040E196E0750081002E1480E196E3A0438
:1002C00005E1010E32EC03F03A6A05D0000E32EC83
:1002D00003F0010E3A6E07500810D8A41200040172
:1002E000096B00D0480E086F088F480C080E326E5C
:1002F00030500DE1080E2F5C0AE22FC032F0405062
:1003000002E1010E03D0400402E1020E406E32C051
:1003100009F432502F5E000E305A240E1D6E040E6A
:100320001E6E42A21AD00BD01BD813EC01F00F0E98
:10033000F76403D00800F55001D019D81ED8325008
:10034000F3E112000DD813EC01F00F0EF76403D0A7
:100350000800F55001D00BD810D83250F3E112004C
:1003600020C0F6FF21C0F7FF000EF86E1200F6CF96
:10037000E1FFF7CFE2FFE7501200DF6E1D4A1E2AB1
:10038000204A212A320612000138E832030B18E015
:100390001200010E3D6E040E416E040C010E3D6E06
:1003A000450E206E7BEF00F02CD8496E49C020F03E
:1003B0007BEF00F026D8D96EDA6A03C0DFFF1200A7
:1003C000025002E179EF02F0010A02E1D6EF00F0FB
:1003D000020A02E1D6EF00F0060ADBE0030A02E1BE
:1003E00006EF02F0010AD8B412000F0AD7E0010AA2
:1003F00002E155EF03F0030AD7E0010ADBE0070A48
:100400001200010E3D6E0550460F1200800E0118BD
:1004100030E01200010E3D6EA40E75EC00F0120EDD
:1004200009D003502DE1010E3D6E380E75EC00F041
:10043000306A290E2F6E24D0010E3D6E0350010F3D
:10044000476E47C0F6FF100EF76E000EF86E0900FB
:10045000F5CF20F0100E216EB0EC01F00F0EF76416
:1004600003D00800F55002D0B7EC01F02F6E306ACF
:1004700007D00450010ACEE0030AD3E0010ADCE011
:1004800042821200366A27D03850486E000E48BEAD
:10049000FF0E496E4A6E4B6E4850155C0D6E49500A
:1004A00016580E6E4A5017580F6E4B501858106E53
:1004B0000FC0F8FF0EC0F7FF0DC0F6FF11D80D00FA
:1004C000362A0ED80C00362A240EA66EB50E67EC1E
:1004D00004F0FE0E38263850800A7F0FD5E2120055
:1004E000AC0E3624D96EDA6A040EDA22DF50F56ECD
:1004F0001200246B256B22D0010E3D6E42B0248386
:1005000024D0010E3D6E21D018EC01F0476A040E94
:10051000486E4726000E4822F3504726F4504822E2
:100520001EEC01F047241D6EF45048201E6E13ECA3
:1005300001F0DFA40AD0010E246F07D001501F0B79
:10054000DBE0010ADEE0030ADFE03D04D8A412008C
:10055000240E206E040E216E4292020E2F6E020CAB
:10056000400E486401D0486E4A6A0DD047504A2474
:10057000D96EDA6A6C0E4A24E16EE26A040EE22257
:10058000DFCFE7FF4A2A48504A5CF0E348C011F445
:10059000400E0401101710BD03D0496A492A01D04A
:1005A000496A493A49464946040110514918BF0B66
:1005B0004918106F1087108F12003F6A0CBF12008D
:1005C00048500D5D02E20DC448F03F6A0BD02C0E7E
:1005D0003F24D96EDA6A040EDA2247503F24F9EC40
:1005E00009F03F2A48503F5CF2E3400E0D6F0C17B4
:1005F0000CBD03D0496A492A01D0496A493A4946A3
:10060000494604010C514918BF0B49180C6F0C875F
:100610000C8F1200495006E1050E485C03E2496A5E
:10062000050E486E48504A6E49504B6E4C6A4D6AF2
:100630000A0ED8904A364B364C364D36E82EF9D74E
:100640004AC009F04BC00AF04CC00BF04DC00CF092
:100650000BC0F8FF0AC0F7FFF66A140EA66EB50EBF
:1006600067EF04F0476E080E1A6E1C0E1B6E040E28
:100670001C6E475006E1140E1B6E040E1C6E256A9C
:1006800002D0040E256E266E0BD819C0DEFF1AC0EC
:10069000DEFF1BC0DEFF1CC0DEFF02D8DF8E1200B3
:1006A00025C0D9FF26C0DAFF1200010E3D6E0F01F2
:1006B00016D8346A3450460FD96EDA6ADF6A342AA3
:1006C0003450F8E003C045F04550C9EC04F0035045
:1006D00003E1050E416E050C060E416E060C4D6BD6
:1006E0004E6B4F6B506B516B526B536B1200040E81
:1006F000411808E103C05EFF0F015E51050ED8B43A
:10070000030E416E3E04D8A4120076EC01F0020EF6
:10071000401802E108D8040C0401480E08BD080E78
:10072000086F088F1200040E0401086F088F040C74
:10073000030E416E0F015D6B626A7B0E5C6F5E6B38
:100740006FEC03F0160E4C6F658C03D06296FEECD6
:1007500009F062B6FBD7659C6598040E196E000E11
:1007600032EC03F0010E3A6E426A456A000EC9EFA0
:1007700004F081B818EC00F0060EF66E14D80D0ED9
:10078000F5180DE10900600EF51809E1F66A0BD8BD
:10079000F52803E10900F52802E000EF0AF018EC63
:1007A00000F000EF00F0140EF76EF86A0900140C68
:1007B0002306D8A0240623502410D8A412004E0EDD
:1007C000246E236A060E416002D08B80060C8BB02B
:1007D00003D0476A472A01D0476A8B504718FE0B5F
:1007E00047188B6E1200C0BC1200030ED36E6592C8
:1007F0006596F26A0ED808D0C0AC04D02D06D8A0F9
:100800002E0601D006D804002D502E10F5E1FF0071
:100810001200040E2E6E2D6A040C04EEACF014EEE1
:1008200000F0EE6AE550E150FCE1E250FAE100EE42
:1008300060F0820EEE6AE806FDE100EE01F0460E81
:10084000EE6AE806FDE10001B9EF03F00401086B70
:10085000406A00AF02D0006B3A6A04AF03D0046B69
:10086000010E3A6E3E6A3D6A2F6A306A6598C4ECA2
:1008700001F002EC00F027EF01F005D80AD8376A42
:100880000CD8386A12007E0E3B6E116AFC0E126E96
:10089000FC0C010E136E146A000C156816681768BC
:1008A000186812003F6A1E0E0F014D6F400E0401C2
:1008B0000D6F2C0E0E6F040E0F6F080E0C6F0C8F49
:1008C0006C0E126F040E136F400E106F400C476ECB
:1008D000F29EF3EC03F0B50E471804E0030ED36E5E
:1008E0000300FED7550EA76EAA0EA76EA682A6B26B
:1008F000FED7A69412005CCF35F0040E0F015C6F9A
:1009000062986582A198A088AAEC04F0A09835505E
:100910000F015C131200390402E1D1EC04F0656AA6
:10092000150E0F015F6F5C6B658698EC03F0010E8E
:10093000416E396A1200600ED36E9B8CDCEC04F0C1
:10094000BFEC04F0C16AC26A3DEC04F08B90949055
:10095000E7EF04F08B90D3CF31F00300A1B802D0C1
:10096000D0A6FBD731C0D3FF1200D9EC04F06592BA
:100970000F015C9501D0629462A41200FCD705D0EF
:10098000FEEC09F04706D8A0480647504810F8E1A9
:100990001200476E4704D8A4120052EC04F03DEF59
:1009A00004F06592656A48684768BFEC04F0416AE4
:1009B000120002D8BFEF04F0030E486E476A030C22
:1009C000390401E1120065A68BEC04F0120065B653
:0E09D000D1EC04F0396AE0EF04F012001200DE
:1010000000B6046134034D006900630072006F0094
:1010100063006800690070002000540065006300F0
:1010200068006E006F006C006F00670079002000A0
:1010300049006E0063002E000902290001010080B2
:10104000320904000002030000000921110100011F
:10105000221D000705810340000107050103400030
:101060000126034800490044002000550053004277
:1010700000200042006F006F0074006C006F006180
:10108000006400650072000600FF0901A10119015A
:101090002940150026FF0075089540810019012997
:1010A000409100C01201000200000008D8043C007A
:0B10B00001010102000104030904001B
:1010BC00060E4118D8B465B21200375001E017D1B2
:1010CC0004010CBF1200600E476E400E486EDDEC42
:1010DC0002F0010E376E276A286A2750A10FD96ECD
:1010EC00DA6A000EDF6E274A282A285005E1400EE6
:1010FC00275CD8B01200F1D71200020EA16F3A0E85
:10110C00A26F010EA36FA46FA56B140EA66FA76B35
:10111C00A86B000E1124A96FEC0E1220AA6FFF0E03
:10112C001320AB6FFF0E1420AC6F030EAD6FF80ED7
:10113C00AE6FAF69010EB06FB16B080EB26FB36BCF
:10114C00B46BB56BB669A50EDA6F040110BFA50CB4
:10115C00A10E476E400E486EB0EC02F0376A1200DA
:10116C00615106E17F0E3B6EF80E116E126802D0D3
:10117C0043EC04F049EC04F0F1D7286A050E276E15
:10118C000CD0FEEC09F027C048F028C049F00AEC5E
:10119C0003F09EEC09F0274A282A3B50526E536A02
:1011AC00522A000E53225250275C53502858D6E234
:1011BC00E8D715280EE116280CE117280AE11828A3
:1011CC0008E161C015F062C016F063C017F064C08E
:1011DC0018F015506119C2E116506219BFE1175091
:1011EC006319BCE118506419B9E1276A286A1AD04E
:1011FC006551A0082724D96EDA6AAC0E3824E16E4A
:10120C00E26A040EE222DFCFE7FF382A152A000E2D
:10121C001622172218223A0E381802E142EC02F07C
:10122C00274A282A00017CD899E2E2D742EC02F046
:10123C004DEC04F093D7070EA16F61C0A2F062C011
:10124C00A3F063C0A4F064C0A5F065C0A6F063C0B1
:10125C00F8FF62C0F7FF61C0F6FF276A286A0BD05F
:10126C00090000016551E1082724D96EDA6AF5CF2F
:10127C00DFFF274A282A54D8F3E3040110BF1200D9
:10128C0067D780EC00F06AD70C0EA16F010EA36F2C
:10129C00020EA26F160EF66ED3EC03F0F5CFA4F08F
:1012AC000A00F5CFA5F0060EA66F140EA76FA86B5B
:1012BC00A96B600EAB6F0D0EAA6FAC6B040EAD6F0D
:1012CC00000EAE6BAF6BB069B169B269B369B4694A
:1012DC00B569B669B769B86BB96BBA6BBB6BBC6BEC
:1012EC00BD6BBE6BBF6BC9D706EC00F037D70001E6
:1012FC006051020A01E101D7010A01E131D7070A65
:10130C0001E13BD7010A01E154D7030A8FE0010A3E
:10131C0092E00F0AE9E0010AB4E0050AB5E01ED735
:10132C006551526E536A5250275C53502858120024
:10133C00E0EC04F0415001E1120062B4B5EC04F0B1
:10134C0065B2120062B098EC03F062B87BEC04F06A
:10135C00030E416001D0030C3C6A62A6120064507B
:10136C0064CF4AF07C0E4A162AE164B203D02B6A91
:10137C00040E02D0040E2B6E2C6E62962BC0D9FF7D
:10138C002CC0DAFFDF30E8320F0B0D0A20E1336A94
:10139C0023D8DECF4AF0DDCF4BF04AC0D9FF4BC08B
:1013AC00DAFF3350010F1FD817D8DE2A000EDD22CA
:1013BC00332A070E3364ECD726EC04F008D0040E65
:1013CC00641804E1629677EC03F001D062963C2A33
:1013DC00030E3C64C2D7030C20EE02F02B50D9262E
:1013EC002C50DA221200E16EE26ADFCFE7FF120026
:0413FC0004001200D7
:1014000055EF0AF012000D605182FACF17F0FBCFB2
:1014100018F0E9CF19F0EACF1AF0E1CF1BF0E2CFD4
:101420001CF0D9CF1DF0DACF1EF0F3CF1FF0F4CFB0
:1014300020F0F6CF21F0F7CF22F0F8CF23F0F5CF50
:1014400024F051C025F052C026F053C027F054C0FC
:1014500028F0F292F2B4F2AA02D027ECB5F028C03C
:1014600054F027C053F026C052F025C051F024C0DC
:10147000F5FF23C0F8FF22C0F7FF21C0F6FF20C010
:10148000F4FF1FC0F3FF1EC0DAFF1DC0D9FF1CC050
:10149000E2FF1BC0E1FF1AC0EAFF19C0E9FF18C054
:0E14A000FBFF17C0FAFF519211008BEFAAF06C
:10FBE20000001180002C0100B10200350036000037
:10FBF200B202003500360000B302003500360002C2
:10FC0200003500360000B4000000C0A200020084EB
:10FC12000000C1C50000C20D00000000C38D002A13
:10FC22000000C48D00EE0000C50A000036C80000C6
:10FC3200E012001C001000180033002C00250028E0
:10FC420000280027002F003C0000000300030010E2
:10FC5200008000780000E112001C00100018002D46
:10FC620000280023002800280026002F003B000067
:10FC720000030003001000003A0500002A00000201
:10FC82000000008100002B000003000000A2000021
:10FC920029002C020004000800100020004000800F
:10FCA2000000010001020001000100020200000345
:10FCB20003030001000A006400E8031027000103A7
:10FCC200070F1F3F7FFF0002010301041000000025
:10FCD200000000005F00000007000700147F147F8F
:10FCE20014242A7F2A1223130864623649552250AB
:10FCF2000005030000001C2241000041221C0008F4
:10FD02002A1C2A0808083E0808005030000008088B
:10FD1200080808006060000020100804023E5149F3
:10FD2200453E00427F400042615149462141454BD8
:10FD3200311814127F1027454545393C4A4949304C
:10FD420001710905033649494936064949291E0008
:10FD52003636000000563600000008142241141402
:10FD6200141414412214080002015109063249797F
:10FD7200413E7E1111117E7F494949363E41414142
:10FD8200227F4141221C7F494949417F09090101E2
:10FD92003E414151327F0808087F00417F410020E7
:10FDA20040413F017F081422417F404040407F0292
:10FDB20004027F7F0408107F3E4141413E7F0909D2
:10FDC20009063E4151215E7F0919294646494949A2
:10FDD2003101017F01013F4040403F1F2040201F71
:10FDE2007F2018207F6314081463030478040361DE
:10FDF2005149454300007F4141020408102041411E
:10FE02007F00000402010204404040404000010221
:10FE1200040020545454787F4844443838444444BD
:10FE220020384444487F3854545418087E0901024B
:10FE3200081454543C7F0804047800447D40002098
:10FE420040443D00007F10284400417F40007C0474
:10FE52001804787C0804047838444444387C141428
:10FE62001408081414187C7C0804040848545454D8
:10FE720020043F4440203C4040207C1C2040201C69
:10FE82003C4030403C44281028440C5050503C44E4
:10FE920064544C44000836410000007F00000041D9
:10FEA20036080008082A1C08081C2A0808000080D6
:10FEB2003F1872313FF0FD753E4758633D58951D1E
:10FEC2003C82C4AE3AA8782139EF938037A092A73A
:10FED200354656153400000000C4FF7F3F80EFFF17
:10FEE200BE90E1A93EEC8276BE82AD2B3E0E3CC3B3
:10FEF200BD87D1133D4178D3BB00FCFF0F0000FF4B
:10FF0200FFF0FF00FFFF0043757272656E74204DB3
:10FF12006F64653A0A20436F6E74696E756F75730C
:10FF2200204D6F64650A0043757272656E74204DD0
:10FF32006F64653A0A20506F736974696F6E204D61
:10FF42006F64650A0A0043757272656E74204D6FA4
:10FF520064653A0A20556E646566696E65640A00D6
:10FF620043757272656E74204D6F64653A0A205350
:10FF7200746570204D6F64650A00202020202020C7
:10FF8200202020202020202020202020202020206F
:10FF92000A004A616D696E204561726C79203939B7
:10FFA2003133333339310A0A0052656D61696E6942
:10FFB2006E672053746570733A2025640A0A0054F0
:10FFC200617267657420416E676C653A0A20256428
:10FFD200200A00446972656374696F6E3A200053A7
:10FFE200706565643A2025640A0053746570733A3B
:0EFFF2002025640A004343570A0025630000DF
:020000040001F9
:100000000001AA51800B0001B76F0001AA51AA2577
:100010000001B96F0001A9AF02D00001B981000150
:10002000B9510001D8B412D00001B929D8A409D01F
:10003000000E0001A76F000EA86F000EA96F000E42
:10004000AA6F0001A98F000E000108D0000E000168
:10005000A76F000EA86F000EA96F000EAA6F000117
:10006000AE51800B0001B86F0001B7510001B81903
:10007000D8B402D00001B78D0001AE51AE25000109
:10008000B86F0001ADAF02D00001B8810001B851D6
:100090000001D8B412D00001B829D8A409D0000EAC
:1000A0000001AB6F000EAC6F000EAD6F000EAE6FB7
:1000B0000001AD8F000E000108D0000E0001AB6FF3
:1000C000000EAC6F000EAD6F000EAE6F0001B951A7
:1000D0000001B85DD8B024D00001B7AD03D0800EC8
:1000E0000001B71BB9C0BAF0B8C0B9F0BAC0B8F0D7
:1000F000A7C0BAF0ABC0A7F0BAC0ABF0A8C0BAF0C6
:10010000ACC0A8F0BAC0ACF0A9C0BAF0ADC0A9F0BC
:10011000BAC0ADF0AAC0BAF0AEC0AAF0BAC0AEF094
:10012000000E0001BA6F0001B9510001AF6FB06B52
:100130000001AF1FB01FAF4BB02B0001B851000141
:10014000B16FB26B0001AF510001B1270001B05196
:100150000001B2230001B2BF3DD00001B25105E160
:100160001A0E0001B15DD8A035D00001A7510001E1
:10017000A8110001A9110001AA11D8B402D0010EE2
:1001800001D0000E0001BA6F000E0001A76F000E33
:10019000A86F000EA96F000EAA6FB8C0B9F020D0EA
:1001A0000001BAA107D00001D890BA3101090001BD
:1001B000BA6F03D00001D890BA330001A7A102D0D2
:1001C0000001BA8F0001AA35AA33A933A833A73397
:1001D0000001B92B0001B8510001B95DD8A0E0D7EA
:1001E0000001B7BD3FD00001B9510001D8A40AD029
:1001F000000E0001A76F000EA86F000EA96F000E81
:10020000AA6F12000001AB510001A7270001AC51F9
:100210000001A8230001AD510001A9230001AE5146
:100220000001AA230001AAA1CCD00001BAA109D0E3
:100230000001D890BA330001BA5101090001BA6F28
:1002400003D00001D890BA330001A7A102D0000169
:10025000BA8F0001AA35AA33A933A833A733000106
:10026000B92BAFD00001AB510001A75D0001AC512B
:100270000001A8590001AD510001A9590001AA517E
:10028000800A0001AF6F0001AE51800A0001AF5932
:10029000D8B050D0A7C0AFF0A8C0B0F0A9C0B1F09E
:1002A000AAC0B2F00001AF1FB01FB11FB21FAF2B29
:1002B000000EB023B123B2230001AB510001AF25E2
:1002C0000001B36F0001AC510001B0210001B46F17
:1002D0000001AD510001B1210001B56F0001AE5127
:1002E0000001B2210001B66FFF0E0001B32500012D
:1002F000A76FFF0E0001B4210001A86FFF0E0001DF
:10030000B5210001A96FFF0E0001B6210001AA6FFF
:10031000800E0001B71B0001BA6D0001BA51000147
:10032000D8A418D0010E0001A727000EA823A923E6
:10033000AA2310D00001AB510001A75F0001AC510E
:100340000001A85B0001AD510001A95B0001AE51A5
:100350000001AA5B0001A7510001A8110001A91129
:100360000001AA11D8A42AD00001BA510001D8A4D2
:1003700025D0000E0001A76F000EA86F000EA96F18
:10038000000EAA6F12000001D890A737A837A9372E
:10039000AA370001BAAF02D00001A7810001BAA1BB
:1003A00003D0D880000102D00001D890BA370001F4
:1003B000B9510001D8B402D00001B9070001A9AFBA
:1003C000E2D7000E0001B86F0001BAAF0DD0BAC07D
:1003D000AFF07F0E0001AF17D8A403D00001A7A192
:1003E00003D0010E0001B86F0001B8510001D8B46C
:1003F00026D0010E0001A727000EA823A923AA23B7
:100400000001AAA11CD0A7C0AFF0A8C0B0F0A9C03D
:10041000B1F0AAC0B2F00001B235B233B133B0339B
:10042000AF33AFC0A7F0B0C0A8F0B1C0A9F0B2C060
:10043000AAF00001B929D8B402D00001B92B0001FB
:10044000B929D8B405D00001B9510001D8A411D000
:10045000000E0001A76F000EA86F000EA96F000E1E
:10046000AA6F0001B9510001D8A403D0000E000109
:10047000B76F0001B9A103D00001A98F02D000011C
:10048000A99F0001D890B9310001AA6F0001B7AF50
:1004900002D00001AA8FA7C0A7F0A8C0A8F0A9C0E9
:1004A000A9F0AAC0AAF0120000017F51800B000140
:1004B000886F00017F517F2500018E6F00017EAFA4
:1004C00002D000018E8100018E510001D8B410D0FD
:1004D00000018E29D8A409D0000E00017C6F000E07
:1004E0007D6F000E7E6F000E7F6F00017E8F09D042
:1004F000000E00017C6F000E7D6F000E7E6F000EFF
:100500007F6F00018351800B0001881B0001835124
:1005100083250001896F000182AF02D0000189812B
:10052000000189510001D8B410D000018929D8A454
:1005300009D0000E0001806F000E816F000E826FE7
:10054000000E836F0001828F09D0000E0001806FC2
:10055000000E816F000E826F000E836F00018951C3
:100560000001D8B405D000018E510001D8A40AD0F2
:10057000000E00017C6F000E7D6F000E7E6F000E7E
:100580007F6F12000001825100017C03F3CF93F0D2
:10059000F4CF94F00001935100018A6F8B6B8C6B48
:1005A0008D6B0001945100018F6F906B916B926B7A
:1005B0000001815100017D03F3CF93F0F4CF94F05B
:1005C0000001935100018A27000E8B238C238D2379
:1005D0000001945100018F27000E90239123922354
:1005E0000001805100017E03F3CF93F0F4CF94F02B
:1005F0000001935100018A27000E8B238C238D2349
:100600000001945100018F27000E90239123922323
:100610008CC08DF08BC08CF08AC08BF000018A6B8F
:100620000001805100017D03F3CF93F0F4CF94F0EB
:100630000001935100018A270001945100018B238E
:10064000000E00018C23000E00018D23000181515A
:1006500000017C03F3CF93F0F4CF94F000019351A9
:1006600000018A270001945100018B23000E000134
:100670008C23000E00018D238CC08DF08BC08CF07C
:100680008AC08BF000018A6B0001805100017C035D
:10069000F3CF93F0F4CF94F00001935100018A2737
:1006A0000001945100018B23000E00018C23000EE9
:1006B00000018D230001825100017D03F3CF93F0EF
:1006C000F4CF94F00001935100018F270001945161
:1006D00000019023000E00019123000E00019223DF
:1006E0000001815100017E03F3CF93F0F4CF94F029
:1006F0000001935100018F270001945100019023C4
:10070000000E00019123000E00019223000182518E
:1007100000017E03F3CF93F0F4CF94F000019351E6
:100720000001846F000194510001856F0001866B08
:100730000001876B86C087F085C086F084C085F095
:100740000001846B0001845100018F270001855155
:10075000000190230001865100019123000187517F
:10076000000192238AC084F08BC085F08CC086F093
:100770008DC087F0190E06D00001D89087338633DC
:1007800085338433E82EF8D70001845100018F2788
:100790000001855100019023000186510001912341
:1007A00000018751000192238CC08DF08BC08CF02A
:1007B0008AC08BF000018A6B000189518EC084F0E1
:1007C0000001856B00018427000E8523820E000145
:1007D00084250001936FFF0E000185210001946FB5
:1007E00015D00001D8908F3790379137923700019C
:1007F0008DAF02D000018F810001D8908A378B37EE
:100800008C378D3700019307D8A09407000191AF72
:10081000E8D7000E0001896F00018DAF24D0FF0ED4
:1008200000018A150001846FFF0E00018B15000185
:10083000856FFF0E00018C150001866F7F0E000191
:100840008D150001876F00018451000185110001A1
:10085000861100018711D8A403D000018FA103D015
:10086000010E0001896F000189510001D8B423D025
:10087000010E00018F27000E902391239223000187
:1008800092A119D08FC084F090C085F091C086F0FD
:1008900092C087F0000187358733863385338433F0
:1008A00084C08FF085C090F086C091F087C092F030
:1008B0000001934B942B000194BF10D00001945180
:1008C00004E100019329D8A009D0000E00018F6F28
:1008D000000E906F800E916F7F0E2BD0000194BFA1
:1008E00007D00001945111E100019305D8B00DD05B
:1008F000000E00018F6F000E906F000E916F000EC2
:10090000926F000E0001886F15D093C08EF0FF0E1D
:1009100000018F17FF0E90177F0E9117000E921790
:1009200000018EA102D00001918F0001D8908E317C
:100930000001926F00018851000192138FC07CF07A
:1009400090C07DF091C07EF092C07FF012000CD07C
:100950006A0E0001936F010E04D0750E0001936FB3
:10096000010E0001946F08D000019151000AD8B423
:10097000EFD7010AD8B4F1D7000120EE02F093516D
:10098000D9269451DA2291C0DFFFB1D0A80E000120
:10099000866F010E0001876F020E0001886F030E43
:1009A0000001896F2DEC93F0A80E0001866F010EF7
:1009B0000001876F030E0001886F030E0001896F2D
:1009C0002DEC93F0A80E0001866F010E0001876FD9
:1009D000050E0001886F030E0001896F2DEC93F066
:1009E000A80E0001866F010E0001876F040E000142
:1009F000886F000E0001896F2DEC93F0000120EE4E
:100A000003F09351D9269451DA22C70EDE6E0F0EF1
:100A1000DD6E000120EE06F09351D9269451DA22C2
:100A2000C60EDE6E0F0EDD6E000120EE09F0935152
:100A3000D9269451DA22C90E56D0940E0001866F41
:100A4000010E0001876F070E0001886F030E000181
:100A5000896F2DEC93F0940E0001866F010E00015A
:100A6000876F060E0001886F030E0001896F2DEC61
:100A700093F0940E0001866F010E0001876F040E43
:100A80000001886F030E0001896F2DEC93F0940E26
:100A90000001866F010E0001876F050E0001886F4F
:100AA000000E0001896F2DEC93F0000120EE03F0A1
:100AB0009351D9269451DA226D0EDE6E0F0EDD6E43
:100AC000000120EE06F09351D9269451DA226C0EE3
:100AD000DE6E0F0EDD6E000120EE09F09351D92677
:100AE0009451DA226F0EDE6E0F0EDD6E09D000011A
:100AF0009151000AD8B44AD7010AD8A412009DD750
:100B0000000120EE06F09351D9269451DA22DECF6F
:100B100060F0DDCF61F0050E0001626F000E000194
:100B2000636FEDECAFF09CD0000120EE06F0935126
:100B3000D9269451DA22DECF60F0DDCF61F0040EC9
:100B40000001626F000E0001636FEDECAFF0000179
:100B500020EE03F09351D9269451DA22DECF60F0D3
:100B6000DDCF61F0060E0001626F000E0001636FC1
:100B7000EDECAFF084D0000120EE06F09351D926C1
:100B80009451DA22DECF60F0DDCF61F0040E000177
:100B9000626F000E0001636FEDECAFF0000120EE1C
:100BA00003F09351D9269451DA22DECF60F0DDCFE5
:100BB00061F0060E0001626F010E0001636FEDEC43
:100BC000AFF05DD0000120EE06F09351D92694518C
:100BD000DA22DECF60F0DDCF61F0040E0001626F3B
:100BE000010E0001636FEDECAFF0000120EE03F0A9
:100BF0009351D9269451DA22DECF60F0DDCF61F037
:100C0000060E0001626F000E0001636FEDECAFF0A5
:100C100036D0000120EE06F09351D9269451DA2205
:100C2000DECF60F0DDCF61F0040E0001626F010ED7
:100C30000001636FEDECAFF0000120EE03F0935183
:100C4000D9269451DA22DECF60F0DDCF61F0060EB6
:100C50000001626F010E0001636FEDECAFF00FD089
:100C600000019251000AD8B45FD7010AD8B483D7E3
:100C7000030AD8B4A7D7010AD8A41200CAD7000122
:100C800020EE06F09351D9269451DA22DECF60F09F
:100C9000DDCF61F0070E0001626F000E0001636F8F
:100CA000EDECAFF0000120EE06F09351D9269451FF
:100CB000DA22DECF60F0DDCF61F0060E0001626F58
:100CC000000E0001636FEDECAFF08DC06DF08EC0D3
:100CD0006EF08FC06FF090C070F0C0EC9BF093C0CE
:100CE00060F094C061F068ECB5F004D09F860BD042
:100CF000A58E09D000019151000AD8B4F7D7010A96
:100D0000D8A41200F5D793C060F094C061F0E0EC75
:100D1000B4F093C0D9FF94C0DAFF000EDF6E00017B
:100D200020EE06F09351D9269451DA22DECF6BF0F3
:100D3000DDCF6CF0000E00016D6F030E00016E6FD1
:100D4000B3ECB5F0000120EE06F09351D926945192
:100D5000DA22DECF60F0DDCF61F0050E0001626FB8
:100D6000010E0001636FEDECAFF012000001635162
:100D7000800B00016C6F0001635163250001776FE8
:100D8000000162AF02D000017781000177510001BC
:100D9000D8B412D000017729D8A409D0000E0001E0
:100DA000606F000E616F000E626F000E636F0001D6
:100DB000628F000E000108D0000E0001606F000E6F
:100DC000616F000E626F000E636F00016751800B50
:100DD00000016C1B0001675167250001786F00015D
:100DE00066AF02D000017881000178510001D8B4CB
:100DF00012D000017829D8A409D0000E0001646F38
:100E0000000E656F000E666F000E676F0001668F43
:100E1000000E000108D0000E0001646F000E656F27
:100E2000000E666F000E676F0001645100016511CE
:100E30000001661100016711D8A417D0000E00014F
:100E4000606F000E616F000E626F000E636F000135
:100E5000800E62137F0E631360C060F061C061F0AA
:100E600062C062F063C063F01200000177510001BC
:100E7000D8A412D0000E0001606F000E616F000E4A
:100E8000626F000E636F60C060F061C061F062C0AD
:100E900062F063C063F01200000178510001686FD6
:100EA000696B0001681F691F684B692B000177514E
:100EB00000016A6F6B6B0001685100016A27000135
:100EC000695100016B237F0E00016A250001716FDB
:100ED000000E00016B210001726F60C06DF061C0F7
:100EE0006EF062C06FF063C070F0000E0001606FC2
:100EF000000E616F000E626F000E636F000E000146
:100F0000736F000E746F000E756F000E766F000E1B
:100F10000001786F42D0000178510001D8B417D099
:100F20000001D8906D376E376F3770370001D89059
:100F30006037613762376337000176AF02D0000156
:100F400060810001D89073377437753776370001A8
:100F5000645100016D5D0001655100016E59000191
:100F6000665100016F590001675100017059D8A006
:100F700012D00001768D0001645100016D5F000107
:100F8000655100016E5B0001665100016F5B00015D
:100F900067510001705B0001782B190E0001786524
:100FA000BAD700016D5100016E1100016F110001EF
:100FB0007011D8B418D00001738115D00001D890F9
:100FC0006037613762376337000176AF02D00001C6
:100FD00060810001D8907337743775377637000118
:100FE0007107D8A07207000162AFE8D7000E0001B8
:100FF000786F000176AF24D0FF0E00017315000159
:10100000686FFF0E000174150001696FFF0E00018B
:10101000751500016A6F7F0E0001761500016B6F78
:10102000000168510001691100016A1100016B1192
:10103000D8A403D0000160A103D0010E0001786F95
:10104000000178510001D8B423D0010E00016027BF
:10105000000E612362236323000163A119D060C0E5
:1010600068F061C069F062C06AF063C06BF00001B3
:101070006B356B336A336933683368C060F069C0BD
:1010800061F06AC062F06BC063F00001714B722BBB
:10109000000172BF14D00001725104E100017129F6
:1010A000D8A00DD0000E0001726F7169000E000112
:1010B000606F000E616F000E626F000E636F0001C3
:1010C00072BF07D00001725115E100017105D8B05F
:1010D00011D0000E0001726F000E716F000E000142
:1010E000606F000E616F000E626F000E636F000E86
:1010F00000016C6F71C077F0000177A103D000018F
:10110000628F02D00001629F0001D8907731000108
:10111000636F00016C510001631360C060F061C037
:1011200061F062C062F063C063F01200080E00015B
:101130006F2500016C6F000E0001702100016D6FC2
:10114000000E00016E6F93ECB3F00001866F00019A
:1011500086510001726F736B0E0ED89000017237CA
:101160007337E82EFAD7000186510001746F756B52
:101170000C0ED890000174377537E82EFAD70001AD
:1011800086510001766F776B0A0ED8900001763792
:101190007737E82EFAD7000186510001796F786B16
:1011A0000001865100017A6F7B6B060ED89000011A
:1011B0007A377B37E82EFAD70001865100017C6F21
:1011C0007D6B00017C3B7D3BF00E7D177C510F0B4E
:1011D0007D13F00E7C170001865100017E6F7F6B3E
:1011E0000001D8907E377F370001D8907E377F3757
:1011F000000186510001806F816B00017E5100016A
:10120000801300017F510001811300017C51000116
:10121000801300017D510001811300017A5100010A
:10122000801300017B5100018113000178510001FE
:1012300080130001795100018113000176510001F2
:1012400080130001775100018113000174510001E6
:1012500080130001755100018113000172510001DA
:1012600080110001826F00017351000181110001A2
:10127000836F86C084F00001856B080E00016F2526
:1012800000016C6F000E0001702100016D6F010EF6
:1012900000016E6F93ECB3F00001726F736B00018D
:1012A000D890723773370001D890723773370001C6
:1012B0007251000184130001735100018513080E5F
:1012C00000016F2500016C6F000E0001702100010C
:1012D0006D6F020E00016E6F93ECB3F00001726F40
:1012E000736B0001723B733BF00E731772510F0B5F
:1012F0007313F00E72170001725100018413000184
:10130000735100018513080E00016F2500016C6FF9
:10131000000E0001702100016D6F030E00016E6F61
:1013200093ECB3F00001726F736B060ED89000015E
:1013300072377337E82EFAD7000172510001841317
:101340000001735100018513080E00016F25000193
:101350006C6F000E0001702100016D6F040E000122
:101360006E6F93ECB3F00001726F000172510001D7
:10137000746F736B00017351000184130001745189
:1013800000018513080E00016F2500016C6F000E2F
:101390000001702100016D6F050E00016E6F93EC6E
:1013A000B3F00001726F736B0A0ED89000017237B0
:1013B0007337E82EFAD7000172510001841300013F
:1013C000735100018513080E00016F2500016C6F39
:1013D000000E0001702100016D6F060E00016E6F9E
:1013E00093ECB3F00001726F736B0C0ED890000198
:1013F00072377337E82EFAD7000172510001841357
:101400000001735100018513080E00016F250001D2
:101410006C6F000E0001702100016D6F070E00015E
:101420006E6F93ECB3F00001726F736B0E0ED89079
:10143000000172377337E82EFAD7000172510001AC
:1014400084130001735100018513000184510001D0
:10145000821948E10001855100018319D8A41200C6
:1014600032D0000120EE02F06F51D9267051DA22FD
:10147000DECF60F0DDCF61F071C062F0F1ECB6F06C
:1014800012000001711F000120EE02F06F51D926F9
:101490007051DA22DECF60F0DDCF61F071C062F012
:1014A000F1ECB6F01200000120EE04F06F51D926E5
:1014B0007051DA22DECF60F0DDCF61F071C062F0F2
:1014C000F1ECB6F0120000018651000AD8B4120007
:1014D000010AD8B4C6D7030AD8B4D3D7010AD8A40E
:1014E0001200E1D712000001D3510001D411000114
:1014F000D5110001D611D8A40AD0000E0001D36F77
:10150000000ED46F800ED56F3F0ED66F1200180EEE
:101510000001606F720E616F310E626F440E636F77
:10152000D3C064F0D4C065F0D5C066F0D6C067F013
:1015300045EC97F00001D8B00FD0000E01011B6FF1
:10154000220E1A6FFF0E0001D36FFF0ED46F7F0EB5
:10155000D56F7F0ED66F1200D3C060F0D4C061F09B
:10156000D5C062F0D6C063F0870E0001646F480EEC
:10157000656F3A0E666FC40E676F45EC97F0000119
:10158000D8B00FD0000E01011B6F220E1A6F000E93
:101590000001D36F000ED46F000ED56F000ED66F12
:1015A00012000001D6AF02D0010E01D0000E0001E2
:1015B000DD6F0001DD510001D8B412D0D3C07CF042
:1015C000D4C07DF0D5C07EF0D6C07FF02AECB4F058
:1015D0007CC0D3F07DC0D4F07EC0D5F07FC0D6F003
:1015E000D3C07CF0D4C07DF0D5C07EF0D6C07FF0F3
:1015F0003B0E0001806FAA0E816FB80E826F3F0E06
:10160000836F54EC82F07CC0D3F07DC0D4F07EC0F8
:10161000D5F07FC0D6F0D3C0C5F0D4C0C6F0D5C0D9
:10162000C7F0D6C0C8F043EC9EF0C5C0D7F0C6C026
:10163000D8F0C7C0D9F0C8C0DAF0D7C0BBF0D8C066
:10164000BCF0D9C0BDF0DAC0BEF0F2EC9FF0BBC078
:10165000DBF0BCC0DCF0D3C0BBF0D4C0BCF0D5C064
:10166000BDF0D6C0BEF0DBC06EF0DCC06FF0000194
:10167000000E6FBFFF0E706F716F010E46EC92F09F
:101680006EC0BFF06FC0C0F070C0C1F071C0C2F0DA
:10169000FAECB1F0BBC0D3F0BCC0D4F0BDC0D5F003
:1016A000BEC0D6F0D3C0BBF0D4C0BCF0D5C0BDF036
:1016B000D6C0BEF0AF0E0001BF6FFE0E0001C06FBE
:1016C000000E0001C26F090EC16F66EC9FF0BBC037
:1016D000CBF0BCC0CCF0BDC0CDF0BEC0CEF0DBC006
:1016E000CFF0DCC0D0F0B1EC9DF0CBC0D3F0CCC0DB
:1016F000D4F0CDC0D5F0CEC0D6F00001DD51000150
:10170000D8B435D00001D32916E10001D42913E162
:101710007F0E0001D5190FE17F0E0001D619D8A464
:101720000AD0000E0001D36F000ED46F000ED56FEB
:10173000000ED66F1200000E0001606F000E616F88
:10174000800E626F3F0E636FD3C064F0D4C065F04B
:10175000D5C066F0D6C067F0B6EC86F060C0D3F0B6
:1017600061C0D4F062C0D5F063C0D6F01200D3C01F
:10177000D3F0D4C0D4F0D5C0D5F0D6C0D6F0120086
:101780000001606F7ED03F0E1200060E12005B0E4D
:1017900012004F0E1200660E12006D0E12007D0E2A
:1017A0001200070E12007F0E12006F0E12005F0E65
:1017B00012007C0E1200580E12005E0E12007B0EFC
:1017C0001200710E12006F0E1200740E1200040E41
:1017D00012000E0E12007A0E1200060E1200140EE7
:1017E0001200540E12005C0E1200730E1200670EEF
:1017F0001200500E12006D0E1200780E12001C0E18
:101800001200620E12002A0E1200640E12006E0EFA
:1018100012005B0E1200770E12007F0E1200390EBE
:1018200012003F0E1200790E1200710E12003D0ED2
:101830001200760E1200060E12001E0E1200570E37
:101840001200380E1200760E1200760E12003F0EB5
:101850001200730E12003F0E1200770E12006D0E72
:101860001200310E12003E0E12003E0E12007E0ECD
:101870001200760E1200660E12005B0E1200800E31
:101880001200000160512E0AD8B4F9D71E0AD8B44C
:101890007AD7010AD8B479D7030AD8B478D7010A1D
:1018A000D8B477D7070AD8B476D7010AD8B475D791
:1018B000030AD8B474D7010AD8B473D70F0AD8B4BE
:1018C00072D7010AD8B471D7780AD8B4A4D7030A5A
:1018D000D8B4A3D7010AD8B4A2D7070AD8B4A1D7DD
:1018E000010AD8B4A0D7030AD8B49FD7010AD8B444
:1018F0009ED70F0AD8B49DD7010AD8B49CD7030A43
:10190000D8B49BD7010AD8B49AD7070AD8B499D7C4
:10191000010AD8B498D7030AD8B497D7010AD8B423
:1019200096D71F0AD8B495D7010AD8B494D7030A1A
:10193000D8B493D7010AD8B492D7070AD8B491D7AC
:10194000010AD8B490D7030AD8B48FD7010AD8B403
:101950008ED70F0AD8B48DD7010AD8B48CD7030A12
:10196000D8B48BD73B0AD8B422D7030AD8B421D72E
:10197000010AD8B420D7070AD8B41FD7010AD8B4AF
:101980001ED7030AD8B41DD7010AD8B41CD70F0A32
:10199000D8B41BD7010AD8B41AD7030AD8B419D7B8
:1019A000010AD8B418D7070AD8B417D7010AD8B48F
:1019B00016D7030AD8B415D7010AD8B414D71F0A0A
:1019C000D8B413D7010AD8B412D7030AD8B411D7A0
:1019D000010AD8B410D7070AD8B40FD7010AD8B46F
:1019E0000ED7030AD8B40DD7010AD8B40CD70F0A02
:1019F000D8B40BD7010AD8B40AD7030AD8B409D788
:101A0000000E1200050E00019A6FC7D0000120EEF3
:101A100002F09651D9269751DA22DECF6BF0DDCF56
:101A20006CF098C06DF00F0E00016E6FB3ECB5F066
:101A3000000120EE04F09651D9269751DA22DECF2C
:101A40006BF0DDCF6CF098C06DF0000E00016E6F92
:101A5000B3ECB5F0B0D096C08FF097C090F098C0BE
:101A600091F0030E0001926FDDECB0F000019A6F6F
:101A700000019A51D8A41200000120EE02F0965104
:101A8000D9269751DA22DECF6BF0DDCF6CF098C00B
:101A90006DF0000E00016E6FB3ECB5F0000120EEAA
:101AA00004F09651D9269751DA22DECF6BF0DDCFC4
:101AB0006CF098C06DF0000E00016E6FB3ECB5F0E5
:101AC0007AD096C08FF097C090F098C091F0030E36
:101AD0000001926FDDECB0F000019A6F00019A51A5
:101AE000D8A41200000120EE02F09651D926975199
:101AF000DA22DECF6BF0DDCF6CF098C06DF00F0E08
:101B000000016E6FB3ECB5F0000120EE04F09651C9
:101B1000D9269751DA22DECF6BF0DDCF6CF098C07A
:101B20006DF00F0E00016E6FB3ECB5F044D096C0AF
:101B30008FF097C090F098C091F0030E0001926F63
:101B4000DDECB0F000019A6F00019A51D8A41200A8
:101B5000000120EE02F09651D9269751DA22DECF0D
:101B60006BF0DDCF6CF098C06DF0000E00016E6F71
:101B7000B3ECB5F0000120EE04F09651D926975150
:101B8000DA22DECF6BF0DDCF6CF098C06DF0000E86
:101B900000016E6FB3ECB5F00ED000019951000A50
:101BA000D8B434D7010AD8B456D7030AD8B489D7E1
:101BB000010AD8B4BCD7080E0001962500016F6F4A
:101BC000000E000197210001706F00019851040D73
:101BD000F3CF71F099C072F0ADECB2F0080E0001D5
:101BE000962500016F6F000E000197210001706FB4
:101BF00000019851040DF3280001716F99C072F033
:101C0000ADECB2F0080E0001962500016F6F000EDA
:101C1000000197210001706F00019851040DF350ED
:101C2000020F0001716F99C072F0ADECB2F0080EB6
:101C30000001962500016F6F000E00019721000141
:101C4000706F00019851040DF350030F0001716F84
:101C500099C072F0ADECB2F01200050E00019F6F5A
:101C60007AD0000120EE02F09A51D9269B51DA2257
:101C7000DECF9DF0DDCF9EF09DC0D9FF9EC0DAFF84
:101C8000FF0E67D09AC096F09BC097F0010E00013E
:101C9000986F1EECB2F000019F6F00019F51D8A415
:101CA0001200000120EE02F09A51D9269B51DA224F
:101CB000DECF9DF0DDCF9EF09DC0D9FF9EC0DAFF44
:101CC000000EDF6E000120EE04F036D09AC096F0D0
:101CD0009BC097F0020E0001986F1EECB2F000015D
:101CE0009F6F00019F51D8A41200000120EE02F066
:101CF0009A51D9269B51DA22DECF9DF0DDCF9EF09E
:101D00009DC0D9FF9EC0DAFFFF0EDF6E000120EEFE
:101D100004F0AAD79AC096F09BC097F0000E00017D
:101D2000986F1EECB2F000019F6F00019F51D8A484
:101D30001200000120EE02F09A51D9269B51DA22BE
:101D4000DECF9DF0DDCF9EF09DC0D9FF9EC0DAFFB3
:101D5000000EDF6E0ED000019C51000AD8B481D76E
:101D6000010AD8B48FD7030AD8B4B0D7010AD8B4BF
:101D7000D1D7080E00019A2500016F6F000E0001F7
:101D80009B210001706F000E0001716F9CC072F00A
:101D9000ADECB2F0080E00019A2500016F6F000E45
:101DA00000019B210001706F010E0001716F9CC04A
:101DB00072F0ADECB2F0080E00019A2500016F6FD1
:101DC000000E00019B210001706F020E0001716F77
:101DD0009CC072F0ADECB2F0080E00019A25000133
:101DE0006F6F000E00019B210001706F030E000158
:101DF000716F9CC072F0ADECB2F0080E00019A2534
:101E000000016F6F000E00019B210001706F040E36
:101E10000001716F9CC072F0ADECB2F0080E0001D1
:101E20009A2500016F6F000E00019B210001706F69
:101E3000050E0001716F9CC072F0ADECB2F0080E9F
:101E400000019A2500016F6F000E00019B21000127
:101E5000706F060E0001716F9CC072F0ADECB2F0B5
:101E6000080E00019A2500016F6F000E00019B21F2
:101E70000001706F070E0001716F9CC072F0ADEC35
:101E8000B2F012004D50D8B41200E5C186F0E6C1A0
:101E900087F0E7C188F0E8C189F00001FC51D8B4AF
:101EA00005D0FAC085F00F0E0001FA6F000E000198
:101EB0008B6FDFD000018B51020D000EF324D96E21
:101EC000020EF420DA6EDECFF5F1DDCFF6F1000E72
:101ED00000018A6F130E00018A6501D0BED0000197
:101EE0008B51140D8F0E0001836F020E0001846F61
:101EF000F35000018327F4500001842300018A512C
:101F0000010DF35000018325D96EF45000018421A6
:101F1000DA6EDFAE9AD000018B51140D8F0E0001E6
:101F2000836F020E0001846FF35000018327F45089
:101F30000001842300018A51010DF3500001832523
:101F4000D96EF45000018421DA6E7F0EDF16000195
:101F50008B51140D8F0E0001836F020E0001846FF0
:101F6000F35000018327F4500001842300018A51BB
:101F7000010DF35000018325D96EF4500001842136
:101F8000DA6EDF50D8B44AD037C069F038C06AF092
:101F900086C06BF087C06CF088C06DF089C06EF0B1
:101FA000EDC16FF0EEC170F0EFC171F0F0C172F0F1
:101FB0003EECAEF000018B51140D8F0E0001836FCB
:101FC000020E0001846FF35000018327F4500001DA
:101FD000842300018A51010DF35000018325D96E3D
:101FE000F45000018421DA6EDF50A5ECA2F065C048
:101FF00072F066C073F086C074F087C075F088C058
:1020000076F089C077F0EDC178F0EEC179F0EFC1DC
:102010007AF0F0C17BF0B6ECA8F017D0000E00010A
:102020006A6F000E696F86C06BF087C06CF088C065
:102030006DF089C06EF0EDC16FF0EEC170F0EFC1D0
:1020400071F0F0C172F03EECAEF0060E0001862792
:10205000000E872300018A2B3DD7080E0001882738
:10206000000E8923000E0001876F060E866F0001A7
:102070008B2B00018B510001FA5DD8B01BD70001FA
:10208000FC51D8B41200000E0001FC6F85C0FAF0BC
:102090001200000E02018A6F0001DE510001DF1103
:1020A0000001E0110001E111D8A425D0000E0001CB
:1020B000606F000E616F000E626F000E636FE2C012
:1020C00064F0E3C065F0E4C066F0E5C067F045EC9D
:1020D00097F00001D8A005D0000E01011B6F210E62
:1020E0001A6F000E0001DE6F000EDF6F000EE06F52
:1020F000000EE16F12000001E2510001E311000146
:10210000E4110001E511D8A40AD0000E0001DE6F31
:10211000000EDF6F800EE06F3F0EE16F12000001D6
:10212000E1AF58D0E2C0BBF0E3C0BCF0E4C0BDF00A
:10213000E5C0BEF0F2EC9FF0BBC08BF2BCC08CF2ED
:10214000BDC08DF2BEC08EF28BC26EF08CC26FF03D
:102150008DC270F08EC271F0000E46EC92F000015C
:10216000E25100016E1910E10001E35100016F1905
:102170000BE10001E4510001701906E10001E55195
:1021800000017119D8B40FD0000E01011B6F210E90
:102190001A6F000E0001DE6F000EDF6F000EE06FA1
:1021A000000EE16F120002018B51010B02018A6FD8
:1021B000DEC07CF0DFC07DF0E0C07EF0E1C07FF0EB
:1021C0002AECB4F07CC0DEF07DC0DFF07EC0E0F031
:1021D0007FC0E1F0DEC0CBF0DFC0CCF0E0C0CDF0DE
:1021E000E1C0CEF00DEC98F0CBC082F2CCC083F20F
:1021F000CDC084F2CEC085F282C27CF083C27DF075
:1022000084C27EF085C27FF0E2C080F0E3C081F03E
:10221000E4C082F0E5C083F054EC82F07CC086F22A
:102220007DC087F27EC088F27FC089F286C2D3F07B
:1022300087C2D4F088C2D5F089C2D6F073EC8AF098
:10224000D3C0DEF0D4C0DFF0D5C0E0F0D6C0E1F0FE
:1022500002018A510201D8B413D0DEC07CF0DFC085
:102260007DF0E0C07EF0E1C07FF02AECB4F07CC0ED
:10227000DEF07DC0DFF07EC0E0F07FC0E1F0120054
:10228000DEC0DEF0DFC0DFF0E0C0E0F0E1C0E1F092
:102290001200600E00019B6F010E00019C6F000E8A
:1022A00000019E6F020E9D6F820E00019F6F6E0EE9
:1022B0000001A06F010E0001A16F060E0001A26FC8
:1022C0006D0E0001A36F010E0001A46F040E00014A
:1022D000A56F140E0001A66F000E0001A76F3BEC66
:1022E000A2F0420E00019B6F010E00019C6F000ED8
:1022F00000019E6F020E9D6F820E00019F6F6E0E99
:102300000001A06F010E0001A16F660E0001A26F17
:102310006D0E0001A36F010E0001A46F040E0001F9
:10232000A56F140E0001A66F000E0001A76F3BEC15
:10233000A2F0380E00019B6F010E00019C6F000E91
:1023400000019E6F020E9D6F820E00019F6F6E0E48
:102350000001A06F010E0001A16F4E0E0001A26FDF
:102360006D0E0001A36F010E0001A46F040E0001A9
:10237000A56F140E0001A66F000E0001A76F3BECC5
:10238000A2F04C0E00019B6F010E00019C6F000E2D
:1023900000019E6F020E9D6F820E00019F6F6E0EF8
:1023A0000001A06F010E0001A16F360E0001A26FA7
:1023B0006D0E0001A36F010E0001A46F040E000159
:1023C000A56F140E0001A66F000E0001A76F3BEC75
:1023D000A2F0560E00019B6F010E00019C6F000ED3
:1023E00000019E6F020E9D6F820E00019F6F6E0EA8
:1023F0000001A06F010E0001A16F1E0E0001A26F6F
:102400006D0E0001A36F010E0001A46F040E000108
:10241000A56F140E0001A66F000E0001A76F3BEC24
:10242000A2F0A00E00018D6F860E8E6F010E8F6FD1
:10243000000E906F000E0001916F020E0001926F6E
:10244000A7EC84F06A0E00016F6F010E0001706F3F
:1024500004ECAEF0000E0001A96F000EA86F0001A1
:10246000A95113E1080E0001A85DD8B01200300E8A
:102470000001A825D96E010E0001A921DA6E000E17
:10248000DF6E0001A84BA92BEAD712000001766F7E
:10249000000176510001D8B41ED0000171AF1BD0ED
:1024A0006EC072F06FC073F070C074F071C075F0E0
:1024B0000001721F731F741F751F722B000E732390
:1024C0007423752372C078F073C079F074C07AF009
:1024D00075C07BF008D06EC078F06FC079F070C026
:1024E0007AF071C07BF000016E5100016F110001A4
:1024F000701100017111D8A40AD0000E00016E6F96
:10250000000E6F6F000E706F000E716F1200960E4E
:102510000001776F08D00001772B0001D8907B3342
:102520007A3379337833000E000178150001726F29
:10253000000E000179150001736F000E00017A157D
:102540000001746FFE0E00017B150001756F000124
:102550007251000173110001741100017511D8B49A
:1025600010D0D9D70001772B010E00017827000E7B
:1025700079237A237B230001D8907B337A33793314
:102580007833000E000178150001726F000E000113
:1025900079150001736F000E00017A150001746F48
:1025A000FF0E00017B150001756F000172510001E3
:1025B00073110001741100017511D8B409D0D2D77C
:1025C000000177070001D890783779377A377B3761
:1025D00000017ABF04D0020E00017761F1D700013B
:1025E00077B109D0FF0E00017817FF0E79177F0E23
:1025F0007A17FF0E7B170001D890773377C072F0FF
:102600000001736B746B756B72C075F00001746BB5
:10261000736B726B000172510001781300017351EA
:10262000000179130001745100017A130001755102
:1026300000017B13000176510001D8B405D00001E0
:1026400071AF02D000017B8F78C06EF079C06FF05F
:102650007AC070F07BC071F0120086C0D9FF87C0CD
:10266000DAFFDECF8BF0DDCF8CF0050E00018A6F34
:10267000B5D0000120EE02F08651D9268751DA222A
:10268000DECF60F0DDCF61F088C062F0010E0001A6
:10269000636FEDECAFF0B0D08BC06FF08CC070F01A
:1026A000010E0001716F88C072F025ECACF00001E2
:1026B0008A6F00018A51D8A41200000120EE02F0B6
:1026C0008651D9268751DA22DECF60F0DDCF61F066
:1026D00088C062F0000E0001636FEDECAFF0000106
:1026E00020EE04F08651D9268751DA22DECF60F041
:1026F000DDCF61F088C062F0000E0001636FEDEC89
:10270000AFF07AD08BC06FF08CC070F0020E000179
:10271000716F88C072F025ECACF000018A6F000187
:102720008A51D8A41200000120EE02F08651D92669
:102730008751DA22DECF60F0DDCF61F088C062F031
:10274000010E0001636FEDECAFF0000120EE04F02C
:102750008651D9268751DA22DECF60F0DDCF61F0D5
:1027600088C062F0010E0001636FEDECAFF044D061
:102770008BC06FF08CC070F0000E0001716F88C0CC
:1027800072F025ECACF000018A6F00018A51D8A4E8
:102790001200000120EE02F08651D9268751DA227C
:1027A000DECF60F0DDCF61F088C062F0000E000186
:1027B000636FEDECAFF0000120EE04F08651D926F6
:1027C0008751DA22DECF60F0DDCF61F088C062F0A1
:1027D000000E0001636FEDECAFF00ED000018951E7
:1027E000000AD8B446D7010AD8B456D7030AD8B4D9
:1027F00089D7010AD8B4BCD7080E0001862500018C
:102800006F6F000E000187210001706F88C071F0AA
:1028100089C072F0ADECB2F01200000E0001E86F5A
:10282000000EE96F000EEA6F000EEB6FDFECB6F002
:10283000E8C0A7F0E9C0A8F0EAC0A9F0EBC0AAF090
:10284000D80E0001956F010E0001966FF8ECA0F014
:1028500095C0ABF096C0ACF097C0ADF098C0AEF0AC
:1028600000EC80F0A7C0E8F0A8C0E9F0A9C0EAF049
:10287000AAC0EBF0DFECB6F0E8C0A7F0E9C0A8F022
:10288000EAC0A9F0EBC0AAF0D80E0001956F010EC6
:102890000001966FF8ECA0F095C0ABF096C0ACF0DC
:1028A00097C0ADF098C0AEF000EC80F0A7C0E8F0A3
:1028B000A8C0E9F0A9C0EAF0AAC0EBF0DFECB6F0DE
:1028C000E8C0A7F0E9C0A8F0EAC0A9F0EBC0AAF000
:1028D000D80E0001956F010E0001966FF8ECA0F084
:1028E00095C0ABF096C0ACF097C0ADF098C0AEF01C
:1028F00000EC80F0A7C0E8F0A8C0E9F0A9C0EAF0B9
:10290000AAC0EBF0DFECB6F0E8C0A7F0E9C0A8F091
:10291000EAC0A9F0EBC0AAF0D80E0001956F010E35
:102920000001966FF8ECA0F095C0ABF096C0ACF04B
:1029300097C0ADF098C0AEF000EC80F0A7C0E8F012
:10294000A8C0E9F0A9C0EAF0AAC0EBF0DFECB6F04D
:10295000E8C0A7F0E9C0A8F0EAC0A9F0EBC0AAF06F
:10296000D80E0001956F010E0001966FF8ECA0F0F3
:1029700095C0ABF096C0ACF097C0ADF098C0AEF08B
:1029800000EC80F0A7C0E8F0A8C0E9F0A9C0EAF028
:10299000AAC0EBF0E8C060F0E9C061F0EAC062F004
:1029A000EBC063F0000E0001646F000E656FA00EB7
:1029B000666F400E676FB6EC86F060C0E8F061C0ED
:1029C000E9F062C0EAF063C0EBF012000001796F39
:1029D000AFD059ECA9F01200AFECB0F01200D2EC7D
:1029E000AAF01200D4ECA3F01200BAECAFF012007F
:1029F00030ECB6F0120079C076F07F0E0001761749
:102A00000001FA51140D8F0E0001776F020E0001C4
:102A1000786FF35000017727F4500001782300010C
:102A2000FB51010DF35000017725D96EF4500001E0
:102A30007821DA6EDF507F0B00017619D8B42DD0E3
:102A4000010E4D6E0001FA51140D8F0E0001766FCC
:102A5000020E0001776FF35000017627F450000159
:102A600077230001FB51010DF35000017625D96E4B
:102A7000F45000017721DA6E000179518009DF6E90
:102A80000001FA51020D000EF324D96E020EF4205B
:102A9000DA6EF5C1DEFFF6C1DDFFBAECAFF000097A
:102AA000D8B4120079C076F07F0E000176170001CD
:102AB000FA51140D8F0E0001776F020E0001786F2E
:102AC000F35000017727F450000178230001FB51F7
:102AD000010DF35000017725D96EF45000017821E3
:102AE000DA6EDF507F0B00017619D8B41200010EA8
:102AF0004D6E0001FA51140D8F0E0001766F020E1B
:102B00000001776FF35000017627F450000177231E
:102B10000001FB51010DF35000017625D96EF450F0
:102B200000017721DA6E000179518009DF6E120011
:102B300000017951070AD8B458D70F0AD8B44CD736
:102B4000010AD8B44FD7030AD8B443D7060AD8B479
:102B500046D7010AD8B43DD72D0AD8B44CD7030ABA
:102B6000D8B446D748D70001A25110ECA8F0A0C0B5
:102B7000D9FFA1C0DAFF000160C0DEFF000161C023
:102B8000DDFF0001A25163ECA8F0000120EE06F089
:102B9000A051D926A151DA22000160C0DEFF000158
:102BA00061C0DDFF0001A25163ECA8F0000120EE3E
:102BB00004F0A051D926A151DA22000160C0DEFF45
:102BC000000161C0DDFF0001A251BDECA7F00001D2
:102BD00020EE02F0A051D926A151DA22000160C0F6
:102BE000DEFF000161C0DDFF000120EE04F0A05116
:102BF000D926A151DA22DECFA3F0DDCFA4F0A3C005
:102C0000D9FFA4C0DAFF000EDF6E000120EE02F053
:102C1000A051D926A151DA22DECFA3F0DDCFA4F056
:102C2000A3C0D9FFA4C0DAFFFF0EDF6EA0C09AF0E8
:102C3000A1C09BF0000E00019C6F2DEC8EF0000EE9
:102C40000001A56F070E0001A56531D04BD0A0C0D3
:102C500086F0A1C087F0A5C088F0030E0001896F3F
:102C60002DEC93F03CD0A0C086F0A1C087F0A5C0A9
:102C700088F0020E0001896F2DEC93F030D0A0C0D7
:102C800086F0A1C087F0A5C088F0010E0001896F11
:102C90002DEC93F024D0A0C086F0A1C087F0A5C091
:102CA00088F0000E0001896F2DEC93F018D0A0C0C1
:102CB000D9FFA1C0DAFFDECF6CF0DDCF6DF0A5C08B
:102CC0006EF093ECB3F0000AD8B4C1D7010AD8B4BF
:102CD000D6D7030AD8B4C7D7010AD8B4DCD70001C5
:102CE000A52BB0D7A0C06FF0A1C070F0000E0001FE
:102CF000716F96EC88F012007D0E0001826F000E5D
:102D00000001836FB1D0250E00018619D8B405D01B
:102D100000018651FFECB6F0A7D0000E0001806FD5
:102D200011D082C0D9FF83C0DAFFDF500001866F67
:102D3000020E00018227000E832300018651FFEC62
:102D4000B6F092D07BC0F6FF7CC0F7FF00017B4B52
:102D50007C2B000EF86E0800F5CF86F0000186513E
:102D6000000AD8B41200630AD8B4DBD7070AD8B473
:102D700003D00D0AD8A4E1D782C0D9FF83C0DAFFFF
:102D8000DECF84F0DDCF85F0020E00018227000E39
:102D90008323000185AF08D0030E000180130001DA
:102DA000846D851FD8B0852B010E0001866F050E3E
:102DB00000018619D8B419D000018651020DB50E54
:102DC000F324F66EFC0EF420F76EF86A000EF8227B
:102DD0000900F5500001845D0900F5500001855996
:102DE000D8A003D00001862BE2D780C07FF0030E6D
:102DF00000017F17D8B403D02D0EFFECB6F086C0CB
:102E000081F02CD000018151020DB50EF324F66E35
:102E1000FC0EF420F76EF86A000EF8220900F5CFD8
:102E200062F00A00F5CF63F084C060F085C061F005
:102E300019ECADF060C067F061C068F0000E0001F1
:102E40006A6F0A0E696F50ECB0F000016751300FE5
:102E50000001866F00018651FFECB6F0000181078A
:102E600000018129D8A4CED77BC0F6FF7CC0F7FF34
:102E700000017B4B7C2B000EF86E0800F5CF86F02E
:102E800000018651D8B412003ED7000E0001601533
:102E90000001686F000E000161150001696F800E6E
:102EA0000001621500016A6F7F0E000163150001C9
:102EB0006B6F000168510001691100016A11000186
:102EC0006B11D8A409D0000E0001606F000E616F75
:102ED000000E626F000E636F000E000164150001AA
:102EE000686F000E000165150001696F800E00011A
:102EF000661500016A6F7F0E0001671500016B6F98
:102F0000000168510001691100016A1100016B1193
:102F1000D8A409D0000E0001646F000E656F000E8A
:102F2000666F000E676F000163AF26D060C068F067
:102F300061C069F062C06AF063C06BF00001681F95
:102F4000691F6A1F6B1F682B000E69236A236B239E
:102F5000000E000168250001606F000E000169216C
:102F60000001616F000E00016A210001626F800E96
:102F700000016B210001636F000167AF26D064C0C0
:102F800068F065C069F066C06AF067C06BF0000168
:102F9000681F691F6A1F6B1F682B000E69236A2355
:102FA0006B23000E000168250001646F000E000114
:102FB00069210001656F000E00016A210001666F42
:102FC000800E00016B210001676F000E0001601B85
:102FD000000E611B000E621B800E631B000E0001C1
:102FE000641B000E651B000E661B800E671B000134
:102FF00064510001605D00016551000161590001EB
:103000006651000162590001675100016359D8B04F
:1030100002D0D8901200D88012000001CEAF0FD09D
:10302000000E01011B6F210E1A6F000E0001CB6F05
:10303000000ECC6F000ECD6F000ECE6F120000019F
:10304000CB510001CC110001CD110001CE11D8A44B
:103050000FD0000E01011B6F220E1A6F000E00012F
:10306000CB6F000ECC6F000ECD6F000ECE6F120036
:10307000000E0001806F000E816F000E826F400E07
:10308000836FCF0E0001646F000E0001656FCBC02F
:1030900060F0CCC061F0CDC062F0CEC063F0AEECA9
:1030A000A5F060C07CF061C07DF062C07EF063C0BE
:1030B0007FF054EC82F07CC0A7F07DC0A8F07EC009
:1030C000A9F07FC0AAF0000E0001AB6F000EAC6F3C
:1030D000800EAD6FBF0EAE6F00EC80F0A7C0CBF0DE
:1030E000A8C0CCF0A9C0CDF0AAC0CEF00001CF0797
:1030F000D8A0D007CBC0BBF0CCC0BCF0CDC0BDF0D9
:10310000CEC0BEF0D70E0001BF6FFE0E0001C06F33
:10311000000E0001C26F080EC16F66EC9FF0BBC0CD
:10312000CBF0BCC0CCF0BDC0CDF0BEC0CEF0180E10
:103130000001806F720E816F310E826F3F0E836FC0
:10314000CFC06EF0D0C06FF00001000E6FBFFF0E59
:10315000706F716F010E46EC92F06EC07CF06FC024
:103160007DF070C07EF071C07FF054EC82F07CC0C6
:10317000A7F07DC0A8F07EC0A9F07FC0AAF0CBC0A8
:10318000ABF0CCC0ACF0CDC0ADF0CEC0AEF000EC3A
:1031900080F0A7C0CBF0A8C0CCF0A9C0CDF0AAC0E9
:1031A000CEF0120086ECAFF064ECA6F081ECB0F04B
:1031B000010E74ECB3F00009D8B484D0FC0E000109
:1031C0007B6FFF0E00017C6F000E00017E6F230EEF
:1031D0007D6F7CEC96F0D5ECB5F0F80E0001616FD8
:1031E000000E606F29ECB7F00CD035ECA4F01ED0C7
:1031F000DDECACF01BD0D5EC9EF018D014ECB3F0A5
:1032000015D028C1E6F029C1E7F00001E751000A16
:10321000D8A4F4D70001E651010AD8B4E6D7030ACE
:10322000D8B4E6D7010AD8B4E6D7E8D742EC8FF095
:10323000CD0E0001E26FCC0EE36F8C0EE46FBF0E7B
:10324000E56FE8C0DEF0E9C0DFF0EAC0E0F0EBC017
:10325000E1F049EC90F0DEC0F9F1DFC0FAF1E0C036
:10326000FBF1E1C0FCF1000E0001806F000E816FE8
:103270007C0E826F420E836FF9C17CF0FAC17DF043
:10328000FBC17EF0FCC17FF054EC82F07CC0BBF04F
:103290007DC0BCF07EC0BDF07FC0BEF0F2EC9FF000
:1032A000BBC024F1BCC025F124C176F025C177F064
:1032B0003EECB5F0D1ECB3F04EECB6F00009D8A47A
:1032C00055ECB3F0080E74ECB3F00009D8A40DD09F
:1032D0006BD77CECB5F020D0AFECB4F01DD0A1ECF6
:1032E000ACF01AD00DECA3F017D028C1E6F029C13C
:1032F000E7F00001E751000AD8A40ED00001E65122
:10330000000AD8B4E6D7010AD8B4E6D7030AD8B47D
:10331000E6D7010AD8B4E6D74EECB6F00009D8B427
:1033200043D755ECB3F040D7010E4C6E000E0001B0
:10333000EC6F000E0001ED6F000E0001EE6F780ED5
:103340000001A06F020E0001A16F000E0001A26F2C
:10335000B3EC95F09E0E0001A06F010E0001A16F6D
:10336000010E0001A26FB3EC95F0A80E0001A06F52
:10337000010E0001A16F020E0001A26FB3EC95F0E7
:10338000940E0001A06F010E0001A16F030E000159
:10339000A26FB3EC95F08A0E0001A06F010E000140
:1033A000A16F040E0001A26FB3EC95F0B20E000104
:1033B000A06F010E0001A16F050E0001A26FB3EC1A
:1033C00095F0800E0001A06F010E0001A16F060EA6
:1033D0000001A26FB3EC95F0B20E0001866F010EF2
:1033E0000001876F050E0001886F000E0001896FD4
:1033F0002DEC93F09E0E0001966F010E0001976F69
:10340000000E0001986F000E0001996F02EC8DF024
:10341000B20E0001866F010E0001876F060E0001DB
:10342000886F030E0001896F2DEC93F0800E000170
:103430009A6F010E00019B6F030E00019C6F2DEC33
:103440008EF0800E00016F6F010E0001706F040E90
:103450000001716F000E0001726F72ECA3F0B20EEA
:1034600000016F6F010E0001706F060E0001716F99
:10347000010E0001726F72ECA3F0000E1FECB0F0B1
:10348000010E1FECB0F0000E9E6E000EA16E000E3D
:10349000A46E9B8E9B8C000E0001616F640E606FAA
:1034A0001CECAFF0D08E120078ECAEF0000E0001F4
:1034B000986F000E976F0001985106E1590E0001B8
:1034C000975DD8B08BD001D089D0D89000019735C6
:1034D000F66E00019835F76EE30EF626FB0EF72226
:1034E000F86A000EF8220900800EF5180900F510A0
:1034F000D8A422D0000198511FE1580E0001975D19
:10350000D8B01AD00001974B982BD890000197356E
:10351000F66E00019835F76EE30EF626FB0EF722E5
:10352000F86A000EF8220900F5CF60F00A00F5CF26
:1035300061F01CECAFF04BD0D89000019735F66EDF
:1035400000019835F76EE30EF626FB0EF722F86AB7
:10355000000EF8220900000EF55E0900010EF55A72
:10356000D8A020D0000E0001636FD89000019735DD
:10357000F66E00019835F76EE30EF626FB0EF72285
:10358000F86A000EF8220900F5CF95F00900F5CF92
:1035900096F096C095F00001966B00019551C4EC31
:1035A000B5F015D0010E0001636FD890000197357A
:1035B000F66E00019835F76EE30EF626FB0EF72245
:1035C000F86A000EF8220800F550C4ECB5F00001CE
:1035D000974B982B0001985101E170D7000E000124
:1035E000616F640E606F1CECAFF0000E0001636F42
:1035F000290EC4ECB5F0010EF7ECA9F0000E0001A5
:10360000616F640E606F1CECAFF0000E00016A6F1A
:10361000000E696F0AECB1F01200000120EE07F015
:103620007B51D9267C51DA2201D80AD00500FA6EE6
:10363000DE50FD6EDE50FE6EDE50FF6EFA50120060
:103640000001836F7BC0D9FF7CC0DAFF000183518A
:10365000DE18D8A421D0000120EE01F07B51D9263C
:103660007C51DA2200017D51DE5CD8B00AD0000125
:1036700020EE01F07B51D9267C51DA22000EDF6E5C
:103680001200000120EE01F07B51D9267C51DA2294
:1036900000017D51DF5E1200000120EE01F07B5140
:1036A000D9267C51DA22DF5000017E6F7F6B00014A
:1036B0007D5100017E27000E7F23000120EE01F0E6
:1036C0007B51D9267C51DA22DF500001806F816B5B
:1036D00000017E510001805D00018151800A0001DE
:1036E000826F00017F51800A00018259D8B0120018
:1036F000000120EE01F07B51D9267C51DA22000135
:103700007D51DF26000120EE02F07B51D9267C514D
:10371000DA22000110EE01F07B51E1267C51E22219
:10372000E7500001806F816BDE500001805DDE504C
:1037300000018159D8A012007BC0D9FF7CC0DAFFFC
:1037400083C0DFFF000120EE01F07B51D9267C51C0
:10375000DA22000EDF6E000120EE04F07B51D92644
:103760007C51DA2201D812000500FA6EDE50FD6E9F
:10377000DE50FE6EDE50FF6EFA50000183511200E3
:10378000000E0001766F6C0E776FDC0E786F020E04
:10379000796F0001D8906D376E376F377037020E32
:1037A0000001716FD8900001793378337733763325
:1037B0000001712FF7D776C060F077C061F078C054
:1037C00062F079C063F06DC064F06EC065F06FC0E8
:1037D00066F070C067F0F3ECA4F060C07AF061C0EE
:1037E0007BF062C07CF063C07DF010D0000E000161
:1037F000726F000E736F000E746F000E756F000114
:10380000F82B020E0001F86501D026D07AC060F0D6
:103810007BC061F07CC062F07DC063F00001F851B4
:10382000010DCC0EF324F66EFC0EF420F76EF86A50
:10383000000EF8220800F5500001646F656B666B9E
:10384000676BF3ECA4F00001635100016211CEE15B
:1038500000016105D8B0CAD7CA500001F819FC0BA5
:10386000F819CA6ECA8433ECB7F00001F851010DA3
:10387000CC0EF324F66EFC0EF420F76EF86A000E00
:10388000F8220800F5CF3BF0FF0E00017A25010178
:10389000006FFF0E00017B210101016FFF0E00018F
:1038A0007C210101026FFF0E00017D210101036FE8
:1038B00000C160F001C161F002C162F003C163F0B8
:1038C0003B500001646F656B666B676BF3ECA4F0B3
:1038D000000160510001F86FF8C0CBFF1200800EAC
:1038E0000001736F8D0E746F5B0E756F000E766F37
:1038F000D59E00016D5100016E1100016F11000194
:103900007011D8B41200D596D59CD59AD59873C0AD
:1039100060F074C061F075C062F076C063F06DC095
:1039200064F06EC065F06FC066F070C067F0F3ECD5
:10393000A4F060C077F061C078F062C079F063C035
:103940007AF00CD00001F92B020E0001F96501D0CC
:103950002FD0070E0001F96501D0120077C060F08A
:1039600078C061F079C062F07AC063F00001F9516B
:10397000020D950EF324F66EFC0EF420F76EF86A35
:10398000000EF8220900F5CF71F00900F5CF72F0B2
:1039900071C064F072C065F00001666B676BF3EC98
:1039A000A4F000016351CEE100016205D8B0CAD78E
:1039B0000001F951020D950EF324F66EFC0EF42071
:1039C000F76EF86A000EF8220800F5CF3CF0FF0E03
:1039D000000177250101046FFF0E0001782101012C
:1039E000056FFF0E000179210101066FFF0E000136
:1039F0007A210101076F04C160F005C161F006C1C1
:103A000062F007C163F03C500001646F656B666B48
:103A1000676BF3ECA4F00001601F0001611F00015F
:103A2000604B612BFF0E00016025336EFF0E00011D
:103A30006121346E13ECB7F0D58E120051B278EFDD
:103A4000A0F0000120EE04F0F151D926F251DA2263
:103A5000DF50F3ECB2F00009D8B47AD0F1C0D9FF4E
:103A6000F2C0DAFFDE50DE10D8B46DD0F1C0D9FF5D
:103A7000F2C0DAFF010EDBBE26D0010EDB5003E1FF
:103A8000DE04D8A020D0F1C0D9FFF2C0DAFFDE28D2
:103A900004E17F0EDE18D8B407D0F1C0D9FFF2C020
:103AA000DAFFDE06000EDD5A8A0E00016F6F010E8E
:103AB0000001706F000E0001716F010E0001726F46
:103AC00072ECA3F01FD0F1C0D9FFF2C0DAFFDE0420
:103AD00004E1800EDE18D8B407D0F1C0D9FFF2C0DF
:103AE000DAFFDE2A000EDD228A0E00016F6F010E62
:103AF0000001706F000E0001716F000E0001726F07
:103B000072ECA3F08A0E00016F6F010E0001706F5E
:103B1000010E0001716F010E0001726F72ECA3F0D3
:103B20008A0E00016F6F010E0001706F010E00011F
:103B3000716F000E0001726F72ECA3F04EECB6F0E4
:103B40000DECB7F012004EECB6F03EECB7F0120000
:103B50000BC160F00CC161F00DC162F0F8ECB6F081
:103B600012000001CB510001CC110001CD11000168
:103B7000CE11D8A40AD0000E0001CB6F000ECC6F7E
:103B8000000ECD6F000ECE6F12000001CE517F0BE4
:103B90000001D16FD26BD8900001D137D23700012C
:103BA000D1510001CF270001D2510001D0230001E3
:103BB000CDAF04D00001D16BD12B02D00001D16B6D
:103BC0000001D1510001CF27000ED0230001D0AF5A
:103BD0000FD0000E01011B6F220E1A6F000E0001A4
:103BE000CB6F000ECC6F000ECD6F000ECE6F1200AB
:103BF0000001D0BF1ED00001D005D8A01AD0000E01
:103C000001011B6F220E1A6F0001CEAF09D0FF0E0B
:103C10000001CB6FFF0ECC6F7F0ECD6FFF0EE6D78E
:103C2000FF0E0001CB6FFF0ECC6F7F0ECD6F7F0EAE
:103C3000DDD70001D035D0310001D26F0001CF3186
:103C40000001D16F0001CE510001D119800BD119B3
:103C50000001CE6FCFC0D1F0010E0001D1170001DD
:103C6000D133D1330001CD510001D1197F0BD119CE
:103C70000001CD6FCBC0CBF0CCC0CCF0CDC0CDF02F
:103C8000CEC0CEF01200C5C060F0C6C061F0C7C0A3
:103C900062F0C8C063F0CD0E0001646F000E000139
:103CA000656FAEECA5F00001CEAF17D00001C8AF34
:103CB0000AD0000E0001C56F000EC66F800EC76FE0
:103CC000BF0EC86F1200000E0001C56F000EC66F58
:103CD000000EC76F000EC86F12000001CE5105E143
:103CE0001D0E0001CD5DD8A009D0C5C0C5F0C6C06D
:103CF000C6F0C7C0C7F0C8C0C8F01200C5C0BBF04E
:103D0000C6C0BCF0C7C0BDF0C8C0BEF0F2EC9FF0AA
:103D1000BBC06EF0BCC06FF0BDC070F0BEC071F033
:103D2000010E46EC92F06EC0C9F06FC0CAF070C0D0
:103D3000CBF071C0CCF0C5C060F0C6C061F0C7C0A8
:103D400062F0C8C063F0C9C064F0CAC065F0CBC0FF
:103D500066F0CCC067F045EC97F00001D8B01CD0FD
:103D6000C9C0A7F0CAC0A8F0CBC0A9F0CCC0AAF0C7
:103D7000000E0001AB6F000EAC6F800EAD6FBF0E7A
:103D8000AE6F00EC80F0A7C0C5F0A8C0C6F0A9C017
:103D9000C7F0AAC0C8F01200C9C0C5F0CAC0C6F0BA
:103DA000CBC0C7F0CCC0C8F01200000E0001696F94
:103DB000640E686FEF0E010124250001606FFF0E95
:103DC000010125210001616F000E0001636FC80E23
:103DD000626F46ECB4F060C066F061C067F094ECCE
:103DE000A4F0000166C06EF0000167C06FF0000132
:103DF000000E6FBFFF0E706F716F010E46EC92F0F8
:103E00006EC029F06FC02AF070C02BF071C02CF08A
:103E100029C060F02AC061F02BC062F02CC063F0B2
:103E2000000E0001646F000E656F340E666F430E66
:103E3000676F45EC97F00001D8A008D0000E296EFE
:103E4000000E2A6E480E2B6E430E2C6E2CAE08D040
:103E5000000E296E000E2A6E480E2B6E430E2C6E3D
:103E6000290E00017B6FFF0E00017C6F7CEC96F049
:103E7000660E0001806F660E816FE60E826F3F0E48
:103E8000836F29C07CF02AC07DF02BC07EF02CC04F
:103E90007FF054EC82F07CC0BBF07DC0BCF07EC0F3
:103EA000BDF07FC0BEF0F2EC9FF0BBC0C5F0BCC05F
:103EB000C6F0C10E00017B6FFF0E00017C6FC5C014
:103EC0007DF0C6C07EF07CEC96F01200C1C0C3F05D
:103ED000C2C0C4F00001D890C337C4370001D890E5
:103EE000C337C437BFC0C5F0C0C0C6F00001C3515E
:103EF0000001C5270001C4510001C623C5C0F6FF5B
:103F0000C6C0F7FF000EF86E0900F5CFC7F0090034
:103F1000F5CFC8F00900F5CFC9F00A00F5CFCAF017
:103F200052D0C7C080F0C8C081F0C9C082F0CAC0FA
:103F300083F0BBC07CF0BCC07DF0BDC07EF0BEC0D5
:103F40007FF054EC82F07CC0A7F07DC0A8F07EC06A
:103F5000A9F07FC0AAF00001C107D8A0C207C1C064
:103F6000C3F0C2C0C4F00001D890C337C437000109
:103F7000D890C337C437BFC0C5F0C0C0C6F0000179
:103F8000C3510001C5270001C4510001C623C5C0AB
:103F9000F6FFC6C0F7FF000EF86E0900F5CFABF0D4
:103FA0000900F5CFACF00900F5CFADF00A00F5CF70
:103FB000AEF000EC80F0A7C0C7F0A8C0C8F0A9C060
:103FC000C9F0AAC0CAF00001C1510001C211D8A4B1
:103FD000A8D7C7C0BBF0C8C0BCF0C9C0BDF0CAC03C
:103FE000BEF012000001BD35BE350001C46F0001F6
:103FF000C451D8A40AD0000E0001BB6F000EBC6FE4
:10400000000EBD6F000EBE6F1200BBC0BFF0BCC083
:10401000C0F0BDC0C1F0BEC0C2F0200E06D000018D
:10402000D890C233C133C033BF33E82EF8D7000174
:10403000BF510001C36F0001BD8FFF0E0001BB1710
:10404000FF0EBC17FF0EBD17000EBE17960E000127
:10405000C45F0001C4AF1AD00001C451800A970F99
:10406000D8B00AD0000E0001BB6F000EBC6F000E6E
:10407000BD6F000EBE6F12000001D890BE33BD337D
:10408000BC33BB330001C43FF7D71BD01F0E000168
:10409000C46512D0000E0001BB6F000EBC6F000E95
:1040A000BD6F000EBE6F12000001D890BB37BC3749
:1040B000BD37BE370001C4070001C4510001D8A4B8
:1040C000F3D70001C3510001D8B409D00001BE1FCD
:1040D000BD1FBC1FBB6D000EBC23BD23BE23BBC0D8
:1040E000BBF0BCC0BCF0BDC0BDF0BEC0BEF0120095
:1040F000000120EE04F0F151D926F251DA22DF500E
:1041000061ECB4F00009D8B46AD0F1C0D9FFF2C0B4
:10411000DAFFDE50DE10D8B45DD0F1C0D9FFF2C0B6
:10412000DAFF010EDBBE22D0010EDB5003E1DE041C
:10413000D8A01CD0F1C0D9FFF2C0DAFFDE2804E11C
:104140007F0EDE18D8B407D0F1C0D9FFF2C0DAFF75
:10415000DE06000EDD5A8A0E106E010E116E000E84
:10416000126E010E136E68ECA7F01BD0F1C0D9FFE0
:10417000F2C0DAFFDE0404E1800EDE18D8B407D006
:10418000F1C0D9FFF2C0DAFFDE2A000EDD228A0E6E
:10419000106E010E116E000E126E000E136E68ECA2
:1041A000A7F08A0E106E010E116E010E126E010E36
:1041B000136E68ECA7F08A0E106E010E116E010EE0
:1041C000126E000E136E68ECA7F04AECB7F019EC13
:1041D000B7F012004AECB7F047ECB7F012000BC191
:1041E00001F00CC102F00DC103F006ECB7F01200B3
:1041F000000E00019B6F000E9C6F800E9D6F440EA1
:104200009E6F330E00019F6F330EA06F530EA16F90
:10421000400EA26F000120EE01F09551D926965173
:10422000DA22DECF99F0DDCF9AF099C06EF09AC015
:104230006FF00001706B716B000E46EC92F06EC077
:10424000A3F06FC0A4F070C0A5F071C0A6F0A3C029
:1042500060F0A4C061F0A5C062F0A6C063F09BC08E
:1042600064F09CC065F09DC066F09EC067F0B6EC3F
:1042700086F060C0A3F061C0A4F062C0A5F063C086
:10428000A6F0A3C07CF0A4C07DF0A5C07EF0A6C0BF
:104290007FF09FC080F0A0C081F0A1C082F0A2C0DA
:1042A00083F054EC82F07CC0A3F07DC0A4F07EC00B
:1042B000A5F07FC0A6F0A3C095F0A4C096F0A5C05D
:1042C00097F0A6C098F012006CC074F06DC075F045
:1042D000000E0001736F000E726F6EC070F06FC041
:1042E00071F00001745100017511D8A434D070C070
:1042F000D9FF71C0DAFF300EDF6E000E0001736F60
:10430000010E726F40D074C067F075C068F0000E87
:1043100000016A6F0A0E696F50ECB0F0000167513E
:10432000300F70C0D9FF71C0DAFFDF6E74C060F06B
:1043300075C061F0000E0001636F0A0E626F19EC28
:10434000ADF060C074F061C075F00001724B732B6A
:104350000001704B712B0001745100017511D8B42C
:1043600008D00001735105E1060E0001725DD8A06E
:10437000CAD76EC060F06FC061F072C062F073C0E7
:1043800063F0B0ECAEF00001725100016E25D96E01
:104390000001735100016F21DA6E000EDF6E120012
:1043A0008DC0D9FF8EC0DAFF000EDE6E000EDD6E0E
:1043B000000120EE02F08D51D9268E51DA22000E36
:1043C000DE6E000EDD6E000120EE04F08D51D92668
:1043D0008E51DA228FC0DEFF90C0DDFF8A0E000111
:1043E000866F010E0001876F000E0001886F030EBB
:1043F0000001896F2DEC93F08A0E0001866F010E8B
:104400000001876F010E0001886F030E0001896FA4
:104410002DEC93F08A0E00016F6F010E0001706F9A
:10442000000E0001716F000E0001726F72ECA3F0BC
:104430008A0E00016F6F010E0001706F010E000106
:10444000716F000E0001726F72ECA3F03C0E01015F
:104450000B6F3A0E01010C6F010E01010D6FE80E9A
:1044600000016D6F030E6E6F000E6F6F000E706FA8
:104470006FEC9CF0120000019B5100019C11D8B41C
:10448000120000019F510001A0110001A111D8B438
:1044900012000001A2510001A3110001A411D8B41F
:1044A00012000001A5510001A6110001A711D8B406
:1044B000120000019D5100019E11D8A405D0000EEC
:1044C00000019E6F010E9D6F9BC0D9FF9CC0DAFF5B
:1044D000000EDF6E000120EE01F09B51D9269C51A9
:1044E000DA22000EDF6E000120EE02F09B51D92689
:1044F0009C51DA229DC0DEFF9EC0DDFF000120EE50
:1045000004F09B51D9269C51DA22A5C0DEFFA6C03B
:10451000DEFFA7C0DEFF000120EE07F09B51D92689
:104520009C51DA22A2C0DEFFA3C0DEFFA4C0DEFFE2
:1045300001D812000500FA6E00019F51FD6EA051D6
:10454000FE6EA151FF6EFA50120000016B6F200E3B
:1045500000016B5F00016B51050DF3CF69F0F4CFE3
:104560006AF0CF0E0001692500016C6FFC0E00019E
:104570006A2100016D6F000E0001706F040E0001D2
:10458000706501D043D0000E0001716F060E00016E
:10459000716501D035D06CC060F06DC061F071C044
:1045A00062F07CECB4F00009D8A405D037C06EF0FE
:1045B00038C06FF004D0F5C16EF0F6C16FF00001A5
:1045C00071510A0D1E0E0001676F020E0001686F27
:1045D000F35000016727F450000168230001705177
:1045E000020DF35000016725D96EF45000016821D7
:1045F000DA6E6EC0DEFF6FC0DDFF0001712BC6D723
:1046000000016C4B6D2B0001702BB8D71E0E000102
:10461000656F020E0001666F120029C0ABF02AC060
:10462000ACF02BC0ADF02CC0AEF0F1C16EF0F2C119
:104630006FF00001000E6FBFFF0E706F716F010E03
:1046400046EC92F06EC07CF06FC07DF070C07EF0E2
:1046500071C07FF02AECB4F07CC0A7F07DC0A8F058
:104660007EC0A9F07FC0AAF000EC80F0A7C0BBF02C
:10467000A8C0BCF0A9C0BDF0AAC0BEF0F2EC9FF08B
:10468000BBC022F1BCC023F10101C3510101C4111F
:10469000D8A41200C30E00017B6F010E00017C6FD5
:1046A000000E00017E6FC80E7D6F53ECB5F0C30E97
:1046B0000001636F010E0001646F22C165F023C128
:1046C00066F00DECB4F029C0BBF02AC0BCF02BC0E2
:1046D000BDF02CC0BEF0F2EC9FF0BBC0F1F1BCC04D
:1046E000F2F11200080E00016F2500016C6F000E40
:1046F0000001702100016D6F71C06EF093ECB3F09A
:104700000001736F42D0010E00017217000120EE0C
:1047100002F06F51D9267051DA22DECF60F0DDCF82
:1047200061F071C062F072C063F0EDECAFF01200A6
:10473000010E00017217010E0001721B000120EE34
:1047400002F06F51D9267051DA22DECF60F0DDCF52
:1047500061F071C062F072C063F0EDECAFF0120076
:10476000010E00017217000120EE04F06F51D926EE
:104770007051DA22DECF60F0DDCF61F071C062F0FF
:1047800072C063F0EDECAFF0120000017351000A4B
:10479000D8B41200010AD8B4B6D7030AD8B4C8D71F
:1047A000010AD8A41200DCD7000E0001746FFA0EC3
:1047B00048240001666FFF0E49200001676F000E5C
:1047C0000001696F060E686F94ECA4F00001665159
:1047D0000001756F75C066F00001676B000E000187
:1047E000696F040E686F94ECA4F00001665100013B
:1047F000736F000E0001746F06D0B2ECB3F0BAEC28
:10480000AFF00001742B00017351040DF31EF41E70
:10481000F34AF42A0001755100016E6F6F6BF3507B
:1048200000016E27F45000016F2300016E1F6F1FFF
:104830006E4B6F2B040E00016E27000E6F230001DC
