:0414000045EF0AF0BA
:101408004982FACF17F0FBCF18F0E9CF19F0EACFED
:101418001AF0E1CF1BF0E2CF1CF0D9CF1DF0DACFE4
:101428001EF0F3CF1FF0F4CF20F0F6CF21F0F7CF66
:1014380022F0F8CF23F0F5CF24F0F292F2B4F2AA1A
:1014480002D079EC8DF024C0F5FF23C0F8FF22C04C
:10145800F7FF21C0F6FF20C0F4FF1FC0F3FF1EC036
:10146800DAFF1DC0D9FF1CC0E2FF1BC0E1FF1AC094
:10147800EAFF19C0E9FF18C0FBFF17C0FAFF49923D
:0614880011009FEF89F046
:10FD2E0000001180002C0100B102003500360000E9
:10FD3E00B202003500360000B30200350036000274
:10FD4E00003500360000B4000000C0A2000200849E
:10FD5E000000C1C50000C20D00000000C38D002AC6
:10FD6E000000C48D00EE0000C50A000036C8000079
:10FD7E00E012001C001000180033002C0025002893
:10FD8E0000280027002F003C000000030003001095
:10FD9E00008000780000E112001C00100018002DF9
:10FDAE0000280023002800280026002F003B00001A
:10FDBE0000030003001000003A0500002A000002B4
:10FDCE000000008100002B000003000000A20000D4
:10FDDE0029002C00010200010001000202000003B4
:10FDEE000303000200040008001000200040008001
:10FDFE00000001000103070F1F3F7FFF00020103F8
:10FE0E00010410000000000000005F000000070069
:10FE1E000700147F147F14242A7F2A1223130864E8
:10FE2E006236495522500005030000001C22410095
:10FE3E000041221C00082A1C2A0808083E08080057
:10FE4E00503000000808080808006060000020100C
:10FE5E000804023E5149453E00427F400042615136
:10FE6E0049462141454B311814127F10274545450F
:10FE7E00393C4A4949300171090503364949493629
:10FE8E00064949291E00363600000056360000008D
:10FE9E0008142241141414141441221408000201EF
:10FEAE00510906324979413E7E1111117E7F494931
:10FEBE0049363E414141227F4141221C7F494949F9
:10FECE00417F090901013E414151327F0808087FF7
:10FEDE0000417F41002040413F017F081422417FB5
:10FEEE00404040407F0204027F7F0408107F3E4165
:10FEFE0041413E7F090909063E4151215E7F0919A4
:10FF0E002946464949493101017F01013F404040A0
:10FF1E003F1F2040201F7F2018207F63140814638A
:10FF2E000304780403615149454300007F414102B7
:10FF3E000408102041417F000004020102044040E9
:10FF4E00404040000102040020545454787F48443D
:10FF5E0044383844444420384444487F3854545438
:10FF6E0018087E090102081454543C7F08040478D2
:10FF7E0000447D40002040443D00007F1028440096
:10FF8E00417F40007C041804787C080404783844CF
:10FF9E004444387C14141408081414187C7C080487
:10FFAE0004084854545420043F4440203C40402010
:10FFBE007C1C2040201C3C4030403C4428102844EF
:10FFCE000C5050503C4464544C44000836410000E0
:10FFDE00007F0000004136080008082A1C08081C93
:10FFEE002A0808FF0000FFF0FFFFFF0000FF0F00D0
:02FFFE00FC0005
:020000040001F9
:10000000080E0001D7250001D46F000E0001D82191
:100010000001D56F000E0001D66FF0EC8CF00001EE
:10002000EE6F0001EE510001DA6FDB6B0E0ED8901F
:100030000001DA37DB37E82EFAD70001EE51000174
:10004000DC6FDD6B0C0ED8900001DC37DD37E82E5D
:10005000FAD70001EE510001DE6FDF6B0A0ED89077
:100060000001DE37DF37E82EFAD70001EE5100013C
:10007000E16FE06B0001EE510001E26FE36B060EF1
:10008000D8900001E237E337E82EFAD70001EE51AD
:100090000001E46FE56B0001E43BE53BF00EE51782
:1000A000E4510F0BE513F00EE4170001EE510001CF
:1000B000E66FE76B0001D890E637E7370001D8908C
:1000C000E637E7370001EE510001E86FE96B000108
:1000D000E6510001E8130001E7510001E9130001B6
:1000E000E4510001E8130001E5510001E9130001AA
:1000F000E2510001E8130001E3510001E91300019E
:10010000E0510001E8130001E1510001E913000191
:10011000DE510001E8130001DF510001E913000185
:10012000DC510001E8130001DD510001E913000179
:10013000DA510001E8110001EA6F0001DB51000112
:10014000E9110001EB6FEEC0ECF00001ED6B080E61
:100150000001D7250001D46F000E0001D821000155
:10016000D56F010E0001D66FF0EC8CF00001DA6F54
:10017000DB6B0001D890DA37DB370001D890DA3733
:10018000DB370001DA510001EC130001DB51000103
:10019000ED13080E0001D7250001D46F000E0001F9
:1001A000D8210001D56F020E0001D66FF0EC8CF063
:1001B0000001DA6FDB6B0001DA3BDB3BF00EDB1793
:1001C000DA510F0BDB13F00EDA170001DA510001E0
:1001D000EC130001DB510001ED13080E0001D725DF
:1001E0000001D46F000E0001D8210001D56F030E6D
:1001F0000001D66FF0EC8CF00001DA6FDB6B060EBD
:10020000D8900001DA37DB37E82EFAD70001DA514F
:100210000001EC130001DB510001ED13080E000199
:10022000D7250001D46F000E0001D8210001D56F41
:10023000040E0001D66FF0EC8CF00001DA6F0001C3
:10024000DA510001DC6FDB6B0001DB510001EC13C4
:100250000001DC510001ED13080E0001D72500015B
:10026000D46F000E0001D8210001D56F050E0001EA
:10027000D66FF0EC8CF00001DA6FDB6B0A0ED890D1
:100280000001DA37DB37E82EFAD70001DA51000136
:10029000EC130001DB510001ED13080E0001D7251E
:1002A0000001D46F000E0001D8210001D56F060EA9
:1002B0000001D66FF0EC8CF00001DA6FDB6B0C0EF6
:1002C000D8900001DA37DB37E82EFAD70001DA518F
:1002D0000001EC130001DB510001ED13080E0001D9
:1002E000D7250001D46F000E0001D8210001D56F81
:1002F000070E0001D66FF0EC8CF00001DA6FDB6BBB
:100300000E0ED8900001DA37DB37E82EFAD700015D
:10031000DA510001EC130001DB510001ED13000183
:10032000EC510001EA1948E10001ED510001EB191F
:10033000D8A4120032D0000120EE02F0D751D92605
:10034000D851DA22DECFC8F0DDCFC9F0D9C0CAF06B
:10035000D9EC8DF012000001D91F000120EE02F04F
:10036000D751D926D851DA22DECFC8F0DDCFC9F077
:10037000D9C0CAF0D9EC8DF01200000120EE04F0D3
:10038000D751D926D851DA22DECFC8F0DDCFC9F057
:10039000D9C0CAF0D9EC8DF012000001EE51000A6C
:1003A000D8B41200010AD8B4C6D7030AD8B4D3D738
:1003B000010AD8A41200E1D71200050E0001F76F60
:1003C000C7D0020120EE02F00351D9260451DA22EF
:1003D000DECFD3F0DDCFD4F005C2D5F00F0E000193
:1003E000D66F90EC8DF0020120EE04F00351D92677
:1003F0000451DA22DECFD3F0DDCFD4F005C2D5F040
:10040000000E0001D66F90EC8DF0B0D003C2FAF16F
:1004100004C2FBF105C2FCF1030E0101FD6FC4EC47
:100420008BF00001F76F0001F751D8A41200020110
:1004300020EE02F00351D9260451DA22DECFD3F0A8
:10044000DDCFD4F005C2D5F0000E0001D66F90ECE0
:100450008DF0020120EE04F00351D9260451DA2276
:10046000DECFD3F0DDCFD4F005C2D5F0000E000111
:10047000D66F90EC8DF07AD003C2FAF104C2FBF192
:1004800005C2FCF1030E0101FD6FC4EC8BF000010D
:10049000F76F0001F751D8A41200020120EE02F01C
:1004A0000351D9260451DA22DECFD3F0DDCFD4F0C8
:1004B00005C2D5F00F0E0001D66F90EC8DF0020151
:1004C00020EE04F00351D9260451DA22DECFD3F016
:1004D000DDCFD4F005C2D5F00F0E0001D66F90EC41
:1004E0008DF044D003C2FAF104C2FBF105C2FCF165
:1004F000030E0101FD6FC4EC8BF00001F76F0001EA
:10050000F751D8A41200020120EE02F00351D926BF
:100510000451DA22DECFD3F0DDCFD4F005C2D5F01E
:10052000000E0001D66F90EC8DF0020120EE04F079
:100530000351D9260451DA22DECFD3F0DDCFD4F037
:1005400005C2D5F0000E0001D66F90EC8DF00ED0F4
:1005500002010651000AD8B434D7010AD8B456D7DC
:10056000030AD8B489D7010AD8B4BCD7080E02014F
:1005700003250001D76F000E020104210001D86F8E
:1005800002010551040DF3CFD9F006C2DAF08CEC6C
:100590008CF0080E020103250001D76F000E020146
:1005A00004210001D86F02010551040DF328000158
:1005B000D96F06C2DAF08CEC8CF0080E020103252C
:1005C0000001D76F000E020104210001D86F020163
:1005D0000551040DF350020F0001D96F06C2DAF085
:1005E0008CEC8CF0080E020103250001D76F000E81
:1005F000020104210001D86F02010551040DF350DE
:10060000030F0001D96F06C2DAF08CEC8CF01200F7
:10061000050E0201096F7AD0020120EE02F00651A8
:10062000D9260751DA22DECFFEF1DDCFFFF1FEC180
:10063000D9FFFFC1DAFFFF0E67D006C203F207C27F
:1006400004F2010E0201056F68EC8CF00201096FE3
:1006500002010951D8A41200020120EE02F0065155
:10066000D9260751DA22DECFFEF1DDCFFFF1FEC140
:10067000D9FFFFC1DAFF000EDF6E020120EE04F0A9
:1006800036D006C203F207C204F2020E0201056F61
:1006900068EC8CF00201096F02010951D8A4120024
:1006A000020120EE02F00651D9260751DA22DECFF0
:1006B000FEF1DDCFFFF1FEC1D9FFFFC1DAFFFF0E72
:1006C000DF6E020120EE04F0AAD706C203F207C2D1
:1006D00004F2000E0201056F68EC8CF00201096F54
:1006E00002010951D8A41200020120EE02F00651C5
:1006F000D9260751DA22DECFFEF1DDCFFFF1FEC1B0
:10070000D9FFFFC1DAFF000EDF6E0ED002010851E3
:10071000000AD8B481D7010AD8B48FD7030AD8B455
:10072000B0D7010AD8B4D1D7080E020106250001BE
:10073000D76F000E020107210001D86F000E0001E3
:10074000D96F08C2DAF08CEC8CF0080E0201062595
:100750000001D76F000E020107210001D86F010EC2
:100760000001D96F08C2DAF08CEC8CF0080E02019F
:1007700006250001D76F000E020107210001D86F86
:10078000020E0001D96F08C2DAF08CEC8CF0080E72
:10079000020106250001D76F000E020107210001AA
:1007A000D86F030E0001D96F08C2DAF08CEC8CF020
:1007B000080E020106250001D76F000E0201072175
:1007C0000001D86F040E0001D96F08C2DAF08CEC7A
:1007D0008CF0080E020106250001D76F000E020101
:1007E00007210001D86F050E0001D96F08C2DAF0A9
:1007F0008CEC8CF0080E020106250001D76F000E6C
:10080000020107210001D86F060E0001D96F08C24E
:10081000DAF08CEC8CF0080E020106250001D76F8F
:10082000000E020107210001D86F070E0001D96FE9
:1008300008C2DAF08CEC8CF01200EEC0D9FFEFC0E9
:10084000DAFFDECFF3F0DDCFF4F0050E0001F26F3A
:10085000B5D0000120EE02F0EE51D926EF51DA2298
:10086000DECFC8F0DDCFC9F0F0C0CAF0010E000144
:10087000CB6F61EC8BF0B0D0F3C0D7F0F4C0D8F000
:10088000010E0001D96FF0C0DAF07EEC8AF00001B1
:10089000F26F0001F251D8A41200000120EE02F024
:1008A000EE51D926EF51DA22DECFC8F0DDCFC9F004
:1008B000F0C0CAF0000E0001CB6F61EC8BF00001BC
:1008C00020EE04F0EE51D926EF51DA22DECFC8F047
:1008D000DDCFC9F0F0C0CAF0000E0001CB6F61ECB3
:1008E0008BF07AD0F3C0D7F0F4C0D8F0020E00013C
:1008F000D96FF0C0DAF07EEC8AF00001F26F0001EF
:10090000F251D8A41200000120EE02F0EE51D926D7
:10091000EF51DA22DECFC8F0DDCFC9F0F0C0CAF067
:10092000010E0001CB6F61EC8BF0000120EE04F0B2
:10093000EE51D926EF51DA22DECFC8F0DDCFC9F073
:10094000F0C0CAF0010E0001CB6F61EC8BF044D017
:10095000F3C0D7F0F4C0D8F0000E0001D96FF0C09A
:10096000DAF07EEC8AF00001F26F0001F251D8A4B7
:100970001200000120EE02F0EE51D926EF51DA22EA
:10098000DECFC8F0DDCFC9F0F0C0CAF0000E000124
:10099000CB6F61EC8BF0000120EE04F0EE51D92614
:1009A000EF51DA22DECFC8F0DDCFC9F0F0C0CAF0D7
:1009B000000E0001CB6F61EC8BF00ED00001F15105
:1009C000000AD8B446D7010AD8B456D7030AD8B417
:1009D00089D7010AD8B4BCD7080E0001EE25000162
:1009E000D76F000E0001EF210001D86FF0C0D9F0E1
:1009F000F1C0DAF08CEC8CF0120002010C51F9EC31
:100A000088F00AC2D9FF0BC2DAFF0001C8C0DEFFBE
:100A10000001C9C0DDFF02010C514CEC89F002015C
:100A200020EE06F00A51D9260B51DA220001C8C087
:100A3000DEFF0001C9C0DDFF02010C514CEC89F062
:100A4000020120EE04F00A51D9260B51DA220001EE
:100A5000C8C0DEFF0001C9C0DDFF02010C51A6ECD9
:100A600088F0020120EE02F00A51D9260B51DA2259
:100A70000001C8C0DEFF0001C9C0DDFF020120EE99
:100A800004F00A51D9260B51DA22DECF0DF2DDCF68
:100A90000EF20DC2D9FF0EC2DAFF000EDF6E0201A8
:100AA00020EE02F00A51D9260B51DA22DECF0DF2E8
:100AB000DDCF0EF20DC2D9FF0EC2DAFFFF0EDF6EE0
:100AC0000AC206F20BC207F2000E0201086F08EC20
:100AD00083F0000E02010F6F070E02010F6531D087
:100AE0004BD00AC2EEF00BC2EFF00FC2F0F0030ED3
:100AF0000001F16F1DEC84F03CD00AC2EEF00BC295
:100B0000EFF00FC2F0F0020E0001F16F1DEC84F067
:100B100030D00AC2EEF00BC2EFF00FC2F0F0010EBF
:100B20000001F16F1DEC84F024D00AC2EEF00BC27C
:100B3000EFF00FC2F0F0000E0001F16F1DEC84F039
:100B400018D00AC2D9FF0BC2DAFFDECFD4F0DDCF56
:100B5000D5F00FC2D6F0F0EC8CF0000AD8B4C1D7B3
:100B6000010AD8B4D6D7030AD8B4C7D7010AD8B473
:100B7000DCD702010F2BB0D70AC2D7F00BC2D8F0D6
:100B8000000E0001D96F00EC80F01200010E446EDF
:100B9000000E256E000E266E000E276ECA0E020194
:100BA0000A6F010E02010B6F000E02010C6FFDECCB
:100BB00084F0D40E02010A6F010E02010B6F010EC8
:100BC00002010C6FFDEC84F0760E02010A6F000E3C
:100BD00002010B6F020E02010C6FFDEC84F0800E1F
:100BE00002010A6F000E02010B6F030E02010C6F6F
:100BF000FDEC84F08A0E02010A6F000E02010B6FF9
:100C0000040E02010C6FFDEC84F0940E02010A6FD9
:100C1000000E02010B6F050E02010C6FFDEC84F05B
:100C2000DE0E02010A6F010E02010B6F060E0201B9
:100C30000C6FFDEC84F0940E0001EE6F000E0001CD
:100C4000EF6F050E0001F06F000E0001F16F1DEC5B
:100C500084F0D40E0201036F010E0201046F000E36
:100C60000201056F000E0201066FDDEC81F0940EAB
:100C70000001EE6F000E0001EF6F060E0001F06F35
:100C8000030E0001F16F1DEC84F0DE0E0201066F11
:100C9000010E0201076F030E0201086F08EC83F0DA
:100CA000DE0E0001D76F010E0001D86F040E0001A7
:100CB000D96F000E0001DA6F94EC87F0940E0001FA
:100CC000D76F000E0001D86F060E0001D96F010E1C
:100CD0000001DA6F94EC87F0000E93EC8BF0010EBC
:100CE00093EC8BF0000E9E6E000EA16E000EA46EB3
:100CF0009B8E9B8C000E0001C96F640EC86FF7ECD1
:100D00008AF0D08E120049B215EF87F020EE04F081
:100D10003050D9263150DA22DF50AFEC8CF0000988
:100D2000D8B47AD030C0D9FF31C0DAFFDE50DE103F
:100D3000D8B46DD030C0D9FF31C0DAFF010EDBBEB0
:100D400026D0010EDB5003E1DE04D8A020D030C055
:100D5000D9FF31C0DAFFDE2804E17F0EDE18D8B4F7
:100D600007D030C0D9FF31C0DAFFDE06000EDD5AF1
:100D70008A0E0001D76F000E0001D86F000E00012F
:100D8000D96F010E0001DA6F94EC87F01FD030C0EC
:100D9000D9FF31C0DAFFDE0404E1800EDE18D8B4DA
:100DA00007D030C0D9FF31C0DAFFDE2A000EDD22C5
:100DB0008A0E0001D76F000E0001D86F000E0001EF
:100DC000D96F000E0001DA6F94EC87F08A0E0001F3
:100DD000D76F000E0001D86F010E0001D96F010E10
:100DE0000001DA6F94EC87F08A0E0001D76F000ED5
:100DF0000001D86F010E0001D96F000E0001DA6FFB
:100E000094EC87F0CEEC8DF0EEEC8DF01200CEEC91
:100E10008DF007EC8EF012006BC0C8F06CC0C9F00A
:100E20006DC0CAF0E0EC8DF0120020EE04F03050FE
:100E3000D9263150DA22DF502EEC8DF00009D8B4DB
:100E40006AD030C0D9FF31C0DAFFDE50DE10D8B42E
:100E50005DD030C0D9FF31C0DAFF010EDBBE22D039
:100E6000010EDB5003E1DE04D8A01CD030C0D9FF56
:100E700031C0DAFFDE2804E17F0EDE18D8B407D0D7
:100E800030C0D9FF31C0DAFFDE06000EDD5A8A0E0F
:100E9000106E000E116E000E126E010E136E51ECEC
:100EA00088F01BD030C0D9FF31C0DAFFDE0404E186
:100EB000800EDE18D8B407D030C0D9FF31C0DAFFB9
:100EC000DE2A000EDD228A0E106E000E116E000E5C
:100ED000126E000E136E51EC88F08A0E106E000E2A
:100EE000116E010E126E010E136E51EC88F08A0E17
:100EF000106E000E116E010E126E000E136E51EC8C
:100F000088F00DEC8EF0F4EC8DF012000DEC8EF00C
:100F10000AEC8EF012006BC001F06CC002F06DC0E4
:100F200003F0E7EC8DF01200080E0001D725000158
:100F3000D46F000E0001D8210001D56FD9C0D6F0C2
:100F4000F0EC8CF00001DB6F42D0010E0001DA17EB
:100F5000000120EE02F0D751D926D851DA22DECF97
:100F6000C8F0DDCFC9F0D9C0CAF0DAC0CBF061EC6F
:100F70008BF01200010E0001DA17010E0001DA1BDE
:100F8000000120EE02F0D751D926D851DA22DECF67
:100F9000C8F0DDCFC9F0D9C0CAF0DAC0CBF061EC3F
:100FA0008BF01200010E0001DA17000120EE04F0B0
:100FB000D751D926D851DA22DECFC8F0DDCFC9F01B
:100FC000D9C0CAF0DAC0CBF061EC8BF0120000019E
:100FD000DB51000AD8B41200010AD8B4B6D7030A0C
:100FE000D8B4C8D7010AD8A41200DCD70001CC516C
:100FF000010D010EF324F66EFE0EF420F76EF86A72
:10100000000EF8220800F5CFD2F0000E0001D16FDB
:1010100006D00001CA510001CB5F0001D12B0001B5
:10102000CA510001CB5DD8B0F4D70001CC5100010A
:10103000CB03F350CB6F0001D1510001CB2700014E
:10104000D2510001CD17CBC0CEF0D2C0CFF00001FD
:10105000CE2B03D00001D890CF370001CE2FFAD786
:101060000001CF51FF0A0001D06FC8C0D9FFC9C02D
:10107000DAFF0001D051DF16CBC0CEF0CDC0CFF0EB
:101080000001CE2B03D00001D890CF370001CE2F26
:10109000FAD7C8C0D9FFC9C0DAFF0001CF51DF12AB
:1010A0001200080E10240D6E000E11200E6E12C0DC
:1010B0000FF061EC8DF0146E3BD0010E131620EE94
:1010C00002F01050D9261150DA22DECF01F0DDCF28
:1010D00002F012C003F013C004F042EC8CF01200D6
:1010E000010E1316010E131A20EE02F01050D9262D
:1010F0001150DA22DECF01F0DDCF02F012C003F092
:1011000013C004F042EC8CF01200010E131620EE16
:1011100004F01050D9261150DA22DECF01F0DDCFD5
:1011200002F012C003F013C004F042EC8CF0120085
:101130001450000AD8B41200010AD8B4BED7030A6A
:10114000D8B4CED7010AD8A41200DFD70001CA6FE5
:1011500038D0920E0001C86F0F0E0001C96F120047
:10116000930E0001C86F0F0E0001C96F1200940E9C
:101170000001C86F0F0E0001C96F1200950E00012B
:10118000C86F0F0E0001C96F1200960E0001C86FE4
:101190000F0E0001C96F1200970E0001C86F0F0EED
:1011A0000001C96F1200980E0001C86F0F0E0001F8
:1011B000C96F1200000E0001C86F000E0001C96F58
:1011C00012000001CA51000AD8B4C3D7010AD8B42A
:1011D000C7D7030AD8B4CBD7010AD8B4CFD7070AE8
:1011E000D8B4D3D7010AD8B4D7D7030AD8B4DBD739
:1011F000E1D70001CA6F38D0F10E0001C86FFF0EB1
:101200000001C96F1200F30E0001C86FFF0E00014C
:10121000C96F1200F50E0001C86FFF0E0001C96F03
:101220001200F70E0001C86FFF0E0001C96F120017
:10123000F90E0001C86FFF0E0001C96F1200FB0E0E
:101240000001C86FFF0E0001C96F1200FD0E000102
:10125000C86FFF0E0001C96F1200000E0001C86FB9
:10126000000E0001C96F12000001CA51000AD8B473
:10127000C3D7010AD8B4C7D7030AD8B4CBD7010A59
:10128000D8B4CFD7070AD8B4D3D7010AD8B4D7D7A0
:10129000030AD8B4DBD7E1D70001CA6F38D0800E7B
:1012A0000001C86F0F0E0001C96F1200810E00010E
:1012B000C86F0F0E0001C96F1200820E0001C86FC7
:1012C0000F0E0001C96F1200830E0001C86F0F0ED0
:1012D0000001C96F1200840E0001C86F0F0E0001DB
:1012E000C96F1200850E0001C86F0F0E0001C96F93
:1012F0001200860E0001C86F0F0E0001C96F1200A8
:10130000000E0001C86F000E0001C96F120000013D
:10131000CA51000AD8B4C3D7010AD8B4C7D7030A40
:10132000D8B4CBD7010AD8B4CFD7070AD8B4D3D70B
:10133000010AD8B4D7D7030AD8B4DBD7E1D7050E52
:10134000F66E1C0EF76E010EF86E01EEF2F010EE66
:1013500008F00900F5CFEEFFE550E150FAE1FD0E8F
:10136000F66E1B0EF76E010EF86E00EEF8F010EE42
:1013700008F00900F5CFEEFFE550E150FAE1F40E78
:10138000F66E1B0EF76E010EF86E00EE40F010EEDA
:1013900009F00900F5CFEEFFE550E150FAE102EE69
:1013A00010F011EE2CF0EE6AE550E150FCE1E25055
:1013B000FAE101EE00F0F20EEE6AE806FDE100EE61
:1013C00060F0680EEE6AE806FDE100EE25F01B0E07
:1013D000EE6AE806FDE14990499200013EEF8AF08D
:1013E000C8C0F6FFC9C0F7FF000EF86E0F0EF76415
:1013F00003D00800F55005D0F6CFE9FFF7CFEAFF9C
:10140000EF500001D06F0001CC51010D010EF3240B
:10141000F66EFE0EF420F76EF86A000EF822080051
:10142000F5CFCEF0000E0001CF6F06D00001CA51FB
:101430000001CB5F0001CF2B0001CA510001CB5D41
:10144000D8B0F4D70001CC510001CB03F350CB6FDF
:101450000001CF510001CB270001CB290001CD6F46
:1014600003D00001D890D0330001CD2FFAD700016E
:10147000CE510001D0170001D0511200C6EC85F00A
:10148000010E0FEC8DF00009D8B406D0CEEC8DF033
:101490000009D8A449EC8DF0010E0FEC8DF0000985
:1014A000D8B406D0CEEC8DF00009D8A449EC8DF06C
:1014B000010E0FEC8DF00009D8B406D0CEEC8DF003
:1014C0000009D8A449EC8DF0010E0FEC8DF0000955
:1014D000D8B406D0CEEC8DF00009D8A449EC8DF03C
:1014E000010E0FEC8DF00009D8B4E2D7CEEC8DF0F0
:1014F0000009D8B4DDD749EC8DF0DAD7E10EF66EED
:10150000FD0EF76E000EF86E20EEDDF00F0E0900F6
:10151000F5CFDEFFE806FBE2D7C0D4F0D8C0D5F0A7
:10152000DAC0D6F0F0EC8CF00001ED6F040E000193
:10153000D96120D0040E0001ED611CD00001D95109
:10154000040DDD0E0001DB6F000E0001DC6FF350B7
:101550000001DB27F4500001DC230001ED51010DF7
:10156000F3500001DB25D96EF4500001DC21DA6E66
:10157000DF501200050E120001C0F6FF02C0F7FF97
:10158000000EF86E0F0EF76403D00800F55005D07A
:10159000F6CFE9FFF7CFEAFFEF50096E0550010DD6
:1015A000010EF324F66EFE0EF420F76EF86A000EBC
:1015B000F8220800F5CF07F0000E086E03D00350A4
:1015C000045E082A0350045CD8B0F9D70550040221
:1015D000F350046E085004260428066E02D0D890FA
:1015E0000932062EFCD707500916095012001FD0E9
:1015F000000E0001CA6F000ECB6F000ECC6F000E04
:10160000CD6F0001CD510001CC1111E1B00E0001F0
:10161000CA5D040E0001CB59D8B009D000F0010E0C
:101620000001CA27000ECB23CC23CD23EAD700012B
:10163000C807D8A0C9070001C829DAE10001C929F3
:10164000D8A4D6D7080E0001CA6F800ECB6F000E4B
:10165000CC6F000ECD6F1200050E0001F46FEEC0CE
:10166000D9FFEFC0DAFFDECFF5F0DDCFF6F00001F5
:10167000F051020DF3CFF2F00001F051020DF3280A
:101680000001F36FF5C0D7F0F6C0D8F0F1C0D9F083
:10169000F2C0DAF07EEC8AF00001F46F0001F45140
:1016A000D8A40CD0F5C0D7F0F6C0D8F0F1C0D9F06E
:1016B000F3C0DAF07EEC8AF00001F46F0001F4511F
:1016C0001200010E0001CB17CAC0CCF0010E0001C0
:1016D000CD6F0001CC2B03D00001D890CD37000195
:1016E000CC2FFAD70001CD51FF0A0001CE6FC8C040
:1016F000D9FFC9C0DAFF0001CE51DF16CAC0CCF055
:10170000CBC0CDF00001CC2B03D00001D890CD3759
:101710000001CC2FFAD7C8C0D9FFC9C0DAFF000139
:10172000CD51DF1212000001F56F1ED0760E0001C0
:10173000EE6F000E0001EF6F000E0001F06F030E60
:101740000001F16F1DEC84F017D0760E0001EE6FF2
:10175000000E0001EF6F010E0001F06F030E00019B
:10176000F16F1DEC84F008D00001F551000AD8B4E7
:10177000DDD7010AD8B4E9D7000E0001DC6F000103
:10178000F5511AEC8CF01200050E0201026F0101F6
:10179000FC51020DF3CF00F20101FC51020DF328C0
:1017A0000201016FFAC1EEF0FBC1EFF000C2F0F0F0
:1017B000FDC1F1F02CEC8BF00201026F020102512D
:1017C000D8A40CD0FAC1EEF0FBC1EFF001C2F0F0EA
:1017D000FDC1F1F02CEC8BF00201026F020102510D
:1017E00012001CD0000E0001CA6F000ECB6F000E5D
:1017F000CC6F000ECD6F0001CA510001CB1100016A
:10180000CC110001CD11D8A409D000F0010E0001C7
:10181000CA27000ECB23CC23CD23EDD70001C80768
:10182000D8A0C9070001C829DDE10001C929D8B441
:101830001200D8D70001DD6F1CD0760E0001D76FE3
:10184000000E0001D86F000E0001D96FDCC0DAF085
:1018500094EC87F01200760E0001D76F000E0001A5
:10186000D86F010E0001D96FDCC0DAF094EC87F07C
:1018700012000001DD51000AD8B4DFD7010AD8A454
:101880001200E9D7010E041603C005F0010E066E22
:10189000052A02D0D8900636052EFCD70650FF0A3E
:1018A000076E01C0D9FF02C0DAFF0750DF1603C080
:1018B00005F004C006F0052A02D0D8900636052EA1
:1018C000FCD701C0D9FF02C0DAFF0650DF121200B8
:1018D000050E0001F76F03C2FAF104C2FBF1000E1E
:1018E0000101FC6F05C2FDF1C4EC8BF00001F76F44
:1018F0000001F751D8A40DD003C2FAF104C2FBF1E4
:10190000010E0101FC6F05C2FDF1C4EC8BF000017A
:10191000F76F0001F7511200030E0001D96514D0D2
:10192000010E0001D7250001D36F000E0001D82160
:101930000001D46F0001D951FC0F0001D56FDAC04E
:10194000D6F0A1EC8DF01200D7C0D3F0D8C0D4F0FF
:10195000D9C0D5F0DAC0D6F0A1EC8DF012000001AC
:10196000CF6F86500F0B0001CE6F4450D8A402D029
:10197000000E1200000E446E0001CF510001CE197E
:10198000D8B40CD0F00E86160001CF518612000E8E
:101990000001C96F0A0EC86FF1EC8BF0010E120046
:1019A00016D0000E036E000E046E000E056E000EC3
:1019B000066E0350041005100610D8A408D000F0DD
:1019C000010E0326000E042205220622F2D701068C
:1019D000D8A002060128E5E10228D8B41200E1D718
:1019E000030E0001D66512D0010E0001D4250001BE
:1019F000D16F000E0001D5210001D26F0001D65138
:101A0000FC0F0001D36FB2EC8DF01200D4C0D1F006
:101A1000D5C0D2F0D6C0D3F0B2EC8DF012000001E8
:101A2000CF6F86500F0B0001CE6F4450D8B4FDD756
:101A3000000E446E0001CF510001CE19D8B40CD075
:101A4000F00E86160001CF518612000E0001C96FFC
:101A50000A0EC86FF1EC8BF0010E1200086E865072
:101A60000F0B076E4450D8A402D0000E1200000ED7
:101A7000446E08500718D8B40AD0F00E86160850E5
:101A80008612000E026E0A0E016ED0EC8CF0010E72
:101A90001200255026102710D8B40CD001D80AD037
:101AA0000500FA6E2550FD6E2650FE6E2750FF6E23
:101AB000FA501200000E256E000E266E000E276EE4
:101AC0001200030E0F640CD0010E0D240A6E000EDE
:101AD0000E200B6E0F50FC0F0C6EC1EC8DF012003F
:101AE0000DC00AF00EC00BF00FC00CF0C1EC8DF071
:101AF00012000AEC8EF0000168510001691100012A
:101B00006A11D8B4120001D812000500FA6E000163
:101B10006851FD6E6951FE6E6A51FF6EFA501200F7
:101B2000D3C0C8F0D4C0C9F0020E0001CA6FD5C03E
:101B3000CBF0040E0001CC6FD6C0CDF0F6EC87F0F0
:101B40001200D3C0C8F0D4C0C9F0040E0001CA6F9F
:101B5000D5C0CBF0020E0001CC6FD6C0CDF0F6ECB4
:101B600087F01200D1C0C8F0D2C0C9F0040E000145
:101B7000CA6FD3C0CBF0020E0001CC6FF0EC89F03D
:101B800012000AC001F00BC002F0040E036E0CC07C
:101B900004F0020E056EBCEC8AF01200010E446ED9
:101BA000255026102710D8B402D0010E1200000EC6
:101BB0001200C8C0D9FFC9C0DAFFCAC0DFFF1200D7
:101BC000C8C025F0C9C026F0CAC027F0120001C065
:101BD00025F002C026F003C027F012002AC0D6FF6D
:101BE0002BC0D7FFF28A12002AC0D6FF2BC0D7FF26
:101BF000F28A12000600060001018080300500070D
:0D1C000000FFFF41610600060080000700A4
:101C0E00F29AF2941200F29AF2941200010E446EBD
:021C1E001200B2
:06FFF800AAF705FFF8F175
:00000001FF
