:100000000DEF04F026EF00F004EF0AF0D1EC04F05D
:10001000FF0000F000F012000CEF0AF018EF00F003
:10003000F26AFC6A9BEC04F004009EEC09F0D8EC38
:1000400003F0F3EC03F05EEC08F0F6D701501F0B61
:10005000E80601E01200055001E01200060E021849
:1000600014E01AD0020E3D6E4A0E3FD8306A090ED7
:100070000AD0020E3D6E450402E1870E36D84504D3
:100080000AE1306A1D0E2F6E06D00450210AEAE004
:10009000030AEFE0010A42820138E832030BE80666
:1000A00014E01200020E3D6E440E206E24D0020EAB
:1000B0003D6E04C044F0020C020E3D6E430EF5D7B7
:1000C000020E3D6E03C043F0020C0250010AD8B488
:1000D0001200030AE7E0010AEFE00A0AD8B41200AE
:1000E000030AE5E0010AECE01200206E2050D8A4DB
:1000F000100E216E1200216A4292010E2F6E010C29
:100100004F6A140E506E516A296A2A6A4FC0F6FF70
:1001100050C0F7FF51C0F8FF42D80800F5CFDFFF0D
:100120004F2A000E50225122294A2A2A040E2A5C04
:10013000EDE30D0EE8CFB2F4600EE8CFB3F4000E9D
:10014000496E050E486E0AEC03F04F68170E506EAC
:10015000516A030E2A6E296851C0F8FF50C0F7FF9C
:100160004FC0F6FF1CD8DF50F56E0C0029C04EF0D2
:100170003F0E4E1607E1FEEC09F0040EA66EB50E1A
:1001800067EC04F04F06000E505A515A0A002950ED
:100190002A1001E112002906D8A02A06DDD7AC0EEC
:1001A0002924D96E040E2A20DA6E120003040BE112
:1001B00001501F0B08E1010E3D6E030E021802E113
:1001C000428001D042900350D8A4120001501F0B6E
:1001D000020AD8A4120005500F0BD8B4120028D878
:1001E000476A040E486E4726000E4822F350472601
:1001F000F450482223D847241D6EF45048201E6E28
:10020000030E021805E10FD8040EDF6E0CD81CD0C7
:1002100005AE04D008D8400EDF6E400C04D8080E9E
:10022000DF6E01D811D01DC0D9FF1EC0DAFF120049
:10023000010E3D6E05500F0B080D1200010E05AEAC
:10024000000E040DF3501200000EDB8E000C3D502A
:1002500010E193EC03F0196E3A0405E1010E32EC63
:1002600003F03A6A1200000E32EC03F0010E3A6E0F
:10027000010C01AE1BD0010E3E6E2F50075C3050BA
:10028000085804E207C02FF008C030F076EC01F007
:10029000480E196E010E32EC03F0000E32EC03F042
:1002A000240E04010A6F040E0B6F1CD0020E3E6E6A
:1002B000040E196E0750081002E1480E196E3A0438
:1002C00005E1010E32EC03F03A6A05D0000E32EC83
:1002D00003F0010E3A6E07500810D8A41200040172
:1002E000096B00D0480E086F088F480C080E326E5C
:1002F00030500DE1080E2F5C0AE22FC032F0405062
:1003000002E1010E03D0400402E1020E406E32C051
:1003100009F432502F5E000E305A240E1D6E040E6A
:100320001E6E42A21AD00BD01BD813EC01F00F0E98
:10033000F76403D00800F55001D019D81ED8325008
:10034000F3E112000DD813EC01F00F0EF76403D0A7
:100350000800F55001D00BD810D83250F3E112004C
:1003600020C0F6FF21C0F7FF000EF86E1200F6CF96
:10037000E1FFF7CFE2FFE7501200DF6E1D4A1E2AB1
:10038000204A212A320612000138E832030B18E015
:100390001200010E3D6E040E416E040C010E3D6E06
:1003A000450E206E7BEF00F02CD8496E49C020F03E
:1003B0007BEF00F026D8D96EDA6A03C0DFFF1200A7
:1003C000025002E179EF02F0010A02E1D6EF00F0FB
:1003D000020A02E1D6EF00F0060ADBE0030A02E1BE
:1003E00006EF02F0010AD8B412000F0AD7E0010AA2
:1003F00002E155EF03F0030AD7E0010ADBE0070A48
:100400001200010E3D6E0550460F1200800E0118BD
:1004100030E01200010E3D6EA40E75EC00F0120EDD
:1004200009D003502DE1010E3D6E380E75EC00F041
:10043000306A290E2F6E24D0010E3D6E0350010F3D
:10044000476E47C0F6FF100EF76E000EF86E0900FB
:10045000F5CF20F0100E216EB0EC01F00F0EF76416
:1004600003D00800F55002D0B7EC01F02F6E306ACF
:1004700007D00450010ACEE0030AD3E0010ADCE011
:1004800042821200366A27D03850486E000E48BEAD
:10049000FF0E496E4A6E4B6E4850155C0D6E49500A
:1004A00016580E6E4A5017580F6E4B501858106E53
:1004B0000FC0F8FF0EC0F7FF0DC0F6FF11D80D00FA
:1004C000362A0ED80C00362A240EA66EB50E67EC1E
:1004D00004F0FE0E38263850800A7F0FD5E2120055
:1004E000AC0E3624D96EDA6A040EDA22DF50F56ECD
:1004F0001200246B256B22D0010E3D6E42B0248386
:1005000024D0010E3D6E21D018EC01F0476A040E94
:10051000486E4726000E4822F3504726F4504822E2
:100520001EEC01F047241D6EF45048201E6E13ECA3
:1005300001F0DFA40AD0010E246F07D001501F0B79
:10054000DBE0010ADEE0030ADFE03D04D8A412008C
:10055000240E206E040E216E4292020E2F6E020CAB
:10056000400E486401D0486E4A6A0DD047504A2474
:10057000D96EDA6A6C0E4A24E16EE26A040EE22257
:10058000DFCFE7FF4A2A48504A5CF0E348C011F445
:10059000400E0401101710BD03D0496A492A01D04A
:1005A000496A493A49464946040110514918BF0B66
:1005B0004918106F1087108F12003F6A0CBF12008D
:1005C00048500D5D02E20DC448F03F6A0BD02C0E7E
:1005D0003F24D96EDA6A040EDA2247503F24F9EC40
:1005E00009F03F2A48503F5CF2E3400E0D6F0C17B4
:1005F0000CBD03D0496A492A01D0496A493A4946A3
:10060000494604010C514918BF0B49180C6F0C875F
:100610000C8F1200495006E1050E485C03E2496A5E
:10062000050E486E48504A6E49504B6E4C6A4D6AF2
:100630000A0ED8904A364B364C364D36E82EF9D74E
:100640004AC009F04BC00AF04CC00BF04DC00CF092
:100650000BC0F8FF0AC0F7FFF66A140EA66EB50EBF
:1006600067EF04F0476E080E1A6E1C0E1B6E040E28
:100670001C6E475006E1140E1B6E040E1C6E256A9C
:1006800002D0040E256E266E0BD819C0DEFF1AC0EC
:10069000DEFF1BC0DEFF1CC0DEFF02D8DF8E1200B3
:1006A00025C0D9FF26C0DAFF1200010E3D6E0F01F2
:1006B00016D8346A3450460FD96EDA6ADF6A342AA3
:1006C0003450F8E003C045F04550C9EC04F0035045
:1006D00003E1050E416E050C060E416E060C4D6BD6
:1006E0004E6B4F6B506B516B526B536B1200040E81
:1006F000411808E103C05EFF0F015E51050ED8B43A
:10070000030E416E3E04D8A4120076EC01F0020EF6
:10071000401802E108D8040C0401480E08BD080E78
:10072000086F088F1200040E0401086F088F040C74
:10073000030E416E0F015D6B626A7B0E5C6F5E6B38
:100740006FEC03F0160E4C6F658C03D06296FEECD6
:1007500009F062B6FBD7659C6598040E196E000E11
:1007600032EC03F0010E3A6E426A456A000EC9EFA0
:1007700004F081B818EC00F0060EF66E14D80D0ED9
:10078000F5180DE10900600EF51809E1F66A0BD8BD
:10079000F52803E10900F52802E000EF0AF018EC63
:1007A00000F000EF00F0140EF76EF86A0900140C68
:1007B0002306D8A0240623502410D8A412004E0EDD
:1007C000246E236A060E416002D08B80060C8BB02B
:1007D00003D0476A472A01D0476A8B504718FE0B5F
:1007E00047188B6E1200C0BC1200030ED36E6592C8
:1007F0006596F26A0ED808D0C0AC04D02D06D8A0F9
:100800002E0601D006D804002D502E10F5E1FF0071
:100810001200040E2E6E2D6A040C04EEACF014EEE1
:1008200000F0EE6AE550E150FCE1E250FAE100EE42
:1008300060F0820EEE6AE806FDE100EE01F0460E81
:10084000EE6AE806FDE10001B9EF03F00401086B70
:10085000406A00AF02D0006B3A6A04AF03D0046B69
:10086000010E3A6E3E6A3D6A2F6A306A6598C4ECA2
:1008700001F002EC00F027EF01F005D80AD8376A42
:100880000CD8386A12007E0E3B6E116AFC0E126E96
:10089000FC0C010E136E146A000C156816681768BC
:1008A000186812003F6A1E0E0F014D6F400E0401C2
:1008B0000D6F2C0E0E6F040E0F6F080E0C6F0C8F49
:1008C0006C0E126F040E136F400E106F400C476ECB
:1008D000F29EF3EC03F0B50E471804E0030ED36E5E
:1008E0000300FED7550EA76EAA0EA76EA682A6B26B
:1008F000FED7A69412005CCF35F0040E0F015C6F9A
:1009000062986582A198A088AAEC04F0A09835505E
:100910000F015C131200390402E1D1EC04F0656AA6
:10092000150E0F015F6F5C6B658698EC03F0010E8E
:10093000416E396A1200600ED36E9B8CDCEC04F0C1
:10094000BFEC04F0C16AC26A3DEC04F08B90949055
:10095000E7EF04F08B90D3CF31F00300A1B802D0C1
:10096000D0A6FBD731C0D3FF1200D9EC04F06592BA
:100970000F015C9501D0629462A41200FCD705D0EF
:10098000FEEC09F04706D8A0480647504810F8E1A9
:100990001200476E4704D8A4120052EC04F03DEF59
:1009A00004F06592656A48684768BFEC04F0416AE4
:1009B000120002D8BFEF04F0030E486E476A030C22
:1009C000390401E1120065A68BEC04F0120065B653
:0E09D000D1EC04F0396AE0EF04F012001200DE
:1010000000B6046134034D006900630072006F0094
:1010100063006800690070002000540065006300F0
:1010200068006E006F006C006F00670079002000A0
:1010300049006E0063002E000902290001010080B2
:10104000320904000002030000000921110100011F
:10105000221D000705810340000107050103400030
:101060000126034800490044002000550053004277
:1010700000200042006F006F0074006C006F006180
:10108000006400650072000600FF0901A10119015A
:101090002940150026FF0075089540810019012997
:1010A000409100C01201000200000008D8043C007A
:0B10B00001010102000104030904001B
:1010BC00060E4118D8B465B21200375001E017D1B2
:1010CC0004010CBF1200600E476E400E486EDDEC42
:1010DC0002F0010E376E276A286A2750A10FD96ECD
:1010EC00DA6A000EDF6E274A282A285005E1400EE6
:1010FC00275CD8B01200F1D71200020EA16F3A0E85
:10110C00A26F010EA36FA46FA56B140EA66FA76B35
:10111C00A86B000E1124A96FEC0E1220AA6FFF0E03
:10112C001320AB6FFF0E1420AC6F030EAD6FF80ED7
:10113C00AE6FAF69010EB06FB16B080EB26FB36BCF
:10114C00B46BB56BB669A50EDA6F040110BFA50CB4
:10115C00A10E476E400E486EB0EC02F0376A1200DA
:10116C00615106E17F0E3B6EF80E116E126802D0D3
:10117C0043EC04F049EC04F0F1D7286A050E276E15
:10118C000CD0FEEC09F027C048F028C049F00AEC5E
:10119C0003F09EEC09F0274A282A3B50526E536A02
:1011AC00522A000E53225250275C53502858D6E234
:1011BC00E8D715280EE116280CE117280AE11828A3
:1011CC0008E161C015F062C016F063C017F064C08E
:1011DC0018F015506119C2E116506219BFE1175091
:1011EC006319BCE118506419B9E1276A286A1AD04E
:1011FC006551A0082724D96EDA6AAC0E3824E16E4A
:10120C00E26A040EE222DFCFE7FF382A152A000E2D
:10121C001622172218223A0E381802E142EC02F07C
:10122C00274A282A00017CD899E2E2D742EC02F046
:10123C004DEC04F093D7070EA16F61C0A2F062C011
:10124C00A3F063C0A4F064C0A5F065C0A6F063C0B1
:10125C00F8FF62C0F7FF61C0F6FF276A286A0BD05F
:10126C00090000016551E1082724D96EDA6AF5CF2F
:10127C00DFFF274A282A54D8F3E3040110BF1200D9
:10128C0067D780EC00F06AD70C0EA16F010EA36F2C
:10129C00020EA26F160EF66ED3EC03F0F5CFA4F08F
:1012AC000A00F5CFA5F0060EA66F140EA76FA86B5B
:1012BC00A96B600EAB6F0D0EAA6FAC6B040EAD6F0D
:1012CC00000EAE6BAF6BB069B169B269B369B4694A
:1012DC00B569B669B769B86BB96BBA6BBB6BBC6BEC
:1012EC00BD6BBE6BBF6BC9D706EC00F037D70001E6
:1012FC006051020A01E101D7010A01E131D7070A65
:10130C0001E13BD7010A01E154D7030A8FE0010A3E
:10131C0092E00F0AE9E0010AB4E0050AB5E01ED735
:10132C006551526E536A5250275C53502858120024
:10133C00E0EC04F0415001E1120062B4B5EC04F0B1
:10134C0065B2120062B098EC03F062B87BEC04F06A
:10135C00030E416001D0030C3C6A62A6120064507B
:10136C0064CF4AF07C0E4A162AE164B203D02B6A91
:10137C00040E02D0040E2B6E2C6E62962BC0D9FF7D
:10138C002CC0DAFFDF30E8320F0B0D0A20E1336A94
:10139C0023D8DECF4AF0DDCF4BF04AC0D9FF4BC08B
:1013AC00DAFF3350010F1FD817D8DE2A000EDD22CA
:1013BC00332A070E3364ECD726EC04F008D0040E65
:1013CC00641804E1629677EC03F001D062963C2A33
:1013DC00030E3C64C2D7030C20EE02F02B50D9262E
:1013EC002C50DA221200E16EE26ADFCFE7FF120026
:0413FC0004001200D7
:0414000055EF0AF0AA
:101406000D605182FACF17F0FBCF18F0E9CF19F033
:10141600EACF1AF0E1CF1BF0E2CF1CF0D9CF1DF0D6
:10142600DACF1EF0F3CF1FF0F4CF20F0F6CF21F085
:10143600F7CF22F0F8CF23F0F5CF24F051C025F0F6
:1014460052C026F053C027F054C028F0F292F2B4EE
:10145600F2AA02D049EC96F028C054F027C053F007
:1014660026C052F025C051F024C0F5FF23C0F8FF76
:1014760022C0F7FF21C0F6FF20C0F4FF1FC0F3FF14
:101486001EC0DAFF1DC0D9FF1CC0E2FF1BC0E1FF72
:101496001AC0EAFF19C0E9FF18C0FBFF17C0FAFF20
:0814A600519211005CEF8FF080
:10FD220000001180002C0100B102003500360000F5
:10FD3200B202003500360000B30200350036000280
:10FD4200003500360000B4000000C0A200020084AA
:10FD52000000C1C50000C20D00000000C38D002AD2
:10FD62000000C48D00EE0000C50A000036C8000085
:10FD7200E012001C001000180033002C002500289F
:10FD820000280027002F003C0000000300030010A1
:10FD9200008000780000E112001C00100018002D05
:10FDA20000280023002800280026002F003B000026
:10FDB20000030003001000003A0500002A000002C0
:10FDC2000000008100002B000003000000A20000E0
:10FDD20029002C02000400080010002000400080CE
:10FDE2000000010001020001000100020200000304
:10FDF200030300000103070F1F3F7FFF00020103FF
:10FE0200010410000000000000005F000000070075
:10FE12000700147F147F14242A7F2A1223130864F4
:10FE22006236495522500005030000001C224100A1
:10FE32000041221C00082A1C2A0808083E08080063
:10FE42005030000008080808080060600000201018
:10FE52000804023E5149453E00427F400042615142
:10FE620049462141454B311814127F10274545451B
:10FE7200393C4A4949300171090503364949493635
:10FE8200064949291E003636000000563600000099
:10FE920008142241141414141441221408000201FB
:10FEA200510906324979413E7E1111117E7F49493D
:10FEB20049363E414141227F4141221C7F49494905
:10FEC200417F090901013E414151327F0808087F03
:10FED20000417F41002040413F017F081422417FC1
:10FEE200404040407F0204027F7F0408107F3E4171
:10FEF20041413E7F090909063E4151215E7F0919B0
:10FF02002946464949493101017F01013F404040AC
:10FF12003F1F2040201F7F2018207F631408146396
:10FF22000304780403615149454300007F414102C3
:10FF32000408102041417F000004020102044040F5
:10FF4200404040000102040020545454787F484449
:10FF520044383844444420384444487F3854545444
:10FF620018087E090102081454543C7F08040478DE
:10FF720000447D40002040443D00007F10284400A2
:10FF8200417F40007C041804787C080404783844DB
:10FF92004444387C14141408081414187C7C080493
:10FFA20004084854545420043F4440203C4040201C
:10FFB2007C1C2040201C3C4030403C4428102844FB
:10FFC2000C5050503C4464544C44000836410000EC
:10FFD200007F0000004136080008082A1C08081C9F
:10FFE2002A080800FCFF0F0000FFFFF0FF00FFFFE0
:0EFFF200004A616D696E204561726C790000F5
:020000040001F9
:100000000CD0AA0E0001F46F010E04D0B50E000151
:10001000F46F010E0001F56F08D00001F251000AE3
:10002000D8B4EFD7010AD8B4F1D7000120EE02F01E
:10003000F451D926F551DA22F2C0DFFFB1D08F0E8C
:100040000001E76F000E0001E86F020E0001E96F8A
:10005000030E0001EA6F2CEC86F08F0E0001E76FB3
:10006000000E0001E86F030E0001E96F030E0001AE
:10007000EA6F2CEC86F08F0E0001E76F000E000196
:10008000E86F050E0001E96F030E0001EA6F2CEC2A
:1000900086F08F0E0001E76F000E0001E86F040E7E
:1000A0000001E96F000E0001EA6F2CEC86F0000100
:1000B00020EE03F0F451D926F551DA22C70EDE6E98
:1000C0000F0EDD6E000120EE06F0F451D926F55139
:1000D000DA22C60EDE6E0F0EDD6E000120EE09F094
:1000E000F451D926F551DA22C90E56D0850E0001F9
:1000F000E76F000E0001E86F070E0001E96F030EC5
:100100000001EA6F2CEC86F0850E0001E76F000E0F
:100110000001E86F060E0001E96F030E0001EA6FAF
:100120002CEC86F0850E0001E76F000E0001E86FF1
:10013000040E0001E96F030E0001EA6F2CEC86F05B
:10014000850E0001E76F000E0001E86F050E00014B
:10015000E96F000E0001EA6F2CEC86F0000120EE42
:1001600003F0F451D926F551DA226D0EDE6E0F0E32
:10017000DD6E000120EE06F0F451D926F551DA22A9
:100180006C0EDE6E0F0EDD6E000120EE09F0F451F4
:10019000D926F551DA226F0EDE6E0F0EDD6E09D014
:1001A0000001F251000AD8B44AD7010AD8A41200BB
:1001B0009DD7000120EE06F0F451D926F551DA2240
:1001C000DECFC1F0DDCFC2F0050E0001C36F000E1F
:1001D0000001C46FE4EC92F09CD0000120EE06F028
:1001E000F451D926F551DA22DECFC1F0DDCFC2F0CD
:1001F000040E0001C36F000E0001C46FE4EC92F026
:10020000000120EE03F0F451D926F551DA22DECFB9
:10021000C1F0DDCFC2F0060E0001C36F000E000179
:10022000C46FE4EC92F084D0000120EE06F0F451AB
:10023000D926F551DA22DECFC1F0DDCFC2F0040EAF
:100240000001C36F000E0001C46FE4EC92F00001E6
:1002500020EE03F0F451D926F551DA22DECFC1F0B9
:10026000DDCFC2F0060E0001C36F010E0001C46FA6
:10027000E4EC92F05DD0000120EE06F0F451D926B6
:10028000F551DA22DECFC1F0DDCFC2F0040E00015D
:10029000C36F010E0001C46FE4EC92F0000120EE88
:1002A00003F0F451D926F551DA22DECFC1F0DDCFCB
:1002B000C2F0060E0001C36F000E0001C46FE4EC33
:1002C00092F036D0000120EE06F0F451D926F55117
:1002D000DA22DECFC1F0DDCFC2F0040E0001C36F21
:1002E000010E0001C46FE4EC92F0000120EE03F077
:1002F000F451D926F551DA22DECFC1F0DDCFC2F0BC
:10030000060E0001C36F010E0001C46FE4EC92F011
:100310000FD00001F351000AD8B45FD7010AD8B456
:1003200083D7030AD8B4A7D7010AD8A41200CAD722
:10033000000120EE06F0F451D926F551DA22DECF85
:10034000C1F0DDCFC2F0070E0001C36F000E000147
:10035000C46FE4EC92F0000120EE06F0F451D926CF
:10036000F551DA22DECFC1F0DDCFC2F0060E00017A
:10037000C36F000E0001C46FE4EC92F0EEC0CEF04B
:10038000EFC0CFF0F0C0D0F0F1C0D1F01BEC8AF09C
:10039000F4C0C1F0F5C0C2F035EC96F004D09F86F1
:1003A0000BD0A58E09D00001F251000AD8B4F7D7BE
:1003B000010AD8A41200F5D7F4C0C1F0F5C0C2F00C
:1003C000EDEC95F0F4C0D9FFF5C0DAFF000EDF6E5A
:1003D000000120EE06F0F451D926F551DA22DECFE5
:1003E000CCF0DDCFCDF0000E0001CE6F030E00018A
:1003F000CF6F7EEC96F0000120EE06F0F451D92686
:10040000F551DA22DECFC1F0DDCFC2F0050E0001DA
:10041000C36F010E0001C46FE4EC92F01200080EED
:100420000001D0250001CD6F000E0001D121000197
:10043000CE6F000E0001CF6F7AEC95F00001E76FF0
:100440000001E7510001D36FD46B0E0ED89000016C
:10045000D337D437E82EFAD70001E7510001D56F22
:10046000D66B0C0ED8900001D537D637E82EFAD7C8
:100470000001E7510001D76FD86B0A0ED890000138
:10048000D737D837E82EFAD70001E7510001DA6FE5
:10049000D96B0001E7510001DB6FDC6B060ED890D1
:1004A0000001DB37DC37E82EFAD70001E751000105
:1004B000DD6FDE6B0001DD3BDE3BF00EDE17DD5154
:1004C0000F0BDE13F00EDD170001E7510001DF6FA7
:1004D000E06B0001D890DF37E0370001D890DF37BC
:1004E000E0370001E7510001E16FE26B0001DF51ED
:1004F0000001E1130001E0510001E2130001DD51B0
:100500000001E1130001DE510001E2130001DB51A3
:100510000001E1130001DC510001E2130001D95197
:100520000001E1130001DA510001E2130001D7518B
:100530000001E1130001D8510001E2130001D5517F
:100540000001E1130001D6510001E2130001D35173
:100550000001E1110001E36F0001D4510001E2113B
:100560000001E46FE7C0E5F00001E66B080E000152
:10057000D0250001CD6F000E0001D1210001CE6F0A
:10058000010E0001CF6F7AEC95F00001D36FD46BB0
:100590000001D890D337D4370001D890D337D4375F
:1005A0000001D3510001E5130001D4510001E6130D
:1005B000080E0001D0250001CD6F000E0001D121F1
:1005C0000001CE6F020E0001CF6F7AEC95F00001B2
:1005D000D36FD46B0001D33BD43BF00ED417D3516F
:1005E0000F0BD413F00ED3170001D3510001E51304
:1005F0000001D4510001E613080E0001D0250001CE
:10060000CD6F000E0001D1210001CE6F030E00015D
:10061000CF6F7AEC95F00001D36FD46B060ED890B3
:100620000001D337D437E82EFAD70001D3510001A7
:10063000E5130001D4510001E613080E0001D02596
:100640000001CD6F000E0001D1210001CE6F040E1C
:100650000001CF6F7AEC95F00001D36F0001D35108
:100660000001D56FD46B0001D4510001E5130001E6
:10067000D5510001E613080E0001D0250001CD6F11
:10068000000E0001D1210001CE6F050E0001CF6FD9
:100690007AEC95F00001D36FD46B0A0ED89000016C
:1006A000D337D437E82EFAD70001D3510001E51330
:1006B0000001D4510001E613080E0001D02500010D
:1006C000CD6F000E0001D1210001CE6F060E00019A
:1006D000CF6F7AEC95F00001D36FD46B0C0ED890ED
:1006E0000001D337D437E82EFAD70001D3510001E7
:1006F000E5130001D4510001E613080E0001D025D6
:100700000001CD6F000E0001D1210001CE6F070E58
:100710000001CF6F7AEC95F00001D36FD46B0E0E11
:10072000D8900001D337D437E82EFAD70001D3513F
:100730000001E5130001D4510001E6130001E55169
:100740000001E31948E10001E6510001E419D8A4D1
:10075000120032D0000120EE02F0D051D926D15142
:10076000DA22DECFC1F0DDCFC2F0D2C0C3F0FEECA2
:1007700096F012000001D21F000120EE02F0D051CD
:10078000D926D151DA22DECFC1F0DDCFC2F0D2C0FE
:10079000C3F0FEEC96F01200000120EE04F0D05100
:1007A000D926D151DA22DECFC1F0DDCFC2F0D2C0DE
:1007B000C3F0FEEC96F012000001E751000AD8B435
:1007C0001200010AD8B4C6D7030AD8B4D3D7010A95
:1007D000D8A41200E1D71200050E0001F76FC7D0B0
:1007E000020120EE02F00051D9260151DA22DECFBB
:1007F000CCF0DDCFCDF002C2CEF00F0E0001CF6FF6
:100800007EEC96F0020120EE04F00051D926015151
:10081000DA22DECFCCF0DDCFCDF002C2CEF0000E7A
:100820000001CF6F7EEC96F0B0D000C2F0F001C2B4
:10083000F1F002C2F2F0030E0001F36F75EC93F0D9
:100840000001F76F0001F751D8A41200020120EE59
:1008500002F00051D9260151DA22DECFCCF0DDCFF3
:10086000CDF002C2CEF0000E0001CF6F7EEC96F00C
:10087000020120EE04F00051D9260151DA22DECF28
:10088000CCF0DDCFCDF002C2CEF0000E0001CF6F74
:100890007EEC96F07AD000C2F0F001C2F1F002C214
:1008A000F2F0030E0001F36F75EC93F00001F76FA7
:1008B0000001F751D8A41200020120EE02F000510D
:1008C000D9260151DA22DECFCCF0DDCFCDF002C245
:1008D000CEF00F0E0001CF6F7EEC96F0020120EEFD
:1008E00004F00051D9260151DA22DECFCCF0DDCF61
:1008F000CDF002C2CEF00F0E0001CF6F7EEC96F06D
:1009000044D000C2F0F001C2F1F002C2F2F0030ED6
:100910000001F36F75EC93F00001F76F0001F751E0
:10092000D8A41200020120EE02F00051D926015194
:10093000DA22DECFCCF0DDCFCDF002C2CEF0000E59
:100940000001CF6F7EEC96F0020120EE04F0005122
:10095000D9260151DA22DECFCCF0DDCFCDF002C2B4
:10096000CEF0000E0001CF6F7EEC96F00ED00201AB
:100970000351000AD8B434D7010AD8B456D7030AB1
:10098000D8B489D7010AD8B4BCD7080E0201002513
:100990000001D06F000E020101210001D16F0201A0
:1009A0000251040DF3CFD2F003C2D3F0B5EC94F0B2
:1009B000080E020100250001D06F000E0201012186
:1009C0000001D16F02010251040DF3280001D26F22
:1009D00003C2D3F0B5EC94F0080E0201002500012B
:1009E000D06F000E020101210001D16F02010251FE
:1009F000040DF350020F0001D26F03C2D3F0B5EC27
:100A000094F0080E020100250001D06F000E0201D3
:100A100001210001D16F02010251040DF350030FB7
:100A20000001D26F03C2D3F0B5EC94F01200050EB2
:100A30000201056F7AD0020120EE02F00051D926A2
:100A40000151DA22DECF03F2DDCF04F203C2D9FF77
:100A500004C2DAFFFF0E67D000C2F7F001C2F8F05F
:100A6000010E0001F96F6DEC94F00201056F0201B7
:100A70000551D8A41200020120EE02F00051D9263F
:100A80000151DA22DECF03F2DDCF04F203C2D9FF37
:100A900004C2DAFF000EDF6E020120EE04F036D051
:100AA00000C2F7F001C2F8F0020E0001F96F6DEC20
:100AB00094F00201056F02010551D8A41200020151
:100AC00020EE02F00051D9260151DA22DECF03F2E6
:100AD000DDCF04F203C2D9FF04C2DAFFFF0EDF6EDE
:100AE000020120EE04F0AAD700C2F7F001C2F8F02C
:100AF000000E0001F96F6DEC94F00201056F020128
:100B00000551D8A41200020120EE02F00051D926AE
:100B10000151DA22DECF03F2DDCF04F203C2D9FFA6
:100B200004C2DAFF000EDF6E0ED002010251000A8D
:100B3000D8B481D7010AD8B48FD7030AD8B4B0D7B4
:100B4000010AD8B4D1D7080E020100250001D06FE8
:100B5000000E020101210001D16F000E0001D26FD1
:100B600002C2D3F0B5EC94F0080E0201002500019A
:100B7000D06F000E020101210001D16F010E0001B2
:100B8000D26F02C2D3F0B5EC94F0080E020100253A
:100B90000001D06F000E020101210001D16F020E91
:100BA0000001D26F02C2D3F0B5EC94F0080E02013E
:100BB00000250001D06F000E020101210001D16F5C
:100BC000030E0001D26F02C2D3F0B5EC94F0080E10
:100BD000020100250001D06F000E02010121000179
:100BE000D16F040E0001D26F02C2D3F0B5EC94F0C5
:100BF000080E020100250001D06F000E0201012144
:100C00000001D16F050E0001D26F02C2D3F0B5EC26
:100C100094F0080E020100250001D06F000E0201C1
:100C200001210001D16F060E0001D26F02C2D3F084
:100C3000B5EC94F0080E020100250001D06F000E03
:100C4000020101210001D16F070E0001D26F02C223
:100C5000D3F0B5EC94F01200E7C0D9FFE8C0DAFF9A
:100C6000DECFECF0DDCFEDF0050E0001EB6FB5D07F
:100C7000000120EE02F0E751D926E851DA22DECF5A
:100C8000C1F0DDCFC2F0E9C0C3F0010E0001C46FB6
:100C9000E4EC92F0B0D0ECC0D0F0EDC0D1F0010E99
:100CA0000001D26FE9C0D3F026EC91F00001EB6FA8
:100CB0000001EB51D8A41200000120EE02F0E75130
:100CC000D926E851DA22DECFC1F0DDCFC2F0E9C08B
:100CD000C3F0000E0001C46FE4EC92F0000120EEBE
:100CE00004F0E751D926E851DA22DECFC1F0DDCF9A
:100CF000C2F0E9C0C3F0000E0001C46FE4EC92F052
:100D00007AD0ECC0D0F0EDC0D1F0020E0001D26F6D
:100D1000E9C0D3F026EC91F00001EB6F0001EB513C
:100D2000D8A41200000120EE02F0E751D926E851C4
:100D3000DA22DECFC1F0DDCFC2F0E9C0C3F0010E90
:100D40000001C46FE4EC92F0000120EE04F0E751E2
:100D5000D926E851DA22DECFC1F0DDCFC2F0E9C0FA
:100D6000C3F0010E0001C46FE4EC92F044D0ECC07B
:100D7000D0F0EDC0D1F0000E0001D26FE9C0D3F089
:100D800026EC91F00001EB6F0001EB51D8A41200AA
:100D9000000120EE02F0E751D926E851DA22DECF39
:100DA000C1F0DDCFC2F0E9C0C3F0000E0001C46F96
:100DB000E4EC92F0000120EE04F0E751D926E8516E
:100DC000DA22DECFC1F0DDCFC2F0E9C0C3F0000E01
:100DD0000001C46FE4EC92F00ED00001EA51000A69
:100DE000D8B446D7010AD8B456D7030AD8B489D79D
:100DF000010AD8B4BCD7080E0001E7250001D06F66
:100E0000000E0001E8210001D16FE9C0D2F0EAC074
:100E1000D3F0B5EC94F012000001D46FAFD0ADEC7C
:100E20008FF0120047EC93F01200E1EC90F012000A
:100E300040EC8CF01200B1EC92F01200CBEC96F08A
:100E40001200D4C0D1F07F0E0001D11700017951FA
:100E5000140D0C0E0001D26F020E0001D36FF3507F
:100E60000001D227F4500001D32300017A51010D73
:100E7000F3500001D225D96EF4500001D321DA6E6F
:100E8000DF507F0B0001D119D8B42DD0010E4B6E6D
:100E900000017951140D0C0E0001D16F020E0001FA
:100EA000D26FF3500001D127F4500001D22300018A
:100EB0007A51010DF3500001D125D96EF450000193
:100EC000D221DA6E0001D4518009DF6E0001795120
:100ED000020D000EF324D96E010EF420DA6EFEC06E
:100EE000DEFFFFC0DDFFB1EC92F00009D8B41200C4
:100EF000D4C0D1F07F0E0001D11700017951140D3B
:100F00000C0E0001D26F020E0001D36FF3500001EE
:100F1000D227F4500001D32300017A51010DF35080
:100F20000001D225D96EF4500001D321DA6EDF50D2
:100F30007F0B0001D119D8B41200010E4B6E0001D5
:100F40007951140D0C0E0001D16F020E0001D26F09
:100F5000F3500001D127F4500001D22300017A514F
:100F6000010DF3500001D125D96EF4500001D221BA
:100F7000DA6E0001D4518009DF6E12000001D451F5
:100F8000070AD8B458D70F0AD8B44CD7010AD8B436
:100F90004FD7030AD8B443D7060AD8B446D7010AB4
:100FA000D8B43DD72D0AD8B44CD7030AD8B446D705
:100FB00048D702010851B6EC8EF006C2D9FF07C22D
:100FC000DAFF0001C1C0DEFF0001C2C0DDFF020187
:100FD000085109EC8FF0020120EE06F00651D926E7
:100FE0000751DA220001C1C0DEFF0001C2C0DDFFEF
:100FF0000201085109EC8FF0020120EE04F00651C5
:10100000D9260751DA220001C1C0DEFF0001C2C0AB
:10101000DDFF0201085163EC8EF0020120EE02F0C8
:101020000651D9260751DA220001C1C0DEFF0001B6
:10103000C2C0DDFF020120EE04F00651D92607519F
:10104000DA22DECF09F2DDCF0AF209C2D9FF0AC2E5
:10105000DAFF000EDF6E020120EE02F00651D92603
:101060000751DA22DECF09F2DDCF0AF209C2D9FF39
:101070000AC2DAFFFF0EDF6E06C200F207C201F2FB
:10108000000E0201026F17EC85F0000E02010B6FDB
:10109000070E02010B6531D04BD006C2E7F007C244
:1010A000E8F00BC2E9F0030E0001EA6F2CEC86F0C9
:1010B0003CD006C2E7F007C2E8F00BC2E9F0020E2E
:1010C0000001EA6F2CEC86F030D006C2E7F007C2D0
:1010D000E8F00BC2E9F0010E0001EA6F2CEC86F09B
:1010E00024D006C2E7F007C2E8F00BC2E9F0000E18
:1010F0000001EA6F2CEC86F018D006C2D9FF07C2B7
:10110000DAFFDECFCDF0DDCFCEF00BC2CFF07AEC40
:1011100095F0000AD8B4C1D7010AD8B4D6D7030ACB
:10112000D8B4C7D7010AD8B4DCD702010B2BB0D78B
:1011300006C2D0F007C2D1F0000E0001D26F0FEC52
:1011400082F01200010E4A6E000E0001686F000E60
:101150000001696F000E00016A6FE80E0201066F60
:10116000010E0201076F000E0201086FD9EC87F033
:10117000DE0E0201066F010E0201076F010E020171
:10118000086FD9EC87F08F0E0201066F000E020186
:10119000076F020E0201086FD9EC87F0850E02017D
:1011A000066F000E0201076F030E0201086FD9ECF3
:1011B00087F07B0E0201066F000E0201076F040E1E
:1011C0000201086FD9EC87F0990E0201066F000E3C
:1011D0000201076F050E0201086FD9EC87F0D40EEB
:1011E0000201066F010E0201076F060E0201086F71
:1011F000D9EC87F0990E0001E76F000E0001E86F4F
:10120000050E0001E96F000E0001EA6F2CEC86F07C
:10121000DE0E0201006F010E0201016F000E0201DD
:10122000026F000E0201036FECEC83F0990E0001D7
:10123000E76F000E0001E86F060E0001E96F030E74
:101240000001EA6F2CEC86F0D40E0201006F010E53
:101250000201016F030E0201026F17EC85F0D40E3C
:101260000001D06F010E0001D16F040E0001D26F9A
:10127000000E0001D36FDEEC8BF0990E0001D06FF1
:10128000000E0001D16F060E0001D26F010E0001A9
:10129000D36FDEEC8BF0000E16EC93F0010E16EC23
:1012A00093F0000E9E6E000EA16E000EA46E9B8E3B
:1012B0009B8C000E0001C26F640EC16F7CEC92F03B
:1012C000D08E1200D9EC91F0000E0001F96F000EE3
:1012D000F86F0001F95106E1590E0001F85DD8B030
:1012E0008BD001D089D0D8900001F835F66E00017E
:1012F000F935F76E230EF626FD0EF722F86A000E7A
:10130000F8220900800EF5180900F510D8A422D0A3
:101310000001F9511FE1580E0001F85DD8B01AD054
:101320000001F84BF92BD8900001F835F66E00015A
:10133000F935F76E230EF626FD0EF722F86A000E39
:10134000F8220900F5CFC1F00A00F5CFC2F07CEC1D
:1013500092F04BD0D8900001F835F66E0001F935C7
:10136000F76E230EF626FD0EF722F86A000EF8221D
:101370000900000EF55E0900010EF55AD8A020D034
:10138000000E0001C46FD8900001F835F66E000120
:10139000F935F76E230EF626FD0EF722F86A000ED9
:1013A000F8220900F5CFF6F00900F5CFF7F0F7C005
:1013B000F6F00001F76B0001F6515CEC96F015D0E9
:1013C000010E0001C46FD8900001F835F66E0001DF
:1013D000F935F76E230EF626FD0EF722F86A000E99
:1013E000F8220800F5505CEC96F00001F84BF92B60
:1013F0000001F95101E170D7000E0001C26F640EC7
:10140000C16F7CEC92F0000E0001C46F290E5CEC01
:1014100096F0010E4BEC90F0000E0001C26F640ECE
:10142000C16F7CEC92F0000E0001CB6F000ECA6F12
:10143000A2EC93F01200000E0001D76F6C0ED86F73
:10144000DC0ED96F020EDA6F0001D890CE37CF379D
:10145000D037D137020E0001D26FD8900001DA33B5
:10146000D933D833D7330001D22FF7D7D7C0C1F043
:10147000D8C0C2F0D9C0C3F0DAC0C4F0CEC0C5F045
:10148000CFC0C6F0D0C0C7F0D1C0C8F000EC8DF01E
:10149000C1C0DBF0C2C0DCF0C3C0DDF0C4C0DEF010
:1014A00010D0000E0001D36F000ED46F000ED56F68
:1014B000000ED66F0001782B020E0001786501D076
:1014C00026D0DBC0C1F0DCC0C2F0DDC0C3F0DEC09E
:1014D000C4F000017851010D020EF324F66EFE0EE9
:1014E000F420F76EF86A000EF8220800F5500001AB
:1014F000C56FC66BC76BC86B00EC8DF00001C451A3
:101500000001C311CEE10001C205D8B0CAD7CA504C
:1015100000017819FC0B7819CA6ECA8429EC97F07F
:1015200000017851010D020EF324F66EFE0EF42038
:10153000F76EF86A000EF8220800F5CF77F0FF0E7C
:101540000001DB250001606FFF0E0001DC210001BE
:10155000616FFF0E0001DD210001626FFF0E0001CF
:10156000DE210001636F60C0C1F061C0C2F062C0E3
:10157000C3F063C0C4F0000177510001C56FC66BB2
:10158000C76BC86B00EC8DF00001C1510001786F92
:1015900078C0CBFF120051B25EEF8BF0000120EE5D
:1015A00004F07251D9267351DA22DF50FBEC94F02B
:1015B0000009D8B47AD072C0D9FF73C0DAFFDE5008
:1015C000DE10D8B46DD072C0D9FF73C0DAFF010E3F
:1015D000DBBE26D0010EDB5003E1DE04D8A020D014
:1015E00072C0D9FF73C0DAFFDE2804E17F0EDE1877
:1015F000D8B407D072C0D9FF73C0DAFFDE06000E80
:10160000DD5A7B0E0001D06F000E0001D16F000E7D
:101610000001D26F010E0001D36FDEEC8BF01FD002
:1016200072C0D9FF73C0DAFFDE0404E1800EDE1859
:10163000D8B407D072C0D9FF73C0DAFFDE2A000E1B
:10164000DD227B0E0001D06F000E0001D16F000E75
:101650000001D26F000E0001D36FDEEC8BF07B0E29
:101660000001D06F000E0001D16F010E0001D26F9A
:10167000010E0001D36FDEEC8BF07B0E0001D06F0A
:10168000000E0001D16F010E0001D26F000E0001AB
:10169000D36FDEEC8BF0DAEC96F013EC97F01200DF
:1016A000DAEC96F030EC97F012006BC0C1F06CC031
:1016B000C2F06DC0C3F005EC97F01200000120EEFF
:1016C00004F07251D9267351DA22DF50B8EC95F04C
:1016D0000009D8B46AD072C0D9FF73C0DAFFDE50F7
:1016E000DE10D8B45DD072C0D9FF73C0DAFF010E2E
:1016F000DBBE22D0010EDB5003E1DE04D8A01CD0FB
:1017000072C0D9FF73C0DAFFDE2804E17F0EDE1855
:10171000D8B407D072C0D9FF73C0DAFFDE06000E5E
:10172000DD5A7B0E106E000E116E000E126E010E51
:10173000136E0EEC8EF01BD072C0D9FF73C0DAFFAF
:10174000DE0404E1800EDE18D8B407D072C0D9FFE1
:1017500073C0DAFFDE2A000EDD227B0E106E000E53
:10176000116E000E126E000E136E0EEC8EF07B0EDC
:10177000106E000E116E010E126E010E136E0EEC45
:101780008EF07B0E106E000E116E010E126E000EAA
:10179000136E0EEC8EF036EC97F019EC97F0120009
:1017A00036EC97F033EC97F012006BC001F06CC090
:1017B00002F06DC003F00CEC97F01200080E00016F
:1017C000D0250001CD6F000E0001D1210001CE6FA8
:1017D000D2C0CFF07AEC95F00001D46F42D0010E68
:1017E0000001D317000120EE02F0D051D926D151CB
:1017F000DA22DECFC1F0DDCFC2F0D2C0C3F0D3C059
:10180000C4F0E4EC92F01200010E0001D317010EB7
:101810000001D31B000120EE02F0D051D926D15196
:10182000DA22DECFC1F0DDCFC2F0D2C0C3F0D3C028
:10183000C4F0E4EC92F01200010E0001D317000195
:1018400020EE04F0D051D926D151DA22DECFC1F0FA
:10185000DDCFC2F0D2C0C3F0D3C0C4F0E4EC92F04C
:1018600012000001D451000AD8B41200010AD8B401
:10187000B6D7030AD8B4C8D7010AD8A41200DCD757
:10188000000E0001CF6FFA0E46240001C16FFF0E5B
:1018900047200001C26F000E0001C46F060EC36F27
:1018A000A1EC8CF00001C1510001D06FD0C0C1F09B
:1018B0000001C26B000E0001C46F040EC36FA1ECE7
:1018C0008CF00001C1510001CE6F000E0001CF6FFE
:1018D00006D099EC95F0B1EC92F00001CF2B00010D
:1018E000CE51040DF31EF41EF34AF42A0001D05128
:1018F0000001C96FCA6BF3500001C927F450000101
:10190000CA230001C91FCA1FC94BCA2B040E0001FC
:10191000C927000ECA230001CF510001CB6FCC6B49
:101920000001C9510001CB5D0001CC51800A0001CA
:10193000CD6F0001CA51800A0001CD59D8B0120004
:10194000C8D7000E0001C66F0001C4AF08D0000167
:10195000C36DC41FD8B0C42B010E0001C66F0001B7
:10196000C2AF08D00001C16DC21FD8B0C22B010E9A
:101970000001C61B000E0001C86F000EC76F0001FA
:10198000C3510001C411D8B42CD0010E0001C56FA1
:1019900006D00001D890C337C4370001C52B000121
:1019A000C4AFF7D70001D890C737C8370001C3517B
:1019B0000001C15D0001C4510001C259D8A00AD084
:1019C0000001C3510001C15F0001C4510001C25BAD
:1019D0000001C7810001D890C433C3330001C52F73
:1019E000E1D70001C6510001D8B405D00001C76D90
:1019F000C81FD8B0C82BC7C0C1F0C8C0C2F0120001
:101A0000000E0001C96F000ECA6F000ECB6F000EF2
:101A1000CC6F0001C5510001C6110001C7110001C2
:101A2000C811D8B442D0010E0001CD6F08D000011A
:101A3000D890C537C637C737C8370001CD2B00014E
:101A4000C8AFF5D70001D890C937CA37CB37CC37E4
:101A50000001C5510001C15D0001C6510001C2591C
:101A60000001C7510001C3590001C8510001C45908
:101A7000D8A012D00001C5510001C15F0001C651BC
:101A80000001C25B0001C7510001C35B0001C851E6
:101A90000001C45B0001C9810001D890C833C7337D
:101AA000C633C5330001CD2FCDD7C9C0C1F0CAC0E0
:101AB000C2F0CBC0C3F0CCC0C4F012000001C551CD
:101AC000010DF50EF324F66EFD0EF420F76EF86AA4
:101AD000000EF8220800F5CFCBF0000E0001CA6F0F
:101AE00006D00001C3510001C45F0001CA2B0001F0
:101AF000C3510001C45DD8B0F4D70001C551000145
:101B0000C403F350C46F0001CA510001C42700018F
:101B1000CB510001C617C4C0C7F0CBC0C8F000014C
:101B2000C72B03D00001D890C8370001C72FFAD7C0
:101B30000001C851FF0A0001C96FC1C0D9FFC2C06E
:101B4000DAFF0001C951DF16C4C0C7F0C6C0C8F033
:101B50000001C72B03D00001D890C8370001C72F60
:101B6000FAD7C1C0D9FFC2C0DAFF0001C851DF12E5
:101B700012000001C96F020E0001C627020E00010B
:101B8000C827030E0001C927030E0001C727000E56
:101B90000001C46F2A0E5CEC96F0010E0001C46FC8
:101BA000000E5CEC96F0010E0001C46F0001C951FB
:101BB0005CEC96F0010E0001C46F000E5CEC96F038
:101BC000010E0001C46F0001C7515CEC96F0000EDD
:101BD0000001C46F2B0E5CEC96F0010E0001C46F87
:101BE000000E5CEC96F0010E0001C46F0001C651BE
:101BF0005CEC96F0010E0001C46F000E5CEC96F0F8
:101C0000010E0001C46F0001C8515CEC96F0000E9B
:101C10000001C46F2C0E5CEC96F01200080E10242C
:101C20000D6E000E11200E6E12C00FF01DEC96F01E
:101C3000146E3BD0010E131620EE02F01050D92680
:101C40001150DA22DECF01F0DDCF02F012C003F036
:101C500013C004F047EC94F01200010E1316010EAD
:101C6000131A20EE02F01050D9261150DA22DECFDE
:101C700001F0DDCF02F012C003F013C004F047EC16
:101C800094F01200010E131620EE04F01050D92625
:101C90001150DA22DECF01F0DDCF02F012C003F0E6
:101CA00013C004F047EC94F012001450000AD8B4AA
:101CB0001200010AD8B4BED7030AD8B4CED7010A9D
:101CC000D8A41200DFD70001C36F38D0920E0001F4
:101CD000C16F0F0E0001C26F1200930E0001C16FA1
:101CE0000F0E0001C26F1200940E0001C16F0F0EA3
:101CF0000001C26F1200950E0001C16F0F0E0001AE
:101D0000C26F1200960E0001C16F0F0E0001C26F6C
:101D10001200970E0001C16F0F0E0001C26F12007A
:101D2000980E0001C16F0F0E0001C26F1200000E6D
:101D30000001C16F000E0001C26F12000001C3510B
:101D4000000AD8B4C3D7010AD8B4C7D7030AD8B495
:101D5000CBD7010AD8B4CFD7070AD8B4D3D7010A52
:101D6000D8B4D7D7030AD8B4DBD7E1D70001C36F03
:101D700038D0F10E0001C16FFF0E0001C26F1200DA
:101D8000EF0E0001C16FFF0E0001C26F1200ED0ED9
:101D90000001C16FFF0E0001C26F1200EB0E0001C7
:101DA000C16FFF0E0001C26F1200E90E0001C16F8A
:101DB000FF0E0001C26F1200E70E0001C16FFF0E9F
:101DC0000001C26F1200E50E0001C16FFF0E00019D
:101DD000C26F1200000E0001C16F000E0001C26F41
:101DE00012000001C351000AD8B4C3D7010AD8B405
:101DF000C7D7030AD8B4CBD7010AD8B4CFD7070ABC
:101E0000D8B4D3D7010AD8B4D7D7030AD8B4DBD70C
:101E1000E1D70001C36F38D0800E0001C16F0F0EF3
:101E20000001C26F1200810E0001C16F0F0E000190
:101E3000C26F1200820E0001C16F0F0E0001C26F4F
:101E40001200830E0001C16F0F0E0001C26F12005D
:101E5000840E0001C16F0F0E0001C26F1200850ECB
:101E60000001C16F0F0E0001C26F1200860E00014B
:101E7000C16F0F0E0001C26F1200000E0001C16F92
:101E8000000E0001C26F12000001C351000AD8B455
:101E9000C3D7010AD8B4C7D7030AD8B4CBD7010A2D
:101EA000D8B4CFD7070AD8B4D3D7010AD8B4D7D774
:101EB000030AD8B4DBD7E1D7490EF66E2E0EF76EC3
:101EC000010EF86E01EEF7F010EE08F00900F5CF04
:101ED000EEFFE550E150FAE15A0EF66E2E0EF76E67
:101EE000010EF86E00EEFAF010EE06F00900F5CFE4
:101EF000EEFFE550E150FAE13E0EF66E2E0EF76E63
:101F0000010EF86E00EE46F010EE0BF00900F5CF72
:101F1000EEFFE550E150FAE102EE0CF011EE2CF08C
:101F2000EE6AE550E150FCE1E250FAE101EE00F02A
:101F3000F70EEE6AE806FDE100EE60F0610EEE6A73
:101F4000E806FDE100EE29F01D0EEE6AE806FDE16F
:101F500051905192000197EF90F03DD000017951DE
:101F6000140D0C0E0001C16F020E0001C26FF35080
:101F70000001C127F4500001C22300017A51010D74
:101F8000F3500001C125D96EF4500001C221DA6E70
:101F9000DF50D8B41ED0010E4B6E00017951140DE4
:101FA0000C0E0001C16F020E0001C26FF350000160
:101FB000C127F4500001C22300017A51010DF350F2
:101FC0000001C125D96EF4500001C221DA6E800EE5
:101FD000DF6E00017A2B130E00017A65BFD7000E69
:101FE00000017A6F0001792B080E4826000E492265
:101FF000000E476E060E466E1200C1C0F6FFC2C04C
:10200000F7FF000EF86E0F0EF76403D00800F550CE
:1020100005D0F6CFE9FFF7CFEAFFEF500001C96F17
:102020000001C551010DF50EF324F66EFD0EF420EE
:10203000F76EF86A000EF8220800F5CFC7F0000E20
:102040000001C86F06D00001C3510001C45F000148
:10205000C82B0001C3510001C45DD8B0F4D7000102
:10206000C5510001C403F350C46F0001C851000101
:10207000C4270001C4290001C66F03D00001D89015
:10208000C9330001C62FFAD70001C7510001C91793
:102090000001C95112000001C66F000E0001C76F98
:1020A000000E0001C46F360E5CEC96F00001C651C4
:1020B000030B0001C76F2CD0010E0001C46FC80EC6
:1020C0005CEC96F0800E506E800E4F6E1200010E8A
:1020D0000001C46FA80E5CEC96F0800E506E800E6E
:1020E0004F6E1200010E0001C46F080E5CEC96F0FA
:1020F000800E506E800E4F6E1200010E0001C46FF4
:10210000680E5CEC96F0800E506E800E4F6E1200E2
:102110000001C751000AD8B4CFD7010AD8B4D7D725
:10212000030AD8B4DFD7010AD8A41200E6D7A2EC7C
:1021300088F0010E5BEC95F00009D8B408D062EC91
:1021400089F0DAEC96F00009D8A43CEC95F0010E89
:102150005BEC95F00009D8B406D0DAEC96F00009F3
:10216000D8A43CEC95F0F30E0001D56FFF0E0001F2
:10217000D66FD3EC95F0010E5BEC95F00009D8B466
:1021800006D0DAEC96F00009D8A43CEC95F0010EEC
:102190005BEC95F00009D8B406D0DAEC96F00009B3
:1021A000D8A43CEC95F0010E5BEC95F00009D8B496
:1021B000DAD7DAEC96F00009D8B4D5D73CEC95F034
:1021C000D2D7000E00017A6F000E0001796F000E69
:1021D0000001C46F0E0E0001C46501D02CD0000EAA
:1021E0000001C36F130E0001C36501D021D0010EA1
:1021F0004B6E0001C451140D0C0E0001C16F020E94
:102200000001C26FF3500001C127F4500001C22346
:102210000001C351010DF3500001C125D96EF450E6
:102220000001C221DA6E800EDF6E0001C32BDAD707
:102230000001C42BCFD7010E3E6E000E476E060E76
:10224000466E000E496E060E486E1200E50EF66EE2
:10225000FD0EF76E000EF86E20EED6F00F0E0900A0
:10226000F5CFDEFFE806FBE2D0C0CDF0D1C0CEF066
:10227000D3C0CFF07AEC95F00001E66F040E0001B8
:10228000D26120D0040E0001E6611CD00001D251C1
:10229000040DD60E0001D46F000E0001D56FF3506F
:1022A0000001D427F4500001D5230001E651010DAF
:1022B000F3500001D425D96EF4500001D521DA6E17
:1022C000DF501200050E120001C0F6FF02C0F7FF3A
:1022D000000EF86E0F0EF76403D00800F55005D01D
:1022E000F6CFE9FFF7CFEAFFEF50096E0550010D79
:1022F000F50EF324F66EFD0EF420F76EF86A000E6C
:10230000F8220800F5CF07F0000E086E03D0035046
:10231000045E082A0350045CD8B0F9D705500402C3
:10232000F350046E085004260428066E02D0D8909C
:102330000932062EFCD70750091609501200000179
:1023400020EE06F0D051D926D151DA22DECFC1F0ED
:10235000DDCFC2F0050E0001C36F000E0001C46F97
:10236000E4EC92F0000120EE06F0D051D926D151D4
:10237000DA22DECFCCF0DDCFCDF0000E0001CE6F43
:10238000000E0001CF6F7EEC96F0000120EE06F00B
:10239000D051D926D151DA22DECFC1F0DDCFC2F043
:1023A000050E0001C36F010E0001C46FE4EC92F052
:1023B0001200990E0001E76F000E0001E86F070E92
:1023C0000001E96F030E0001EA6F2CEC86F0990E14
:1023D0000001E76F000E0001E86F060E0001E96FD3
:1023E000030E0001EA6F2CEC86F01FEC94F0C00E97
:1023F0000001EE6FC60EEF6F2D0EF06F000EF16F45
:10240000010E0001F26F010E0001F36F00EC80F08D
:10241000B50E0001D06F010E0001D16F9FEC91F05D
:10242000120026D093C0D9FF94C0DAFF0001DF94D8
:10243000C3C0C9FFC7A0FED7C9CFC3F093C0D9FF9F
:1024400094C0DAFF0001DF84120089C0D9FF8AC07E
:10245000DAFF0001DF9EC3C06FFF6DA0FED76FCF14
:10246000C3F089C0D9FF8AC0DAFF0001DF8E1200F5
:10247000000120EE02F0C151D926C251DA22DF500C
:10248000000AD8B4CFD7010AD8A41200DED7050EAF
:102490000001ED6FE7C0D9FFE8C0DAFFDECFEEF054
:1024A000DDCFEFF00001E951020DF3CFEBF00001B9
:1024B000E951020DF3280001EC6FEEC0D0F0EFC03F
:1024C000D1F0EAC0D2F0EBC0D3F026EC91F00001DD
:1024D000ED6F0001ED51D8A40CD0EEC0D0F0EFC0EC
:1024E000D1F0EAC0D2F0ECC0D3F026EC91F00001BC
:1024F000ED6F0001ED5112001FD0000E0001C36FFF
:10250000000EC46F000EC56F000EC66F0001C651ED
:102510000001C51111E1B00E0001C35D040E000100
:10252000C459D8B009D000F0010E0001C327000E35
:10253000C423C523C623EAD70001C107D8A0C20718
:102540000001C129DAE10001C229D8A4D6D7080EBA
:102550000001C36F800EC46F000EC56F000EC66F02
:10256000120000017A2B060E4626000E4722060EA8
:1025700046240001C56F000E47200001C66F000110
:10258000C6BF09D00001C65104E1800E0001C55D3F
:10259000D8B0ADEC8FF0080E48240001C56F000ED6
:1025A00049200001C66F0001C6BF0CD00001C65112
:1025B00005E1800E0001C55DD8A004D0E1EC90F0EB
:1025C000010E1200000E1200010E0001C417C3C05C
:1025D000C5F0010E0001C66F0001C52B03D000013C
:1025E000D890C6370001C52FFAD70001C651FF0A9F
:1025F0000001C76FC1C0D9FFC2C0DAFF0001C751D7
:10260000DF16C3C0C5F0C4C0C6F00001C52B03D09F
:102610000001D890C6370001C52FFAD7C1C0D9FF35
:10262000C2C0DAFF0001C651DF1212000001EE6FD6
:102630001ED08F0E0001E76F000E0001E86F000E44
:102640000001E96F030E0001EA6F2CEC86F017D051
:102650008F0E0001E76F000E0001E86F010E000110
:10266000E96F030E0001EA6F2CEC86F008D0000140
:10267000EE51000AD8B4DDD7010AD8B4E9D7000E6C
:102680000001D56F0001EE51F7EC93F0120000014C
:102690007A51D8B407D0FA0E4626FF0E4722000121
:1026A0007A0720D000017951D8B40ED0000E476EC1
:1026B000720E466EF80E4826FF0E4922130E0001D8
:1026C0007A6F000179070ED0000E476E060E466E37
:1026D000000E496E060E486E000E00017A6F000E65
:1026E0000001796F99EC95F01200050E0001F66F6C
:1026F0000001F251020DF3CFF4F00001F251020D8E
:10270000F3280001F56FF0C0E7F0F1C0E8F0F4C085
:10271000E9F0F3C0EAF047EC92F00001F66F000137
:10272000F651D8A40CD0F0C0E7F0F1C0E8F0F5C045
:10273000E9F0F3C0EAF047EC92F00001F66F000117
:10274000F6511200000E0001CC6F000E0001CD6F9B
:10275000000E0001C66F50040001C76F4F04000156
:10276000C86F000EB9EC8DF04FC0CDF00001CD5117
:102770000001D8B4120050C0CCF00001CC510001CF
:10278000D8B409D0CAC0C6F0CBC0C7F08FEC96F061
:102790000001CC07F2D70001CD07E8D71CD0000E0E
:1027A0000001C36F000EC46F000EC56F000EC66F30
:1027B0000001C3510001C4110001C5110001C6117F
:1027C000D8A409D000F0010E0001C327000EC423D5
:1027D000C523C623EDD70001C107D8A0C207000159
:1027E000C129DDE10001C229D8B41200D8D7000107
:1027F000D66F1CD08F0E0001D06F000E0001D16F7C
:10280000000E0001D26FD5C0D3F0DEEC8BF01200C9
:102810008F0E0001D06F000E0001D16F010E00017C
:10282000D26FD5C0D3F0DEEC8BF012000001D65190
:10283000000AD8B4DFD7010AD8A41200E9D7ADEC5A
:1028400096F0010E91EC94F0000E0001C26F800E24
:10285000C16F7CEC92F0010E91EC94F09EEC96F03E
:10286000000E0001C26F800EC16F7CEC92F0010E71
:1028700091EC94F0ADEC96F0000E0001C26F800E6A
:10288000C16F7CEC92F0010E91EC94F01200010EFD
:10289000041603C005F0010E066E052A02D0D8907A
:1028A0000636052EFCD70650FF0A076E01C0D9FF79
:1028B00002C0DAFF0750DF1603C005F004C006F0BF
:1028C000052A02D0D8900636052EFCD701C0D9FFC4
:1028D00002C0DAFF0650DF121200050E0101FF6F81
:1028E000F7C0F0F0F8C0F1F0000E0001F26FF9C08F
:1028F000F3F075EC93F00101FF6F0101FF51D8A4D3
:102900000DD0F7C0F0F0F8C0F1F0010E0001F26F49
:10291000F9C0F3F075EC93F00101FF6F0101FF5175
:1029200012000001D96F18D08F0E0001D56F000E74
:102930000001D66F000E0001D76F05EC96F0120073
:102940008F0E0001D56F000E0001D66F010E000141
:10295000D76F05EC96F012000001D951000AD8B4E7
:10296000E3D7010AD8A41200EBD7030E0001D26509
:1029700014D0010E0001D0250001CC6F000E000123
:10298000D1210001CD6F0001D251FC0F0001CE6FAB
:10299000D3C0CFF06DEC96F01200D0C0CCF0D1C017
:1029A000CDF0D2C0CEF0D3C0CFF06DEC96F01200D7
:1029B000000120EE06F0C151D926C251DA22DECF45
:1029C000C4F0DDCFC5F0C4C0D9FFC5C0DAFFDF5009
:1029D0000001C66F0001C3290001C46F03D00001CC
:1029E000D890C6330001C42FFAD7010E0001C617D4
:1029F0000001C65112000001C86F86500F0B000184
:102A0000C76F4A50D8A402D0000E1200000E4A6EC2
:102A10000001C8510001C719D8B40CD0F00E8616B9
:102A20000001C8518612000E0001C26F0A0EC16F6C
:102A3000CEEC93F0010E120016D0000E036E000EC5
:102A4000046E000E056E000E066E03500410051095
:102A50000610D8A408D000F0010E0326000E0422B0
:102A600005220622F2D70106D8A002060128E5E1D8
:102A70000228D8B41200E1D70001685100016911A1
:102A800000016A11D8B40DD001D80BD00500FA6E40
:102A900000016851FD6E6951FE6E6A51FF6EFA5079
:102AA0001200000E0001686F000E0001696F000E39
:102AB00000016A6F12000001C86F86500F0B000101
:102AC000C76F4A50D8B4FDD7000E4A6E0001C851F6
:102AD0000001C719D8B40CD0F00E86160001C851F9
:102AE0008612000E0001C26F0A0EC16FCEEC93F089
:102AF000010E1200030E0001CF6512D0010E00017D
:102B0000CD250001CA6F000E0001CE210001CB6F60
:102B10000001CF51FC0F0001CC6FBCEC96F012000D
:102B2000CDC0CAF0CEC0CBF0CFC0CCF0BCEC96F09C
:102B30001200010E4B6E00017951140D0C0E0001B4
:102B4000C16F020E0001C26FF3500001C127F450A3
:102B50000001C22300017A51010DF3500001C1258B
:102B6000D96EF4500001C221DA6E800EDF6E1200C1
:102B7000086E86500F0B076E4A50D8A402D0000E84
:102B80001200000E4A6E08500718D8B40AD0F00E92
:102B9000861608508612000E026E0A0E016E1CEC9C
:102BA00095F0010E12000DD0D5C0F6FFD6C0F7FF8C
:102BB000000EF86E0800F5500CEC87F00001D54BC4
:102BC000D62BD5C0F6FFD6C0F7FF000EF86E080072
:102BD000F5500009D8B41200E7D7000120EE02F04A
:102BE000C151D926C251DA22DF50D8A407D093C0F0
:102BF000D9FF94C0DAFF0001DF84120089C0D9FF39
:102C00008AC0DAFF0001DF8E1200D5C0C1F0D6C045
:102C1000C2F0D7C0C3F0D8EC94F00001D86F010E19
:102C20000001D81BD5C0D0F0D6C0D1F0D7C0D2F0AB
:102C3000D8C0D3F0DEEC8BF01200030E0F640CD082
:102C4000010E0D240A6E000E0E200B6E0F50FC0FAD
:102C50000C6EE8EC96F012000DC00AF00EC00BF0FE
:102C60000FC00CF0E8EC96F0120004D09D96120014
:102C7000A39E1200000120EE02F0C151D926C251DC
:102C8000DA22DF50000AD8B4F1D7010AD8A4120022
:102C9000EFD733EC97F029502A102B10D8B412003C
:102CA00001D812000500FA6E2950FD6E2A50FE6E02
:102CB0002B50FF6EFA5012000001C56F0001C45185
:102CC000F5EC96F0B50E0001C16F010E0001C26F68
:102CD000C5C0C3F011EC92F01200CCC0C1F0CDC061
:102CE000C2F0040E0001C36FCEC0C4F0020E00019A
:102CF000C56FCFC0C6F05EEC8DF01200CCC0C1F045
:102D0000CDC0C2F0020E0001C36FCEC0C4F0040EED
:102D10000001C56FCFC0C6F05EEC8DF01200010E51
:102D20000001C46F0001C7515CEC96F0010E000178
:102D3000C46F0001C6515CEC96F01200990E0001C0
:102D4000D06F000E0001D16F060E0001D26F010E90
:102D50000001D36FDEEC8BF01200990E0001D06FF2
:102D6000000E0001D16F060E0001D26F000E0001AF
:102D7000D36FDEEC8BF01200CAC0C1F0CBC0C2F042
:102D8000040E0001C36FCCC0C4F0020E0001C56F79
:102D9000FDEC8FF01200000E476E060E466E000E20
:102DA000496E060E486E000E00017A6F000E00019B
:102DB000796F1200010E4A6E00016851000169111D
:102DC00000016A11D8B402D0010E1200000E1200E8
:102DD0000AC001F00BC002F0040E036E0CC004F038
:102DE000020E056E64EC91F012000001C16F00014B
:102DF000C1B102D0859E01D0858E1200C1C0D9FF1D
:102E0000C2C0DAFFC3C0DFFF1200C1C068F0C2C099
:102E100069F0C3C06AF0120001C068F002C069F036
:102E200003C06AF012002CC0D6FF2DC0D7FFF28A73
:102E300012002CC0D6FF2DC0D7FFF28A1200060068
:102E40000600010141613080800600060080000715
:012E50000081
:102E52009E929D929F92120005000700FFFFF29A38
:102E6200F2941200F29AF2941200010E4A6E1200CB
:06FFF800AAF705FFF8F175
:00000001FF
