:100000000DEF04F026EF00F004EF0AF0D1EC04F05D
:10001000FF0000F000F012000CEF0AF018EF00F003
:10003000F26AFC6A9BEC04F004009EEC09F0D8EC38
:1000400003F0F3EC03F05EEC08F0F6D701501F0B61
:10005000E80601E01200055001E01200060E021849
:1000600014E01AD0020E3D6E4A0E3FD8306A090ED7
:100070000AD0020E3D6E450402E1870E36D84504D3
:100080000AE1306A1D0E2F6E06D00450210AEAE004
:10009000030AEFE0010A42820138E832030BE80666
:1000A00014E01200020E3D6E440E206E24D0020EAB
:1000B0003D6E04C044F0020C020E3D6E430EF5D7B7
:1000C000020E3D6E03C043F0020C0250010AD8B488
:1000D0001200030AE7E0010AEFE00A0AD8B41200AE
:1000E000030AE5E0010AECE01200206E2050D8A4DB
:1000F000100E216E1200216A4292010E2F6E010C29
:100100004F6A140E506E516A296A2A6A4FC0F6FF70
:1001100050C0F7FF51C0F8FF42D80800F5CFDFFF0D
:100120004F2A000E50225122294A2A2A040E2A5C04
:10013000EDE30D0EE8CFB2F4600EE8CFB3F4000E9D
:10014000496E050E486E0AEC03F04F68170E506EAC
:10015000516A030E2A6E296851C0F8FF50C0F7FF9C
:100160004FC0F6FF1CD8DF50F56E0C0029C04EF0D2
:100170003F0E4E1607E1FEEC09F0040EA66EB50E1A
:1001800067EC04F04F06000E505A515A0A002950ED
:100190002A1001E112002906D8A02A06DDD7AC0EEC
:1001A0002924D96E040E2A20DA6E120003040BE112
:1001B00001501F0B08E1010E3D6E030E021802E113
:1001C000428001D042900350D8A4120001501F0B6E
:1001D000020AD8A4120005500F0BD8B4120028D878
:1001E000476A040E486E4726000E4822F350472601
:1001F000F450482223D847241D6EF45048201E6E28
:10020000030E021805E10FD8040EDF6E0CD81CD0C7
:1002100005AE04D008D8400EDF6E400C04D8080E9E
:10022000DF6E01D811D01DC0D9FF1EC0DAFF120049
:10023000010E3D6E05500F0B080D1200010E05AEAC
:10024000000E040DF3501200000EDB8E000C3D502A
:1002500010E193EC03F0196E3A0405E1010E32EC63
:1002600003F03A6A1200000E32EC03F0010E3A6E0F
:10027000010C01AE1BD0010E3E6E2F50075C3050BA
:10028000085804E207C02FF008C030F076EC01F007
:10029000480E196E010E32EC03F0000E32EC03F042
:1002A000240E04010A6F040E0B6F1CD0020E3E6E6A
:1002B000040E196E0750081002E1480E196E3A0438
:1002C00005E1010E32EC03F03A6A05D0000E32EC83
:1002D00003F0010E3A6E07500810D8A41200040172
:1002E000096B00D0480E086F088F480C080E326E5C
:1002F00030500DE1080E2F5C0AE22FC032F0405062
:1003000002E1010E03D0400402E1020E406E32C051
:1003100009F432502F5E000E305A240E1D6E040E6A
:100320001E6E42A21AD00BD01BD813EC01F00F0E98
:10033000F76403D00800F55001D019D81ED8325008
:10034000F3E112000DD813EC01F00F0EF76403D0A7
:100350000800F55001D00BD810D83250F3E112004C
:1003600020C0F6FF21C0F7FF000EF86E1200F6CF96
:10037000E1FFF7CFE2FFE7501200DF6E1D4A1E2AB1
:10038000204A212A320612000138E832030B18E015
:100390001200010E3D6E040E416E040C010E3D6E06
:1003A000450E206E7BEF00F02CD8496E49C020F03E
:1003B0007BEF00F026D8D96EDA6A03C0DFFF1200A7
:1003C000025002E179EF02F0010A02E1D6EF00F0FB
:1003D000020A02E1D6EF00F0060ADBE0030A02E1BE
:1003E00006EF02F0010AD8B412000F0AD7E0010AA2
:1003F00002E155EF03F0030AD7E0010ADBE0070A48
:100400001200010E3D6E0550460F1200800E0118BD
:1004100030E01200010E3D6EA40E75EC00F0120EDD
:1004200009D003502DE1010E3D6E380E75EC00F041
:10043000306A290E2F6E24D0010E3D6E0350010F3D
:10044000476E47C0F6FF100EF76E000EF86E0900FB
:10045000F5CF20F0100E216EB0EC01F00F0EF76416
:1004600003D00800F55002D0B7EC01F02F6E306ACF
:1004700007D00450010ACEE0030AD3E0010ADCE011
:1004800042821200366A27D03850486E000E48BEAD
:10049000FF0E496E4A6E4B6E4850155C0D6E49500A
:1004A00016580E6E4A5017580F6E4B501858106E53
:1004B0000FC0F8FF0EC0F7FF0DC0F6FF11D80D00FA
:1004C000362A0ED80C00362A240EA66EB50E67EC1E
:1004D00004F0FE0E38263850800A7F0FD5E2120055
:1004E000AC0E3624D96EDA6A040EDA22DF50F56ECD
:1004F0001200246B256B22D0010E3D6E42B0248386
:1005000024D0010E3D6E21D018EC01F0476A040E94
:10051000486E4726000E4822F3504726F4504822E2
:100520001EEC01F047241D6EF45048201E6E13ECA3
:1005300001F0DFA40AD0010E246F07D001501F0B79
:10054000DBE0010ADEE0030ADFE03D04D8A412008C
:10055000240E206E040E216E4292020E2F6E020CAB
:10056000400E486401D0486E4A6A0DD047504A2474
:10057000D96EDA6A6C0E4A24E16EE26A040EE22257
:10058000DFCFE7FF4A2A48504A5CF0E348C011F445
:10059000400E0401101710BD03D0496A492A01D04A
:1005A000496A493A49464946040110514918BF0B66
:1005B0004918106F1087108F12003F6A0CBF12008D
:1005C00048500D5D02E20DC448F03F6A0BD02C0E7E
:1005D0003F24D96EDA6A040EDA2247503F24F9EC40
:1005E00009F03F2A48503F5CF2E3400E0D6F0C17B4
:1005F0000CBD03D0496A492A01D0496A493A4946A3
:10060000494604010C514918BF0B49180C6F0C875F
:100610000C8F1200495006E1050E485C03E2496A5E
:10062000050E486E48504A6E49504B6E4C6A4D6AF2
:100630000A0ED8904A364B364C364D36E82EF9D74E
:100640004AC009F04BC00AF04CC00BF04DC00CF092
:100650000BC0F8FF0AC0F7FFF66A140EA66EB50EBF
:1006600067EF04F0476E080E1A6E1C0E1B6E040E28
:100670001C6E475006E1140E1B6E040E1C6E256A9C
:1006800002D0040E256E266E0BD819C0DEFF1AC0EC
:10069000DEFF1BC0DEFF1CC0DEFF02D8DF8E1200B3
:1006A00025C0D9FF26C0DAFF1200010E3D6E0F01F2
:1006B00016D8346A3450460FD96EDA6ADF6A342AA3
:1006C0003450F8E003C045F04550C9EC04F0035045
:1006D00003E1050E416E050C060E416E060C4D6BD6
:1006E0004E6B4F6B506B516B526B536B1200040E81
:1006F000411808E103C05EFF0F015E51050ED8B43A
:10070000030E416E3E04D8A4120076EC01F0020EF6
:10071000401802E108D8040C0401480E08BD080E78
:10072000086F088F1200040E0401086F088F040C74
:10073000030E416E0F015D6B626A7B0E5C6F5E6B38
:100740006FEC03F0160E4C6F658C03D06296FEECD6
:1007500009F062B6FBD7659C6598040E196E000E11
:1007600032EC03F0010E3A6E426A456A000EC9EFA0
:1007700004F081B818EC00F0060EF66E14D80D0ED9
:10078000F5180DE10900600EF51809E1F66A0BD8BD
:10079000F52803E10900F52802E000EF0AF018EC63
:1007A00000F000EF00F0140EF76EF86A0900140C68
:1007B0002306D8A0240623502410D8A412004E0EDD
:1007C000246E236A060E416002D08B80060C8BB02B
:1007D00003D0476A472A01D0476A8B504718FE0B5F
:1007E00047188B6E1200C0BC1200030ED36E6592C8
:1007F0006596F26A0ED808D0C0AC04D02D06D8A0F9
:100800002E0601D006D804002D502E10F5E1FF0071
:100810001200040E2E6E2D6A040C04EEACF014EEE1
:1008200000F0EE6AE550E150FCE1E250FAE100EE42
:1008300060F0820EEE6AE806FDE100EE01F0460E81
:10084000EE6AE806FDE10001B9EF03F00401086B70
:10085000406A00AF02D0006B3A6A04AF03D0046B69
:10086000010E3A6E3E6A3D6A2F6A306A6598C4ECA2
:1008700001F002EC00F027EF01F005D80AD8376A42
:100880000CD8386A12007E0E3B6E116AFC0E126E96
:10089000FC0C010E136E146A000C156816681768BC
:1008A000186812003F6A1E0E0F014D6F400E0401C2
:1008B0000D6F2C0E0E6F040E0F6F080E0C6F0C8F49
:1008C0006C0E126F040E136F400E106F400C476ECB
:1008D000F29EF3EC03F0B50E471804E0030ED36E5E
:1008E0000300FED7550EA76EAA0EA76EA682A6B26B
:1008F000FED7A69412005CCF35F0040E0F015C6F9A
:1009000062986582A198A088AAEC04F0A09835505E
:100910000F015C131200390402E1D1EC04F0656AA6
:10092000150E0F015F6F5C6B658698EC03F0010E8E
:10093000416E396A1200600ED36E9B8CDCEC04F0C1
:10094000BFEC04F0C16AC26A3DEC04F08B90949055
:10095000E7EF04F08B90D3CF31F00300A1B802D0C1
:10096000D0A6FBD731C0D3FF1200D9EC04F06592BA
:100970000F015C9501D0629462A41200FCD705D0EF
:10098000FEEC09F04706D8A0480647504810F8E1A9
:100990001200476E4704D8A4120052EC04F03DEF59
:1009A00004F06592656A48684768BFEC04F0416AE4
:1009B000120002D8BFEF04F0030E486E476A030C22
:1009C000390401E1120065A68BEC04F0120065B653
:0E09D000D1EC04F0396AE0EF04F012001200DE
:1010000000B6046134034D006900630072006F0094
:1010100063006800690070002000540065006300F0
:1010200068006E006F006C006F00670079002000A0
:1010300049006E0063002E000902290001010080B2
:10104000320904000002030000000921110100011F
:10105000221D000705810340000107050103400030
:101060000126034800490044002000550053004277
:1010700000200042006F006F0074006C006F006180
:10108000006400650072000600FF0901A10119015A
:101090002940150026FF0075089540810019012997
:1010A000409100C01201000200000008D8043C007A
:0B10B00001010102000104030904001B
:1010BC00060E4118D8B465B21200375001E017D1B2
:1010CC0004010CBF1200600E476E400E486EDDEC42
:1010DC0002F0010E376E276A286A2750A10FD96ECD
:1010EC00DA6A000EDF6E274A282A285005E1400EE6
:1010FC00275CD8B01200F1D71200020EA16F3A0E85
:10110C00A26F010EA36FA46FA56B140EA66FA76B35
:10111C00A86B000E1124A96FEC0E1220AA6FFF0E03
:10112C001320AB6FFF0E1420AC6F030EAD6FF80ED7
:10113C00AE6FAF69010EB06FB16B080EB26FB36BCF
:10114C00B46BB56BB669A50EDA6F040110BFA50CB4
:10115C00A10E476E400E486EB0EC02F0376A1200DA
:10116C00615106E17F0E3B6EF80E116E126802D0D3
:10117C0043EC04F049EC04F0F1D7286A050E276E15
:10118C000CD0FEEC09F027C048F028C049F00AEC5E
:10119C0003F09EEC09F0274A282A3B50526E536A02
:1011AC00522A000E53225250275C53502858D6E234
:1011BC00E8D715280EE116280CE117280AE11828A3
:1011CC0008E161C015F062C016F063C017F064C08E
:1011DC0018F015506119C2E116506219BFE1175091
:1011EC006319BCE118506419B9E1276A286A1AD04E
:1011FC006551A0082724D96EDA6AAC0E3824E16E4A
:10120C00E26A040EE222DFCFE7FF382A152A000E2D
:10121C001622172218223A0E381802E142EC02F07C
:10122C00274A282A00017CD899E2E2D742EC02F046
:10123C004DEC04F093D7070EA16F61C0A2F062C011
:10124C00A3F063C0A4F064C0A5F065C0A6F063C0B1
:10125C00F8FF62C0F7FF61C0F6FF276A286A0BD05F
:10126C00090000016551E1082724D96EDA6AF5CF2F
:10127C00DFFF274A282A54D8F3E3040110BF1200D9
:10128C0067D780EC00F06AD70C0EA16F010EA36F2C
:10129C00020EA26F160EF66ED3EC03F0F5CFA4F08F
:1012AC000A00F5CFA5F0060EA66F140EA76FA86B5B
:1012BC00A96B600EAB6F0D0EAA6FAC6B040EAD6F0D
:1012CC00000EAE6BAF6BB069B169B269B369B4694A
:1012DC00B569B669B769B86BB96BBA6BBB6BBC6BEC
:1012EC00BD6BBE6BBF6BC9D706EC00F037D70001E6
:1012FC006051020A01E101D7010A01E131D7070A65
:10130C0001E13BD7010A01E154D7030A8FE0010A3E
:10131C0092E00F0AE9E0010AB4E0050AB5E01ED735
:10132C006551526E536A5250275C53502858120024
:10133C00E0EC04F0415001E1120062B4B5EC04F0B1
:10134C0065B2120062B098EC03F062B87BEC04F06A
:10135C00030E416001D0030C3C6A62A6120064507B
:10136C0064CF4AF07C0E4A162AE164B203D02B6A91
:10137C00040E02D0040E2B6E2C6E62962BC0D9FF7D
:10138C002CC0DAFFDF30E8320F0B0D0A20E1336A94
:10139C0023D8DECF4AF0DDCF4BF04AC0D9FF4BC08B
:1013AC00DAFF3350010F1FD817D8DE2A000EDD22CA
:1013BC00332A070E3364ECD726EC04F008D0040E65
:1013CC00641804E1629677EC03F001D062963C2A33
:1013DC00030E3C64C2D7030C20EE02F02B50D9262E
:1013EC002C50DA221200E16EE26ADFCFE7FF120026
:0413FC0004001200D7
:0414000045EF0AF0BA
:101406000D604982FACF17F0FBCF18F0E9CF19F03B
:10141600EACF1AF0E1CF1BF0E2CF1CF0D9CF1DF0D6
:10142600DACF1EF0F3CF1FF0F4CF20F0F6CF21F085
:10143600F7CF22F0F8CF23F0F5CF24F0F292F2B4F2
:10144600F2AA02D0E9EC9DF024C0F5FF23C0F8FF14
:1014560022C0F7FF21C0F6FF20C0F4FF1FC0F3FF34
:101466001EC0DAFF1DC0D9FF1CC0E2FF1BC0E1FF92
:101476001AC0EAFF19C0E9FF18C0FBFF17C0FAFF40
:081486004992110017EF97F0E5
:10FD020000001180002C0100B10200350036000015
:10FD1200B202003500360000B302003500360002A0
:10FD2200003500360000B4000000C0A200020084CA
:10FD32000000C1C50000C20D00000000C38D002AF2
:10FD42000000C48D00EE0000C50A000036C80000A5
:10FD5200E012001C001000180033002C00250028BF
:10FD620000280027002F003C0000000300030010C1
:10FD7200008000780000E112001C00100018002D25
:10FD820000280023002800280026002F003B000046
:10FD920000030003001000003A0500002A000002E0
:10FDA2000000008100002B000003000000A2000000
:10FDB20029002C00010200010001000202000003E0
:10FDC200030300020004000800100020004000802D
:10FDD20000000101000A006400E80310270001038B
:10FDE200070F1F3F7FFF0002010301041000000004
:10FDF200000000005F00000007000700147F147F6E
:10FE020014242A7F2A122313086462364955225089
:10FE12000005030000001C2241000041221C0008D2
:10FE22002A1C2A0808083E0808005030000008086A
:10FE3200080808006060000020100804023E5149D2
:10FE4200453E00427F400042615149462141454BB7
:10FE5200311814127F1027454545393C4A4949302B
:10FE620001710905033649494936064949291E00E7
:10FE720036360000005636000000081422411414E1
:10FE8200141414412214080002015109063249795E
:10FE9200413E7E1111117E7F494949363E41414121
:10FEA200227F4141221C7F494949417F09090101C1
:10FEB2003E414151327F0808087F00417F410020C6
:10FEC20040413F017F081422417F404040407F0271
:10FED20004027F7F0408107F3E4141413E7F0909B1
:10FEE20009063E4151215E7F091929464649494981
:10FEF2003101017F01013F4040403F1F2040201F50
:10FF02007F2018207F6314081463030478040361BC
:10FF12005149454300007F414102040810204141FC
:10FF22007F00000402010204404040404000010200
:10FF3200040020545454787F48444438384444449C
:10FF420020384444487F3854545418087E0901022A
:10FF5200081454543C7F0804047800447D40002077
:10FF620040443D00007F10284400417F40007C0453
:10FF72001804787C0804047838444444387C141407
:10FF82001408081414187C7C0804040848545454B7
:10FF920020043F4440203C4040207C1C2040201C48
:10FFA2003C4030403C44281028440C5050503C44C3
:10FFB20064544C44000836410000007F00000041B8
:10FFC20036080008082A1C08081C2A0808FF000036
:10FFD200FFF0FFFFFF0000FF0F00FC416E616C6F3E
:10FFE2006720746F204469676974616C0A0A004172
:0EFFF200445245533A2025750A00256300004D
:020000040001F9
:100000000CD0A40E0001EA6F010E04D0AF0E000167
:10001000EA6F010E0001EB6F08D00001E851000A01
:10002000D8B4EFD7010AD8B4F1D7000120EE02F01E
:10003000EA51D926EB51DA22E8C0DFFFB1D0800EB9
:100040000001DD6F000E0001DE6F020E0001DF6FA8
:10005000030E0001E06F71EC89F0800E0001DD6F8E
:10006000000E0001DE6F030E0001DF6F030E0001C2
:10007000E06F71EC89F0800E0001DD6F000E000171
:10008000DE6F050E0001DF6F030E0001E06F71EC03
:1000900089F0800E0001DD6F000E0001DE6F040E9E
:1000A0000001DF6F000E0001E06F71EC89F00001CC
:1000B00020EE03F0EA51D926EB51DA22C70EDE6EAC
:1000C0000F0EDD6E000120EE06F0EA51D926EB514D
:1000D000DA22C60EDE6E0F0EDD6E000120EE09F094
:1000E000EA51D926EB51DA22C90E56D08A0E000108
:1000F000DD6F000E0001DE6F070E0001DF6F030EE3
:100100000001E06F71EC89F08A0E0001DD6F000ED6
:100110000001DE6F060E0001DF6F030E0001E06FCD
:1001200071EC89F08A0E0001DD6F000E0001DE6FB8
:10013000040E0001DF6F030E0001E06F71EC89F027
:100140008A0E0001DD6F000E0001DE6F050E00015A
:10015000DF6F000E0001E06F71EC89F0000120EE0E
:1001600003F0EA51D926EB51DA226D0EDE6E0F0E46
:10017000DD6E000120EE06F0EA51D926EB51DA22BD
:100180006C0EDE6E0F0EDD6E000120EE09F0EA51FE
:10019000D926EB51DA226F0EDE6E0F0EDD6E09D01E
:1001A0000001E851000AD8B44AD7010AD8A41200C5
:1001B0009DD7000120EE06F0EA51D926EB51DA2254
:1001C000DECFB7F0DDCFB8F0050E0001B96F000E3D
:1001D0000001BA6F3CEC9AF09CD0000120EE06F0D2
:1001E000EA51D926EB51DA22DECFB7F0DDCFB8F0F5
:1001F000040E0001B96F000E0001BA6F3CEC9AF0DA
:10020000000120EE03F0EA51D926EB51DA22DECFCD
:10021000B7F0DDCFB8F0060E0001B96F000E000197
:10022000BA6F3CEC9AF084D0000120EE06F0EA515F
:10023000D926EB51DA22DECFB7F0DDCFB8F0040ECD
:100240000001B96F000E0001BA6F3CEC9AF000019A
:1002500020EE03F0EA51D926EB51DA22DECFB7F0D7
:10026000DDCFB8F0060E0001B96F010E0001BA6FC4
:100270003CEC9AF05DD0000120EE06F0EA51D92660
:10028000EB51DA22DECFB7F0DDCFB8F0040E00017B
:10029000B96F010E0001BA6F3CEC9AF0000120EE3C
:1002A00003F0EA51D926EB51DA22DECFB7F0DDCFE9
:1002B000B8F0060E0001B96F000E0001BA6F3CECF9
:1002C0009AF036D0000120EE06F0EA51D926EB5123
:1002D000DA22DECFB7F0DDCFB8F0040E0001B96F3F
:1002E000010E0001BA6F3CEC9AF0000120EE03F021
:1002F000EA51D926EB51DA22DECFB7F0DDCFB8F0E4
:10030000060E0001B96F010E0001BA6F3CEC9AF0C5
:100310000FD00001E951000AD8B45FD7010AD8B460
:1003200083D7030AD8B4A7D7010AD8A41200CAD722
:10033000000120EE06F0EA51D926EB51DA22DECF99
:10034000B7F0DDCFB8F0070E0001B96F000E000165
:10035000BA6F3CEC9AF0000120EE06F0EA51D92683
:10036000EB51DA22DECFB7F0DDCFB8F0060E000198
:10037000B96F000E0001BA6F3CEC9AF0E4C0C4F013
:10038000E5C0C5F0E6C0C6F0E7C0C7F00CEC8EF0E3
:10039000EAC0B7F0EBC0B8F015EC9EF004D09F8631
:1003A0000BD0A58E09D00001E851000AD8B4F7D7C8
:1003B000010AD8A41200F5D7EAC0B7F0EBC0B8F034
:1003C000B9EC9DF0EAC0D9FFEBC0DAFF000EDF6E9A
:1003D000000120EE06F0EA51D926EB51DA22DECFF9
:1003E000C2F0DDCFC3F0000E0001C46F030E0001A8
:1003F000C56F3AEC9EF0000120EE06F0EA51D926D6
:10040000EB51DA22DECFB7F0DDCFB8F0050E0001F8
:10041000B96F010E0001BA6F3CEC9AF01200080EA1
:100420000001C6250001C36F000E0001C7210001B5
:10043000C46F000E0001C56FFCEC9CF00001DD6F85
:100440000001DD510001C96FCA6B0E0ED89000018A
:10045000C937CA37E82EFAD70001DD510001CB6F4A
:10046000CC6B0C0ED8900001CB37CC37E82EFAD7E6
:100470000001DD510001CD6FCE6B0A0ED890000156
:10048000CD37CE37E82EFAD70001DD510001D06F0D
:10049000CF6B0001DD510001D16FD26B060ED890F9
:1004A0000001D137D237E82EFAD70001DD51000123
:1004B000D36FD46B0001D33BD43BF00ED417D35190
:1004C0000F0BD413F00ED3170001DD510001D56FCF
:1004D000D66B0001D890D537D6370001D890D537E4
:1004E000D6370001DD510001D76FD86B0001D5511F
:1004F0000001D7130001D6510001D8130001D351D8
:100500000001D7130001D4510001D8130001D151CB
:100510000001D7130001D2510001D8130001CF51BF
:100520000001D7130001D0510001D8130001CD51B3
:100530000001D7130001CE510001D8130001CB51A7
:100540000001D7130001CC510001D8130001C9519B
:100550000001D7110001D96F0001CA510001D81163
:100560000001DA6FDDC0DBF00001DC6B080E00017A
:10057000C6250001C36F000E0001C7210001C46F32
:10058000010E0001C56FFCEC9CF00001C96FCA6B45
:100590000001D890C937CA370001D890C937CA3787
:1005A0000001C9510001DB130001CA510001DC1335
:1005B000080E0001C6250001C36F000E0001C7210F
:1005C0000001C46F020E0001C56FFCEC9CF000013D
:1005D000C96FCA6B0001C93BCA3BF00ECA17C951AB
:1005E0000F0BCA13F00EC9170001C9510001DB132C
:1005F0000001CA510001DC13080E0001C6250001EC
:10060000C36F000E0001C7210001C46F030E00017B
:10061000C56FFCEC9CF00001C96FCA6B060ED89048
:100620000001C937CA37E82EFAD70001C9510001C5
:10063000DB130001CA510001DC13080E0001C625BE
:100640000001C36F000E0001C7210001C46F040E3A
:100650000001C56FFCEC9CF00001C96F0001C9519D
:100660000001CB6FCA6B0001CA510001DB1300010E
:10067000CB510001DC13080E0001C6250001C36F39
:10068000000E0001C7210001C46F050E0001C56FF7
:10069000FCEC9CF00001C96FCA6B0A0ED8900001F7
:1006A000C937CA37E82EFAD70001C9510001DB1358
:1006B0000001CA510001DC13080E0001C62500012B
:1006C000C36F000E0001C7210001C46F060E0001B8
:1006D000C56FFCEC9CF00001C96FCA6B0C0ED89082
:1006E0000001C937CA37E82EFAD70001C951000105
:1006F000DB130001CA510001DC13080E0001C625FE
:100700000001C36F000E0001C7210001C46F070E76
:100710000001C56FFCEC9CF00001C96FCA6B0E0EA6
:10072000D8900001C937CA37E82EFAD70001C9515D
:100730000001DB130001CA510001DC130001DB5191
:100740000001D91948E10001DC510001DA19D8A4EF
:10075000120032D0000120EE02F0C651D926C75156
:10076000DA22DECFB7F0DDCFB8F0C8C0B9F0F3ECD5
:100770009EF012000001C81F000120EE02F0C651D9
:10078000D926C751DA22DECFB7F0DDCFB8F0C8C026
:10079000B9F0F3EC9EF01200000120EE04F0C65117
:1007A000D926C751DA22DECFB7F0DDCFB8F0C8C006
:1007B000B9F0F3EC9EF012000001DD51000AD8B44C
:1007C0001200010AD8B4C6D7030AD8B4D3D7010A95
:1007D000D8A41200E1D712000001B76F7ED03F0EFF
:1007E0001200060E12005B0E12004F0E1200660E73
:1007F00012006D0E12007D0E1200070E12007F0E09
:1008000012006F0E12005F0E12007C0E1200580EC6
:1008100012005E0E12007B0E1200710E12006F0E9F
:100820001200740E1200040E12000E0E12007A0E48
:100830001200060E1200140E1200540E12005C0E6E
:100840001200730E1200670E1200500E12006D0E91
:100850001200780E12001C0E1200620E12002A0EF8
:100860001200640E12006E0E12005B0E1200770E64
:1008700012007F0E1200390E12003F0E1200790E88
:100880001200710E12003D0E1200760E1200060EBE
:1008900012001E0E1200570E1200380E1200760EB5
:1008A0001200760E12003F0E1200730E12003F0E61
:1008B0001200770E12006D0E1200310E12003E0E65
:1008C00012003E0E12007E0E1200760E1200660E10
:1008D00012005B0E1200800E12000001B7512E0AAA
:1008E000D8B4F9D71E0AD8B47AD7010AD8B479D7C0
:1008F000030AD8B478D7010AD8B477D7070AD8B48E
:1009000076D7010AD8B475D7030AD8B474D7010AC8
:10091000D8B473D70F0AD8B472D7010AD8B471D734
:10092000780AD8B4A4D7030AD8B4A3D7010AD8B494
:10093000A2D7070AD8B4A1D7010AD8B4A0D7030A0E
:10094000D8B49FD7010AD8B49ED70F0AD8B49DD780
:10095000010AD8B49CD7030AD8B49BD7010AD8B4EB
:100960009AD7070AD8B499D7010AD8B498D7030AF6
:10097000D8B497D7010AD8B496D71F0AD8B495D758
:10098000010AD8B494D7030AD8B493D7010AD8B4CB
:1009900092D7070AD8B491D7010AD8B490D7030ADE
:1009A000D8B48FD7010AD8B48ED70F0AD8B48DD750
:1009B000010AD8B48CD7030AD8B48BD73B0AD8B471
:1009C00022D7030AD8B421D7010AD8B420D7070AFE
:1009D000D8B41FD7010AD8B41ED7030AD8B41DD77C
:1009E000010AD8B41CD70F0AD8B41BD7010AD8B44F
:1009F0001AD7030AD8B419D7010AD8B418D7070AE6
:100A0000D8B417D7010AD8B416D7030AD8B415D763
:100A1000010AD8B414D71F0AD8B413D7010AD8B41E
:100A200012D7030AD8B411D7010AD8B410D7070ACD
:100A3000D8B40FD7010AD8B40ED7030AD8B40DD74B
:100A4000010AD8B40CD70F0AD8B40BD7010AD8B40E
:100A50000AD7030AD8B409D7000E1200050E010107
:100A6000EC6FC7D0000120EE02F0ED51D926EE5117
:100A7000DA22DECFC2F0DDCFC3F0EFC0C4F00F0E3C
:100A80000001C56F3AEC9EF0000120EE04F0ED513C
:100A9000D926EE51DA22DECFC2F0DDCFC3F0EFC0AF
:100AA000C4F0000E0001C56F3AEC9EF0B0D0EDC06E
:100AB000E6F0EEC0E7F0EFC0E8F0030E0001E96FEA
:100AC000D0EC9AF00101EC6F0101EC51D8A41200B6
:100AD000000120EE02F0ED51D926EE51DA22DECFF0
:100AE000C2F0DDCFC3F0EFC0C4F0000E0001C56F4F
:100AF0003AEC9EF0000120EE04F0ED51D926EE51C3
:100B0000DA22DECFC2F0DDCFC3F0EFC0C4F0000EBA
:100B10000001C56F3AEC9EF07AD0EDC0E6F0EEC071
:100B2000E7F0EFC0E8F0030E0001E96FD0EC9AF0B7
:100B30000101EC6F0101EC51D8A41200000120EE7C
:100B400002F0ED51D926EE51DA22DECFC2F0DDCF30
:100B5000C3F0EFC0C4F00F0E0001C56F3AEC9EF079
:100B6000000120EE04F0ED51D926EE51DA22DECF5D
:100B7000C2F0DDCFC3F0EFC0C4F00F0E0001C56FAF
:100B80003AEC9EF044D0EDC0E6F0EEC0E7F0EFC0E6
:100B9000E8F0030E0001E96FD0EC9AF00101EC6F70
:100BA0000101EC51D8A41200000120EE02F0ED5139
:100BB000D926EE51DA22DECFC2F0DDCFC3F0EFC08E
:100BC000C4F0000E0001C56F3AEC9EF0000120EE6B
:100BD00004F0ED51D926EE51DA22DECFC2F0DDCF9E
:100BE000C3F0EFC0C4F0000E0001C56F3AEC9EF0F8
:100BF0000ED00001F051000AD8B434D7010AD8B49D
:100C000056D7030AD8B489D7010AD8B4BCD7080E7E
:100C10000001ED250001C66F000E0001EE2100016C
:100C2000C76F0001EF51040DF3CFC8F0F0C0C9F059
:100C30005AEC9CF0080E0001ED250001C66F000E75
:100C40000001EE210001C76F0001EF51040DF328F0
:100C50000001C86FF0C0C9F05AEC9CF0080E00010A
:100C6000ED250001C66F000E0001EE210001C76FE7
:100C70000001EF51040DF350020F0001C86FF0C0E6
:100C8000C9F05AEC9CF0080E0001ED250001C66F7A
:100C9000000E0001EE210001C76F0001EF51040DAD
:100CA000F350030F0001C86FF0C0C9F05AEC9CF07C
:100CB0001200050E0101F16F7AD0010120EE02F061
:100CC000EC51D926ED51DA22DECFEFF1DDCFF0F194
:100CD000EFC1D9FFF0C1DAFFFF0E67D0ECC1EDF034
:100CE000EDC1EEF0010E0001EF6FEFEC9BF00101A2
:100CF000F16F0101F151D8A41200010120EE02F0C0
:100D0000EC51D926ED51DA22DECFEFF1DDCFF0F153
:100D1000EFC1D9FFF0C1DAFF000EDF6E010120EE56
:100D200004F036D0ECC1EDF0EDC1EEF0020E0001A2
:100D3000EF6FEFEC9BF00101F16F0101F151D8A4CD
:100D40001200010120EE02F0EC51D926ED51DA2219
:100D5000DECFEFF1DDCFF0F1EFC1D9FFF0C1DAFF67
:100D6000FF0EDF6E010120EE04F0AAD7ECC1EDF01A
:100D7000EDC1EEF0000E0001EF6FEFEC9BF0010112
:100D8000F16F0101F151D8A41200010120EE02F02F
:100D9000EC51D926ED51DA22DECFEFF1DDCFF0F1C3
:100DA000EFC1D9FFF0C1DAFF000EDF6E0ED00101F6
:100DB000EE51000AD8B481D7010AD8B48FD7030AFC
:100DC000D8B4B0D7010AD8B4D1D7080E0101EC25A8
:100DD0000001C66F000E0101ED210001C76F000E7A
:100DE0000001C86FEEC1C9F05AEC9CF0080E010179
:100DF000EC250001C66F000E0101ED210001C76F57
:100E0000010E0001C86FEEC1C9F05AEC9CF0080E4B
:100E10000101EC250001C66F000E0101ED2100016A
:100E2000C76F020E0001C86FEEC1C9F05AEC9CF00A
:100E3000080E0101EC250001C66F000E0101ED2135
:100E40000001C76F030E0001C86FEEC1C9F05AEC74
:100E50009CF0080E0101EC250001C66F000E010197
:100E6000ED210001C76F040E0001C86FEEC1C9F08B
:100E70005AEC9CF0080E0101EC250001C66F000E33
:100E80000101ED210001C76F050E0001C86FEEC121
:100E9000C9F05AEC9CF0080E0101EC250001C66F68
:100EA000000E0101ED210001C76F060E0001C86FA1
:100EB000EEC1C9F05AEC9CF0080E0101EC250001CE
:100EC000C66F000E0101ED210001C76F070E000182
:100ED000C86FEEC1C9F05AEC9CF012000001FF513E
:100EE000D8B41200F1C0DDF0F2C0DEF0F3C0DFF0E4
:100EF000F4C0E0F000017D51D8B404D037C0DCF07C
:100F00000F0E376E000E0001E26FDFD00001E251DC
:100F1000020D000EF324D96E010EF420DA6EDECF3E
:100F2000FDF0DDCFFEF0000E0001E16F130E0001B9
:100F3000E16501D0BED00001E251140D040E0001A4
:100F4000DA6F020E0001DB6FF3500001DA27F45074
:100F50000001DB230001E151010DF3500001DA250E
:100F6000D96EF4500001DB21DA6EDFAE9AD00001B9
:100F7000E251140D040E0001DA6F020E0001DB6F66
:100F8000F3500001DA27F4500001DB230001E151A6
:100F9000010DF3500001DA25D96EF4500001DB2178
:100FA000DA6E7F0EDF160001E251140D040E00010F
:100FB000DA6F020E0001DB6FF3500001DA27F45004
:100FC0000001DB230001E151010DF3500001DA259E
:100FD000D96EF4500001DB21DA6EDF50D8B44AD06C
:100FE00076C0C0F077C0C1F0DDC0C2F0DEC0C3F093
:100FF000DFC0C4F0E0C0C5F0F5C0C6F0F6C0C7F071
:10100000F7C0C8F0F8C0C9F0C2EC98F00001E25196
:10101000140D040E0001DA6F020E0001DB6FF350B5
:101020000001DA27F4500001DB230001E151010D3A
:10103000F3500001DA25D96EF4500001DB21DA6E9D
:10104000DF5017EC91F0BCC0C9F0BDC0CAF0DDC0E4
:10105000CBF0DEC0CCF0DFC0CDF0E0C0CEF0F5C00C
:10106000CFF0F6C0D0F0F7C0D1F0F8C0D2F05AEC13
:1010700095F017D0000E0001C16F000EC06FDDC0EB
:10108000C2F0DEC0C3F0DFC0C4F0E0C0C5F0F5C000
:10109000C6F0F6C0C7F0F7C0C8F0F8C0C9F0C2EC9F
:1010A00098F0060E0001DD27000EDE230001E12B83
:1010B0003DD7080E0001DF27000EE023000E0001DF
:1010C000DE6F060EDD6F0001E22B0001E251375C9E
:1010D000D8B01CD700017D51D8B41200000E000119
:1010E0007D6FDCC037F012009A0E0101ED6F010E2A
:1010F0000101EE6F000E0101F06F020EEF6F560E50
:101100000101F16F3E0E0101F26F010E0101F36F5B
:10111000000E0101F46F000E0101F56F000E0101D8
:10112000F66F000E0101F76F000E0101F86F000E5F
:101130000101F96FADEC90F07C0E0101ED6F010E35
:101140000101EE6F000E0101F06F020EEF6F560EFF
:101150000101F16F3E0E0101F26F010E0101F36F0B
:10116000000E0101F46F000E0101F56F000E010188
:10117000F66F000E0101F76F000E0101F86F000E0F
:101180000101F96FADEC90F0720E0101ED6F010EEF
:101190000101EE6F000E0101F06F020EEF6F560EAF
:1011A0000101F16F3E0E0101F26F010E0101F36FBB
:1011B000000E0101F46F000E0101F56F000E010138
:1011C000F66F000E0101F76F000E0101F86F000EBF
:1011D0000101F96FADEC90F0860E0101ED6F010E8B
:1011E0000101EE6F000E0101F06F020EEF6F560E5F
:1011F0000101F16F3E0E0101F26F010E0101F36F6B
:10120000000E0101F46F000E0101F56F000E0101E7
:10121000F66F000E0101F76F000E0101F86F000E6E
:101220000101F96FADEC90F0900E0101ED6F010E30
:101230000101EE6F000E0101F06F020EEF6F560E0E
:101240000101F16F3E0E0101F26F010E0101F36F1A
:10125000000E0101F46F000E0101F56F000E010197
:10126000F66F000E0101F76F000E0101F86F000E1E
:101270000101F96FADEC90F0A00E0001E46F860E55
:10128000E56F010EE66F000EE76F000E0001E86FDC
:10129000020E0001E96F00EC80F0A40E0001C66FA1
:1012A000010E0001C76F88EC98F0000E0101FB6F82
:1012B000000EFA6F0101FB5113E1080E0101FA5D06
:1012C000D8B012006A0E0101FA25D96E010E010193
:1012D000FB21DA6E000EDF6E0101FA4BFB2BEAD721
:1012E0001200DDC0D9FFDEC0DAFFDECFE2F0DDCFD5
:1012F000E3F0050E0001E16FB5D0000120EE02F031
:10130000DD51D926DE51DA22DECFB7F0DDCFB8F0DD
:10131000DFC0B9F0010E0001BA6F3CEC9AF0B0D01A
:10132000E2C0C6F0E3C0C7F0010E0001C86FDFC025
:10133000C9F099EC97F00001E16F0001E151D8A4E8
:101340001200000120EE02F0DD51D926DE51DA2232
:10135000DECFB7F0DDCFB8F0DFC0B9F0000E00018E
:10136000BA6F3CEC9AF0000120EE04F0DD51D92672
:10137000DE51DA22DECFB7F0DDCFB8F0DFC0B9F052
:10138000000E0001BA6F3CEC9AF07AD0E2C0C6F0D1
:10139000E3C0C7F0020E0001C86FDFC0C9F099ECCE
:1013A00097F00001E16F0001E151D8A412000001A3
:1013B00020EE02F0DD51D926DE51DA22DECFB7F081
:1013C000DDCFB8F0DFC0B9F0010E0001BA6F3CEC20
:1013D0009AF0000120EE04F0DD51D926DE51DA2228
:1013E000DECFB7F0DDCFB8F0DFC0B9F0010E0001FD
:1013F000BA6F3CEC9AF044D0E2C0C6F0E3C0C7F04C
:10140000000E0001C86FDFC0C9F099EC97F0000131
:10141000E16F0001E151D8A41200000120EE02F0BA
:10142000DD51D926DE51DA22DECFB7F0DDCFB8F0BC
:10143000DFC0B9F0000E0001BA6F3CEC9AF0000179
:1014400020EE04F0DD51D926DE51DA22DECFB7F0EE
:10145000DDCFB8F0DFC0B9F0000E0001BA6F3CEC90
:101460009AF00ED00001E051000AD8B446D7010A24
:10147000D8B456D7030AD8B489D7010AD8B4BCD790
:10148000080E0001DD250001C66F000E0001DE21FF
:101490000001C76FDFC0C8F0E0C0C9F05AEC9CF093
:1014A00012000101F451B4EC94F0F2C1D9FFF3C180
:1014B000DAFF0001B7C0DEFF0001B8C0DDFF0101A7
:1014C000F45107EC95F0010120EE06F0F251D92617
:1014D000F351DA220001B7C0DEFF0001B8C0DDFF22
:1014E0000101F45107EC95F0010120EE04F0F251F6
:1014F000D926F351DA220001B7C0DEFF0001B8C0DF
:10150000DDFF0101F45161EC94F0010120EE02F0E5
:10151000F251D926F351DA220001B7C0DEFF0001F3
:10152000B8C0DDFF010120EE04F0F251D926F351DD
:10153000DA22DECFF5F1DDCFF6F1F5C1D9FFF6C144
:10154000DAFF000EDF6E010120EE02F0F251D92623
:10155000F351DA22DECFF5F1DDCFF6F1F5C1D9FF97
:10156000F6C1DAFFFF0EDF6EF2C1ECF1F3C1EDF16F
:10157000000E0101EE6F59EC86F0000E0101F76FCD
:10158000070E0101F76531D04BD0F2C1DDF0F3C198
:10159000DEF0F7C1DFF0030E0001E06F71EC89F0BF
:1015A0003CD0F2C1DDF0F3C1DEF0F7C1DFF0020E96
:1015B0000001E06F71EC89F030D0F2C1DDF0F3C1D1
:1015C000DEF0F7C1DFF0010E0001E06F71EC89F091
:1015D00024D0F2C1DDF0F3C1DEF0F7C1DFF0000E80
:1015E0000001E06F71EC89F018D0F2C1D9FFF3C1AE
:1015F000DAFFDECFC3F0DDCFC4F0F7C1C5F0FCECFD
:101600009CF0000AD8B4C1D7010AD8B4D6D7030ACF
:10161000D8B4C7D7010AD8B4DCD70101F72BB0D7AB
:10162000F2C1C6F0F3C1C7F0000E0001C86F0FECA5
:1016300082F012000001CA6FA8D046EC96F01200AA
:10164000A2EC9BF012008FEC96F01200E1EC91F00E
:1016500012000AEC9AF01200B6EC9EF01200CAC01A
:10166000C7F07F0E0001C7173750140D040E00019C
:10167000C86F020E0001C96FF3500001C827F45073
:101680000001C9233650010DF3500001C825D96E61
:10169000F4500001C921DA6EDF507F0B0001C71939
:1016A000D8B42BD0010E0001FF6F3750140D040E7B
:1016B0000001C76F020E0001C86FF3500001C72779
:1016C000F4500001C8233650010DF3500001C72526
:1016D000D96EF4500001C821DA6E0001CA518009A8
:1016E000DF6E3750020D000EF324D96E010EF42088
:1016F000DA6EFDC0DEFFFEC0DDFF0AEC9AF00009E5
:10170000D8B41200CAC0C7F07F0E0001C717375007
:10171000140D040E0001C86F020E0001C96FF350D2
:101720000001C827F4500001C9233650010DF350C1
:101730000001C825D96EF4500001C921DA6EDF50CE
:101740007F0B0001C719D8B41200010E0001FF6F12
:101750003750140D040E0001C76F020E0001C86F50
:10176000F3500001C727F4500001C8233650010D83
:10177000F3500001C725D96EF4500001C821DA6E7C
:101780000001CA518009DF6E12000001CA51070A28
:10179000D8B45FD70F0AD8B453D7010AD8B456D7F4
:1017A000030AD8B44AD7060AD8B44DD7010AD8B428
:1017B00044D72D0AD8B453D7030AD8B44DD74FD73E
:1017C000010E446E000E256E000E266E000E276E72
:1017D000C40E0101F26F010E0101F36F000E010151
:1017E000F46F51EC8AF0CE0E0101F26F010E01018F
:1017F000F36F010E0101F46F51EC8AF0800E0101CC
:10180000F26F000E0101F36F020E0101F46F51EC53
:101810008AF08A0E0101F26F000E0101F36F030ED0
:101820000101F46F51EC8AF0940E0101F26F000E89
:101830000101F36F040E0101F46F51EC8AF09E0E6A
:101840000101F26F000E0101F36F050E0101F46F4B
:1018500051EC8AF0D80E0101F26F010E0101F36F15
:10186000060E0101F46F51EC8AF09E0E0001DD6F4F
:10187000000E0001DE6F050E0001DF6F000E00019B
:10188000E06F71EC89F0CE0E0001ED6F010E0001EA
:10189000EE6F000E0001EF6F000E0001F06F2EECF6
:1018A00085F09E0E0001DD6F000E0001DE6F060E5A
:1018B0000001DF6F030E0001E06F71EC89F0D80EBC
:1018C0000101EC6F010E0101ED6F030E0101EE6FDE
:1018D00059EC86F0D80E0001C66F010E0001C76FEB
:1018E000040E0001C86F000E0001C96F7FEC91F07B
:1018F0009E0E0001C66F000E0001C76F060E0001AC
:10190000C86F010E0001C96F7FEC91F0000E6EEC04
:101910009AF0010E6EEC9AF0000E9E6E000EA16E13
:10192000000EA46E9B8E9B8C000E0001B86F640E9F
:10193000B76FA0EC99F0D08E1200FCEC98F0000E7E
:101940000001EF6F000EEE6F0001EF5106E1590E3E
:101950000001EE5DD8B08BD001D089D0D8900001C5
:10196000EE35F66E0001EF35F76E030EF626FD0E2E
:10197000F722F86A000EF8220900800EF518090017
:10198000F510D8A422D00001EF511FE1580E00013C
:10199000EE5DD8B01AD00001EE4BEF2BD8900001CD
:1019A000EE35F66E0001EF35F76E030EF626FD0EEE
:1019B000F722F86A000EF8220900F5CFB7F00A0006
:1019C000F5CFB8F0A0EC99F04BD0D8900001EE35EF
:1019D000F66E0001EF35F76E030EF626FD0EF722C8
:1019E000F86A000EF8220900000EF55E0900010EEB
:1019F000F55AD8A020D0000E0001BA6FD89000018F
:101A0000EE35F66E0001EF35F76E030EF626FD0E8D
:101A1000F722F86A000EF8220900F5CFECF0090071
:101A2000F5CFEDF0EDC0ECF00001ED6B0001EC51F5
:101A30004BEC9EF015D0010E0001BA6FD89000015A
:101A4000EE35F66E0001EF35F76E030EF626FD0E4D
:101A5000F722F86A000EF8220800F5504BEC9EF0D1
:101A60000001EE4BEF2B0001EF5101E170D7000EAA
:101A70000001B86F640EB76FA0EC99F0000E000182
:101A8000BA6F290E4BEC9EF0010EFAEC95F0000EA9
:101A90000001B86F640EB76FA0EC99F0000E000162
:101AA000C16F000EC06FFDEC9AF01200CE0E000167
:101AB000D46F000E0001D56F9ED0250E0001D619FF
:101AC000D8B405D00001D651ECEC9EF094D0000EB5
:101AD0000001D06F15D0D4C0D9FFD5C0DAFFDF50D8
:101AE0000001D66F020E0001D427000ED52300019D
:101AF000D651ECEC9EF07FD0C00E0001D01318D070
:101B0000CCC0F6FFCDC0F7FF0001CC4BCD2B000EB3
:101B1000F86E0800F5CFD6F00001D651000AD8B40F
:101B20001200630AD8B4D7D7160AD8B4E5D7DFD7DE
:101B3000D4C0D9FFD5C0DAFFDECFD1F0DDCFD2F0EF
:101B4000020E0001D427000ED523010E0001D66F2E
:101B5000050E0001D619D8B419D00001D651020DD6
:101B6000D50EF324F66EFD0EF420F76EF86A000E23
:101B7000F8220900F5500001D15D0900F55000017F
:101B8000D259D8A003D00001D62BE2D7D6C0D3F0CB
:101B90002CD00001D351020DD50EF324F66EFD0EAC
:101BA000F420F76EF86A000EF8220900F5CFB9F0BC
:101BB0000A00F5CFBAF0D1C0B7F0D2C0B8F0D7EC78
:101BC00097F0B7C0BEF0B8C0BFF0000E0001C16F03
:101BD0000A0EC06F9FEC9AF00001BE51300F000159
:101BE000D66F0001D651ECEC9EF00001D307000146
:101BF000D329D8A4CED7CCC0F6FFCDC0F7FF0001C3
:101C0000CC4BCD2B000EF86E0800F5CFD6F00001BE
:101C1000D651D8B4120051D7000E0001CD6F6C0E12
:101C2000CE6FDC0ECF6F020ED06F0001D890C4379C
:101C3000C537C637C737020E0001C86FD8900001FC
:101C4000D033CF33CE33CD330001C82FF7D7CDC03B
:101C5000B7F0CEC0B8F0CFC0B9F0D0C0BAF0C4C0B1
:101C6000BBF0C5C0BCF0C6C0BDF0C7C0BEF0A1ECA3
:101C700092F0B7C0D1F0B8C0D2F0B9C0D3F0BAC0BA
:101C8000D4F00ED0000E0001C96F000ECA6F000E16
:101C9000CB6F000ECC6F322A020E326401D025D0F9
:101CA000D1C0B7F0D2C0B8F0D3C0B9F0D4C0BAF048
:101CB0003250010DEC0EF324F66EFD0EF420F76E9B
:101CC000F86A000EF8220800F5500001BB6FBC6BEB
:101CD000BD6BBE6BA1EC92F00001BA510001B911CD
:101CE000D1E10001B805D8B0CDD7CA503218FC0BED
:101CF0003218CA6ECA841EEC9FF03250010DEC0EF1
:101D0000F324F66EFD0EF420F76EF86A000EF8224A
:101D10000800F5CF33F0FF0E0001D1250001646FFC
:101D2000FF0E0001D2210001656FFF0E0001D321DB
:101D30000001666FFF0E0001D4210001676F64C0CF
:101D4000B7F065C0B8F066C0B9F067C0BAF03350FC
:101D50000001BB6FBC6BBD6BBE6BA1EC92F00001D0
:101D6000B751326E32C0CBFF120049B247EF8FF04D
:101D700020EE04F02C50D9262D50DA22DF507DECD5
:101D80009CF00009D8B47AD02CC0D9FF2DC0DAFF5E
:101D9000DE50DE10D8B46DD02CC0D9FF2DC0DAFFD4
:101DA000010EDBBE26D0010EDB5003E1DE04D8A01D
:101DB00020D02CC0D9FF2DC0DAFFDE2804E17F0E31
:101DC000DE18D8B407D02CC0D9FF2DC0DAFFDE064C
:101DD000000EDD5A940E0001C66F000E0001C76FA1
:101DE000000E0001C86F010E0001C96F7FEC91F079
:101DF0001FD02CC0D9FF2DC0DAFFDE0404E1800E15
:101E0000DE18D8B407D02CC0D9FF2DC0DAFFDE2AE7
:101E1000000EDD22940E0001C66F000E0001C76F98
:101E2000000E0001C86F000E0001C96F7FEC91F039
:101E3000940E0001C66F000E0001C76F010E000175
:101E4000C86F010E0001C96F7FEC91F0940E000184
:101E5000C66F000E0001C76F010E0001C86F000EB3
:101E60000001C96F7FEC91F0D0EC9EF008EC9FF080
:101E70001200D0EC9EF022EC9FF0120071C0B7F07F
:101E800072C0B8F073C0B9F0FAEC9EF0120020EE08
:101E900004F02C50D9262D50DA22DF5054EC9DF05E
:101EA0000009D8B46AD02CC0D9FF2DC0DAFFDE50AB
:101EB000DE10D8B45DD02CC0D9FF2DC0DAFF010EE2
:101EC000DBBE22D0010EDB5003E1DE04D8A01CD023
:101ED0002CC0D9FF2DC0DAFFDE2804E17F0EDE180A
:101EE000D8B407D02CC0D9FF2DC0DAFFDE06000E13
:101EF000DD5A940E106E000E116E000E126E010E61
:101F0000136E0CEC94F01BD02CC0D9FF2DC0DAFF5F
:101F1000DE0404E1800EDE18D8B407D02CC0D9FF4F
:101F20002DC0DAFFDE2A000EDD22940E106E000EA8
:101F3000116E000E126E000E136E0CEC94F0940EE7
:101F4000106E000E116E010E126E010E136E0CEC6F
:101F500094F0940E106E000E116E010E126E000EB3
:101F6000136E0CEC94F028EC9FF00EEC9FF0120036
:101F700028EC9FF025EC9FF0120071C001F072C0B8
:101F800002F073C003F001EC9FF01200E0EC8BF064
:101F9000C088C098010EBEEC9CF00009D8B40CD0EB
:101FA0009DEC8CF0D4EC96F074EC88F0D0EC9EF0C4
:101FB0000009D8A489EC9DF0F29E000E0201036F87
:101FC000000E026F000E0201016F000E006F020191
:101FD00001BF07D00201015111E102010005D8B093
:101FE0000DD0080E0101FC6FCA0EE82EFED7FC2FA3
:101FF000FCD7000E0201016F320E006F02010007D4
:10200000D8A00107010EBEEC9CF00009D8B4DFD7C0
:10201000FC0E0001CC6FFF0E0001CD6F000E000121
:10202000CF6F230ECE6F56EC8DF0FF0E0001B86F10
:10203000B76919EC9FF0DD0E0001CC6FFF0E0001B7
:10204000CD6F56EC8DF0F10E0001CC6FFF0E00014C
:10205000CD6F02C2CEF003C2CFF056EC8DF06EEC25
:1020600087F002C2CDF003C2CEF000EC9EF0DDECB2
:102070009CF0D0EC9EF00009D8B4A9D789EC9DF073
:10208000A6D7C3C0CBF0C4C0CCF0000E0001CA6F0D
:10209000000EC96FC5C0C7F0C6C0C8F00001CB5163
:1020A0000001CC11D8A434D0C7C0D9FFC8C0DAFF12
:1020B000300EDF6E000E0001CA6F010EC96F40D0F6
:1020C000CBC0BEF0CCC0BFF0000E0001C16F0A0E45
:1020D000C06F9FEC9AF00001BE51300FC7C0D9FF0E
:1020E000C8C0DAFFDF6ECBC0B7F0CCC0B8F0000ECE
:1020F0000001BA6F0A0EB96FD7EC97F0B7C0CBF0FA
:10210000B8C0CCF00001C94BCA2B0001C74BC82B8B
:102110000001CB510001CC11D8B408D00001CA5144
:1021200005E1060E0001C95DD8A0CAD7C5C0B7F049
:10213000C6C0B8F0C9C0B9F0CAC0BAF034EC99F062
:102140000001C9510001C525D96E0001CA51000125
:10215000C621DA6E000EDF6E12000101ED510101A1
:10216000EE11D8B412000101F1510101F211010187
:10217000F311D8B412000101F4510101F51101016C
:10218000F611D8B412000101F7510101F811010153
:10219000F911D8B412000101EF510101F011D8A4D6
:1021A00005D0000E0101F06F010EEF6FEDC1D9FFF8
:1021B000EEC1DAFF000EDF6E010120EE01F0ED51FD
:1021C000D926EE51DA22000EDF6E010120EE02F078
:1021D000ED51D926EE51DA22EFC1DEFFF0C1DDFF6D
:1021E000010120EE04F0ED51D926EE51DA22F7C1BB
:1021F000DEFFF8C1DEFFF9C1DEFF010120EE07F0CE
:10220000ED51D926EE51DA22F4C1DEFFF5C1DEFF31
:10221000F6C1DEFF01D812000500FA6E0101F1518E
:10222000FD6EF251FE6EF351FF6EFA501200000186
:10223000C26F200E0001C25F0001C251050DF3CF35
:10224000C0F0F4CFC1F0EF0E0001C0250001C36F54
:10225000FD0E0001C1210001C46F000E0001C76F17
:10226000040E0001C76501D043D0000E0001C86F05
:10227000060E0001C86501D035D0C3C0B7F0C4C098
:10228000B8F0C8C0B9F06FEC9DF00009D8A405D033
:1022900076C0C5F077C0C6F004D0FDC0C5F0FEC062
:1022A000C6F00001C8510A0D240E0001BE6F010ED8
:1022B0000001BF6FF3500001BE27F4500001BF239F
:1022C0000001C751020DF3500001BE25D96EF45034
:1022D0000001BF21DA6EC5C0DEFFC6C0DDFF000110
:1022E000C82BC6D70001C34BC42B0001C72BB8D7DE
:1022F000240E0001BC6F010E0001BD6F1200080E1C
:102300000001C6250001C36F000E0001C7210001B6
:10231000C46FC8C0C5F0FCEC9CF00001CA6F42D08D
:10232000010E0001C917000120EE02F0C651D926A6
:10233000C751DA22DECFB7F0DDCFB8F0C8C0B9F0B0
:10234000C9C0BAF03CEC9AF01200010E0001C917A6
:10235000010E0001C91B000120EE02F0C651D92672
:10236000C751DA22DECFB7F0DDCFB8F0C8C0B9F080
:10237000C9C0BAF03CEC9AF01200010E0001C91776
:10238000000120EE04F0C651D926C751DA22DECF73
:10239000B7F0DDCFB8F0C8C0B9F0C9C0BAF03CECB6
:1023A0009AF012000001CA51000AD8B41200010AC2
:1023B000D8B4B6D7030AD8B4C8D7010AD8A4120033
:1023C000DCD7000E0001C56FFA0E3F240001B76F85
:1023D000FF0E40200001B86F000E0001BA6F060E1C
:1023E000B96F42EC92F00001B7510001C66FC6C050
:1023F000B7F00001B86B000E0001BA6F040EB96FA0
:1024000042EC92F00001B7510001C46F000E0001D0
:10241000C56F06D01BEC9DF00AEC9AF00001C52BAD
:102420000001C451040DF31EF41EF34AF42A000106
:10243000C6510001BF6FC06BF3500001BF27F450BD
:102440000001C0230001BF1FC01FBF4BC02B040EE3
:102450000001BF27000EC0230001C5510001C16F5C
:10246000C26B0001BF510001C15D0001C251800A71
:102470000001C36F0001C051800A0001C359D8B0E8
:102480001200C8D7000E0001BC6F0001BAAF08D01F
:102490000001B96DBA1FD8B0BA2B010E0001BC6F94
:1024A0000001B8AF08D00001B76DB81FD8B0B82B85
:1024B000010E0001BC1B000E0001BE6F000EBD6FBF
:1024C0000001B9510001BA11D8B42CD0010E00019D
:1024D000BB6F06D00001D890B937BA370001BB2BCB
:1024E0000001BAAFF7D70001D890BD37BE37000161
:1024F000B9510001B75D0001BA510001B859D8A027
:102500000AD00001B9510001B75F0001BA510001C2
:10251000B85B0001BD810001D890BA33B933000126
:10252000BB2FE1D70001BC510001D8B405D0000198
:10253000BD6DBE1FD8B0BE2BBDC0B7F0BEC0B8F0D9
:102540001200000E0001BF6F000EC06F000EC16FC1
:10255000000EC26F0001BB510001BC110001BD1192
:102560000001BE11D8B442D0010E0001C36F08D0E3
:102570000001D890BB37BC37BD37BE370001C32B35
:102580000001BEAFF5D70001D890BF37C037C137C3
:10259000C2370001BB510001B75D0001BC51000111
:1025A000B8590001BD510001B9590001BE510001E7
:1025B000BA59D8A012D00001BB510001B75F000189
:1025C000BC510001B85B0001BD510001B95B0001C5
:1025D000BE510001BA5B0001BF810001D890BE333B
:1025E000BD33BC33BB330001C32FCDD7BFC0B7F061
:1025F000C0C0B8F0C1C0B9F0C2C0BAF01200000E3D
:102600000001BC6F000EBB6F38D06A0E0001BB2505
:10261000D96E010E0001BC21DA6EB8C0E1FFB9C06D
:10262000E2FFE750ECEC83F0DF6E6A0E0001BB25A1
:10263000D96E010E0001BC21DA6E800EDE18D8A41E
:102640000ED00001BB07D8A0BC076A0E0001BB2555
:10265000D96E010E0001BC21DA6E000EDB8E000186
:10266000B84BB92B0001BB4BBC2B0001BC511AE18C
:10267000060E0001BB5DD8B015D0B8C0D9FFB9C0F7
:10268000DAFFDF50D8B40ED0C0D76A0E0001BB25E8
:10269000D96E010E0001BC21DA6E000EDF6E000162
:1026A000BB4BBC2B0001BC5106E1060E0001BB5D1B
:1026B000D8B01200EAD712000001BB51010DDF0EA5
:1026C000F324F66EFD0EF420F76EF86A000EF82281
:1026D0000800F5CFC1F0000E0001C06F06D0000168
:1026E000B9510001BA5F0001C02B0001B9510001CE
:1026F000BA5DD8B0F4D70001BB510001BA03F35062
:10270000BA6F0001C0510001BA270001C151000198
:10271000BC17BAC0BDF0C1C0BEF00001BD2B03D0D4
:102720000001D890BE370001BD2FFAD70001BE517D
:10273000FF0A0001BF6FB7C0D9FFB8C0DAFF0001C0
:10274000BF51DF16BAC0BDF0BCC0BEF00001BD2B4A
:1027500003D00001D890BE370001BD2FFAD7B7C013
:10276000D9FFB8C0DAFF0001BE51DF12120000012C
:10277000BF6F020E0001BC27020E0001BE27030E30
:102780000001BF27030E0001BD27000E0001BA6F34
:102790002A0E4BEC9EF0010E0001BA6F000E4BECBE
:1027A0009EF0010E0001BA6F0001BF514BEC9EF08C
:1027B000010E0001BA6F000E4BEC9EF0010E0001FD
:1027C000BA6F0001BD514BEC9EF0000E0001BA6FD4
:1027D0002B0E4BEC9EF0010E0001BA6F000E4BEC7D
:1027E0009EF0010E0001BA6F0001BC514BEC9EF04F
:1027F000010E0001BA6F000E4BEC9EF0010E0001BD
:10280000BA6F0001BE514BEC9EF0000E0001BA6F92
:102810002C0E4BEC9EF01200080E10240D6E000ED4
:1028200011200E6E12C00FF0D1EC9DF0146E3BD053
:10283000010E131620EE02F01050D9261150DA22A4
:10284000DECF01F0DDCF02F012C003F013C004F0C0
:10285000C9EC9BF01200010E1316010E131A20EEA4
:1028600002F01050D9261150DA22DECF01F0DDCF70
:1028700002F012C003F013C004F0C9EC9BF0120088
:10288000010E131620EE04F01050D9261150DA2252
:10289000DECF01F0DDCF02F012C003F013C004F070
:1028A000C9EC9BF012001450000AD8B41200010ABF
:1028B000D8B4BED7030AD8B4CED7010AD8A4120020
:1028C000DFD70001B96F38D0920E0001B76F0F0E3D
:1028D0000001B86F1200930E0001B76F0F0E0001D8
:1028E000B86F1200940E0001B76F0F0E0001B86FA1
:1028F0001200950E0001B76F0F0E0001B86F1200A5
:10290000960E0001B76F0F0E0001B86F1200970E00
:102910000001B76F0F0E0001B86F1200980E000192
:10292000B76F0F0E0001B86F1200000E0001B76FF5
:10293000000E0001B86F12000001B951000AD8B4AE
:10294000C3D7010AD8B4C7D7030AD8B4CBD7010A72
:10295000D8B4CFD7070AD8B4D3D7010AD8B4D7D7B9
:10296000030AD8B4DBD7E1D70001B96F38D0CF0E56
:102970000001B76FFF0E0001B86F1200D10E000109
:10298000B76FFF0E0001B86F1200D30E0001B76FD2
:10299000FF0E0001B86F1200D50E0001B76FFF0ED9
:1029A0000001B86F1200D70E0001B76FFF0E0001D3
:1029B000B86F1200D90E0001B76FFF0E0001B86F9B
:1029C0001200DB0E0001B76FFF0E0001B86F12009E
:1029D000000E0001B76F000E0001B86F1200000179
:1029E000B951000AD8B4C3D7010AD8B4C7D7030A6B
:1029F000D8B4CBD7010AD8B4CFD7070AD8B4D3D725
:102A0000010AD8B4D7D7030AD8B4DBD7E1D700017D
:102A1000B96F38D0800E0001B76F0F0E0001B86F8C
:102A20001200810E0001B76F0F0E0001B86F120087
:102A3000820E0001B76F0F0E0001B86F1200830EF7
:102A40000001B76F0F0E0001B86F1200840E000175
:102A5000B76F0F0E0001B86F1200850E0001B76F3F
:102A60000F0E0001B86F1200860E0001B76F0F0E37
:102A70000001B86F1200000E0001B76F000E0001D8
:102A8000B86F12000001B951000AD8B4C3D7010AC7
:102A9000D8B4C7D7030AD8B4CBD7010AD8B4CFD794
:102AA000070AD8B4D3D7010AD8B4D7D7030AD8B401
:102AB000DBD7E1D7000E0001D96F0001CB51000137
:102AC000CF250001D76F0001CD510001D1250001B4
:102AD000D86FD1C0B7F0D2C0B8F0CFC0B9F0D0C075
:102AE000BAF039EC9DF0B7C0D5F0B8C0D6F0CDC083
:102AF000BCF00001D7050001BD6F0001D805000141
:102B0000BE6F0001CB51B7EC93F0000E0001D96FFE
:102B100013D00001D951020DF3500001C925D96E1F
:102B2000F4500001CA21DA6EDECFBCF0DDCFBDF07B
:102B3000A7EC9EF00001D92B0001D9510001D36F01
:102B4000D46B0001D5510001D35D0001D6510001C5
:102B5000D459D8B01200DDD7B7C0F6FFB8C0F7FF20
:102B6000000EF86E0F0EF76403D00800F55005D084
:102B7000F6CFE9FFF7CFEAFFEF500001BF6F00018A
:102B8000BB51010DDF0EF324F66EFD0EF420F76E3F
:102B9000F86A000EF8220800F5CFBDF0000E000123
:102BA000BE6F06D00001B9510001BA5F0001BE2B13
:102BB0000001B9510001BA5DD8B0F4D70001BB5192
:102BC0000001BA03F350BA6F0001BE510001BA27E9
:102BD0000001BA290001BC6F03D00001D890BF33B7
:102BE0000001BC2FFAD70001BD510001BF17000141
:102BF000BF5112000001BC6F000E0001BD6F000E3E
:102C00000001BA6F360E4BEC9EF00001BC51030B75
:102C10000001BD6F2CD0010E0001BA6FC80E4BEC45
:102C20009EF0800E476E800E466E1200010E00016F
:102C3000BA6FA80E4BEC9EF0800E476E800E466E6B
:102C40001200010E0001BA6F080E4BEC9EF0800ED0
:102C5000476E800E466E1200010E0001BA6F680EBC
:102C60004BEC9EF0800E476E800E466E1200000107
:102C7000BD51000AD8B4CFD7010AD8B4D7D7030AB8
:102C8000D8B4DFD7010AD8A41200E6D739D037501C
:102C9000140D040E0001B76F020E0001B86FF3505F
:102CA0000001B727F4500001B8233650010DF3504E
:102CB0000001B725D96EF4500001B821DA6EDF505B
:102CC000D8B41DD0010E0001FF6F3750140D040E53
:102CD0000001B76F020E0001B86FF3500001B72773
:102CE000F4500001B8233650010DF3500001B72510
:102CF000D96EF4500001B821DA6E800EDF6E362AEC
:102D0000130E3664C4D7000E366E372A080E4126DD
:102D1000000E4222000E406E060E3F6E1200000EA4
:102D2000366E000E376E000E0001BA6F0E0E0001F7
:102D3000BA6501D02DD0000E0001B96F130E00014D
:102D4000B96501D022D0010E0001FF6F0001BA5118
:102D5000140D040E0001B76F020E0001B86FF3509E
:102D60000001B727F4500001B8230001B951010D4B
:102D7000F3500001B725D96EF4500001B821DA6E86
:102D8000800EDF6E0001B92BD9D70001BA2BCED748
:102D9000010E00017D6F000E406E060E3F6E000EAC
:102DA000426E060E416E1200000E366E000E376E39
:102DB000000E0001B96F130E0001B96501D01200B9
:102DC000000E0001BA6F0E0E0001BA6501D02CD0C2
:102DD0000001BA51140D040E0001B76F020E00017C
:102DE000B86FF3500001B727F4500001B823000179
:102DF000B951010DF3500001B725D96EF45000010F
:102E0000B821DA6E000EDF6E0001BA51020D000E1D
:102E1000F324D96E010EF420DA6EFF0EDE6EFF0E83
:102E2000DD6E0001BA2BCFD70001B92BC4D7C80E75
:102E3000F66E3D0EF76E010EF86E00EEF1F010EE3C
:102E40000FF00900F5CFEEFFE550E150FAE1280E52
:102E5000F66E3E0EF76E010EF86E00EE3FF010EECD
:102E60000AF00900F5CFEEFFE550E150FAE102EE7D
:102E700004F011EE2CF0EE6AE550E150FCE1E25076
:102E8000FAE101EE00F0EC0EEE6AE806FDE100EE7C
:102E900060F0570EEE6AE806FDE100EE25F01A0E2E
:102EA000EE6AE806FDE1499049920001C6EF8FF015
:102EB0000001BD6F090E0001BA611200BDC02FF004
:102EC000000E2E6E070E2E6401D027D02FC0BBF04F
:102ED000010E0001BB17060E0001BC6F0001D89067
:102EE000BB370001BC2FFAD70001BB51306E000187
:102EF000BA39E842F80B2E1030100001BE6FD8909E
:102F00002F32A40E0001B76F010E0001B86FBEC0D2
:102F1000B9F06AEC99F02E2AD5D7A40E0001B76F4C
:102F2000010E0001B86F000E0001B96F6AEC99F054
:102F30001200B50EF66EFD0EF76E000EF86E20EE66
:102F4000CCF00F0E0900F5CFDEFFE806FBE2C6C0AD
:102F5000C3F0C7C0C4F0C9C0C5F0FCEC9CF00001D0
:102F6000DC6F040E0001C86120D0040E0001DC619A
:102F70001CD00001C851040DCC0E0001CA6F000E18
:102F80000001CB6FF3500001CA27F4500001CB239E
:102F90000001DC51010DF3500001CA25D96EF45037
:102FA0000001CB21DA6EDF501200050E1200000E78
:102FB0000001BD6F000EBC6F0001B9510001BA11D4
:102FC000D8B42CD0010E0001BB6F06D00001D89000
:102FD000B937BA370001BB2B0001BAAFF7D70001F0
:102FE000D890BC37BD370001B9510001B75D000171
:102FF000BA510001B859D8A00AD00001B951000156
:10300000B75F0001BA510001B85B0001BC8100014B
:10301000D890BA33B9330001BB2FE1D7BCC0B7F0A9
:10302000BDC0B8F0120001C0F6FF02C0F7FF000EED
:10303000F86E0F0EF76403D00800F55005D0F6CFF8
:10304000E9FFF7CFEAFFEF50096E0550010DDF0EE3
:10305000F324F66EFD0EF420F76EF86A000EF822E7
:103060000800F5CF07F0000E086E03D00350045E91
:10307000082A0350045CD8B0F9D705500402F35075
:10308000046E085004260428066E02D0D890093237
:10309000062EFCD70750091609501200000120EE39
:1030A00006F0C651D926C751DA22DECFB7F0DDCF00
:1030B000B8F0050E0001B96F000E0001BA6F3CECCC
:1030C0009AF0000120EE06F0C651D926C751DA2247
:1030D000DECFC2F0DDCFC3F0000E0001C46F000EE2
:1030E0000001C56F3AEC9EF0000120EE06F0C651DB
:1030F000D926C751DA22DECFB7F0DDCFB8F0050E02
:103100000001B96F010E0001BA6F3CEC9AF0120099
:10311000000120EE06F0C651D926C751DA22DECFD3
:10312000B7F0DDCFB8F0050E0001B96F000E000159
:10313000BA6F3CEC9AF0000120EE06F0C651D92699
:10314000C751DA22DECFC2F0DDCFC3F0000E00019E
:10315000C46F020E0001C56F3AEC9EF0000120EE34
:1031600006F0C651D926C751DA22DECFB7F0DDCF3F
:10317000B8F0050E0001B96F010E0001BA6F3CEC0A
:103180009AF01200000E0001CC6F000E0001CD6F0E
:10319000C4C0BCF00001C2510001C6250001CA6FC5
:1031A0000001CA050001BD6F0001C4510001C8251E
:1031B0000001CB6F0001CB050001BE6F0001C251C1
:1031C000B7EC93F0C8C0CDF00001CD510001D8B4E8
:1031D0001200C6C0CCF00001CC510001D8B409D017
:1031E000C0C0BCF0C1C0BDF0A7EC9EF00001CC0790
:1031F000F2D70001CD07E8D79E0E0001DD6F000E6B
:103200000001DE6F070E0001DF6F030E0001E06FAB
:1032100071EC89F09E0E0001DD6F000E0001DE6F83
:10322000060E0001DF6F030E0001E06F71EC89F004
:103230007AEC9BF0C00E0001E46FC60EE56F2D0E18
:10324000E66F000EE76F010E0001E86F010E00014E
:10325000E96F00EC80F0AF0E0001C66F010E0001B7
:10326000C76F4EEC98F012000001B9510001B7256C
:103270000001BC6F0001BA510001B8210001BD6F0F
:103280001AD0B7C0D9FFB8C0DAFFDF500001BB6F5A
:10329000BCC0D9FFBDC0DAFFB7C0E1FFB8C0E2FFD4
:1032A000DFCFE7FF0001B74BB82BBCC0D9FFBDC0D3
:1032B000DAFFBBC0DFFF0001BC07D8A0BD070001DB
:1032C000BC510001B75D0001BD510001B859D8B033
:1032D0001200D7D726D084C0D9FF85C0DAFF0001FD
:1032E000DF94B9C0C9FFC7A0FED7C9CFB9F084C069
:1032F000D9FF85C0DAFF0001DF8412008EC0D9FF3C
:103300008FC0DAFF0001DF9EB9C06FFF6DA0FED74E
:103310006FCFB9F08EC0D9FF8FC0DAFF0001DF8E0A
:103320001200000120EE02F0B751D926B851DA227E
:10333000DF50000AD8B4CFD7010AD8A41200DED7D4
:103340001FD0000E0001B96F000EBA6F000EBB6FE8
:10335000000EBC6F0001BC510001BB1111E1B00EA9
:103360000001B95D040E0001BA59D8B009D000F0CF
:10337000010E0001B927000EBA23BB23BC23EAD7F4
:103380000001B707D8A0B8070001B729DAE10001AA
:10339000B829D8A4D6D7080E0001B96F800EBA6F2D
:1033A000000EBB6F000EBC6F1200050E0001E36F34
:1033B000DDC0D9FFDEC0DAFFDECFE4F0DDCFE5F01F
:1033C0000001DF51020DF3CFE1F00001DF51020DEA
:1033D000F3280001E26FE4C0C6F0E5C0C7F0E0C02A
:1033E000C8F0E1C0C9F099EC97F00001E36F00016B
:1033F000E351D8A40CD0E4C0C6F0E5C0C7F0E0C0EB
:10340000C8F0E2C0C9F099EC97F00001E36F000149
:10341000E3511200362A060E3F26000E4022060E09
:103420003F240001BB6F000E40200001BC6F000173
:10343000BCBF09D00001BC5104E1800E0001BB5D9E
:10344000D8B046EC96F0080E41240001BB6F000E88
:1034500042200001BC6F0001BCBF0CD00001BC5178
:1034600005E1800E0001BB5DD8A004D08FEC96F082
:10347000010E1200000E1200010E0001BA17B9C0B1
:10348000BBF0010E0001BC6F0001BB2B03D000019B
:10349000D890BC370001BB2FFAD70001BC51FF0AFE
:1034A0000001BD6FB7C0D9FFB8C0DAFF0001BD5140
:1034B000DF16B9C0BBF0BAC0BCF00001BB2B03D013
:1034C0000001D890BC370001BB2FFAD7B7C0D9FF95
:1034D000B8C0DAFF0001BC51DF1212000001E46F36
:1034E0001ED0800E0001DD6F000E0001DE6F000EA9
:1034F0000001DF6F030E0001E06F71EC89F017D05F
:10350000800E0001DD6F000E0001DE6F010E000174
:10351000DF6F030E0001E06F71EC89F008D000014D
:10352000E451000AD8B4DDD7010AD8B4E9D7000EB7
:103530000001CB6F0001E45152EC9BF0120000013E
:10354000C0510001C111D8B426D0010E0001C26FD4
:1035500006D00001D890C037C1370001C22B00014E
:10356000C1AFF7D70001C0510001BE5D0001C151DC
:103570000001BF59D8A008D00001C0510001BE5FB2
:103580000001C1510001BF5B0001D890C133C033BD
:103590000001C22FE7D7BEC0BEF0BFC0BFF012000F
:1035A000050E0001EC6F0001E851020DF3CFEAF0C7
:1035B0000001E851020DF3280001EB6FE6C0DDF0D9
:1035C000E7C0DEF0EAC0DFF0E9C0E0F0D5EC99F04A
:1035D0000001EC6F0001EC51D8A40CD0E6C0DDF086
:1035E000E7C0DEF0EBC0DFF0E9C0E0F0D5EC99F029
:1035F0000001EC6F0001EC511200000E0001C26FDF
:10360000000E0001C36F000E0001BC6F47040001F3
:10361000BD6F46040001BE6F000EB7EC93F046C0CC
:10362000C3F00001C3510001D8B4120047C0C2F07A
:103630000001C2510001D8B409D0C0C0BCF0C1C063
:10364000BDF0A7EC9EF00001C207F2D70001C3074E
:10365000E8D71CD0000E0001B96F000EBA6F000E43
:10366000BB6F000EBC6F0001B9510001BA1100011F
:10367000BB110001BC11D8A409D000F0010E00015B
:10368000B927000EBA23BB23BC23EDD70001B7072F
:10369000D8A0B8070001B729DDE10001B829D8B4E6
:1036A0001200D8D70001CC6F1CD0800E0001C66F6D
:1036B000000E0001C76F000E0001C86FCBC0C9F03B
:1036C0007FEC91F01200800E0001C66F000E000129
:1036D000C76F010E0001C86FCBC0C9F07FEC91F03D
:1036E00012000001CC51000AD8B4DFD7010AD8A4D7
:1036F0001200E9D76BEC9EF0010E13EC9CF0000E6B
:103700000001B86F800EB76FA0EC99F0010E13ECBA
:103710009CF05CEC9EF0000E0001B86F800EB76F5D
:10372000A0EC99F0010E13EC9CF06BEC9EF0000EF7
:103730000001B86F800EB76FA0EC99F0010E13EC8A
:103740009CF012003650D8B406D0FA0E3F26FF0E79
:10375000402236061BD03750D8B40CD0000E406E35
:10376000720E3F6EF80E4126FF0E4222130E366E89
:1037700037060CD0000E406E060E3F6E000E426EF5
:10378000060E416E000E366E000E376E1BEC9DF07D
:103790001200010E041603C005F0010E066E052A84
:1037A00002D0D8900636052EFCD70650FF0A076EC9
:1037B00001C0D9FF02C0DAFF0750DF1603C005F0D1
:1037C00004C006F0052A02D0D8900636052EFCD794
:1037D00001C0D9FF02C0DAFF0650DF121200050E49
:1037E0000001F06FEDC0E6F0EEC0E7F0000E000162
:1037F000E86FEFC0E9F0D0EC9AF00001F06F000143
:10380000F051D8A40DD0EDC0E6F0EEC0E7F0010E07
:103810000001E86FEFC0E9F0D0EC9AF00001F06F22
:103820000001F05112000001CF6F18D0800E00018E
:10383000CB6F000E0001CC6F000E0001CD6FA1EC2C
:103840009DF01200800E0001CB6F000E0001CC6FC6
:10385000010E0001CD6FA1EC9DF012000001CF51CF
:10386000000AD8B4E3D7010AD8A41200EBD70001AC
:1038700020EE06F0B751D926B851DA22DECFBAF0E1
:10388000DDCFBBF0BAC0D9FFBBC0DAFFDF5000010B
:10389000BC6F0001B9290001BA6F03D00001D890B4
:1038A000BC330001BA2FFAD7010E0001BC1700018A
:1038B000BC511200030E0001C86514D0010E0001B6
:1038C000C6250001C26F000E0001C7210001C36FB1
:1038D0000001C851FC0F0001C46FC9C0C5F029EC3C
:1038E0009EF01200C6C0C2F0C7C0C3F0C8C0C4F08A
:1038F000C9C0C5F029EC9EF012000001BE6F8650D1
:103900000F0B0001BD6F4450D8A402D0000E12006E
:10391000000E446E0001BE510001BD19D8B40CD098
:10392000F00E86160001BE518612000E0001B86F1F
:103930000A0EB76F29EC9BF0010E120016D0000E94
:10394000036E000E046E000E056E000E066E035030
:10395000041005100610D8A408D000F0010E0326AC
:10396000000E042205220622F2D70106D8A0020684
:103970000128E5E10228D8B41200E1D70001BE6FAA
:1039800086500F0B0001BD6F4450D8B4FDD7000E18
:10399000446E0001BE510001BD19D8B40CD0F00E28
:1039A00086160001BE518612000E0001B86F0A0E85
:1039B000B76F29EC9BF0010E1200000E0001C06FE2
:1039C000000EBF6F0001C05116E1080E0001BF5D7F
:1039D000D8B01200BFC0BAF06A0E0001BF25D96E80
:1039E000010E0001C021DA6EDF5058EC97F00001A3
:1039F000BF4BC02BE7D71200030E0001C56512D0E4
:103A0000010E0001C3250001C06F000E0001C4219A
:103A10000001C16F0001C551FC0F0001C26F98EC9D
:103A20009EF01200C3C0C0F0C4C0C1F0C5C0C2F057
:103A300098EC9EF01200010E0001FF6F3750140D3C
:103A4000040E0001B76F020E0001B86FF3500001C1
:103A5000B727F4500001B8233650010DF350000190
:103A6000B725D96EF4500001B821DA6E800EDF6EF2
:103A700012000001B7510001B903F3CFBBF0F4CF3E
:103A8000BCF00001B7510001BA03F3500001BC279C
:103A90000001B8510001B903F3500001BC27BBC0BD
:103AA000B7F0BCC0B8F01200086E86500F0B076E5E
:103AB0004450D8A402D0000E1200000E446E0850EC
:103AC0000718D8B40AD0F00E861608508612000ED9
:103AD000026E0A0E016E9EEC9CF0010E1200B7C041
:103AE000F6FFB8C0F7FF000EF86E0800F5CFBBF088
:103AF0000001B9290001BA6F03D00001D890BB338F
:103B00000001BA2FFAD7010E0001BB170001BB510B
:103B10001200255026102710D8B40CD001D80AD096
:103B20000500FA6E2550FD6E2650FE6E2750FF6E82
:103B3000FA501200000E256E000E266E000E276E43
:103B40001200CBC0B7F0CCC0B8F0CDC0B9F037ECA4
:103B50009CF00001CE6F010E0001CE1BCBC0C6F061
:103B6000CCC0C7F0CDC0C8F0CEC0C9F07FEC91F09A
:103B70001200000120EE02F0B751D926B851DA2226
:103B8000DF50D8A407D084C0D9FF85C0DAFF000178
:103B9000DF8412008EC0D9FF8FC0DAFF0001DF8EF4
:103BA0001200030E0F640CD0010E0D240A6E000EDD
:103BB0000E200B6E0F50FC0F0C6EC3EC9EF012002B
:103BC0000DC00AF00EC00BF00FC00CF0C3EC9EF05D
:103BD000120025EC9FF000016E5100016F110001F1
:103BE0007011D8B4120001D812000500FA6E00015D
:103BF0006E51FD6E6F51FE6E7051FF6EFA501200E5
:103C0000CDC0C3F0CEC0C4F06A0E0001C56F010E76
:103C10000001C66F41EC90F06A0E0001B86F010E12
:103C20000001B96FFFEC92F0120004D09D961200D3
:103C3000A39E1200000120EE02F0B751D926B85120
:103C4000DA22DF50000AD8B4F1D7010AD8A4120052
:103C5000EFD7C2C0B7F0C3C0B8F0040E0001B96F0F
:103C6000C4C0BAF0020E0001BB6FC5C0BCF05CEC72
:103C700093F01200C2C0B7F0C3C0B8F0020E00014A
:103C8000B96FC4C0BAF0040E0001BB6FC5C0BCF070
:103C90005CEC93F012000001BB6F0001BA51DBEC49
:103CA0009EF0AF0E0001B76F010E0001B86FBBC0F0
:103CB000B9F06AEC99F012009E0E0001C66F000E7A
:103CC0000001C76F060E0001C86F010E0001C96F29
:103CD0007FEC91F012009E0E0001C66F000E0001F5
:103CE000C76F060E0001C86F000E0001C96F7FECA0
:103CF00091F012008A0E0001ED6F000E0001EE6FD0
:103D0000000E0001EF6F000E0001F06F2EEC85F049
:103D10001200CE0E0001DD6F010E0001DE6F040EF9
:103D20000001DF6F000E0001E06F71EC89F01200FE
:103D3000C0C0B7F0C1C0B8F0040E0001B96FC2C076
:103D4000BAF0020E0001BB6FACEC95F01200010E50
:103D50000001BA6F0001BD514BEC9EF0010E000155
:103D6000BA6F0001BC514BEC9EF01200000E406E89
:103D7000060E3F6E000E426E060E416E000E366E4F
:103D8000000E376E12000AC001F00BC002F0040EE4
:103D9000036E0CC004F0020E056E13EC98F01200D6
:103DA000010E446E255026102710D8B402D0010E03
:103DB0001200000E12000001B76F0001B7B102D06F
:103DC000859E01D0858E12000600060005000700C2
:073DD00080000700FFFF0166
:103DD8000001CB6F0001CB511AEC8BF01200B7C079
:103DE800D9FFB8C0DAFFB9C0DFFF1200B7C025F0AD
:103DF800B8C026F0B9C027F0120001C025F002C0F3
:103E080026F003C027F012002AC0D6FF2BC0D7FF28
:103E1800F28A12002AC0D6FF2BC0D7FFF28A1200FE
:103E280006000600410161808030B7C0FDF0B8C0CF
:103E3800FEF012009E929D929F921200F29AF294C6
:103E48001200F29AF2941200010E446E1200966863
:023E5800120056
:06FFF800AAF705FFF8F175
:00000001FF
