:100000000DEF04F026EF00F004EF0AF0D1EC04F05D
:10001000FF0000F000F012000CEF0AF018EF00F003
:10003000F26AFC6A9BEC04F004009EEC09F0D8EC38
:1000400003F0F3EC03F05EEC08F0F6D701501F0B61
:10005000E80601E01200055001E01200060E021849
:1000600014E01AD0020E3D6E4A0E3FD8306A090ED7
:100070000AD0020E3D6E450402E1870E36D84504D3
:100080000AE1306A1D0E2F6E06D00450210AEAE004
:10009000030AEFE0010A42820138E832030BE80666
:1000A00014E01200020E3D6E440E206E24D0020EAB
:1000B0003D6E04C044F0020C020E3D6E430EF5D7B7
:1000C000020E3D6E03C043F0020C0250010AD8B488
:1000D0001200030AE7E0010AEFE00A0AD8B41200AE
:1000E000030AE5E0010AECE01200206E2050D8A4DB
:1000F000100E216E1200216A4292010E2F6E010C29
:100100004F6A140E506E516A296A2A6A4FC0F6FF70
:1001100050C0F7FF51C0F8FF42D80800F5CFDFFF0D
:100120004F2A000E50225122294A2A2A040E2A5C04
:10013000EDE30D0EE8CFB2F4600EE8CFB3F4000E9D
:10014000496E050E486E0AEC03F04F68170E506EAC
:10015000516A030E2A6E296851C0F8FF50C0F7FF9C
:100160004FC0F6FF1CD8DF50F56E0C0029C04EF0D2
:100170003F0E4E1607E1FEEC09F0040EA66EB50E1A
:1001800067EC04F04F06000E505A515A0A002950ED
:100190002A1001E112002906D8A02A06DDD7AC0EEC
:1001A0002924D96E040E2A20DA6E120003040BE112
:1001B00001501F0B08E1010E3D6E030E021802E113
:1001C000428001D042900350D8A4120001501F0B6E
:1001D000020AD8A4120005500F0BD8B4120028D878
:1001E000476A040E486E4726000E4822F350472601
:1001F000F450482223D847241D6EF45048201E6E28
:10020000030E021805E10FD8040EDF6E0CD81CD0C7
:1002100005AE04D008D8400EDF6E400C04D8080E9E
:10022000DF6E01D811D01DC0D9FF1EC0DAFF120049
:10023000010E3D6E05500F0B080D1200010E05AEAC
:10024000000E040DF3501200000EDB8E000C3D502A
:1002500010E193EC03F0196E3A0405E1010E32EC63
:1002600003F03A6A1200000E32EC03F0010E3A6E0F
:10027000010C01AE1BD0010E3E6E2F50075C3050BA
:10028000085804E207C02FF008C030F076EC01F007
:10029000480E196E010E32EC03F0000E32EC03F042
:1002A000240E04010A6F040E0B6F1CD0020E3E6E6A
:1002B000040E196E0750081002E1480E196E3A0438
:1002C00005E1010E32EC03F03A6A05D0000E32EC83
:1002D00003F0010E3A6E07500810D8A41200040172
:1002E000096B00D0480E086F088F480C080E326E5C
:1002F00030500DE1080E2F5C0AE22FC032F0405062
:1003000002E1010E03D0400402E1020E406E32C051
:1003100009F432502F5E000E305A240E1D6E040E6A
:100320001E6E42A21AD00BD01BD813EC01F00F0E98
:10033000F76403D00800F55001D019D81ED8325008
:10034000F3E112000DD813EC01F00F0EF76403D0A7
:100350000800F55001D00BD810D83250F3E112004C
:1003600020C0F6FF21C0F7FF000EF86E1200F6CF96
:10037000E1FFF7CFE2FFE7501200DF6E1D4A1E2AB1
:10038000204A212A320612000138E832030B18E015
:100390001200010E3D6E040E416E040C010E3D6E06
:1003A000450E206E7BEF00F02CD8496E49C020F03E
:1003B0007BEF00F026D8D96EDA6A03C0DFFF1200A7
:1003C000025002E179EF02F0010A02E1D6EF00F0FB
:1003D000020A02E1D6EF00F0060ADBE0030A02E1BE
:1003E00006EF02F0010AD8B412000F0AD7E0010AA2
:1003F00002E155EF03F0030AD7E0010ADBE0070A48
:100400001200010E3D6E0550460F1200800E0118BD
:1004100030E01200010E3D6EA40E75EC00F0120EDD
:1004200009D003502DE1010E3D6E380E75EC00F041
:10043000306A290E2F6E24D0010E3D6E0350010F3D
:10044000476E47C0F6FF100EF76E000EF86E0900FB
:10045000F5CF20F0100E216EB0EC01F00F0EF76416
:1004600003D00800F55002D0B7EC01F02F6E306ACF
:1004700007D00450010ACEE0030AD3E0010ADCE011
:1004800042821200366A27D03850486E000E48BEAD
:10049000FF0E496E4A6E4B6E4850155C0D6E49500A
:1004A00016580E6E4A5017580F6E4B501858106E53
:1004B0000FC0F8FF0EC0F7FF0DC0F6FF11D80D00FA
:1004C000362A0ED80C00362A240EA66EB50E67EC1E
:1004D00004F0FE0E38263850800A7F0FD5E2120055
:1004E000AC0E3624D96EDA6A040EDA22DF50F56ECD
:1004F0001200246B256B22D0010E3D6E42B0248386
:1005000024D0010E3D6E21D018EC01F0476A040E94
:10051000486E4726000E4822F3504726F4504822E2
:100520001EEC01F047241D6EF45048201E6E13ECA3
:1005300001F0DFA40AD0010E246F07D001501F0B79
:10054000DBE0010ADEE0030ADFE03D04D8A412008C
:10055000240E206E040E216E4292020E2F6E020CAB
:10056000400E486401D0486E4A6A0DD047504A2474
:10057000D96EDA6A6C0E4A24E16EE26A040EE22257
:10058000DFCFE7FF4A2A48504A5CF0E348C011F445
:10059000400E0401101710BD03D0496A492A01D04A
:1005A000496A493A49464946040110514918BF0B66
:1005B0004918106F1087108F12003F6A0CBF12008D
:1005C00048500D5D02E20DC448F03F6A0BD02C0E7E
:1005D0003F24D96EDA6A040EDA2247503F24F9EC40
:1005E00009F03F2A48503F5CF2E3400E0D6F0C17B4
:1005F0000CBD03D0496A492A01D0496A493A4946A3
:10060000494604010C514918BF0B49180C6F0C875F
:100610000C8F1200495006E1050E485C03E2496A5E
:10062000050E486E48504A6E49504B6E4C6A4D6AF2
:100630000A0ED8904A364B364C364D36E82EF9D74E
:100640004AC009F04BC00AF04CC00BF04DC00CF092
:100650000BC0F8FF0AC0F7FFF66A140EA66EB50EBF
:1006600067EF04F0476E080E1A6E1C0E1B6E040E28
:100670001C6E475006E1140E1B6E040E1C6E256A9C
:1006800002D0040E256E266E0BD819C0DEFF1AC0EC
:10069000DEFF1BC0DEFF1CC0DEFF02D8DF8E1200B3
:1006A00025C0D9FF26C0DAFF1200010E3D6E0F01F2
:1006B00016D8346A3450460FD96EDA6ADF6A342AA3
:1006C0003450F8E003C045F04550C9EC04F0035045
:1006D00003E1050E416E050C060E416E060C4D6BD6
:1006E0004E6B4F6B506B516B526B536B1200040E81
:1006F000411808E103C05EFF0F015E51050ED8B43A
:10070000030E416E3E04D8A4120076EC01F0020EF6
:10071000401802E108D8040C0401480E08BD080E78
:10072000086F088F1200040E0401086F088F040C74
:10073000030E416E0F015D6B626A7B0E5C6F5E6B38
:100740006FEC03F0160E4C6F658C03D06296FEECD6
:1007500009F062B6FBD7659C6598040E196E000E11
:1007600032EC03F0010E3A6E426A456A000EC9EFA0
:1007700004F081B818EC00F0060EF66E14D80D0ED9
:10078000F5180DE10900600EF51809E1F66A0BD8BD
:10079000F52803E10900F52802E000EF0AF018EC63
:1007A00000F000EF00F0140EF76EF86A0900140C68
:1007B0002306D8A0240623502410D8A412004E0EDD
:1007C000246E236A060E416002D08B80060C8BB02B
:1007D00003D0476A472A01D0476A8B504718FE0B5F
:1007E00047188B6E1200C0BC1200030ED36E6592C8
:1007F0006596F26A0ED808D0C0AC04D02D06D8A0F9
:100800002E0601D006D804002D502E10F5E1FF0071
:100810001200040E2E6E2D6A040C04EEACF014EEE1
:1008200000F0EE6AE550E150FCE1E250FAE100EE42
:1008300060F0820EEE6AE806FDE100EE01F0460E81
:10084000EE6AE806FDE10001B9EF03F00401086B70
:10085000406A00AF02D0006B3A6A04AF03D0046B69
:10086000010E3A6E3E6A3D6A2F6A306A6598C4ECA2
:1008700001F002EC00F027EF01F005D80AD8376A42
:100880000CD8386A12007E0E3B6E116AFC0E126E96
:10089000FC0C010E136E146A000C156816681768BC
:1008A000186812003F6A1E0E0F014D6F400E0401C2
:1008B0000D6F2C0E0E6F040E0F6F080E0C6F0C8F49
:1008C0006C0E126F040E136F400E106F400C476ECB
:1008D000F29EF3EC03F0B50E471804E0030ED36E5E
:1008E0000300FED7550EA76EAA0EA76EA682A6B26B
:1008F000FED7A69412005CCF35F0040E0F015C6F9A
:1009000062986582A198A088AAEC04F0A09835505E
:100910000F015C131200390402E1D1EC04F0656AA6
:10092000150E0F015F6F5C6B658698EC03F0010E8E
:10093000416E396A1200600ED36E9B8CDCEC04F0C1
:10094000BFEC04F0C16AC26A3DEC04F08B90949055
:10095000E7EF04F08B90D3CF31F00300A1B802D0C1
:10096000D0A6FBD731C0D3FF1200D9EC04F06592BA
:100970000F015C9501D0629462A41200FCD705D0EF
:10098000FEEC09F04706D8A0480647504810F8E1A9
:100990001200476E4704D8A4120052EC04F03DEF59
:1009A00004F06592656A48684768BFEC04F0416AE4
:1009B000120002D8BFEF04F0030E486E476A030C22
:1009C000390401E1120065A68BEC04F0120065B653
:0E09D000D1EC04F0396AE0EF04F012001200DE
:1010000000B6046134034D006900630072006F0094
:1010100063006800690070002000540065006300F0
:1010200068006E006F006C006F00670079002000A0
:1010300049006E0063002E000902290001010080B2
:10104000320904000002030000000921110100011F
:10105000221D000705810340000107050103400030
:101060000126034800490044002000550053004277
:1010700000200042006F006F0074006C006F006180
:10108000006400650072000600FF0901A10119015A
:101090002940150026FF0075089540810019012997
:1010A000409100C01201000200000008D8043C007A
:0B10B00001010102000104030904001B
:1010BC00060E4118D8B465B21200375001E017D1B2
:1010CC0004010CBF1200600E476E400E486EDDEC42
:1010DC0002F0010E376E276A286A2750A10FD96ECD
:1010EC00DA6A000EDF6E274A282A285005E1400EE6
:1010FC00275CD8B01200F1D71200020EA16F3A0E85
:10110C00A26F010EA36FA46FA56B140EA66FA76B35
:10111C00A86B000E1124A96FEC0E1220AA6FFF0E03
:10112C001320AB6FFF0E1420AC6F030EAD6FF80ED7
:10113C00AE6FAF69010EB06FB16B080EB26FB36BCF
:10114C00B46BB56BB669A50EDA6F040110BFA50CB4
:10115C00A10E476E400E486EB0EC02F0376A1200DA
:10116C00615106E17F0E3B6EF80E116E126802D0D3
:10117C0043EC04F049EC04F0F1D7286A050E276E15
:10118C000CD0FEEC09F027C048F028C049F00AEC5E
:10119C0003F09EEC09F0274A282A3B50526E536A02
:1011AC00522A000E53225250275C53502858D6E234
:1011BC00E8D715280EE116280CE117280AE11828A3
:1011CC0008E161C015F062C016F063C017F064C08E
:1011DC0018F015506119C2E116506219BFE1175091
:1011EC006319BCE118506419B9E1276A286A1AD04E
:1011FC006551A0082724D96EDA6AAC0E3824E16E4A
:10120C00E26A040EE222DFCFE7FF382A152A000E2D
:10121C001622172218223A0E381802E142EC02F07C
:10122C00274A282A00017CD899E2E2D742EC02F046
:10123C004DEC04F093D7070EA16F61C0A2F062C011
:10124C00A3F063C0A4F064C0A5F065C0A6F063C0B1
:10125C00F8FF62C0F7FF61C0F6FF276A286A0BD05F
:10126C00090000016551E1082724D96EDA6AF5CF2F
:10127C00DFFF274A282A54D8F3E3040110BF1200D9
:10128C0067D780EC00F06AD70C0EA16F010EA36F2C
:10129C00020EA26F160EF66ED3EC03F0F5CFA4F08F
:1012AC000A00F5CFA5F0060EA66F140EA76FA86B5B
:1012BC00A96B600EAB6F0D0EAA6FAC6B040EAD6F0D
:1012CC00000EAE6BAF6BB069B169B269B369B4694A
:1012DC00B569B669B769B86BB96BBA6BBB6BBC6BEC
:1012EC00BD6BBE6BBF6BC9D706EC00F037D70001E6
:1012FC006051020A01E101D7010A01E131D7070A65
:10130C0001E13BD7010A01E154D7030A8FE0010A3E
:10131C0092E00F0AE9E0010AB4E0050AB5E01ED735
:10132C006551526E536A5250275C53502858120024
:10133C00E0EC04F0415001E1120062B4B5EC04F0B1
:10134C0065B2120062B098EC03F062B87BEC04F06A
:10135C00030E416001D0030C3C6A62A6120064507B
:10136C0064CF4AF07C0E4A162AE164B203D02B6A91
:10137C00040E02D0040E2B6E2C6E62962BC0D9FF7D
:10138C002CC0DAFFDF30E8320F0B0D0A20E1336A94
:10139C0023D8DECF4AF0DDCF4BF04AC0D9FF4BC08B
:1013AC00DAFF3350010F1FD817D8DE2A000EDD22CA
:1013BC00332A070E3364ECD726EC04F008D0040E65
:1013CC00641804E1629677EC03F001D062963C2A33
:1013DC00030E3C64C2D7030C20EE02F02B50D9262E
:1013EC002C50DA221200E16EE26ADFCFE7FF120026
:0413FC0004001200D7
:1014000045EF0AF012000D604982FACF17F0FBCFCA
:1014100018F0E9CF19F0EACF1AF0E1CF1BF0E2CFD4
:101420001CF0D9CF1DF0DACF1EF0F3CF1FF0F4CFB0
:1014300020F0F6CF21F0F7CF22F0F8CF23F0F5CF50
:1014400024F0F292F2B4F2AA02D00FECB3F024C06E
:10145000F5FF23C0F8FF22C0F7FF21C0F6FF20C030
:10146000F4FF1FC0F3FF1EC0DAFF1DC0D9FF1CC070
:10147000E2FF1BC0E1FF1AC0EAFF19C0E9FF18C074
:0E148000FBFF17C0FAFF499211008DEFA5F097
:10FC560000001180002C0100B102003500360000C2
:10FC6600B202003500360000B3020035003600024D
:10FC7600003500360000B4000000C0A20002008477
:10FC86000000C1C50000C20D00000000C38D002A9F
:10FC96000000C48D00EE0000C50A000036C8000052
:10FCA600E012001C001000180033002C002500286C
:10FCB60000280027002F003C00000003000300106E
:10FCC600008000780000E112001C00100018002DD2
:10FCD60000280023002800280026002F003B0000F3
:10FCE60000030003001000003A0500002A0000028D
:10FCF6000000008100002B000003000000A20000AD
:10FD060029002C020004000800100020004000809A
:10FD160000000100010200010001000202000003D0
:10FD260003030001000A006400E803102700010332
:10FD3600070F1F3F7FFF00020103010410000000B0
:10FD4600000000005F00000007000700147F147F1A
:10FD560014242A7F2A122313086462364955225036
:10FD66000005030000001C2241000041221C00087F
:10FD76002A1C2A0808083E08080050300000080817
:10FD8600080808006060000020100804023E51497F
:10FD9600453E00427F400042615149462141454B64
:10FDA600311814127F1027454545393C4A494930D8
:10FDB60001710905033649494936064949291E0094
:10FDC600363600000056360000000814224114148E
:10FDD600141414412214080002015109063249790B
:10FDE600413E7E1111117E7F494949363E414141CE
:10FDF600227F4141221C7F494949417F090901016E
:10FE06003E414151327F0808087F00417F41002072
:10FE160040413F017F081422417F404040407F021D
:10FE260004027F7F0408107F3E4141413E7F09095D
:10FE360009063E4151215E7F09192946464949492D
:10FE46003101017F01013F4040403F1F2040201FFC
:10FE56007F2018207F631408146303047804036169
:10FE66005149454300007F414102040810204141A9
:10FE76007F000004020102044040404040000102AD
:10FE8600040020545454787F484444383844444449
:10FE960020384444487F3854545418087E090102D7
:10FEA600081454543C7F0804047800447D40002024
:10FEB60040443D00007F10284400417F40007C0400
:10FEC6001804787C0804047838444444387C1414B4
:10FED6001408081414187C7C080404084854545464
:10FEE60020043F4440203C4040207C1C2040201CF5
:10FEF6003C4030403C44281028440C5050503C4470
:10FF060064544C44000836410000007F0000004164
:10FF160036080008082A1C08081C2A080800008061
:10FF26003F1872313FF0FD753E4758633D58951DA9
:10FF36003C82C4AE3AA8782139EF938037A092A7C5
:10FF4600354656153400000000C4FF7F3F80EFFFA2
:10FF5600BE90E1A93EEC8276BE82AD2B3E0E3CC33E
:10FF6600BD87D1133D4178D3BB00FCFF0F0000FFD6
:10FF7600FFF0FF00FFFF004A616D696E2045617268
:10FF86006C792039393133333339310A0A00436FFA
:10FF96006E74696E756F7573204D6F64653A0A00ED
:10FFA600556E646566696E65640A0A0A0A0A0A007D
:10FFB600506F736974696F6E204D6F64650A0053E4
:10FFC600706565643A202564487A0A005374657042
:10FFD600733A2025640A0A0053746570204D6F64D5
:10FFE600653A0A00446972656374696F6E3A200067
:09FFF6004343570A002563000093
:020000040001F9
:1000000000018A51800B0001976F00018A518A25F7
:100010000001996F000189AF02D0000199810001B0
:1000200099510001D8B412D000019929D8A409D05F
:10003000000E0001876F000E886F000E896F000EA2
:100040008A6F0001898F000E000108D0000E0001A8
:10005000876F000E886F000E896F000E8A6F000197
:100060008E51800B0001986F000197510001981983
:10007000D8B402D00001978D00018E518E25000169
:10008000986F00018DAF02D0000198810001985156
:100090000001D8B412D000019829D8A409D0000ECC
:1000A00000018B6F000E8C6F000E8D6F000E8E6F37
:1000B00000018D8F000E000108D0000E00018B6F33
:1000C000000E8C6F000E8D6F000E8E6F0001995127
:1000D0000001985DD8B024D0000197AD03D0800E08
:1000E0000001971B99C09AF098C099F09AC098F0B7
:1000F00087C09AF08BC087F09AC08BF088C09AF0C6
:100100008CC088F09AC08CF089C09AF08DC089F0BC
:100110009AC08DF08AC09AF08EC08AF09AC08EF094
:10012000000E00019A6F0001995100018F6F906BD2
:1001300000018F1F901F8F4B902B000198510001E1
:10014000916F926B00018F51000191270001905136
:1001500000019223000192BF3DD00001925105E1C0
:100160001A0E0001915DD8A035D000018751000121
:1001700088110001891100018A11D8B402D0010E42
:1001800001D0000E00019A6F000E0001876F000E73
:10019000886F000E896F000E8A6F98C099F020D08A
:1001A00000019AA107D00001D8909A3101090001FD
:1001B0009A6F03D00001D8909A33000187A102D032
:1001C00000019A8F00018A358A3389338833873357
:1001D0000001992B000198510001995DD8A0E0D74A
:1001E000000197BD3FD0000199510001D8A40AD069
:1001F000000E0001876F000E886F000E896F000EE1
:100200008A6F120000018B510001872700018C5179
:100210000001882300018D510001892300018E51C6
:1002200000018A2300018AA1CCD000019AA109D043
:100230000001D8909A3300019A51010900019A6F88
:1002400003D00001D8909A33000187A102D00001A9
:100250009A8F00018A358A338933883387330001C6
:10026000992BAFD000018B510001875D00018C51AB
:100270000001885900018D510001895900018A51FE
:10028000800A00018F6F00018E51800A00018F5992
:10029000D8B050D087C08FF088C090F089C091F05E
:1002A0008AC092F000018F1F901F911F921F8F2B09
:1002B000000E90239123922300018B5100018F2582
:1002C0000001936F00018C51000190210001946F97
:1002D00000018D51000191210001956F00018E51A7
:1002E000000192210001966FFF0E0001932500018D
:1002F000876FFF0E000194210001886FFF0E00013F
:1003000095210001896FFF0E0001962100018A6F7F
:10031000800E0001971B00019A6D00019A510001A7
:10032000D8A418D0010E00018727000E8823892346
:100330008A2310D000018B510001875F00018C518E
:100340000001885B00018D510001895B00018E5125
:1003500000018A5B000187510001881100018911A9
:1003600000018A11D8A42AD000019A510001D8A412
:1003700025D0000E0001876F000E886F000E896F78
:10038000000E8A6F12000001D890873788378937AE
:100390008A3700019AAF02D00001878100019AA13B
:1003A00003D0D880000102D00001D8909A37000114
:1003B00099510001D8B402D000019907000189AF1A
:1003C000E2D7000E0001986F00019AAF0DD09AC0DD
:1003D0008FF07F0E00018F17D8A403D0000187A1F2
:1003E00003D0010E0001986F000198510001D8B4AC
:1003F00026D0010E00018727000E882389238A2337
:1004000000018AA11CD087C08FF088C090F089C0FD
:1004100091F08AC092F0000192359233913390337B
:100420008F338FC087F090C088F091C089F092C060
:100430008AF000019929D8B402D00001992B00015B
:100440009929D8B405D0000199510001D8A411D040
:10045000000E0001876F000E886F000E896F000E7E
:100460008A6F000199510001D8A403D0000E000149
:10047000976F000199A103D00001898F02D000017C
:10048000899F0001D890993100018A6F000197AFD0
:1004900002D000018A8F87C087F088C088F089C0A9
:1004A00089F08AC08AF0120000017151800B0001AE
:1004B0007A6F0001715171250001806F000170AFEA
:1004C00002D000018081000180510001D8B410D019
:1004D00000018029D8A409D0000E00016E6F000E23
:1004E0006F6F000E706F000E716F0001708F09D07A
:1004F000000E00016E6F000E6F6F000E706F000E29
:10050000716F00017551800B00017A1B000175515C
:10051000752500017B6F000174AF02D000017B8163
:1005200000017B510001D8B410D000017B29D8A470
:1005300009D0000E0001726F000E736F000E746F11
:10054000000E756F0001748F09D0000E0001726FEC
:10055000000E736F000E746F000E756F00017B51FB
:100560000001D8B405D0000180510001D8A40AD000
:10057000000E00016E6F000E6F6F000E706F000EA8
:10058000716F12000001745100016E03F3CF85F00A
:10059000F4CF86F00001855100017C6F7D6B7E6B8E
:1005A0007F6B000186510001816F826B836B846BCE
:1005B0000001735100016F03F3CF85F0F4CF86F093
:1005C0000001855100017C27000E7D237E237F23BF
:1005D0000001865100018127000E8223832384239A
:1005E0000001725100017003F3CF85F0F4CF86F063
:1005F0000001855100017C27000E7D237E237F238F
:100600000001865100018127000E82238323842369
:100610007EC07FF07DC07EF07CC07DF000017C6BF1
:100620000001725100016F03F3CF85F0F4CF86F023
:100630000001855100017C270001865100017D23C6
:10064000000E00017E23000E00017F230001735184
:1006500000016E03F3CF85F0F4CF86F000018551E1
:1006600000017C270001865100017D23000E00015E
:100670007E23000E00017F237EC07FF07DC07EF0D0
:100680007CC07DF000017C6B0001725100016E03A3
:10069000F3CF85F0F4CF86F00001855100017C276F
:1006A0000001865100017D23000E00017E23000E13
:1006B00000017F230001745100016F03F3CF85F027
:1006C000F4CF86F000018551000181270001865199
:1006D00000018223000E00018323000E0001842309
:1006E0000001735100017003F3CF85F0F4CF86F061
:1006F00000018551000181270001865100018223FC
:10070000000E00018323000E0001842300017451B8
:1007100000017003F3CF85F0F4CF86F0000185511E
:100720000001766F000186510001776F0001786B40
:100730000001796B78C079F077C078F076C077F0F7
:100740000001766B0001765100018127000177518D
:1007500000018223000178510001832300017951B7
:10076000000184237CC076F07DC077F07EC078F0F5
:100770007FC079F0190E06D00001D8907933783314
:1007800077337633E82EF8D70001765100018127C0
:100790000001775100018223000178510001832379
:1007A00000017951000184237EC07FF07DC07EF07E
:1007B0007CC07DF000017C6B00017B5180C076F035
:1007C0000001776B00017627000E7723820E00016F
:1007D00076250001856FFF0E000177210001866FED
:1007E00015D00001D89081378237833784370001D4
:1007F0007FAF02D0000181810001D8907C377D3726
:100800007E377F3700018507D8A08607000183AFB8
:10081000E8D7000E00017B6F00017FAF24D0FF0EF0
:1008200000017C150001766FFF0E00017D150001AF
:10083000776FFF0E00017E150001786F7F0E0001BB
:100840007F150001796F00017651000177110001D9
:10085000781100017911D8A403D0000181A103D03F
:10086000010E00017B6F00017B510001D8B423D041
:10087000010E00018127000E8223832384230001BF
:1008800084A119D081C076F082C077F083C078F05F
:1008900084C079F000017935793378337733763352
:1008A00076C081F077C082F078C083F079C084F0A0
:1008B0000001854B862B000186BF10D000018651B8
:1008C00004E100018529D8A009D0000E0001816F44
:1008D000000E826F800E836F7F0E2BD0000186BFCB
:1008E00007D00001865111E100018505D8B00DD077
:1008F000000E0001816F000E826F000E836F000EEC
:10090000846F000E00017A6F15D085C080F0FF0E55
:1009100000018117FF0E82177F0E8317000E8417C8
:10092000000180A102D00001838F0001D8908031A6
:100930000001846F00017A510001841381C06EF0C0
:1009400082C06FF083C070F084C071F012000CD0D0
:10095000500E0001936F010E04D05B0E0001936FE7
:10096000010E0001946F08D000019151000AD8B423
:10097000EFD7010AD8B4F1D7000120EE02F093516D
:10098000D9269451DA2291C0DFFFB1D0EC0E0001DC
:10099000866F000E0001876F020E0001886F030E44
:1009A0000001896F68EC94F0EC0E0001866F000E78
:1009B0000001876F030E0001886F030E0001896F2D
:1009C00068EC94F0EC0E0001866F000E0001876F5A
:1009D000050E0001886F030E0001896F68EC94F02A
:1009E000EC0E0001866F000E0001876F040E0001FF
:1009F000886F000E0001896F68EC94F0000120EE12
:100A000003F09351D9269451DA22C70EDE6E0F0EF1
:100A1000DD6E000120EE06F09351D9269451DA22C2
:100A2000C60EDE6E0F0EDD6E000120EE09F0935152
:100A3000D9269451DA22C90E56D08E0E0001866F47
:100A4000010E0001876F070E0001886F030E000181
:100A5000896F68EC94F08E0E0001866F010E000124
:100A6000876F060E0001886F030E0001896F68EC26
:100A700094F08E0E0001866F010E0001876F040E48
:100A80000001886F030E0001896F68EC94F08E0EF0
:100A90000001866F010E0001876F050E0001886F4F
:100AA000000E0001896F68EC94F0000120EE03F065
:100AB0009351D9269451DA226D0EDE6E0F0EDD6E43
:100AC000000120EE06F09351D9269451DA226C0EE3
:100AD000DE6E0F0EDD6E000120EE09F09351D92677
:100AE0009451DA226F0EDE6E0F0EDD6E09D000011A
:100AF0009151000AD8B44AD7010AD8A412009DD750
:100B0000000120EE06F09351D9269451DA22DECF6F
:100B100060F0DDCF61F0050E0001626F000E000194
:100B2000636F4BECAEF09CD0000120EE06F09351C9
:100B3000D9269451DA22DECF60F0DDCF61F0040EC9
:100B40000001626F000E0001636F4BECAEF000011C
:100B500020EE03F09351D9269451DA22DECF60F0D3
:100B6000DDCF61F0060E0001626F000E0001636FC1
:100B70004BECAEF084D0000120EE06F09351D92664
:100B80009451DA22DECF60F0DDCF61F0040E000177
:100B9000626F000E0001636F4BECAEF0000120EEBF
:100BA00003F09351D9269451DA22DECF60F0DDCFE5
:100BB00061F0060E0001626F010E0001636F4BECE5
:100BC000AEF05DD0000120EE06F09351D92694518D
:100BD000DA22DECF60F0DDCF61F0040E0001626F3B
:100BE000010E0001636F4BECAEF0000120EE03F04C
:100BF0009351D9269451DA22DECF60F0DDCF61F037
:100C0000060E0001626F000E0001636F4BECAEF048
:100C100036D0000120EE06F09351D9269451DA2205
:100C2000DECF60F0DDCF61F0040E0001626F010ED7
:100C30000001636F4BECAEF0000120EE03F0935126
:100C4000D9269451DA22DECF60F0DDCF61F0060EB6
:100C50000001626F010E0001636F4BECAEF00FD02C
:100C600000019251000AD8B45FD7010AD8B483D7E3
:100C7000030AD8B4A7D7010AD8A41200CAD7000122
:100C800020EE06F09351D9269451DA22DECF60F09F
:100C9000DDCF61F0070E0001626F000E0001636F8F
:100CA0004BECAEF0000120EE06F09351D9269451A2
:100CB000DA22DECF60F0DDCF61F0060E0001626F58
:100CC000000E0001636F4BECAEF08DC06DF08EC076
:100CD0006EF08FC06FF090C070F000EC9CF093C08D
:100CE00060F094C061F050ECB3F004D09F860BD05C
:100CF000A58E09D000019151000AD8B4F7D7010A96
:100D0000D8A41200F5D793C060F094C061F0C8EC8D
:100D1000B2F093C0D9FF94C0DAFF000EDF6E00017D
:100D200020EE06F09351D9269451DA22DECF6BF0F3
:100D3000DDCF6CF0000E00016D6F030E00016E6FD1
:100D400098ECB3F0000120EE06F09351D9269451AF
:100D5000DA22DECF60F0DDCF61F0050E0001626FB8
:100D6000010E0001636F4BECAEF012000001635105
:100D7000800B00016C6F0001635163250001776FE8
:100D8000000162AF02D000017781000177510001BC
:100D9000D8B412D000017729D8A409D0000E0001E0
:100DA000606F000E616F000E626F000E636F0001D6
:100DB000628F000E000108D0000E0001606F000E6F
:100DC000616F000E626F000E636F00016751800B50
:100DD00000016C1B0001675167250001786F00015D
:100DE00066AF02D000017881000178510001D8B4CB
:100DF00012D000017829D8A409D0000E0001646F38
:100E0000000E656F000E666F000E676F0001668F43
:100E1000000E000108D0000E0001646F000E656F27
:100E2000000E666F000E676F0001645100016511CE
:100E30000001661100016711D8A417D0000E00014F
:100E4000606F000E616F000E626F000E636F000135
:100E5000800E62137F0E631360C060F061C061F0AA
:100E600062C062F063C063F01200000177510001BC
:100E7000D8A412D0000E0001606F000E616F000E4A
:100E8000626F000E636F60C060F061C061F062C0AD
:100E900062F063C063F01200000178510001686FD6
:100EA000696B0001681F691F684B692B000177514E
:100EB00000016A6F6B6B0001685100016A27000135
:100EC000695100016B237F0E00016A250001716FDB
:100ED000000E00016B210001726F60C06DF061C0F7
:100EE0006EF062C06FF063C070F0000E0001606FC2
:100EF000000E616F000E626F000E636F000E000146
:100F0000736F000E746F000E756F000E766F000E1B
:100F10000001786F42D0000178510001D8B417D099
:100F20000001D8906D376E376F3770370001D89059
:100F30006037613762376337000176AF02D0000156
:100F400060810001D89073377437753776370001A8
:100F5000645100016D5D0001655100016E59000191
:100F6000665100016F590001675100017059D8A006
:100F700012D00001768D0001645100016D5F000107
:100F8000655100016E5B0001665100016F5B00015D
:100F900067510001705B0001782B190E0001786524
:100FA000BAD700016D5100016E1100016F110001EF
:100FB0007011D8B418D00001738115D00001D890F9
:100FC0006037613762376337000176AF02D00001C6
:100FD00060810001D8907337743775377637000118
:100FE0007107D8A07207000162AFE8D7000E0001B8
:100FF000786F000176AF24D0FF0E00017315000159
:10100000686FFF0E000174150001696FFF0E00018B
:10101000751500016A6F7F0E0001761500016B6F78
:10102000000168510001691100016A1100016B1192
:10103000D8A403D0000160A103D0010E0001786F95
:10104000000178510001D8B423D0010E00016027BF
:10105000000E612362236323000163A119D060C0E5
:1010600068F061C069F062C06AF063C06BF00001B3
:101070006B356B336A336933683368C060F069C0BD
:1010800061F06AC062F06BC063F00001714B722BBB
:10109000000172BF14D00001725104E100017129F6
:1010A000D8A00DD0000E0001726F7169000E000112
:1010B000606F000E616F000E626F000E636F0001C3
:1010C00072BF07D00001725115E100017105D8B05F
:1010D00011D0000E0001726F000E716F000E000142
:1010E000606F000E616F000E626F000E636F000E86
:1010F00000016C6F71C077F0000177A103D000018F
:10110000628F02D00001629F0001D8907731000108
:10111000636F00016C510001631360C060F061C037
:1011200061F062C062F063C063F01200080E00015B
:101130006F2500016C6F000E0001702100016D6FC2
:10114000000E00016E6F9BECB1F00001866F000194
:1011500086510001726F736B0E0ED89000017237CA
:101160007337E82EFAD7000186510001746F756B52
:101170000C0ED890000174377537E82EFAD70001AD
:1011800086510001766F776B0A0ED8900001763792
:101190007737E82EFAD7000186510001796F786B16
:1011A0000001865100017A6F7B6B060ED89000011A
:1011B0007A377B37E82EFAD70001865100017C6F21
:1011C0007D6B00017C3B7D3BF00E7D177C510F0B4E
:1011D0007D13F00E7C170001865100017E6F7F6B3E
:1011E0000001D8907E377F370001D8907E377F3757
:1011F000000186510001806F816B00017E5100016A
:10120000801300017F510001811300017C51000116
:10121000801300017D510001811300017A5100010A
:10122000801300017B5100018113000178510001FE
:1012300080130001795100018113000176510001F2
:1012400080130001775100018113000174510001E6
:1012500080130001755100018113000172510001DA
:1012600080110001826F00017351000181110001A2
:10127000836F86C084F00001856B080E00016F2526
:1012800000016C6F000E0001702100016D6F010EF6
:1012900000016E6F9BECB1F00001726F736B000187
:1012A000D890723773370001D890723773370001C6
:1012B0007251000184130001735100018513080E5F
:1012C00000016F2500016C6F000E0001702100010C
:1012D0006D6F020E00016E6F9BECB1F00001726F3A
:1012E000736B0001723B733BF00E731772510F0B5F
:1012F0007313F00E72170001725100018413000184
:10130000735100018513080E00016F2500016C6FF9
:10131000000E0001702100016D6F030E00016E6F61
:101320009BECB1F00001726F736B060ED890000158
:1013300072377337E82EFAD7000172510001841317
:101340000001735100018513080E00016F25000193
:101350006C6F000E0001702100016D6F040E000122
:101360006E6F9BECB1F00001726F000172510001D1
:10137000746F736B00017351000184130001745189
:1013800000018513080E00016F2500016C6F000E2F
:101390000001702100016D6F050E00016E6F9BEC66
:1013A000B1F00001726F736B0A0ED89000017237B2
:1013B0007337E82EFAD7000172510001841300013F
:1013C000735100018513080E00016F2500016C6F39
:1013D000000E0001702100016D6F060E00016E6F9E
:1013E0009BECB1F00001726F736B0C0ED890000192
:1013F00072377337E82EFAD7000172510001841357
:101400000001735100018513080E00016F250001D2
:101410006C6F000E0001702100016D6F070E00015E
:101420006E6F9BECB1F00001726F736B0E0ED89073
:10143000000172377337E82EFAD7000172510001AC
:1014400084130001735100018513000184510001D0
:10145000821948E10001855100018319D8A41200C6
:1014600032D0000120EE02F06F51D9267051DA22FD
:10147000DECF60F0DDCF61F071C062F0ADECB4F0B2
:1014800012000001711F000120EE02F06F51D926F9
:101490007051DA22DECF60F0DDCF61F071C062F012
:1014A000ADECB4F01200000120EE04F06F51D9262B
:1014B0007051DA22DECF60F0DDCF61F071C062F0F2
:1014C000ADECB4F0120000018651000AD8B412004D
:1014D000010AD8B4C6D7030AD8B4D3D7010AD8A40E
:1014E0001200E1D712000001B3510001B411000154
:1014F000B5110001B611D8A40AD0000E0001B36FD7
:10150000000EB46F800EB56F3F0EB66F1200180E4E
:101510000001606F720E616F310E626F440E636F77
:10152000B3C064F0B4C065F0B5C066F0B6C067F093
:10153000DAEC96F00001D8B00FD0000E0101156F63
:10154000220E146FFF0E0001B36FFF0EB46F7F0EFB
:10155000B56F7F0EB66F1200B3C060F0B4C061F01B
:10156000B5C062F0B6C063F0870E0001646F480E2C
:10157000656F3A0E666FC40E676FDAEC96F0000185
:10158000D8B00FD0000E0101156F220E146F000E9F
:101590000001B36F000EB46F000EB56F000EB66F92
:1015A00012000001B6AF02D0010E01D0000E000102
:1015B000BD6F0001BD510001D8B412D0B3C060F0BE
:1015C000B4C061F0B5C062F0B6C063F013ECB2F025
:1015D00060C0B3F061C0B4F062C0B5F063C0B6F0F3
:1015E000B3C06EF0B4C06FF0B5C070F0B6C071F0AB
:1015F0003B0E0001726FAA0E736FB80E746F3F0E30
:10160000756F54EC82F06EC0B3F06FC0B4F070C070
:10161000B5F071C0B6F0B3C09BF0B4C09CF0B5C0DB
:101620009DF0B6C09EF0D6EC9DF09BC0B7F09CC07C
:10163000B8F09DC0B9F09EC0BAF0B7C087F0B8C08E
:1016400088F0B9C089F0BAC08AF086EC9FF087C0F4
:10165000BBF088C0BCF0B3C09BF0B4C09CF0B5C078
:101660009DF0B6C09EF0BBC060F0BCC061F0000150
:10167000000E61BFFF0E626F636F010E81EC93F08D
:1016800060C09FF061C0A0F062C0A1F063C0A2F092
:1016900023ECB0F09BC0B3F09CC0B4F09DC0B5F09B
:1016A0009EC0B6F0B3C09BF0B4C09CF0B5C09DF036
:1016B000B6C09EF0230E00019F6FFF0E0001A06FC9
:1016C000000E0001A26F090EA16FFAEC9EF09BC004
:1016D000ABF09CC0ACF09DC0ADF09EC0AEF0BBC006
:1016E000AFF0BCC0B0F044EC9DF0ABC0B3F0ACC008
:1016F000B4F0ADC0B5F0AEC0B6F00001BD51000110
:10170000D8B435D00001B32916E10001B42913E1A2
:101710007F0E0001B5190FE17F0E0001B619D8A4A4
:101720000AD0000E0001B36F000EB46F000EB56F4B
:10173000000EB66F1200000E0001606F000E616FA8
:10174000800E626F3F0E636FB3C064F0B4C065F08B
:10175000B5C066F0B6C067F0B6EC86F060C0B3F016
:1017600061C0B4F062C0B5F063C0B6F01200B3C09F
:10177000B3F0B4C0B4F0B5C0B5F0B6C0B6F0120066
:101780000001606F7ED03F0E1200060E12005B0E4D
:1017900012004F0E1200660E12006D0E12007D0E2A
:1017A0001200070E12007F0E12006F0E12005F0E65
:1017B00012007C0E1200580E12005E0E12007B0EFC
:1017C0001200710E12006F0E1200740E1200040E41
:1017D00012000E0E12007A0E1200060E1200140EE7
:1017E0001200540E12005C0E1200730E1200670EEF
:1017F0001200500E12006D0E1200780E12001C0E18
:101800001200620E12002A0E1200640E12006E0EFA
:1018100012005B0E1200770E12007F0E1200390EBE
:1018200012003F0E1200790E1200710E12003D0ED2
:101830001200760E1200060E12001E0E1200570E37
:101840001200380E1200760E1200760E12003F0EB5
:101850001200730E12003F0E1200770E12006D0E72
:101860001200310E12003E0E12003E0E12007E0ECD
:101870001200760E1200660E12005B0E1200800E31
:101880001200000160512E0AD8B4F9D71E0AD8B44C
:101890007AD7010AD8B479D7030AD8B478D7010A1D
:1018A000D8B477D7070AD8B476D7010AD8B475D791
:1018B000030AD8B474D7010AD8B473D70F0AD8B4BE
:1018C00072D7010AD8B471D7780AD8B4A4D7030A5A
:1018D000D8B4A3D7010AD8B4A2D7070AD8B4A1D7DD
:1018E000010AD8B4A0D7030AD8B49FD7010AD8B444
:1018F0009ED70F0AD8B49DD7010AD8B49CD7030A43
:10190000D8B49BD7010AD8B49AD7070AD8B499D7C4
:10191000010AD8B498D7030AD8B497D7010AD8B423
:1019200096D71F0AD8B495D7010AD8B494D7030A1A
:10193000D8B493D7010AD8B492D7070AD8B491D7AC
:10194000010AD8B490D7030AD8B48FD7010AD8B403
:101950008ED70F0AD8B48DD7010AD8B48CD7030A12
:10196000D8B48BD73B0AD8B422D7030AD8B421D72E
:10197000010AD8B420D7070AD8B41FD7010AD8B4AF
:101980001ED7030AD8B41DD7010AD8B41CD70F0A32
:10199000D8B41BD7010AD8B41AD7030AD8B419D7B8
:1019A000010AD8B418D7070AD8B417D7010AD8B48F
:1019B00016D7030AD8B415D7010AD8B414D71F0A0A
:1019C000D8B413D7010AD8B412D7030AD8B411D7A0
:1019D000010AD8B410D7070AD8B40FD7010AD8B46F
:1019E0000ED7030AD8B40DD7010AD8B40CD70F0A02
:1019F000D8B40BD7010AD8B40AD7030AD8B409D788
:101A0000000E1200FB0E0001756FFF0E0001766FD5
:101A1000000E0001786F230E776F48EC95F0070EEB
:101A20000001616FE00E606FDFECB4F07D0E00012D
:101A3000756FFF0E0001766F48EC95F0B3D0940EF1
:101A40000001756FFF0E0001766F48EC95F0EA0E0D
:101A50000001756FFF0E0001766F48EC95F00001F4
:101A6000F9BF10D00001F95104E10001F805D8A038
:101A700009D0F60E0001756FFF0E0001766F48EC7D
:101A800095F008D0F70E0001756FFF0E0001766F1C
:101A900048EC95F0C50E0001756FFF0E0001766FE2
:101AA000F6C077F0F7C078F048EC95F00001E3510C
:101AB000D8B405D0FF0E0001F96F380E08D0000130
:101AC000E251D8B406D0000E0001F96FC80EF86FCD
:101AD0007ED00001E551D8B404D00001F64BF72BBD
:101AE00076D00001E451D8B472D00001F7BF6FD0B6
:101AF0000001F75104E10001F605D8A068D000010B
:101B0000F607D8A0F70763D0DE0E0001756FFF0E51
:101B10000001766F48EC95F0D20E0001756FFF0E54
:101B20000001766FD6C077F0D7C078F048EC95F01A
:101B30000001E305D8A40FD00001D7BF0CD00001ED
:101B4000D75104E10001D605D8A005D00001D60781
:101B5000D8A0D7073CD00001E251D8B404D000018E
:101B6000D64BD72B34D00001E551D8B430D0000E7D
:101B70000001D76F000ED66F2AD0B60E0001756F28
:101B8000FF0E0001766F48EC95F021D0010E0001A8
:101B9000FC6FA60E0001756FFF0E0001766F48EC1A
:101BA00095F015D0D4C0C6F0D5C0C7F00001C7511C
:101BB000000AD8A4EBD70001C651010AD8B43FD718
:101BC000030AD8B4A1D7060AD8B4D7D7DFD77EEC9A
:101BD00090F0D20E0001876F010E0001886F8BEC30
:101BE000A0F087C064F288C065F289C066F28AC03E
:101BF00067F2CD0E0001C26FCC0EC36F8C0EC46FA6
:101C0000BF0EC56F64C2BEF065C2BFF066C2C0F051
:101C100067C2C1F084EC91F0BEC068F2BFC069F247
:101C2000C0C06AF2C1C06BF2000E0001726F000EFC
:101C3000736F820E746F420E756F68C26EF069C268
:101C40006FF06AC270F06BC271F054EC82F06EC03B
:101C500087F06FC088F070C089F071C08AF086ECA0
:101C60009FF087C06CF288C06DF26CC276F06DC2D6
:101C700077F026ECB3F05DECB1F01200050E000138
:101C80009A6FC7D0000120EE02F09651D9269751E5
:101C9000DA22DECF6BF0DDCF6CF098C06DF00F0E66
:101CA00000016E6F98ECB3F0000120EE04F0965145
:101CB000D9269751DA22DECF6BF0DDCF6CF098C0D9
:101CC0006DF0000E00016E6F98ECB3F0B0D096C0CE
:101CD0008FF097C090F098C091F0030E0001926FC2
:101CE000DFECAEF000019A6F00019A51D8A4120007
:101CF000000120EE02F09651D9269751DA22DECF6C
:101D00006BF0DDCF6CF098C06DF0000E00016E6FCF
:101D100098ECB3F0000120EE04F09651D9269751CB
:101D2000DA22DECF6BF0DDCF6CF098C06DF0000EE4
:101D300000016E6F98ECB3F07AD096C08FF097C028
:101D400090F098C091F0030E0001926FDFECAEF0BE
:101D500000019A6F00019A51D8A41200000120EEF0
:101D600002F09651D9269751DA22DECF6BF0DDCF03
:101D70006CF098C06DF00F0E00016E6F98ECB3F030
:101D8000000120EE04F09651D9269751DA22DECFD9
:101D90006BF0DDCF6CF098C06DF00F0E00016E6F30
:101DA00098ECB3F044D096C08FF097C090F098C0F4
:101DB00091F0030E0001926FDFECAEF000019A6F1C
:101DC00000019A51D8A41200000120EE02F09651B1
:101DD000D9269751DA22DECF6BF0DDCF6CF098C0B8
:101DE0006DF0000E00016E6F98ECB3F0000120EE74
:101DF00004F09651D9269751DA22DECF6BF0DDCF71
:101E00006CF098C06DF0000E00016E6F98ECB3F0AE
:101E10000ED000019951000AD8B434D7010AD8B4C1
:101E200056D7030AD8B489D7010AD8B4BCD7080E4C
:101E30000001962500016F6F000E0001972100013F
:101E4000706F00019851040DF3CF71F099C072F0DA
:101E5000D6ECB0F0080E0001962500016F6F000E61
:101E6000000197210001706F00019851040DF328C3
:101E70000001716F99C072F0D6ECB0F0080E00014D
:101E8000962500016F6F000E000197210001706F11
:101E900000019851040DF350020F0001716F99C0B9
:101EA00072F0D6ECB0F0080E0001962500016F6FBD
:101EB000000E000197210001706F00019851040D80
:101EC000F350030F0001716F99C072F0D6ECB0F0BF
:101ED0001200050E00019F6F7AD0000120EE02F083
:101EE0009A51D9269B51DA22DECF9DF0DDCF9EF0AC
:101EF0009DC0D9FF9EC0DAFFFF0E67D09AC096F052
:101F00009BC097F0010E0001986F47ECB0F0000104
:101F10009F6F00019F51D8A41200000120EE02F033
:101F20009A51D9269B51DA22DECF9DF0DDCF9EF06B
:101F30009DC0D9FF9EC0DAFF000EDF6E000120EECB
:101F400004F036D09AC096F09BC097F0020E0001C4
:101F5000986F47ECB0F000019F6F00019F51D8A42B
:101F60001200000120EE02F09A51D9269B51DA228C
:101F7000DECF9DF0DDCF9EF09DC0D9FF9EC0DAFF81
:101F8000FF0EDF6E000120EE04F0AAD79AC096F093
:101F90009BC097F0000E0001986F47ECB0F0000175
:101FA0009F6F00019F51D8A41200000120EE02F0A3
:101FB0009A51D9269B51DA22DECF9DF0DDCF9EF0DB
:101FC0009DC0D9FF9EC0DAFF000EDF6E0ED000016B
:101FD0009C51000AD8B481D7010AD8B48FD7030A1C
:101FE000D8B4B0D7010AD8B4D1D7080E00019A25C9
:101FF00000016F6F000E00019B210001706F000E49
:102000000001716F9CC072F0D6ECB0F0080E0001B8
:102010009A2500016F6F000E00019B210001706F77
:10202000010E0001716F9CC072F0D6ECB0F0080E8A
:1020300000019A2500016F6F000E00019B21000135
:10204000706F020E0001716F9CC072F0D6ECB0F0A0
:10205000080E00019A2500016F6F000E00019B2100
:102060000001706F030E0001716F9CC072F0D6EC1E
:10207000B0F0080E00019A2500016F6F000E0001FC
:102080009B210001706F040E0001716F9CC072F003
:10209000D6ECB0F0080E00019A2500016F6F000E1B
:1020A00000019B210001706F050E0001716F9CC043
:1020B00072F0D6ECB0F0080E00019A2500016F6FA7
:1020C000000E00019B210001706F060E0001716F70
:1020D0009CC072F0D6ECB0F0080E00019A25000109
:1020E0006F6F000E00019B210001706F070E000151
:1020F000716F9CC072F0D6ECB0F012000001FD517F
:10210000D8B41200ECC186F0EDC187F0EEC188F0C2
:10211000EFC189F00001EB51D8B404D036C085F08E
:102120000F0E366E000E00018B6FDFD000018B5159
:10213000020D000EF324D96E020EF420DA6EDECF0B
:10214000FAF0DDCFFBF0000E00018A6F130E0001E4
:102150008A6501D0BED000018B51140D6E0E0001B6
:10216000836F020E0001846FF35000018327F45047
:102170000001842300018A51010DF35000018325E1
:10218000D96EF45000018421DA6EDFAE9AD00001DE
:102190008B51140D6E0E0001836F020E0001846FCF
:1021A000F35000018327F4500001842300018A5179
:1021B000010DF35000018325D96EF45000018421F4
:1021C000DA6E7F0EDF1600018B51140D6E0E0001CA
:1021D000836F020E0001846FF35000018327F450D7
:1021E0000001842300018A51010DF3500001832571
:1021F000D96EF45000018421DA6EDF50D8B44AD091
:10220000DEC069F0DFC06AF086C06BF087C06CF09A
:1022100088C06DF089C06EF0F4C16FF0F5C170F048
:10222000F6C171F0F7C172F0EFECABF000018B5129
:10223000140D6E0E0001836F020E0001846FF350C7
:1022400000018327F4500001842300018A51010D0D
:10225000F35000018325D96EF45000018421DA6E19
:10226000DF5038ECA2F065C072F066C073F086C033
:1022700074F087C075F088C076F089C077F0F4C13B
:1022800078F0F5C179F0F6C17AF0F7C17BF0DEECB9
:10229000A7F017D0000E00016A6F000E696F86C0AC
:1022A0006BF087C06CF088C06DF089C06EF0F4C12F
:1022B0006FF0F5C170F0F6C171F0F7C172F0EFEC9C
:1022C000ABF0060E00018627000E872300018A2B43
:1022D0003DD7080E00018827000E8923000E00015B
:1022E000876F060E866F00018B2B00018B51365CC9
:1022F000D8B01CD70001EB51D8B41200000E000179
:10230000EB6F85C036F01200000E0101E76F00018F
:10231000BE510001BF110001C0110001C111D8A4BC
:1023200025D0000E0001606F000E616F000E626F1D
:10233000000E636FC2C064F0C3C065F0C4C066F035
:10234000C5C067F0DAEC96F00001D8A005D0000E09
:102350000101156F210E146F000E0001BE6F000EFB
:10236000BF6F000EC06F000EC16F12000001C2519E
:102370000001C3110001C4110001C511D8A40AD085
:10238000000E0001BE6F000EBF6F800EC06F3F0ECB
:10239000C16F12000001C1AF58D0C2C087F0C3C0E6
:1023A00088F0C4C089F0C5C08AF086EC9FF087C071
:1023B000E8F188C0E9F189C0EAF18AC0EBF1E8C12F
:1023C00060F0E9C161F0EAC162F0EBC163F0000EB8
:1023D00081EC93F00001C2510001601910E100018D
:1023E000C351000161190BE10001C45100016219E0
:1023F00006E10001C55100016319D8B40FD0000EE9
:102400000101156F210E146F000E0001BE6F000E4A
:10241000BF6F000EC06F000EC16F12000101E851C6
:10242000010B0101E76FBEC060F0BFC061F0C0C02A
:1024300062F0C1C063F013ECB2F060C0BEF061C0E6
:10244000BFF062C0C0F063C0C1F0BEC0ABF0BFC09F
:10245000ACF0C0C0ADF0C1C0AEF068EC98F0ABC05D
:10246000DFF1ACC0E0F1ADC0E1F1AEC0E2F1DFC13F
:102470006EF0E0C16FF0E1C170F0E2C171F0C2C076
:1024800072F0C3C073F0C4C074F0C5C075F054ECF2
:1024900082F06EC0E3F16FC0E4F170C0E5F171C08D
:1024A000E6F1E3C1B3F0E4C1B4F0E5C1B5F0E6C1D3
:1024B000B6F073EC8AF0B3C0BEF0B4C0BFF0B5C0E4
:1024C000C0F0B6C0C1F00101E7510101D8B413D08A
:1024D000BEC060F0BFC061F0C0C062F0C1C063F0B8
:1024E00013ECB2F060C0BEF061C0BFF062C0C0F0DB
:1024F00063C0C1F01200BEC0BEF0BFC0BFF0C0C01C
:10250000C0F0C1C0C1F01200460E00019B6F010E69
:1025100000019C6F000E00019E6F020E9D6FFE0E6B
:1025200000019F6F690E0001A06F010E0001A16FF5
:102530006E0E0001A26F680E0001A36F010E000174
:10254000A46F040E0001A56F140E0001A66F000E0B
:102550000001A76FCEECA1F0280E00019B6F010EC9
:1025600000019C6F000E00019E6F020E9D6FFE0E1B
:1025700000019F6F690E0001A06F010E0001A16FA5
:10258000CE0E0001A26F680E0001A36F010E0001C4
:10259000A46F040E0001A56F140E0001A66F000EBB
:1025A0000001A76FCEECA1F01E0E00019B6F010E83
:1025B00000019C6F000E00019E6F020E9D6FFE0ECB
:1025C00000019F6F690E0001A06F010E0001A16F55
:1025D000B60E0001A26F680E0001A36F010E00018C
:1025E000A46F040E0001A56F140E0001A66F000E6B
:1025F0000001A76FCEECA1F0320E00019B6F010E1F
:1026000000019C6F000E00019E6F020E9D6FFE0E7A
:1026100000019F6F690E0001A06F010E0001A16F04
:102620009E0E0001A26F680E0001A36F010E000153
:10263000A46F040E0001A56F140E0001A66F000E1A
:102640000001A76FCEECA1F03C0E00019B6F010EC4
:1026500000019C6F000E00019E6F020E9D6FFE0E2A
:1026600000019F6F690E0001A06F010E0001A16FB4
:10267000860E0001A26F680E0001A36F010E00011B
:10268000A46F040E0001A56F140E0001A66F000ECA
:102690000001A76FCEECA1F0A00E00018D6F860E99
:1026A0008E6F010E8F6F000E906F000E0001916F04
:1026B000020E0001926FA7EC84F0500E00016F6FC4
:1026C000010E0001706F9DECACF0000E0001A96FCF
:1026D000000EA86F0001A95113E1080E0001A85DCA
:1026E000D8B01200160E0001A825D96E010E000107
:1026F000A921DA6E000EDF6E0001A84BA92BEAD7E4
:1027000012000001686F000168510001D8B41ED0AA
:10271000000163AF1BD060C064F061C065F062C0AF
:1027200066F063C067F00001641F651F661F671FC6
:10273000642B000E65236623672364C06AF065C0BE
:102740006BF066C06CF067C06DF008D060C06AF0D6
:1027500061C06BF062C06CF063C06DF0000160514D
:10276000000161110001621100016311D8A40AD0B7
:10277000000E0001606F000E616F000E626F000EB0
:10278000636F1200960E0001696F08D00001692B7B
:102790000001D8906D336C336B336A33000E000147
:1027A0006A150001646F000E00016B150001656F72
:1027B000000E00016C150001666FFE0E00016D1524
:1027C0000001676F0001645100016511000166118D
:1027D00000016711D8B410D0D9D70001692B010EC0
:1027E00000016A27000E6B236C236D230001D89033
:1027F0006D336C336B336A33000E00016A150001D0
:10280000646F000E00016B150001656F000E000182
:102810006C150001666FFF0E00016D150001676FFA
:10282000000164510001651100016611000167118A
:10283000D8B409D0D2D7000169070001D8906A370F
:102840006B376C376D3700016CBF04D0020E00018E
:102850006961F1D7000169B109D0FF0E00016A1763
:10286000FF0E6B177F0E6C17FF0E6D170001D890CF
:10287000693369C064F00001656B666B676B64C0A7
:1028800067F00001666B656B646B000164510001C9
:102890006A130001655100016B13000166510001CC
:1028A0006C130001675100016D13000168510001B4
:1028B000D8B405D0000163AF02D000016D8F6AC0AB
:1028C00060F06BC061F06CC062F06DC063F012002C
:1028D00086C0D9FF87C0DAFFDECF8BF0DDCF8CF06A
:1028E000050E00018A6FB5D0000120EE02F086517E
:1028F000D9268751DA22DECF60F0DDCF61F088C0C3
:1029000062F0010E0001636F4BECAEF0B0D08BC0F3
:102910006FF08CC070F0010E0001716F88C072F012
:10292000FCECAAF000018A6F00018A51D8A41200C1
:10293000000120EE02F08651D9268751DA22DECF3F
:1029400060F0DDCF61F088C062F0000E0001636FBF
:102950004BECAEF0000120EE04F08651D9268751F1
:10296000DA22DECF60F0DDCF61F088C062F0000EC9
:102970000001636F4BECAEF07AD08BC06FF08CC06F
:1029800070F0020E0001716F88C072F0FCECAAF0CA
:1029900000018A6F00018A51D8A41200000120EEC4
:1029A00002F08651D9268751DA22DECF60F0DDCFE2
:1029B00061F088C062F0010E0001636F4BECAEF075
:1029C000000120EE04F08651D9268751DA22DECFAD
:1029D00060F0DDCF61F088C062F0010E0001636F2E
:1029E0004BECAEF044D08BC06FF08CC070F0000E9A
:1029F0000001716F88C072F0FCECAAF000018A6FD0
:102A000000018A51D8A41200000120EE02F0865184
:102A1000D9268751DA22DECF60F0DDCF61F088C0A1
:102A200062F0000E0001636F4BECAEF0000120EE8F
:102A300004F08651D9268751DA22DECF60F0DDCF4F
:102A400061F088C062F0000E0001636F4BECAEF0E5
:102A50000ED000018951000AD8B446D7010AD8B473
:102A600056D7030AD8B489D7010AD8B4BCD7080E00
:102A70000001862500016F6F000E00018721000113
:102A8000706F88C071F089C072F0D6ECB0F012009F
:102A9000770E00017C6F000E00017D6FB1D0250E16
:102AA00000018019D8B405D000018051A6ECB4F023
:102AB000A7D0000E00017A6F11D07CC0D9FF7DC075
:102AC000DAFFDF500001806F020E00017C27000E4C
:102AD0007D2300018051A6ECB4F092D075C0F6FFC2
:102AE00076C0F7FF0001754B762B000EF86E0800DC
:102AF000F5CF80F000018051000AD8B41200630ABB
:102B0000D8B4DBD7070AD8B403D00D0AD8A4E1D7CC
:102B10007CC0D9FF7DC0DAFFDECF7EF0DDCF7FF055
:102B2000020E00017C27000E7D2300017FAF08D03C
:102B3000030E00017A1300017E6D7F1FD8B07F2B3A
:102B4000010E0001806F050E00018019D8B419D064
:102B500000018051020D290EF324F66EFD0EF420C3
:102B6000F76EF86A000EF8220900F55000017E5D4C
:102B70000900F55000017F59D8A003D00001802B37
:102B8000E2D77AC079F0030E00017917D8B403D0E8
:102B90002D0EA6ECB4F080C07BF02CD000017B5150
:102BA000020D290EF324F66EFD0EF420F76EF86A7E
:102BB000000EF8220900F5CF62F00A00F5CF63F0AD
:102BC0007EC060F07FC061F078ECABF060C067F071
:102BD00061C068F0000E00016A6F0A0E696F7DEC3B
:102BE000AEF000016751300F0001806F000180518D
:102BF000A6ECB4F000017B0700017B29D8A4CED756
:102C000075C0F6FF76C0F7FF0001754B762B000EFE
:102C1000F86E0800F5CF80F000018051D8B41200A2
:102C20003ED70001A25138ECA7F0A0C0D9FFA1C047
:102C3000DAFF000160C0DEFF000161C0DDFF0001BE
:102C4000A2518BECA7F0000120EE06F0A051D9268E
:102C5000A151DA22000160C0DEFF000161C0DDFF8A
:102C60000001A2518BECA7F0000120EE04F0A0516E
:102C7000D926A151DA22000160C0DEFF000161C047
:102C8000DDFF0001A251E5ECA6F0000120EE02F00C
:102C9000A051D926A151DA22000160C0DEFF000157
:102CA00061C0DDFF000120EE04F0A051D926A15142
:102CB000DA22DECFA3F0DDCFA4F0A3C0D9FFA4C0F9
:102CC000DAFF000EDF6E000120EE02F0A051D926DF
:102CD000A151DA22DECFA3F0DDCFA4F0A3C0D9FF4B
:102CE000A4C0DAFFFF0EDF6EA0C09AF0A1C09BF077
:102CF000000E00019C6F69EC8FF0000E0001A56FC3
:102D0000070E0001A56531D04BD0A0C086F0A1C050
:102D100087F0A5C088F0030E0001896F68EC94F07D
:102D20003CD0A0C086F0A1C087F0A5C088F0020EFC
:102D30000001896F68EC94F030D0A0C086F0A1C08B
:102D400087F0A5C088F0010E0001896F68EC94F04F
:102D500024D0A0C086F0A1C087F0A5C088F0000EE6
:102D60000001896F68EC94F018D0A0C0D9FFA1C011
:102D7000DAFFDECF6CF0DDCF6DF0A5C06EF09BEC1E
:102D8000B1F0000AD8B4C1D7010AD8B4D6D7030A23
:102D9000D8B4C7D7010AD8B4DCD70001A52BB0D767
:102DA000A0C06FF0A1C070F0000E0001716F96EC32
:102DB00088F01200000E000160150001686F000E1F
:102DC000000161150001696F800E000162150001AC
:102DD0006A6F7F0E0001631500016B6F000168517F
:102DE0000001691100016A1100016B11D8A409D01A
:102DF000000E0001606F000E616F000E626F000E2A
:102E0000636F000E000164150001686F000E000181
:102E100065150001696F800E0001661500016A6F7B
:102E20007F0E0001671500016B6F00016851000102
:102E3000691100016A1100016B11D8A409D0000EBC
:102E40000001646F000E656F000E666F000E676F05
:102E5000000163AF26D060C068F061C069F062C055
:102E60006AF063C06BF00001681F691F6A1F6B1F67
:102E7000682B000E69236A236B23000E000168256E
:102E80000001606F000E000169210001616F000EFA
:102E900000016A210001626F800E00016B210001B8
:102EA000636F000167AF26D064C068F065C069F049
:102EB00066C06AF067C06BF00001681F691F6A1F77
:102EC0006B1F682B000E69236A236B23000E000121
:102ED00068250001646F000E000169210001656F23
:102EE000000E00016A210001666F800E00016B2157
:102EF0000001676F000E0001601B000E611B000ED9
:102F0000621B800E631B000E0001641B000E651B1C
:102F1000000E661B800E671B000164510001605D9E
:102F200000016551000161590001665100016259BB
:102F30000001675100016359D8B002D0D890120047
:102F4000D88012000001736FA8D01BECA9F012000A
:102F5000B1ECAFF01200ACECA9F0120002ECA3F05F
:102F6000120019ECAEF0120011ECB4F0120073C0B4
:102F700070F07F0E000170173650140D6E0E0001B8
:102F8000716F020E0001726FF35000017127F4504F
:102F9000000172233750010DF35000017125D96EE5
:102FA000F45000017221DA6EDF507F0B00017019BE
:102FB000D8B42BD0010E0001FD6F3650140D6E0EEB
:102FC0000001706F020E0001716FF3500001702755
:102FD000F450000171233750010DF35000017025AA
:102FE000D96EF45000017121DA6E0001735180092D
:102FF000DF6E3650020D000EF324D96E020EF4205F
:10300000DA6EFAC0DEFFFBC0DDFF19ECAEF000099E
:10301000D8B4120073C070F07F0E000170173650E4
:10302000140D6E0E0001716F020E0001726FF350ED
:1030300000017127F450000172233750010DF35045
:1030400000017125D96EF45000017221DA6EDF5053
:103050007F0B00017019D8B41200010E0001FD6F42
:103060003650140D6E0E0001706F020E0001716F6C
:10307000F35000017027F450000171233750010D07
:10308000F35000017025D96EF45000017121DA6E01
:10309000000173518009DF6E120000017351070AAD
:1030A000D8B45FD70F0AD8B453D7010AD8B456D7CB
:1030B000030AD8B44AD7060AD8B44DD7010AD8B4FF
:1030C00044D72D0AD8B453D7030AD8B44DD74FD715
:1030D0000001AEAF0FD0000E0101156F210E146F6D
:1030E000000E0001AB6F000EAC6F000EAD6F000E56
:1030F000AE6F12000001AB510001AC110001AD1127
:103100000001AE11D8A40FD0000E0101156F220EE0
:10311000146F000E0001AB6F000EAC6F000EAD6FB0
:10312000000EAE6F1200000E0001726F000E736F82
:10313000000E746F400E756FAF0E0001646F000ECD
:103140000001656FABC060F0ACC061F0ADC062F073
:10315000AEC063F07DECA4F060C06EF061C06FF0B3
:1031600062C070F063C071F054EC82F06EC087F002
:103170006FC088F070C089F071C08AF0000E000145
:103180008B6F000E8C6F800E8D6FBF0E8E6F00ECFC
:1031900080F087C0ABF088C0ACF089C0ADF08AC0C9
:1031A000AEF00001AF07D8A0B007ABC09BF0ACC039
:1031B0009CF0ADC09DF0AEC09EF04B0E00019F6F25
:1031C000FF0E0001A06F000E0001A26F080EA16F9C
:1031D000FAEC9EF09BC0ABF09CC0ACF09DC0ADF093
:1031E0009EC0AEF0180E0001726F720E736F310E3A
:1031F000746F3F0E756FAFC060F0B0C061F000013A
:10320000000E61BFFF0E626F636F010E81EC93F0E1
:1032100060C06EF061C06FF062C070F063C071F0AA
:1032200054EC82F06EC087F06FC088F070C089F0F7
:1032300071C08AF0ABC08BF0ACC08CF0ADC08DF02B
:10324000AEC08EF000EC80F087C0ABF088C0ACF070
:1032500089C0ADF08AC0AEF01200010E436E000EC0
:10326000256E000E266E000E276EA20E0001A06FC6
:10327000010E0001A16F000E0001A26F11EC96F08B
:10328000980E0001A06F010E0001A16F010E000158
:10329000A26F11EC96F0EC0E0001A06F000E000181
:1032A000A16F020E0001A26F11EC96F08E0E0001CC
:1032B000A06F010E0001A16F030E0001A26F11ECBF
:1032C00096F0840E0001A06F010E0001A16F040EA4
:1032D0000001A26F11EC96F0AC0E0001A06F010E80
:1032E0000001A16F050E0001A26F11EC96F07A0E9D
:1032F0000001A06F010E0001A16F060E0001A26F78
:1033000011EC96F0AC0E0001866F010E0001876F84
:10331000050E0001886F000E0001896F68EC94F0C3
:10332000980E0001966F010E0001976F000E0001CC
:10333000986F000E0001996F3EEC8EF0AC0E00010C
:10334000866F010E0001876F060E0001886F030E65
:103350000001896F68EC94F07A0E00019A6F010EFB
:1033600000019B6F030E00019C6F69EC8FF07A0ED9
:1033700000016F6F010E0001706F040E0001716F8C
:10338000000E0001726FA0ECA2F0AC0E00016F6F96
:10339000010E0001706F060E0001716F010E000139
:1033A000726FA0ECA2F0000EAEECAEF0010EAEEC2F
:1033B000AEF0000E9E6E000EA16E000EA46E9B8EEF
:1033C0009B8C000E0001616F640E606F7BECADF0B2
:1033D000D08E1200D7ECACF0000E0001986F000EFA
:1033E000976F0001985106E1590E0001975DD8B022
:1033F0008BD001D089D0D89000019735F66E0001AE
:103400009835F76E570EF626FC0EF722F86A000E76
:10341000F8220900800EF5180900F510D8A422D072
:10342000000198511FE1580E0001975DD8B01AD0E5
:103430000001974B982BD89000019735F66E00014C
:103440009835F76E570EF626FC0EF722F86A000E36
:10345000F8220900F5CF60F00A00F5CF61F07BECAF
:10346000ADF04BD0D89000019735F66E000198353D
:10347000F76E570EF626FC0EF722F86A000EF822B9
:103480000900000EF55E0900010EF55AD8A020D003
:10349000000E0001636FD89000019735F66E0001B1
:1034A0009835F76E570EF626FC0EF722F86A000ED6
:1034B000F8220900F5CF95F00900F5CF96F096C0F7
:1034C00095F00001966B0001955176ECB3F015D0A4
:1034D000010E0001636FD89000019735F66E000170
:1034E0009835F76E570EF626FC0EF722F86A000E96
:1034F000F8220800F55076ECB3F00001974B982BBA
:103500000001985101E170D7000E0001616F640E57
:10351000606F7BECADF0000E0001636F290E76EC5E
:10352000B3F0010ECFECA8F0000E0001616F640E45
:10353000606F7BECADF0000E00016A6F000E696FEA
:103540000CECAFF01200000120EE07F07B51D92601
:103550007C51DA2201D80AD00500FA6EDE50FD6EE9
:10356000DE50FE6EDE50FF6EFA5012000001836FD7
:103570007BC0D9FF7CC0DAFF00018351DE18D8A4DC
:1035800021D0000120EE01F07B51D9267C51DA22B6
:1035900000017D51DE5CD8B00AD0000120EE01F0C0
:1035A0007B51D9267C51DA22000EDF6E1200000119
:1035B00020EE01F07B51D9267C51DA2200017D51A9
:1035C000DF5E1200000120EE01F07B51D9267C5114
:1035D000DA22DF5000017E6F7F6B00017D51000118
:1035E0007E27000E7F23000120EE01F07B51D926BB
:1035F0007C51DA22DF500001806F816B00017E5127
:103600000001805D00018151800A0001826F00018C
:103610007F51800A00018259D8B01200000120EECB
:1036200001F07B51D9267C51DA2200017D51DF2641
:10363000000120EE02F07B51D9267C51DA220001F4
:1036400010EE01F07B51E1267C51E222E7500001AF
:10365000806F816BDE500001805DDE50000181597A
:10366000D8A012007BC0D9FF7CC0DAFF83C0DFFF87
:10367000000120EE01F07B51D9267C51DA22000EA8
:10368000DF6E000120EE04F07B51D9267C51DA2256
:1036900001D812000500FA6EDE50FD6EDE50FE6E9F
:1036A000DE50FF6EFA50000183511200800E0001BF
:1036B000736F8D0E746F5B0E756F000E766FD59EF7
:1036C00000016D5100016E1100016F1100017011B8
:1036D000D8B41200D596D59CD59AD59873C060F011
:1036E00074C061F075C062F076C063F06DC064F0C4
:1036F0006EC065F06FC066F070C067F0C2ECA3F0FA
:1037000060C077F061C078F062C079F063C07AF091
:1037100009D0312A020E316401D02DD0070E316458
:1037200001D0120077C060F078C061F079C062F01B
:103730007AC063F03150020D090EF324F66EFD0ECF
:10374000F420F76EF86A000EF8220900F5CF71F048
:103750000900F5CF72F071C064F072C065F000012D
:10376000666B676BC2ECA3F000016351D2E100010C
:103770006205D8B0CED73150020D090EF324F66E93
:10378000FD0EF420F76EF86A000EF8220800F5CF5F
:1037900030F0FF0E000177250101046FFF0E0001DC
:1037A00078210101056FFF0E000179210101066FEB
:1037B000FF0E00017A210101076F04C160F005C10D
:1037C00061F006C162F007C163F030500001646F20
:1037D000656B666B676BC2ECA3F00001601F0001B4
:1037E000611F0001604B612BFF0E00016025286EF8
:1037F000FF0E00016121296ECEECB4F0D58E1200CF
:10380000000E0001766F6C0E776FDC0E786F020E83
:10381000796F0001D8906D376E376F377037020EB1
:103820000001716FD89000017933783377337633A4
:103830000001712FF7D776C060F077C061F078C0D3
:1038400062F079C063F06DC064F06EC065F06FC067
:1038500066F070C067F0C2ECA3F060C07AF061C09F
:103860007BF062C07CF063C07DF00ED0000E0001E2
:10387000726F000E736F000E746F000E756F2F2A3B
:10388000020E2F6401D025D07AC060F07BC061F0B9
:103890007CC062F07DC063F02F50010D400EF32418
:1038A000F66EFD0EF420F76EF86A000EF82208009E
:1038B000F5500001646F656B666B676BC2ECA3F03B
:1038C0000001635100016211D1E100016105D8B02E
:1038D000CDD7CA502F18FC0B2F18CA6ECA84EEEC35
:1038E000B4F02F50010D400EF324F66EFD0EF420BF
:1038F000F76EF86A000EF8220800F5CF2EF0FF0EE2
:1039000000017A250101006FFF0E00017B210101FA
:10391000016FFF0E00017C210101026FFF0E00010B
:103920007D210101036F00C160F001C161F002C19E
:1039300062F003C163F02E500001646F656B666B2B
:10394000676BC2ECA3F0000160512F6E2FC0CBFF5C
:103950001200E5ECADF033ECA5F0010E7CECB1F01B
:103960000009D8B408D002EC8DF07FECB4F0000967
:10397000D8A498ECB2F0080E7CECB1F00009D8A401
:1039800067D0E9D7BD0E00017B6F010E00017C6F8F
:10399000F6C060F0F7C061F0030E0001636FE80E3F
:1039A000626F2FECB2F060C07DF061C07EF03BEC46
:1039B000B3F0BD0E0001636F010E0001646FF8C02B
:1039C00065F0F9C066F0F6ECB1F056D00001FC519C
:1039D000D8B408D0000E0001FC6F000E0101BE6FCC
:1039E000000EBD6F0001E451D8B446D00101BD51B5
:1039F0000101BE11D8A440D0BD0E00017B6F010EA5
:103A000000017C6F030E00017E6FE80E7D6F3BECC2
:103A1000B3F0BD0E0001636F010E0001646FD6C0EC
:103A200065F0D7C066F0F6ECB1F026D00001FC518D
:103A3000D8B422D0000E0001CB6F000ECA6F000E6A
:103A40000001FC6F000E0001CD6F000ECC6F14D092
:103A5000D4C0C8F0D5C0C9F00001C951000AD8A42B
:103A60000BD00001C851010AD8B48CD7030AD8B4CE
:103A7000ADD7060AD8B4DAD77FECB4F00009D8B4D1
:103A80006AD798ECB2F067D70001AB510001AC11D6
:103A90000001AD110001AE11D8A40AD0000E000142
:103AA000AB6F000EAC6F000EAD6F000EAE6F12006C
:103AB0000001AE517F0B0001B16FB26BD8900001D5
:103AC000B137B2370001B1510001AF270001B25147
:103AD0000001B0230001ADAF04D00001B16BB12BE8
:103AE00002D00001B16B0001B1510001AF27000EFF
:103AF000B0230001B0AF0FD0000E0101156F220EF0
:103B0000146F000E0001AB6F000EAC6F000EAD6FB6
:103B1000000EAE6F12000001B0BF1ED00001B00554
:103B2000D8A01AD0000E0101156F220E146F0001EB
:103B3000AEAF09D0FF0E0001AB6FFF0EAC6F7F0E72
:103B4000AD6FFF0EE6D7FF0E0001AB6FFF0EAC6F3F
:103B50007F0EAD6F7F0EDDD70001B035B0310001B3
:103B6000B26F0001AF310001B16F0001AE51000131
:103B7000B119800BB1190001AE6FAFC0B1F0010EE9
:103B80000001B1170001B133B1330001AD510001A3
:103B9000B1197F0BB1190001AD6FABC0ABF0ACC078
:103BA000ACF0ADC0ADF0AEC0AEF012009BC060F0A6
:103BB0009CC061F09DC062F09EC063F0A30E000146
:103BC000646F000E0001656F7DECA4F00001A4AFEE
:103BD00017D000019EAF0AD0000E00019B6F000EAF
:103BE0009C6F800E9D6FBF0E9E6F1200000E000135
:103BF0009B6F000E9C6F000E9D6F000E9E6F12005B
:103C00000001A45105E11D0E0001A35DD8A009D05B
:103C10009BC09BF09CC09CF09DC09DF09EC09EF000
:103C200012009BC087F09CC088F09DC089F09EC0A8
:103C30008AF086EC9FF087C060F088C061F089C090
:103C400062F08AC063F0010E81EC93F060C09FF0D7
:103C500061C0A0F062C0A1F063C0A2F09BC060F0A0
:103C60009CC061F09DC062F09EC063F09FC064F094
:103C7000A0C065F0A1C066F0A2C067F0DAEC96F0D3
:103C80000001D8B01CD09FC087F0A0C088F0A1C0B0
:103C900089F0A2C08AF0000E00018B6F000E8C6FBD
:103CA000800E8D6FBF0E8E6F00EC80F087C09BF092
:103CB00088C09CF089C09DF08AC09EF012009FC011
:103CC0009BF0A0C09CF0A1C09DF0A2C09EF012008D
:103CD00049B20CEFA0F020EE04F02A50D9262B5068
:103CE000DA22DF501CECB1F00009D8B47AD02AC037
:103CF000D9FF2BC0DAFFDE50DE10D8B46DD02AC059
:103D0000D9FF2BC0DAFF010EDBBE26D0010EDB503F
:103D100003E1DE04D8A020D02AC0D9FF2BC0DAFFEF
:103D2000DE2804E17F0EDE18D8B407D02AC0D9FF00
:103D30002BC0DAFFDE06000EDD5A840E00016F6F25
:103D4000010E0001706F000E0001716F010E000185
:103D5000726FA0ECA2F01FD02AC0D9FF2BC0DAFFEF
:103D6000DE0404E1800EDE18D8B407D02AC0D9FFE3
:103D70002BC0DAFFDE2A000EDD22840E00016F6FF9
:103D8000010E0001706F000E0001716F000E000146
:103D9000726FA0ECA2F0840E00016F6F010E0001A3
:103DA000706F010E0001716F010E0001726FA0ECC7
:103DB000A2F0840E00016F6F010E0001706F010E02
:103DC0000001716F000E0001726FA0ECA2F07FEC99
:103DD000B4F0C8ECB4F012007FECB4F0FCECB4F03A
:103DE0001200D1C060F0D2C061F0D3C062F0B4EC78
:103DF000B4F01200A1C0A3F0A2C0A4F00001D890BA
:103E0000A337A4370001D890A337A4379FC0A5F0EB
:103E1000A0C0A6F00001A3510001A5270001A451F4
:103E20000001A623A5C0F6FFA6C0F7FF000EF86E9E
:103E30000900F5CFA7F00900F5CFA8F00900F5CFEC
:103E4000A9F00A00F5CFAAF052D0A7C072F0A8C01E
:103E500073F0A9C074F0AAC075F09BC06EF09CC04E
:103E60006FF09DC070F09EC071F054EC82F06EC097
:103E700087F06FC088F070C089F071C08AF00001CF
:103E8000A107D8A0A207A1C0A3F0A2C0A4F000017E
:103E9000D890A337A4370001D890A337A4379FC088
:103EA000A5F0A0C0A6F00001A3510001A5270001C4
:103EB000A4510001A623A5C0F6FFA6C0F7FF000E7F
:103EC000F86E0900F5CF8BF00900F5CF8CF00900F2
:103ED000F5CF8DF00A00F5CF8EF000EC80F087C0B2
:103EE000A7F088C0A8F089C0A9F08AC0AAF0000194
:103EF000A1510001A211D8A4A8D7A7C09BF0A8C0C7
:103F00009CF0A9C09DF0AAC09EF012000001893566
:103F10008A350001906F00019051D8A40AD0000E9C
:103F20000001876F000E886F000E896F000E8A6F88
:103F3000120087C08BF088C08CF089C08DF08AC0D9
:103F40008EF0200E06D00001D8908E338D338C3346
:103F50008B33E82EF8D700018B5100018F6F0001E1
:103F6000898FFF0E00018717FF0E8817FF0E891734
:103F7000000E8A17960E0001905F000190AF1AD0D4
:103F800000019051800A970FD8B00AD0000E0001AE
:103F9000876F000E886F000E896F000E8A6F120007
:103FA0000001D8908A338933883387330001903FEA
:103FB000F7D71BD01F0E0001906512D0000E000134
:103FC000876F000E886F000E896F000E8A6F1200D7
:103FD0000001D8908737883789378A3700019007E2
:103FE000000190510001D8A4F3D700018F510001C6
:103FF000D8B409D000018A1F891F881F876D000E61
:10400000882389238A2387C087F088C088F089C0E5
:1040100089F08AC08AF0120020EE04F02A50D926D6
:104020002B50DA22DF504AECB2F00009D8B46AD043
:104030002AC0D9FF2BC0DAFFDE50DE10D8B45DD025
:104040002AC0D9FF2BC0DAFF010EDBBE22D0010E41
:10405000DB5003E1DE04D8A01CD02AC0D9FF2BC05E
:10406000DAFFDE2804E17F0EDE18D8B407D02AC0BC
:10407000D9FF2BC0DAFFDE06000EDD5A840E106E6B
:10408000010E116E000E126E010E136E90ECA6F072
:104090001BD02AC0D9FF2BC0DAFFDE0404E1800E5A
:1040A000DE18D8B407D02AC0D9FF2BC0DAFFDE2A29
:1040B000000EDD22840E106E010E116E000E126EC7
:1040C000000E136E90ECA6F0840E106E010E116EB1
:1040D000010E126E010E136E90ECA6F0840E106E9F
:1040E000010E116E010E126E000E136E90ECA6F012
:1040F00008ECB5F0D4ECB4F0120008ECB5F005EC27
:10410000B5F01200D1C001F0D2C002F0D3C003F06C
:10411000BBECB4F01200000E00018D6F000E8E6F2C
:10412000800E8F6F440E906F330E0001916F330E2F
:10413000926F530E936F400E946F000120EE01F0CA
:104140008751D9268851DA22DECF8BF0DDCF8CF073
:104150008BC060F08CC061F00001626B636B000E7D
:1041600081EC93F060C095F061C096F062C097F06A
:1041700063C098F095C060F096C061F097C062F09F
:1041800098C063F08DC064F08EC065F08FC066F09B
:1041900090C067F0B6EC86F060C095F061C096F014
:1041A00062C097F063C098F095C06EF096C06FF053
:1041B00097C070F098C071F091C072F092C073F027
:1041C00093C074F094C075F054EC82F06EC095F01A
:1041D0006FC096F070C097F071C098F095C087F0EE
:1041E00096C088F097C089F098C08AF012006CC021
:1041F00074F06DC075F0000E0001736F000E726FE9
:104200006EC070F06FC071F0000174510001751143
:10421000D8A434D070C0D9FF71C0DAFF300EDF6E81
:10422000000E0001736F010E726F40D074C067F012
:1042300075C068F0000E00016A6F0A0E696F7DECB0
:10424000AEF000016751300F70C0D9FF71C0DAFFC6
:10425000DF6E74C060F075C061F0000E0001636F26
:104260000A0E626F78ECABF060C074F061C075F05C
:104270000001724B732B0001704B712B00017451C4
:1042800000017511D8B408D00001735105E1060E84
:104290000001725DD8A0CAD76EC060F06FC061F037
:1042A00072C062F073C063F00FECADF000017251A8
:1042B00000016E25D96E0001735100016F21DA6E85
:1042C000000EDF6E12008DC0D9FF8EC0DAFF000E27
:1042D000DE6E000EDD6E000120EE02F08D51D9265B
:1042E0008E51DA22000EDE6E000EDD6E000120EE31
:1042F00004F08D51D9268E51DA228FC0DEFF90C096
:10430000DDFF840E0001866F010E0001876F000E35
:104310000001886F030E0001896F68EC94F0840E31
:104320000001866F010E0001876F010E0001886F8A
:10433000030E0001896F68EC94F0840E00016F6F2A
:10434000010E0001706F000E0001716F000E000180
:10435000726FA0ECA2F0840E00016F6F010E0001DD
:10436000706F010E0001716F000E0001726FA0EC02
:10437000A2F0D00E0001D16F3C0E0001D26F010EF1
:104380000001D36FE80E00016D6F030E6E6F000E1B
:104390006F6F000E706F56EC9BF0120000019B5186
:1043A00000019C11D8B4120000019F510001A0111E
:1043B0000001A111D8B412000001A2510001A31103
:1043C0000001A411D8B412000001A5510001A611EA
:1043D0000001A711D8B4120000019D5100019E11E7
:1043E000D8A405D0000E00019E6F010E9D6F9BC0EA
:1043F000D9FF9CC0DAFF000EDF6E000120EE01F055
:104400009B51D9269C51DA22000EDF6E000120EE6E
:1044100002F09B51D9269C51DA229DC0DEFF9EC03E
:10442000DDFF000120EE04F09B51D9269C51DA22D9
:10443000A5C0DEFFA6C0DEFFA7C0DEFF000120EEA4
:1044400007F09B51D9269C51DA22A2C0DEFFA3C0FF
:10445000DEFFA4C0DEFF01D812000500FA6E0001E5
:104460009F51FD6EA051FE6EA151FF6EFA501200D9
:1044700000016B6F200E00016B5F00016B51050D99
:10448000F3CF69F0F4CF6AF0430E00016925000113
:104490006C6FFD0E00016A2100016D6F000E0001BE
:1044A000706F040E0001706501D043D0000E000152
:1044B000716F060E0001716501D035D06CC060F0DF
:1044C0006DC061F071C062F065ECB2F00009D8A473
:1044D00005D0DEC06EF0DFC06FF004D0FAC06EF021
:1044E000FBC06FF0000171510A0D1E0E0001676FD5
:1044F000020E0001686FF35000016727F4500001BD
:10450000682300017051020DF35000016725D96E38
:10451000F45000016821DA6E6EC0DEFF6FC0DDFF6F
:104520000001712BC6D700016C4B6D2B0001702B65
:10453000B8D71E0E0001656F020E0001666F1200F3
:10454000080E00016F2500016C6F000E0001702144
:1045500000016D6F71C06EF09BECB1F00001736FE4
:1045600042D0010E00017217000120EE02F06F51DF
:10457000D9267051DA22DECF60F0DDCF61F071C054
:1045800062F072C063F04BECAEF01200010E00015D
:104590007217010E0001721B000120EE02F06F5134
:1045A000D9267051DA22DECF60F0DDCF61F071C024
:1045B00062F072C063F04BECAEF01200010E00012D
:1045C0007217000120EE04F06F51D9267051DA22E3
:1045D000DECF60F0DDCF61F071C062F072C063F0D9
:1045E0004BECAEF0120000017351000AD8B4120077
:1045F000010AD8B4B6D7030AD8B4C8D7010AD8A4D8
:104600001200DCD7000E00016E6FFA0E3F2400018D
:10461000606FFF0E40200001616F000E0001636FAC
:10462000060E626F63ECA3F00001605100016F6F32
:104630006FC060F00001616B000E0001636F040E3B
:10464000626F63ECA3F00001605100016D6F000E1A
:1046500000016E6F06D0BAECB1F019ECAEF00001BB
:104660006E2B00016D51040DF31EF41EF34AF42A63
:1046700000016F510001686F696BF35000016827FA
:10468000F450000169230001681F691F684B692B02
:10469000040E00016827000E692300016E5100011D
:1046A0006A6F6B6B0001685100016A5D00016B511C
:1046B000800A00016C6F00016951800A00016C5989
:1046C000D8B01200C8D7000E0001656F000163AFBB
:1046D00008D00001626D631FD8B0632B010E00018A
:1046E000656F000161AF08D00001606D611FD8B037
:1046F000612B010E0001651B000E0001676F000EAB
:10470000666F0001625100016311D8B42CD0010E14
:104710000001646F06D00001D89062376337000152
:10472000642B000163AFF7D70001D8906637673775
:10473000000162510001605D000163510001615997
:10474000D8A00AD0000162510001605F00016351EE
:104750000001615B000166810001D8906333623320
:104760000001642FE1D7000165510001D8B405D0E4
:104770000001666D671FD8B0672B66C060F067C028
:1047800061F01200000E0001686F000E696F000EEC
:104790006A6F000E6B6F000164510001651100012A
:1047A000661100016711D8B442D0010E00016C6F90
:1047B00008D00001D8906437653766376737000145
:1047C0006C2B000167AFF5D70001D89068376937C7
:1047D0006A376B37000164510001605D000165516B
:1047E00000016159000166510001625900016751E1
:1047F00000016359D8A012D0000164510001605F2C
:10480000000165510001615B000166510001625BBE
:10481000000167510001635B000168810001D890CD
:10482000673366336533643300016C2FCDD768C0BE
:1048300060F069C061F06AC062F06BC063F01200A2
:10484000000E0001656F000E646F38D0160E000177
:104850006425D96E010E00016521DA6E61C0E1FFA9
:1048600062C0E2FFE750C0EC8BF0DF6E160E000175
:104870006425D96E010E00016521DA6E800EDE1806
:10488000D8A40ED000016407D8A06507160E000159
:104890006425D96E010E00016521DA6E000EDB8EF3
:1048A0000001614B622B0001644B652B00016551D7
:1048B0001AE1060E0001645DD8B015D061C0D9FFC1
:1048C00062C0DAFFDF50D8B40ED0C0D7160E000198
