:0614000045EF0AF01200A6
:101408004982FACF17F0FBCF18F0E9CF19F0EACFED
:101418001AF0E1CF1BF0E2CF1CF0D9CF1DF0DACFE4
:101428001EF0F3CF1FF0F4CF20F0F6CF21F0F7CF66
:1014380022F0F8CF23F0F5CF24F0F292F2B4F2AA1A
:1014480002D02AECA1F024C0F5FF23C0F8FF22C087
:10145800F7FF21C0F6FF20C0F4FF1FC0F3FF1EC036
:10146800DAFF1DC0D9FF1CC0E2FF1BC0E1FF1AC094
:10147800EAFF19C0E9FF18C0FBFF17C0FAFF49923D
:0614880011000AEF97F0CD
:10FC9A0000001180002C0100B1020035003600007E
:10FCAA00B202003500360000B30200350036000209
:10FCBA00003500360000B4000000C0A20002008433
:10FCCA000000C1C50000C20D00000000C38D002A5B
:10FCDA000000C48D00EE0000C50A000036C800000E
:10FCEA00E012001C001000180033002C0025002828
:10FCFA0000280027002F003C00000003000300102A
:10FD0A00008000780000E112001C00100018002D8D
:10FD1A0000280023002800280026002F003B0000AE
:10FD2A0000030003001000003A0500002A00000248
:10FD3A000000008100002B000003000000A2000068
:10FD4A0029002C0200040008001000200040008056
:10FD5A00000001000102000100010002020000038C
:10FD6A0003030001000A006400E8031027000103EE
:10FD7A00070F1F3F7FFF000201030104100000006C
:10FD8A00000000005F00000007000700147F147FD6
:10FD9A0014242A7F2A1223130864623649552250F2
:10FDAA000005030000001C2241000041221C00083B
:10FDBA002A1C2A0808083E080800503000000808D3
:10FDCA00080808006060000020100804023E51493B
:10FDDA00453E00427F400042615149462141454B20
:10FDEA00311814127F1027454545393C4A49493094
:10FDFA0001710905033649494936064949291E0050
:10FE0A003636000000563600000008142241141449
:10FE1A0014141441221408000201510906324979C6
:10FE2A00413E7E1111117E7F494949363E41414189
:10FE3A00227F4141221C7F494949417F0909010129
:10FE4A003E414151327F0808087F00417F4100202E
:10FE5A0040413F017F081422417F404040407F02D9
:10FE6A0004027F7F0408107F3E4141413E7F090919
:10FE7A0009063E4151215E7F0919294646494949E9
:10FE8A003101017F01013F4040403F1F2040201FB8
:10FE9A007F2018207F631408146303047804036125
:10FEAA005149454300007F41410204081020414165
:10FEBA007F00000402010204404040404000010269
:10FECA00040020545454787F484444383844444405
:10FEDA0020384444487F3854545418087E09010293
:10FEEA00081454543C7F0804047800447D400020E0
:10FEFA0040443D00007F10284400417F40007C04BC
:10FF0A001804787C0804047838444444387C14146F
:10FF1A001408081414187C7C08040408485454541F
:10FF2A0020043F4440203C4040207C1C2040201CB0
:10FF3A003C4030403C44281028440C5050503C442B
:10FF4A0064544C44000836410000007F0000004120
:10FF5A0036080008082A1C08081C2A080800FCFFA2
:10FF6A000F0000FFFFF0FF00FFFF002020202020ED
:10FF7A002020202020202020202020202020202077
:10FF8A00200A004A616D696E204561726C792039D8
:10FF9A00393133333339310A0043757272656E74FD
:10FFAA00204D6F64653A0A0A004469726563746990
:10FFBA006F6E3A2025640A0020436F6E74696E756D
:10FFCA006F75730A0A0020556E646566696E65640A
:10FFDA000A0A0020506F736974696F6E0A0A005327
:10FFEA00706565643A2025640A0020537465700AB6
:06FFFA000A00256300006F
:020000040001F9
:100000000CD0AA0E0001F76F010E04D0B50E00014E
:10001000F76F010E0001F86F08D00001F551000ADA
:10002000D8B4EFD7010AD8B4F1D7000120EE02F01E
:10003000F751D926F851DA22F5C0DFFFB1D0920E80
:100040000001EA6F000E0001EB6F020E0001EC6F81
:10005000030E0001ED6F84EC8AF0920E0001EA6F4E
:10006000000E0001EB6F030E0001EC6F030E0001A8
:10007000ED6F84EC8AF0920E0001EA6F000E000131
:10008000EB6F050E0001EC6F030E0001ED6F84ECC9
:100090008AF0920E0001EA6F000E0001EB6F040E71
:1000A0000001EC6F000E0001ED6F84EC8AF000019E
:1000B00020EE03F0F751D926F851DA22C70EDE6E92
:1000C0000F0EDD6E000120EE06F0F751D926F85133
:1000D000DA22C60EDE6E0F0EDD6E000120EE09F094
:1000E000F751D926F851DA22C90E56D0880E0001F0
:1000F000EA6F000E0001EB6F070E0001EC6F030EBC
:100100000001ED6F84EC8AF0880E0001EA6F000EAA
:100110000001EB6F060E0001EC6F030E0001ED6FA6
:1001200084EC8AF0880E0001EA6F000E0001EB6F8C
:10013000040E0001EC6F030E0001ED6F84EC8AF0F9
:10014000880E0001EA6F000E0001EB6F050E000142
:10015000EC6F000E0001ED6F84EC8AF0000120EEE0
:1001600003F0F751D926F851DA226D0EDE6E0F0E2C
:10017000DD6E000120EE06F0F751D926F851DA22A3
:100180006C0EDE6E0F0EDD6E000120EE09F0F751F1
:10019000D926F851DA226F0EDE6E0F0EDD6E09D011
:1001A0000001F551000AD8B44AD7010AD8A41200B8
:1001B0009DD7000120EE06F0F751D926F851DA223A
:1001C000DECFC4F0DDCFC5F0050E0001C66F000E16
:1001D0000001C76F7EEC9CF09CD0000120EE06F081
:1001E000F751D926F851DA22DECFC4F0DDCFC5F0C1
:1001F000040E0001C66F000E0001C76F7EEC9CF07C
:10020000000120EE03F0F751D926F851DA22DECFB3
:10021000C4F0DDCFC5F0060E0001C66F000E000170
:10022000C76F7EEC9CF084D0000120EE06F0F75101
:10023000D926F851DA22DECFC4F0DDCFC5F0040EA6
:100240000001C66F000E0001C76F7EEC9CF000013C
:1002500020EE03F0F751D926F851DA22DECFC4F0B0
:10026000DDCFC5F0060E0001C66F010E0001C76F9D
:100270007EEC9CF05DD0000120EE06F0F751D9260F
:10028000F851DA22DECFC4F0DDCFC5F0040E000154
:10029000C66F010E0001C76F7EEC9CF0000120EEDE
:1002A00003F0F751D926F851DA22DECFC4F0DDCFC2
:1002B000C5F0060E0001C66F000E0001C76F7EEC90
:1002C0009CF036D0000120EE06F0F751D926F85107
:1002D000DA22DECFC4F0DDCFC5F0040E0001C66F18
:1002E000010E0001C76F7EEC9CF0000120EE03F0D0
:1002F000F751D926F851DA22DECFC4F0DDCFC5F0B0
:10030000060E0001C66F010E0001C76F7EEC9CF067
:100310000FD00001F651000AD8B45FD7010AD8B453
:1003200083D7030AD8B4A7D7010AD8A41200CAD722
:10033000000120EE06F0F751D926F851DA22DECF7F
:10034000C4F0DDCFC5F0070E0001C66F000E00013E
:10035000C76F7EEC9CF0000120EE06F0F751D92625
:10036000F851DA22DECFC4F0DDCFC5F0060E000171
:10037000C66F000E0001C76F7EEC9CF0F1C0D1F09B
:10038000F2C0D2F0F3C0D3F0F4C0D4F0E5EC8FF0BB
:10039000F7C0C4F0F8C0C5F0AAECA1F004D09F8665
:1003A0000BD0A58E09D00001F551000AD8B4F7D7BB
:1003B000010AD8A41200F5D7F7C0C4F0F8C0C5F000
:1003C000E3ECA0F0F7C0D9FFF8C0DAFF000EDF6E53
:1003D000000120EE06F0F751D926F851DA22DECFDF
:1003E000CFF0DDCFD0F0000E0001D16F030E000181
:1003F000D26FE0ECA1F0000120EE06F0F751D92613
:10040000F851DA22DECFC4F0DDCFC5F0050E0001D1
:10041000C66F010E0001C76F7EEC9CF01200080E43
:100420000001D3250001D06F000E0001D42100018E
:10043000D16F000E0001D26FBAEC9FF00001EA6F9D
:100440000001EA510001D66FD76B0E0ED890000163
:10045000D637D737E82EFAD70001EA510001D86F16
:10046000D96B0C0ED8900001D837D937E82EFAD7BF
:100470000001EA510001DA6FDB6B0A0ED89000012F
:10048000DA37DB37E82EFAD70001EA510001DD6FD9
:10049000DC6B0001EA510001DE6FDF6B060ED890C5
:1004A0000001DE37DF37E82EFAD70001EA510001FC
:1004B000E06FE16B0001E03BE13BF00EE117E05142
:1004C0000F0BE113F00EE0170001EA510001E26F9B
:1004D000E36B0001D890E237E3370001D890E237B0
:1004E000E3370001EA510001E46FE56B0001E251DE
:1004F0000001E4130001E3510001E5130001E051A4
:100500000001E4130001E1510001E5130001DE5197
:100510000001E4130001DF510001E5130001DC518B
:100520000001E4130001DD510001E5130001DA517F
:100530000001E4130001DB510001E5130001D85173
:100540000001E4130001D9510001E5130001D65167
:100550000001E4110001E66F0001D7510001E5112F
:100560000001E76FEAC0E8F00001E96B080E000146
:10057000D3250001D06F000E0001D4210001D16FFE
:10058000010E0001D26FBAEC9FF00001D66FD76B5D
:100590000001D890D637D7370001D890D637D73753
:1005A0000001D6510001E8130001D7510001E91301
:1005B000080E0001D3250001D06F000E0001D421E8
:1005C0000001D16F020E0001D26FBAEC9FF0000162
:1005D000D66FD76B0001D63BD73BF00ED717D6515D
:1005E0000F0BD713F00ED6170001D6510001E813F8
:1005F0000001D7510001E913080E0001D3250001C5
:10060000D06F000E0001D4210001D16F030E000154
:10061000D26FBAEC9FF00001D66FD76B060ED89060
:100620000001D637D737E82EFAD70001D65100019E
:10063000E8130001D7510001E913080E0001D3258A
:100640000001D06F000E0001D4210001D16F040E13
:100650000001D26FBAEC9FF00001D66F0001D651B5
:100660000001D86FD76B0001D7510001E8130001DA
:10067000D8510001E913080E0001D3250001D06F05
:10068000000E0001D4210001D16F050E0001D26FD0
:10069000BAEC9FF00001D66FD76B0A0ED89000011C
:1006A000D637D737E82EFAD70001D6510001E81324
:1006B0000001D7510001E913080E0001D325000104
:1006C000D06F000E0001D4210001D16F060E000191
:1006D000D26FBAEC9FF00001D66FD76B0C0ED8909A
:1006E0000001D637D737E82EFAD70001D6510001DE
:1006F000E8130001D7510001E913080E0001D325CA
:100700000001D06F000E0001D4210001D16F070E4F
:100710000001D26FBAEC9FF00001D66FD76B0E0EBE
:10072000D8900001D637D737E82EFAD70001D65136
:100730000001E8130001D7510001E9130001E8515D
:100740000001E61948E10001E9510001E719D8A4C8
:10075000120032D0000120EE02F0D351D926D4513C
:10076000DA22DECFC4F0DDCFC5F0D5C0C6F010EC84
:10077000A3F012000001D51F000120EE02F0D351BA
:10078000D926D451DA22DECFC4F0DDCFC5F0D5C0F2
:10079000C6F010ECA3F01200000120EE04F0D351DB
:1007A000D926D451DA22DECFC4F0DDCFC5F0D5C0D2
:1007B000C6F010ECA3F012000001EA51000AD8B410
:1007C0001200010AD8B4C6D7030AD8B4D3D7010A95
:1007D000D8A41200E1D712000001C46F7ED03F0EF2
:1007E0001200060E12005B0E12004F0E1200660E73
:1007F00012006D0E12007D0E1200070E12007F0E09
:1008000012006F0E12005F0E12007C0E1200580EC6
:1008100012005E0E12007B0E1200710E12006F0E9F
:100820001200740E1200040E12000E0E12007A0E48
:100830001200060E1200140E1200540E12005C0E6E
:100840001200730E1200670E1200500E12006D0E91
:100850001200780E12001C0E1200620E12002A0EF8
:100860001200640E12006E0E12005B0E1200770E64
:1008700012007F0E1200390E12003F0E1200790E88
:100880001200710E12003D0E1200760E1200060EBE
:1008900012001E0E1200570E1200380E1200760EB5
:1008A0001200760E12003F0E1200730E12003F0E61
:1008B0001200770E12006D0E1200310E12003E0E65
:1008C00012003E0E12007E0E1200760E1200660E10
:1008D00012005B0E1200800E12000001C4512E0A9D
:1008E000D8B4F9D71E0AD8B47AD7010AD8B479D7C0
:1008F000030AD8B478D7010AD8B477D7070AD8B48E
:1009000076D7010AD8B475D7030AD8B474D7010AC8
:10091000D8B473D70F0AD8B472D7010AD8B471D734
:10092000780AD8B4A4D7030AD8B4A3D7010AD8B494
:10093000A2D7070AD8B4A1D7010AD8B4A0D7030A0E
:10094000D8B49FD7010AD8B49ED70F0AD8B49DD780
:10095000010AD8B49CD7030AD8B49BD7010AD8B4EB
:100960009AD7070AD8B499D7010AD8B498D7030AF6
:10097000D8B497D7010AD8B496D71F0AD8B495D758
:10098000010AD8B494D7030AD8B493D7010AD8B4CB
:1009900092D7070AD8B491D7010AD8B490D7030ADE
:1009A000D8B48FD7010AD8B48ED70F0AD8B48DD750
:1009B000010AD8B48CD7030AD8B48BD73B0AD8B471
:1009C00022D7030AD8B421D7010AD8B420D7070AFE
:1009D000D8B41FD7010AD8B41ED7030AD8B41DD77C
:1009E000010AD8B41CD70F0AD8B41BD7010AD8B44F
:1009F0001AD7030AD8B419D7010AD8B418D7070AE6
:100A0000D8B417D7010AD8B416D7030AD8B415D763
:100A1000010AD8B414D71F0AD8B413D7010AD8B41E
:100A200012D7030AD8B411D7010AD8B410D7070ACD
:100A3000D8B40FD7010AD8B40ED7030AD8B40DD74B
:100A4000010AD8B40CD70F0AD8B40BD7010AD8B40E
:100A50000AD7030AD8B409D7000E1200050E000108
:100A6000F76FC7D0020120EE02F00351D9260451DE
:100A7000DA22DECFCFF0DDCFD0F005C2D1F00F0EFD
:100A80000001D26FE0ECA1F0020120EE04F003516E
:100A9000D9260451DA22DECFCFF0DDCFD0F005C267
:100AA000D1F0000E0001D26FE0ECA1F0B0D003C293
:100AB000F3F004C2F4F005C2F5F0030E0001F66F86
:100AC00012EC9DF00001F76F0001F751D8A412005D
:100AD000020120EE02F00351D9260451DA22DECFC2
:100AE000CFF0DDCFD0F005C2D1F0000E0001D26F03
:100AF000E0ECA1F0020120EE04F00351D9260451EC
:100B0000DA22DECFCFF0DDCFD0F005C2D1F0000E7B
:100B10000001D26FE0ECA1F07AD003C2F3F004C27E
:100B2000F4F005C2F5F0030E0001F66F12EC9DF033
:100B30000001F76F0001F751D8A41200020120EE66
:100B400002F00351D9260451DA22DECFCFF0DDCFF7
:100B5000D0F005C2D1F00F0E0001D26FE0ECA1F091
:100B6000020120EE04F00351D9260451DA22DECF2F
:100B7000CFF0DDCFD0F005C2D1F00F0E0001D26F63
:100B8000E0ECA1F044D003C2F3F004C2F4F005C2DB
:100B9000F5F0030E0001F66F12EC9DF00001F76F07
:100BA0000001F751D8A41200020120EE02F0035117
:100BB000D9260451DA22DECFCFF0DDCFD0F005C246
:100BC000D1F0000E0001D26FE0ECA1F0020120EEA6
:100BD00004F00351D9260451DA22DECFCFF0DDCF65
:100BE000D0F005C2D1F0000E0001D26FE0ECA1F010
:100BF0000ED002010651000AD8B434D7010AD8B485
:100C000056D7030AD8B489D7010AD8B4BCD7080E7E
:100C1000020103250001D36F000E0201042100012F
:100C2000D46F02010551040DF3CFD5F006C2D6F002
:100C300015EC9FF0080E020103250001D36F000E92
:100C4000020104210001D46F02010551040DF328B3
:100C50000001D56F06C2D6F015EC9FF0080E020118
:100C600003250001D36F000E020104210001D46F9F
:100C700002010551040DF350020F0001D56F06C2A9
:100C8000D6F015EC9FF0080E020103250001D36F8A
:100C9000000E020104210001D46F02010551040D70
:100CA000F350030F0001D56F06C2D6F015EC9FF08C
:100CB0001200050E0001F86F7AD0020120EE02F05A
:100CC0000651D9260751DA22DECF09F2DDCF0AF22A
:100CD00009C2D9FF0AC2DAFFFF0E67D006C203F2CB
:100CE00007C204F2010E0201056FAAEC9EF000019A
:100CF000F86F0001F851D8A41200020120EE02F0B2
:100D00000651D9260751DA22DECF09F2DDCF0AF2E9
:100D100009C2D9FF0AC2DAFF000EDF6E020120EE1F
:100D200004F036D006C203F207C204F2020E02013A
:100D3000056FAAEC9EF00001F86F0001F851D8A4ED
:100D40001200020120EE02F00651D9260751DA22E4
:100D5000DECF09F2DDCF0AF209C2D9FF0AC2DAFFFB
:100D6000FF0EDF6E020120EE04F0AAD706C203F2E6
:100D700007C204F2000E0201056FAAEC9EF000010A
:100D8000F86F0001F851D8A41200020120EE02F021
:100D90000651D9260751DA22DECF09F2DDCF0AF259
:100DA00009C2D9FF0AC2DAFF000EDF6E0ED00201BF
:100DB0000851000AD8B481D7010AD8B48FD7030AE2
:100DC000D8B4B0D7010AD8B4D1D7080E020106258D
:100DD0000001D36F000E020107210001D46F000E45
:100DE0000001D56F08C2D6F015EC9FF0080E020185
:100DF00006250001D36F000E020107210001D46F08
:100E0000010E0001D56F08C2D6F015EC9FF0080E58
:100E1000020106250001D36F000E02010721000127
:100E2000D46F020E0001D56F08C2D6F015EC9FF00A
:100E3000080E020106250001D36F000E02010721F2
:100E40000001D46F030E0001D56F08C2D6F015EC77
:100E50009FF0080E020106250001D36F000E02016B
:100E600007210001D46F040E0001D56F08C2D6F02F
:100E700015EC9FF0080E020106250001D36F000E4D
:100E8000020107210001D46F050E0001D56F08C2D1
:100E9000D6F015EC9FF0080E020106250001D36F75
:100EA000000E020107210001D46F060E0001D56F6C
:100EB00008C2D6F015EC9FF0080E020106250001CD
:100EC000D36F000E020107210001D46F070E00014D
:100ED000D56F08C2D6F015EC9FF012001AEC99F00D
:100EE000E8C0F2F0E9C0F3F0000E0001F76F000E69
:100EF000F66F000E0001F56F000EF46FFBD021EECF
:100F000093F001D80AD00500FA6EDE50FD6EDE5077
:100F1000FE6EDE50FF6EFA501200E806D8A430D004
:100F200021EE9DF001D80AD00500FA6EDE50FD6E6C
:100F3000DE50FE6EDE50FF6EFA5012000009D8A49B
:100F40001FD00001F7BF08D00001F75119E10A0EC8
:100F50000001F65DD8B014D021EE93F001D80AD08C
:100F60000500FA6EDE50FD6EDE50FE6EDE50FF6E46
:100F7000FA501200E806D8B4EFD70001F64BF72B71
:100F800021EE9DF001D80AD00500FA6EDE50FD6E0C
:100F9000DE50FE6EDE50FF6EFA501200E806D8A456
:100FA00030D021EE93F001D80AD00500FA6EDE5061
:100FB000FD6EDE50FE6EDE50FF6EFA50120000092C
:100FC000D8A41FD00001F7BF1CD00001F75104E1E5
:100FD0000001F605D8A015D021EE9DF001D80AD069
:100FE0000500FA6EDE50FD6EDE50FE6EDE50FF6EC6
:100FF000FA501200E806D8B4EFD70001F607D8A0DF
:10100000F70721EE89F001D80AD00500FA6EDE500C
:10101000FD6EDE50FE6EDE50FF6EFA501200E806E6
:10102000D8A416D021EE7FF001D80AD00500FA6EC0
:10103000DE50FD6EDE50FE6EDE50FF6EFA50120086
:101040000009D8A405D0000E0001F56F010EF46F61
:1010500021EE7FF001D80AD00500FA6EDE50FD6E59
:10106000DE50FE6EDE50FF6EFA501200E806D8A485
:1010700016D021EE89F001D80AD00500FA6EDE50B4
:10108000FD6EDE50FE6EDE50FF6EFA50120000095B
:10109000D8A405D0000E0001F56F000EF46F96EC99
:1010A000A1F0FF0E0001C56FE00EC46F3BECA3F092
:1010B000E90E0001D96FFF0E0001DA6FF6C0DBF018
:1010C000F7C0DCF064EC8BF0B30E0001D96FFF0EBB
:1010D0000001DA6FF4C0DBF0F5C0DCF064EC8BF0FB
:1010E00081EC88F01AEC99F0E8C0F2F0E9C0F3F076
:1010F00005EC9BF00001F2050001F311D8A41200E9
:10110000FED60001FF51D8B41200F7C1EAF0F8C1D1
:10111000EBF0F9C1ECF0FAC1EDF000017D51D8B46B
:1011200004D036C0E9F00F0E366E000E0001EF6FEE
:10113000DFD00001EF51020D000EF324D96E010E35
:10114000F420DA6EDECFFDF0DDCFFEF0000E000100
:10115000EE6F130E0001EE6501D0BED00001EF511D
:10116000140D160E0001E76F020E0001E86FF35038
:101170000001E727F4500001E8230001EE51010DC2
:10118000F3500001E725D96EF4500001E821DA6E32
:10119000DFAE9AD00001EF51140D160E0001E76F7B
:1011A000020E0001E86FF3500001E727F450000140
:1011B000E8230001EE51010DF3500001E725D96E3F
:1011C000F4500001E821DA6E7F0EDF160001EF51C6
:1011D000140D160E0001E76F020E0001E86FF350C8
:1011E0000001E727F4500001E8230001EE51010D52
:1011F000F3500001E725D96EF4500001E821DA6EC2
:10120000DF50D8B44AD074C0CDF075C0CEF0EAC07B
:10121000CFF0EBC0D0F0ECC0D1F0EDC0D2F0F9C00F
:10122000D3F0FAC0D4F0FBC0D5F0FCC0D6F057EC38
:101230009AF00001EF51140D160E0001E76F020E37
:101240000001E86FF3500001E727F4500001E823A4
:101250000001EE51010DF3500001E725D96EF45065
:101260000001E821DA6EDF5075EC92F0C9C0D6F0CB
:10127000CAC0D7F0EAC0D8F0EBC0D9F0ECC0DAF0C1
:10128000EDC0DBF0F9C0DCF0FAC0DDF0FBC0DEF051
:10129000FCC0DFF0B8EC96F017D0000E0001CE6F66
:1012A000000ECD6FEAC0CFF0EBC0D0F0ECC0D1F0B3
:1012B000EDC0D2F0F9C0D3F0FAC0D4F0FBC0D5F045
:1012C000FCC0D6F057EC9AF0060E0001EA27000E9B
:1012D000EB230001EE2B3DD7080E0001EC27000E9A
:1012E000ED23000E0001EB6F060EEA6F0001EF2BFD
:1012F0000001EF51365CD8B01CD700017D51D8B445
:101300001200000E00017D6FE9C036F01200A00E41
:101310000201076F010E0201086F000E02010A6F41
:10132000020E096FB00E02010B6F460E02010C6F28
:10133000010E02010D6F020E02010E6F450E020139
:101340000F6F010E0201106F820E0201116F420E2B
:101350000201126F010E0201136F0BEC92F0820E6C
:101360000201076F010E0201086F000E02010A6FF1
:10137000020E096FB00E02010B6F460E02010C6FD8
:10138000010E02010D6F620E02010E6F450E020189
:101390000F6F010E0201106F7E0E0201116F3A0EE7
:1013A0000201126F010E0201136F0BEC92F0780E26
:1013B0000201076F010E0201086F000E02010A6FA1
:1013C000020E096FB00E02010B6F460E02010C6F88
:1013D000010E02010D6F4A0E02010E6F450E020151
:1013E0000F6F010E0201106F700E0201116F3E0EA1
:1013F0000201126F010E0201136F0BEC92F08C0EC2
:101400000201076F010E0201086F000E02010A6F50
:10141000020E096FB00E02010B6F460E02010C6F37
:10142000010E02010D6F320E02010E6F450E020118
:101430000F6F010E0201106F360E0201116F410E87
:101440000201126F010E0201136F0BEC92F0960E67
:101450000201076F010E0201086F000E02010A6F00
:10146000020E096FB00E02010B6F460E02010C6FE7
:10147000010E02010D6F1A0E02010E6F450E0201E0
:101480000F6F010E0201106F040E0201116F410E69
:101490000201126F010E0201136F0BEC92F0A00E0D
:1014A0000001F16F860EF26F010EF36F000EF46F04
:1014B000000E0001F56F020E0001F66F00EC80F0E7
:1014C000AA0E0001D36F010E0001D46FCBEC9AF08D
:1014D000000E0201156F000E146F0201155113E189
:1014E000080E0201145DD8B01200700E020114251E
:1014F000D96E010E02011521DA6E000EDF6E0201B7
:10150000144B152BEAD71200EAC0D9FFEBC0DAFF63
:10151000DECFEFF0DDCFF0F0050E0001EE6FB5D0BD
:10152000000120EE02F0EA51D926EB51DA22DECF9B
:10153000C4F0DDCFC5F0ECC0C6F0010E0001C76FEE
:101540007EEC9CF0B0D0EFC0D3F0F0C0D4F0010E30
:101550000001D56FECC0D6F0A2EC99F00001EE6F5F
:101560000001EE51D8A41200000120EE02F0EA5171
:10157000D926EB51DA22DECFC4F0DDCFC5F0ECC0C6
:10158000C6F0000E0001C76F7EEC9CF0000120EE5B
:1015900004F0EA51D926EB51DA22DECFC4F0DDCFD8
:1015A000C5F0ECC0C6F0000E0001C76F7EEC9CF0E9
:1015B0007AD0EFC0D3F0F0C0D4F0020E0001D56FA6
:1015C000ECC0D6F0A2EC99F00001EE6F0001EE51F4
:1015D000D8A41200000120EE02F0EA51D926EB5106
:1015E000DA22DECFC4F0DDCFC5F0ECC0C6F0010ECC
:1015F0000001C76F7EEC9CF0000120EE04F0EA5180
:10160000D926EB51DA22DECFC4F0DDCFC5F0ECC035
:10161000C6F0010E0001C76F7EEC9CF044D0EFC015
:10162000D3F0F0C0D4F0000E0001D56FECC0D6F0BE
:10163000A2EC99F00001EE6F0001EE51D8A4120067
:10164000000120EE02F0EA51D926EB51DA22DECF7A
:10165000C4F0DDCFC5F0ECC0C6F0000E0001C76FCE
:101660007EEC9CF0000120EE04F0EA51D926EB510B
:10167000DA22DECFC4F0DDCFC5F0ECC0C6F0000E3C
:101680000001C76F7EEC9CF00ED00001ED51000A06
:10169000D8B446D7010AD8B456D7030AD8B489D7E4
:1016A000010AD8B4BCD7080E0001EA250001D36FA7
:1016B000000E0001EB210001D46FECC0D5F0EDC0AD
:1016C000D6F015EC9FF01200DB0E0001E06F000E6B
:1016D0000001E16FB1D0250E0001E419D8B405D0A6
:1016E0000001E45109ECA3F0A7D0000E0001DE6F69
:1016F00011D0E0C0D9FFE1C0DAFFDF500001E46F94
:10170000020E0001E027000EE1230001E45109EC84
:10171000A3F092D0D9C0F6FFDAC0F7FF0001D94B91
:10172000DA2B000EF86E0800F5CFE4F00001E4516A
:10173000000AD8B41200630AD8B4DBD7070AD8B4B9
:1017400003D00D0AD8A4E1D7E0C0D9FFE1C0DAFF89
:10175000DECFE2F0DDCFE3F0020E0001E027000E65
:10176000E1230001E3AF08D0030E0001DE13000106
:10177000E26DE31FD8B0E32B010E0001E46F050E0C
:101780000001E419D8B419D00001E451020D6D0E26
:10179000F324F66EFD0EF420F76EF86A000EF822C0
:1017A0000900F5500001E25D0900F5500001E35920
:1017B000D8A003D00001E42BE2D7DEC0DDF0030E99
:1017C0000001DD17D8B403D02D0E09ECA3F0E4C05E
:1017D000DFF02CD00001DF51020D6D0EF324F66E08
:1017E000FD0EF420F76EF86A000EF8220900F5CF1E
:1017F000C6F00A00F5CFC7F0E2C0C4F0E3C0C5F000
:10180000E0EC99F0C4C0CBF0C5C0CCF0000E0001F4
:10181000CE6F0A0ECD6FB0EC9CF00001CB51300FB3
:101820000001E46F0001E45109ECA3F00001DF07BF
:101830000001DF29D8A4CED7D9C0F6FFDAC0F7FF60
:101840000001D94BDA2B000EF86E0800F5CFE4F05A
:101850000001E451D8B412003ED702010D5112EC40
:1018600096F00BC2D9FF0CC2DAFF0001C4C0DEFF44
:101870000001C5C0DDFF02010D5165EC96F00201CB
:1018800020EE06F00B51D9260C51DA220001C4C01B
:10189000DEFF0001C5C0DDFF02010D5165EC96F0D1
:1018A000020120EE04F00B51D9260C51DA2200017E
:1018B000C4C0DEFF0001C5C0DDFF02010D51BFEC59
:1018C00095F0020120EE02F00B51D9260C51DA22DC
:1018D0000001C4C0DEFF0001C5C0DDFF020120EE33
:1018E00004F00B51D9260C51DA22DECF0EF2DDCFF7
:1018F0000FF20EC2D9FF0FC2DAFF000EDF6E020137
:1019000020EE02F00B51D9260C51DA22DECF0EF276
:10191000DDCF0FF20EC2D9FF0FC2DAFFFF0EDF6E6E
:101920000BC206F20CC207F2000E0201086F59EC5E
:1019300086F0000E0101FF6F070E0101FF6531D037
:101940004BD00BC2EAF00CC2EBF0FFC1ECF0030E7F
:101950000001ED6F84EC8AF03CD00BC2EAF00CC2BF
:10196000EBF0FFC1ECF0020E0001ED6F84EC8AF0A9
:1019700030D00BC2EAF00CC2EBF0FFC1ECF0010E6C
:101980000001ED6F84EC8AF024D00BC2EAF00CC2A7
:10199000EBF0FFC1ECF0000E0001ED6F84EC8AF07B
:1019A00018D00BC2D9FF0CC2DAFFDECFD0F0DDCFEA
:1019B000D1F0FFC1D2F0BAEC9FF0000AD8B4C1D781
:1019C000010AD8B4D6D7030AD8B4C7D7010AD8B405
:1019D000DCD70101FF2BB0D70BC2D3F00CC2D4F07F
:1019E000000E0001D56F0FEC82F012000001D76FDE
:1019F000A8D044EC98F0120038EC9EF01200D5EC20
:101A000098F012003FEC93F012004CEC9CF01200A6
:101A10005BECA2F01200D7C0D4F07F0E0001D41707
:101A20003650140D160E0001D56F020E0001D66F50
:101A3000F3500001D527F4500001D6233750010D93
:101A4000F3500001D525D96EF4500001D621DA6E8D
:101A5000DF507F0B0001D419D8B42BD0010E000148
:101A6000FF6F3650140D160E0001D46F020E0001E8
:101A7000D56FF3500001D427F4500001D52337501F
:101A8000010DF3500001D425D96EF4500001D52189
:101A9000DA6E0001D7518009DF6E3650020D000E5C
:101AA000F324D96E010EF420DA6EFDC0DEFFFEC015
:101AB000DDFF4CEC9CF00009D8B41200D7C0D4F084
:101AC0007F0E0001D4173650140D160E0001D56F8D
:101AD000020E0001D66FF3500001D527F45000012B
:101AE000D6233750010DF3500001D525D96EF4509F
:101AF0000001D621DA6EDF507F0B0001D419D8B473
:101B00001200010E0001FF6F3650140D160E000179
:101B1000D46F020E0001D56FF3500001D427F450AA
:101B20000001D5233750010DF3500001D425D96EA3
:101B3000F4500001D521DA6E0001D7518009DF6E23
:101B400012000001D751070AD8B45FD70F0AD8B4E2
:101B500053D7010AD8B456D7030AD8B44AD7060ACD
:101B6000D8B44DD7010AD8B444D72D0AD8B453D726
:101B7000030AD8B44DD74FD7010E436E000E256E21
:101B8000000E266E000E276EE80E02010B6F010E8E
:101B900002010C6F000E02010D6F2DEC8CF0DE0EB9
:101BA00002010B6F010E02010C6F010E02010D6F9D
:101BB0002DEC8CF0920E02010B6F000E02010C6FE7
:101BC000020E02010D6F2DEC8CF0880E02010B6FDE
:101BD000000E02010C6F030E02010D6F2DEC8CF054
:101BE0007E0E02010B6F000E02010C6F040E02014B
:101BF0000D6F2DEC8CF09C0E02010B6F000E02019C
:101C00000C6F050E02010D6F2DEC8CF0D40E02014D
:101C10000B6F010E02010C6F060E02010D6F2DEC11
:101C20008CF09C0E0001EA6F000E0001EB6F050EB8
:101C30000001EC6F000E0001ED6F84EC8AF0DE0E07
:101C40000201036F010E0201046F000E0201056F15
:101C5000000E0201066F2EEC85F09C0E0001EA6F6B
:101C6000000E0001EB6F060E0001EC6F030E000189
:101C7000ED6F84EC8AF0D40E0201066F010E0201B2
:101C8000076F030E0201086F59EC86F0D40E0001B5
:101C9000D36F010E0001D46F040E0001D56F000E4A
:101CA0000001D66FDDEC92F09C0E0001D36F000EA8
:101CB0000001D46F060E0001D56F010E0001D66F32
:101CC000DDEC92F0000EE1EC9CF0010EE1EC9CF0FA
:101CD000000E9E6E000EA16E000EA46E9B8E9B8C5D
:101CE000000E0001C56F640EC46FE2EC9BF0D08E55
:101CF00012003EEC9BF0000E0201036F000E026F1B
:101D00000201035106E1590E0201025DD8B08BD0E9
:101D100001D089D0D89002010235F66E0201033558
:101D2000F76E9B0EF626FC0EF722F86A000EF822DC
:101D30000900800EF5180900F510D8A422D0020180
:101D400003511FE1580E0201025DD8B01AD0020102
:101D5000024B032BD89002010235F66E02010335C7
:101D6000F76E9B0EF626FC0EF722F86A000EF8229C
:101D70000900F5CFC4F00A00F5CFC5F0E2EC9BF006
:101D80004BD0D89002010235F66E02010335F76E92
:101D90009B0EF626FC0EF722F86A000EF8220900C8
:101DA000000EF55E0900010EF55AD8A020D0000EF5
:101DB0000001C76FD89002010235F66E02010335AB
:101DC000F76E9B0EF626FC0EF722F86A000EF8223C
:101DD0000900F5CF00F20900F5CF01F201C200F2CF
:101DE0000201016B02010051BEECA1F015D0010E01
:101DF0000001C76FD89002010235F66E020103356B
:101E0000F76E9B0EF626FC0EF722F86A000EF822FB
:101E10000800F550BEECA1F00201024B032B0201B9
:101E2000035101E170D7000E0001C56F640EC46F4D
:101E3000E2EC9BF0000E0001C76F290EBEECA1F092
:101E4000010EF8EC97F0000E0001C56F640EC46F30
:101E5000E2EC9BF0000E0001CE6F000ECD6F6BEC3C
:101E60009DF01200000120EE07F0DF51D926E0516D
:101E7000DA2201D80AD00500FA6EDE50FD6EDE507F
:101E8000FE6EDE50FF6EFA5012000001E76FDFC0F9
:101E9000D9FFE0C0DAFF0001E751DE18D8A421D055
:101EA000000120EE01F0DF51D926E051DA220001D5
:101EB000E151DE5CD8B00AD0000120EE01F0DF5124
:101EC000D926E051DA22000EDF6E1200000120EE6A
:101ED00001F0DF51D926E051DA220001E151DF5E45
:101EE0001200000120EE01F0DF51D926E051DA2284
:101EF000DF500001E26FE36B0001E1510001E227D6
:101F0000000EE323000120EE01F0DF51D926E0515D
:101F1000DA22DF500001E46FE56B0001E2510001BD
:101F2000E45D0001E551800A0001E66F0001E35124
:101F3000800A0001E659D8B01200000120EE01F03D
:101F4000DF51D926E051DA220001E151DF260001FC
:101F500020EE02F0DF51D926E051DA22000110EE26
:101F600001F0DF51E126E051E222E7500001E46F89
:101F7000E56BDE500001E45DDE500001E559D8A0BC
:101F80001200DFC0D9FFE0C0DAFFE7C0DFFF0001C9
:101F900020EE01F0DF51D926E051DA22000EDF6E8B
:101FA000000120EE04F0DF51D926E051DA2201D8F9
:101FB00012000500FA6EDE50FD6EDE50FE6EDE5041
:101FC000FF6EFA500001E7511200000E0001DA6FB7
:101FD0006C0EDB6FDC0EDC6F020EDD6F0001D89043
:101FE000D137D237D337D437020E0001D56FD8900E
:101FF0000001DD33DC33DB33DA330001D52FF7D7D3
:10200000DAC0C4F0DBC0C5F0DCC0C6F0DDC0C7F08C
:10201000D1C0C8F0D2C0C9F0D3C0CAF0D4C0CBF090
:10202000FFEC93F0C4C0DEF0C5C0DFF0C6C0E0F046
:10203000C7C0E1F00ED0000E0001D66F000ED76FC2
:10204000000ED86F000ED96F2F2A020E2F6401D018
:1020500025D0DEC0C4F0DFC0C5F0E0C0C6F0E1C0EE
:10206000C7F02F50010D840EF324F66EFD0EF42000
:10207000F76EF86A000EF8220800F5500001C86FEC
:10208000C96BCA6BCB6BFFEC93F00001C751000129
:10209000C611D1E10001C505D8B0CDD7CA502F185F
:1020A000FC0B2F18CA6ECA8444ECA3F02F50010D0C
:1020B000840EF324F66EFD0EF420F76EF86A000E1F
:1020C000F8220800F5CF2EF0FF0E0001DE250001FA
:1020D000606FFF0E0001DF210001616FFF0E000144
:1020E000E0210001626FFF0E0001E1210001636F3A
:1020F00060C0C4F061C0C5F062C0C6F063C0C7F084
:102100002E500001C86FC96BCA6BCB6BFFEC93F00C
:102110000001C4512F6E2FC0CBFF120049B220EF37
:1021200091F020EE04F02A50D9262B50DA22DF500D
:102130005AEC9FF00009D8B47AD02AC0D9FF2BC03E
:10214000DAFFDE50DE10D8B46DD02AC0D9FF2BC024
:10215000DAFF010EDBBE26D0010EDB5003E1DE0408
:10216000D8A020D02AC0D9FF2BC0DAFFDE2804E196
:102170007F0EDE18D8B407D02AC0D9FF2BC0DAFFF3
:10218000DE06000EDD5A7E0E0001D36F000E000148
:10219000D46F000E0001D56F010E0001D66FDDEC8B
:1021A00092F01FD02AC0D9FF2BC0DAFFDE0404E171
:1021B000800EDE18D8B407D02AC0D9FF2BC0DAFFB2
:1021C000DE2A000EDD227E0E0001D36F000E00011C
:1021D000D46F000E0001D56F000E0001D66FDDEC4C
:1021E00092F07E0E0001D36F000E0001D46F010E3D
:1021F0000001D56F010E0001D66FDDEC92F07E0E6E
:102200000001D36F000E0001D46F010E0001D56FE5
:10221000000E0001D66FDDEC92F0F5ECA2F025EC9B
:10222000A3F01200F5ECA2F04FECA3F012006BC08B
:10223000C4F06CC0C5F06DC0C6F017ECA3F012007E
:1022400020EE04F02A50D9262B50DA22DF504DEC34
:10225000A0F00009D8B46AD02AC0D9FF2BC0DAFF99
:10226000DE50DE10D8B45DD02AC0D9FF2BC0DAFF13
:10227000010EDBBE22D0010EDB5003E1DE04D8A04C
:102280001CD02AC0D9FF2BC0DAFFDE2804E17F0E64
:10229000DE18D8B407D02AC0D9FF2BC0DAFFDE067B
:1022A000000EDD5A7E0E106E000E116E000E126EC4
:1022B000010E136E6AEC95F01BD02AC0D9FF2BC01B
:1022C000DAFFDE0404E1800EDE18D8B407D02AC09D
:1022D000D9FF2BC0DAFFDE2A000EDD227E0E106E43
:1022E000000E116E000E126E000E136E6AEC95F069
:1022F0007E0E106E000E116E010E126E010E136E28
:102300006AEC95F07E0E106E000E116E010E126ECC
:10231000000E136E6AEC95F055ECA3F02BECA3F0D5
:10232000120055ECA3F052ECA3F012006BC001F0C8
:102330006CC002F06DC003F01EECA3F01200D0C020
:10234000D8F0D1C0D9F0000E0001D76F000ED66FC3
:10235000D2C0D4F0D3C0D5F00001D8510001D911BA
:10236000D8A434D0D4C0D9FFD5C0DAFF300EDF6E88
:10237000000E0001D76F010ED66F40D0D8C0CBF051
:10238000D9C0CCF0000E0001CE6F0A0ECD6FB0ECBC
:102390009CF00001CB51300FD4C0D9FFD5C0DAFF7B
:1023A000DF6ED8C0C4F0D9C0C5F0000E0001C76F01
:1023B0000A0EC66FE0EC99F0C4C0D8F0C5C0D9F0E1
:1023C0000001D64BD72B0001D44BD52B0001D8519F
:1023D0000001D911D8B408D00001D75105E1060E8B
:1023E0000001D65DD8A0CAD7D2C0C4F0D3C0C5F012
:1023F000D6C0C6F0D7C0C7F076EC9BF00001D6512E
:102400000001D225D96E0001D7510001D321DA6E27
:10241000000EDF6E12000201075102010811D8B44C
:10242000120002010B5102010C1102010D11D8B46E
:10243000120002010E5102010F1102011011D8B455
:102440001200020111510201121102011311D8B43C
:1024500012000201095102010A11D8A405D0000E90
:1024600002010A6F010E096F07C2D9FF08C2DAFF25
:10247000000EDF6E020120EE01F00751D92608514F
:10248000DA22000EDF6E020120EE02F00751D9269B
:102490000851DA2209C2DEFF0AC2DDFF020120EE86
:1024A00004F00751D9260851DA2211C2DEFF12C208
:1024B000DEFF13C2DEFF020120EE07F00751D9262E
:1024C0000851DA220EC2DEFF0FC2DEFF10C2DEFFAD
:1024D00001D812000500FA6E02010B51FD6E0C517D
:1024E000FE6E0D51FF6EFA5012000001CF6F200EEC
:1024F0000001CF5F0001CF51050DF3CFCDF0F4CF38
:10250000CEF0870E0001CD250001D06FFD0E000139
:10251000CE210001D16F000E0001D46F040E000126
:10252000D46501D043D0000E0001D56F060E000126
:10253000D56501D035D0D0C0C4F0D1C0C5F0D5C06C
:10254000C6F068ECA0F00009D8A405D074C0D2F0A1
:1025500075C0D3F004D0FDC0D2F0FEC0D3F00001AE
:10256000D5510A0D2A0E0001CB6F010E0001CC6F70
:10257000F3500001CB27F4500001CC230001D451CB
:10258000020DF3500001CB25D96EF4500001CC218F
:10259000DA6ED2C0DEFFD3C0DDFF0001D52BC6D777
:1025A0000001D04BD12B0001D42BB8D72A0E00014B
:1025B000C96F010E0001CA6F1200080E0001D32579
:1025C0000001D06F000E0001D4210001D16FD5C0F1
:1025D000D2F0BAEC9FF00001D76F42D0010E00019B
:1025E000D617000120EE02F0D351D926D451DA22B9
:1025F000DECFC4F0DDCFC5F0D5C0C6F0D6C0C7F081
:102600007EEC9CF01200010E0001D617010E0001B5
:10261000D61B000120EE02F0D351D926D451DA2284
:10262000DECFC4F0DDCFC5F0D5C0C6F0D6C0C7F050
:102630007EEC9CF01200010E0001D617000120EE86
:1026400004F0D351D926D451DA22DECFC4F0DDCF45
:10265000C5F0D5C0C6F0D6C0C7F07EEC9CF0120025
:102660000001D751000AD8B41200010AD8B4B6D775
:10267000030AD8B4C8D7010AD8A41200DCD7000EC8
:102680000001D26FFA0E3F240001C46FFF0E4020FC
:102690000001C56F000E0001C76F060EC66FA0ECEB
:1026A00093F00001C4510001D36FD3C0C4F0000106
:1026B000C56B000E0001C76F040EC66FA0EC93F04F
:1026C0000001C4510001D16F000E0001D26F06D08D
:1026D000D9EC9FF04CEC9CF00001D22B0001D151C1
:1026E000040DF31EF41EF34AF42A0001D351000135
:1026F000CC6FCD6BF3500001CC27F4500001CD23FB
:102700000001CC1FCD1FCC4BCD2B040E0001CC27DC
:10271000000ECD230001D2510001CE6FCF6B00011E
:10272000CC510001CE5D0001CF51800A0001D06F75
:102730000001CD51800A0001D059D8B01200C8D78D
:10274000000E0001C96F0001C7AF08D00001C66DBF
:10275000C71FD8B0C72B010E0001C96F0001C5AF5C
:1027600008D00001C46DC51FD8B0C52B010E0001F3
:10277000C91B000E0001CB6F000ECA6F0001C651CD
:102780000001C711D8B42CD0010E0001C86F06D0CB
:102790000001D890C637C7370001C82B0001C7AF6A
:1027A000F7D70001D890CA37CB370001C6510001D6
:1027B000C45D0001C7510001C559D8A00AD000016D
:1027C000C6510001C45F0001C7510001C55B000193
:1027D000CA810001D890C733C6330001C82FE1D7A2
:1027E0000001C9510001D8B405D00001CA6DCB1F4A
:1027F000D8B0CB2BCAC0C4F0CBC0C5F01200000EBD
:102800000001CC6F000ECD6F000ECE6F000ECF6FAB
:102810000001C8510001C9110001CA110001CB110A
:10282000D8B442D0010E0001D06F08D00001D8907A
:10283000C837C937CA37CB370001D02B0001CBAF1F
:10284000F5D70001D890CC37CD37CE37CF37000140
:10285000C8510001C45D0001C9510001C559000102
:10286000CA510001C6590001CB510001C759D8A077
:1028700012D00001C8510001C45F0001C95100011C
:10288000C55B0001CA510001C65B0001CB510001CC
:10289000C75B0001CC810001D890CB33CA33C93368
:1028A000C8330001D02FCDD7CCC0C4F0CDC0C5F007
:1028B000CEC0C6F0CFC0C7F01200000E0001C96F35
:1028C000000EC86F38D0700E0001C825D96E010EF9
:1028D0000001C921DA6EC5C0E1FFC6C0E2FFE750C2
:1028E000ECEC83F0DF6E700E0001C825D96E010E8E
:1028F0000001C921DA6E800EDE18D8A40ED00001C6
:10290000C807D8A0C907700E0001C825D96E010EEE
:102910000001C921DA6E000EDB8E0001C54BC62B0B
:102920000001C84BC92B0001C9511AE1060E000174
:10293000C85DD8B015D0C5C0D9FFC6C0DAFFDF501A
:10294000D8B40ED0C0D7700E0001C825D96E010EC4
:102950000001C921DA6E000EDF6E0001C84BC92BE1
:102960000001C95106E1060E0001C85DD8B0120091
:10297000EAD712000001C851010D770EF324F66E5C
:10298000FD0EF420F76EF86A000EF8220800F5CF6D
:10299000CEF0000E0001CD6F06D00001C65100013F
:1029A000C75F0001CD2B0001C6510001C75DD8B043
:1029B000F4D70001C8510001C703F350C76F0001ED
:1029C000CD510001C7270001CE510001C917C7C072
:1029D000CAF0CEC0CBF00001CA2B03D00001D890C2
:1029E000CB370001CA2FFAD70001CB51FF0A0001F3
:1029F000CC6FC4C0D9FFC5C0DAFF0001CC51DF16CF
:102A0000C7C0CAF0C9C0CBF00001CA2B03D0000177
:102A1000D890CB370001CA2FFAD7C4C0D9FFC5C0A0
:102A2000DAFF0001CB51DF1212000001CC6F020E61
:102A30000001C927020E0001CB27030E0001CC279D
:102A4000030E0001CA27000E0001C76F2A0EBEEC5C
:102A5000A1F0010E0001C76F000EBEECA1F0010E47
:102A60000001C76F0001CC51BEECA1F0010E0001C6
:102A7000C76F000EBEECA1F0010E0001C76F000190
:102A8000CA51BEECA1F0000E0001C76F2B0EBEECC8
:102A9000A1F0010E0001C76F000EBEECA1F0010E07
:102AA0000001C76F0001C951BEECA1F0010E000189
:102AB000C76F000EBEECA1F0010E0001C76F000150
:102AC000CB51BEECA1F0000E0001C76F2C0EBEEC86
:102AD000A1F01200080E10240D6E000E11200E6ED3
:102AE00012C00FF0FBECA0F0146E3BD0010E1316D9
:102AF00020EE02F01050D9261150DA22DECF01F07C
:102B0000DDCF02F012C003F013C004F05FEC9EF0C2
:102B10001200010E1316010E131A20EE02F01050CF
:102B2000D9261150DA22DECF01F0DDCF02F012C03B
:102B300003F013C004F05FEC9EF01200010E1316B8
:102B400020EE04F01050D9261150DA22DECF01F029
:102B5000DDCF02F012C003F013C004F05FEC9EF072
:102B600012001450000AD8B41200010AD8B4BED71B
:102B7000030AD8B4CED7010AD8A41200DFD70001C7
:102B8000C66F38D0920E0001C46F0F0E0001C56FE2
:102B90001200930E0001C46F0F0E0001C56F1200EA
:102BA000940E0001C46F0F0E0001C56F1200950E48
:102BB0000001C46F0F0E0001C56F1200960E0001D8
:102BC000C46F0F0E0001C56F1200970E0001C46F95
:102BD0000F0E0001C56F1200980E0001C46F0F0E9A
:102BE0000001C56F1200000E0001C46F000E00014D
:102BF000C56F12000001C651000AD8B4C3D7010A3C
:102C0000D8B4C7D7030AD8B4CBD7010AD8B4CFD722
:102C1000070AD8B4D3D7010AD8B4D7D7030AD8B48F
:102C2000DBD7E1D70001C66F38D0730E0001C46F47
:102C3000FF0E0001C56F1200710E0001C46FFF0E80
:102C40000001C56F12006F0E0001C46FFF0E00017E
:102C5000C56F12006D0E0001C46FFF0E0001C56F3D
:102C600012006B0E0001C46FFF0E0001C56F120051
:102C7000690E0001C46FFF0E0001C56F1200670EE0
:102C80000001C46FFF0E0001C56F1200000E0001AD
:102C9000C46F000E0001C56F12000001C651000A8A
:102CA000D8B4C3D7010AD8B4C7D7030AD8B4CBD78E
:102CB000010AD8B4CFD7070AD8B4D3D7010AD8B4F9
:102CC000D7D7030AD8B4DBD7E1D70001C66F38D015
:102CD000800E0001C46F0F0E0001C56F1200810E3F
:102CE0000001C46F0F0E0001C56F1200820E0001BB
:102CF000C46F0F0E0001C56F1200830E0001C46F78
:102D00000F0E0001C56F1200840E0001C46F0F0E7C
:102D10000001C56F1200850E0001C46F0F0E000187
:102D2000C56F1200860E0001C46F0F0E0001C56F43
:102D30001200000E0001C46F000E0001C56F1200EA
:102D40000001C651000AD8B4C3D7010AD8B4C7D706
:102D5000030AD8B4CBD7010AD8B4CFD7070AD8B45E
:102D6000D3D7010AD8B4D7D7030AD8B4DBD7E1D771
:102D7000000E0001E66F0001D8510001DC250001C2
:102D8000E46F0001DA510001DE250001E56FDEC0CD
:102D9000C4F0DFC0C5F0DCC0C6F0DDC0C7F032EC67
:102DA000A0F0C4C0E2F0C5C0E3F0DAC0C9F0000191
:102DB000E4050001CA6F0001E5050001CB6F0001C9
:102DC000D85115EC95F0000E0001E66F13D000010C
:102DD000E651020DF3500001D625D96EF4500001E2
:102DE000D721DA6EDECFC9F0DDCFCAF001ECA2F058
:102DF0000001E62B0001E6510001E06FE16B0001EC
:102E0000E2510001E05D0001E3510001E159D8B059
:102E10001200DDD7800EF66E460EF76E010EF86ECC
:102E200001EEF7F010EE08F00900F5CFEEFFE550E7
:102E3000E150FAE1900EF66E460EF76E010EF86E56
:102E400000EEF9F010EE07F00900F5CFEEFFE550C7
:102E5000E150FAE1620EF66E460EF76E010EF86E64
:102E600000EE3FF010EE0AF00900F5CFEEFFE5505E
:102E7000E150FAE102EE16F011EE2CF0EE6AE550A8
:102E8000E150FCE1E250FAE101EE00F0F70EEE6AEB
:102E9000E806FDE100EE60F0640EEE6AE806FDE192
:102EA00000EE25F01A0EEE6AE806FDE1499049921F
:102EB000000182EFA1F0F80E0001C56F000EC46F93
:102EC0003BECA3F01AEC99F0E8C0F0F0E9C0F1F0A7
:102ED000A30E0001D96FFF0E0001DA6F64EC8BF0D6
:102EE00024D0DD0E0001D96FFF0E0001DA6F64EC13
:102EF0008BF01200F40E0001D96FFF0E0001DA6FA3
:102F000064EC8BF01200C20E0001D96FFF0E0001BD
:102F1000DA6F64EC8BF01200D00E0001D96FFF0E57
:102F20000001DA6F64EC8BF01200F0C0EEF0F1C03B
:102F3000EFF00001EF51000AD8A4EED70001EE51E6
:102F4000010AD8B4E0D7030AD8B4D4D7010AD8B458
:102F5000C8D7E2D7C4C0F6FFC5C0F7FF000EF86EB1
:102F60000F0EF76403D00800F55005D0F6CFE9FF47
:102F7000F7CFEAFFEF500001CC6F0001C851010DFF
:102F8000770EF324F66EFD0EF420F76EF86A000E4D
:102F9000F8220800F5CFCAF0000E0001CB6F06D072
:102FA0000001C6510001C75F0001CB2B0001C651D3
:102FB0000001C75DD8B0F4D70001C8510001C703B4
:102FC000F350C76F0001CB510001C7270001C7298B
:102FD0000001C96F03D00001D890CC330001C92F84
:102FE000FAD70001CA510001CC170001CC511200E0
:102FF0000001C96F000E0001CA6F000E0001C76F0B
:10300000360EBEECA1F00001C951030B0001CA6FDE
:103010002CD0010E0001C76FC80EBEECA1F0800ECF
:10302000486E800E476E1200010E0001C76FA80E99
:10303000BEECA1F0800E486E800E476E1200010EAD
:103040000001C76F080EBEECA1F0800E486E800E26
:10305000476E1200010E0001C76F680EBEECA1F0B2
:10306000800E486E800E476E12000001CA51000AA1
:10307000D8B4CFD7010AD8B4D7D7030AD8B4DFD78A
:10308000010AD8A41200E6D739D03650140D160E16
:103090000001C46F020E0001C56FF3500001C42788
:1030A000F4500001C5233750010DF3500001C42531
:1030B000D96EF4500001C521DA6EDF50D8B41DD0AE
:1030C000010E0001FF6F3650140D160E0001C46F83
:1030D000020E0001C56FF3500001C427F450000137
:1030E000C5233750010DF3500001C425D96EF450AB
:1030F0000001C521DA6E800EDF6E372A130E3764A9
:10310000C4D7000E376E362A080E4126000E422222
:10311000000E406E060E3F6E12000001CA6F800E58
:10312000F66EFD0EF76E000EF86E0900F5CFC6F0D4
:103130000900F5CFC7F00900F5CFC8F00A00F5CFB8
:10314000C9F0110E0001CB6F030E0001CA17000178
:10315000CA51010DC60EF324D96E000EF420DA6EAA
:10316000DF500001C46FCBC0C5F00001C42B03D0F9
:103170000001D890C5370001C42FFAD70001C5510E
:103180000001CB6F0001CB390F0B0001CB6F0001A9
:10319000CB510F0B0001CB6F010176510001CB1910
:1031A000F00BCB190101766F1200000E376E000E86
:1031B000366E000E0001C76F0E0E0001C76501D00C
:1031C0002DD0000E0001C66F130E0001C66501D0A0
:1031D00022D0010E0001FF6F0001C751140D160E21
:1031E0000001C46F020E0001C56FF3500001C42737
:1031F000F4500001C5230001C651010DF350000138
:10320000C425D96EF4500001C521DA6E800EDF6E40
:103210000001C62BD9D70001C72BCED7010E000164
:103220007D6F000E406E060E3F6E000E426E060E63
:10323000416E120005EC9BF021EEA7F001D80AD0F8
:103240000500FA6EDE50FD6EDE50FE6EDE50FF6E43
:10325000FA5012000001EA6F0001EA510001EC6F20
:10326000ED6B18D0000E0001E96F030EE86F12003D
:10327000000E0001E96F020EE86F1200000E00015F
:10328000E96F010EE86F1200000E0001E96F000EF9
:10329000E86F1200ECC0EAF0EDC0EBF00001EB517A
:1032A000000AD8A4F1D70001EA51020AD8B4DAD74B
:1032B000060AD8B4DDD70C0AD8B4E0D7E5D7000E9B
:1032C000376E000E366E000E0001C66F130E000141
:1032D000C66501D01200000E0001C76F0E0E00017E
:1032E000C76501D02CD00001C751140D160E000186
:1032F000C46F020E0001C56FF3500001C427F450E3
:103300000001C5230001C651010DF3500001C42581
:10331000D96EF4500001C521DA6E000EDF6E000197
:10332000C751020D000EF324D96E010EF420DA6E9F
:10333000FF0EDE6EFF0EDD6E0001C72BCFD7000142
:10334000C62BC4D75D0EF66EFD0EF76E000EF86E3E
:1033500020EED9F00F0E0900F5CFDEFFE806FBE204
:10336000D3C0D0F0D4C0D1F0D6C0D2F0BAEC9FF028
:103370000001E96F040E0001D56120D0040E0001A8
:10338000E9611CD00001D551040DD90E0001D76FA1
:10339000000E0001D86FF3500001D727F450000150
:1033A000D8230001E951010DF3500001D725D96E52
:1033B000F4500001D821DA6EDF501200050E120021
:1033C000000E0001CA6F000EC96F0001C651000156
:1033D000C711D8B42CD0010E0001C86F06D000016F
:1033E000D890C637C7370001C82B0001C7AFF7D741
:1033F0000001D890C937CA370001C6510001C45D29
:103400000001C7510001C559D8A00AD00001C6511A
:103410000001C45F0001C7510001C55B0001C98103
:103420000001D890C733C6330001C82FE1D7C9C007
:10343000C4F0CAC0C5F0120001C0F6FF02C0F7FF19
:10344000000EF86E0F0EF76403D00800F55005D09B
:10345000F6CFE9FFF7CFEAFFEF50096E0550010DF7
:10346000770EF324F66EFD0EF420F76EF86A000E68
:10347000F8220800F5CF07F0000E086E03D00350C5
:10348000045E082A0350045CD8B0F9D70550040242
:10349000F350046E085004260428066E02D0D8901B
:1034A0000932062EFCD70750091609501200000EEB
:1034B0000001D96F000E0001DA6FD1C0C9F0000120
:1034C000CF510001D3250001D76F0001D7050001BE
:1034D000CA6F0001D1510001D5250001D86F00014C
:1034E000D8050001CB6F0001CF5115EC95F0D5C088
:1034F000DAF00001DA510001D8B41200D3C0D9F0DB
:103500000001D9510001D8B409D0CDC0C9F0CEC056
:10351000CAF001ECA2F00001D907F2D70001DA07E6
:10352000E8D7000120EE06F0D351D926D451DA2293
:10353000DECFC4F0DDCFC5F0050E0001C66F000E72
:103540000001C76F7EEC9CF0000120EE06F0D35125
:10355000D926D451DA22DECFCFF0DDCFD0F0000E65
:103560000001D16F000E0001D26FE0ECA1F000016C
:1035700020EE06F0D351D926D451DA22DECFC4F0A2
:10358000DDCFC5F0050E0001C66F010E0001C76F4B
:103590007EEC9CF01200000120EE06F0D351D926FB
:1035A000D451DA22DECFC4F0DDCFC5F0050E000124
:1035B000C66F000E0001C76F7EEC9CF0000120EE8C
:1035C00006F0D351D926D451DA22DECFCFF0DDCFA9
:1035D000D0F0000E0001D16F020E0001D26FE0ECBE
:1035E000A1F0000120EE06F0D351D926D451DA2201
:1035F000DECFC4F0DDCFC5F0050E0001C66F010EB1
:103600000001C76F7EEC9CF012009668A00E0001CE
:10361000DF6F010E0001E06F010E0001E16F32EC7F
:103620008FF0820E0001DF6F010E0001E06F010ECE
:103630000001E16F32EC8FF0780E0001DF6F010EB8
:103640000001E06F010E0001E16F32EC8FF08C0E93
:103650000001DF6F010E0001E06F010E0001E16F5C
:1036600032EC8FF0960E0001DF6F010E0001E06F6B
:10367000010E0001E16F32EC8FF012009C0E000190
:10368000EA6F000E0001EB6F070E0001EC6F030EF6
:103690000001ED6F84EC8AF09C0E0001EA6F000ED1
:1036A0000001EB6F060E0001EC6F030E0001ED6FE1
:1036B00084EC8AF010EC9EF0C00E0001F16FC60E93
:1036C000F26F2D0EF36F000EF46F010E0001F56F17
:1036D000010E0001F66F00EC80F0B50E0001D36F13
:1036E000010E0001D46F91EC9AF012000001C65156
:1036F0000001C4250001C96F0001C7510001C521A7
:103700000001CA6F1AD0C4C0D9FFC5C0DAFFDF50AC
:103710000001C86FC9C0D9FFCAC0DAFFC4C0E1FF49
:10372000C5C0E2FFDFCFE7FF0001C44BC52BC9C016
:10373000D9FFCAC0DAFFC8C0DFFF0001C907D8A09F
:10374000CA070001C9510001C45D0001CA5100014E
:10375000C559D8B01200D7D726D096C0D9FF97C088
:10376000DAFF0001DF94C6C0C9FFC7A0FED7C9CFEA
:10377000C6F096C0D9FF97C0DAFF0001DF841200BF
:103780008CC0D9FF8DC0DAFF0001DF9EC6C06FFF7D
:103790006DA0FED76FCFC6F08CC0D9FF8DC0DAFF09
:1037A0000001DF8E1200000120EE02F0C451D92684
:1037B000C551DA22DF50000AD8B4CFD7010AD8A405
:1037C0001200DED71FD0000E0001C66F000EC76FBB
:1037D000000EC86F000EC96F0001C9510001C81169
:1037E00011E1B00E0001C65D040E0001C759D8B04A
:1037F00009D000F0010E0001C627000EC723C82320
:10380000C923EAD70001C407D8A0C5070001C4290D
:10381000DAE10001C529D8A4D6D7080E0001C66F89
:10382000800EC76F000EC86F000EC96F1200050E24
:103830000001F06FEAC0D9FFEBC0DAFFDECFF1F094
:10384000DDCFF2F00001EC51020DF3CFEEF00001FC
:10385000EC51020DF3280001EF6FF1C0D3F0F2C07C
:10386000D4F0EDC0D5F0EEC0D6F0A2EC99F0000196
:10387000F06F0001F051D8A40CD0F1C0D3F0F2C029
:10388000D4F0EDC0D5F0EFC0D6F0A2EC99F0000175
:10389000F06F0001F0511200372A060E3F26000E8D
:1038A0004022060E3F240001C86F000E4020000198
:1038B000C96F0001C9BF09D00001C95104E1800EE0
:1038C0000001C85DD8B044EC98F0080E4124000116
:1038D000C86F000E42200001C96F0001C9BF0CD0A3
:1038E0000001C95105E1800E0001C85DD8A004D0D7
:1038F000D5EC98F0010E1200000E1200010E00012E
:10390000C717C6C0C8F0010E0001C96F0001C82B5F
:1039100003D00001D890C9370001C82FFAD70001A1
:10392000C951FF0A0001CA6FC4C0D9FFC5C0DAFF80
:103930000001CA51DF16C6C0C8F0C7C0C9F00001F7
:10394000C82B03D00001D890C9370001C82FFAD77F
:10395000C4C0D9FFC5C0DAFF0001C951DF1212008F
:103960000001CD510001CE11D8B426D0010E0001C6
:10397000CF6F06D00001D890CD37CE370001CF2BC6
:103980000001CEAFF7D70001CD510001CB5D0001A2
:10399000CE510001CC59D8A008D00001CD51000172
:1039A000CB5F0001CE510001CC5B0001D890CE333B
:1039B000CD330001CF2FE7D7CBC0CBF0CCC0CCF0BC
:1039C00012000001F16F1ED0920E0001EA6F000E8E
:1039D0000001EB6F000E0001EC6F030E0001ED6FB4
:1039E00084EC8AF017D0920E0001EA6F000E0001FD
:1039F000EB6F010E0001EC6F030E0001ED6F84EC24
:103A00008AF008D00001F151000AD8B4DDD7010ACC
:103A1000D8B4E9D7000E0001D86F0001F151E8ECED
:103A20009DF01200050E0201026F0001F551020D1A
:103A3000F3CF00F20001F551020DF3280201016FEE
:103A4000F3C0EAF0F4C0EBF000C2ECF0F6C0EDF029
:103A500017EC9CF00201026F02010251D8A40CD0B5
:103A6000F3C0EAF0F4C0EBF001C2ECF0F6C0EDF008
:103A700017EC9CF00201026F0201025112000001DA
:103A8000DD6F0001DD51DFECA2F00001DD5100012E
:103A9000D8A41DD00001D8906E376F3700016F2970
:103AA00000016E11D8A406D0000E00016F6F000E49
:103AB0006E6F09D000016F5106E100016E29D8B088
:103AC00002D000016E8100016E5136ECA3F0000EB1
:103AD000CEEC9EF01200000E0001CF6F000E000130
:103AE000D06F000E0001C96F48040001CA6F47047F
:103AF0000001CB6F000E15EC95F047C0D0F000012F
:103B0000D0510001D8B4120048C0CFF00001CF510D
:103B10000001D8B409D0CDC0C9F0CEC0CAF001ECC4
:103B2000A2F00001CF07F2D70001D007E8D71CD0E0
:103B3000000E0001C66F000EC76F000EC86F000EAA
:103B4000C96F0001C6510001C7110001C811000171
:103B5000C911D8A409D000F0010E0001C627000E3B
:103B6000C723C823C923EDD70001C407D8A0C507C0
:103B70000001C429DDE10001C529D8B41200D8D75D
:103B80001AEC99F0E8C002F2E9C003F20CD06EEC36
:103B900087F0120002EC0AF012005AECA3F01200B7
:103BA00015ECA0F0120002C200F203C201F2020101
:103BB0000151000AD8A4F4D702010051010AD8B477
:103BC000E6D7030AD8B4E6D7010AD8B4E6D7E8D7CF
:103BD0000001D96F1CD0920E0001D36F000E0001BE
:103BE000D46F000E0001D56FD8C0D6F0DDEC92F096
:103BF0001200920E0001D36F000E0001D46F010E6F
:103C00000001D56FD8C0D6F0DDEC92F012000001B3
:103C1000D951000AD8B4DFD7010AD8A41200E9D7D5
:103C20001FECA2F0010ECEEC9EF0000E0001C56F5D
:103C3000800EC46FE2EC9BF0010ECEEC9EF010EC17
:103C4000A2F0000E0001C56F800EC46FE2EC9BF085
:103C5000010ECEEC9EF01FECA2F0000E0001C56F2D
:103C6000800EC46FE2EC9BF0010ECEEC9EF01200D1
:103C70003750D8B406D0FA0E3F26FF0E4022370642
:103C80001BD03650D8B40CD0000E406E720E3F6E72
:103C9000F80E4126FF0E4222130E376E36060CD068
:103CA000000E406E060E3F6E000E426E060E416E16
:103CB000000E376E000E366ED9EC9FF01200010E2A
:103CC000041603C005F0010E066E052A02D0D89036
:103CD0000636052EFCD70650FF0A076E01C0D9FF35
:103CE00002C0DAFF0750DF1603C005F004C006F07B
:103CF000052A02D0D8900636052EFCD701C0D9FF80
:103D000002C0DAFF0650DF121200000120EE06F0BA
:103D1000C451D926C551DA22DECFC7F0DDCFC8F0B5
:103D2000C7C0D9FFC8C0DAFFDF500001C96F00016A
:103D3000C651040DF3280001C76F03D00001D890CD
:103D4000C9330001C72FFAD70F0E0001C9170001B0
:103D5000C9511200050E0001F76F03C2F3F004C24F
:103D6000F4F0000E0001F56F05C2F6F012EC9DF0C4
:103D70000001F76F0001F751D8A40DD003C2F3F092
:103D800004C2F4F0010E0001F56F05C2F6F012EC6A
:103D90009DF00001F76F0001F75112000001DC6F88
:103DA00018D0920E0001D86F000E0001D96F000EDE
:103DB0000001DA6FCBECA0F01200920E0001D86F78
:103DC000000E0001D96F010E0001DA6FCBECA0F0FC
:103DD00012000001DC51000AD8B4E3D7010AD8A4CC
:103DE0001200EBD7000120EE06F0C451D926C551D0
:103DF000DA22DECFC7F0DDCFC8F0C7C0D9FFC8C018
:103E0000DAFFDF500001C96F0001C6290001C76F4A
:103E100003D00001D890C9330001C72FFAD7010E93
:103E20000001C9170001C9511200030E0001D56538
:103E300014D0010E0001D3250001CF6F000E000148
:103E4000D4210001D06F0001D551FC0F0001D16FCA
:103E5000D6C0D2F0CFECA1F01200D3C0CFF0D4C0C6
:103E6000D0F0D5C0D1F0D6C0D2F0CFECA1F0120086
:103E70000001DD6F0001DD51D4ECA2F00001DD5145
:103E80000001D8A413D000016E5100016F11D8A415
:103E900005D0FF0E00016F6F000E6E6F0001D8900D
:103EA0006F336E3300016E5136ECA3F0000ECEEC92
:103EB0009EF012000001CB6F86500F0B0001CA6FFD
:103EC0004350D8A402D0000E1200000E436E000131
:103ED000CB510001CA19D8B40CD0F00E86160001DF
:103EE000CB518612000E0001C56F0A0EC46F97EC0D
:103EF0009DF0010E120016D0000E036E000E046E2F
:103F0000000E056E000E066E03500410051006101C
:103F1000D8A408D000F0010E0326000E04220522CA
:103F20000622F2D70106D8A002060128E5E1022800
:103F3000D8B41200E1D70001CB6F86500F0B0001FF
:103F4000CA6F4350D8B4FDD7000E436E0001CB5169
:103F50000001CA19D8B40CD0F00E86160001CB515E
:103F60008612000E0001C56F0A0EC46F97EC9DF01B
:103F7000010E1200030E0001D26512D0010E0001E5
:103F8000D0250001CD6F000E0001D1210001CE6FC0
:103F90000001D251FC0F0001CF6F4CECA2F01200D7
:103FA000D0C0CDF0D1C0CEF0D2C0CFF04CECA2F05A
:103FB0001200010E0001FF6F3650140D160E0001A5
:103FC000C46F020E0001C56FF3500001C427F45006
:103FD0000001C5233750010DF3500001C425D96EEF
:103FE000F4500001C521DA6E800EDF6E1200000170
:103FF000DD6F0001DD510001D8A413D00001782B42
:104000000001785100017027000E712370C0DAF0B2
:1040100071C0DBF06DECA1F000017851030B8DEC69
:1040200098F0000ECEEC9EF0120096ECA1F0750E0A
:104030000001D96FFF0E0001DA6F64EC8BF0750E92
:104040000001D96FFF0E0001DA6F64EC8BF0750E82
:104050000001D96FFF0E0001DA6F64EC8BF081EC88
:1040600088F012000001C4510001C603F3CFC8F06C
:10407000F4CFC9F00001C4510001C703F35000019F
:10408000C9270001C5510001C603F3500001C9272B
:10409000C8C0C4F0C9C0C5F01200086E86500F0B2E
:1040A000076E4350D8A402D0000E1200000E436EDB
:1040B00008500718D8B40AD0F00E86160850861299
:1040C000000E026E0A0E016E7BEC9FF0010E1200D4
:1040D000C4C0F6FFC5C0F7FF000EF86E0800F5CFAC
:1040E000C8F00001C6290001C76F03D00001D890B5
:1040F000C8330001C72FFAD7010E0001C81700010D
:10410000C85112000001DD6F0001DD51EAECA2F0A0
:104110000001DD510001D8A40AD000017007D8A029
:10412000710770C0DAF071C0DBF06DECA1F0000E29
:10413000CEEC9EF012000001DD6F0001DD51C9ECF4
:10414000A2F00001DD510001D8A409D00001704B9C
:10415000712B70C0DAF071C0DBF06DECA1F0000ED5
:10416000CEEC9EF01200255026102710D8B40CD0AB
:1041700001D80AD00500FA6E2550FD6E2650FE6E5D
:104180002750FF6EFA501200000E256E000E266EAC
:10419000000E276E1200D8C0C4F0D9C0C5F0DAC036
:1041A000C6F0F2EC9EF00001DB6F010E0001DB1B9C
:1041B000D8C0D3F0D9C0D4F0DAC0D5F0DBC0D6F087
:1041C000DDEC92F01200000120EE02F0C451D9267D
:1041D000C551DA22DF50D8A407D096C0D9FF97C0C6
:1041E000DAFF0001DF8412008CC0D9FF8DC0DAFF36
:1041F0000001DF8E1200030E0F640CD0010E0D249F
:104200000A6E000E0E200B6E0F50FC0F0C6E68EC49
:10421000A2F012000DC00AF00EC00BF00FC00CF09F
:1042200068ECA2F012000001DD6F4CECA3F000017D
:10423000DE6F0F0E0001DE170001DD3BF00EDD1713
:104240000001DD510001DE1136ECA3F0000ECEECD2
:104250009EF0120052ECA3F00001685100016911B8
:1042600000016A11D8B4120001D812000500FA6EDC
:1042700000016851FD6E6951FE6E6A51FF6EFA5081
:1042800012000001DD6F4CECA3F00001DE6F0001B5
:10429000DD510001DE1136ECA3F0F00E0001DE1757
:1042A0000F0E0001DD17000ECEEC9EF01200BCECEC
:1042B0008DF0010E9BEC9FF00009D8B4120079EC50
:1042C0008EF05FEC99F087EC89F0F5ECA2F0000934
:1042D000D8B41200B3ECA0F01200DAC0D0F0DBC00A
:1042E000D1F0700E0001D26F010E0001D36F9FEC70
:1042F00091F0700E0001C56F010E0001C66F5DECFC
:1043000094F0120057ECA1F0010E9BEC9FF0000915
:10431000D8B4FAD796ECA1F0C0EC9DF0F5ECA2F081
:104320000009D8B4F1D7B3ECA0F0EED7FC0E000131
:10433000D96FFF0E0001DA6F000E0001DC6F230E53
:10434000DB6F64EC8BF0F1ECA1F05BEC97F081ECAF
:1043500088F0120004D09D961200A39E1200000166
:1043600020EE02F0C451D926C551DA22DF50000AEE
:10437000D8B4F1D7010AD8A41200EFD70001C86F52
:104380000001C75100ECA3F0B50E0001C46F010E8F
:104390000001C56FC8C0C6F0ACEC9BF01200CFC0E6
:1043A000C4F0D0C0C5F0040E0001C66FD1C0C7F084
:1043B000020E0001C86FD2C0C9F0BAEC94F012002E
:1043C000CFC0C4F0D0C0C5F0020E0001C66FD1C08E
:1043D000C7F0040E0001C86FD2C0C9F0BAEC94F067
:1043E0001200070E0001C56FE00EC46F3BECA3F096
:1043F0008D0E0001D96FFF0E0001DA6F64EC8BF0B7
:104400001200010E0001C76F0001CA51BEECA1F0FD
:10441000010E0001C76F0001C951BEECA1F01200EE
:104420009C0E0001D36F000E0001D46F060E000138
:10443000D56F010E0001D66FDDEC92F012009C0EDC
:104440000001D36F000E0001D46F060E0001D56F7E
:10445000000E0001D66FDDEC92F01200880E020112
:10446000036F000E0201046F000E0201056F000EC3
:104470000201066F2EEC85F01200DE0E0001EA6FDD
:10448000010E0001EB6F040E0001EC6F000E000145
:10449000ED6F84EC8AF01200CDC0C4F0CEC0C5F040
:1044A000040E0001C66FCFC0C7F0020E0001C86F36
:1044B000AAEC97F01200000E406E060E3F6E000E42
:1044C000426E060E416E000E376E000E366E120002
:1044D0000AC001F00BC002F0040E036E0CC004F021
:1044E000020E056E1CEC9AF01200880E0001C46FDB
:1044F000000E0001C56F000E0001C66F85EC9EF036
:1045000012007E0E0001C46F000E0001C56F000E88
:104510000001C66F85EC9EF012007E0E0001C46F94
:10452000000E0001C56F060E0001C66FF2EC9EF092
:1045300012007E0E0001C46F000E0001C56F070E51
:104540000001C66FF2EC9EF012007E0E0001C46FF7
:10455000000E0001C56F040E0001C66FF2EC9EF064
:1045600012007E0E0001C46F000E0001C56F050E23
:104570000001C66FF2EC9EF01200DE0E0001C46F67
:10458000010E0001C56F040E0001C66FF2EC9EF033
:1045900012000001C46F0001C4B103D00101769183
:1045A00002D00101768112000001C46F0001C4B184
:1045B00003D00101769702D0010176871200000135
:1045C000C46F0001C4B103D00101769502D001018E
:1045D000768512000001C46F0001C4B103D001014F
:1045E000769302D0010176831200010E436E2550AE
:1045F00026102710D8B402D0010E1200000E1200AF
:104600000001C46F0001C4B102D0859E01D0858E27
:1046100012000001D86F0001D851F6EC8CF01200A6
:10462000C4C0D9FFC5C0DAFFC6C0DFFF1200C4C0D6
:1046300025F0C5C026F0C6C027F0120001C025F045
:1046400002C026F003C027F0120028C0D6FF29C000
:10465000D7FFF28A120028C0D6FF29C0D7FFF28AFE
:104660001200060006000141613080800001C46F25
:10467000C4C077F11200C4C0FDF0C5C0FEF0120046
:1046800006000600800007009E929D929F921200F5
:0746900005000700FFFF0118
:10469800010177511200F29AF2941200F29AF29400
:0E46A8001200010E436E1200966812001200FE
:06FFF800AAF705FFF8F175
:00000001FF
