:0614000055EF0AF0120096
:101408005182FACF17F0FBCF18F0E9CF19F0EACFE5
:101418001AF0E1CF1BF0E2CF1CF0D9CF1DF0DACFE4
:101428001EF0F3CF1FF0F4CF20F0F6CF21F0F7CF66
:1014380022F0F8CF23F0F5CF24F051C025F052C0A8
:1014480026F053C027F054C028F0F292F2B4F2AA62
:1014580002D036ECBEF028C054F027C053F026C0A6
:1014680052F025C051F024C0F5FF23C0F8FF22C078
:10147800F7FF21C0F6FF20C0F4FF1FC0F3FF1EC016
:10148800DAFF1DC0D9FF1CC0E2FF1BC0E1FF1AC074
:10149800EAFF19C0E9FF18C0FBFF17C0FAFF519215
:0614A80011007BEFAFF024
:10FB5C0000001180002C0100B102003500360000BD
:10FB6C00B202003500360000B30200350036000248
:10FB7C00003500360000B4000000C0A20002008472
:10FB8C000000C1C50000C20D00000000C38D002A9A
:10FB9C000000C48D00EE0000C50A000036C800004D
:10FBAC00E012001C001000180033002C0025002867
:10FBBC0000280027002F003C000000030003001069
:10FBCC00008000780000E112001C00100018002DCD
:10FBDC0000280023002800280026002F003B0000EE
:10FBEC0000030003001000003A0500002A00000288
:10FBFC000000008100002B000003000000A20000A8
:10FC0C0029002C0000803F000020410000C8420069
:10FC1C00007A4400401C460050C3470024744980BD
:10FC2C0096184B20BCBE4C286B6E4EF9021550EC4E
:10FC3C0078AD60CAF249710000803FCDCCCC3D0A52
:10FC4C00D7233C6F12833A17B7D138ACC52737BDD1
:10FC5C0037863595BFD63377CC2B325F708930FF22
:10FC6C00E6DB2E08E53C1E6042A20D010000000AF6
:10FC7C0000000064000000E803000010270000A052
:10FC8C0086010040420F008096980000E1F50500C7
:10FC9C00CA9A3B02000400080010002000400080BB
:10FCAC00000001000102000100010002020000033B
:10FCBC00030300000103070F1F3F7FFF0002010336
:10FCCC00010410000000000000005F0000000700AD
:10FCDC000700147F147F14242A7F2A12231308642C
:10FCEC006236495522500005030000001C224100D9
:10FCFC000041221C00082A1C2A0808083E0808009B
:10FD0C00503000000808080808006060000020104F
:10FD1C000804023E5149453E00427F400042615179
:10FD2C0049462141454B311814127F102745454552
:10FD3C00393C4A494930017109050336494949366C
:10FD4C00064949291E0036360000005636000000D0
:10FD5C000814224114141414144122140800020132
:10FD6C00510906324979413E7E1111117E7F494974
:10FD7C0049363E414141227F4141221C7F4949493C
:10FD8C00417F090901013E414151327F0808087F3A
:10FD9C0000417F41002040413F017F081422417FF8
:10FDAC00404040407F0204027F7F0408107F3E41A8
:10FDBC0041413E7F090909063E4151215E7F0919E7
:10FDCC002946464949493101017F01013F404040E4
:10FDDC003F1F2040201F7F2018207F6314081463CE
:10FDEC000304780403615149454300007F414102FB
:10FDFC000408102041417F0000040201020440402D
:10FE0C00404040000102040020545454787F484480
:10FE1C0044383844444420384444487F385454547B
:10FE2C0018087E090102081454543C7F0804047815
:10FE3C0000447D40002040443D00007F10284400D9
:10FE4C00417F40007C041804787C08040478384412
:10FE5C004444387C14141408081414187C7C0804CA
:10FE6C0004084854545420043F4440203C40402053
:10FE7C007C1C2040201C3C4030403C442810284432
:10FE8C000C5050503C4464544C4400083641000023
:10FE9C00007F0000004136080008082A1C08081CD6
:10FEAC002A08080000803F1872313FF0FD753E476C
:10FEBC0058633D58951D3C82C4AE3AA8782139EF61
:10FECC00938037A092A7354656153400000000C425
:10FEDC00FF7F3F80EFFFBE90E1A93EEC8276BE82B1
:10FEEC00AD2B3E0E3CC3BD87D1133D4178D3BB0037
:10FEFC00FCFF0F0000FFFFF0FF00FFFF00437572D7
:10FF0C0072656E74204D6F64653A0A20436F6E748F
:10FF1C00696E756F7573204D6F64650A0043757259
:10FF2C0072656E74204D6F64653A0A20506F736968
:10FF3C0074696F6E204D6F64650A0A0043757272A6
:10FF4C00656E74204D6F64653A0A20556E64656663
:10FF5C00696E65640A0043757272656E74204D6F2C
:10FF6C0064653A0A2053746570204D6F64650A000D
:10FF7C002020202020202020202020202020202075
:10FF8C002020202020200A004A616D696E204561E6
:10FF9C00726C792039393133333339310A0A0052D2
:10FFAC00656D61696E696E672053746570733A2074
:10FFBC0025640A0A0054617267657420416E676C8F
:10FFCC00653A0A202566200A0044697265637469E3
:10FFDC006F6E3A200053706565643A2025640A0000
:10FFEC0053746570733A2025640A004343570A0022
:04FFFC002563000079
:020000040001F9
:10000000B20E0001BC6F000E0001BD6F37EF84F02F
:10001000250E0001D019D8B406D00001D051F9EC5A
:10002000BFF037EF84F0000E0001BF6F000EBE6F0F
:1000300015D00001BF852FD0BCC0D9FFBDC0DAFFED
:10004000DF500001D06F020E0001BC27000EBD235F
:100050000001D051F9ECBFF037EF84F0B0C0F6FFEB
:10006000B1C0F7FF0001B04BB12B000EF86E0800D5
:10007000F5CFD0F00001D051000AD8B41200630AC5
:10008000D8B4DAD7070AD8B406D0020AD8B4D1D780
:100090000F0AD8A4DDD7070E0001BF15D8B42ED3A0
:1000A000000E0001C16F060EC06FBCC0D9FFBDC0FD
:1000B000DAFFDECFCCF0DECFCDF0DECFCEF0DECF7C
:1000C000CFF0040E0001BC27000EBD230001CFAF0E
:1000D00015D0CCC060F0CDC061F0CEC062F0CFC012
:1000E00063F039ECBDF060C0CCF061C0CDF062C00F
:1000F000CEF063C0CFF0030E0001BE13000E00016E
:10010000C76F000EC66F0001CC510001CD11000178
:10011000CE110001CF11D8B48ED00001CE35CF352D
:10012000820F0001C66F0001C76BFF0EC7230001DD
:10013000C607D8A0C707C6C060F0C7C061F0000EF0
:100140000001636F030E626F55ECBDF060C0C6F036
:1001500061C0C7F0C6C066F0C7C067F0000E0001FE
:10016000696F0A0E686FFAECACF066C0C6F067C043
:10017000C7F00001C7AF04D00001C607D8A0C70769
:100180000001C651000849EC84F087C0C8F088C05F
:10019000C9F089C0CAF08AC0CBF0C8C06EF0C9C02F
:1001A0006FF0CAC070F0CBC071F0CCC072F0CDC09F
:1001B00073F0CEC074F0CFC075F03AEC89F06EC029
:1001C000C8F06FC0C9F070C0CAF071C0CBF0C8C031
:1001D00060F0C9C061F0CAC062F0CBC063F0000E2D
:1001E0000001646F000E656F800E666F3F0E676FD3
:1001F000DEEC9EF00001D8B005D00001C607D8A003
:10020000C70719D0C8C060F0C9C061F0CAC062F0A9
:10021000CBC063F0000E0001646F000E656F200E0E
:10022000666F410E676FDEEC9EF00001D8A003D030
:100230000001C64BC72B0001C1BF08D00001C1514E
:1002400023E10D0E0001C05DD8B01ED0CCC094F0EB
:10025000CDC095F0CEC096F0CFC097F00001C05150
:1002600059EC91F087C098F088C099F089C09AF055
:100270008AC09BF0E6EC86F094C0CCF095C0CDF03F
:1002800096C0CEF097C0CFF00001C7BF08D00001E4
:10029000C7512EE10A0E0001C65DD8B029D0000179
:1002A000CC510001CD110001CE110001CF11D8B405
:1002B0006DD0CCC087F0CDC088F0CEC089F0CFC063
:1002C0008AF055ECA8F00001875100018811000167
:1002D000891100018A11D8A459D00001C7BF56D096
:1002E0000001C75105E1020E0001C65DD8A04ED045
:1002F000C8C060F0C9C061F0CAC062F0CBC063F092
:100300005F0E0001646F700E656F890E666F400EA0
:10031000676FDEEC9EF00001D8B003D00001F70E4D
:1003200002D00001F80EC627FF0EC7230001C651F8
:1003300049EC84F087C0C8F088C0C9F089C0CAF011
:100340008AC0CBF0CCC060F0CDC061F0CEC062F00E
:10035000CFC063F0C8C064F0C9C065F0CAC066F021
:10036000CBC067F030ECA1F060C0C2F061C0C3F058
:1003700062C0C4F063C0C5F0000E0001CC6F000E77
:10038000CD6F000ECE6F000ECF6F3CD0CCC087F08B
:10039000CDC088F0CEC089F0CFC08AF055ECA8F06F
:1003A00087C0C2F088C0C3F089C0C4F08AC0C5F05D
:1003B000CCC0A8F0CDC0A9F0CEC0AAF0CFC0ABF0A1
:1003C000C2C060F0C3C061F0C4C062F0C5C063F0D9
:1003D000000EB0EC9AF060C0ACF061C0ADF062C04D
:1003E000AEF063C0AFF073ECBBF0A8C0CCF0A9C016
:1003F000CDF0AAC0CEF0ABC0CFF0000E0001C76FA9
:10040000000EC66F010E0001D06F0A0E0001D01958
:10041000D8B421D00001D051040D770EF324F66E2C
:10042000FC0EF420F76EF86A000EF8220900F55071
:100430000001C25D0900F5500001C3590900F550E3
:100440000001C4590900F5500001C559D8A003D0D6
:100450000001D02BDAD7030E0001BE150001B66FE4
:10046000000E0001BF150001B76F0001B651000179
:10047000B711D8B44ED02D0EF9ECBFF04AD0C2C09F
:1004800060F0C3C061F0C4C062F0C5C063F0000199
:10049000D051040D770EF324F66EFC0EF420F76EA7
:1004A000F86A000EF8220900F5CF64F00900F5CFD4
:1004B00065F00900F5CF66F00A00F5CF67F059EC5A
:1004C000ADF060C0C8F061C0C9F062C0CAF063C0DE
:1004D000CBF0C8C06DF0C9C06EF0CAC06FF0CBC021
:1004E00070F00A0E0001716F000E726F000E736FD4
:1004F000000E746F07ECB3F06DC0C8F06EC0C9F0A9
:100500006FC0CAF070C0CBF00001C851300FF9ECD9
:10051000BFF00001D0070001D029D8B408D0AFD770
:10052000300EF9ECBFF00001C607D8A0C7070001E4
:10053000C7BF07D00001C751F3E10001C605D8B01D
:10054000EFD70001C1BF0CD00001C15105E1090E78
:100550000001C05DD8A004D0080E0001D06F02D009
:10056000C0C0D0F00001D0510001C05F000E0001FA
:10057000D0BFFF0E0001C15B0001D0510001D8B413
:1005800003D02E0EF9ECBFF00001D05149EC84F0FD
:1005900087C0B8F088C0B9F089C0BAF08AC0BBF093
:1005A000CCC072F0CDC073F0CEC074F0CFC075F087
:1005B000B8C06EF0B9C06FF0BAC070F0BBC071F0D7
:1005C0003AEC89F06EC087F06FC088F070C089F097
:1005D00071C08AF055ECA8F087C0C2F088C0C3F0A3
:1005E00089C0C4F08AC0C5F074D0C2C060F0C3C076
:1005F00061F0C4C062F0C5C063F00001D051040DC9
:10060000770EF324F66EFC0EF420F76EF86A000EF7
:10061000F8220900F5CF64F00900F5CF65F0090074
:10062000F5CF66F00A00F5CF67F059ECADF060C089
:10063000C8F061C0C9F062C0CAF063C0CBF0C8C0E6
:100640006DF0C9C06EF0CAC06FF0CBC070F00A0E7A
:100650000001716F000E726F000E736F000E746FE9
:1006600007ECB3F06DC0C8F06EC0C9F06FC0CAF03F
:1006700070C0CBF00001C851300FF9ECBFF0C2C020
:100680006DF0C3C06EF0C4C06FF0C5C070F0000163
:10069000D051040D770EF324F66EFC0EF420F76EA5
:1006A000F86A000EF8220900F5CF71F00900F5CFC5
:1006B00072F00900F5CF73F00A00F5CF74F007EC83
:1006C000B3F06DC0C2F06EC0C3F06FC0C4F070C0B4
:1006D000C5F00001D0070001D029D8B408D085D7D3
:1006E000300EF9ECBFF00001C007D8A0C10700012F
:1006F000C0510001C111D8B4BAD0F2D7BCC0D9FFE3
:10070000BDC0DAFFDECFC2F0DDCFC3F00001000EC6
:10071000C3BFFF0EC46FC56F020E0001BC27000EE1
:10072000BD230001C5AF0CD0030E0001BE130001B4
:10073000C51FC41FC31FC26D000EC323C423C5231E
:10074000010E0001D06F0A0E0001D019D8B421D0DB
:100750000001D051040D770EF324F66EFC0EF42048
:10076000F76EF86A000EF8220900F5500001C25D2C
:100770000900F5500001C3590900F5500001C459A2
:100780000900F5500001C559D8A003D00001D02BB5
:10079000DAD7030E0001BE150001B66F000E00018E
:1007A000BF150001B76F0001B6510001B711D8B4F1
:1007B00003D02D0EF9ECBFF00001D0510001C06F45
:1007C000C16BC0BFC10748D0C0C0B6F0C1C0B7F050
:1007D0000001D890B637B7370001D890B637B73791
:1007E000770E0001B625F66EFC0EB721F76EF86A9B
:1007F000000EF8220900F5CF64F00900F5CF65F08E
:100800000900F5CF66F00A00F5CF67F0C2C060F0CE
:10081000C3C061F0C4C062F0C5C063F059ECADF074
:1008200060C06DF061C06EF062C06FF063C070F0C8
:100830000A0E0001716F000E726F000E736F000ED2
:10084000746F07ECB3F000016D51300F0001D06FF1
:100850000001D051F9ECBFF00001C007D8A0C107DA
:100860000001C029B1E10001C129D8A4ADD7B0C0B1
:10087000F6FFB1C0F7FF0001B04BB12B000EF86ED0
:100880000800F5CFD0F00001D051D8B4120008EF25
:1008900080F000018F6F00018FAF4DD100018F6D8F
:1008A00000018F51800A120FD8A0BBD0000E0001AA
:1008B000696F0A0E686F000E0001636F640E626F4D
:1008C00000018F510001606F616B60BF610768ECD0
:1008D000B2F060C066F061C067F0FAECACF0000105
:1008E000D890663767370001D89066376737240E8F
:1008F00000016627000E00016723430E00016625F4
:10090000F66EFC0E00016721F76EF86A000EF82201
:100910000900F5CF72F00900F5CF73F00900F5CFAB
:1009200074F00A00F5CF75F0000E0001696F640ED7
:10093000686F00018F510001666F676B66BF6707C4
:10094000FAECACF00001D890663767370001D89018
:1009500066376737480E00016627000E00016723DF
:10096000430E00016625F66EFC0E00016721F76E4E
:10097000F86A000EF8220900F5CF6EF00900F5CFF5
:100980006FF00900F5CF70F00A00F5CF71F03AEC86
:1009900089F06EC08BF06FC08CF070C08DF071C0AC
:1009A0008EF08BC06EF08CC06FF08DC070F08EC07A
:1009B00071F0000E0001636F0A0E626F00018F512B
:1009C0000001606F616B60BF610768ECB2F000010D
:1009D000D890603761370001D89060376137430E97
:1009E00000016025F66EFC0E00016121F76EF86AC9
:1009F000000EF8220900F5CF72F00900F5CF73F070
:100A00000900F5CF74F00A00F5CF75F03AEC89F0E3
:100A10006EC087F06FC088F070C089F071C08AF036
:100A2000120000018F51800A750FD8A06BD0000E04
:100A30000001696F0A0E686F00018F510001666F37
:100A4000676B66BF6707FAECACF00001D8906637B9
:100A500067370001D89066376737240E0001662794
:100A6000000E00016723430E00016625F66EFC0EA2
:100A700000016721F76EF86A000EF8220900F5CF31
:100A80006EF00900F5CF6FF00900F5CF70F00A00A5
:100A9000F5CF71F0000E0001636F0A0E626F000166
:100AA0008F510001606F616B60BF610768ECB2F04D
:100AB0000001D890603761370001D8906037613706
:100AC000430E00016025F66EFC0E00016121F76EF9
:100AD000F86A000EF8220900F5CF72F00900F5CF90
:100AE00073F00900F5CF74F00A00F5CF75F03AEC19
:100AF00089F06EC087F06FC088F070C089F071C057
:100B00008AF0120000018F51040D430EF324F66E9B
:100B1000FC0EF420F76EF86A000EF8220900F5CFFB
:100B200087F00900F5CF88F00900F5CF89F00A00B9
:100B3000F5CF8AF0120000018F51800A120FD8A061
:100B4000BBD0000E0001696F0A0E686F000E000135
:100B5000636F640E626F00018F510001606F616B03
:100B600060BF610768ECB2F060C066F061C067F01A
:100B7000FAECACF00001D890663767370001D890E6
:100B800066376737240E00016627000E00016723D1
:100B90000F0E00016625F66EFC0E00016721F76E50
:100BA000F86A000EF8220900F5CF72F00900F5CFBF
:100BB00073F00900F5CF74F00A00F5CF75F0000E60
:100BC0000001696F640E686F00018F510001666F4C
:100BD000676B66BF6707FAECACF00001D890663728
:100BE00067370001D89066376737480E00016627DF
:100BF000000E000167230F0E00016625F66EFC0E45
:100C000000016721F76EF86A000EF8220900F5CF9F
:100C10006EF00900F5CF6FF00900F5CF70F00A0013
:100C2000F5CF71F03AEC89F06EC08BF06FC08CF0AC
:100C300070C08DF071C08EF08BC06EF08CC06FF004
:100C40008DC070F08EC071F0000E0001636F0A0E4F
:100C5000626F00018F510001606F616B60BF6107BF
:100C600068ECB2F00001D890603761370001D8908D
:100C7000603761370F0E00016025F66EFC0E000133
:100C80006121F76EF86A000EF8220900F5CF72F0C4
:100C90000900F5CF73F00900F5CF74F00A00F5CF25
:100CA00075F03AEC89F06EC087F06FC088F070C0C4
:100CB00089F071C08AF0120000018F51800A750F0F
:100CC000D8A06BD0000E0001696F0A0E686F00019A
:100CD0008F510001666F676B66BF6707FAECACF077
:100CE0000001D890663767370001D89066376737BC
:100CF000240E00016627000E000167230F0E00017D
:100D00006625F66EFC0E00016721F76EF86A000E8C
:100D1000F8220900F5CF6EF00900F5CF6FF0090059
:100D2000F5CF70F00A00F5CF71F0000E0001636F8F
:100D30000A0E626F00018F510001606F616B60BF2E
:100D4000610768ECB2F00001D890603761370001AC
:100D5000D890603761370F0E00016025F66EFC0EEB
:100D600000016121F76EF86A000EF8220900F5CF44
:100D700072F00900F5CF73F00900F5CF74F00A00A6
:100D8000F5CF75F03AEC89F06EC087F06FC088F04F
:100D900070C089F071C08AF0120000018F51040DFB
:100DA0000F0EF324F66EFC0EF420F76EF86A000EB8
:100DB000F8220900F5CF87F00900F5CF88F0090087
:100DC000F5CF89F00A00F5CF8AF0120000019751A3
:100DD000800B0001A46F0001975197250001A66FB9
:100DE000000196AF02D00001A6810001A6510001CA
:100DF000D8B412D00001A629D8A409D0000E000151
:100E0000946F000E956F000E966F000E976F0001A5
:100E1000968F000E000108D0000E0001946F000EA6
:100E2000956F000E966F000E976F00019B51800B1F
:100E30000001A56F0001A4510001A519D8B402D08A
:100E40000001A48D00019B519B250001A56F0001AD
:100E50009AAF02D00001A5810001A5510001D8B4CC
:100E600012D00001A529D8A409D0000E0001986F66
:100E7000000E996F000E9A6F000E9B6F00019A8F03
:100E8000000E000108D0000E0001986F000E996F4F
:100E9000000E9A6F000E9B6F0001A6510001A55D28
:100EA000D8B024D00001A4AD03D0800E0001A41B53
:100EB000A6C0A7F0A5C0A6F0A7C0A5F094C0A7F053
:100EC00098C094F0A7C098F095C0A7F099C095F08D
:100ED000A7C099F096C0A7F09AC096F0A7C09AF064
:100EE00097C0A7F09BC097F0A7C09BF0000E000131
:100EF000A76F0001A65100019C6F9D6B00019C1F14
:100F00009D1F9C4B9D2B0001A55100019E6F9F6B67
:100F100000019C5100019E2700019D5100019F236B
:100F200000019FBF3DD000019F5105E11A0E000155
:100F30009E5DD8A035D000019451000195110001AB
:100F4000961100019711D8B402D0010E01D0000E05
:100F50000001A76F000E0001946F000E956F000E48
:100F6000966F000E976FA5C0A6F020D00001A7A134
:100F700007D00001D890A73101090001A76F03D065
:100F80000001D890A733000194A102D00001A78FDF
:100F90000001973597339633953394330001A62B90
:100FA0000001A5510001A65DD8A0E0D70001A4BDB5
:100FB0003FD00001A6510001D8A40AD0000E0001C4
:100FC000946F000E956F000E966F000E976F1200D3
:100FD00000019851000194270001995100019523C7
:100FE00000019A510001962300019B5100019723B3
:100FF000000197A1CCD00001A7A109D00001D89091
:10100000A7330001A75101090001A76F03D0000118
:10101000D890A733000194A102D00001A78F00014E
:10102000973597339633953394330001A62BAFD081
:10103000000198510001945D0001995100019559FA
:1010400000019A510001965900019751800A000150
:101050009C6F00019B51800A00019C59D8B050D070
:1010600094C09CF095C09DF096C09EF097C09FF0F4
:1010700000019C1F9D1F9E1F9F1F9C2B000E9D23E8
:101080009E239F230001985100019C250001A06F21
:101090000001995100019D210001A16F00019A51A9
:1010A00000019E210001A26F00019B5100019F21C0
:1010B0000001A36FFF0E0001A0250001946FFF0E39
:1010C0000001A1210001956FFF0E0001A221000186
:1010D000966FFF0E0001A3210001976F800E0001A3
:1010E000A41B0001A76D0001A7510001D8A418D0CE
:1010F000010E00019427000E95239623972310D00C
:10110000000198510001945F000199510001955B25
:1011100000019A510001965B00019B510001975B11
:1011200000019451000195110001961100019711E1
:10113000D8A42AD00001A7510001D8A425D0000EC0
:101140000001946F000E956F000E966F000E976F62
:1011500012000001D89094379537963797370001E1
:10116000A7AF02D0000194810001A7A103D0D880CD
:10117000000102D00001D890A7370001A65100015C
:10118000D8B402D00001A607000196AFE2D7000E46
:101190000001A56F0001A7AF0DD0A7C09CF07F0E86
:1011A00000019C17D8A403D0000194A103D0010E24
:1011B0000001A56F0001A5510001D8B426D0010E91
:1011C00000019427000E952396239723000197A1F1
:1011D0001CD094C09CF095C09DF096C09EF097C026
:1011E0009FF000019F359F339E339D339C339CC0FD
:1011F00094F09DC095F09EC096F09FC097F00001BE
:10120000A629D8B402D00001A62B0001A629D8B483
:1012100005D00001A6510001D8A411D0000E000194
:10122000946F000E956F000E966F000E976F000181
:10123000A6510001D8A403D0000E0001A46F000144
:10124000A6A103D00001968F02D00001969F000155
:10125000D890A6310001976F0001A4AF02D0000121
:10126000978F94C094F095C095F096C096F097C073
:1012700097F0120000017151800B00017A6F00019C
:10128000715171250001806F000170AF02D0000123
:101290008081000180510001D8B410D00001802964
:1012A000D8A409D0000E00016E6F000E6F6F000E03
:1012B000706F000E716F0001708F09D0000E000179
:1012C0006E6F000E6F6F000E706F000E716F000179
:1012D0007551800B00017A1B0001755175250001C5
:1012E0007B6F000174AF02D000017B8100017B5154
:1012F0000001D8B410D000017B29D8A409D0000E79
:101300000001726F000E736F000E746F000E756F28
:101310000001748F09D0000E0001726F000E736F10
:10132000000E746F000E756F00017B510001D8B480
:1013300005D0000180510001D8A40AD0000E0001A0
:101340006E6F000E6F6F000E706F000E716F1200E7
:101350000001745100016E03F3CF85F0F4CF86F0E5
:101360000001855100017C6F7D6B7E6B7F6B0001FE
:1013700086510001816F826B836B846B0001735116
:1013800000016F03F3CF85F0F4CF86F000018551A3
:1013900000017C27000E7D237E237F2300018651E0
:1013A00000018127000E82238323842300017251D0
:1013B00000017003F3CF85F0F4CF86F00001855172
:1013C00000017C27000E7D237E237F2300018651B0
:1013D00000018127000E8223832384237EC07FF0B7
:1013E0007DC07EF07CC07DF000017C6B00017251FD
:1013F00000016F03F3CF85F0F4CF86F00001855133
:1014000000017C270001865100017D23000E0001B0
:101410007E23000E00017F230001735100016E0343
:10142000F3CF85F0F4CF86F00001855100017C27D1
:101430000001865100017D23000E00017E23000E75
:1014400000017F237EC07FF07DC07EF07CC07DF0F8
:1014500000017C6B0001725100016E03F3CF85F037
:10146000F4CF86F00001855100017C2700018651F0
:1014700000017D23000E00017E23000E00017F236A
:101480000001745100016F03F3CF85F0F4CF86F0B3
:10149000000185510001812700018651000182234E
:1014A000000E00018323000E00018423000173510C
:1014B00000017003F3CF85F0F4CF86F00001855171
:1014C000000181270001865100018223000E0001E6
:1014D0008323000E00018423000174510001700376
:1014E000F3CF85F0F4CF86F0000185510001766FCF
:1014F000000186510001776F0001786B0001796B64
:1015000078C079F077C078F076C077F00001766B1C
:1015100000017651000181270001775100018223EB
:1015200000017851000183230001795100018423D7
:101530007CC076F07DC077F07EC078F07FC079F017
:10154000190E06D00001D89079337833773376338B
:10155000E82EF8D70001765100018127000177516C
:101560000001822300017851000183230001795199
:10157000000184237EC07FF07DC07EF07CC07DF0C2
:1015800000017C6B00017B5180C076F00001776B1D
:1015900000017627000E7723820E000176250001D8
:1015A000856FFF0E000177210001866F15D00001C5
:1015B000D890813782378337843700017FAF02D0DC
:1015C000000181810001D8907C377D377E377F37DD
:1015D00000018507D8A08607000183AFE8D7000E79
:1015E00000017B6F00017FAF24D0FF0E00017C154E
:1015F0000001766FFF0E00017D150001776FFF0E71
:1016000000017E150001786F7F0E00017F1500013B
:10161000796F000176510001771100017811000106
:101620007911D8A403D0000181A103D0010E0001DB
:101630007B6F00017B510001D8B423D0010E000163
:101640008127000E822383238423000184A119D0E3
:1016500081C076F082C077F083C078F084C079F0E2
:1016600000017935793378337733763376C081F07A
:1016700077C082F078C083F079C084F00001854B98
:10168000862B000186BF10D00001865104E10001C5
:101690008529D8A009D0000E0001816F000E826F4D
:1016A000800E836F7F0E2BD0000186BF07D0000114
:1016B000865111E100018505D8B00DD0000E000162
:1016C000816F000E826F000E836F000E846F000E1C
:1016D00000017A6F15D085C080F0FF0E00018117E0
:1016E000FF0E82177F0E8317000E8417000180A162
:1016F00002D00001838F0001D89080310001846FF7
:1017000000017A510001841381C06EF082C06FF035
:1017100083C070F084C071F012000CD0610E000123
:10172000936F010E04D06C0E0001936F010E000147
:10173000946F08D000019151000AD8B4EFD7010A84
:10174000D8B4F1D7000120EE02F09351D92694517C
:10175000DA2291C0DFFFB1D0B30E0001866F010E17
:101760000001876F020E0001886F030E0001896F70
:1017700097EC9BF0B30E0001866F010E0001876F9E
:10178000030E0001886F030E0001896F97EC9BF038
:10179000B30E0001866F010E0001876F050E000178
:1017A000886F030E0001896F97EC9BF0B30E000168
:1017B000866F010E0001876F040E0001886F000E16
:1017C0000001896F97EC9BF0000120EE03F093512C
:1017D000D9269451DA22C70EDE6E0F0EDD6E00019F
:1017E00020EE06F09351D9269451DA22C60EDE6E11
:1017F0000F0EDD6E000120EE09F09351D9269451B1
:10180000DA22C90E56D09F0E0001866F010E00012C
:10181000876F070E0001886F030E0001896F97EC38
:101820009BF09F0E0001866F010E0001876F060E70
:101830000001886F030E0001896F97EC9BF09F0EEB
:101840000001866F010E0001876F040E0001886F92
:10185000030E0001896F97EC9BF09F0E0001866FCD
:10186000010E0001876F050E0001886F000E000158
:10187000896F97EC9BF0000120EE03F09351D9267D
:101880009451DA226D0EDE6E0F0EDD6E000120EE39
:1018900006F09351D9269451DA226C0EDE6E0F0EAB
:1018A000DD6E000120EE09F09351D9269451DA2221
:1018B0006F0EDE6E0F0EDD6E09D000019151000A31
:1018C000D8B44AD7010AD8A412009DD7000120EE4F
:1018D00006F09351D9269451DA22DECF60F0DDCFA5
:1018E00061F0050E0001626F000E0001636FD0EC25
:1018F000B8F09CD0000120EE06F09351D926945107
:10190000DA22DECF60F0DDCF61F0040E0001626FFD
:10191000000E0001636FD0ECB8F0000120EE03F080
:101920009351D9269451DA22DECF60F0DDCF61F0F9
:10193000060E0001626F000E0001636FD0ECB8F07C
:1019400084D0000120EE06F09351D9269451DA227A
:10195000DECF60F0DDCF61F0040E0001626F000E9B
:101960000001636FD0ECB8F0000120EE03F093515A
:10197000D9269451DA22DECF60F0DDCF61F0060E79
:101980000001626F010E0001636FD0ECB8F05DD012
:10199000000120EE06F09351D9269451DA22DECFD1
:1019A00060F0DDCF61F0040E0001626F010E0001F6
:1019B000636FD0ECB8F0000120EE03F09351D9260C
:1019C0009451DA22DECF60F0DDCF61F0060E000127
:1019D000626F000E0001636FD0ECB8F036D00001EA
:1019E00020EE06F09351D9269451DA22DECF60F032
:1019F000DDCF61F0040E0001626F010E0001636F24
:101A0000D0ECB8F0000120EE03F09351D9269451A8
:101A1000DA22DECF60F0DDCF61F0060E0001626FEA
:101A2000010E0001636FD0ECB8F00FD000019251AD
:101A3000000AD8B45FD7010AD8B483D7030AD8B450
:101A4000A7D7010AD8A41200CAD7000120EE06F0D9
:101A50009351D9269451DA22DECF60F0DDCF61F0C8
:101A6000070E0001626F000E0001636FD0ECB8F04A
:101A7000000120EE06F09351D9269451DA22DECFF0
:101A800060F0DDCF61F0060E0001626F000E000114
:101A9000636FD0ECB8F08DC06DF08EC06EF08FC06B
:101AA0006FF090C070F020ECA4F093C060F094C090
:101AB00061F077ECBEF004D09F860BD0A58E09D0E4
:101AC00000019151000AD8B4F7D7010AD8A4120036
:101AD000F5D793C060F094C061F0EFECBDF093C017
:101AE000D9FF94C0DAFF000EDF6E000120EE06F091
:101AF0009351D9269451DA22DECF6BF0DDCF6CF012
:101B0000000E00016D6F030E00016E6FAFECBEF0B2
:101B1000000120EE06F09351D9269451DA22DECF4F
:101B200060F0DDCF61F0050E0001626F010E000173
:101B3000636FD0ECB8F0120000016351800B00011C
:101B40006C6F0001635163250001776F000162AF84
:101B500002D000017781000177510001D8B412D082
:101B600000017729D8A409D0000E0001606F000E93
:101B7000616F000E626F000E636F0001628F000ED6
:101B8000000108D0000E0001606F000E616F000EB2
:101B9000626F000E636F00016751800B00016C1BC8
:101BA0000001675167250001786F000166AF02D020
:101BB00000017881000178510001D8B412D00001F1
:101BC0007829D8A409D0000E0001646F000E656F5B
:101BD000000E666F000E676F0001668F000E000139
:101BE00008D0000E0001646F000E656F000E666F76
:101BF000000E676F0001645100016511000166115C
:101C000000016711D8A417D0000E0001606F000E0C
:101C1000616F000E626F000E636F0001800E621331
:101C20007F0E631360C060F061C061F062C062F05B
:101C300063C063F01200000177510001D8A412D0F4
:101C4000000E0001606F000E616F000E626F000EEB
:101C5000636F60C060F061C061F062C062F063C039
:101C600063F01200000178510001686F696B000198
:101C7000681F691F684B692B0001775100016A6F6B
:101C80006B6B0001685100016A2700016951000176
:101C90006B237F0E00016A250001716F000E0001A9
:101CA0006B210001726F60C06DF061C06EF062C0A8
:101CB0006FF063C070F0000E0001606F000E616F86
:101CC000000E626F000E636F000E0001736F000E56
:101CD000746F000E756F000E766F000E0001786F46
:101CE00042D0000178510001D8B417D00001D8903B
:101CF0006D376E376F3770370001D89060376137B6
:101D000062376337000176AF02D0000160810001C5
:101D1000D8907337743775377637000164510001F6
:101D20006D5D0001655100016E59000166510001B1
:101D30006F590001675100017059D8A012D00001FD
:101D4000768D0001645100016D5F00016551000155
:101D50006E5B0001665100016F5B0001675100017D
:101D6000705B0001782B190E00017865BAD700016D
:101D70006D5100016E1100016F1100017011D8B496
:101D800018D00001738115D00001D89060376137F9
:101D900062376337000176AF02D000016081000135
:101DA000D890733774377537763700017107D8A02C
:101DB0007207000162AFE8D7000E0001786F0001E2
:101DC00076AF24D0FF0E000173150001686FFF0E7F
:101DD000000174150001696FFF0E00017515000107
:101DE0006A6F7F0E0001761500016B6F000168516C
:101DF0000001691100016A1100016B11D8A403D020
:101E0000000160A103D0010E0001786F000178513C
:101E10000001D8B423D0010E00016027000E612319
:101E200062236323000163A119D060C068F061C020
:101E300069F062C06AF063C06BF000016B356B3310
:101E40006A336933683368C060F069C061F06AC0A2
:101E500062F06BC063F00001714B722B000172BF26
:101E600014D00001725104E100017129D8A00DD0F5
:101E7000000E0001726F7169000E0001606F000EAC
:101E8000616F000E626F000E636F000172BF07D0BA
:101E90000001725115E100017105D8B011D0000E9A
:101EA0000001726F000E716F000E0001606F000E76
:101EB000616F000E626F000E636F000E00016C6FA9
:101EC00071C077F0000177A103D00001628F02D0CA
:101ED0000001629F0001D89077310001636F00011B
:101EE0006C510001631360C060F061C061F062C0BA
:101EF00062F063C063F01200080E00016F2500015C
:101F00006C6F000E0001702100016D6F000E00016A
:101F10006E6FC0ECBCF00001866F000186510001BD
:101F2000726F736B0E0ED890000172377337E82E04
:101F3000FAD7000186510001746F756B0C0ED890B2
:101F4000000174377537E82EFAD700018651000179
:101F5000766F776B0A0ED890000176377737E82EC8
:101F6000FAD7000186510001796F786B0001865124
:101F700000017A6F7B6B060ED89000017A377B37B1
:101F8000E82EFAD70001865100017C6F7D6B0001BD
:101F90007C3B7D3BF00E7D177C510F0B7D13F00ECB
:101FA0007C170001865100017E6F7F6B0001D89085
:101FB0007E377F370001D8907E377F37000186510A
:101FC0000001806F816B00017E51000180130001D0
:101FD0007F510001811300017C5100018013000139
:101FE0007D510001811300017A510001801300012D
:101FF0007B51000181130001785100018013000121
:102000007951000181130001765100018013000114
:102010007751000181130001745100018013000108
:1020200075510001811300017251000180110001FE
:10203000826F00017351000181110001836F86C01E
:1020400084F00001856B080E00016F2500016C6FA4
:10205000000E0001702100016D6F010E00016E6F16
:10206000C0ECBCF00001726F736B0001D890723746
:1020700073370001D8907237733700017251000135
:1020800084130001735100018513080E00016F25B0
:1020900000016C6F000E0001702100016D6F020ED7
:1020A00000016E6FC0ECBCF00001726F736B000139
:1020B000723B733BF00E731772510F0B7313F00EDC
:1020C0007217000172510001841300017351000165
:1020D0008513080E00016F2500016C6F000E0001D2
:1020E000702100016D6F030E00016E6FC0ECBCF03B
:1020F0000001726F736B060ED89000017237733750
:10210000E82EFAD7000172510001841300017351C7
:1021100000018513080E00016F2500016C6F000E91
:102120000001702100016D6F040E00016E6FC0ECA4
:10213000BCF00001726F000172510001746F736B8B
:1021400000017351000184130001745100018513D3
:10215000080E00016F2500016C6F000E0001702158
:1021600000016D6F050E00016E6FC0ECBCF0000148
:10217000726F736B0A0ED890000172377337E82EB6
:10218000FAD700017251000184130001735100015C
:102190008513080E00016F2500016C6F000E000111
:1021A000702100016D6F060E00016E6FC0ECBCF077
:1021B0000001726F736B0C0ED89000017237733789
:1021C000E82EFAD700017251000184130001735107
:1021D00000018513080E00016F2500016C6F000ED1
:1021E0000001702100016D6F070E00016E6FC0ECE1
:1021F000BCF00001726F736B0E0ED8900001723745
:102200007337E82EFAD700017251000184130001E0
:10221000735100018513000184510001821948E1C6
:102220000001855100018319D8A4120032D00001A9
:1022300020EE02F06F51D9267051DA22DECF60F025
:10224000DDCF61F071C062F0EBECBFF01200000175
:10225000711F000120EE02F06F51D9267051DA2271
:10226000DECF60F0DDCF61F071C062F0EBECBFF06B
:102270001200000120EE04F06F51D9267051DA22CD
:10228000DECF60F0DDCF61F071C062F0EBECBFF04B
:10229000120000018651000AD8B41200010AD8B415
:1022A000C6D7030AD8B4D3D7010AD8A41200E1D7FD
:1022B00012000001936F6D0E00019365CDD0000EEA
:1022C0000001696F0A0E686F000E0001636F640EF3
:1022D000626F93C060F00001616B68ECB2F060C0A7
:1022E00066F061C067F0FAECACF00001D890663798
:1022F00067370001D89066376737240E00016627DC
:10230000000E00016723430E00016625F66EFC0EE9
:1023100000016721F76EF86A000EF8220900F5CF78
:1023200072F00900F5CF73F00900F5CF74F00A00E0
:10233000F5CF75F0000E0001696F640E686F93C0F1
:1023400066F00001676BFAECACF00001D8906637DC
:1023500067370001D89066376737480E0001662757
:10236000000E00016723430E00016625F66EFC0E89
:1023700000016721F76EF86A000EF8220900F5CF18
:102380006EF00900F5CF6FF00900F5CF70F00A008C
:10239000F5CF71F03AEC89F06EC08FF06FC090F01D
:1023A00070C091F071C092F0000E0001636F0A0ED0
:1023B000626F93C060F00001616B68ECB2F00001E5
:1023C000D890603761370001D89060376137430E8D
:1023D00000016025F66EFC0E00016121F76EF86ABF
:1023E000000EF8220900F5CF72F00900F5CF73F066
:1023F0000900F5CF74F00A00F5CF75F08FC06EF0CC
:1024000090C06FF091C070F092C071F03AEC89F01A
:102410006EC08BF06FC08CF070C08DF071C08EF00C
:102420008BC06EF08CC06FF08DC070F08EC071F0FC
:10243000000E0001726F000E736F000E746F3F0E7E
:10244000756F3AEC89F06EC087F06FC088F070C08D
:1024500089F071C08AF012000A0E0001936580D0E5
:10246000000E0001636F0A0E626F93C060F00001FE
:10247000616B68ECB2F00001D89060376137000101
:10248000D89060376137430E00016025F66EFC0E70
:1024900000016121F76EF86A000EF8220900F5CFFD
:1024A00072F00900F5CF73F00900F5CF74F00A005F
:1024B000F5CF75F0000E0001696F0A0E686F93C0CA
:1024C00066F00001676BFAECACF00001D89066375B
:1024D00067370001D89066376737240E00016627FA
:1024E000000E00016723430E00016625F66EFC0E08
:1024F00000016721F76EF86A000EF8220900F5CF97
:102500006EF00900F5CF6FF00900F5CF70F00A000A
:10251000F5CF71F03AEC89F06EC08FF06FC090F09B
:1025200070C091F071C092F08FC06EF090C06FF0EB
:1025300091C070F092C071F0000E0001726F000E39
:10254000736F000E746F3F0E756F3AEC89F06EC0BA
:1025500087F06FC088F070C089F071C08AF01200F7
:1025600000019351040D430EF324F66EFC0EF4208B
:10257000F76EF86A000EF8220900F5CF6EF0090038
:10258000F5CF6FF00900F5CF70F00A00F5CF71F0CC
:10259000000E0001726F000E736F000E746F3F0E1D
:1025A000756F3AEC89F06EC087F06FC088F070C02C
:1025B00089F071C08AF012000001C0510001C11100
:1025C0000001C2110001C311D8A40AD0000E0001FD
:1025D000C06F000EC16F800EC26F3F0EC36F12003E
:1025E000180E0001606F720E616F310E626F440E43
:1025F000636FC0C064F0C1C065F0C2C066F0C3C004
:1026000067F0DEEC9EF00001D8B00FD0000E0101A3
:102610001C6F220E1B6FFF0E0001C06FFF0EC16FFB
:102620007F0EC26F7F0EC36F1200C0C060F0C1C0CA
:1026300061F0C2C062F0C3C063F0870E0001646F36
:10264000480E656F3A0E666FC40E676FDEEC9EF043
:102650000001D8B00FD0000E01011C6F220E1B6FBD
:10266000000E0001C06F000EC16F000EC26F000EA1
:10267000C36F12000001C3AF02D0010E01D0000EE3
:102680000001CA6F0001CA510001D8B412D0C0C005
:1026900060F0C1C061F0C2C062F0C3C063F039EC49
:1026A000BDF060C0C0F061C0C1F062C0C2F063C0E4
:1026B000C3F0C0C06EF0C1C06FF0C2C070F0C3C044
:1026C00071F03B0E0001726FAA0E736FB80E746F3B
:1026D0003F0E756F3AEC89F06EC0C0F06FC0C1F06C
:1026E00070C0C2F071C0C3F0C0C0A8F0C1C0A9F0F2
:1026F000C2C0AAF0C3C0ABF037ECA7F0A8C0C4F0CA
:10270000A9C0C5F0AAC0C6F0ABC0C7F0C4C087F06E
:10271000C5C088F0C6C089F0C7C08AF055ECA8F0E3
:1027200087C0C8F088C0C9F0C0C0A8F0C1C0A9F077
:10273000C2C0AAF0C3C0ABF0C8C060F0C9C061F0AD
:102740000001000E61BFFF0E626F636F010EB0ECFF
:102750009AF060C0ACF061C0ADF062C0AEF063C092
:10276000AFF073ECBBF0A8C0C0F0A9C0C1F0AAC024
:10277000C2F0ABC0C3F0C0C0A8F0C1C0A9F0C2C0D5
:10278000AAF0C3C0ABF0AF0E0001AC6FFE0E0001AB
:10279000AD6F000E0001AF6F090EAE6FC9ECA7F070
:1027A000A8C0B8F0A9C0B9F0AAC0BAF0ABC0BBF0DD
:1027B000C8C0BCF0C9C0BDF0A5ECA6F0B8C0C0F060
:1027C000B9C0C1F0BAC0C2F0BBC0C3F00001CA5169
:1027D0000001D8B435D00001C02916E10001C1299B
:1027E00013E17F0E0001C2190FE17F0E0001C31932
:1027F000D8A40AD0000E0001C06F000EC16F000EF9
:10280000C26F000EC36F1200000E0001606F000E59
:10281000616F800E626F3F0E636FC0C064F0C1C015
:1028200065F0C2C066F0C3C067F09CEC8DF060C07C
:10283000C0F061C0C1F062C0C2F063C0C3F012005A
:10284000C0C0C0F0C1C0C1F0C2C0C2F0C3C0C3F0BC
:1028500012000001606F7ED03F0E1200060E1200C3
:102860005B0E12004F0E1200660E12006D0E12006B
:102870007D0E1200070E12007F0E12006F0E120066
:102880005F0E12007C0E1200580E12005E0E120037
:102890007B0E1200710E12006F0E1200740E1200E9
:1028A000040E12000E0E12007A0E1200060E120016
:1028B000140E1200540E12005C0E1200730E120061
:1028C000670E1200500E12006D0E1200780E1200EC
:1028D0001C0E1200620E12002A0E1200640E12006C
:1028E0006E0E12005B0E1200770E12007F0E1200A9
:1028F000390E12003F0E1200790E1200710E1200F6
:102900003D0E1200760E1200060E12001E0E120070
:10291000570E1200380E1200760E1200760E1200BC
:102920003F0E1200730E12003F0E1200770E1200BF
:102930006D0E1200310E12003E0E12003E0E1200FD
:102940007E0E1200760E1200660E12005B0E120052
:10295000800E1200000160512E0AD8B4F9D71E0A69
:10296000D8B47AD7010AD8B479D7030AD8B478D7BB
:10297000010AD8B477D7070AD8B476D7010AD8B4F1
:1029800075D7030AD8B474D7010AD8B473D70F0A1D
:10299000D8B472D7010AD8B471D7780AD8B4A4D7FA
:1029A000030AD8B4A3D7010AD8B4A2D7070AD8B467
:1029B000A1D7010AD8B4A0D7030AD8B49FD7010A77
:1029C000D8B49ED70F0AD8B49DD7010AD8B49CD7E3
:1029D000030AD8B49BD7010AD8B49AD7070AD8B447
:1029E00099D7010AD8B498D7030AD8B497D7010A5F
:1029F000D8B496D71F0AD8B495D7010AD8B494D7BB
:102A0000030AD8B493D7010AD8B492D7070AD8B426
:102A100091D7010AD8B490D7030AD8B48FD7010A46
:102A2000D8B48ED70F0AD8B48DD7010AD8B48CD7B2
:102A3000030AD8B48BD73B0AD8B422D7030AD8B438
:102A400021D7010AD8B420D7070AD8B41FD7010A62
:102A5000D8B41ED7030AD8B41DD7010AD8B41CD7DE
:102A60000F0AD8B41BD7010AD8B41AD7030AD8B4AE
:102A700019D7010AD8B418D7070AD8B417D7010A4A
:102A8000D8B416D7030AD8B415D7010AD8B414D7C6
:102A90001F0AD8B413D7010AD8B412D7030AD8B47E
:102AA00011D7010AD8B410D7070AD8B40FD7010A32
:102AB000D8B40ED7030AD8B40DD7010AD8B40CD7AE
:102AC0000F0AD8B40BD7010AD8B40AD7030AD8B46E
:102AD00009D7000E1200050E00019A6FC7D0000141
:102AE00020EE02F09651D9269751DA22DECF6BF014
:102AF000DDCF6CF098C06DF00F0E00016E6FAFEC83
:102B0000BEF0000120EE04F09651D9269751DA224A
:102B1000DECF6BF0DDCF6CF098C06DF0000E0001E1
:102B20006E6FAFECBEF0B0D096C08FF097C090F053
:102B300098C091F0030E0001926FC0ECB9F0000153
:102B40009A6F00019A51D8A41200000120EE02F001
:102B50009651D9269751DA22DECF6BF0DDCF6CF09B
:102B600098C06DF0000E00016E6FAFECBEF000017A
:102B700020EE04F09651D9269751DA22DECF6BF081
:102B8000DDCF6CF098C06DF0000E00016E6FAFEC01
:102B9000BEF07AD096C08FF097C090F098C091F0B8
:102BA000030E0001926FC0ECB9F000019A6F0001B2
:102BB0009A51D8A41200000120EE02F09651D926B5
:102BC0009751DA22DECF6BF0DDCF6CF098C06DF05C
:102BD0000F0E00016E6FAFECBEF0000120EE04F0AE
:102BE0009651D9269751DA22DECF6BF0DDCF6CF00B
:102BF00098C06DF00F0E00016E6FAFECBEF044D0C8
:102C000096C08FF097C090F098C091F0030E00012D
:102C1000926FC0ECB9F000019A6F00019A51D8A4EC
:102C20001200000120EE02F09651D9269751DA22C7
:102C3000DECF6BF0DDCF6CF098C06DF0000E0001C0
:102C40006E6FAFECBEF0000120EE04F09651D92675
:102C50009751DA22DECF6BF0DDCF6CF098C06DF0CB
:102C6000000E00016E6FAFECBEF00ED00001995166
:102C7000000AD8B434D7010AD8B456D7030AD8B456
:102C800089D7010AD8B4BCD7080E000196250001E7
:102C90006F6F000E000197210001706F00019851C5
:102CA000040DF3CF71F099C072F0BAECBBF0080ECE
:102CB0000001962500016F6F000E000197210001B1
:102CC000706F00019851040DF3280001716F99C0D5
:102CD00072F0BAECBBF0080E0001962500016F6F90
:102CE000000E000197210001706F00019851040D42
:102CF000F350020F0001716F99C072F0BAECBBF093
:102D0000080E0001962500016F6F000E000197214B
:102D10000001706F00019851040DF350030F000182
:102D2000716F99C072F0BAECBBF01200050E000191
:102D30009F6F7AD0000120EE02F09A51D9269B5164
:102D4000DA22DECF9DF0DDCF9EF09DC0D9FF9EC080
:102D5000DAFFFF0E67D09AC096F09BC097F0010E85
:102D60000001986F07ECBBF000019F6F00019F51BD
:102D7000D8A41200000120EE02F09A51D9269B51EE
:102D8000DA22DECF9DF0DDCF9EF09DC0D9FF9EC040
:102D9000DAFF000EDF6E000120EE04F036D09AC09C
:102DA00096F09BC097F0020E0001986F07ECBBF005
:102DB00000019F6F00019F51D8A41200000120EE76
:102DC00002F09A51D9269B51DA22DECF9DF0DDCF59
:102DD0009EF09DC0D9FF9EC0DAFFFF0EDF6E00019E
:102DE00020EE04F0AAD79AC096F09BC097F0000E90
:102DF0000001986F07ECBBF000019F6F00019F512D
:102E0000D8A41200000120EE02F09A51D9269B515D
:102E1000DA22DECF9DF0DDCF9EF09DC0D9FF9EC0AF
:102E2000DAFF000EDF6E0ED000019C51000AD8B40C
:102E300081D7010AD8B48FD7030AD8B4B0D7010A12
:102E4000D8B4D1D7080E00019A2500016F6F000E8B
:102E500000019B210001706F000E0001716F9CC08A
:102E600072F0BAECBBF0080E00019A2500016F6FFA
:102E7000000E00019B210001706F010E0001716FB7
:102E80009CC072F0BAECBBF0080E00019A2500015C
:102E90006F6F000E00019B210001706F020E000198
:102EA000716F9CC072F0BAECBBF0080E00019A255D
:102EB00000016F6F000E00019B210001706F030E77
:102EC0000001716F9CC072F0BAECBBF0080E0001FB
:102ED0009A2500016F6F000E00019B210001706FA9
:102EE000040E0001716F9CC072F0BAECBBF0080ECA
:102EF00000019A2500016F6F000E00019B21000167
:102F0000706F050E0001716F9CC072F0BAECBBF0DF
:102F1000080E00019A2500016F6F000E00019B2131
:102F20000001706F060E0001716F9CC072F0BAEC68
:102F3000BBF0080E00019A2500016F6F000E000122
:102F40009B210001706F070E0001716F9CC072F031
:102F5000BAECBBF012000001FE51D8B41200EAC175
:102F600086F0EBC187F0ECC188F0EDC189F000017B
:102F7000FB51D8B405D0F9C085F00F0E0001F96FF0
:102F8000000E00018B6FDFD000018B51020D000E8F
:102F9000F324D96E020EF420DA6EDECFFCF0DDCF22
:102FA000FDF0000E00018A6F130E00018A6501D04A
:102FB000BED000018B51140D7B0E0001836F020EF9
:102FC0000001846FF35000018327F4500001842333
:102FD00000018A51010DF35000018325D96EF45090
:102FE00000018421DA6EDFAE9AD000018B51140DFE
:102FF0007B0E0001836F020E0001846FF35000010D
:103000008327F4500001842300018A51010DF350FD
:1030100000018325D96EF45000018421DA6E7F0E01
:10302000DF1600018B51140D7B0E0001836F020E21
:103030000001846FF35000018327F45000018423C2
:1030400000018A51010DF35000018325D96EF4501F
:1030500000018421DA6EDF50D8B44AD0EEC069F0A6
:10306000EFC06AF086C06BF087C06CF088C06DF06E
:1030700089C06EF0F2C16FF0F3C170F0F4C171F06D
:10308000F5C172F021ECB7F000018B51140D7B0EED
:103090000001836F020E0001846FF350000183274B
:1030A000F4500001842300018A51010DF350000106
:1030B0008325D96EF45000018421DA6EDF5005ECCF
:1030C000ABF065C072F066C073F086C074F087C064
:1030D00075F088C076F089C077F0F2C178F0F3C15E
:1030E00079F0F4C17AF0F5C17BF074ECB1F017D04F
:1030F000000E00016A6F000E696F86C06BF087C01A
:103100006CF088C06DF089C06EF0F2C16FF0F3C151
:1031100070F0F4C171F0F5C172F021ECB7F0060E59
:1031200000018627000E872300018A2B3DD7080E59
:1031300000018827000E8923000E0001876F060E0C
:10314000866F00018B2B00018B510001F95DD8B017
:103150001BD70001FB51D8B41200000E0001FB6F19
:1031600085C0F9F01200000E0201766F0001CB510C
:103170000001CC110001CD110001CE11D8A425D041
:10318000000E0001606F000E616F000E626F000E96
:10319000636FCFC064F0D0C065F0D1C066F0D2C01C
:1031A00067F0DEEC9EF00001D8A005D0000E010112
:1031B0001C6F210E1B6F000E0001CB6F000ECC6F39
:1031C000000ECD6F000ECE6F12000001CF51000136
:1031D000D0110001D1110001D211D8A40AD0000EE3
:1031E0000001CB6F000ECC6F800ECD6F3F0ECE6F07
:1031F00012000001CEAF58D0CFC087F0D0C088F009
:10320000D1C089F0D2C08AF055ECA8F087C077F21F
:1032100088C078F289C079F28AC07AF277C260F009
:1032200078C261F079C262F07AC263F0000EB0EC4D
:103230009AF00001CF510001601910E10001D05156
:10324000000161190BE10001D1510001621906E191
:103250000001D25100016319D8B40FD0000E010152
:103260001C6F210E1B6F000E0001CB6F000ECC6F88
:10327000000ECD6F000ECE6F120002017751010BD0
:103280000201766FCBC060F0CCC061F0CDC062F0BF
:10329000CEC063F039ECBDF060C0CBF061C0CCF0C3
:1032A00062C0CDF063C0CEF0CBC0B8F0CCC0B9F0F6
:1032B000CDC0BAF0CEC0BBF06BECA0F0B8C06EF2DF
:1032C000B9C06FF2BAC070F2BBC071F26EC26EF0DC
:1032D0006FC26FF070C270F071C271F0CFC072F047
:1032E000D0C073F0D1C074F0D2C075F03AEC89F060
:1032F0006EC072F26FC073F270C074F271C075F27A
:1033000072C2C0F073C2C1F074C2C2F075C2C3F021
:10331000DCEC92F0C0C0CBF0C1C0CCF0C2C0CDF0AC
:10332000C3C0CEF0020176510201D8B413D0CBC095
:1033300060F0CCC061F0CDC062F0CEC063F039EC7B
:10334000BDF060C0CBF061C0CCF062C0CDF063C016
:10335000CEF01200CBC0CBF0CCC0CCF0CDC0CDF0C5
:10336000CEC0CEF01200570E00019B6F010E00017F
:103370009C6F000E00019E6F020E9D6F760E000185
:103380009F6F800E0001A06F010E0001A16FFE0E65
:103390000001A26F7E0E0001A36F010E0001A46F59
:1033A000920E0001A56F800E0001A66F010E0001B4
:1033B000A76F33ECAAF0390E00019B6F010E0001DC
:1033C0009C6F000E00019E6F020E9D6F760E000135
:1033D0009F6F800E0001A06F010E0001A16F5E0EB5
:1033E0000001A26F7F0E0001A36F010E0001A46F08
:1033F000920E0001A56F800E0001A66F010E000164
:10340000A76F33ECAAF02F0E00019B6F010E000195
:103410009C6F000E00019E6F020E9D6F760E0001E4
:103420009F6F800E0001A06F010E0001A16F460E7C
:103430000001A26F7F0E0001A36F010E0001A46FB7
:10344000920E0001A56F800E0001A66F010E000113
:10345000A76F33ECAAF0430E00019B6F010E000131
:103460009C6F000E00019E6F020E9D6F760E000194
:103470009F6F800E0001A06F010E0001A16F2E0E44
:103480000001A26F7F0E0001A36F010E0001A46F67
:10349000920E0001A56F800E0001A66F010E0001C3
:1034A000A76F33ECAAF04D0E00019B6F010E0001D7
:1034B0009C6F000E00019E6F020E9D6F760E000144
:1034C0009F6F800E0001A06F010E0001A16F160E0C
:1034D0000001A26F7F0E0001A36F010E0001A46F17
:1034E000920E0001A56F800E0001A66F010E000173
:1034F000A76F33ECAAF0A00E00018D6F860E8E6FC1
:10350000010E8F6F000E906F000E0001916F020E82
:103510000001926F8DEC8BF0610E00016F6F010E58
:103520000001706FE7ECB6F0000E0001A96F000E0D
:10353000A86F0001A95113E1080E0001A85DD8B0E1
:103540001200270E0001A825D96E010E0001A92145
:10355000DA6E000EDF6E0001A84BA92BEAD712002D
:103560000001686F000168510001D8B41ED000014D
:1035700063AF1BD060C064F061C065F062C066F0EC
:1035800063C067F00001641F651F661F671F642B1F
:10359000000E65236623672364C06AF065C06BF084
:1035A00066C06CF067C06DF008D060C06AF061C0A2
:1035B0006BF062C06CF063C06DF0000160510001FF
:1035C00061110001621100016311D8A40AD0000E3C
:1035D0000001606F000E616F000E626F000E636F7E
:1035E0001200960E0001696F08D00001692B0001DE
:1035F000D8906D336C336B336A33000E00016A155B
:103600000001646F000E00016B150001656F000E74
:1036100000016C150001666FFE0E00016D150001C2
:10362000676F00016451000165110001661100011E
:103630006711D8B410D0D9D70001692B010E000151
:103640006A27000E6B236C236D230001D8906D3325
:103650006C336B336A33000E00016A150001646F2E
:10366000000E00016B150001656F000E00016C1566
:103670000001666FFF0E00016D150001676F00010C
:103680006451000165110001661100016711D8B491
:1036900009D0D2D7000169070001D8906A376B378B
:1036A0006C376D3700016CBF04D0020E00016961F8
:1036B000F1D7000169B109D0FF0E00016A17FF0EB2
:1036C0006B177F0E6C17FF0E6D170001D8906933D2
:1036D00069C064F00001656B666B676B64C067F07E
:1036E0000001666B656B646B0001645100016A1335
:1036F0000001655100016B130001665100016C135C
:103700000001675100016D13000168510001D8B438
:1037100005D0000163AF02D000016D8F6AC060F078
:103720006BC061F06CC062F06DC063F0120086C0C7
:10373000D9FF87C0DAFFDECF8BF0DDCF8CF0050E2E
:1037400000018A6FB5D0000120EE02F08651D92623
:103750008751DA22DECF60F0DDCF61F088C062F001
:10376000010E0001636FD0ECB8F0B0D08BC06FF0E9
:103770008CC070F0010E0001716F88C072F081EC96
:10378000B5F000018A6F00018A51D8A4120000012F
:1037900020EE02F08651D9268751DA22DECF60F082
:1037A000DDCF61F088C062F0000E0001636FD0ECE5
:1037B000B8F0000120EE04F08651D9268751DA22B4
:1037C000DECF60F0DDCF61F088C062F0000E000156
:1037D000636FD0ECB8F07AD08BC06FF08CC070F013
:1037E000020E0001716F88C072F081ECB5F000012B
:1037F0008A6F00018A51D8A41200000120EE02F065
:103800008651D9268751DA22DECF60F0DDCF61F014
:1038100088C062F0010E0001636FD0ECB8F00001C7
:1038200020EE04F08651D9268751DA22DECF60F0EF
:10383000DDCF61F088C062F0010E0001636FD0EC53
:10384000B8F044D08BC06FF08CC070F0000E000157
:10385000716F88C072F081ECB5F000018A6F0001D1
:103860008A51D8A41200000120EE02F08651D92618
:103870008751DA22DECF60F0DDCF61F088C062F0E0
:10388000000E0001636FD0ECB8F0000120EE04F0F0
:103890008651D9268751DA22DECF60F0DDCF61F084
:1038A00088C062F0000E0001636FD0ECB8F00ED05B
:1038B00000018951000AD8B446D7010AD8B456D7B6
:1038C000030AD8B489D7010AD8B4BCD7080E0001BE
:1038D000862500016F6F000E000187210001706FC7
:1038E00088C071F089C072F0BAECBBF01200000120
:1038F000796FB1D017ECB2F0120092ECB9F012006F
:10390000E8ECB3F0120099ECACF012009DECB8F0CA
:1039100012002CECBFF0120079C076F07F0E00018F
:1039200076170001F951140D7B0E0001776F020E1E
:103930000001786FF35000017727F45000017823DD
:103940000001FA51010DF35000017725D96EF450B2
:1039500000017821DA6EDF507F0B00017619D8B4B0
:103960002ED0010E0001FE6F0001F951140D7B0EE7
:103970000001766F020E0001776FF3500001762789
:10398000F450000177230001FA51010DF3500001BA
:103990007625D96EF45000017721DA6E0001795155
:1039A0008009DF6E0001F951020D000EF324D96E7B
:1039B000020EF420DA6EFCC0DEFFFDC0DDFF9DECE0
:1039C000B8F00009D8B4120079C076F07F0E00017B
:1039D00076170001F951140D7B0E0001776F020E6E
:1039E0000001786FF35000017727F450000178232D
:1039F0000001FA51010DF35000017725D96EF45002
:103A000000017821DA6EDF507F0B00017619D8B4FF
:103A10001200010E0001FE6F0001F951140D7B0E22
:103A20000001766F020E0001776FF35000017627D8
:103A3000F450000177230001FA51010DF350000109
:103A40007625D96EF45000017721DA6E00017951A4
:103A50008009DF6E120000017951070AD8B456D7E9
:103A60000F0AD8B44AD7010AD8B44DD7030AD8B43C
:103A700041D7060AD8B444D7010AD8B43BD72D0A97
:103A8000D8B44AD7030AD8B444D746D762C068F03E
:103A90000001696B6A6B000161350001683701E361
:103AA0006981000168510001706F00017051D8A454
:103AB0000AD0000E0001606F000E616F000E626F91
:103AC000000E636F120066C068F00001696B6A6BDC
:103AD000000165350001683701E369810001685123
:103AE00000016F6F00016F51D8A40AD0000E0001D1
:103AF000606F000E616F000E626F000E636F120048
:103B00000001618FFF0E00016017FF0E00016117B9
:103B1000000E000162170001658FFF0E000164179F
:103B2000FF0E00016517000E00016617000E000170
:103B30006B6F000E6C6F000E6D6F000E6E6F7F0E60
:103B40000001705F00016F51980F0001705F180E47
:103B500000016F6F0001D8906B376C376D376E378F
:103B6000000164510001605D00016551000161596F
:103B70000001665100016259D8A00ED000016451C5
:103B80000001605F000165510001615B0001665149
:103B90000001625B00016B810001D89060376137E2
:103BA000623700016F2FD6D7000170AF1AD0000125
:103BB0007051800A970FD8B00AD0000E0001606FD4
:103BC000000E616F000E626F000E636F1200000145
:103BD000D8906E336D336C336B330001703FF7D781
:103BE0001BD0170E0001706512D0000E0001606F2F
:103BF000000E616F000E626F000E636F1200000115
:103C0000D8906B376C376D376E3700017007000145
:103C100070510001D8A4F3D76BC060F06CC061F0A4
:103C20006DC062F06EC063F012000001A251CEECD4
:103C3000B0F0A0C0D9FFA1C0DAFF000160C0DEFF74
:103C4000000161C0DDFF0001A25121ECB1F00001D3
:103C500020EE06F0A051D926A151DA22000160C061
:103C6000DEFF000161C0DDFF0001A25121ECB1F0D7
:103C7000000120EE04F0A051D926A151DA22000162
:103C800060C0DEFF000161C0DDFF0001A2517BECDE
:103C9000B0F0000120EE02F0A051D926A151DA22A5
:103CA000000160C0DEFF000161C0DDFF000120EE09
:103CB00004F0A051D926A151DA22DECFA3F0DDCF46
:103CC000A4F0A3C0D9FFA4C0DAFF000EDF6E00018C
:103CD00020EE02F0A051D926A151DA22DECFA3F0C6
:103CE000DDCFA4F0A3C0D9FFA4C0DAFFFF0EDF6EC2
:103CF000A0C09AF0A1C09BF0000E00019C6F96EC52
:103D000096F0000E0001A56F070E0001A56531D0E9
:103D10004BD0A0C086F0A1C087F0A5C088F0030EEC
:103D20000001896F97EC9BF03CD0A0C086F0A1C049
:103D300087F0A5C088F0020E0001896F97EC9BF018
:103D400030D0A0C086F0A1C087F0A5C088F0010ED9
:103D50000001896F97EC9BF024D0A0C086F0A1C031
:103D600087F0A5C088F0000E0001896F97EC9BF0EA
:103D700018D0A0C0D9FFA1C0DAFFDECF6CF0DDCF34
:103D80006DF0A5C06EF0C0ECBCF0000AD8B4C1D78D
:103D9000010AD8B4D6D7030AD8B4C7D7010AD8B411
:103DA000DCD70001A52BB0D7A0C06FF0A1C070F088
:103DB000000E0001716F7CEC8FF01200000E00010C
:103DC00060150001686F000E000161150001696F48
:103DD000800E0001621500016A6F7F0E00016315FD
:103DE00000016B6F000168510001691100016A1147
:103DF00000016B11D8A409D0000E0001606F000E05
:103E0000616F000E626F000E636F000E000164159B
:103E10000001686F000E000165150001696F800EDA
:103E20000001661500016A6F7F0E00016715000131
:103E30006B6F000168510001691100016A110001F6
:103E40006B11D8A409D0000E0001646F000E656FDD
:103E5000000E666F000E676F000163AF26D060C072
:103E600068F061C069F062C06AF063C06BF0000185
:103E7000681F691F6A1F6B1F682B000E69236A2366
:103E80006B23000E000168250001606F000E000129
:103E900069210001616F000E00016A210001626F5B
:103EA000800E00016B210001636F000167AF26D017
:103EB00064C068F065C069F066C06AF067C06BF006
:103EC0000001681F691F6A1F6B1F682B000E6923A2
:103ED0006A236B23000E000168250001646F000E49
:103EE000000169210001656F000E00016A210001D7
:103EF000666F800E00016B210001676F000E0001EC
:103F0000601B000E611B000E621B800E631B000E07
:103F10000001641B000E651B000E661B800E671BF4
:103F2000000164510001605D0001655100016159AB
:103F30000001665100016259000167510001635997
:103F4000D8B002D0D8901200D8801200DD0E000147
:103F5000876F010E0001886FC7ECA9F087C000F1E0
:103F600088C001F189C002F18AC003F1CD0E0001C1
:103F7000CF6FCC0ED06F8C0ED16FBF0ED26F00C141
:103F8000CBF001C1CCF002C1CDF003C1CEF0B3EC57
:103F900098F0CBC0D7F0CCC0D8F0CDC0D9F0CEC00F
:103FA000DAF0000E0001726F000E736F680E746F0E
:103FB000420E756FD7C06EF0D8C06FF0D9C070F0E8
:103FC000DAC071F03AEC89F06EC087F06FC088F00B
:103FD00070C089F071C08AF055ECA8F087C021F15B
:103FE00088C022F1EF0E010121250001606FFF0E54
:103FF000010122210001616F000E0001636FC80EF4
:10400000626F55ECBDF060C066F061C067F0000EF5
:104010000001696F640E686FFAECACF066C0DEF008
:1040200067C0DFF00001DFBF0DD00001DF5105E107
:10403000C80E0001DE5DD8A005D0000E0001DF6FC4
:10404000C80EDE6F0001DFAF05D0000E0001DF6F8C
:10405000000EDE6F290E0001B06FFF0E0001B16F80
:1040600000EC80F0DEC060F0DFC061F00001000E07
:1040700061BFFF0E626F636F010EB0EC9AF060C01B
:104080006EF061C06FF062C070F063C071F0660ED8
:104090000001726F660E736FE60E746F3F0E756FE0
:1040A0003AEC89F06EC0D3F06FC0D4F070C0D5F098
:1040B00071C0D6F0C10E0001B06FFF0E0001B16FEC
:1040C000D3C0B2F0D4C0B3F0D5C0B4F0D6C0B5F010
:1040D00000EC80F012000001BBAF0FD0000E010118
:1040E0001C6F210E1B6F000E0001B86F000EB96F20
:1040F000000EBA6F000EBB6F12000001B851000134
:10410000B9110001BA110001BB11D8A40FD0000EE3
:1041100001011C6F220E1B6F000E0001B86F000E14
:10412000B96F000EBA6F000EBB6F1200000E0001D7
:10413000726F000E736F000E746F400E756FBC0EC1
:104140000001646F000E0001656FB8C060F0B9C077
:1041500061F0BAC062F0BBC063F06FECAEF060C05B
:104160006EF061C06FF062C070F063C071F03AEC45
:1041700089F06EC094F06FC095F070C096F071C079
:1041800097F0000E0001986F000E996F800E9A6FE5
:10419000BF0E9B6FE6EC86F094C0B8F095C0B9F006
:1041A00096C0BAF097C0BBF00001BC07D8A0BD070D
:1041B000B8C0A8F0B9C0A9F0BAC0AAF0BBC0ABF0B3
:1041C000D70E0001AC6FFE0E0001AD6F000E0001B6
:1041D000AF6F080EAE6FC9ECA7F0A8C0B8F0A9C0C9
:1041E000B9F0AAC0BAF0ABC0BBF0180E0001726FF4
:1041F000720E736F310E746F3F0E756FBCC060F03E
:10420000BDC061F00001000E61BFFF0E626F636F01
:10421000010EB0EC9AF060C06EF061C06FF062C049
:1042200070F063C071F03AEC89F06EC094F06FC02A
:1042300095F070C096F071C097F0B8C098F0B9C012
:1042400099F0BAC09AF0BBC09BF0E6EC86F094C03F
:10425000B8F095C0B9F096C0BAF097C0BBF01200A4
:1042600000016235633500016D6F00016D51D8A406
:104270000AD0000E0001606F000E616F000E626FC9
:10428000000E636F120000016635673500016C6F28
:1042900000016C51D8A40AD0000E0001606F000E1E
:1042A000616F000E626F000E636F12000001628F7B
:1042B000FF0E00016017FF0E6117FF0E6217000E60
:1042C00063170001668FFF0E00016417FF0E65176C
:1042D000FF0E6617000E6717000E0001686F000ED4
:1042E000696F000E6A6F000E6B6F7F0E00016D5FCD
:1042F00000016C51A00F00016D5F200E00016C6F7A
:104300000001D890683769376A376B37000164510C
:104310000001605D000165510001615900016651B5
:10432000000162590001675100016359D8A012D001
:10433000000164510001605F000165510001615B93
:10434000000166510001625B000167510001635B7F
:10435000000168810001D8906037613762376337A8
:1043600000016C2FCDD700016DAF1AD000016D5147
:10437000800A9F0FD8B00AD0000E0001606F000EB7
:10438000616F000E626F000E636F12000001D89023
:104390006B336A336933683300016D3FF7D71BD045
:1043A0001F0E00016D6512D0000E0001606F000E3F
:1043B000616F000E626F000E636F12000001D890F3
:1043C000683769376A376B3700016D0700016D5137
:1043D0000001D8A4F3D768C060F069C061F06AC07A
:1043E00062F06BC063F01200010E4B6E000E000114
:1043F000DB6F000E0001DC6F000E0001DD6F640E4C
:104400000001A06F020E0001A16F000E0001A26F5B
:1044100015EC9EF0A90E0001A06F010E0001A16F26
:10442000010E0001A26F15EC9EF0B30E0001A06F0B
:10443000010E0001A16F020E0001A26F15EC9EF0AB
:104440009F0E0001A06F010E0001A16F030E00017D
:10445000A26F15EC9EF0950E0001A06F010E0001F9
:10446000A16F040E0001A26F15EC9EF0BD0E0001BD
:10447000A06F010E0001A16F050E0001A26F15ECE7
:104480009EF08B0E0001A06F010E0001A16F060EC1
:104490000001A26F15EC9EF0BD0E0001866F010EAB
:1044A0000001876F050E0001886F000E0001896F03
:1044B00097EC9BF0A90E0001966F010E0001976F1B
:1044C000000E0001986F000E0001996F6BEC95F0E3
:1044D000BD0E0001866F010E0001876F060E000100
:1044E000886F030E0001896F97EC9BF08B0E000123
:1044F0009A6F010E00019B6F030E00019C6F96ECFA
:1045000096F08B0E00016F6F010E0001706F040EAC
:104510000001716F000E0001726F37ECACF0BD0E40
:1045200000016F6F010E0001706F060E0001716FC8
:10453000010E0001726F37ECACF0000E33ECB9F0F5
:10454000010E33ECB9F0000E9E6E000EA16E000E4F
:10455000A46E9B8E9B8C000E0001616F640E606FD9
:10456000FFECB7F0D08E12005BECB7F0000E00014C
:10457000986F000E976F0001985106E1590E0001E7
:10458000975DD8B08BD001D089D0D89000019735F5
:10459000F66E00019835F76E5D0EF626FB0EF722DB
:1045A000F86A000EF8220900800EF5180900F510CF
:1045B000D8A422D0000198511FE1580E0001975D48
:1045C000D8B01AD00001974B982BD890000197359E
:1045D000F66E00019835F76E5D0EF626FB0EF7229B
:1045E000F86A000EF8220900F5CF60F00A00F5CF56
:1045F00061F0FFECB7F04BD0D89000019735F66E24
:1046000000019835F76E5D0EF626FB0EF722F86A6C
:10461000000EF8220900000EF55E0900010EF55AA1
:10462000D8A020D0000E0001636FD890000197350C
:10463000F66E00019835F76E5D0EF626FB0EF7223A
:10464000F86A000EF8220900F5CF95F00900F5CFC1
:1046500096F096C095F00001966B00019551C0EC64
:10466000BEF015D0010E0001636FD89000019735A0
:10467000F66E00019835F76E5D0EF626FB0EF722FA
:10468000F86A000EF8220800F550C0ECBEF00001F8
:10469000974B982B0001985101E170D7000E000153
:1046A000616F640E606FFFECB7F0000E0001636F86
:1046B000290EC0ECBEF0010E54ECB3F0000E000168
:1046C000616F640E606FFFECB7F0000E00016A6F5F
:1046D000000E696FEDECB9F01200000120EE07F05A
:1046E0007B51D9267C51DA2201D80AD00500FA6E16
:1046F000DE50FD6EDE50FE6EDE50FF6EFA50120090
:104700000001836F7BC0D9FF7CC0DAFF00018351B9
:10471000DE18D8A421D0000120EE01F07B51D9266B
:104720007C51DA2200017D51DE5CD8B00AD0000154
:1047300020EE01F07B51D9267C51DA22000EDF6E8B
:104740001200000120EE01F07B51D9267C51DA22C3
:1047500000017D51DF5E1200000120EE01F07B516F
:10476000D9267C51DA22DF5000017E6F7F6B000179
:104770007D5100017E27000E7F23000120EE01F015
:104780007B51D9267C51DA22DF500001806F816B8A
:1047900000017E510001805D00018151800A00010D
:1047A000826F00017F51800A00018259D8B0120047
:1047B000000120EE01F07B51D9267C51DA22000164
:1047C0007D51DF26000120EE02F07B51D9267C517D
:1047D000DA22000110EE01F07B51E1267C51E22249
:1047E000E7500001806F816BDE500001805DDE507C
:1047F00000018159D8A012007BC0D9FF7CC0DAFF2C
:1048000083C0DFFF000120EE01F07B51D9267C51EF
:10481000DA22000EDF6E000120EE04F07B51D92673
:104820007C51DA2201D812000500FA6EDE50FD6ECE
:10483000DE50FE6EDE50FF6EFA5000018351120012
:10484000000E0001766F6C0E776FDC0E786F020E33
:10485000796F0001D8906D376E376F377037020E61
:104860000001716FD8900001793378337733763354
:104870000001712FF7D776C060F077C061F078C083
:1048800062F079C063F06DC064F06EC065F06FC017
:1048900066F070C067F059ECADF060C07AF061C0AE
:1048A0007BF062C07CF063C07DF010D0000E000190
:1048B000726F000E736F000E746F000E756F000143
:1048C000F62B020E0001F66501D026D07AC060F00A
:1048D0007BC061F07CC062F07DC063F00001F651E6
:1048E000010DCC0EF324F66EFC0EF420F76EF86A80
:1048F000000EF8220800F5500001646F656B666BCE
:10490000676B59ECADF00001635100016211CEE11B
:1049100000016105D8B0CAD7CA500001F619FC0BD6
:10492000F619CA6ECA842DECC0F00001F651010DD3
:10493000CC0EF324F66EFC0EF420F76EF86A000E2F
:10494000F8220800F5CFF5F0FF0E00017A250101ED
:10495000046FFF0E00017B210101056FFF0E0001B6
:104960007C210101066FFF0E00017D210101076F0F
:1049700004C160F005C161F006C162F007C163F0D7
:104980000001F5510001646F656B666B676B59EC54
:10499000ADF0000160510001F66FF6C0CBFF1200D0
:1049A000800E0001736F8D0E746F5B0E756F000EBD
:1049B000766FD59E00016D5100016E1100016F11DF
:1049C00000017011D8B41200D596D59CD59AD5980F
:1049D00073C060F074C061F075C062F076C063F0BF
:1049E0006DC064F06EC065F06FC066F070C067F0B7
:1049F00059ECADF060C077F061C078F062C079F03A
:104A000063C07AF00CD00001F82B020E0001F865AB
:104A100001D02FD0070E0001F86501D0120077C039
:104A200060F078C061F079C062F07AC063F0000194
:104A3000F851020D9F0EF324F66EFC0EF420F76E73
:104A4000F86A000EF8220900F5CF71F00900F5CFE1
:104A500072F071C064F072C065F00001666B676B44
:104A600059ECADF000016351CEE100016205D8B010
:104A7000CAD70001F851020D9F0EF324F66EFC0E0A
:104A8000F420F76EF86A000EF8220800F5CFF7F070
:104A9000FF0E000177250101086FFF0E000178214C
:104AA0000101096FFF0E0001792101010A6FFF0E5C
:104AB00000017A2101010B6F08C160F009C161F0AA
:104AC0000AC162F00BC163F00001F7510001646F8D
:104AD000656B666B676B59ECADF00001601F000100
:104AE000611F0001604B612BFF0E000160252E6EDF
:104AF000FF0E000161212F6E0DECC0F0D58E12006B
:104B000051B2DBEFA8F0000120EE04F0EA51D92603
:104B1000EB51DA22DF5000ECBCF00009D8B47AD0B7
:104B2000EAC0D9FFEBC0DAFFDE50DE10D8B46DD09A
:104B3000EAC0D9FFEBC0DAFF010EDBBE26D0010EC2
:104B4000DB5003E1DE04D8A020D0EAC0D9FFEBC0DF
:104B5000DAFFDE2804E17F0EDE18D8B407D0EAC001
:104B6000D9FFEBC0DAFFDE06000EDD5A950E00011C
:104B70006F6F010E0001706F000E0001716F010E6A
:104B80000001726F37ECACF01FD0EAC0D9FFEBC068
:104B9000DAFFDE0404E1800EDE18D8B407D0EAC0E4
:104BA000D9FFEBC0DAFFDE2A000EDD22950E0001F0
:104BB0006F6F010E0001706F000E0001716F000E2B
:104BC0000001726F37ECACF0950E00016F6F010EB3
:104BD0000001706F010E0001716F010E0001726F14
:104BE00037ECACF0950E00016F6F010E0001706F95
:104BF000010E0001716F000E0001726F37ECACF016
:104C00004AECBFF007ECC0F012004AECBFF038EC01
:104C1000C0F0120029C060F02AC061F02BC062F021
:104C2000F2ECBFF0120069ECB8F0CAECAEF0010E85
:104C3000A1ECBCF00009D8B456D019ECBAF0FC0EC7
:104C40000001B06FFF0E0001B16F000E0001B36FE5
:104C5000230EB26F00EC80F0E80E0001B06FFF0E83
:104C60000001B16FDEC0B2F0DFC0B3F000EC80F045
:104C7000D1ECBEF0F80E0001616F000E606F28EC01
:104C8000C0F00CD06DECABF01ED0B9ECB4F01BD082
:104C9000A6EC9FF018D021ECBCF015D02CC0FAF196
:104CA0002DC0FBF10101FB51000AD8A4F4D701018A
:104CB000FA51010AD8B4E6D7030AD8B4E6D7010AF4
:104CC000D8B4E6D7E8D7ABEC97F021C171F022C198
:104CD00072F04DECBEF0DFECBCF04AECBFF0000926
:104CE000D8A482ECBCF0080EA1ECBCF00009D8A45A
:104CF0000DD09BD702EC0AF020D0BEECBDF01DD049
:104D000064ECB9F01AD0D3ECABF017D02CC0FAF1A8
:104D10002DC0FBF10101FB51000AD8A40ED0010106
:104D2000FA51000AD8B4E6D7010AD8B4E6D7030A84
:104D3000D8B4E6D7010AD8B4E6D74AECBFF00009E8
:104D4000D8B473D782ECBCF070D70001B851000121
:104D5000B9110001BA110001BB11D8A40AD0000E8C
:104D60000001B86F000EB96F000EBA6F000EBB6F76
:104D700012000001BB517F0B0001BE6FBF6BD890CA
:104D80000001BE37BF370001BE510001BC27000142
:104D9000BF510001BD230001BAAF04D00001BE6BBA
:104DA000BE2B02D00001BE6B0001BE510001BC272A
:104DB000000EBD230001BDAF0FD0000E01011C6F1E
:104DC000220E1B6F000E0001B86F000EB96F000EAF
:104DD000BA6F000EBB6F12000001BDBF1ED00001F4
:104DE000BD05D8A01AD0000E01011C6F220E1B6F4A
:104DF0000001BBAF09D0FF0E0001B86FFF0EB96F05
:104E00007F0EBA6FFF0EE6D7FF0E0001B86FFF0EE0
:104E1000B96F7F0EBA6F7F0EDDD70001BD35BD3192
:104E20000001BF6F0001BC310001BE6F0001BB512A
:104E30000001BE19800BBE190001BB6FBCC0BEF0E3
:104E4000010E0001BE170001BE33BE330001BA518E
:104E50000001BE197F0BBE190001BA6FB8C0B8F0CF
:104E6000B9C0B9F0BAC0BAF0BBC0BBF01200A8C05C
:104E700060F0A9C061F0AAC062F0ABC063F0B00EF0
:104E80000001646F000E0001656F6FECAEF0000171
:104E9000B1AF17D00001ABAF0AD0000E0001A86F70
:104EA000000EA96F800EAA6FBF0EAB6F1200000E2E
:104EB0000001A86F000EA96F000EAA6F000EAB6F65
:104EC00012000001B15105E11D0E0001B05DD8A036
:104ED00009D0A8C0A8F0A9C0A9F0AAC0AAF0ABC088
:104EE000ABF01200A8C087F0A9C088F0AAC089F072
:104EF000ABC08AF055ECA8F087C060F088C061F0C4
:104F000089C062F08AC063F0010EB0EC9AF060C014
:104F1000ACF061C0ADF062C0AEF063C0AFF0A8C04D
:104F200060F0A9C061F0AAC062F0ABC063F0ACC091
:104F300064F0ADC065F0AEC066F0AFC067F0DEEC07
:104F40009EF00001D8B01CD0ACC094F0ADC095F07C
:104F5000AEC096F0AFC097F0000E0001986F000E43
:104F6000996F800E9A6FBF0E9B6FE6EC86F094C02F
:104F7000A8F095C0A9F096C0AAF097C0ABF01200B7
:104F8000ACC0A8F0ADC0A9F0AEC0AAF0AFC0ABF005
:104F90001200AEC0B0F0AFC0B1F00001D890B03791
:104FA000B1370001D890B037B137ACC0B2F0ADC066
:104FB000B3F00001B0510001B2270001B15100016E
:104FC000B323B2C0F6FFB3C0F7FF000EF86E0900BE
:104FD000F5CFB4F00900F5CFB5F00900F5CFB6F084
:104FE0000A00F5CFB7F052D0B4C072F0B5C073F07C
:104FF000B6C074F0B7C075F0A8C06EF0A9C06FF06D
:10500000AAC070F0ABC071F03AEC89F06EC094F0B9
:105010006FC095F070C096F071C097F00001AE07B8
:10502000D8A0AF07AEC0B0F0AFC0B1F00001D890CB
:10503000B037B1370001D890B037B137ACC0B2F05B
:10504000ADC0B3F00001B0510001B2270001B15171
:105050000001B323B2C0F6FFB3C0F7FF000EF86E35
:105060000900F5CF98F00900F5CF99F00900F5CFC8
:105070009AF00A00F5CF9BF0E6EC86F094C0B4F00D
:1050800095C0B5F096C0B6F097C0B7F00001AE512C
:105090000001AF11D8A4A8D7B4C0A8F0B5C0A9F03A
:1050A000B6C0AAF0B7C0ABF01200000189358A354E
:1050B0000001906F00019051D8A40AD0000E0001A9
:1050C000876F000E886F000E896F000E8A6F1200C6
:1050D00087C08BF088C08CF089C08DF08AC08EF0BC
:1050E000200E06D00001D8908E338D338C338B3355
:1050F000E82EF8D700018B5100018F6F0001898FD6
:10510000FF0E00018717FF0E8817FF0E8917000E8C
:105110008A17960E0001905F000190AF1AD000012F
:105120009051800A970FD8B00AD0000E0001876F07
:10513000000E886F000E896F000E8A6F120000014A
:10514000D8908A338933883387330001903FF7D76B
:105150001BD01F0E0001906512D0000E0001876F5A
:10516000000E886F000E896F000E8A6F120000011A
:10517000D8908737883789378A3700019007000130
:1051800090510001D8A4F3D700018F510001D8B489
:1051900009D000018A1F891F881F876D000E882390
:1051A00089238A2387C087F088C088F089C089F066
:1051B0008AC08AF01200000120EE04F0EA51D926DC
:1051C000EB51DA22DF5070ECBDF00009D8B46AD0A0
:1051D000EAC0D9FFEBC0DAFFDE50DE10D8B45DD0F4
:1051E000EAC0D9FFEBC0DAFF010EDBBE22D0010E10
:1051F000DB5003E1DE04D8A01CD0EAC0D9FFEBC02D
:10520000DAFFDE2804E17F0EDE18D8B407D0EAC04A
:10521000D9FFEBC0DAFFDE06000EDD5A950E106EE8
:10522000010E116E000E126E010E136E26ECB0F020
:105230001BD0EAC0D9FFEBC0DAFFDE0404E1800E28
:10524000DE18D8B407D0EAC0D9FFEBC0DAFFDE2AF7
:10525000000EDD22950E106E010E116E000E126E04
:10526000000E136E26ECB0F0950E106E010E116E4E
:10527000010E126E010E136E26ECB0F0950E106E3C
:10528000010E116E010E126E000E136E26ECB0F0C0
:1052900044ECC0F013ECC0F0120044ECC0F041EC60
:1052A000C0F0120029C001F02AC002F02BC003F0A8
:1052B00000ECC0F0120067C06FF068C070F0000E24
:1052C00000016E6F000E6D6F69C06BF06AC06CF00C
:1052D00000016F5100017011D8A434D06BC0D9FF08
:1052E0006CC0DAFF300EDF6E000E00016E6F010E33
:1052F0006D6F40D06FC060F070C061F0000E0001B3
:10530000636F0A0E626F02ECB9F000016051300F5A
:105310006BC0D9FF6CC0DAFFDF6E6FC060F070C089
:1053200061F0000E0001636F0A0E626FFCECB5F0D5
:1053300060C06FF061C070F000016D4B6E2B00011A
:105340006B4B6C2B00016F5100017011D8B408D069
:1053500000016E5105E1060E00016D5DD8A0CAD7AF
:1053600069C060F06AC061F06DC062F06EC063F049
:1053700093ECB7F000016D5100016925D96E000171
:105380006E5100016A21DA6E000EDF6E1200000E0F
:1053900000018D6F000E8E6F800E8F6F440E906F28
:1053A000330E0001916F330E926F530E936F400EC8
:1053B000946F000120EE01F08751D9268851DA223E
:1053C000DECF8BF0DDCF8CF08BC060F08CC061F055
:1053D0000001626B636B000EB0EC9AF060C095F058
:1053E00061C096F062C097F063C098F095C060F01D
:1053F00096C061F097C062F098C063F08DC064F011
:105400008EC065F08FC066F090C067F09CEC8DF0A8
:1054100060C095F061C096F062C097F063C098F0EC
:1054200095C06EF096C06FF097C070F098C071F0A4
:1054300091C072F092C073F093C074F094C075F094
:105440003AEC89F06EC095F06FC096F070C097F09E
:1054500071C098F095C087F096C088F097C089F029
:1054600098C08AF0120000019B5100019C11D8B431
:10547000120000019F510001A0110001A111D8B438
:1054800012000001A2510001A3110001A411D8B41F
:1054900012000001A5510001A6110001A711D8B406
:1054A000120000019D5100019E11D8A405D0000EEC
:1054B00000019E6F010E9D6F9BC0D9FF9CC0DAFF5B
:1054C000000EDF6E000120EE01F09B51D9269C51A9
:1054D000DA22000EDF6E000120EE02F09B51D92689
:1054E0009C51DA229DC0DEFF9EC0DDFF000120EE50
:1054F00004F09B51D9269C51DA22A5C0DEFFA6C03C
:10550000DEFFA7C0DEFF000120EE07F09B51D92689
:105510009C51DA22A2C0DEFFA3C0DEFFA4C0DEFFE2
:1055200001D812000500FA6E00019F51FD6EA051D6
:10553000FE6EA151FF6EFA5012008DC0D9FF8EC0D1
:10554000DAFF000EDE6E000EDD6E000120EE02F0CE
:105550008D51D9268E51DA22000EDE6E000EDD6EE0
:10556000000120EE04F08D51D9268E51DA228FC031
:10557000DEFF90C0DDFF950E0001866F010E000179
