:100000000DEF04F026EF00F004EF0AF0D1EC04F05D
:10001000FF0000F000F012000CEF0AF018EF00F003
:10003000F26AFC6A9BEC04F004009EEC09F0D8EC38
:1000400003F0F3EC03F05EEC08F0F6D701501F0B61
:10005000E80601E01200055001E01200060E021849
:1000600014E01AD0020E3D6E4A0E3FD8306A090ED7
:100070000AD0020E3D6E450402E1870E36D84504D3
:100080000AE1306A1D0E2F6E06D00450210AEAE004
:10009000030AEFE0010A42820138E832030BE80666
:1000A00014E01200020E3D6E440E206E24D0020EAB
:1000B0003D6E04C044F0020C020E3D6E430EF5D7B7
:1000C000020E3D6E03C043F0020C0250010AD8B488
:1000D0001200030AE7E0010AEFE00A0AD8B41200AE
:1000E000030AE5E0010AECE01200206E2050D8A4DB
:1000F000100E216E1200216A4292010E2F6E010C29
:100100004F6A140E506E516A296A2A6A4FC0F6FF70
:1001100050C0F7FF51C0F8FF42D80800F5CFDFFF0D
:100120004F2A000E50225122294A2A2A040E2A5C04
:10013000EDE30D0EE8CFB2F4600EE8CFB3F4000E9D
:10014000496E050E486E0AEC03F04F68170E506EAC
:10015000516A030E2A6E296851C0F8FF50C0F7FF9C
:100160004FC0F6FF1CD8DF50F56E0C0029C04EF0D2
:100170003F0E4E1607E1FEEC09F0040EA66EB50E1A
:1001800067EC04F04F06000E505A515A0A002950ED
:100190002A1001E112002906D8A02A06DDD7AC0EEC
:1001A0002924D96E040E2A20DA6E120003040BE112
:1001B00001501F0B08E1010E3D6E030E021802E113
:1001C000428001D042900350D8A4120001501F0B6E
:1001D000020AD8A4120005500F0BD8B4120028D878
:1001E000476A040E486E4726000E4822F350472601
:1001F000F450482223D847241D6EF45048201E6E28
:10020000030E021805E10FD8040EDF6E0CD81CD0C7
:1002100005AE04D008D8400EDF6E400C04D8080E9E
:10022000DF6E01D811D01DC0D9FF1EC0DAFF120049
:10023000010E3D6E05500F0B080D1200010E05AEAC
:10024000000E040DF3501200000EDB8E000C3D502A
:1002500010E193EC03F0196E3A0405E1010E32EC63
:1002600003F03A6A1200000E32EC03F0010E3A6E0F
:10027000010C01AE1BD0010E3E6E2F50075C3050BA
:10028000085804E207C02FF008C030F076EC01F007
:10029000480E196E010E32EC03F0000E32EC03F042
:1002A000240E04010A6F040E0B6F1CD0020E3E6E6A
:1002B000040E196E0750081002E1480E196E3A0438
:1002C00005E1010E32EC03F03A6A05D0000E32EC83
:1002D00003F0010E3A6E07500810D8A41200040172
:1002E000096B00D0480E086F088F480C080E326E5C
:1002F00030500DE1080E2F5C0AE22FC032F0405062
:1003000002E1010E03D0400402E1020E406E32C051
:1003100009F432502F5E000E305A240E1D6E040E6A
:100320001E6E42A21AD00BD01BD813EC01F00F0E98
:10033000F76403D00800F55001D019D81ED8325008
:10034000F3E112000DD813EC01F00F0EF76403D0A7
:100350000800F55001D00BD810D83250F3E112004C
:1003600020C0F6FF21C0F7FF000EF86E1200F6CF96
:10037000E1FFF7CFE2FFE7501200DF6E1D4A1E2AB1
:10038000204A212A320612000138E832030B18E015
:100390001200010E3D6E040E416E040C010E3D6E06
:1003A000450E206E7BEF00F02CD8496E49C020F03E
:1003B0007BEF00F026D8D96EDA6A03C0DFFF1200A7
:1003C000025002E179EF02F0010A02E1D6EF00F0FB
:1003D000020A02E1D6EF00F0060ADBE0030A02E1BE
:1003E00006EF02F0010AD8B412000F0AD7E0010AA2
:1003F00002E155EF03F0030AD7E0010ADBE0070A48
:100400001200010E3D6E0550460F1200800E0118BD
:1004100030E01200010E3D6EA40E75EC00F0120EDD
:1004200009D003502DE1010E3D6E380E75EC00F041
:10043000306A290E2F6E24D0010E3D6E0350010F3D
:10044000476E47C0F6FF100EF76E000EF86E0900FB
:10045000F5CF20F0100E216EB0EC01F00F0EF76416
:1004600003D00800F55002D0B7EC01F02F6E306ACF
:1004700007D00450010ACEE0030AD3E0010ADCE011
:1004800042821200366A27D03850486E000E48BEAD
:10049000FF0E496E4A6E4B6E4850155C0D6E49500A
:1004A00016580E6E4A5017580F6E4B501858106E53
:1004B0000FC0F8FF0EC0F7FF0DC0F6FF11D80D00FA
:1004C000362A0ED80C00362A240EA66EB50E67EC1E
:1004D00004F0FE0E38263850800A7F0FD5E2120055
:1004E000AC0E3624D96EDA6A040EDA22DF50F56ECD
:1004F0001200246B256B22D0010E3D6E42B0248386
:1005000024D0010E3D6E21D018EC01F0476A040E94
:10051000486E4726000E4822F3504726F4504822E2
:100520001EEC01F047241D6EF45048201E6E13ECA3
:1005300001F0DFA40AD0010E246F07D001501F0B79
:10054000DBE0010ADEE0030ADFE03D04D8A412008C
:10055000240E206E040E216E4292020E2F6E020CAB
:10056000400E486401D0486E4A6A0DD047504A2474
:10057000D96EDA6A6C0E4A24E16EE26A040EE22257
:10058000DFCFE7FF4A2A48504A5CF0E348C011F445
:10059000400E0401101710BD03D0496A492A01D04A
:1005A000496A493A49464946040110514918BF0B66
:1005B0004918106F1087108F12003F6A0CBF12008D
:1005C00048500D5D02E20DC448F03F6A0BD02C0E7E
:1005D0003F24D96EDA6A040EDA2247503F24F9EC40
:1005E00009F03F2A48503F5CF2E3400E0D6F0C17B4
:1005F0000CBD03D0496A492A01D0496A493A4946A3
:10060000494604010C514918BF0B49180C6F0C875F
:100610000C8F1200495006E1050E485C03E2496A5E
:10062000050E486E48504A6E49504B6E4C6A4D6AF2
:100630000A0ED8904A364B364C364D36E82EF9D74E
:100640004AC009F04BC00AF04CC00BF04DC00CF092
:100650000BC0F8FF0AC0F7FFF66A140EA66EB50EBF
:1006600067EF04F0476E080E1A6E1C0E1B6E040E28
:100670001C6E475006E1140E1B6E040E1C6E256A9C
:1006800002D0040E256E266E0BD819C0DEFF1AC0EC
:10069000DEFF1BC0DEFF1CC0DEFF02D8DF8E1200B3
:1006A00025C0D9FF26C0DAFF1200010E3D6E0F01F2
:1006B00016D8346A3450460FD96EDA6ADF6A342AA3
:1006C0003450F8E003C045F04550C9EC04F0035045
:1006D00003E1050E416E050C060E416E060C4D6BD6
:1006E0004E6B4F6B506B516B526B536B1200040E81
:1006F000411808E103C05EFF0F015E51050ED8B43A
:10070000030E416E3E04D8A4120076EC01F0020EF6
:10071000401802E108D8040C0401480E08BD080E78
:10072000086F088F1200040E0401086F088F040C74
:10073000030E416E0F015D6B626A7B0E5C6F5E6B38
:100740006FEC03F0160E4C6F658C03D06296FEECD6
:1007500009F062B6FBD7659C6598040E196E000E11
:1007600032EC03F0010E3A6E426A456A000EC9EFA0
:1007700004F081B818EC00F0060EF66E14D80D0ED9
:10078000F5180DE10900600EF51809E1F66A0BD8BD
:10079000F52803E10900F52802E000EF0AF018EC63
:1007A00000F000EF00F0140EF76EF86A0900140C68
:1007B0002306D8A0240623502410D8A412004E0EDD
:1007C000246E236A060E416002D08B80060C8BB02B
:1007D00003D0476A472A01D0476A8B504718FE0B5F
:1007E00047188B6E1200C0BC1200030ED36E6592C8
:1007F0006596F26A0ED808D0C0AC04D02D06D8A0F9
:100800002E0601D006D804002D502E10F5E1FF0071
:100810001200040E2E6E2D6A040C04EEACF014EEE1
:1008200000F0EE6AE550E150FCE1E250FAE100EE42
:1008300060F0820EEE6AE806FDE100EE01F0460E81
:10084000EE6AE806FDE10001B9EF03F00401086B70
:10085000406A00AF02D0006B3A6A04AF03D0046B69
:10086000010E3A6E3E6A3D6A2F6A306A6598C4ECA2
:1008700001F002EC00F027EF01F005D80AD8376A42
:100880000CD8386A12007E0E3B6E116AFC0E126E96
:10089000FC0C010E136E146A000C156816681768BC
:1008A000186812003F6A1E0E0F014D6F400E0401C2
:1008B0000D6F2C0E0E6F040E0F6F080E0C6F0C8F49
:1008C0006C0E126F040E136F400E106F400C476ECB
:1008D000F29EF3EC03F0B50E471804E0030ED36E5E
:1008E0000300FED7550EA76EAA0EA76EA682A6B26B
:1008F000FED7A69412005CCF35F0040E0F015C6F9A
:1009000062986582A198A088AAEC04F0A09835505E
:100910000F015C131200390402E1D1EC04F0656AA6
:10092000150E0F015F6F5C6B658698EC03F0010E8E
:10093000416E396A1200600ED36E9B8CDCEC04F0C1
:10094000BFEC04F0C16AC26A3DEC04F08B90949055
:10095000E7EF04F08B90D3CF31F00300A1B802D0C1
:10096000D0A6FBD731C0D3FF1200D9EC04F06592BA
:100970000F015C9501D0629462A41200FCD705D0EF
:10098000FEEC09F04706D8A0480647504810F8E1A9
:100990001200476E4704D8A4120052EC04F03DEF59
:1009A00004F06592656A48684768BFEC04F0416AE4
:1009B000120002D8BFEF04F0030E486E476A030C22
:1009C000390401E1120065A68BEC04F0120065B653
:0E09D000D1EC04F0396AE0EF04F012001200DE
:1010000000B6046134034D006900630072006F0094
:1010100063006800690070002000540065006300F0
:1010200068006E006F006C006F00670079002000A0
:1010300049006E0063002E000902290001010080B2
:10104000320904000002030000000921110100011F
:10105000221D000705810340000107050103400030
:101060000126034800490044002000550053004277
:1010700000200042006F006F0074006C006F006180
:10108000006400650072000600FF0901A10119015A
:101090002940150026FF0075089540810019012997
:1010A000409100C01201000200000008D8043C007A
:0B10B00001010102000104030904001B
:1010BC00060E4118D8B465B21200375001E017D1B2
:1010CC0004010CBF1200600E476E400E486EDDEC42
:1010DC0002F0010E376E276A286A2750A10FD96ECD
:1010EC00DA6A000EDF6E274A282A285005E1400EE6
:1010FC00275CD8B01200F1D71200020EA16F3A0E85
:10110C00A26F010EA36FA46FA56B140EA66FA76B35
:10111C00A86B000E1124A96FEC0E1220AA6FFF0E03
:10112C001320AB6FFF0E1420AC6F030EAD6FF80ED7
:10113C00AE6FAF69010EB06FB16B080EB26FB36BCF
:10114C00B46BB56BB669A50EDA6F040110BFA50CB4
:10115C00A10E476E400E486EB0EC02F0376A1200DA
:10116C00615106E17F0E3B6EF80E116E126802D0D3
:10117C0043EC04F049EC04F0F1D7286A050E276E15
:10118C000CD0FEEC09F027C048F028C049F00AEC5E
:10119C0003F09EEC09F0274A282A3B50526E536A02
:1011AC00522A000E53225250275C53502858D6E234
:1011BC00E8D715280EE116280CE117280AE11828A3
:1011CC0008E161C015F062C016F063C017F064C08E
:1011DC0018F015506119C2E116506219BFE1175091
:1011EC006319BCE118506419B9E1276A286A1AD04E
:1011FC006551A0082724D96EDA6AAC0E3824E16E4A
:10120C00E26A040EE222DFCFE7FF382A152A000E2D
:10121C001622172218223A0E381802E142EC02F07C
:10122C00274A282A00017CD899E2E2D742EC02F046
:10123C004DEC04F093D7070EA16F61C0A2F062C011
:10124C00A3F063C0A4F064C0A5F065C0A6F063C0B1
:10125C00F8FF62C0F7FF61C0F6FF276A286A0BD05F
:10126C00090000016551E1082724D96EDA6AF5CF2F
:10127C00DFFF274A282A54D8F3E3040110BF1200D9
:10128C0067D780EC00F06AD70C0EA16F010EA36F2C
:10129C00020EA26F160EF66ED3EC03F0F5CFA4F08F
:1012AC000A00F5CFA5F0060EA66F140EA76FA86B5B
:1012BC00A96B600EAB6F0D0EAA6FAC6B040EAD6F0D
:1012CC00000EAE6BAF6BB069B169B269B369B4694A
:1012DC00B569B669B769B86BB96BBA6BBB6BBC6BEC
:1012EC00BD6BBE6BBF6BC9D706EC00F037D70001E6
:1012FC006051020A01E101D7010A01E131D7070A65
:10130C0001E13BD7010A01E154D7030A8FE0010A3E
:10131C0092E00F0AE9E0010AB4E0050AB5E01ED735
:10132C006551526E536A5250275C53502858120024
:10133C00E0EC04F0415001E1120062B4B5EC04F0B1
:10134C0065B2120062B098EC03F062B87BEC04F06A
:10135C00030E416001D0030C3C6A62A6120064507B
:10136C0064CF4AF07C0E4A162AE164B203D02B6A91
:10137C00040E02D0040E2B6E2C6E62962BC0D9FF7D
:10138C002CC0DAFFDF30E8320F0B0D0A20E1336A94
:10139C0023D8DECF4AF0DDCF4BF04AC0D9FF4BC08B
:1013AC00DAFF3350010F1FD817D8DE2A000EDD22CA
:1013BC00332A070E3364ECD726EC04F008D0040E65
:1013CC00641804E1629677EC03F001D062963C2A33
:1013DC00030E3C64C2D7030C20EE02F02B50D9262E
:1013EC002C50DA221200E16EE26ADFCFE7FF120026
:0413FC0004001200D7
:1014000055EF0AF012000D605182FACF17F0FBCFB2
:1014100018F0E9CF19F0EACF1AF0E1CF1BF0E2CFD4
:101420001CF0D9CF1DF0DACF1EF0F3CF1FF0F4CFB0
:1014300020F0F6CF21F0F7CF22F0F8CF23F0F5CF50
:1014400024F051C025F052C026F053C027F054C0FC
:1014500028F0F292F2B4F2AA02D06DECA4F028C007
:1014600054F027C053F026C052F025C051F024C0DC
:10147000F5FF23C0F8FF22C0F7FF21C0F6FF20C010
:10148000F4FF1FC0F3FF1EC0DAFF1DC0D9FF1CC050
:10149000E2FF1BC0E1FF1AC0EAFF19C0E9FF18C054
:0E14A000FBFF17C0FAFF5192110004EF97F006
:10FC6E0000001180002C0100B102003500360000AA
:10FC7E00B202003500360000B30200350036000235
:10FC8E00003500360000B4000000C0A2000200845F
:10FC9E000000C1C50000C20D00000000C38D002A87
:10FCAE000000C48D00EE0000C50A000036C800003A
:10FCBE00E012001C001000180033002C0025002854
:10FCCE0000280027002F003C000000030003001056
:10FCDE00008000780000E112001C00100018002DBA
:10FCEE0000280023002800280026002F003B0000DB
:10FCFE0000030003001000003A0500002A00000275
:10FD0E000000008100002B000003000000A2000094
:10FD1E0029002C010000000A00000064000000E829
:10FD2E0003000010270000A086010040420F008053
:10FD3E0096980000E1F50500CA9A3B0200040008FF
:10FD4E0000100020004000800000010001020001B0
:10FD5E000001000202000003030300000103070F6D
:10FD6E001F3F7FFF000201030104100A0000000084
:10FD7E00000000005F00000007000700147F147FE2
:10FD8E0014242A7F2A1223130864623649552250FE
:10FD9E000005030000001C2241000041221C000847
:10FDAE002A1C2A0808083E080800503000000808DF
:10FDBE00080808006060000020100804023E514947
:10FDCE00453E00427F400042615149462141454B2C
:10FDDE00311814127F1027454545393C4A494930A0
:10FDEE0001710905033649494936064949291E005C
:10FDFE003636000000563600000008142241141456
:10FE0E0014141441221408000201510906324979D2
:10FE1E00413E7E1111117E7F494949363E41414195
:10FE2E00227F4141221C7F494949417F0909010135
:10FE3E003E414151327F0808087F00417F4100203A
:10FE4E0040413F017F081422417F404040407F02E5
:10FE5E0004027F7F0408107F3E4141413E7F090925
:10FE6E0009063E4151215E7F0919294646494949F5
:10FE7E003101017F01013F4040403F1F2040201FC4
:10FE8E007F2018207F631408146303047804036131
:10FE9E005149454300007F41410204081020414171
:10FEAE007F00000402010204404040404000010275
:10FEBE00040020545454787F484444383844444411
:10FECE0020384444487F3854545418087E0901029F
:10FEDE00081454543C7F0804047800447D400020EC
:10FEEE0040443D00007F10284400417F40007C04C8
:10FEFE001804787C0804047838444444387C14147C
:10FF0E001408081414187C7C08040408485454542B
:10FF1E0020043F4440203C4040207C1C2040201CBC
:10FF2E003C4030403C44281028440C5050503C4437
:10FF3E0064544C44000836410000007F000000412C
:10FF4E0036080008082A1C08081C2A080800FCFFAE
:10FF5E000F0000FFFFF0FF00FFFF002020202020F9
:10FF6E002020202020202020202020202020202083
:10FF7E00200A004A616D696E204561726C792039E4
:10FF8E00393133333339310A0043757272656E7409
:10FF9E00204D6F64653A0A00446972656374696F37
:10FFAE006E3A2025640A0020436F6E74696E756F79
:10FFBE0075730A0A0020556E646566696E65640A7B
:10FFCE000A006D44656C74613A20256C640A002049
:10FFDE00506F736974696F6E0A0A005370656564B9
:10FFEE003A2025640A0020537465700A0A002563BE
:02FFFE00000001
:020000040001F9
:100000000CD0640E0001EB6F010E04D06F0E0001E6
:10001000EB6F010E0001EC6F08D00001E951000AFE
:10002000D8B4EFD7010AD8B4F1D7000120EE02F01E
:10003000EB51D926EC51DA22E9C0DFFFB1D0910EA5
:100040000001DE6F000E0001DF6F020E0001E06FA5
:10005000030E0001E16FB1EC8BF0910E0001DE6F39
:10006000000E0001DF6F030E0001E06F030E0001C0
:10007000E16FB1EC8BF0910E0001DE6F000E00011C
:10008000DF6F050E0001E06F030E0001E16FB1ECC0
:100090008BF0910E0001DE6F000E0001DF6F040E89
:1000A0000001E06F000E0001E16FB1EC8BF0000188
:1000B00020EE03F0EB51D926EC51DA22C70EDE6EAA
:1000C0000F0EDD6E000120EE06F0EB51D926EC514B
:1000D000DA22C60EDE6E0F0EDD6E000120EE09F094
:1000E000EB51D926EC51DA22C90E56D0870E000109
:1000F000DE6F000E0001DF6F070E0001E06F030EE0
:100100000001E16FB1EC8BF0870E0001DE6F000E95
:100110000001DF6F060E0001E06F030E0001E16FCA
:10012000B1EC8BF0870E0001DE6F000E0001DF6F77
:10013000040E0001E06F030E0001E16FB1EC8BF0E3
:10014000870E0001DE6F000E0001DF6F050E00015B
:10015000E06F000E0001E16FB1EC8BF0000120EECA
:1001600003F0EB51D926EC51DA226D0EDE6E0F0E44
:10017000DD6E000120EE06F0EB51D926EC51DA22BB
:100180006C0EDE6E0F0EDD6E000120EE09F0EB51FD
:10019000D926EC51DA226F0EDE6E0F0EDD6E09D01D
:1001A0000001E951000AD8B44AD7010AD8A41200C4
:1001B0009DD7000120EE06F0EB51D926EC51DA2252
:1001C000DECFB8F0DDCFB9F0050E0001BA6F000E3A
:1001D0000001BB6FCDEC9EF09CD0000120EE06F03C
:1001E000EB51D926EC51DA22DECFB8F0DDCFB9F0F1
:1001F000040E0001BA6F000E0001BB6FCDEC9EF043
:10020000000120EE03F0EB51D926EC51DA22DECFCB
:10021000B8F0DDCFB9F0060E0001BA6F000E000194
:10022000BB6FCDEC9EF084D0000120EE06F0EB51C8
:10023000D926EC51DA22DECFB8F0DDCFB9F0040ECA
:100240000001BA6F000E0001BB6FCDEC9EF0000103
:1002500020EE03F0EB51D926EC51DA22DECFB8F0D4
:10026000DDCFB9F0060E0001BA6F010E0001BB6FC1
:10027000CDEC9EF05DD0000120EE06F0EB51D926CA
:10028000EC51DA22DECFB8F0DDCFB9F0040E000178
:10029000BA6F010E0001BB6FCDEC9EF0000120EEA5
:1002A00003F0EB51D926EC51DA22DECFB8F0DDCFE6
:1002B000B9F0060E0001BA6F000E0001BB6FCDEC65
:1002C0009EF036D0000120EE06F0EB51D926EC511D
:1002D000DA22DECFB8F0DDCFB9F0040E0001BA6F3C
:1002E000010E0001BB6FCDEC9EF0000120EE03F08B
:1002F000EB51D926EC51DA22DECFB8F0DDCFB9F0E0
:10030000060E0001BA6F010E0001BB6FCDEC9EF02E
:100310000FD00001EA51000AD8B45FD7010AD8B45F
:1003200083D7030AD8B4A7D7010AD8A41200CAD722
:10033000000120EE06F0EB51D926EC51DA22DECF97
:10034000B8F0DDCFB9F0070E0001BA6F000E000162
:10035000BB6FCDEC9EF0000120EE06F0EB51D926EC
:10036000EC51DA22DECFB8F0DDCFB9F0060E000195
:10037000BA6F000E0001BB6FCDEC9EF0E5C0C5F07A
:10038000E6C0C6F0E7C0C7F0E8C0C8F005EC91F0E1
:10039000EBC0B8F0ECC0B9F046ECA4F004D09F86F6
:1003A0000BD0A58E09D00001E951000AD8B4F7D7C7
:1003B000010AD8A41200F5D7EBC0B8F0ECC0B9F030
:1003C000ABECA3F0EBC0D9FFECC0DAFF000EDF6EA0
:1003D000000120EE06F0EB51D926EC51DA22DECFF7
:1003E000C3F0DDCFC4F0000E0001C56F030E0001A5
:1003F000C66FA2ECA4F0000120EE06F0EB51D92666
:10040000EC51DA22DECFB8F0DDCFB9F0050E0001F5
:10041000BA6F010E0001BB6FCDEC9EF01200080E0A
:100420000001C7250001C46F000E0001C8210001B2
:10043000C56F000E0001C66F7EECA2F00001DE6FFA
:100440000001DE510001CA6FCB6B0E0ED890000187
:10045000CA37CB37E82EFAD70001DE510001CC6F46
:10046000CD6B0C0ED8900001CC37CD37E82EFAD7E3
:100470000001DE510001CE6FCF6B0A0ED890000153
:10048000CE37CF37E82EFAD70001DE510001D16F09
:10049000D06B0001DE510001D26FD36B060ED890F5
:1004A0000001D237D337E82EFAD70001DE51000120
:1004B000D46FD56B0001D43BD53BF00ED517D4518A
:1004C0000F0BD513F00ED4170001DE510001D66FCB
:1004D000D76B0001D890D637D7370001D890D637E0
:1004E000D7370001DE510001D86FD96B0001D6511A
:1004F0000001D8130001D7510001D9130001D451D4
:100500000001D8130001D5510001D9130001D251C7
:100510000001D8130001D3510001D9130001D051BB
:100520000001D8130001D1510001D9130001CE51AF
:100530000001D8130001CF510001D9130001CC51A3
:100540000001D8130001CD510001D9130001CA5197
:100550000001D8110001DA6F0001CB510001D9115F
:100560000001DB6FDEC0DCF00001DD6B080E000176
:10057000C7250001C46F000E0001C8210001C56F2E
:10058000010E0001C66F7EECA2F00001CA6FCB6BBA
:100590000001D890CA37CB370001D890CA37CB3783
:1005A0000001CA510001DC130001CB510001DD1331
:1005B000080E0001C7250001C46F000E0001C8210C
:1005C0000001C56F020E0001C66F7EECA2F00001B3
:1005D000CA6FCB6B0001CA3BCB3BF00ECB17CA51A5
:1005E0000F0BCB13F00ECA170001CA510001DC1328
:1005F0000001CB510001DD13080E0001C7250001E9
:10060000C46F000E0001C8210001C56F030E000178
:10061000C66F7EECA2F00001CA6FCB6B060ED890BD
:100620000001CA37CB37E82EFAD70001CA510001C2
:10063000DC130001CB510001DD13080E0001C725BA
:100640000001C46F000E0001C8210001C56F040E37
:100650000001C66F7EECA2F00001CA6F0001CA5112
:100660000001CC6FCB6B0001CB510001DC1300010A
:10067000CC510001DD13080E0001C7250001C46F35
:10068000000E0001C8210001C56F050E0001C66FF4
:100690007EECA2F00001CA6FCB6B0A0ED89000016D
:1006A000CA37CB37E82EFAD70001CA510001DC1354
:1006B0000001CB510001DD13080E0001C725000128
:1006C000C46F000E0001C8210001C56F060E0001B5
:1006D000C66F7EECA2F00001CA6FCB6B0C0ED890F7
:1006E0000001CA37CB37E82EFAD70001CA51000102
:1006F000DC130001CB510001DD13080E0001C725FA
:100700000001C46F000E0001C8210001C56F070E73
:100710000001C66F7EECA2F00001CA6FCB6B0E0E1B
:10072000D8900001CA37CB37E82EFAD70001CA515A
:100730000001DC130001CB510001DD130001DC518D
:100740000001DA1948E10001DD510001DB19D8A4EC
:10075000120032D0000120EE02F0C751D926C85154
:10076000DA22DECFB8F0DDCFB9F0C9C0BAF0D7ECED
:10077000A5F012000001C91F000120EE02F0C751D0
:10078000D926C851DA22DECFB8F0DDCFB9F0C9C022
:10079000BAF0D7ECA5F01200000120EE04F0C7512A
:1007A000D926C851DA22DECFB8F0DDCFB9F0C9C002
:1007B000BAF0D7ECA5F012000001DE51000AD8B45F
:1007C0001200010AD8B4C6D7030AD8B4D3D7010A95
:1007D000D8A41200E1D712000001B86F7ED03F0EFE
:1007E0001200060E12005B0E12004F0E1200660E73
:1007F00012006D0E12007D0E1200070E12007F0E09
:1008000012006F0E12005F0E12007C0E1200580EC6
:1008100012005E0E12007B0E1200710E12006F0E9F
:100820001200740E1200040E12000E0E12007A0E48
:100830001200060E1200140E1200540E12005C0E6E
:100840001200730E1200670E1200500E12006D0E91
:100850001200780E12001C0E1200620E12002A0EF8
:100860001200640E12006E0E12005B0E1200770E64
:1008700012007F0E1200390E12003F0E1200790E88
:100880001200710E12003D0E1200760E1200060EBE
:1008900012001E0E1200570E1200380E1200760EB5
:1008A0001200760E12003F0E1200730E12003F0E61
:1008B0001200770E12006D0E1200310E12003E0E65
:1008C00012003E0E12007E0E1200760E1200660E10
:1008D00012005B0E1200800E12000001B8512E0AA9
:1008E000D8B4F9D71E0AD8B47AD7010AD8B479D7C0
:1008F000030AD8B478D7010AD8B477D7070AD8B48E
:1009000076D7010AD8B475D7030AD8B474D7010AC8
:10091000D8B473D70F0AD8B472D7010AD8B471D734
:10092000780AD8B4A4D7030AD8B4A3D7010AD8B494
:10093000A2D7070AD8B4A1D7010AD8B4A0D7030A0E
:10094000D8B49FD7010AD8B49ED70F0AD8B49DD780
:10095000010AD8B49CD7030AD8B49BD7010AD8B4EB
:100960009AD7070AD8B499D7010AD8B498D7030AF6
:10097000D8B497D7010AD8B496D71F0AD8B495D758
:10098000010AD8B494D7030AD8B493D7010AD8B4CB
:1009900092D7070AD8B491D7010AD8B490D7030ADE
:1009A000D8B48FD7010AD8B48ED70F0AD8B48DD750
:1009B000010AD8B48CD7030AD8B48BD73B0AD8B471
:1009C00022D7030AD8B421D7010AD8B420D7070AFE
:1009D000D8B41FD7010AD8B41ED7030AD8B41DD77C
:1009E000010AD8B41CD70F0AD8B41BD7010AD8B44F
:1009F0001AD7030AD8B419D7010AD8B418D7070AE6
:100A0000D8B417D7010AD8B416D7030AD8B415D763
:100A1000010AD8B414D71F0AD8B413D7010AD8B41E
:100A200012D7030AD8B411D7010AD8B410D7070ACD
:100A3000D8B40FD7010AD8B40ED7030AD8B40DD74B
:100A4000010AD8B40CD70F0AD8B40BD7010AD8B40E
:100A50000AD7030AD8B409D7000E1200050E000108
:100A6000F26FC7D0000120EE02F0EE51D926EF510F
:100A7000DA22DECFC3F0DDCFC4F0F0C0C5F00F0E38
:100A80000001C66FA2ECA4F0000120EE04F0EE51CC
:100A9000D926EF51DA22DECFC3F0DDCFC4F0F0C0AB
:100AA000C5F0000E0001C66FA2ECA4F0B0D0EEC0FD
:100AB000E7F0EFC0E8F0F0C0E9F0030E0001EA6FE4
:100AC000BEEC9FF00001F26F0001F251D8A41200B9
:100AD000000120EE02F0EE51D926EF51DA22DECFEE
:100AE000C3F0DDCFC4F0F0C0C5F0000E0001C66F4A
:100AF000A2ECA4F0000120EE04F0EE51D926EF5153
:100B0000DA22DECFC3F0DDCFC4F0F0C0C5F0000EB6
:100B10000001C66FA2ECA4F07AD0EEC0E7F0EFC0FF
:100B2000E8F0F0C0E9F0030E0001EA6FBEEC9FF0C0
:100B30000001F26F0001F251D8A41200000120EE72
:100B400002F0EE51D926EF51DA22DECFC3F0DDCF2D
:100B5000C4F0F0C0C5F00F0E0001C66FA2ECA4F007
:100B6000000120EE04F0EE51D926EF51DA22DECF5B
:100B7000C3F0DDCFC4F0F0C0C5F00F0E0001C66FAA
:100B8000A2ECA4F044D0EEC0E7F0EFC0E8F0F0C073
:100B9000E9F0030E0001EA6FBEEC9FF00001F26F76
:100BA0000001F251D8A41200000120EE02F0EE5133
:100BB000D926EF51DA22DECFC3F0DDCFC4F0F0C08A
:100BC000C5F0000E0001C66FA2ECA4F0000120EEFB
:100BD00004F0EE51D926EF51DA22DECFC3F0DDCF9B
:100BE000C4F0F0C0C5F0000E0001C66FA2ECA4F086
:100BF0000ED00001F151000AD8B434D7010AD8B49C
:100C000056D7030AD8B489D7010AD8B4BCD7080E7E
:100C10000001EE250001C76F000E0001EF21000169
:100C2000C86F0001F051040DF3CFC9F0F1C0CAF054
:100C30009AECA1F0080E0001EE250001C76F000E2E
:100C40000001EF210001C86F0001F051040DF328ED
:100C50000001C96FF1C0CAF09AECA1F0080E0001C2
:100C6000EE250001C76F000E0001EF210001C86FE3
:100C70000001F051040DF350020F0001C96FF1C0E3
:100C8000CAF09AECA1F0080E0001EE250001C76F32
:100C9000000E0001EF210001C86F0001F051040DAA
:100CA000F350030F0001C96FF1C0CAF09AECA1F034
:100CB000120066EC9BF0DCC0E6F0DDC0E7F0000E51
:100CC0000001EB6F000EEA6F000E0001E96F000EED
:100CD000E86F05D121EE4DF001D80AD00500FA6E7B
:100CE000DE50FD6EDE50FE6EDE50FF6EFA501200DA
:100CF000E806D8A430D021EE57F001D80AD005007C
:100D0000FA6EDE50FD6EDE50FE6EDE50FF6EFA5063
:100D100012000009D8A41FD00001EBBF08D00001C9
:100D2000EB5119E10A0E0001EA5DD8B014D021EEB2
:100D30004DF001D80AD00500FA6EDE50FD6EDE508F
:100D4000FE6EDE50FF6EFA501200E806D8B4EFD700
:100D50000001EA4BEB2B21EE57F001D80AD0050039
:100D6000FA6EDE50FD6EDE50FE6EDE50FF6EFA5003
:100D70001200E806D8A430D021EE4DF001D80AD0F8
:100D80000500FA6EDE50FD6EDE50FE6EDE50FF6E28
:100D9000FA5012000009D8A41FD00001EBBF1CD0EC
:100DA0000001EB5104E10001EA05D8A015D021EEC5
:100DB00057F001D80AD00500FA6EDE50FD6EDE5005
:100DC000FE6EDE50FF6EFA501200E806D8B4EFD780
:100DD0000001EA07D8A0EB0721EE43F001D80AD0C2
:100DE0000500FA6EDE50FD6EDE50FE6EDE50FF6EC8
:100DF000FA501200E806D8A416D021EE39F001D836
:100E00000AD00500FA6EDE50FD6EDE50FE6EDE503A
:100E1000FF6EFA5012000009D8A405D0000E0001A0
:100E2000E96F010EE86F21EE39F001D80AD0050014
:100E3000FA6EDE50FD6EDE50FE6EDE50FF6EFA5032
:100E40001200E806D8A414D021EE43F001D80AD04D
:100E50000500FA6EDE50FD6EDE50FE6EDE50FF6E57
:100E6000FA5012000009D8A403D00001E869E9692A
:100E700032ECA4F0FF0E0001B96FE00EB86F0EEC7B
:100E8000A6F0E90E0001CE6FFF0E0001CF6FEAC0A1
:100E9000D0F0EBC0D1F07EEC87F0A60E0001CE6F53
:100EA000FF0E0001CF6FE8C0D0F0E9C0D1F07EECBA
:100EB00087F0D00E0001CE6FFF0E0001CF6F9BC0F8
:100EC000D0F09CC0D1F00001000ED1BFFF0ED26F58
:100ED000D36F7EEC87F0ACEC89F090EC95F00001DC
:100EE000E6050001E711D8B4F5D666EC9BF0DCC04E
:100EF000E6F0DDC0E7F053EC9DF01200D00E0001EB
:100F0000D96F000E0001DA6F01D1250E0001DF1943
:100F1000D8B405D00001DF51D0ECA5F0F7D0000E19
:100F20000001D86F14D00001D88911D0D9C0D9FFE1
:100F3000DAC0DAFFDF500001DF6F020E0001D927AF
:100F4000000EDA230001DF51D0ECA5F0DFD0CEC0D7
:100F5000F6FFCFC0F7FF0001CE4BCF2B000EF86E8F
:100F60000800F5CFDFF00001DF51000AD8B412000D
:100F7000630AD8B4DBD7070AD8B407D00D0AD8B4AF
:100F800004D0050AD8B4CFD7DDD70001D8A90ED038
:100F9000D9C0D9FFDAC0DAFFDECFDBF0DECFDCF07C
:100FA000DECFDDF0DECFDEF0040E0FD0D9C0D9FFEA
:100FB000DAC0DAFFDECFDBF0DDCFDCF00001000EBF
:100FC000DCBFFF0EDD6FDE6F020E0001D927000EC1
:100FD000DA230001DEAF0CD0030E0001D8130001AC
:100FE000DE1FDD1FDC1FDB6D000EDC23DD23DE23B7
:100FF000010E0001DF6F0A0E0001DF19D8B421D005
:101000000001DF51040D210EF324F66EFD0EF420D5
:10101000F76EF86A000EF8220900F5500001DB5D5A
:101020000900F5500001DC590900F5500001DD59B7
:101030000900F5500001DE59D8A003D00001DF2BD4
:10104000DAD7D8C0D4F0030E0001D417D8B403D037
:101050002D0ED0ECA5F00001DF510001D66FD76B4B
:10106000D6BFD70748D0D6C0D4F0D7C0D5F000013E
:10107000D890D437D5370001D890D437D537210E42
:101080000001D425F66EFD0ED521F76EF86A000E2C
:10109000F8220900F5CFBCF00900F5CFBDF009003A
:1010A000F5CFBEF00A00F5CFBFF0DBC0B8F0DCC072
:1010B000B9F0DDC0BAF0DEC0BBF0EEEC95F0B8C020
:1010C000C5F0B9C0C6F0BAC0C7F0BBC0C8F00A0EC0
:1010D0000001C96F000ECA6F000ECB6F000ECC6FFF
:1010E0003EEC9AF00001C551300F0001DF6F0001A6
:1010F000DF51D0ECA5F00001D607D8A0D70700013A
:10110000D629B1E10001D729D8A4ADD7CEC0F6FFCA
:10111000CFC0F7FF0001CE4BCF2B000EF86E0800BA
:10112000F5CFDFF00001DF51D8B41200EED6050E86
:101130000101C46F7AD0000120EE02F0F251D926ED
:10114000F351DA22DECFC2F1DDCFC3F1C2C1D9FF44
:10115000C3C1DAFFFF0E67D0F2C0EEF0F3C0EFF0CC
:10116000010E0001F06F2FECA1F00101C46F01012D
:10117000C451D8A41200000120EE02F0F251D92689
:10118000F351DA22DECFC2F1DDCFC3F1C2C1D9FF04
:10119000C3C1DAFF000EDF6E000120EE04F036D08E
:1011A000F2C0EEF0F3C0EFF0020E0001F06F2FEC92
:1011B000A1F00101C46F0101C451D8A412000001C3
:1011C00020EE02F0F251D926F351DA22DECFC2F13D
:1011D000DDCFC3F1C2C1D9FFC3C1DAFFFF0EDF6E9D
:1011E000000120EE04F0AAD7F2C0EEF0F3C0EFF059
:1011F000000E0001F06F2FECA1F00101C46F01019E
:10120000C451D8A41200000120EE02F0F251D926F8
:10121000F351DA22DECFC2F1DDCFC3F1C2C1D9FF73
:10122000C3C1DAFF000EDF6E0ED00001F451000AD8
:10123000D8B481D7010AD8B48FD7030AD8B4B0D7AD
:10124000010AD8B4D1D7080E0001F2250001C76FFA
:10125000000E0001F3210001C86F000E0001C96FEC
:10126000F4C0CAF09AECA1F0080E0001F2250001CA
:10127000C76F000E0001F3210001C86F010E0001CD
:10128000C96FF4C0CAF09AECA1F0080E0001F22573
:101290000001C76F000E0001F3210001C86F020EAC
:1012A0000001C96FF4C0CAF09AECA1F0080E000169
:1012B000F2250001C76F000E0001F3210001C86F85
:1012C000030E0001C96FF4C0CAF09AECA1F0080E39
:1012D0000001F2250001C76F000E0001F32100019B
:1012E000C86F040E0001C96FF4C0CAF09AECA1F0F7
:1012F000080E0001F2250001C76F000E0001F32166
:101300000001C86F050E0001C96FF4C0CAF09AEC65
:10131000A1F0080E0001F2250001C76F000E0001C8
:10132000F3210001C86F060E0001C96FF4C0CAF0B6
:101330009AECA1F0080E0001F2250001C76F000E23
:101340000001F3210001C86F070E0001C96FF4C04E
:10135000CAF09AECA1F012000001FF51D8B41200BB
:10136000CFC1DEF0D0C1DFF0D1C1E0F0D2C1E1F0F9
:1013700000017C51D8B405D07AC0DDF00F0E000119
:101380007A6F000E0001E36FDFD00001E351020D20
:10139000000EF324D96E010EF420DA6EDECFFDF0DC
:1013A000DDCFFEF0000E0001E26F130E0001E265DA
:1013B00001D0BED00001E351140D460E0001DB6FD9
:1013C000020E0001DC6FF3500001DB27F450000136
:1013D000DC230001E251010DF3500001DB25D96E41
:1013E000F4500001DC21DA6EDFAE9AD00001E35147
:1013F000140D460E0001DB6F020E0001DC6FF3508E
:101400000001DB27F4500001DC230001E251010D53
:10141000F3500001DB25D96EF4500001DC21DA6EB7
:101420007F0EDF160001E351140D460E0001DB6F45
:10143000020E0001DC6FF3500001DB27F4500001C5
:10144000DC230001E251010DF3500001DB25D96ED0
:10145000F4500001DC21DA6EDF50D8B44AD073C0FA
:10146000C1F074C0C2F0DEC0C3F0DFC0C4F0E0C0A1
:10147000C5F0E1C0C6F0F5C0C7F0F6C0C8F0F7C0CF
:10148000C9F0F8C0CAF0A5EC9CF00001E351140DBE
:10149000460E0001DB6F020E0001DC6FF35000010D
:1014A000DB27F4500001DC230001E251010DF35071
:1014B0000001DB25D96EF4500001DC21DA6EDF502B
:1014C0009EEC93F0BDC0CAF0BEC0CBF0DEC0CCF045
:1014D000DFC0CDF0E0C0CEF0E1C0CFF0F5C0D0F07D
:1014E000F6C0D1F0F7C0D2F0F8C0D3F0FEEC98F01F
:1014F00017D0000E0001C26F000EC16FDEC0C3F036
:10150000DFC0C4F0E0C0C5F0E1C0C6F0F5C0C7F070
:10151000F6C0C8F0F7C0C9F0F8C0CAF0A5EC9CF05E
:10152000060E0001DE27000EDF230001E22B3DD76F
:10153000080E0001E027000EE123000E0001DF6F1E
:10154000060EDE6F0001E32B0001E35100017A5D1E
:10155000D8B01BD700017C51D8B41200000E000196
:101560007C6FDDC07AF012005A0E0101C26F010ECD
:101570000101C36F000E0101C56F020EC46F4E0E54
:101580000101C66F4C0E0101C76F010E0101C86F4A
:10159000A60E0101C96F4A0E0101CA6F010E0101B9
:1015A000CB6FE40E0101CC6F470E0101CD6F010E30
:1015B0000101CE6F34EC93F03C0E0101C26F010EBD
:1015C0000101C36F000E0101C56F020EC46F4E0E04
:1015D0000101C66F4C0E0101C76F010E0101C86FFA
:1015E000060E0101C96F4B0E0101CA6F010E010108
:1015F000CB6FD60E0101CC6F3F0E0101CD6F010EF6
:101600000101CE6F34EC93F0320E0101C26F010E76
:101610000101C36F000E0101C56F020EC46F4E0EB3
:101620000101C66F4C0E0101C76F010E0101C86FA9
:10163000EE0E0101C96F4A0E0101CA6F010E0101D0
:10164000CB6F7A0E0101CC6F430E0101CD6F010EFD
:101650000101CE6F34EC93F0460E0101C26F010E12
:101660000101C36F000E0101C56F020EC46F4E0E63
:101670000101C66F4C0E0101C76F010E0101C86F59
:10168000D60E0101C96F4A0E0101CA6F010E010198
:10169000CB6FF60E0101CC6F460E0101CD6F010E2E
:1016A0000101CE6F34EC93F0500E0101C26F010EB8
:1016B0000101C36F000E0101C56F020EC46F4E0E13
:1016C0000101C66F4C0E0101C76F010E0101C86F09
:1016D000BE0E0101C96F4A0E0101CA6F010E010160
:1016E000CB6FC40E0101CC6F460E0101CD6F010E10
:1016F0000101CE6F34EC93F0A00E0001E56F860E71
:10170000E66F010EE76F000EE86F000E0001E96F53
:10171000020E0001EA6F00EC80F0640E0001C76F5A
:10172000010E0001C86F19EC9DF0000E0001F46F6E
:10173000000EF36F0001F45113E1080E0001F35D98
:10174000D8B012002A0E0001F325D96E010E000157
:10175000F421DA6E000EDF6E0001F34BF42BEAD7B2
:101760001200DEC0D9FFDFC0DAFFDECFE3F0DDCF4D
:10177000E4F0050E0001E26FB5D0000120EE02F0AA
:10178000DE51D926DF51DA22DECFB8F0DDCFB9F055
:10179000E0C0BAF0010E0001BB6FCDEC9EF0B0D0FE
:1017A000E3C0C7F0E4C0C8F0010E0001C96FE0C09B
:1017B000CAF0F0EC9BF00001E26F0001E251D8A406
:1017C0001200000120EE02F0DE51D926DF51DA22AC
:1017D000DECFB8F0DDCFB9F0E0C0BAF0000E000106
:1017E000BB6FCDEC9EF0000120EE04F0DE51D92657
:1017F000DF51DA22DECFB8F0DDCFB9F0E0C0BAF0C9
:10180000000E0001BB6FCDEC9EF07AD0E3C0C7F0B4
:10181000E4C0C8F0020E0001C96FE0C0CAF0F0ECED
:101820009BF00001E26F0001E251D8A41200000118
:1018300020EE02F0DE51D926DF51DA22DECFB8F0F9
:10184000DDCFB9F0E0C0BAF0010E0001BB6FCDEC06
:101850009EF0000120EE04F0DE51D926DF51DA229D
:10186000DECFB8F0DDCFB9F0E0C0BAF0010E000174
:10187000BB6FCDEC9EF044D0E3C0C7F0E4C0C8F02D
:10188000000E0001C96FE0C0CAF0F0EC9BF000014F
:10189000E26F0001E251D8A41200000120EE02F034
:1018A000DE51D926DF51DA22DECFB8F0DDCFB9F034
:1018B000E0C0BAF0000E0001BB6FCDEC9EF000015D
:1018C00020EE04F0DE51D926DF51DA22DECFB8F067
:1018D000DDCFB9F0E0C0BAF0000E0001BB6FCDEC77
:1018E0009EF00ED00001E151000AD8B446D7010A9B
:1018F000D8B456D7030AD8B489D7010AD8B4BCD70C
:10190000080E0001DE250001C76F000E0001DF2177
:101910000001C86FE0C0C9F0E1C0CAF09AECA1F0C4
:1019200012000001CB6FB1D050EC99F0120090EC96
:101930009FF012001FEC9BF01200D0EC94F012000C
:101940009AEC9EF01200C3ECA4F01200CBC0C8F0D9
:101950007F0E0001C81700017A51140D460E0001D8
:10196000C96F020E0001CA6FF3500001C927F4507D
:101970000001CA2300017B51010DF3500001C9256C
:10198000D96EF4500001CA21DA6EDF507F0B0001DE
:10199000C819D8B42ED0010E0001FF6F00017A5192
:1019A000140D460E0001C86F020E0001C96FF350FE
:1019B0000001C827F4500001C92300017B51010D2B
:1019C000F3500001C825D96EF4500001C921DA6E28
:1019D0000001CB518009DF6E00017A51020D000E2B
:1019E000F324D96E010EF420DA6EFDC0DEFFFEC0D6
:1019F000DDFF9AEC9EF00009D8B41200CBC0C8F00D
:101A00007F0E0001C81700017A51140D460E000127
:101A1000C96F020E0001CA6FF3500001C927F450CC
:101A20000001CA2300017B51010DF3500001C925BB
:101A3000D96EF4500001CA21DA6EDF507F0B00012D
:101A4000C819D8B41200010E0001FF6F00017A51CD
:101A5000140D460E0001C86F020E0001C96FF3504D
:101A60000001C827F4500001C92300017B51010D7A
:101A7000F3500001C825D96EF4500001C921DA6E77
:101A80000001CB518009DF6E12000001CB51070A23
:101A9000D8B456D70F0AD8B44AD7010AD8B44DD70C
:101AA000030AD8B441D7060AD8B444D7010AD8B437
:101AB0003BD72D0AD8B44AD7030AD8B444D746D75F
:101AC0000101C75158EC98F0C5C1D9FFC6C1DAFF72
:101AD0000001B8C0DEFF0001B9C0DDFF0101C75140
:101AE000ABEC98F0010120EE06F0C551D926C651A5
:101AF000DA220001B8C0DEFF0001B9C0DDFF01013C
:101B0000C751ABEC98F0010120EE04F0C551D92685
:101B1000C651DA220001B8C0DEFF0001B9C0DDFF06
:101B20000101C75105EC98F0010120EE02F0C5510A
:101B3000D926C651DA220001B8C0DEFF0001B9C0C3
:101B4000DDFF010120EE04F0C551D926C651DA228D
:101B5000DECFC8F1DDCFC9F1C8C1D9FFC9C1DAFFF5
:101B6000000EDF6E010120EE02F0C551D926C651EC
:101B7000DA22DECFC8F1DDCFC9F1C8C1D9FFC9C1B2
:101B8000DAFFFF0EDF6EC5C1F2F0C6C1F3F0000E42
:101B90000001F46F97EC88F0000E0101CA6F070E88
:101BA0000101CA6531D04BD0C5C1DEF0C6C1DFF03E
:101BB000CAC1E0F0030E0001E16FB1EC8BF03CD044
:101BC000C5C1DEF0C6C1DFF0CAC1E0F0020E0001FF
:101BD000E16FB1EC8BF030D0C5C1DEF0C6C1DFF0F3
:101BE000CAC1E0F0010E0001E16FB1EC8BF024D02E
:101BF000C5C1DEF0C6C1DFF0CAC1E0F0000E0001D1
:101C0000E16FB1EC8BF018D0C5C1D9FFC6C1DAFFC6
:101C1000DECFC4F0DDCFC5F0CAC1C6F07EECA2F0C5
:101C2000000AD8B4C1D7010AD8B4D6D7030AD8B4A9
:101C3000C7D7010AD8B4DCD70101CA2BB0D7C5C1B8
:101C4000C7F0C6C1C8F0000E0001C96F0FEC82F0EA
:101C50001200010E4B6E000E0001686F000E0001B5
:101C6000696F000E00016A6FA20E0101C56F010EBF
:101C70000101C66F000E0101C76F60EC8DF0980E78
:101C80000101C56F010E0101C66F010E0101C76F91
:101C900060EC8DF0910E0101C56F000E0101C66F61
:101CA000020E0101C76F60EC8DF0870E0101C56F58
:101CB000000E0101C66F030E0101C76F60EC8DF0CD
:101CC0007D0E0101C56F000E0101C66F040E0101FA
:101CD000C76F60EC8DF0AC0E0101C56F010E010104
:101CE000C66F050E0101C76F60EC8DF08E0E01010D
:101CF000C56F010E0101C66F060E0101C76F60ECD2
:101D00008DF0AC0E0001DE6F010E0001DF6F050EDD
:101D10000001E06F000E0001E16FB1EC8BF0980E56
:101D20000001EE6F010E0001EF6F000E0001F06F79
:101D3000000E0001F16F2EEC85F0AC0E0001DE6F9D
:101D4000010E0001DF6F060E0001E06F030E0001BF
:101D5000E16FB1EC8BF08E0E0001F26F010E00010D
:101D6000F36F030E0001F46F97EC88F08E0E000104
:101D7000C76F010E0001C86F040E0001C96F000E8D
:101D80000001CA6F6EEC94F0AC0E0001C76F010E3B
:101D90000001C86F060E0001C96F010E0001CA6F75
:101DA0006EEC94F0000E30EC9FF0010E30EC9FF0E2
:101DB000000E9E6E000EA16E000EA46E9B8E9B8C7C
:101DC000000E0001B96F640EB86F30EC9EF0D08E3B
:101DD00012008CEC9DF0000E0001F06F000EEF6F12
:101DE0000001F05106E1590E0001EF5DD8B08BD033
:101DF00001D089D0D8900001EF35F66E0001F035A2
:101E0000F76E6F0EF626FC0EF722F86A000EF82227
:101E10000900800EF5180900F510D8A422D00001A1
:101E2000F0511FE1580E0001EF5DD8B01AD000014B
:101E3000EF4BF02BD8900001EF35F66E0001F03536
:101E4000F76E6F0EF626FC0EF722F86A000EF822E7
:101E50000900F5CFB8F00A00F5CFB9F030EC9EF0EC
:101E60004BD0D8900001EF35F66E0001F035F76EDB
:101E70006F0EF626FC0EF722F86A000EF822090013
:101E8000000EF55E0900010EF55AD8A020D0000E14
:101E90000001BB6FD8900001EF35F66E0001F03500
:101EA000F76E6F0EF626FC0EF722F86A000EF82287
:101EB0000900F5CFEDF00900F5CFEEF0EEC0EDF042
:101EC0000001EE6B0001ED5180ECA4F015D0010E85
:101ED0000001BB6FD8900001EF35F66E0001F035C0
:101EE000F76E6F0EF626FC0EF722F86A000EF82247
:101EF0000800F55080ECA4F00001EF4BF02B00013E
:101F0000F05101E170D7000E0001B96F640EB86F97
:101F100030EC9EF0000E0001BB6F290E80ECA4F0A7
:101F2000010E8BEC9AF0000E0001B96F640EB86FD1
:101F300030EC9EF0000E0001C26F000EC16F17EC76
:101F4000A0F01200000120EE07F0D351D926D451A1
:101F5000DA2201D80AD00500FA6EDE50FD6EDE509E
:101F6000FE6EDE50FF6EFA5012000001DB6FD3C030
:101F7000D9FFD4C0DAFF0001DB51DE18D8A421D08C
:101F8000000120EE01F0D351D926D451DA2200010C
:101F9000D551DE5CD8B00AD0000120EE01F0D3515B
:101FA000D926D451DA22000EDF6E1200000120EE95
:101FB00001F0D351D926D451DA220001D551DF5E88
:101FC0001200000120EE01F0D351D926D451DA22BB
:101FD000DF500001D66FD76B0001D5510001D62725
:101FE000000ED723000120EE01F0D351D926D451A1
:101FF000DA22DF500001D86FD96B0001D651000101
:10200000D85D0001D951800A0001DA6F0001D75173
:10201000800A0001DA59D8B01200000120EE01F068
:10202000D351D926D451DA220001D551DF2600013F
:1020300020EE02F0D351D926D451DA22000110EE5D
:1020400001F0D351E126D451E222E7500001D86FCC
:10205000D96BDE500001D85DDE500001D959D8A0FF
:102060001200D3C0D9FFD4C0DAFFDBC0DFFF00010C
:1020700020EE01F0D351D926D451DA22000EDF6EC2
:10208000000120EE04F0D351D926D451DA2201D830
:1020900012000500FA6EDE50FD6EDE50FE6EDE5060
:1020A000FF6EFA500001DB511200800E0001CB6F71
:1020B0008D0ECC6F5B0ECD6F000ECE6FD59E0001E6
:1020C000C5510001C6110001C7110001C811D8B4E3
:1020D0001200D596D59CD59AD598CBC0B8F0CCC077
:1020E000B9F0CDC0BAF0CEC0BBF0C5C0BCF0C6C020
:1020F000BDF0C7C0BEF0C8C0BFF0EEEC95F0B8C0F0
:10210000CFF0B9C0D0F0BAC0D1F0BBC0D2F00CD083
:102110000001792B020E0001796501D02FD0070E46
:102120000001796501D01200CFC0B8F0D0C0B9F07D
:10213000D1C0BAF0D2C0BBF000017951020D490EF6
:10214000F324F66EFD0EF420F76EF86A000EF82206
:102150000900F5CFC9F00900F5CFCAF0C9C0BCF03D
:10216000CAC0BDF00001BE6BBF6BEEEC95F0000184
:10217000BB51CEE10001BA05D8B0CAD700017951F0
:10218000020D490EF324F66EFD0EF420F76EF86A88
:10219000000EF8220800F5CF78F0FF0E0001CF25E1
:1021A0000001646FFF0E0001D0210001656FFF0E7A
:1021B0000001D1210001666FFF0E0001D221000154
:1021C000676F64C0B8F065C0B9F066C0BAF067C0A8
:1021D000BBF0000178510001BC6FBD6BBE6BBF6BE3
:1021E000EEEC95F00001B81F0001B91F0001B84BDB
:1021F000B92BFF0E0001B825316EFF0E0001B92189
:10220000326EECECA5F0D58E1200000E0001CE6F00
:102210006C0ECF6FDC0ED06F020ED16F0001D89024
:10222000C537C637C737C837020E0001C96FD89007
:102230000001D133D033CF33CE330001C92FF7D7CC
:10224000CEC0B8F0CFC0B9F0D0C0BAF0D1C0BBF0AA
:10225000C5C0BCF0C6C0BDF0C7C0BEF0C8C0BFF0AE
:10226000EEEC95F0B8C0D2F0B9C0D3F0BAC0D4F05B
:10227000BBC0D5F010D0000E0001CA6F000ECB6FAE
:10228000000ECC6F000ECD6F0001772B020E000107
:10229000776501D026D0D2C0B8F0D3C0B9F0D4C091
:1022A000BAF0D5C0BBF000017751010D760EF324D2
:1022B000F66EFD0EF420F76EF86A000EF8220800A4
:1022C000F5500001BC6FBD6BBE6BBF6BEEEC95F0C3
:1022D0000001BB510001BA11CEE10001B905D8B02F
:1022E000CAD7CA5000017719FC0B7719CA6ECA8485
:1022F00017ECA6F000017751010D760EF324F66E6F
:10230000FD0EF420F76EF86A000EF8220800F5CFF3
:1023100076F0FF0E0001D2250001606FFF0E000174
:10232000D3210001616FFF0E0001D4210001626F13
:10233000FF0E0001D5210001636F60C0B8F061C0DD
:10234000B9F062C0BAF063C0BBF000017651000181
:10235000BC6FBD6BBE6BBF6BEEEC95F00001B8516E
:102360000001776F77C0CBFF120051B248EF92F0B7
:10237000000120EE04F06F51D9267051DA22DF50AF
:10238000DFECA1F00009D8B47AD06FC0D9FF70C0DB
:10239000DAFFDE50DE10D8B46DD06FC0D9FF70C048
:1023A000DAFF010EDBBE26D0010EDB5003E1DE04B6
:1023B000D8A020D06FC0D9FF70C0DAFFDE2804E1BA
:1023C0007F0EDE18D8B407D06FC0D9FF70C0DAFF17
:1023D000DE06000EDD5A7D0E0001C76F000E000103
:1023E000C86F000E0001C96F010E0001CA6F6EECCC
:1023F00094F01FD06FC0D9FF70C0DAFFDE0404E193
:10240000800EDE18D8B407D06FC0D9FF70C0DAFFD5
:10241000DE2A000EDD227D0E0001C76F000E0001D6
:10242000C86F000E0001C96F000E0001CA6F6EEC8C
:1024300094F07D0E0001C76F000E0001C86F010E01
:102440000001C96F010E0001CA6F6EEC94F07D0EA1
:102450000001C76F000E0001C86F010E0001C96FB7
:10246000000E0001CA6F6EEC94F02CECA5F0F2ECBB
:10247000A5F012002CECA5F01EECA6F012002CC06A
:10248000B8F02DC0B9F02EC0BAF0DEECA5F0120005
:10249000000120EE04F06F51D9267051DA22DF508E
:1024A0002DECA3F00009D8B46AD06FC0D9FF70C07A
:1024B000DAFFDE50DE10D8B45DD06FC0D9FF70C037
:1024C000DAFF010EDBBE22D0010EDB5003E1DE0499
:1024D000D8A01CD06FC0D9FF70C0DAFFDE2804E19D
:1024E0007F0EDE18D8B407D06FC0D9FF70C0DAFFF6
:1024F000DE06000EDD5A7D0E106E000E116E000E0F
:10250000126E010E136EB0EC97F01BD06FC0D9FFA6
:1025100070C0DAFFDE0404E1800EDE18D8B407D004
:102520006FC0D9FF70C0DAFFDE2A000EDD227D0EFB
:10253000106E000E116E000E126E000E136EB0ECD7
:1025400097F07D0E106E000E116E010E126E010ED0
:10255000136EB0EC97F07D0E106E000E116E010E32
:10256000126E000E136EB0EC97F024ECA6F0F8ECAF
:10257000A5F0120024ECA6F021ECA6F012002CC06D
:1025800001F02DC002F02EC003F0E5ECA5F0120022
:10259000BFC0C7F0C0C0C8F0000E0001C66F000E7B
:1025A000C56FC1C0C3F0C2C0C4F00001C751000173
:1025B000C811D8A434D0C3C0D9FFC4C0DAFF300ECC
:1025C000DF6E000E0001C66F010EC56F40D0C7C0A0
:1025D000B8F0C8C0B9F0000E0001BB6F0A0EBA6FA8
:1025E000FFEC9EF00001B851300FC3C0D9FFC4C04A
:1025F000DAFFDF6EC7C0B8F0C8C0B9F0000E000146
:10260000BB6F0A0EBA6F2EEC9CF0B8C0C7F0B9C011
:10261000C8F00001C54BC62B0001C34BC42B000101
:10262000C7510001C811D8B408D00001C65105E156
:10263000060E0001C55DD8A0CAD7C1C0B8F0C2C09F
:10264000B9F0C5C0BAF0C6C0BBF0C4EC9DF0000143
:10265000C5510001C125D96E0001C6510001C2213A
:10266000DA6E000EDF6E12000101C2510101C311CA
:10267000D8B412000101C6510101C7110101C811EE
:10268000D8B412000101C9510101CA110101CB11D5
:10269000D8B412000101CC510101CD110101CE11BC
:1026A000D8B412000101C4510101C511D8A405D04C
:1026B000000E0101C56F010EC46FC2C1D9FFC3C1B5
:1026C000DAFF000EDF6E010120EE01F0C251D926C3
:1026D000C351DA22000EDF6E010120EE02F0C2517A
:1026E000D926C351DA22C4C1DEFFC5C1DDFF010115
:1026F00020EE04F0C251D926C351DA22CCC1DEFF4C
:10270000CDC1DEFFCEC1DEFF010120EE07F0C251D8
:10271000D926C351DA22C9C1DEFFCAC1DEFFCBC14F
:10272000DEFF01D812000500FA6E0101C651FD6EF0
:10273000C751FE6EC851FF6EFA5012000001C36F00
:10274000200E0001C35F0001C351050DF3CFC1F09E
:10275000F4CFC2F07B0E0001C1250001C46FFD0E55
:102760000001C2210001C56F000E0001C86F040EF8
:102770000001C86501D043D0000E0001C96F060EEC
:102780000001C96501D035D0C4C0B8F0C5C0B9F0EA
:10279000C9C0BAF048ECA3F00009D8A405D073C0B2
:1027A000C6F074C0C7F004D0FDC0C6F0FEC0C7F0CC
:1027B0000001C9510A0D000E0001BF6F020E000199
:1027C000C06FF3500001BF27F4500001C023000187
:1027D000C851020DF3500001BF25D96EF45000011D
:1027E000C021DA6EC6C0DEFFC7C0DDFF0001C92B05
:1027F000C6D70001C44BC52B0001C82BB8D7000EAB
:102800000001BD6F020E0001BE6F1200E5C0D9FFCE
:10281000E6C0DAFF000EDE6E000EDD6E000120EE77
:1028200002F0E551D926E651DA22000EDE6E000EE6
:10283000DD6E000120EE04F0E551D926E651DA22E2
:10284000E7C0DEFFE8C0DDFF7D0E0001DE6F000E99
:102850000001DF6F000E0001E06F030E0001E16F69
:10286000B1EC8BF07D0E0001DE6F000E0001DF6F1A
:10287000010E0001E06F030E0001E16FB1EC8BF07F
:102880007D0E0001C76F000E0001C86F000E000131
:10289000C96F000E0001CA6F6EEC94F07D0E00014E
:1028A000C76F000E0001C86F010E0001C96F000E56
:1028B0000001CA6F6EEC94F06A0E2C6E230E2D6E22
:1028C000010E2E6EE80E0001C56F030EC66F000EDE
:1028D000C76F000EC86F55EC90F01200080E000193
:1028E000C7250001C46F000E0001C8210001C56F9B
:1028F000C9C0C6F07EECA2F00001CB6F42D0010E41
:102900000001CA17000120EE02F0C751D926C851B4
:10291000DA22DECFB8F0DDCFB9F0C9C0BAF0CAC054
:10292000BBF0CDEC9EF01200010E0001CA17010EA3
:102930000001CA1B000120EE02F0C751D926C85180
:10294000DA22DECFB8F0DDCFB9F0C9C0BAF0CAC024
:10295000BBF0CDEC9EF01200010E0001CA17000181
:1029600020EE04F0C751D926C851DA22DECFB8F0E4
:10297000DDCFB9F0C9C0BAF0CAC0BBF0CDEC9EF053
:1029800012000001CB51000AD8B41200010AD8B4D9
:10299000B6D7030AD8B4C8D7010AD8A41200DCD726
:1029A000000E0001C66FFA0E47240001B86FFF0E3B
:1029B00048200001B96F000E0001BB6F060EBA6F10
:1029C00031EC95F00001B8510001C76FC7C0B8F0F5
:1029D0000001B96B000E0001BB6F040EBA6F31EC41
:1029E00095F00001B8510001C56F000E0001C66FDF
:1029F00006D000ECA2F09AEC9EF00001C62B00017C
:102A0000C551040DF31EF41EF34AF42A0001C75108
:102A10000001C06FC16BF3500001C027F4500001EA
:102A2000C1230001C01FC11FC04BC12B040E0001F8
:102A3000C027000EC1230001C6510001C26FC36B45
:102A40000001C0510001C25D0001C351800A0001B4
:102A5000C46F0001C151800A0001C459D8B01200EE
:102A6000C8D7000E0001BD6F0001BBAF08D0000148
:102A7000BA6DBB1FD8B0BB2B010E0001BD6F0001AA
:102A8000B9AF08D00001B86DB91FD8B0B92B010E8D
:102A90000001BD1B000E0001BF6F000EBE6F0001E4
:102AA000BA510001BB11D8B42CD0010E0001BC6F8B
:102AB00006D00001D890BA37BB370001BC2B00010B
:102AC000BBAFF7D70001D890BE37BF370001BA516E
:102AD0000001B85D0001BB510001B959D8A00AD06E
:102AE0000001BA510001B85F0001BB510001B95BA0
:102AF0000001BE810001D890BB33BA330001BC2F66
:102B0000E1D70001BD510001D8B405D00001BE6D70
:102B1000BF1FD8B0BF2BBEC0B8F0BFC0B9F0120005
:102B2000080E5FECA2F00009D8B4120000019B511E
:102B300000019C11D8A44AD0790EF66EFD0EF76EF6
:102B4000000EF86E0900F5CFD7F00900F5CFD8F0E8
:102B50000001D7510001FB270001D8510001FC23DF
:102B60000001F9510001FB5D0001FA510001FC591F
:102B7000D8A00CD0790EF66EFD0EF76E000EF86E32
:102B80000900F5CFFBF00A00F5CFFCF0000E53EC86
:102B9000A1F00001F96DFA1FD8B0FA2B9B0E0001CD
:102BA000D36F000E0001D46FFBC0D5F0FCC0D6F08F
:102BB0001DECA4F09B0E0001BB6F000E0001BC6F6A
:102BC000F9C0BDF0FAC0BEF0F5ECA2F02CECA5F017
:102BD0000009D8B4120040ECA2F01200000E00016F
:102BE000C06F000EC16F000EC26F000EC36F0001F8
:102BF000BC510001BD110001BE110001BF11D8B4CC
:102C000042D0010E0001C46F08D00001D890BC373B
:102C1000BD37BE37BF370001C42B0001BFAFF5D7AA
:102C20000001D890C037C137C237C3370001BC514B
:102C30000001B85D0001BD510001B9590001BE514C
:102C40000001BA590001BF510001BB59D8A012D0F0
:102C50000001BC510001B85F0001BD510001B95B2A
:102C60000001BE510001BA5B0001BF510001BB5B16
:102C70000001C0810001D890BF33BE33BD33BC33E7
:102C80000001C42FCDD7C0C0B8F0C1C0B9F0C2C0D8
:102C9000BAF0C3C0BBF01200000E0001BD6F000E01
:102CA000BC6F38D02A0E0001BC25D96E010E000180
:102CB000BD21DA6EB9C0E1FFBAC0E2FFE750ECEC2B
:102CC00083F0DF6E2A0E0001BC25D96E010E0001D3
:102CD000BD21DA6E800EDE18D8A40ED00001BC072C
:102CE000D8A0BD072A0E0001BC25D96E010E000137
:102CF000BD21DA6E000EDB8E0001B94BBA2B00014C
:102D0000BC4BBD2B0001BD511AE1060E0001BC5D9C
:102D1000D8B015D0B9C0D9FFBAC0DAFFDF50D8B4E7
:102D20000ED0C0D72A0E0001BC25D96E010E0001BD
:102D3000BD21DA6E000EDF6E0001BC4BBD2B000121
:102D4000BD5106E1060E0001BC5DD8B01200EAD705
:102D500012000001BC51010D690EF324F66EFD0E48
:102D6000F420F76EF86A000EF8220800F5CFC2F0E2
:102D7000000E0001C16F06D00001BA510001BB5F17
:102D80000001C12B0001BA510001BB5DD8B0F4D7DE
:102D90000001BC510001BB03F350BB6F0001C151E6
:102DA0000001BB270001C2510001BD17BBC0BEF02E
:102DB000C2C0BFF00001BE2B03D00001D890BF37C6
:102DC0000001BE2FFAD70001BF51FF0A0001C06FFA
:102DD000B8C0D9FFB9C0DAFF0001C051DF16BBC0CF
:102DE000BEF0BDC0BFF00001BE2B03D00001D890E3
:102DF000BF370001BE2FFAD7B8C0D9FFB9C0DAFF7C
:102E00000001BF51DF121200260EF66E4C0EF76E57
:102E1000010EF86E01EECFF010EE08F00900F5CFCC
:102E2000EEFFE550E150FAE1FC0EF66E4B0EF76E48
:102E3000010EF86E00EEF5F010EE0BF00900F5CF84
:102E4000EEFFE550E150FAE1070EF66E4C0EF76E1C
:102E5000010EF86E00EE47F010EE0AF00900F5CF13
:102E6000EEFFE550E150FAE102EE46F011EE2CF0F3
:102E7000EE6AE550E150FCE1E250FAE102EE00F0CA
:102E8000460EEE6AE806FDE101EE00F0C20EEE6AC3
:102E9000E806FDE100EE60F0580EEE6AE806FDE19E
:102EA00000EE29F01E0EEE6AE806FDE15190519207
:102EB0000001BBEFA2F00001C06F020E0001BD27B0
:102EC000020E0001BF27030E0001C027030E000100
:102ED000BE27000E0001BB6F2A0E80ECA4F0010E8D
:102EE0000001BB6F000E80ECA4F0010E0001BB6F6F
:102EF0000001C05180ECA4F0010E0001BB6F000E78
:102F000080ECA4F0010E0001BB6F0001BE5180EC0B
:102F1000A4F0000E0001BB6F2B0E80ECA4F0010E9C
:102F20000001BB6F000E80ECA4F0010E0001BB6F2E
:102F30000001BD5180ECA4F0010E0001BB6F000E3A
:102F400080ECA4F0010E0001BB6F0001BF5180ECCA
:102F5000A4F0000E0001BB6F2C0E80ECA4F0120058
:102F6000080E10240D6E000E11200E6E12C00FF010
:102F7000C3ECA3F0146E3BD0010E131620EE02F04A
:102F80001050D9261150DA22DECF01F0DDCF02F049
:102F900012C003F013C004F0E4ECA0F01200010E24
:102FA0001316010E131A20EE02F01050D9261150FC
:102FB000DA22DECF01F0DDCF02F012C003F013C041
:102FC00004F0E4ECA0F01200010E131620EE04F061
:102FD0001050D9261150DA22DECF01F0DDCF02F0F9
:102FE00012C003F013C004F0E4ECA0F0120014507F
:102FF000000AD8B41200010AD8B4BED7030AD8B464
:10300000CED7010AD8A41200DFD70001BA6F38D09A
:10301000920E0001B86F0F0E0001B96F1200930EEF
:103020000001B86F0F0E0001B96F1200940E00017D
:10303000B86F0F0E0001B96F1200950E0001B86F46
:103040000F0E0001B96F1200960E0001B86F0F0E3F
:103050000001B96F1200970E0001B86F0F0E00014A
:10306000B96F1200980E0001B86F0F0E0001B96F12
:103070001200000E0001B86F000E0001B96F1200BF
:103080000001BA51000AD8B4C3D7010AD8B4C7D7CF
:10309000030AD8B4CBD7010AD8B4CFD7070AD8B41B
:1030A000D3D7010AD8B4D7D7030AD8B4DBD7E1D72E
:1030B0000001BA6F38D0670E0001B86FFF0E000133
:1030C000B96F1200650E0001B86FFF0E0001B96FF5
:1030D0001200630E0001B86FFF0E0001B96F1200FD
:1030E000610E0001B86FFF0E0001B96F12005F0E94
:1030F0000001B86FFF0E0001B96F12005D0E0001F4
:10310000B86FFF0E0001B96F12005B0E0001B86FBF
:10311000FF0E0001B96F1200000E0001B86F000E23
:103120000001B96F12000001BA51000AD8B4C3D728
:10313000010AD8B4C7D7030AD8B4CBD7010AD8B488
:10314000CFD7070AD8B4D3D7010AD8B4D7D7030A40
:10315000D8B4DBD7E1D70001BA6F38D0800E0001B8
:10316000B86F0F0E0001B96F1200810E0001B86F29
:103170000F0E0001B96F1200820E0001B86F0F0E22
:103180000001B96F1200830E0001B86F0F0E00012D
:10319000B96F1200840E0001B86F0F0E0001B96FF5
:1031A0001200850E0001B86F0F0E0001B96F1200FA
:1031B000860E0001B86F0F0E0001B96F1200000EED
:1031C0000001B86F000E0001B96F12000001BA5182
:1031D000000AD8B4C3D7010AD8B4C7D7030AD8B4F1
:1031E000CBD7010AD8B4CFD7070AD8B4D3D7010AAE
:1031F000D8B4D7D7030AD8B4DBD7E1D7000E000183
:10320000DA6F0001CC510001D0250001D86F000118
:10321000CE510001D2250001D96FD2C0B8F0D3C081
:10322000B9F0D0C0BAF0D1C0BBF012ECA3F0B8C076
:10323000D6F0B9C0D7F0CEC0BDF00001D80500016E
:10324000BE6F0001D9050001BF6F0001CC515BECDE
:1032500097F0000E0001DA6F13D00001DA51020D71
:10326000F3500001CA25D96EF4500001CB21DA6E6B
:10327000DECFBDF0DDCFBEF0D2ECA4F00001DA2B42
:103280000001DA510001D46FD56B0001D651000165
:10329000D45D0001D7510001D559D8B01200DDD757
:1032A0003ED000017A51140D460E0001B86F020E97
:1032B0000001B96FF3500001B827F4500001B923A1
:1032C00000017B51010DF3500001B825D96EF45077
:1032D0000001B921DA6EDF50D8B41FD0010E000111
:1032E000FF6F00017A51140D460E0001B86F020EF7
:1032F0000001B96FF3500001B827F4500001B92361
:1033000000017B51010DF3500001B825D96EF45036
:103310000001B921DA6E800EDF6E00017B2B130EE7
:1033200000017B65BED7000E00017B6F00017A2B88
:10333000080E4926000E4A22000E486E060E476E01
:103340001200F80E0001B96F000EB86F0EECA6F077
:1033500066EC9BF0DCC0E4F0DDC0E5F0970E000108
:10336000CE6FFF0E0001CF6F7EEC87F024D0DD0E14
:103370000001CE6FFF0E0001CF6F7EEC87F01200D0
:10338000F40E0001CE6FFF0E0001CF6F7EEC87F0D0
:103390001200B50E0001CE6FFF0E0001CF6F7EEC64
:1033A00087F01200C30E0001CE6FFF0E0001CF6F39
:1033B0007EEC87F01200E4C0E2F0E5C0E3F000012B
:1033C000E351000AD8A4EED70001E251010AD8B4B3
:1033D000E0D7030AD8B4D4D7010AD8B4C8D7E2D703
:1033E000B8C0F6FFB9C0F7FF000EF86E0F0EF76415
:1033F00003D00800F55005D0F6CFE9FFF7CFEAFF7C
:10340000EF500001C06F0001BC51010D690EF324A3
:10341000F66EFD0EF420F76EF86A000EF822080032
:10342000F5CFBEF0000E0001BF6F06D00001BA510B
:103430000001BB5F0001BF2B0001BA510001BB5D61
:10344000D8B0F4D70001BC510001BB03F350BB6FEF
:103450000001BF510001BB270001BB290001BD6F66
:1034600003D00001D890C0330001BD2FFAD700016E
:10347000BE510001C0170001C05112000001C95126
:103480000001CA110001CB110001CC11D8B43AD00F
:10349000010E0001CD6F08D00001D890C937CA379E
:1034A000CB37CC370001CD2B0001CCAFF5D70001D5
:1034B000C9510001C55D0001CA510001C659000192
:1034C000CB510001C7590001CC510001C859D8A007
:1034D00010D00001C9510001C55F0001CA510001AF
:1034E000C65B0001CB510001C75B0001CC5100015C
:1034F000C85B0001D890CC33CB33CA33C933000149
:10350000CD2FD5D7C5C0C5F0C6C0C6F0C7C0C7F05F
:10351000C8C0C8F012000001BD6F000E0001BE6FF0
:10352000000E0001BB6F360E80ECA4F00001BD510F
:10353000030B0001BE6F2CD0010E0001BB6FC80E43
:1035400080ECA4F0800E506E800E4F6E1200010EC3
:103550000001BB6FA80E80ECA4F0800E506E800EB0
:103560004F6E1200010E0001BB6F080E80ECA4F03C
:10357000800E506E800E4F6E1200010E0001BB6F68
:10358000680E80ECA4F0800E506E800E4F6E12001C
:103590000001BE51000AD8B4CFD7010AD8B4D7D79A
:1035A000030AD8B4DFD7010AD8A41200E6D7000175
:1035B000BE6F720EF66EFD0EF76E000EF86E09000D
:1035C000F5CFBAF00900F5CFBBF00900F5CFBCF09C
:1035D0000A00F5CFBDF0110E0001BF6F030E000110
:1035E000BE170001BE51010DBA0EF324D96E000EB4
:1035F000F420DA6EDF500001B86FBFC0B9F00001EF
:10360000B82B03D00001D890B9370001B82FFAD7F2
:103610000001B9510001BF6F0001BF390F0B00015C
:10362000BF6F0001BF510F0B0001BF6F010130518F
:103630000001BF19F00BBF190101306F1200000E1D
:1036400000017B6F000E00017A6F000E0001BB6F5E
:103650000E0E0001BB6501D02DD0000E0001BA6F27
:10366000130E0001BA6501D022D0010E0001FF6FD8
:103670000001BB51140D460E0001B86F020E00018F
:10368000B96FF3500001B827F4500001B9230001CD
:10369000BA51010DF3500001B825D96EF450000164
:1036A000B921DA6E800EDF6E0001BA2BD9D7000186
:1036B000BB2BCED7010E00017C6F000E486E060EAC
:1036C000476E000E4A6E060E496E120053EC9DF0D6
:1036D00021EE61F001D80AD00500FA6EDE50FD6ED1
:1036E000DE50FE6EDE50FF6EFA5012000001DE6FFB
:1036F0000001DE510001E06FE16B18D0000E000107
:10370000DD6F030EDC6F1200000E0001DD6F020E94
:10371000DC6F1200000E0001DD6F010EDC6F120085
:10372000000E0001DD6F000EDC6F1200E0C0DEF065
:10373000E1C0DFF00001DF51000AD8A4F1D7000199
:10374000DE51020AD8B4DAD7060AD8B4DDD70C0A9B
:10375000D8B4E0D7E5D7000E00017B6F000E000162
:103760007A6F000E0001BA6F130E0001BA6501D026
:103770001200000E0001BB6F0E0E0001BB6501D0F0
:103780002CD00001BB51140D460E0001B86F020E83
:103790000001B96FF3500001B827F4500001B923BC
:1037A0000001BA51010DF3500001B825D96EF45053
:1037B0000001B921DA6E000EDF6E0001BB51020D6F
:1037C000000EF324D96E010EF420DA6EFF0EDE6EC9
:1037D000FF0EDD6E0001BB2BCFD70001BA2BC4D783
:1037E000590EF66EFD0EF76E000EF86E20EECDF05F
:1037F0000F0E0900F5CFDEFFE806FBE2C7C0C4F0FC
:10380000C8C0C5F0CAC0C6F07EECA2F00001DD6FF2
:10381000040E0001C96120D0040E0001DD611CD03E
:103820000001C951040DCD0E0001CB6F000E000147
:10383000CC6FF3500001CB27F4500001CC230001E2
:10384000DD51010DF3500001CB25D96EF45000017C
:10385000CC21DA6EDF501200050E1200000E0001BE
:10386000BE6F000EBD6F0001BA510001BB11D8B48C
:103870002CD0010E0001BC6F06D00001D890BA37E1
:10388000BB370001BC2B0001BBAFF7D70001D890BC
:10389000BD37BE370001BA510001B85D0001BB5110
:1038A0000001B959D8A00AD00001BA510001B85F8F
:1038B0000001BB510001B95B0001BD810001D8903E
:1038C000BB33BA330001BC2FE1D7BDC0B8F0BEC0D6
:1038D000B9F0120001C0F6FF02C0F7FF000EF86E4B
:1038E0000F0EF76403D00800F55005D0F6CFE9FFBE
:1038F000F7CFEAFFEF50096E0550010D690EF32472
:10390000F66EFD0EF420F76EF86A000EF82208003D
:10391000F5CF07F0000E086E03D00350045E082AAE
:103920000350045CD8B0F9D705500402F350046E7C
:10393000085004260428066E02D0D8900932062EBC
:10394000FCD70750091609501200000E0001CD6F78
:10395000000E0001CE6FC5C0BDF00001C3510001D3
:10396000C7250001CB6F0001CB050001BE6F000130
:10397000C5510001C9250001CC6F0001CC05000133
:10398000BF6F0001C3515BEC97F0C9C0CEF00001DE
:10399000CE510001D8B41200C7C0CDF00001CD5106
:1039A0000001D8B409D0C1C0BDF0C2C0BEF0D2EC95
:1039B000A4F00001CD07F2D70001CE07E8D700013F
:1039C00020EE06F0C751D926C851DA22DECFB8F072
:1039D000DDCFB9F0050E0001BA6F000E0001BB6F1C
:1039E000CDEC9EF0000120EE06F0C751D926C8515B
:1039F000DA22DECFC3F0DDCFC4F0000E0001C56FC8
:103A0000000E0001C66FA2ECA4F0000120EE06F04B
:103A1000C751D926C851DA22DECFB8F0DDCFB9F0D0
:103A2000050E0001BA6F010E0001BB6FCDEC9EF0D8
:103A30001200000120EE06F0C751D926C851DA2243
:103A4000DECFB8F0DDCFB9F0050E0001BA6F000E81
:103A50000001BB6FCDEC9EF0000120EE06F0C751D7
:103A6000D926C851DA22DECFC3F0DDCFC4F0000E74
:103A70000001C56F020E0001C66FA2ECA4F00001A8
:103A800020EE06F0C751D926C851DA22DECFB8F0B1
:103A9000DDCFB9F0050E0001BA6F010E0001BB6F5A
:103AA000CDEC9EF0120096685A0E0001D36F010E05
:103AB0000001D46F010E0001D56FA2EC8FF03C0E17
:103AC0000001D36F010E0001D46F010E0001D56F0C
:103AD000A2EC8FF0320E0001D36F010E0001D46F03
:103AE000010E0001D56FA2EC8FF0460E0001D36FDE
:103AF000010E0001D46F010E0001D56FA2EC8FF012
:103B0000500E0001D36F010E0001D46F010E0001B1
:103B1000D56FA2EC8FF01200AC0E0001DE6F010E2B
:103B20000001DF6F070E0001E06F030E0001E16F7F
:103B3000B1EC8BF0AC0E0001DE6F010E0001DF6F07
:103B4000060E0001E06F030E0001E16FB1EC8BF097
:103B5000BCECA0F0C00E0001E56FC60EE66F2D0EA6
:103B6000E76F000EE86F010E0001E96F010E000122
:103B7000EA6F00EC80F06F0E0001C76F010E0001CC
:103B8000C86FDFEC9CF012000001BA510001B825AB
:103B90000001BD6F0001BB510001B9210001BE6FE2
:103BA0001AD0B8C0D9FFB9C0DAFFDF500001BC6F2E
:103BB000BDC0D9FFBEC0DAFFB8C0E1FFB9C0E2FFA7
:103BC000DFCFE7FF0001B84BB92BBDC0D9FFBEC0A6
:103BD000DAFFBCC0DFFF0001BD07D8A0BE070001AF
:103BE000BD510001B85D0001BE510001B959D8B006
:103BF0001200D7D726D095C0D9FF96C0DAFF0001B2
:103C0000DF94BAC0C9FFC7A0FED7C9CFBAF095C02C
:103C1000D9FF96C0DAFF0001DF8412008BC0D9FF04
:103C20008CC0DAFF0001DF9EBAC06FFF6DA0FED727
:103C30006FCFBAF08BC0D9FF8CC0DAFF0001DF8EE6
:103C40001200000120EE02F0B851D926B951DA2253
:103C5000DF50000AD8B4CFD7010AD8A41200DED7AB
:103C60001FD0000E0001BA6F000EBB6F000EBC6FBC
:103C7000000EBD6F0001BD510001BC1111E1B00E7D
:103C80000001BA5D040E0001BB59D8B009D000F0A4
:103C9000010E0001BA27000EBB23BC23BD23EAD7C7
:103CA0000001B807D8A0B9070001B829DAE100017E
:103CB000B929D8A4D6D7080E0001BA6F800EBB6F01
:103CC000000EBC6F000EBD6F1200050E0001E46F08
:103CD000DEC0D9FFDFC0DAFFDECFE5F0DDCFE6F0F2
:103CE0000001E051020DF3CFE2F00001E051020DBE
:103CF000F3280001E36FE5C0C7F0E6C0C8F0E1C0FB
:103D0000C9F0E2C0CAF0F0EC9BF00001E46F0001E2
:103D1000E451D8A40CD0E5C0C7F0E6C0C8F0E1C0BB
:103D2000C9F0E3C0CAF0F0EC9BF00001E46F0001C1
:103D3000E451120000017B2B060E4726000E48229C
:103D4000060E47240001BC6F000E48200001BD6F25
:103D50000001BDBF09D00001BD5104E1800E00018A
:103D6000BC5DD8B050EC99F0080E49240001BC6F3E
:103D7000000E4A200001BD6F0001BDBF0CD0000144
:103D8000BD5105E1800E0001BC5DD8A004D01FEC40
:103D90009BF0010E1200000E1200010E0001BB1775
:103DA000BAC0BCF0010E0001BD6F0001BC2B03D0F6
:103DB0000001D890BD370001BC2FFAD70001BD51DA
:103DC000FF0A0001BE6FB8C0D9FFB9C0DAFF000119
:103DD000BE51DF16BAC0BCF0BBC0BDF00001BC2BA9
:103DE00003D00001D890BD370001BC2FFAD7B8C06E
:103DF000D9FFB9C0DAFF0001BD51DF121200000186
:103E0000BA510001BB11D8B426D0010E0001BC6F1D
:103E100006D00001D890BA37BB370001BC2B000197
:103E2000BBAFF7D70001BA510001B85D0001BB512B
:103E30000001B959D8A008D00001BA510001B85FFB
:103E40000001BB510001B95B0001D890BB33BA330C
:103E50000001BC2FE7D7B8C0B8F0B9C0B9F0120064
:103E60000001E56F1ED0910E0001DE6F000E000113
:103E7000DF6F000E0001E06F030E0001E16FB1EC97
:103E80008BF017D0910E0001DE6F000E0001DF6F86
:103E9000010E0001E06F030E0001E16FB1EC8BF049
:103EA00008D00001E551000AD8B4DDD7010AD8B422
:103EB000E9D7000E0001CC6F0001E55194ECA0F0B1
:103EC000120029EC8EF0010E5FECA2F00009D8B4CC
:103ED0000CD0E9EC8EF0ABEC9BF0B4EC8AF02CEC5F
:103EE000A5F00009D8A440ECA2F0080E5FECA2F007
:103EF0000009D8B412009B0E0001E56F000E00010E
:103F0000E66F000E0001E86F080EE76F06EC94F014
:103F10002CECA5F00009D8B4120040ECA2F012007D
:103F200000017B51D8B407D0FA0E4726FF0E482275
:103F300000017B0720D000017A51D8B40ED0000ECA
:103F4000486E720E476EF80E4926FF0E4A22130E77
:103F500000017B6F00017A070ED0000E486E060E3E
:103F6000476E000E4A6E060E496E000E00017B6F12
:103F7000000E00017A6F00ECA2F01200050E0001A5
:103F8000ED6F0001E951020DF3CFEBF00001E951B3
:103F9000020DF3280001EC6FE7C0DEF0E8C0DFF0AF
:103FA000EBC0E0F0EAC0E1F065EC9EF00001ED6FDF
:103FB0000001ED51D8A40CD0E7C0DEF0E8C0DFF07E
:103FC000ECC0E0F0EAC0E1F065EC9EF00001ED6FBE
:103FD0000001ED5112000001D16F0001D151B1EC8F
:103FE000A5F00001D1510001D8A41DD00001D89046
:103FF0006B376C3700016C2900016B11D8A406D017
:10400000000E00016C6F000E6B6F09D000016C5147
:1040100006E100016B29D8B002D000016B810001DC
:104020006B5109ECA6F0000E53ECA1F01200000E4B
:104030000001C36F000E0001C46F000E0001BD6FD0
:1040400050040001BE6F4F040001BF6F000E5BEC17
:1040500097F04FC0C4F00001C4510001D8B4120061
:1040600050C0C3F00001C3510001D8B409D0C1C091
:10407000BDF0C2C0BEF0D2ECA4F00001C307F2D77D
:104080000001C407E8D71CD0000E0001BA6F000E73
:10409000BB6F000EBC6F000EBD6F0001BA51000176
:1040A000BB110001BC110001BD11D8A409D000F062
:1040B000010E0001BA27000EBB23BC23BD23EDD7A0
:1040C0000001B807D8A0B9070001B829DDE1000157
:1040D000B929D8B41200D8D766EC9BF0DCC0C2F185
:1040E000DDC0C3F10CD059EC86F0120002EC0AF0EE
:1040F000120029ECA6F01200D8ECA2F01200C2C106
:10410000F2F0C3C1F3F00001F351000AD8A4F4D7D0
:104110000001F251010AD8B4E6D7030AD8B4E6D7B1
:10412000010AD8B4E6D7E8D70001CD6F1CD0910EB4
:104130000001C76F000E0001C86F000E0001C96FBB
:10414000CCC0CAF06EEC94F01200910E0001C76F63
:10415000000E0001C86F010E0001C96FCCC0CAF08B
:104160006EEC94F012000001CD51000AD8B4DFD7F4
:10417000010AD8A41200E9D7F0ECA4F0010E53EC28
:10418000A1F0000E0001B96F800EB86F30EC9EF008
:10419000010E53ECA1F0E1ECA4F0000E0001B96FA8
:1041A000800EB86F30EC9EF0010E53ECA1F0F0ECF5
:1041B000A4F0000E0001B96F800EB86F30EC9EF0D5
:1041C000010E53ECA1F01200010E041603C005F01D
:1041D000010E066E052A02D0D8900636052EFCD7B1
:1041E0000650FF0A076E01C0D9FF02C0DAFF075070
:1041F000DF1603C005F004C006F0052A02D0D890EF
:104200000636052EFCD701C0D9FF02C0DAFF0650E2
:10421000DF121200000120EE06F0B851D926B95184
:10422000DA22DECFBBF0DDCFBCF0BBC0D9FFBCC013
:10423000DAFFDF500001BD6F0001BA51040DF32811
:104240000001BB6F03D00001D890BD330001BB2F2C
:10425000FAD70F0E0001BD170001BD511200050E67
:104260000001F16FEEC0E7F0EFC0E8F0000E0001D2
:10427000E96FF0C0EAF0BEEC9FF00001F16F0001C1
:10428000F151D8A40DD0EEC0E7F0EFC0E8F0010E78
:104290000001E96FF0C0EAF0BEEC9FF00001F16FA1
:1042A0000001F15112000001D06F18D0910E0001F1
:1042B000CC6F000E0001CD6F000E0001CE6F93ECAD
:1042C000A3F01200910E0001CC6F000E0001CD6F23
:1042D000010E0001CE6F93ECA3F012000001D0514B
:1042E000000AD8B4E3D7010AD8A41200EBD7000122
:1042F00020EE06F0B851D926B951DA22DECFBBF054
:10430000DDCFBCF0BBC0D9FFBCC0DAFFDF5000017D
:10431000BD6F0001BA290001BB6F03D00001D89026
:10432000BD330001BB2FFAD7010E0001BD170001FC
:10433000BD511200030E0001C96514D0010E000129
:10434000C7250001C36F000E0001C8210001C46F22
:104350000001C951FC0F0001C56FCAC0C6F091EC45
:10436000A4F01200C7C0C3F0C8C0C4F0C9C0C5F0F3
:10437000CAC0C6F091ECA4F012000001D16F000198
:10438000D151A6ECA5F00001D1510001D8A413D061
:1043900000016B5100016C11D8A405D0FF0E000183
:1043A0006C6F000E6B6F0001D8906C336B330001A3
:1043B0006B5109ECA6F0000E53ECA1F012000001C5
:1043C000BF6F86500F0B0001BE6F4B50D8A402D0B8
:1043D000000E1200000E4B6E0001BF510001BE190D
:1043E000D8B40CD0F00E86160001BF518612000E14
:1043F0000001B96F0A0EB86F43ECA0F0010E120075
:10440000010E0001FF6F00017A51140D460E0001EC
:10441000B86F020E0001B96FF3500001B827F450D5
:104420000001B92300017B51010DF3500001B825B3
:10443000D96EF4500001B921DA6E800EDF6E1200E1
:1044400016D0000E036E000E046E000E056E000EF8
:10445000066E0350041005100610D8A408D000F012
:10446000010E0326000E042205220622F2D70106C1
:10447000D8A002060128E5E10228D8B41200E1D74D
:10448000000168510001691100016A11D8B40DD012
:1044900001D80BD00500FA6E00016851FD6E69511C
:1044A000FE6E6A51FF6EFA501200000E0001686F36
:1044B000000E0001696F000E00016A6F120000011A
:1044C000BF6F86500F0B0001BE6F4B50D8B4FDD7A5
:1044D000000E4B6E0001BF510001BE19D8B40CD0C4
:1044E000F00E86160001BF518612000E0001B96F52
:1044F0000A0EB86F43ECA0F0010E1200030E00018B
:10450000C66512D0010E0001C4250001C16F000E66
:104510000001C5210001C26F0001C651FC0F00015E
:10452000C36F1DECA5F01200C4C0C1F0C5C0C2F03D
:10453000C6C0C3F01DECA5F012000001D16F000150
:10454000D1510001D8A413D00001752B0001755181
:1045500000016D27000E6E236DC0C9F06EC0CAF059
:1045600008ECA4F000017551030BD7EC9AF0000E93
:1045700053ECA1F0120061EC9FF0010E5FECA2F091
:104580000009D8B4FAD732ECA4F020EE9BF000EE8C
:10459000ECF0050EDBCFEBFFE806FCE26CECA0F0E4
:1045A0002CECA5F00009D8B4E8D740ECA2F0E5D790
:1045B00032ECA4F0690E0001CE6FFF0E0001CF6F48
:1045C0007EEC87F0690E0001CE6FFF0E0001CF6F09
:1045D0007EEC87F0690E0001CE6FFF0E0001CF6FF9
:1045E0007EEC87F0ACEC89F01200BBC06FF0BCC071
:1045F00070F0BBC0D9FFBCC0DAFFDE50DE10D8A41B
:104600001200BBC0D9FFBCC0DAFFBDC0DEFFBEC018
:10461000DDFF2CC0B8F02DC0B9F02EC0BAF05AECB6
:10462000A4F012000001B8510001BA03F3CFBCF0AE
:10463000F4CFBDF00001B8510001BB03F3500001FD
:10464000BD270001B9510001BA03F3500001BD2795
:10465000BCC0B8F0BDC0B9F01200086E86500F0B98
:10466000076E4B50D8A402D0000E1200000E4B6E05
:1046700008500718D8B40AD0F00E861608508612D3
:10468000000E026E0A0E016E20ECA2F0010E120066
:10469000B8C0F6FFB9C0F7FF000EF86E0800F5CFFE
:1046A000BCF00001BA290001BB6F03D00001D89013
:1046B000BC330001BB2FFAD7010E0001BC1700016B
:1046C000BC5112000001D16F0001D151BCECA5F02A
:1046D0000001D1510001D8A40AD000016D07D8A073
:1046E0006E076DC0C9F06EC0CAF008ECA4F0000EF1
:1046F00053ECA1F012000001D16F0001D1519BECED
:10470000A5F00001D1510001D8A409D000016D4BE2
:104710006E2B6DC0C9F06EC0CAF008ECA4F0000E9C
:1047200053ECA1F01200CCC0B8F0CDC0B9F0CEC0AF
:10473000BAF077ECA1F00001CF6F010E0001CF1BA2
:10474000CCC0C7F0CDC0C8F0CEC0C9F0CFC0CAF051
:104750006EEC94F01200000120EE02F0B851D92660
:10476000B951DA22DF50D8A407D095C0D9FF96C03E
:10477000DAFF0001DF8412008BC0D9FF8CC0DAFFA2
:104780000001DF8E1200030E0F640CD0010E0D2409
:104790000A6E000E0E200B6E0F50FC0F0C6E3AECE2
:1047A000A5F012000DC00AF00EC00BF00FC00CF007
:1047B0003AECA5F012000001D16F1BECA6F000014D
:1047C000D26F0F0E0001D2170001D13BF00ED117AE
:1047D0000001D1510001D21109ECA6F0000E53ECFA
:1047E000A1F012000001D16F1BECA6F00001D26F06
:1047F0000001D1510001D21109ECA6F0F00E000128
:10480000D2170F0E0001D117000E53ECA1F01200C9
:10481000C9C0BFF0CAC0C0F02A0E0001C16F010EAE
:104820000001C26FC8EC92F02A0E0001B96F010EB0
:104830000001BA6F4CEC96F01200000120EE02F07D
:10484000D351D926D451DA22D5C0DEFFD6C0DDFF40
:10485000D5C0C5F0D6C0C6F00001C76BC86B55EC1B
:1048600090F01200FC0E0001CE6FFF0E0001CF6F22
:10487000000E0001D16F230ED06F7EEC87F0B3ECF9
:10488000A4F0A1EC99F0ACEC89F0120004D09D9654
:104890001200A39E1200000120EE02F0B851D926AA
:1048A000B951DA22DF50000AD8B4F1D7010AD8A4EE
:1048B0001200EFD7B8C029F0B9C02AF0BAC02BF067
