:100000000DEF04F026EF00F004EF0AF0D1EC04F05D
:10001000FF0000F000F012000CEF0AF018EF00F003
:10003000F26AFC6A9BEC04F004009EEC09F0D8EC38
:1000400003F0F3EC03F05EEC08F0F6D701501F0B61
:10005000E80601E01200055001E01200060E021849
:1000600014E01AD0020E3D6E4A0E3FD8306A090ED7
:100070000AD0020E3D6E450402E1870E36D84504D3
:100080000AE1306A1D0E2F6E06D00450210AEAE004
:10009000030AEFE0010A42820138E832030BE80666
:1000A00014E01200020E3D6E440E206E24D0020EAB
:1000B0003D6E04C044F0020C020E3D6E430EF5D7B7
:1000C000020E3D6E03C043F0020C0250010AD8B488
:1000D0001200030AE7E0010AEFE00A0AD8B41200AE
:1000E000030AE5E0010AECE01200206E2050D8A4DB
:1000F000100E216E1200216A4292010E2F6E010C29
:100100004F6A140E506E516A296A2A6A4FC0F6FF70
:1001100050C0F7FF51C0F8FF42D80800F5CFDFFF0D
:100120004F2A000E50225122294A2A2A040E2A5C04
:10013000EDE30D0EE8CFB2F4600EE8CFB3F4000E9D
:10014000496E050E486E0AEC03F04F68170E506EAC
:10015000516A030E2A6E296851C0F8FF50C0F7FF9C
:100160004FC0F6FF1CD8DF50F56E0C0029C04EF0D2
:100170003F0E4E1607E1FEEC09F0040EA66EB50E1A
:1001800067EC04F04F06000E505A515A0A002950ED
:100190002A1001E112002906D8A02A06DDD7AC0EEC
:1001A0002924D96E040E2A20DA6E120003040BE112
:1001B00001501F0B08E1010E3D6E030E021802E113
:1001C000428001D042900350D8A4120001501F0B6E
:1001D000020AD8A4120005500F0BD8B4120028D878
:1001E000476A040E486E4726000E4822F350472601
:1001F000F450482223D847241D6EF45048201E6E28
:10020000030E021805E10FD8040EDF6E0CD81CD0C7
:1002100005AE04D008D8400EDF6E400C04D8080E9E
:10022000DF6E01D811D01DC0D9FF1EC0DAFF120049
:10023000010E3D6E05500F0B080D1200010E05AEAC
:10024000000E040DF3501200000EDB8E000C3D502A
:1002500010E193EC03F0196E3A0405E1010E32EC63
:1002600003F03A6A1200000E32EC03F0010E3A6E0F
:10027000010C01AE1BD0010E3E6E2F50075C3050BA
:10028000085804E207C02FF008C030F076EC01F007
:10029000480E196E010E32EC03F0000E32EC03F042
:1002A000240E04010A6F040E0B6F1CD0020E3E6E6A
:1002B000040E196E0750081002E1480E196E3A0438
:1002C00005E1010E32EC03F03A6A05D0000E32EC83
:1002D00003F0010E3A6E07500810D8A41200040172
:1002E000096B00D0480E086F088F480C080E326E5C
:1002F00030500DE1080E2F5C0AE22FC032F0405062
:1003000002E1010E03D0400402E1020E406E32C051
:1003100009F432502F5E000E305A240E1D6E040E6A
:100320001E6E42A21AD00BD01BD813EC01F00F0E98
:10033000F76403D00800F55001D019D81ED8325008
:10034000F3E112000DD813EC01F00F0EF76403D0A7
:100350000800F55001D00BD810D83250F3E112004C
:1003600020C0F6FF21C0F7FF000EF86E1200F6CF96
:10037000E1FFF7CFE2FFE7501200DF6E1D4A1E2AB1
:10038000204A212A320612000138E832030B18E015
:100390001200010E3D6E040E416E040C010E3D6E06
:1003A000450E206E7BEF00F02CD8496E49C020F03E
:1003B0007BEF00F026D8D96EDA6A03C0DFFF1200A7
:1003C000025002E179EF02F0010A02E1D6EF00F0FB
:1003D000020A02E1D6EF00F0060ADBE0030A02E1BE
:1003E00006EF02F0010AD8B412000F0AD7E0010AA2
:1003F00002E155EF03F0030AD7E0010ADBE0070A48
:100400001200010E3D6E0550460F1200800E0118BD
:1004100030E01200010E3D6EA40E75EC00F0120EDD
:1004200009D003502DE1010E3D6E380E75EC00F041
:10043000306A290E2F6E24D0010E3D6E0350010F3D
:10044000476E47C0F6FF100EF76E000EF86E0900FB
:10045000F5CF20F0100E216EB0EC01F00F0EF76416
:1004600003D00800F55002D0B7EC01F02F6E306ACF
:1004700007D00450010ACEE0030AD3E0010ADCE011
:1004800042821200366A27D03850486E000E48BEAD
:10049000FF0E496E4A6E4B6E4850155C0D6E49500A
:1004A00016580E6E4A5017580F6E4B501858106E53
:1004B0000FC0F8FF0EC0F7FF0DC0F6FF11D80D00FA
:1004C000362A0ED80C00362A240EA66EB50E67EC1E
:1004D00004F0FE0E38263850800A7F0FD5E2120055
:1004E000AC0E3624D96EDA6A040EDA22DF50F56ECD
:1004F0001200246B256B22D0010E3D6E42B0248386
:1005000024D0010E3D6E21D018EC01F0476A040E94
:10051000486E4726000E4822F3504726F4504822E2
:100520001EEC01F047241D6EF45048201E6E13ECA3
:1005300001F0DFA40AD0010E246F07D001501F0B79
:10054000DBE0010ADEE0030ADFE03D04D8A412008C
:10055000240E206E040E216E4292020E2F6E020CAB
:10056000400E486401D0486E4A6A0DD047504A2474
:10057000D96EDA6A6C0E4A24E16EE26A040EE22257
:10058000DFCFE7FF4A2A48504A5CF0E348C011F445
:10059000400E0401101710BD03D0496A492A01D04A
:1005A000496A493A49464946040110514918BF0B66
:1005B0004918106F1087108F12003F6A0CBF12008D
:1005C00048500D5D02E20DC448F03F6A0BD02C0E7E
:1005D0003F24D96EDA6A040EDA2247503F24F9EC40
:1005E00009F03F2A48503F5CF2E3400E0D6F0C17B4
:1005F0000CBD03D0496A492A01D0496A493A4946A3
:10060000494604010C514918BF0B49180C6F0C875F
:100610000C8F1200495006E1050E485C03E2496A5E
:10062000050E486E48504A6E49504B6E4C6A4D6AF2
:100630000A0ED8904A364B364C364D36E82EF9D74E
:100640004AC009F04BC00AF04CC00BF04DC00CF092
:100650000BC0F8FF0AC0F7FFF66A140EA66EB50EBF
:1006600067EF04F0476E080E1A6E1C0E1B6E040E28
:100670001C6E475006E1140E1B6E040E1C6E256A9C
:1006800002D0040E256E266E0BD819C0DEFF1AC0EC
:10069000DEFF1BC0DEFF1CC0DEFF02D8DF8E1200B3
:1006A00025C0D9FF26C0DAFF1200010E3D6E0F01F2
:1006B00016D8346A3450460FD96EDA6ADF6A342AA3
:1006C0003450F8E003C045F04550C9EC04F0035045
:1006D00003E1050E416E050C060E416E060C4D6BD6
:1006E0004E6B4F6B506B516B526B536B1200040E81
:1006F000411808E103C05EFF0F015E51050ED8B43A
:10070000030E416E3E04D8A4120076EC01F0020EF6
:10071000401802E108D8040C0401480E08BD080E78
:10072000086F088F1200040E0401086F088F040C74
:10073000030E416E0F015D6B626A7B0E5C6F5E6B38
:100740006FEC03F0160E4C6F658C03D06296FEECD6
:1007500009F062B6FBD7659C6598040E196E000E11
:1007600032EC03F0010E3A6E426A456A000EC9EFA0
:1007700004F081B818EC00F0060EF66E14D80D0ED9
:10078000F5180DE10900600EF51809E1F66A0BD8BD
:10079000F52803E10900F52802E000EF0AF018EC63
:1007A00000F000EF00F0140EF76EF86A0900140C68
:1007B0002306D8A0240623502410D8A412004E0EDD
:1007C000246E236A060E416002D08B80060C8BB02B
:1007D00003D0476A472A01D0476A8B504718FE0B5F
:1007E00047188B6E1200C0BC1200030ED36E6592C8
:1007F0006596F26A0ED808D0C0AC04D02D06D8A0F9
:100800002E0601D006D804002D502E10F5E1FF0071
:100810001200040E2E6E2D6A040C04EEACF014EEE1
:1008200000F0EE6AE550E150FCE1E250FAE100EE42
:1008300060F0820EEE6AE806FDE100EE01F0460E81
:10084000EE6AE806FDE10001B9EF03F00401086B70
:10085000406A00AF02D0006B3A6A04AF03D0046B69
:10086000010E3A6E3E6A3D6A2F6A306A6598C4ECA2
:1008700001F002EC00F027EF01F005D80AD8376A42
:100880000CD8386A12007E0E3B6E116AFC0E126E96
:10089000FC0C010E136E146A000C156816681768BC
:1008A000186812003F6A1E0E0F014D6F400E0401C2
:1008B0000D6F2C0E0E6F040E0F6F080E0C6F0C8F49
:1008C0006C0E126F040E136F400E106F400C476ECB
:1008D000F29EF3EC03F0B50E471804E0030ED36E5E
:1008E0000300FED7550EA76EAA0EA76EA682A6B26B
:1008F000FED7A69412005CCF35F0040E0F015C6F9A
:1009000062986582A198A088AAEC04F0A09835505E
:100910000F015C131200390402E1D1EC04F0656AA6
:10092000150E0F015F6F5C6B658698EC03F0010E8E
:10093000416E396A1200600ED36E9B8CDCEC04F0C1
:10094000BFEC04F0C16AC26A3DEC04F08B90949055
:10095000E7EF04F08B90D3CF31F00300A1B802D0C1
:10096000D0A6FBD731C0D3FF1200D9EC04F06592BA
:100970000F015C9501D0629462A41200FCD705D0EF
:10098000FEEC09F04706D8A0480647504810F8E1A9
:100990001200476E4704D8A4120052EC04F03DEF59
:1009A00004F06592656A48684768BFEC04F0416AE4
:1009B000120002D8BFEF04F0030E486E476A030C22
:1009C000390401E1120065A68BEC04F0120065B653
:0E09D000D1EC04F0396AE0EF04F012001200DE
:1010000000B6046134034D006900630072006F0094
:1010100063006800690070002000540065006300F0
:1010200068006E006F006C006F00670079002000A0
:1010300049006E0063002E000902290001010080B2
:10104000320904000002030000000921110100011F
:10105000221D000705810340000107050103400030
:101060000126034800490044002000550053004277
:1010700000200042006F006F0074006C006F006180
:10108000006400650072000600FF0901A10119015A
:101090002940150026FF0075089540810019012997
:1010A000409100C01201000200000008D8043C007A
:0B10B00001010102000104030904001B
:1010BC00060E4118D8B465B21200375001E017D1B2
:1010CC0004010CBF1200600E476E400E486EDDEC42
:1010DC0002F0010E376E276A286A2750A10FD96ECD
:1010EC00DA6A000EDF6E274A282A285005E1400EE6
:1010FC00275CD8B01200F1D71200020EA16F3A0E85
:10110C00A26F010EA36FA46FA56B140EA66FA76B35
:10111C00A86B000E1124A96FEC0E1220AA6FFF0E03
:10112C001320AB6FFF0E1420AC6F030EAD6FF80ED7
:10113C00AE6FAF69010EB06FB16B080EB26FB36BCF
:10114C00B46BB56BB669A50EDA6F040110BFA50CB4
:10115C00A10E476E400E486EB0EC02F0376A1200DA
:10116C00615106E17F0E3B6EF80E116E126802D0D3
:10117C0043EC04F049EC04F0F1D7286A050E276E15
:10118C000CD0FEEC09F027C048F028C049F00AEC5E
:10119C0003F09EEC09F0274A282A3B50526E536A02
:1011AC00522A000E53225250275C53502858D6E234
:1011BC00E8D715280EE116280CE117280AE11828A3
:1011CC0008E161C015F062C016F063C017F064C08E
:1011DC0018F015506119C2E116506219BFE1175091
:1011EC006319BCE118506419B9E1276A286A1AD04E
:1011FC006551A0082724D96EDA6AAC0E3824E16E4A
:10120C00E26A040EE222DFCFE7FF382A152A000E2D
:10121C001622172218223A0E381802E142EC02F07C
:10122C00274A282A00017CD899E2E2D742EC02F046
:10123C004DEC04F093D7070EA16F61C0A2F062C011
:10124C00A3F063C0A4F064C0A5F065C0A6F063C0B1
:10125C00F8FF62C0F7FF61C0F6FF276A286A0BD05F
:10126C00090000016551E1082724D96EDA6AF5CF2F
:10127C00DFFF274A282A54D8F3E3040110BF1200D9
:10128C0067D780EC00F06AD70C0EA16F010EA36F2C
:10129C00020EA26F160EF66ED3EC03F0F5CFA4F08F
:1012AC000A00F5CFA5F0060EA66F140EA76FA86B5B
:1012BC00A96B600EAB6F0D0EAA6FAC6B040EAD6F0D
:1012CC00000EAE6BAF6BB069B169B269B369B4694A
:1012DC00B569B669B769B86BB96BBA6BBB6BBC6BEC
:1012EC00BD6BBE6BBF6BC9D706EC00F037D70001E6
:1012FC006051020A01E101D7010A01E131D7070A65
:10130C0001E13BD7010A01E154D7030A8FE0010A3E
:10131C0092E00F0AE9E0010AB4E0050AB5E01ED735
:10132C006551526E536A5250275C53502858120024
:10133C00E0EC04F0415001E1120062B4B5EC04F0B1
:10134C0065B2120062B098EC03F062B87BEC04F06A
:10135C00030E416001D0030C3C6A62A6120064507B
:10136C0064CF4AF07C0E4A162AE164B203D02B6A91
:10137C00040E02D0040E2B6E2C6E62962BC0D9FF7D
:10138C002CC0DAFFDF30E8320F0B0D0A20E1336A94
:10139C0023D8DECF4AF0DDCF4BF04AC0D9FF4BC08B
:1013AC00DAFF3350010F1FD817D8DE2A000EDD22CA
:1013BC00332A070E3364ECD726EC04F008D0040E65
:1013CC00641804E1629677EC03F001D062963C2A33
:1013DC00030E3C64C2D7030C20EE02F02B50D9262E
:1013EC002C50DA221200E16EE26ADFCFE7FF120026
:0413FC0004001200D7
:1014000055EF0AF012000D605182FACF17F0FBCFB2
:1014100018F0E9CF19F0EACF1AF0E1CF1BF0E2CFD4
:101420001CF0D9CF1DF0DACF1EF0F3CF1FF0F4CFB0
:1014300020F0F6CF21F0F7CF22F0F8CF23F0F5CF50
:1014400024F051C025F052C026F053C027F054C0FC
:1014500028F0F292F2B4F2AA02D02FECA4F028C045
:1014600054F027C053F026C052F025C051F024C0DC
:10147000F5FF23C0F8FF22C0F7FF21C0F6FF20C010
:10148000F4FF1FC0F3FF1EC0DAFF1DC0D9FF1CC050
:10149000E2FF1BC0E1FF1AC0EAFF19C0E9FF18C054
:0E14A000FBFF17C0FAFF51921100CAEF96F041
:10FC700000001180002C0100B102003500360000A8
:10FC8000B202003500360000B30200350036000233
:10FC9000003500360000B4000000C0A2000200845D
:10FCA0000000C1C50000C20D00000000C38D002A85
:10FCB0000000C48D00EE0000C50A000036C8000038
:10FCC000E012001C001000180033002C0025002852
:10FCD00000280027002F003C000000030003001054
:10FCE000008000780000E112001C00100018002DB8
:10FCF00000280023002800280026002F003B0000D9
:10FD000000030003001000003A0500002A00000272
:10FD10000000008100002B000003000000A2000092
:10FD200029002C010000000A00000064000000E827
:10FD300003000010270000A086010040420F008051
:10FD400096980000E1F50500CA9A3B0200040008FD
:10FD500000100020004000800000010001020001AE
:10FD60000001000202000003030300000103070F6B
:10FD70001F3F7FFF0002010301041000000000008C
:10FD800000005F00000007000700147F147F1424A8
:10FD90002A7F2A122313086462364955225000052F
:10FDA000030000001C2241000041221C00082A1C04
:10FDB0002A0808083E080800503000000808080813
:10FDC00008006060000020100804023E5149453ED2
:10FDD00000427F400042615149462141454B311864
:10FDE00014127F1027454545393C4A494930017175
:10FDF0000905033649494936064949291E00363660
:10FE00000000005636000000081422411414141497
:10FE10001441221408000201510906324979413E79
:10FE20007E1111117E7F494949363E414141227F71
:10FE30004141221C7F494949417F090901013E4155
:10FE40004151327F0808087F00417F410020404136
:10FE50003F017F081422417F404040407F0204025E
:10FE60007F7F0408107F3E4141413E7F090909061A
:10FE70003E4151215E7F09192946464949493101D0
:10FE8000017F01013F4040403F1F2040201F7F2055
:10FE900018207F6314081463030478040361514934
:10FEA000454300007F4141020408102041417F008A
:10FEB00000040201020440404040400001020400EE
:10FEC00020545454787F48444438384444442038BB
:10FED0004444487F3854545418087E0901020814D9
:10FEE00054543C7F0804047800447D400020404482
:10FEF0003D00007F10284400417F40007C0418042E
:10FF0000787C0804047838444444387C1414140879
:10FF1000081414187C7C0804040848545454200421
:10FF20003F4440203C4040207C1C2040201C3C4062
:10FF300030403C44281028440C5050503C446454F9
:10FF40004C44000836410000007F000000413608A4
:10FF50000008082A1C08081C2A080800FCFF0F00DB
:10FF600000FFFFF0FF00FFFF0020202020202020C6
:10FF70002020202020202020202020202020200A97
:10FF8000004A616D696E204561726C7920393931A2
:10FF900033333339310A0043757272656E74204D04
:10FFA0006F64653A0A00446972656374696F6E3AFA
:10FFB0002025640A0020436F6E74696E756F757337
:10FFC0000A0A0020556E646566696E65640A0A0057
:10FFD0006D44656C74613A20256C640A0020506F92
:10FFE000736974696F6E0A0A0053706565643A201C
:10FFF00025640A0020537465700A0A002563000016
:020000040001F9
:100000000CD0610E0001F06F010E04D06C0E0001E7
:10001000F06F010E0001F16F08D00001EE51000AEF
:10002000D8B4EFD7010AD8B4F1D7000120EE02F01E
:10003000F051D926F151DA22EEC0DFFFB1D0910E96
:100040000001E36F000E0001E46F020E0001E56F96
:10005000030E0001E66FD5EC8BF0910E0001E36F0B
:10006000000E0001E46F030E0001E56F030E0001B6
:10007000E66FD5EC8BF0910E0001E36F000E0001EE
:10008000E46F050E0001E56F030E0001E66FD5EC8D
:100090008BF0910E0001E36F000E0001E46F040E7F
:1000A0000001E56F000E0001E66FD5EC8BF000015A
:1000B00020EE03F0F051D926F151DA22C70EDE6EA0
:1000C0000F0EDD6E000120EE06F0F051D926F15141
:1000D000DA22C60EDE6E0F0EDD6E000120EE09F094
:1000E000F051D926F151DA22C90E56D0870E0001FF
:1000F000E36F000E0001E46F070E0001E56F030ED1
:100100000001E66FD5EC8BF0870E0001E36F000E67
:100110000001E46F060E0001E56F030E0001E66FBB
:10012000D5EC8BF0870E0001E36F000E0001E46F49
:10013000040E0001E56F030E0001E66FD5EC8BF0B5
:10014000870E0001E36F000E0001E46F050E000151
:10015000E56F000E0001E66FD5EC8BF0000120EE9C
:1001600003F0F051D926F151DA226D0EDE6E0F0E3A
:10017000DD6E000120EE06F0F051D926F151DA22B1
:100180006C0EDE6E0F0EDD6E000120EE09F0F051F8
:10019000D926F151DA226F0EDE6E0F0EDD6E09D018
:1001A0000001EE51000AD8B44AD7010AD8A41200BF
:1001B0009DD7000120EE06F0F051D926F151DA2248
:1001C000DECFBDF0DDCFBEF0050E0001BF6F000E2B
:1001D0000001C06FC7EC9EF09CD0000120EE06F03D
:1001E000F051D926F151DA22DECFBDF0DDCFBEF0DD
:1001F000040E0001BF6F000E0001C06FC7EC9EF03F
:10020000000120EE03F0F051D926F151DA22DECFC1
:10021000BDF0DDCFBEF0060E0001BF6F000E000185
:10022000C06FC7EC9EF084D0000120EE06F0F051C4
:10023000D926F151DA22DECFBDF0DDCFBEF0040EBB
:100240000001BF6F000E0001C06FC7EC9EF00001FF
:1002500020EE03F0F051D926F151DA22DECFBDF0C5
:10026000DDCFBEF0060E0001BF6F010E0001C06FB2
:10027000C7EC9EF05DD0000120EE06F0F051D926CB
:10028000F151DA22DECFBDF0DDCFBEF0040E000169
:10029000BF6F010E0001C06FC7EC9EF0000120EEA1
:1002A00003F0F051D926F151DA22DECFBDF0DDCFD7
:1002B000BEF0060E0001BF6F000E0001C06FC7EC5C
:1002C0009EF036D0000120EE06F0F051D926F15113
:1002D000DA22DECFBDF0DDCFBEF0040E0001BF6F2D
:1002E000010E0001C06FC7EC9EF0000120EE03F08C
:1002F000F051D926F151DA22DECFBDF0DDCFBEF0CC
:10030000060E0001BF6F010E0001C06FC7EC9EF02A
:100310000FD00001EF51000AD8B45FD7010AD8B45A
:1003200083D7030AD8B4A7D7010AD8A41200CAD722
:10033000000120EE06F0F051D926F151DA22DECF8D
:10034000BDF0DDCFBEF0070E0001BF6F000E000153
:10035000C06FC7EC9EF0000120EE06F0F051D926E8
:10036000F151DA22DECFBDF0DDCFBEF0060E000186
:10037000BF6F000E0001C06FC7EC9EF0EAC0CAF06C
:10038000EBC0CBF0ECC0CCF0EDC0CDF029EC91F09F
:10039000F0C0BDF0F1C0BEF008ECA4F004D09F8620
:1003A0000BD0A58E09D00001EE51000AD8B4F7D7C2
:1003B000010AD8A41200F5D7F0C0BDF0F1C0BEF01C
:1003C00059ECA3F0F0C0D9FFF1C0DAFF000EDF6EE8
:1003D000000120EE06F0F051D926F151DA22DECFED
:1003E000C8F0DDCFC9F0000E0001CA6F030E000196
:1003F000CB6F64ECA4F0000120EE06F0F051D9269A
:10040000F151DA22DECFBDF0DDCFBEF0050E0001E6
:10041000BF6F010E0001C06FC7EC9EF01200080E06
:100420000001CC250001C96F000E0001CD210001A3
:10043000CA6F000E0001CB6F49ECA2F00001E36F20
:100440000001E3510001CF6FD06B0E0ED890000178
:10045000CF37D037E82EFAD70001E3510001D16F32
:10046000D26B0C0ED8900001D137D237E82EFAD7D4
:100470000001E3510001D36FD46B0A0ED890000144
:10048000D337D437E82EFAD70001E3510001D66FF5
:10049000D56B0001E3510001D76FD86B060ED890E1
:1004A0000001D737D837E82EFAD70001E351000111
:1004B000D96FDA6B0001D93BDA3BF00EDA17D9516C
:1004C0000F0BDA13F00ED9170001E3510001DB6FB7
:1004D000DC6B0001D890DB37DC370001D890DB37CC
:1004E000DC370001E3510001DD6FDE6B0001DB5101
:1004F0000001DD130001DC510001DE130001D951C0
:100500000001DD130001DA510001DE130001D751B3
:100510000001DD130001D8510001DE130001D551A7
:100520000001DD130001D6510001DE130001D3519B
:100530000001DD130001D4510001DE130001D1518F
:100540000001DD130001D2510001DE130001CF5183
:100550000001DD110001DF6F0001D0510001DE114B
:100560000001E06FE3C0E1F00001E26B080E000162
:10057000CC250001C96F000E0001CD210001CA6F1A
:10058000010E0001CB6F49ECA2F00001CF6FD06BE0
:100590000001D890CF37D0370001D890CF37D0376F
:1005A0000001CF510001E1130001D0510001E2131D
:1005B000080E0001CC250001C96F000E0001CD21FD
:1005C0000001CA6F020E0001CB6F49ECA2F00001DE
:1005D000CF6FD06B0001CF3BD03BF00ED017CF5187
:1005E0000F0BD013F00ECF170001CF510001E11314
:1005F0000001D0510001E213080E0001CC250001DA
:10060000C96F000E0001CD210001CA6F030E000169
:10061000CB6F49ECA2F00001CF6FD06B060ED890E3
:100620000001CF37D037E82EFAD70001CF510001B3
:10063000E1130001D0510001E213080E0001CC25A6
:100640000001C96F000E0001CD210001CA6F040E28
:100650000001CB6F49ECA2F00001CF6F0001CF5138
:100660000001D16FD06B0001D0510001E1130001F6
:10067000D1510001E213080E0001CC250001C96F21
:10068000000E0001CD210001CA6F050E0001CB6FE5
:1006900049ECA2F00001CF6FD06B0A0ED890000198
:1006A000CF37D037E82EFAD70001CF510001E11340
:1006B0000001D0510001E213080E0001CC25000119
:1006C000C96F000E0001CD210001CA6F060E0001A6
:1006D000CB6F49ECA2F00001CF6FD06B0C0ED8901D
:1006E0000001CF37D037E82EFAD70001CF510001F3
:1006F000E1130001D0510001E213080E0001CC25E6
:100700000001C96F000E0001CD210001CA6F070E64
:100710000001CB6F49ECA2F00001CF6FD06B0E0E41
:10072000D8900001CF37D037E82EFAD70001CF514B
:100730000001E1130001D0510001E2130001E15179
:100740000001DF1948E10001E2510001E019D8A4DD
:10075000120032D0000120EE02F0CC51D926CD514A
:10076000DA22DECFBDF0DDCFBEF0CEC0BFF099EC17
:10077000A5F012000001CE1F000120EE02F0CC51C6
:10078000D926CD51DA22DECFBDF0DDCFBEF0CEC00E
:10079000BFF099ECA5F01200000120EE04F0CC515E
:1007A000D926CD51DA22DECFBDF0DDCFBEF0CEC0EE
:1007B000BFF099ECA5F012000001E351000AD8B493
:1007C0001200010AD8B4C6D7030AD8B4D3D7010A95
:1007D000D8A41200E1D71200000E0001EC6F000E49
:1007E000EB6F000E0001EA6F000EE96F35D121EECC
:1007F0004AF001D80AD00500FA6EDE50FD6EDE50D8
:10080000FE6EDE50FF6EFA501200E806D8A430D01B
:1008100021EE54F001D80AD00500FA6EDE50FD6ECC
:10082000DE50FE6EDE50FF6EFA5012000009D8A4B2
:100830001FD00001ECBF08D00001EC5119E10A0EF5
:100840000001EB5DD8B014D021EE4AF001D80AD0F7
:100850000500FA6EDE50FD6EDE50FE6EDE50FF6E5D
:10086000FA501200E806D8B4EFD70001EB4BEC2B9E
:1008700021EE54F001D80AD00500FA6EDE50FD6E6C
:10088000DE50FE6EDE50FF6EFA501200E806D8A46D
:1008900030D021EE4AF001D80AD00500FA6EDE50C1
:1008A000FD6EDE50FE6EDE50FF6EFA501200000943
:1008B000D8A41FD00001ECBF1CD00001EC5104E112
:1008C0000001EB05D8A015D021EE54F001D80AD0D4
:1008D0000500FA6EDE50FD6EDE50FE6EDE50FF6EDD
:1008E000FA501200E806D8B4EFD70001EB07D8A001
:1008F000EC0721EE40F001D80AD00500FA6EDE5078
:10090000FD6EDE50FE6EDE50FF6EFA501200E806FD
:10091000D8A416D021EE36F001D80AD00500FA6E20
:10092000DE50FD6EDE50FE6EDE50FF6EFA5012009D
:100930000009D8A405D0000E0001EA6F010EE96F8E
:1009400021EE36F001D80AD00500FA6EDE50FD6EB9
:10095000DE50FE6EDE50FF6EFA501200E806D8A49C
:1009600014D021EE40F001D80AD00500FA6EDE5016
:10097000FD6EDE50FE6EDE50FF6EFA501200000972
:10098000D8A403D00001E969EA69F4ECA3F0FF0EF2
:100990000001BE6FE00EBD6FCAECA5F0E90E0001CC
:1009A000D36FFF0E0001D46FEBC0D5F0ECC0D6F0D2
:1009B000A2EC87F0A60E0001D36FFF0E0001D46FEA
:1009C000E9C0D5F0EAC0D6F0A2EC87F0D00E000165
:1009D000D36FFF0E0001D46F9BC0D5F09CC0D6F042
:1009E0000001000ED6BFFF0ED76FD86FA2EC87F0C4
:1009F000D0EC89F0080E2AECA2F00009D8B42AD075
:100A00009B0E0001D86F000E0001D96FEBC0BDF046
:100A1000ECC0BEF0000E0001C06F0A0EBF6FC0EC4C
:100A2000A2F0BDC0DAF0BEC0DBF0CBECA3F09B0EB1
:100A30000001C06F000E0001C16F000E0001C36F06
:100A4000640EC26FA3ECA2F0EEECA4F00009D8A4EF
:100A50000BECA2F04DEC9DF024EC9BF00001E105C5
:100A60000001E211D8A41200C2D60001BD6F7ED0F1
:100A70003F0E1200060E12005B0E12004F0E120007
:100A8000660E12006D0E12007D0E1200070E12008F
:100A90007F0E12006F0E12005F0E12007C0E12000D
:100AA000580E12005E0E12007B0E1200710E120024
:100AB0006F0E1200740E1200040E12000E0E1200C1
:100AC0007A0E1200060E1200140E1200540E1200BE
:100AD0005C0E1200730E1200670E1200500E120010
:100AE0006D0E1200780E12001C0E1200620E120023
:100AF0002A0E1200640E12006E0E12005B0E12001F
:100B0000770E12007F0E1200390E12003F0E1200F7
:100B1000790E1200710E12003D0E1200760E1200B8
:100B2000060E12001E0E1200570E1200380E120092
:100B3000760E1200760E12003F0E1200730E120097
:100B40003F0E1200770E12006D0E1200310E1200D1
:100B50003E0E12003E0E12007E0E1200760E1200A5
:100B6000660E12005B0E1200800E12000001BD51D5
:100B70002E0AD8B4F9D71E0AD8B47AD7010AD8B445
:100B800079D7030AD8B478D7010AD8B477D7070A37
:100B9000D8B476D7010AD8B475D7030AD8B474D7B5
:100BA000010AD8B473D70F0AD8B472D7010AD8B4DF
:100BB00071D7780AD8B4A4D7030AD8B4A3D7010A46
:100BC000D8B4A2D7070AD8B4A1D7010AD8B4A0D7FD
:100BD000030AD8B49FD7010AD8B49ED70F0AD8B455
:100BE0009DD7010AD8B49CD7030AD8B49BD7010A71
:100BF000D8B49AD7070AD8B499D7010AD8B498D7E5
:100C0000030AD8B497D7010AD8B496D71F0AD8B424
:100C100095D7010AD8B494D7030AD8B493D7010A58
:100C2000D8B492D7070AD8B491D7010AD8B490D7CC
:100C3000030AD8B48FD7010AD8B48ED70F0AD8B414
:100C40008DD7010AD8B48CD7030AD8B48BD73B0A06
:100C5000D8B422D7030AD8B421D7010AD8B420D7F0
:100C6000070AD8B41FD7010AD8B41ED7030AD8B4CC
:100C70001DD7010AD8B41CD70F0AD8B41BD7010A54
:100C8000D8B41AD7030AD8B419D7010AD8B418D7D8
:100C9000070AD8B417D7010AD8B416D7030AD8B4AC
:100CA00015D7010AD8B414D71F0AD8B413D7010A2C
:100CB000D8B412D7030AD8B411D7010AD8B410D7C0
:100CC000070AD8B40FD7010AD8B40ED7030AD8B48C
:100CD0000DD7010AD8B40CD70F0AD8B40BD7010A24
:100CE000D8B40AD7030AD8B409D7000E1200050EEB
:100CF0000001F76FC7D0000120EE02F0F351D926B2
:100D0000F451DA22DECFC8F0DDCFC9F0F5C0CAF069
:100D10000F0E0001CB6F64ECA4F0000120EE04F094
:100D2000F351D926F451DA22DECFC8F0DDCFC9F075
:100D3000F5C0CAF0000E0001CB6F64ECA4F0B0D097
:100D4000F3C0ECF0F4C0EDF0F5C0EEF0030E0001DE
:100D5000EF6F89EC9FF00001F76F0001F751D8A405
:100D60001200000120EE02F0F351D926F451DA22EC
:100D7000DECFC8F0DDCFC9F0F5C0CAF0000E00012B
:100D8000CB6F64ECA4F0000120EE04F0F351D926FF
:100D9000F451DA22DECFC8F0DDCFC9F0F5C0CAF0D9
:100DA000000E0001CB6F64ECA4F07AD0F3C0ECF03D
:100DB000F4C0EDF0F5C0EEF0030E0001EF6F89EC2A
:100DC0009FF00001F76F0001F751D8A41200000155
:100DD00020EE02F0F351D926F451DA22DECFC8F02A
:100DE000DDCFC9F0F5C0CAF00F0E0001CB6F64EC87
:100DF000A4F0000120EE04F0F351D926F451DA22D8
:100E0000DECFC8F0DDCFC9F0F5C0CAF00F0E00018B
:100E1000CB6F64ECA4F044D0F3C0ECF0F4C0EDF080
:100E2000F5C0EEF0030E0001EF6F89EC9FF00001BA
:100E3000F76F0001F751D8A41200000120EE02F074
:100E4000F351D926F451DA22DECFC8F0DDCFC9F054
:100E5000F5C0CAF0000E0001CB6F64ECA4F00001F5
:100E600020EE04F0F351D926F451DA22DECFC8F097
:100E7000DDCFC9F0F5C0CAF0000E0001CB6F64EC05
:100E8000A4F00ED00001F651000AD8B434D7010AFC
:100E9000D8B456D7030AD8B489D7010AD8B4BCD776
:100EA000080E0001F3250001CC6F000E0001F421B3
:100EB0000001CD6F0001F551040DF3CFCEF0F6C067
:100EC000CFF065ECA1F0080E0001F3250001CC6F16
:100ED000000E0001F4210001CD6F0001F551040D59
:100EE000F3280001CE6FF6C0CFF065ECA1F0080E3C
:100EF0000001F3250001CC6F000E0001F421000178
:100F0000CD6F0001F551040DF350020F0001CE6FBB
:100F1000F6C0CFF065ECA1F0080E0001F32500014A
:100F2000CC6F000E0001F4210001CD6F0001F551DE
:100F3000040DF350030F0001CE6FF6C0CFF065EC47
:100F4000A1F01200D50E0001DE6F000E0001DF6F70
:100F500001D1250E0001E419D8B405D00001E451F7
:100F600092ECA5F0F7D0000E0001DD6F14D0000167
:100F7000DD8911D0DEC0D9FFDFC0DAFFDF5000010C
:100F8000E46F020E0001DE27000EDF230001E451B2
:100F900092ECA5F0DFD0D3C0F6FFD4C0F7FF00017C
:100FA000D34BD42B000EF86E0800F5CFE4F000010F
:100FB000E451000AD8B41200630AD8B4DBD7070A98
:100FC000D8B407D00D0AD8B404D0050AD8B4CFD706
:100FD000DDD70001DDA90ED0DEC0D9FFDFC0DAFF0A
:100FE000DECFE0F0DECFE1F0DECFE2F0DECFE3F007
:100FF000040E0FD0DEC0D9FFDFC0DAFFDECFE0F095
:10100000DDCFE1F00001000EE1BFFF0EE26FE36F04
:10101000020E0001DE27000EDF230001E3AF0CD03B
:10102000030E0001DD130001E31FE21FE11FE06D6D
:10103000000EE123E223E323010E0001E46F0A0E18
:101040000001E419D8B421D00001E451040D230EAD
:10105000F324F66EFD0EF420F76EF86A000EF82207
:101060000900F5500001E05D0900F5500001E1596B
:101070000900F5500001E2590900F5500001E3595B
:10108000D8A003D00001E42BDAD7DDC0D9F0030EDD
:101090000001D917D8B403D02D0E92ECA5F00001B1
:1010A000E4510001DB6FDC6BDBBFDC0748D0DBC049
:1010B000D9F0DCC0DAF00001D890D937DA37000176
:1010C000D890D937DA37230E0001D925F66EFD0EF8
:1010D000DA21F76EF86A000EF8220900F5CFC1F0A8
:1010E0000900F5CFC2F00900F5CFC3F00A00F5CF33
:1010F000C4F0E0C0BDF0E1C0BEF0E2C0BFF0E3C0AC
:10110000C0F0B4EC95F0BDC0CAF0BEC0CBF0BFC01B
:10111000CCF0C0C0CDF00A0E0001CE6F000ECF6F34
:10112000000ED06F000ED16FB5EC99F00001CA51DE
:10113000300F0001E46F0001E45192ECA5F00001D2
:10114000DB07D8A0DC070001DB29B1E10001DC29C5
:10115000D8A4ADD7D3C0F6FFD4C0F7FF0001D34B5E
:10116000D42B000EF86E0800F5CFE4F00001E45136
:10117000D8B41200EED6050E0101BD6F7AD0010180
:1011800020EE02F0BA51D926BB51DA22DECFF7F0B9
:10119000DDCFF8F0F7C0D9FFF8C0DAFFFF0E67D057
:1011A000BAC1F3F0BBC1F4F0010E0001F56FFAEC27
:1011B000A0F00101BD6F0101BD51D8A412000101D1
:1011C00020EE02F0BA51D926BB51DA22DECFF7F079
:1011D000DDCFF8F0F7C0D9FFF8C0DAFF000EDF6E00
:1011E000010120EE04F036D0BAC1F3F0BBC1F4F037
:1011F000020E0001F56FFAECA0F00101BD6F0101D4
:10120000BD51D8A41200010120EE02F0BA51D92636
:10121000BB51DA22DECFF7F0DDCFF8F0F7C0D9FF0F
:10122000F8C0DAFFFF0EDF6E010120EE04F0AAD74E
:10123000BAC1F3F0BBC1F4F0000E0001F56FFAEC97
:10124000A0F00101BD6F0101BD51D8A41200010140
:1012500020EE02F0BA51D926BB51DA22DECFF7F0E8
:10126000DDCFF8F0F7C0D9FFF8C0DAFF000EDF6E6F
:101270000ED00101BC51000AD8B481D7010AD8B4FC
:101280008FD7030AD8B4B0D7010AD8B4D1D7080E83
:101290000101BA250001CC6F000E0101BB21000144
:1012A000CD6F000E0001CE6FBCC1CFF065ECA1F098
:1012B000080E0101BA250001CC6F000E0101BB210F
:1012C0000001CD6F010E0001CE6FBCC1CFF065EC07
:1012D000A1F0080E0101BA250001CC6F000E01013A
:1012E000BB210001CD6F020E0001CE6FBCC1CFF05B
:1012F00065ECA1F0080E0101BA250001CC6F000ECB
:101300000101BB210001CD6F030E0001CE6FBCC1F6
:10131000CFF065ECA1F0080E0101BA250001CC6FF9
:10132000000E0101BB210001CD6F040E0001CE6F44
:10133000BCC1CFF065ECA1F0080E0101BA25000197
:10134000CC6F000E0101BB210001CD6F050E000125
:10135000CE6FBCC1CFF065ECA1F0080E0101BA253B
:101360000001CC6F000E0101BB210001CD6F060E04
:101370000001CE6FBCC1CFF065ECA1F0080E0101F9
:10138000BA250001CC6F000E0101BB210001CD6F19
:10139000070E0001CE6FBCC1CFF065ECA1F01200CA
:1013A0000001FF51D8B41200C9C1E3F0CAC1E4F092
:1013B000CBC1E5F0CCC1E6F000017C51D8B405D03A
:1013C0007AC0E2F00F0E00017A6F000E0001E86FA4
:1013D000DFD00001E851020D000EF324D96E010E9A
:1013E000F420DA6EDECFFDF0DDCFFEF0000E00015E
:1013F000E76F130E0001E76501D0BED00001E85190
:10140000140D460E0001E06F020E0001E16FF35073
:101410000001E027F4500001E1230001E751010D34
:10142000F3500001E025D96EF4500001E121DA6E9D
:10143000DFAE9AD00001E851140D460E0001E06FB6
:10144000020E0001E16FF3500001E027F4500001AB
:10145000E1230001E751010DF3500001E025D96EB1
:10146000F4500001E121DA6E7F0EDF160001E85131
:10147000140D460E0001E06F020E0001E16FF35003
:101480000001E027F4500001E1230001E751010DC4
:10149000F3500001E025D96EF4500001E121DA6E2D
:1014A000DF50D8B44AD073C0C6F074C0C7F0E3C0F0
:1014B000C8F0E4C0C9F0E5C0CAF0E6C0CBF0F9C09E
:1014C000CCF0FAC0CDF0FBC0CEF0FCC0CFF09FEC6A
:1014D0009CF00001E851140D460E0001E06F020E71
:1014E0000001E16FF3500001E027F4500001E12317
:1014F0000001E751010DF3500001E025D96EF450D1
:101500000001E121DA6EDF50C2EC93F0C2C0CFF0EF
:10151000C3C0D0F0E3C0D1F0E4C0D2F0E5C0D3F056
:10152000E6C0D4F0F9C0D5F0FAC0D6F0FBC0D7F0D1
:10153000FCC0D8F0C4EC98F017D0000E0001C76FC3
:10154000000EC66FE3C0C8F0E4C0C9F0E5C0CAF041
:10155000E6C0CBF0F9C0CCF0FAC0CDF0FBC0CEF0C5
:10156000FCC0CFF09FEC9CF0060E0001E327000EBC
:10157000E4230001E72B3DD7080E0001E527000E0C
:10158000E623000E0001E46F060EE36F0001E82B76
:101590000001E85100017A5DD8B01BD700017C51F1
:1015A000D8B41200000E00017C6FE2C07AF0120085
:1015B000570E0101BA6F010E0101BB6F000E010150
:1015C000BD6F020EBC6FCE0E0101BE6F4B0E01014E
:1015D000BF6F010E0101C06F2A0E0101C16F4A0EDB
:1015E0000101C26F010E0101C36F400E0101C46F02
:1015F000470E0101C56F010E0101C66F58EC93F053
:10160000390E0101BA6F010E0101BB6F000E01011D
:10161000BD6F020EBC6FCE0E0101BE6F4B0E0101FD
:10162000BF6F010E0101C06F8A0E0101C16F4A0E2A
:101630000101C26F010E0101C36F6C0E0101C46F85
:101640003F0E0101C56F010E0101C66F58EC93F00A
:101650002F0E0101BA6F010E0101BB6F000E0101D7
:10166000BD6F020EBC6FCE0E0101BE6F4B0E0101AD
:10167000BF6F010E0101C06F720E0101C16F4A0EF2
:101680000101C26F010E0101C36F100E0101C46F91
:10169000430E0101C56F010E0101C66F58EC93F0B6
:1016A000430E0101BA6F010E0101BB6F000E010173
:1016B000BD6F020EBC6FCE0E0101BE6F4B0E01015D
:1016C000BF6F010E0101C06F5A0E0101C16F4A0EBA
:1016D0000101C26F010E0101C36F520E0101C46FFF
:1016E000460E0101C56F010E0101C66F58EC93F063
:1016F0004D0E0101BA6F010E0101BB6F000E010119
:10170000BD6F020EBC6FCE0E0101BE6F4B0E01010C
:10171000BF6F010E0101C06F420E0101C16F4A0E81
:101720000101C26F010E0101C36F200E0101C46FE0
:10173000460E0101C56F010E0101C66F58EC93F012
:10174000A00E0001EA6F860EEB6F010EEC6F000E2B
:10175000ED6F000E0001EE6F020E0001EF6F00EC66
:1017600080F0610E0001CC6F010E0001CD6F13EC13
:101770009DF0000E0101C86F000EC76F0101C85136
:1017800013E1080E0101C75DD8B01200270E010158
:10179000C725D96E010E0101C821DA6E000EDF6E79
:1017A0000101C74BC82BEAD71200E3C0D9FFE4C040
:1017B000DAFFDECFE8F0DDCFE9F0050E0001E76FDC
:1017C000B5D0000120EE02F0E351D926E451DA222F
:1017D000DECFBDF0DDCFBEF0E5C0BFF0010E0001F1
:1017E000C06FC7EC9EF0B0D0E8C0CCF0E9C0CDF03F
:1017F000010E0001CE6FE5C0CFF0AEEC9BF0000112
:10180000E76F0001E751D8A41200000120EE02F0BA
:10181000E351D926E451DA22DECFBDF0DDCFBEF0B0
:10182000E5C0BFF0000E0001C06FC7EC9EF00001E4
:1018300020EE04F0E351D926E451DA22DECFBDF0E8
:10184000DDCFBEF0E5C0BFF0000E0001C06FC7ECF9
:101850009EF07AD0E8C0CCF0E9C0CDF0020E0001D5
:10186000CE6FE5C0CFF0AEEC9BF00001E76F00015A
:10187000E751D8A41200000120EE02F0E351D9266E
:10188000E451DA22DECFBDF0DDCFBEF0E5C0BFF01F
:10189000010E0001C06FC7EC9EF0000120EE04F0C5
:1018A000E351D926E451DA22DECFBDF0DDCFBEF020
:1018B000E5C0BFF0010E0001C06FC7EC9EF044D040
:1018C000E8C0CCF0E9C0CDF0000E0001CE6FE5C05D
:1018D000CFF0AEEC9BF00001E76F0001E751D8A418
:1018E0001200000120EE02F0E351D926E451DA2281
:1018F000DECFBDF0DDCFBEF0E5C0BFF0000E0001D1
:10190000C06FC7EC9EF0000120EE04F0E351D92631
:10191000E451DA22DECFBDF0DDCFBEF0E5C0BFF08E
:10192000000E0001C06FC7EC9EF00ED00001E65122
:10193000000AD8B446D7010AD8B456D7030AD8B497
:1019400089D7010AD8B4BCD7080E0001E3250001ED
:10195000CC6F000E0001E4210001CD6FE5C0CEF098
:10196000E6C0CFF065ECA1F012000001D06FB1D05D
:1019700016EC99F012005BEC9FF01200DDEC9AF08F
:101980001200F4EC94F0120094EC9EF0120085EC3E
:10199000A4F01200D0C0CDF07F0E0001CD170001E1
:1019A0007A51140D460E0001CE6F020E0001CF6F6A
:1019B000F3500001CE27F4500001CF2300017B51EA
:1019C000010DF3500001CE25D96EF4500001CF2156
:1019D000DA6EDF507F0B0001CD19D8B42ED0010E86
:1019E0000001FF6F00017A51140D460E0001CD6F0A
:1019F000020E0001CE6FF3500001CD27F45000011C
:101A0000CE2300017B51010DF3500001CD25D96E8D
:101A1000F4500001CE21DA6E0001D0518009DF6E52
:101A200000017A51020D000EF324D96E010EF4204C
:101A3000DA6EFDC0DEFFFEC0DDFF94EC9EF0000913
:101A4000D8B41200D0C0CDF07F0E0001CD17000138
:101A50007A51140D460E0001CE6F020E0001CF6FB9
:101A6000F3500001CE27F4500001CF2300017B5139
:101A7000010DF3500001CE25D96EF4500001CF21A5
:101A8000DA6EDF507F0B0001CD19D8B41200010EC1
:101A90000001FF6F00017A51140D460E0001CD6F59
:101AA000020E0001CE6FF3500001CD27F45000016B
:101AB000CE2300017B51010DF3500001CD25D96EDD
:101AC000F4500001CE21DA6E0001D0518009DF6EA2
:101AD00012000001D051070AD8B456D70F0AD8B463
:101AE0004AD7010AD8B44DD7030AD8B441D7060A59
:101AF000D8B444D7010AD8B43BD72D0AD8B44AD7B2
:101B0000030AD8B444D746D70101C0511EEC98F05F
:101B1000BEC1D9FFBFC1DAFF0001BDC0DEFF0001B9
:101B2000BEC0DDFF0101C05171EC98F0010120EE53
:101B300006F0BE51D926BF51DA220001BDC0DEFF3A
:101B40000001BEC0DDFF0101C05171EC98F0010140
:101B500020EE04F0BE51D926BF51DA220001BDC0EB
:101B6000DEFF0001BEC0DDFF0101C051CBEC97F0EC
:101B7000010120EE02F0BE51D926BF51DA22000148
:101B8000BDC0DEFF0001BEC0DDFF010120EE04F09C
:101B9000BE51D926BF51DA22DECFC1F1DDCFC2F16D
:101BA000C1C1D9FFC2C1DAFF000EDF6E010120EE14
:101BB00002F0BE51D926BF51DA22DECFC1F1DDCF0E
:101BC000C2F1C1C1D9FFC2C1DAFFFF0EDF6EBEC1D3
:101BD000BAF1BFC1BBF1000E0101BC6FBBEC88F0D4
:101BE000000E0101C36F070E0101C36531D04BD058
:101BF000BEC1E3F0BFC1E4F0C3C1E5F0030E0001D4
:101C0000E66FD5EC8BF03CD0BEC1E3F0BFC1E4F091
:101C1000C3C1E5F0020E0001E66FD5EC8BF030D0C9
:101C2000BEC1E3F0BFC1E4F0C3C1E5F0010E0001A5
:101C3000E66FD5EC8BF024D0BEC1E3F0BFC1E4F079
:101C4000C3C1E5F0000E0001E66FD5EC8BF018D0B3
:101C5000BEC1D9FFBFC1DAFFDECFC9F0DDCFCAF008
:101C6000C3C1CBF049ECA2F0000AD8B4C1D7010A35
:101C7000D8B4D6D7030AD8B4C7D7010AD8B4DCD7AA
:101C80000101C32BB0D7BEC1CCF0BFC1CDF0000E57
:101C90000001CE6F0FEC82F01200010E4B6E000EB1
:101CA0000001686F000E0001696F000E00016A6F8D
:101CB0009F0E0101BE6F010E0101BF6F000E0101F9
:101CC000C06F84EC8DF0950E0101BE6F010E010115
:101CD000BF6F010E0101C06F84EC8DF0910E010108
:101CE000BE6F000E0101BF6F020E0101C06F84ECD8
:101CF0008DF0870E0101BE6F000E0101BF6F030E54
:101D00000101C06F84EC8DF07D0E0101BE6F000EED
:101D10000101BF6F040E0101C06F84EC8DF0A90EAC
:101D20000101BE6F010E0101BF6F050E0101C06F01
:101D300084EC8DF08B0E0101BE6F010E0101BF6FAF
:101D4000060E0101C06F84EC8DF0A90E0001E36F57
:101D5000010E0001E46F050E0001E56F000E0001A9
:101D6000E66FD5EC8BF0950E0001F36F010E0001CC
:101D7000F46F000E0001F56F000E0001F66F77ECB6
:101D800086F0A90E0001E36F010E0001E46F060E5C
:101D90000001E56F030E0001E66FD5EC8BF08B0EB2
:101DA0000101BA6F010E0101BB6F030E0101BC6F8F
:101DB000BBEC88F08B0E0001CC6F010E0001CD6FE3
:101DC000040E0001CE6F000E0001CF6F92EC94F074
:101DD000A90E0001CC6F010E0001CD6F060E0001AF
:101DE000CE6F010E0001CF6F92EC94F0000E2AEC42
:101DF0009FF0010E2AEC9FF0000E9E6E000EA16E69
:101E0000000EA46E9B8E9B8C000E0001BE6F640EB4
:101E1000BD6F2AEC9EF0D08E120086EC9DF0000E75
:101E20000001F56F000EF46F0001F55106E1590E47
:101E30000001F45DD8B08BD001D089D0D8900001DA
:101E4000F435F66E0001F535F76E710EF626FC0ED0
:101E5000F722F86A000EF8220900800EF518090032
:101E6000F510D8A422D00001F5511FE1580E000151
:101E7000F45DD8B01AD00001F44BF52BD8900001D6
:101E8000F435F66E0001F535F76E710EF626FC0E90
:101E9000F722F86A000EF8220900F5CFBDF00A001B
:101EA000F5CFBEF02AEC9EF04BD0D8900001F4356F
:101EB000F66E0001F535F76E710EF626FC0EF72270
:101EC000F86A000EF8220900000EF55E0900010E06
:101ED000F55AD8A020D0000E0001C06FD8900001A4
:101EE000F435F66E0001F535F76E710EF626FC0E30
:101EF000F722F86A000EF8220900F5CFF2F0090087
:101F0000F5CFF3F0F3C0F2F00001F36B0001F251F2
:101F100042ECA4F015D0010E0001C06FD890000172
:101F2000F435F66E0001F535F76E710EF626FC0EEF
:101F3000F722F86A000EF8220800F55042ECA4F0EF
:101F40000001F44BF52B0001F55101E170D7000EB3
:101F50000001BE6F640EBD6F2AEC9EF0000E000102
:101F6000C06F290E42ECA4F0010E02EC9AF0000EB4
:101F70000001BE6F640EBD6F2AEC9EF0000E0001E2
:101F8000C76F000EC66FE2EC9FF01200000120EE5A
:101F900007F0D851D926D951DA2201D80AD0050044
:101FA000FA6EDE50FD6EDE50FE6EDE50FF6EFA50B1
:101FB00012000001E06FD8C0D9FFD9C0DAFF0001DC
:101FC000E051DE18D8A421D0000120EE01F0D85154
:101FD000D926D951DA220001DA51DE5CD8B00AD014
:101FE000000120EE01F0D851D926D951DA22000E95
:101FF000DF6E1200000120EE01F0D851D926D95130
:10200000DA220001DA51DF5E1200000120EE01F059
:10201000D851D926D951DA22DF500001DB6FDC6BB1
:102020000001DA510001DB27000EDC23000120EE65
:1020300001F0D851D926D951DA22DF500001DD6FE5
:10204000DE6B0001DB510001DD5D0001DE51800A25
:102050000001DF6F0001DC51800A0001DF59D8B0B8
:102060001200000120EE01F0D851D926D951DA2210
:102070000001DA51DF26000120EE02F0D851D92606
:10208000D951DA22000110EE01F0D851E126D951E0
:10209000E222E7500001DD6FDE6BDE500001DD5D06
:1020A000DE500001DE59D8A01200D8C0D9FFD9C037
:1020B000DAFFE0C0DFFF000120EE01F0D851D926A1
:1020C000D951DA22000EDF6E000120EE04F0D85163
:1020D000D926D951DA2201D812000500FA6EDE5055
:1020E000FD6EDE50FE6EDE50FF6EFA500001E051D4
:1020F0001200800E0001D06F8D0ED16F5B0ED26F7B
:10210000000ED36FD59E0001CA510001CB11000112
:10211000CC110001CD11D8B41200D596D59CD59A1A
:10212000D598D0C0BDF0D1C0BEF0D2C0BFF0D3C0F2
:10213000C0F0CAC0C1F0CBC0C2F0CCC0C3F0CDC0AB
:10214000C4F0B4EC95F0BDC0D4F0BEC0D5F0BFC0B3
:10215000D6F0C0C0D7F00CD00001792B020E0001E0
:10216000796501D02FD0070E0001796501D01200EA
:10217000D4C0BDF0D5C0BEF0D6C0BFF0D7C0C0F04F
:1021800000017951020D4B0EF324F66EFD0EF42082
:10219000F76EF86A000EF8220900F5CFCEF00900BC
:1021A000F5CFCFF0CEC0C1F0CFC0C2F00001C36BFD
:1021B000C46BB4EC95F00001C051CEE10001BF0545
:1021C000D8B0CAD700017951020D4B0EF324F66E38
:1021D000FD0EF420F76EF86A000EF8220800F5CF25
:1021E00078F0FF0E0001D4250001646FFF0E00019E
:1021F000D5210001656FFF0E0001D6210001666F39
:10220000FF0E0001D7210001676F64C0BDF065C0FB
:10221000BEF066C0BFF067C0C0F000017851000199
:10222000C16FC26BC36BC46BB4EC95F00001BD1FF2
:102230000001BE1F0001BD4BBE2BFF0E0001BD25DE
:10224000326EFF0E0001BE21336EAEECA5F0D58ECE
:102250001200000E0001D36F6C0ED46FDC0ED56F30
:10226000020ED66F0001D890CA37CB37CC37CD37A6
:10227000020E0001CE6FD8900001D633D533D4338F
:10228000D3330001CE2FF7D7D3C0BDF0D4C0BEF0FA
:10229000D5C0BFF0D6C0C0F0CAC0C1F0CBC0C2F03C
:1022A000CCC0C3F0CDC0C4F0B4EC95F0BDC0D7F045
:1022B000BEC0D8F0BFC0D9F0C0C0DAF010D0000E58
:1022C0000001CF6F000ED06F000ED16F000ED26FE5
:1022D0000001772B020E0001776501D026D0D7C010
:1022E000BDF0D8C0BEF0D9C0BFF0DAC0C0F0000168
:1022F0007751010D780EF324F66EFD0EF420F76E83
:10230000F86A000EF8220800F5500001C16FC26B98
:10231000C36BC46BB4EC95F00001C0510001BF1158
:10232000CEE10001BE05D8B0CAD7CA500001771966
:10233000FC0B7719CA6ECA84D3ECA5F00001775163
:10234000010D780EF324F66EFD0EF420F76EF86A98
:10235000000EF8220800F5CF76F0FF0E0001D72519
:102360000001606FFF0E0001D8210001616FFF0EB8
:102370000001D9210001626FFF0E0001DA21000186
:10238000636F60C0BDF061C0BEF062C0BFF063C0EB
:10239000C0F0000176510001C16FC26BC36BC46B0A
:1023A000B4EC95F00001BD510001776F77C0CBFF11
:1023B000120051B26CEF92F0000120EE04F06F5168
:1023C000D9267051DA22DF50AAECA1F00009D8B466
:1023D0007AD06FC0D9FF70C0DAFFDE50DE10D8B4FB
:1023E0006DD06FC0D9FF70C0DAFF010EDBBE26D002
:1023F000010EDB5003E1DE04D8A020D06FC0D9FF6E
:1024000070C0DAFFDE2804E17F0EDE18D8B407D0F2
:102410006FC0D9FF70C0DAFFDE06000EDD5A7D0EF8
:102420000001CC6F000E0001CD6F000E0001CE6FD9
:10243000010E0001CF6F92EC94F01FD06FC0D9FF56
:1024400070C0DAFFDE0404E1800EDE18D8B407D0D5
:102450006FC0D9FF70C0DAFFDE2A000EDD227D0ECC
:102460000001CC6F000E0001CD6F000E0001CE6F99
:10247000000E0001CF6F92EC94F07D0E0001CC6F46
:10248000000E0001CD6F010E0001CE6F010E0001A4
:10249000CF6F92EC94F07D0E0001CC6F000E000126
:1024A000CD6F010E0001CE6F000E0001CF6F92ECD8
:1024B00094F0EEECA4F0B4ECA5F01200EEECA4F075
:1024C000DEECA5F012002CC0BDF02DC0BEF02EC079
:1024D000BFF0A0ECA5F01200000120EE04F06F5157
:1024E000D9267051DA22DF50DBECA2F00009D8B413
:1024F0006AD06FC0D9FF70C0DAFFDE50DE10D8B4EA
:102500005DD06FC0D9FF70C0DAFF010EDBBE22D0F4
:10251000010EDB5003E1DE04D8A01CD06FC0D9FF50
:1025200070C0DAFFDE2804E17F0EDE18D8B407D0D1
:102530006FC0D9FF70C0DAFFDE06000EDD5A7D0ED7
:10254000106E000E116E000E126E010E136E76EC00
:1025500097F01BD06FC0D9FF70C0DAFFDE0404E132
:10256000800EDE18D8B407D06FC0D9FF70C0DAFF74
:10257000DE2A000EDD227D0E106E000E116E000EA2
:10258000126E000E136E76EC97F07D0E106E000E3C
:10259000116E010E126E010E136E76EC97F07D0E29
:1025A000106E000E116E010E126E000E136E76ECA0
:1025B00097F0E4ECA5F0BAECA5F01200E4ECA5F07D
:1025C000E1ECA5F012002CC001F02DC002F02EC0ED
:1025D00003F0A7ECA5F01200C4C0CCF0C5C0CDF04C
:1025E000000E0001CB6F000ECA6FC6C0C8F0C7C096
:1025F000C9F00001CC510001CD11D8A434D0C8C01D
:10260000D9FFC9C0DAFF300EDF6E000E0001CB6FBC
:10261000010ECA6F40D0CCC0BDF0CDC0BEF0000EE0
:102620000001C06F0A0EBF6FF9EC9EF00001BD51B2
:10263000300FC8C0D9FFC9C0DAFFDF6ECCC0BDF013
:10264000CDC0BEF0000E0001C06F0A0EBF6FECECF3
:102650009BF0BDC0CCF0BEC0CDF00001CA4BCB2B6F
:102660000001C84BC92B0001CC510001CD11D8B4D9
:1026700008D00001CB5105E1060E0001CA5DD8A0CB
:10268000CAD7C6C0BDF0C7C0BEF0CAC0BFF0CBC07D
:10269000C0F0BEEC9DF00001CA510001C625D96E04
:1026A0000001CB510001C721DA6E000EDF6E12006F
:1026B0000101BA510101BB11D8B412000101BE5190
:1026C0000101BF110101C011D8B412000101C151B3
:1026D0000101C2110101C311D8B412000101C4519A
:1026E0000101C5110101C611D8B412000101BC518C
:1026F0000101BD11D8A405D0000E0101BD6F010E6E
:10270000BC6FBAC1D9FFBBC1DAFF000EDF6E010199
:1027100020EE01F0BA51D926BB51DA22000EDF6E4D
:10272000010120EE02F0BA51D926BB51DA22BCC118
:10273000DEFFBDC1DDFF010120EE04F0BA51D92654
:10274000BB51DA22C4C1DEFFC5C1DEFFC6C1DEFF58
:10275000010120EE07F0BA51D926BB51DA22C1C1DE
:10276000DEFFC2C1DEFFC3C1DEFF01D812000500DB
:10277000FA6E0101BE51FD6EBF51FE6EC051FF6E7B
:10278000FA5012000001C86F200E0001C85F00015E
:10279000C851050DF3CFC6F0F4CFC7F07B0E000192
:1027A000C6250001C96FFD0E0001C7210001CA6FD7
:1027B000000E0001CD6F040E0001CD6501D043D0A5
:1027C000000E0001CE6F060E0001CE6501D035D09F
:1027D000C9C0BDF0CAC0BEF0CEC0BFF0F6ECA2F0DA
:1027E0000009D8A405D073C0CBF074C0CCF004D0DD
:1027F000FDC0CBF0FEC0CCF00001CE510A0D000EA2
:102800000001C46F020E0001C56FF3500001C42720
:10281000F4500001C5230001CD51020DF350000119
:10282000C425D96EF4500001C521DA6ECBC0DEFF9D
:10283000CCC0DDFF0001CE2BC6D70001C94BCA2B8F
:102840000001CD2BB8D7000E0001C26F020E0001AF
:10285000C36F1200EAC0D9FFEBC0DAFF000EDE6ED4
:10286000000EDD6E000120EE02F0EA51D926EB5198
:10287000DA22000EDE6E000EDD6E000120EE04F0A6
:10288000EA51D926EB51DA22ECC0DEFFEDC0DDFFC4
:102890007D0E0001E36F000E0001E46F000E0001E9
:1028A000E56F030E0001E66FD5EC8BF07D0E0001A5
:1028B000E36F000E0001E46F010E0001E56F030EEF
:1028C0000001E66FD5EC8BF07D0E0001CC6F000EA1
:1028D0000001CD6F000E0001CE6F000E0001CF6F22
:1028E00092EC94F07D0E0001CC6F000E0001CD6FD4
:1028F000010E0001CE6F000E0001CF6F92EC94F03C
:10290000B20E2C6E230E2D6E010E2E6EE80E0001FF
:10291000CA6F030ECB6F000ECC6F000ECD6F79EC3B
:1029200090F01200080E0001CC250001C96F000EC6
:102930000001CD210001CA6FCEC0CBF049ECA2F05E
:102940000001D06F42D0010E0001CF17000120EE30
:1029500002F0CC51D926CD51DA22DECFBDF0DDCF49
:10296000BEF0CEC0BFF0CFC0C0F0C7EC9EF01200EA
:10297000010E0001CF17010E0001CF1B000120EE58
:1029800002F0CC51D926CD51DA22DECFBDF0DDCF19
:10299000BEF0CEC0BFF0CFC0C0F0C7EC9EF01200BA
:1029A000010E0001CF17000120EE04F0CC51D92612
:1029B000CD51DA22DECFBDF0DDCFBEF0CEC0BFF00C
:1029C000CFC0C0F0C7EC9EF012000001D051000A49
:1029D000D8B41200010AD8B4B6D7030AD8B4C8D7FD
:1029E000010AD8A41200DCD7000E0001CB6FFA0E4A
:1029F00047240001BD6FFF0E48200001BE6F000E8E
:102A00000001C06F060EBF6F55EC95F00001BD517F
:102A10000001CC6FCCC0BDF00001BE6B000E000108
:102A2000C06F040EBF6F55EC95F00001BD51000161
:102A3000CA6F000E0001CB6F06D0CBECA1F094EC76
:102A40009EF00001CB2B0001CA51040DF31EF41EB1
:102A5000F34AF42A0001CC510001C56FC66BF35054
:102A60000001C527F4500001C6230001C51FC61F81
:102A7000C54BC62B040E0001C527000EC62300015E
:102A8000CB510001C76FC86B0001C5510001C75D84
:102A90000001C851800A0001C96F0001C651800AB7
:102AA0000001C959D8B01200C8D7000E0001C26F8A
:102AB0000001C0AF08D00001BF6DC01FD8B0C02B4F
:102AC000010E0001C26F0001BEAF08D00001BD6D54
:102AD000BE1FD8B0BE2B010E0001C21B000E0001AC
:102AE000C46F000EC36F0001BF510001C011D8B404
:102AF0002CD0010E0001C16F06D00001D890BF3765
:102B0000C0370001C12B0001C0AFF7D70001D8903A
:102B1000C337C4370001BF510001BD5D0001C05182
:102B20000001BE59D8A00AD00001BF510001BD5F0D
:102B30000001C0510001BE5B0001C3810001D890BB
:102B4000C033BF330001C12FE1D70001C2510001E2
:102B5000D8B405D00001C36DC41FD8B0C42BC3C006
:102B6000BDF0C4C0BEF01200000E0001C56F000E23
:102B7000C66F000EC76F000EC86F0001C151000183
:102B8000C2110001C3110001C411D8B442D0010E1A
:102B90000001C96F08D00001D890C137C237C337D0
:102BA000C4370001C92B0001C4AFF5D70001D8908C
:102BB000C537C637C737C8370001C1510001BD5DF1
:102BC0000001C2510001BE590001C3510001BF59AB
:102BD0000001C4510001C059D8A012D00001C15158
:102BE0000001BD5F0001C2510001BE5B0001C35185
:102BF0000001BF5B0001C4510001C05B0001C58141
:102C00000001D890C433C333C233C1330001C92F8C
:102C1000CDD7C5C0BDF0C6C0BEF0C7C0BFF0C8C0EC
:102C2000C0F01200000E0001C26F000EC16F38D05C
:102C3000270E0001C125D96E010E0001C221DA6EF6
:102C4000BEC0E1FFBFC0E2FFE75035EC85F0DF6EAC
:102C5000270E0001C125D96E010E0001C221DA6ED6
:102C6000800EDE18D8A40ED00001C107D8A0C2077C
:102C7000270E0001C125D96E010E0001C221DA6EB6
:102C8000000EDB8E0001BE4BBF2B0001C14BC22BDF
:102C90000001C2511AE1060E0001C15DD8B015D085
:102CA000BEC0D9FFBFC0DAFFDF50D8B40ED0C0D746
:102CB000270E0001C125D96E010E0001C221DA6E76
:102CC000000EDF6E0001C14BC22B0001C25106E1B4
:102CD000060E0001C15DD8B01200EAD71200000153
:102CE000C151010D6B0EF324F66EFD0EF420F76E4C
:102CF000F86A000EF8220800F5CFC7F0000E0001B8
:102D0000C66F06D00001BF510001C05F0001C62B95
:102D10000001BF510001C05DD8B0F4D70001C1511E
:102D20000001C003F350C06F0001C6510001C0276D
:102D30000001C7510001C217C0C0C3F0C7C0C4F032
:102D40000001C32B03D00001D890C4370001C32F6A
:102D5000FAD70001C451FF0A0001C56FBDC0D9FFF9
:102D6000BEC0DAFF0001C551DF16C0C0C3F0C2C04B
:102D7000C4F00001C32B03D00001D890C437000178
:102D8000C32FFAD7BDC0D9FFBEC0DAFF0001C451BE
:102D9000DF1212009E0EF66E4B0EF76E010EF86EED
:102DA00001EEC9F010EE08F00900F5CFEEFFE55096
:102DB000E150FAE1AE0EF66E4B0EF76E010EF86EB4
:102DC00000EEF9F010EE07F00900F5CFEEFFE55048
:102DD000E150FAE1800EF66E4B0EF76E010EF86EC2
:102DE00000EE47F010EE0AF00900F5CFEEFFE550D7
:102DF000E150FAE102EE46F011EE2CF0EE6AE550F9
:102E0000E150FCE1E250FAE102EE00F0460EEE6A1B
:102E1000E806FDE101EE00F0BA0EEE6AE806FDE11B
:102E200000EE60F05D0EEE6AE806FDE100EE29F0CE
:102E30001E0EEE6AE806FDE1519051920001E0EFAE
:102E4000A3F00001C56F020E0001C227020E0001AF
:102E5000C427030E0001C527030E0001C327000E7F
:102E60000001C06F2A0E42ECA4F0010E0001C06FF9
:102E7000000E42ECA4F0010E0001C06F0001C5512C
:102E800042ECA4F0010E0001C06F000E42ECA4F071
:102E9000010E0001C06F0001C35142ECA4F0000E0E
:102EA0000001C06F2B0E42ECA4F0010E0001C06FB8
:102EB000000E42ECA4F0010E0001C06F0001C251EF
:102EC00042ECA4F0010E0001C06F000E42ECA4F031
:102ED000010E0001C06F0001C45142ECA4F0000ECD
:102EE0000001C06F2C0E42ECA4F01200080E10245A
:102EF0000D6E000E11200E6E12C00FF071ECA3F0DB
:102F0000146E3BD0010E131620EE02F01050D9269D
:102F10001150DA22DECF01F0DDCF02F012C003F053
:102F200013C004F0AFECA0F01200010E1316010E56
:102F3000131A20EE02F01050D9261150DA22DECFFB
:102F400001F0DDCF02F012C003F013C004F0AFECCB
:102F5000A0F01200010E131620EE04F01050D92636
:102F60001150DA22DECF01F0DDCF02F012C003F003
:102F700013C004F0AFECA0F012001450000AD8B453
:102F80001200010AD8B4BED7030AD8B4CED7010ABA
:102F9000D8A41200DFD70001BF6F38D0920E000115
:102FA000BD6F0F0E0001BE6F1200930E0001BD6FCA
:102FB0000F0E0001BE6F1200940E0001BD6F0F0EC8
:102FC0000001BE6F1200950E0001BD6F0F0E0001D3
:102FD000BE6F1200960E0001BD6F0F0E0001BE6F96
:102FE0001200970E0001BD6F0F0E0001BE6F1200A0
:102FF000980E0001BD6F0F0E0001BE6F1200000E93
:103000000001BD6F000E0001BE6F12000001BF5134
:10301000000AD8B4C3D7010AD8B4C7D7030AD8B4B2
:10302000CBD7010AD8B4CFD7070AD8B4D3D7010A6F
:10303000D8B4D7D7030AD8B4DBD7E1D70001BF6F24
:1030400038D0670E0001BD6FFF0E0001BE6F120089
:10305000650E0001BD6FFF0E0001BE6F1200630E12
:103060000001BD6FFF0E0001BE6F1200610E000176
:10307000BD6FFF0E0001BE6F12005F0E0001BD6F3D
:10308000FF0E0001BE6F12005D0E0001BD6FFF0E4E
:103090000001BE6F12005B0E0001BD6FFF0E00014C
:1030A000BE6F1200000E0001BD6F000E0001BE6F6A
:1030B00012000001BF51000AD8B4C3D7010AD8B426
:1030C000C7D7030AD8B4CBD7010AD8B4CFD7070AD9
:1030D000D8B4D3D7010AD8B4D7D7030AD8B4DBD72A
:1030E000E1D70001BF6F38D0800E0001BD6F0F0E19
:1030F0000001BE6F1200810E0001BD6F0F0E0001B6
:10310000BE6F1200820E0001BD6F0F0E0001BE6F78
:103110001200830E0001BD6F0F0E0001BE6F120082
:10312000840E0001BD6F0F0E0001BE6F1200850EF0
:103130000001BD6F0F0E0001BE6F1200860E000170
:10314000BD6F0F0E0001BE6F1200000E0001BD6FBB
:10315000000E0001BE6F12000001BF51000AD8B47A
:10316000C3D7010AD8B4C7D7030AD8B4CBD7010A4A
:10317000D8B4CFD7070AD8B4D3D7010AD8B4D7D791
:10318000030AD8B4DBD7E1D7000E0001DF6F0001DE
:10319000D1510001D5250001DD6F0001D35100019F
:1031A000D7250001DE6FD7C0BDF0D8C0BEF0D5C0B6
:1031B000BFF0D6C0C0F0C0ECA2F0BDC0DBF0BEC016
:1031C000DCF0D3C0C2F00001DD050001C36F0001D7
:1031D000DE050001C46F0001D15121EC97F0000E13
:1031E0000001DF6F13D00001DF51020DF350000129
:1031F000CF25D96EF4500001D021DA6EDECFC2F0B7
:10320000DDCFC3F094ECA4F00001DF2B0001DF510F
:103210000001D96FDA6B0001DB510001D95D0001BB
:10322000DC510001DA59D8B01200DDD73ED00001E0
:103230007A51140D460E0001BD6F020E0001BE6FE3
:10324000F3500001BD27F4500001BE2300017B5163
:10325000010DF3500001BD25D96EF4500001BE21CF
:10326000DA6EDF50D8B41FD0010E0001FF6F0001ED
:103270007A51140D460E0001BD6F020E0001BE6FA3
:10328000F3500001BD27F4500001BE2300017B5123
:10329000010DF3500001BD25D96EF4500001BE218F
:1032A000DA6E800EDF6E00017B2B130E00017B6552
:1032B000BED7000E00017B6F00017A2B080E492655
:1032C000000E4A22000E486E060E476E1200BDC068
:1032D000F6FFBEC0F7FF000EF86E0F0EF76403D0C6
:1032E0000800F55005D0F6CFE9FFF7CFEAFFEF5021
:1032F0000001C56F0001C151010D6B0EF324F66E84
:10330000FD0EF420F76EF86A000EF8220800F5CFE3
:10331000C3F0000E0001C46F06D00001BF510001D0
:10332000C05F0001C42B0001BF510001C05DD8B0D7
:10333000F4D70001C1510001C003F350C06F000178
:10334000C4510001C0270001C0290001C26F03D091
:103350000001D890C5330001C22FFAD70001C35134
:103360000001C5170001C55112000001CE51000136
:10337000CF110001D0110001D111D8B43AD0010E03
:103380000001D26F08D00001D890CE37CF37D037A8
:10339000D1370001D22B0001D1AFF5D70001CE51BA
:1033A0000001CA5D0001CF510001CB590001D0518D
:1033B0000001CC590001D1510001CD59D8A010D045
:1033C0000001CE510001CA5F0001CF510001CB5B6B
:1033D0000001D0510001CC5B0001D1510001CD5B57
:1033E0000001D890D133D033CF33CE330001D22F68
:1033F000D5D7CAC0CAF0CBC0CBF0CCC0CCF0CDC0C2
:10340000CDF012000001C26F000E0001C36F000E6C
:103410000001C06F360E42ECA4F00001C251030B54
:103420000001C36F2CD0010E0001C06FC80E42EC2A
:10343000A4F0800E506E800E4F6E1200010E00013F
:10344000C06FA80E42ECA4F0800E506E800E4F6E3E
:103450001200010E0001C06F080E42ECA4F0800EB5
:10346000506E800E4F6E1200010E0001C06F680E8C
:1034700042ECA4F0800E506E800E4F6E12000001E0
:10348000C351000AD8B4CFD7010AD8B4D7D7030A9A
:10349000D8B4DFD7010AD8A41200E6D70001C36F61
:1034A000740EF66EFD0EF76E000EF86E0900F5CF85
:1034B000BFF00900F5CFC0F00900F5CFC1F00A0058
:1034C000F5CFC2F0110E0001C46F030E0001C31747
:1034D0000001C351010DBF0EF324D96E000EF4207C
:1034E000DA6EDF500001BD6FC4C0BEF00001BD2B1D
:1034F00003D00001D890BE370001BD2FFAD70001DC
:10350000BE510001C46F0001C4390F0B0001C46F2C
:103510000001C4510F0B0001C46F01012D510001C6
:10352000C419F00BC41901012D6F1200F80E00012F
:10353000BE6F000EBD6FCAECA5F0970E0001D36FF1
:10354000FF0E0001D46FA2EC87F024D0DD0E000145
:10355000D36FFF0E0001D46FA2EC87F01200F40EBF
:103560000001D36FFF0E0001D46FA2EC87F01200B0
:10357000B50E0001D36FFF0E0001D46FA2EC87F0EF
:103580001200C30E0001D36FFF0E0001D46FA2EC36
:1035900087F0120024EC9BF00001E251000AD8A44D
:1035A000F0D70001E151010AD8B4E2D7030AD8B438
:1035B000D6D7010AD8B4CAD7E4D7000E00017B6F72
:1035C000000E00017A6F000E0001C06F0E0E0001A8
:1035D000C06501D02DD0000E0001BF6F130E000199
:1035E000BF6501D022D0010E0001FF6F0001C05164
:1035F000140D460E0001BD6F020E0001BE6FF350A8
:103600000001BD27F4500001BE230001BF51010D90
:10361000F3500001BD25D96EF4500001BE21DA6ED1
:10362000800EDF6E0001BF2BD9D70001C02BCED793
:10363000010E00017C6F000E486E060E476E000EF4
:103640004A6E060E496E12004DEC9DF021EE5EF0C2
:1036500001D80AD00500FA6EDE50FD6EDE50FE6E17
:10366000DE50FF6EFA5012000001E36F0001E351DB
:103670000001E56FE66B18D0000E0001E26F030E4B
:10368000E16F1200000E0001E26F020EE16F120006
:10369000000E0001E26F010EE16F1200000E00014A
:1036A000E26F000EE16F1200E5C0E3F0E6C0E4F067
:1036B0000001E451000AD8A4F1D70001E351020A45
:1036C000D8B4DAD7060AD8B4DDD70C0AD8B4E0D714
:1036D000E5D7000E00017B6F000E00017A6F000E2F
:1036E0000001BF6F130E0001BF6501D01200000E74
:1036F0000001C06F0E0E0001C06501D02CD000018A
:10370000C051140D460E0001BD6F020E0001BE6FC8
:10371000F3500001BD27F4500001BE230001BF514A
:10372000010DF3500001BD25D96EF4500001BE21FA
:10373000DA6E000EDF6E0001C051020D000EF324A0
:10374000D96E010EF420DA6EFF0EDE6EFF0EDD6E16
:103750000001C02BCFD70001BF2BC4D75B0EF66E84
:10376000FD0EF76E000EF86E20EED2F00F0E09007F
:10377000F5CFDEFFE806FBE2CCC0C9F0CDC0CAF051
:10378000CFC0CBF049ECA2F00001E26F040E0001C3
:10379000CE6120D0040E0001E2611CD00001CE51A8
:1037A000040DD20E0001D06F000E0001D16FF35056
:1037B0000001D027F4500001D1230001E251010D96
:1037C000F3500001D025D96EF4500001D121DA6EFA
:1037D000DF501200050E1200000E0001C36F000E34
:1037E000C26F0001BF510001C011D8B42CD0010E2E
:1037F0000001C16F06D00001D890BF37C03700016B
:10380000C12B0001C0AFF7D70001D890C237C33732
:103810000001BF510001BD5D0001C0510001BE5952
:10382000D8A00AD00001BF510001BD5F0001C05106
:103830000001BE5B0001C2810001D890C033BF33DC
:103840000001C12FE1D7C2C0BDF0C3C0BEF012005D
:103850004DEC8EF0010E2AECA2F00009D8B40CD089
:103860000DEC8FF069EC9BF0D8EC8AF0EEECA4F054
:103870000009D8A40BECA2F0080E2AECA2F0000973
:10388000D8B41AD09B0E0001EA6F000E0001EB6F56
:10389000000E0001ED6F080EEC6F2AEC94F09B0E09
:1038A0000001C06F000E0001C16F000E0001C36F68
:1038B000640EC26FA3ECA2F0EEECA4F00009D8B441
:1038C00012000BECA2F0120001C0F6FF02C0F7FFDD
:1038D000000EF86E0F0EF76403D00800F55005D007
:1038E000F6CFE9FFF7CFEAFFEF50096E0550010D63
:1038F0006B0EF324F66EFD0EF420F76EF86A000EE0
:10390000F8220800F5CF07F0000E086E03D0035030
:10391000045E082A0350045CD8B0F9D705500402AD
:10392000F350046E085004260428066E02D0D89086
:103930000932062EFCD70750091609501200000E56
:103940000001D26F000E0001D36FCAC0C2F00001A7
:10395000C8510001CC250001D06F0001D005000145
:10396000C36F0001CA510001CE250001D16F0001D3
:10397000D1050001C46F0001C85121EC97F0CEC001
:10398000D3F00001D3510001D8B41200CCC0D2F062
:103990000001D2510001D8B409D0C6C0C2F0C7C0DE
:1039A000C3F094ECA4F00001D207F2D70001D307D2
:1039B000E8D7000120EE06F0CC51D926CD51DA220D
:1039C000DECFBDF0DDCFBEF0050E0001BF6F000EF3
:1039D0000001C06FC7EC9EF0000120EE06F0CC5154
:1039E000D926CD51DA22DECFC8F0DDCFC9F0000EE6
:1039F0000001CA6F000E0001CB6F64ECA4F000015F
:103A000020EE06F0CC51D926CD51DA22DECFBDF022
:103A1000DDCFBEF0050E0001BF6F010E0001C06FCB
:103A2000C7EC9EF01200000120EE06F0CC51D92622
:103A3000CD51DA22DECFBDF0DDCFBEF0050E0001A4
:103A4000BF6F000E0001C06FC7EC9EF0000120EEBA
:103A500006F0CC51D926CD51DA22DECFC8F0DDCF29
:103A6000C9F0000E0001CA6F020E0001CB6F64ECBA
:103A7000A4F0000120EE06F0CC51D926CD51DA2277
:103A8000DECFBDF0DDCFBEF0050E0001BF6F010E31
:103A90000001C06FC7EC9EF012009668570E00013F
:103AA000D86F010E0001D96F010E0001DA6FC6EC6C
:103AB0008FF0390E0001D86F010E0001D96F010E91
:103AC0000001DA6FC6EC8FF02F0E0001D86F010EE7
:103AD0000001D96F010E0001DA6FC6EC8FF0430EC2
:103AE0000001D86F010E0001D96F010E0001DA6FDD
:103AF000C6EC8FF04D0E0001D86F010E0001D96F9A
:103B0000010E0001DA6FC6EC8FF01200A90E000161
:103B1000E36F010E0001E46F070E0001E56F030E75
:103B20000001E66FD5EC8BF0A90E0001E36F010EEA
:103B30000001E46F060E0001E56F030E0001E66F61
:103B4000D5EC8BF087ECA0F0C00E0001EA6FC60E3A
:103B5000EB6F2D0EEC6F000EED6F010E0001EE6F9E
:103B6000010E0001EF6F00EC80F06C0E0001CC6FD5
:103B7000010E0001CD6FD9EC9CF012000001BF5185
:103B80000001BD250001C26F0001C0510001BE212E
:103B90000001C36F1AD0BDC0D9FFBEC0DAFFDF502D
:103BA0000001C16FC2C0D9FFC3C0DAFFBDC0E1FFD1
:103BB000BEC0E2FFDFCFE7FF0001BD4BBE2BC2C09E
:103BC000D9FFC3C0DAFFC1C0DFFF0001C207D8A020
:103BD000C3070001C2510001BD5D0001C3510001D6
:103BE000BE59D8B01200D7D726D095C0D9FF96C0FD
:103BF000DAFF0001DF94BFC0C9FFC7A0FED7C9CF5D
:103C0000BFF095C0D9FF96C0DAFF0001DF84120033
:103C10008BC0D9FF8CC0DAFF0001DF9EBFC06FFFF1
:103C20006DA0FED76FCFBFF08BC0D9FF8CC0DAFF7D
:103C30000001DF8E1200000120EE02F0BD51D926F6
:103C4000BE51DA22DF50000AD8B4CFD7010AD8A477
:103C50001200DED71FD0000E0001BF6F000EC06F34
:103C6000000EC16F000EC26F0001C2510001C111F0
:103C700011E1B00E0001BF5D040E0001C059D8B0C3
:103C800009D000F0010E0001BF27000EC023C123A0
:103C9000C223EAD70001BD07D8A0BE070001BD2995
:103CA000DAE10001BE29D8A4D6D7080E0001BF6F03
:103CB000800EC06F000EC16F000EC26F1200050EA5
:103CC0000001E96FE3C0D9FFE4C0DAFFDECFEAF01C
:103CD000DDCFEBF00001E551020DF3CFE7F000017D
:103CE000E551020DF3280001E86FEAC0CCF0EBC00B
:103CF000CDF0E6C0CEF0E7C0CFF0AEEC9BF0000117
:103D0000E96F0001E951D8A40CD0EAC0CCF0EBC0B7
:103D1000CDF0E6C0CEF0E8C0CFF0AEEC9BF00001F5
:103D2000E96F0001E951120000017B2B060E4726C6
:103D3000000E4822060E47240001C16F000E4820E5
:103D40000001C26F0001C2BF09D00001C25104E1ED
:103D5000800E0001C15DD8B016EC99F0080E492420
:103D60000001C16F000E4A200001C26F0001C2BFF6
:103D70000CD00001C25105E1800E0001C15DD8A048
:103D800004D0DDEC9AF0010E1200000E1200010EBC
:103D90000001C017BFC0C1F0010E0001C26F0001D9
:103DA000C12B03D00001D890C2370001C12FFAD730
:103DB0000001C251FF0A0001C36FBDC0D9FFBEC0E0
:103DC000DAFF0001C351DF16BFC0C1F0C0C0C2F0AE
:103DD0000001C12B03D00001D890C2370001C12FD0
:103DE000FAD7BDC0D9FFBEC0DAFF0001C251DF1251
:103DF00012000001BF510001C011D8B426D0010E3D
:103E00000001C16F06D00001D890BF37C037000154
:103E1000C12B0001C0AFF7D70001BF510001BD5D4C
:103E20000001C0510001BE59D8A008D00001BF5107
:103E30000001BD5F0001C0510001BE5B0001D890D0
:103E4000C033BF330001C12FE7D7BDC0BDF0BEC036
:103E5000BEF012000001EA6F1ED0910E0001E36F68
:103E6000000E0001E46F000E0001E56F030E00017B
:103E7000E66FD5EC8BF017D0910E0001E36F000ECA
:103E80000001E46F010E0001E56F030E0001E66F13
:103E9000D5EC8BF008D00001EA51000AD8B4DDD788
:103EA000010AD8B4E9D7000E0001D16F0001EA5130
:103EB0005FECA0F0120000017B51D8B407D0FA0EDD
:103EC0004726FF0E482200017B0720D000017A51CF
:103ED000D8B40ED0000E486E720E476EF80E49260A
:103EE000FF0E4A22130E00017B6F00017A070ED0ED
:103EF000000E486E060E476E000E4A6E060E496EA4
:103F0000000E00017B6F000E00017A6FCBECA1F078
:103F10001200050E0001F26F0001EE51020DF3CF09
:103F2000F0F00001EE51020DF3280001F16FECC03A
:103F3000E3F0EDC0E4F0F0C0E5F0EFC0E6F05FECD8
:103F40009EF00001F26F0001F251D8A40CD0ECC039
:103F5000E3F0EDC0E4F0F1C0E5F0EFC0E6F05FECB7
:103F60009EF00001F26F0001F25112000001D66FC5
:103F70000001D65173ECA5F00001D6510001D8A480
:103F80001DD00001D8906B376C3700016C290001FF
:103F90006B11D8A406D0000E00016C6F000E6B6F81
:103FA00009D000016C5106E100016B29D8B002D0A4
:103FB00000016B8100016B51C5ECA5F0000E1EECF9
:103FC000A1F01200000E0001C86F000E0001C96FC1
:103FD000000E0001C26F50040001C36F4F040001C6
:103FE000C46F000E21EC97F04FC0C9F00001C95119
:103FF0000001D8B4120050C0C8F00001C85100013F
:10400000D8B409D0C6C0C2F0C7C0C3F094ECA4F0C5
:104010000001C807F2D70001C907E8D71CD0000E7D
:104020000001BF6F000EC06F000EC16F000EC26FA7
:104030000001BF510001C0110001C1110001C211F6
:10404000D8A409D000F0010E0001BF27000EC02344
:10405000C123C223EDD70001BD07D8A0BE070001D0
:10406000BD29DDE10001BE29D8B41200D8D724EC67
:104070009BF0E1C0EFF0E2C0F0F00CD0ECEC83F08C
:10408000120002EC0AF01200E9ECA5F0120086EC36
:10409000A2F01200EFC0EDF0F0C0EEF00001EE5122
:1040A000000AD8A4F4D70001ED51010AD8B4E6D72C
:1040B000030AD8B4E6D7010AD8B4E6D7E8D7000196
:1040C000D26F1CD0910E0001CC6F000E0001CD6F9D
:1040D000000E0001CE6FD1C0CFF092EC94F0120030
:1040E000910E0001CC6F000E0001CD6F010E00019A
:1040F000CE6FD1C0CFF092EC94F012000001D251FB
:10410000000AD8B4DFD7010AD8A41200E9D7B2EC6C
:10411000A4F0010E1EECA1F0000E0001BE6F800E97
:10412000BD6F2AEC9EF0010E1EECA1F0A3ECA4F0F2
:10413000000E0001BE6F800EBD6F2AEC9EF0010ED6
:104140001EECA1F0B2ECA4F0000E0001BE6F800ED8
:10415000BD6F2AEC9EF0010E1EECA1F01200010EC4
:10416000041603C005F0010E066E052A02D0D89091
:104170000636052EFCD70650FF0A076E01C0D9FF90
:1041800002C0DAFF0750DF1603C005F004C006F0D6
:10419000052A02D0D8900636052EFCD701C0D9FFDB
:1041A00002C0DAFF0650DF121200000120EE06F016
:1041B000BD51D926BE51DA22DECFC0F0DDCFC1F02D
:1041C000C0C0D9FFC1C0DAFFDF500001C26F0001DB
:1041D000BF51040DF3280001C06F03D00001D89037
:1041E000C2330001C02FFAD70F0E0001C217000121
:1041F000C2511200050E0001F66FF3C0ECF0F4C0DE
:10420000EDF0000E0001EE6FF5C0EFF089EC9FF0CD
:104210000001F66F0001F651D8A40DD0F3C0ECF008
:10422000F4C0EDF0010E0001EE6FF5C0EFF089EC87
:104230009FF00001F66F0001F65112000001D56FEA
:1042400018D0910E0001D16F000E0001D26F000E48
:104250000001D36F41ECA3F01200910E0001D16F69
:10426000000E0001D26F010E0001D36F41ECA3F0EC
:1042700012000001D551000AD8B4E3D7010AD8A42E
:104280001200EBD7000120EE06F0BD51D926BE5139
:10429000DA22DECFC0F0DDCFC1F0C0C0D9FFC1C08F
:1042A000DAFFDF500001C26F0001BF290001C06FBB
:1042B00003D00001D890C2330001C02FFAD7010EFD
:1042C0000001C2170001C2511200030E0001CE65A9
:1042D00014D0010E0001CC250001C86F000E0001B2
:1042E000CD210001C96F0001CE51FC0F0001CA6F42
:1042F000CFC0CBF053ECA4F01200CCC0C8F0CDC0BE
:10430000C9F0CEC0CAF0CFC0CBF053ECA4F012007D
:104310000001D66F0001D65168ECA5F00001D6511E
:104320000001D8A413D000016B5100016C11D8A476
:1043300005D0FF0E00016C6F000E6B6F0001D8906E
:104340006C336B3300016B51C5ECA5F0000E1EEC15
:10435000A1F012000001C46F86500F0B0001C36F63
:104360004B50D8A402D0000E1200000E4B6E00017C
:10437000C4510001C319D8B40CD0F00E8616000148
:10438000C4518612000E0001BE6F0A0EBD6F0EEC06
:10439000A0F0010E1200010E0001FF6F00017A5122
:1043A000140D460E0001BD6F020E0001BE6FF350EA
:1043B0000001BD27F4500001BE2300017B51010D17
:1043C000F3500001BD25D96EF4500001BE21DA6E14
:1043D000800EDF6E120016D0000E036E000E046E0B
:1043E000000E056E000E066E035004100510061038
:1043F000D8A408D000F0010E0326000E04220522E6
:104400000622F2D70106D8A002060128E5E102281B
:10441000D8B41200E1D70001685100016911000110
:104420006A11D8B40DD001D80BD00500FA6E000186
:104430006851FD6E6951FE6E6A51FF6EFA501200AE
:10444000000E0001686F000E0001696F000E000190
:104450006A6F12000001C46F86500F0B0001C36F1A
:104460004B50D8B4FDD7000E4B6E0001C451000173
:10447000C319D8B40CD0F00E86160001C4518612B0
:10448000000E0001BE6F0A0EBD6F0EECA0F0010E13
:104490001200030E0001CB6512D0010E0001C925E8
:1044A0000001C66F000E0001CA210001C76F0001A4
:1044B000CB51FC0F0001C86FDFECA4F01200C9C0A3
:1044C000C6F0CAC0C7F0CBC0C8F0DFECA4F0120041
:1044D0000001D66F0001D6510001D8A413D000010D
:1044E000752B0001755100016D27000E6E236DC004
:1044F000CEF06EC0CFF0B6ECA3F000017551030B07
:104500004EEC9AF0000E1EECA1F01200F4ECA3F0B9
:10451000690E0001D36FFF0E0001D46FA2EC87F08B
:10452000690E0001D36FFF0E0001D46FA2EC87F07B
:10453000690E0001D36FFF0E0001D46FA2EC87F06B
:10454000D0EC89F01200C0C06FF0C1C070F0C0C0E4
:10455000D9FFC1C0DAFFDE50DE10D8A41200C0C0FF
:10456000D9FFC1C0DAFFC2C0DEFFC3C0DDFF2CC06F
:10457000BDF02DC0BEF02EC0BFF01CECA4F01200A8
:104580000001BD510001BF03F3CFC1F0F4CFC2F071
:104590000001BD510001C003F3500001C22700011A
:1045A000BE510001BF03F3500001C227C1C0BDF0DE
:1045B000C2C0BEF01200086E86500F0B076E4B5043
:1045C000D8A402D0000E1200000E4B6E085007183F
:1045D000D8B40AD0F00E861608508612000E026E6D
:1045E0000A0E016EEBECA1F0010E1200BDC0F6FF49
:1045F000BEC0F7FF000EF86E0800F5CFC1F0000155
:10460000BF290001C06F03D00001D890C133000161
:10461000C02FFAD7010E0001C1170001C1511200CD
:104620000001D66F0001D6517EECA5F00001D651F5
:104630000001D8A40AD000016D07D8A06E076DC094
:10464000CEF06EC0CFF0B6ECA3F0000E1EECA1F0E1
:1046500012000001D66F0001D6515DECA5F00001FB
:10466000D6510001D8A409D000016D4B6E2B6DC04E
:10467000CEF06EC0CFF0B6ECA3F0000E1EECA1F0B1
:104680001200D1C0BDF0D2C0BEF0D3C0BFF042EC2A
:10469000A1F00001D46F010E0001D41BD1C0CCF0F9
:1046A000D2C0CDF0D3C0CEF0D4C0CFF092EC94F015
:1046B0001200000120EE02F0BD51D926BE51DA22CF
:1046C000DF50D8A407D095C0D9FF96C0DAFF00010B
:1046D000DF8412008BC0D9FF8CC0DAFF0001DF8EAF
:1046E0001200030E0F640CD0010E0D240A6E000E92
:1046F0000E200B6E0F50FC0F0C6EFCECA4F01200A1
:104700000DC00AF00EC00BF00FC00CF0FCECA4F0D2
:1047100012000001D66FDBECA5F00001D76F0F0E81
:104720000001D7170001D63BF00ED6170001D65175
:104730000001D711C5ECA5F0000E1EECA1F012008F
:104740000001D66FDBECA5F00001D76F0001D65158
:104750000001D711C5ECA5F0F00E0001D7170F0E20
:104760000001D617000E1EECA1F01200CEC0C4F05E
:10477000CFC0C5F0270E0001C66F010E0001C76F44
:10478000ECEC92F0270E0001BE6F010E0001BF6F2E
:1047900012EC96F01200000120EE02F0D851D9265A
:1047A000D951DA22DAC0DEFFDBC0DDFFDAC0CAF0A1
:1047B000DBC0CBF00001CC6BCD6B79EC90F012003C
:1047C00028EC9CF0010E2AECA2F00009D8B4FAD72C
:1047D000F4ECA3F037ECA0F0EEECA4F00009D8B4B0
:1047E000F1D70BECA2F0EED7FC0E0001D36FFF0E59
:1047F0000001D46F000E0001D66F230ED56FA2EC1E
:1048000087F075ECA4F096EC9AF0D0EC89F01200E9
:1048100004D09D961200A39E1200000120EE02F02B
:10482000BD51D926BE51DA22DF50000AD8B4F1D7E3
:10483000010AD8A41200EFD7BDC029F0BEC02AF0EB
:10484000BFC02BF032C0D6FF33C0D7FFD550000118
:104850007919F80B7919D56EF294F28A1200E1EC0D
:10486000A5F029502A102B10D8B4120001D812003C
:104870000500FA6E2950FD6E2A50FE6E2B50FF6E19
:10488000FA5012000001C16F0001C05189ECA5F07F
:104890006C0E0001BD6F010E0001BE6FC1C0BFF004
:1048A000F4EC9DF01200C8C0BDF0C9C0BEF0040E0B
:1048B0000001BF6FCAC0C0F0020E0001C16FCBC0C3
:1048C000C2F06FEC96F01200C8C0BDF0C9C0BEF0D7
