:100000000DEF04F026EF00F004EF0AF0D1EC04F05D
:10001000FF0000F000F012000CEF0AF018EF00F003
:10003000F26AFC6A9BEC04F004009EEC09F0D8EC38
:1000400003F0F3EC03F05EEC08F0F6D701501F0B61
:10005000E80601E01200055001E01200060E021849
:1000600014E01AD0020E3D6E4A0E3FD8306A090ED7
:100070000AD0020E3D6E450402E1870E36D84504D3
:100080000AE1306A1D0E2F6E06D00450210AEAE004
:10009000030AEFE0010A42820138E832030BE80666
:1000A00014E01200020E3D6E440E206E24D0020EAB
:1000B0003D6E04C044F0020C020E3D6E430EF5D7B7
:1000C000020E3D6E03C043F0020C0250010AD8B488
:1000D0001200030AE7E0010AEFE00A0AD8B41200AE
:1000E000030AE5E0010AECE01200206E2050D8A4DB
:1000F000100E216E1200216A4292010E2F6E010C29
:100100004F6A140E506E516A296A2A6A4FC0F6FF70
:1001100050C0F7FF51C0F8FF42D80800F5CFDFFF0D
:100120004F2A000E50225122294A2A2A040E2A5C04
:10013000EDE30D0EE8CFB2F4600EE8CFB3F4000E9D
:10014000496E050E486E0AEC03F04F68170E506EAC
:10015000516A030E2A6E296851C0F8FF50C0F7FF9C
:100160004FC0F6FF1CD8DF50F56E0C0029C04EF0D2
:100170003F0E4E1607E1FEEC09F0040EA66EB50E1A
:1001800067EC04F04F06000E505A515A0A002950ED
:100190002A1001E112002906D8A02A06DDD7AC0EEC
:1001A0002924D96E040E2A20DA6E120003040BE112
:1001B00001501F0B08E1010E3D6E030E021802E113
:1001C000428001D042900350D8A4120001501F0B6E
:1001D000020AD8A4120005500F0BD8B4120028D878
:1001E000476A040E486E4726000E4822F350472601
:1001F000F450482223D847241D6EF45048201E6E28
:10020000030E021805E10FD8040EDF6E0CD81CD0C7
:1002100005AE04D008D8400EDF6E400C04D8080E9E
:10022000DF6E01D811D01DC0D9FF1EC0DAFF120049
:10023000010E3D6E05500F0B080D1200010E05AEAC
:10024000000E040DF3501200000EDB8E000C3D502A
:1002500010E193EC03F0196E3A0405E1010E32EC63
:1002600003F03A6A1200000E32EC03F0010E3A6E0F
:10027000010C01AE1BD0010E3E6E2F50075C3050BA
:10028000085804E207C02FF008C030F076EC01F007
:10029000480E196E010E32EC03F0000E32EC03F042
:1002A000240E04010A6F040E0B6F1CD0020E3E6E6A
:1002B000040E196E0750081002E1480E196E3A0438
:1002C00005E1010E32EC03F03A6A05D0000E32EC83
:1002D00003F0010E3A6E07500810D8A41200040172
:1002E000096B00D0480E086F088F480C080E326E5C
:1002F00030500DE1080E2F5C0AE22FC032F0405062
:1003000002E1010E03D0400402E1020E406E32C051
:1003100009F432502F5E000E305A240E1D6E040E6A
:100320001E6E42A21AD00BD01BD813EC01F00F0E98
:10033000F76403D00800F55001D019D81ED8325008
:10034000F3E112000DD813EC01F00F0EF76403D0A7
:100350000800F55001D00BD810D83250F3E112004C
:1003600020C0F6FF21C0F7FF000EF86E1200F6CF96
:10037000E1FFF7CFE2FFE7501200DF6E1D4A1E2AB1
:10038000204A212A320612000138E832030B18E015
:100390001200010E3D6E040E416E040C010E3D6E06
:1003A000450E206E7BEF00F02CD8496E49C020F03E
:1003B0007BEF00F026D8D96EDA6A03C0DFFF1200A7
:1003C000025002E179EF02F0010A02E1D6EF00F0FB
:1003D000020A02E1D6EF00F0060ADBE0030A02E1BE
:1003E00006EF02F0010AD8B412000F0AD7E0010AA2
:1003F00002E155EF03F0030AD7E0010ADBE0070A48
:100400001200010E3D6E0550460F1200800E0118BD
:1004100030E01200010E3D6EA40E75EC00F0120EDD
:1004200009D003502DE1010E3D6E380E75EC00F041
:10043000306A290E2F6E24D0010E3D6E0350010F3D
:10044000476E47C0F6FF100EF76E000EF86E0900FB
:10045000F5CF20F0100E216EB0EC01F00F0EF76416
:1004600003D00800F55002D0B7EC01F02F6E306ACF
:1004700007D00450010ACEE0030AD3E0010ADCE011
:1004800042821200366A27D03850486E000E48BEAD
:10049000FF0E496E4A6E4B6E4850155C0D6E49500A
:1004A00016580E6E4A5017580F6E4B501858106E53
:1004B0000FC0F8FF0EC0F7FF0DC0F6FF11D80D00FA
:1004C000362A0ED80C00362A240EA66EB50E67EC1E
:1004D00004F0FE0E38263850800A7F0FD5E2120055
:1004E000AC0E3624D96EDA6A040EDA22DF50F56ECD
:1004F0001200246B256B22D0010E3D6E42B0248386
:1005000024D0010E3D6E21D018EC01F0476A040E94
:10051000486E4726000E4822F3504726F4504822E2
:100520001EEC01F047241D6EF45048201E6E13ECA3
:1005300001F0DFA40AD0010E246F07D001501F0B79
:10054000DBE0010ADEE0030ADFE03D04D8A412008C
:10055000240E206E040E216E4292020E2F6E020CAB
:10056000400E486401D0486E4A6A0DD047504A2474
:10057000D96EDA6A6C0E4A24E16EE26A040EE22257
:10058000DFCFE7FF4A2A48504A5CF0E348C011F445
:10059000400E0401101710BD03D0496A492A01D04A
:1005A000496A493A49464946040110514918BF0B66
:1005B0004918106F1087108F12003F6A0CBF12008D
:1005C00048500D5D02E20DC448F03F6A0BD02C0E7E
:1005D0003F24D96EDA6A040EDA2247503F24F9EC40
:1005E00009F03F2A48503F5CF2E3400E0D6F0C17B4
:1005F0000CBD03D0496A492A01D0496A493A4946A3
:10060000494604010C514918BF0B49180C6F0C875F
:100610000C8F1200495006E1050E485C03E2496A5E
:10062000050E486E48504A6E49504B6E4C6A4D6AF2
:100630000A0ED8904A364B364C364D36E82EF9D74E
:100640004AC009F04BC00AF04CC00BF04DC00CF092
:100650000BC0F8FF0AC0F7FFF66A140EA66EB50EBF
:1006600067EF04F0476E080E1A6E1C0E1B6E040E28
:100670001C6E475006E1140E1B6E040E1C6E256A9C
:1006800002D0040E256E266E0BD819C0DEFF1AC0EC
:10069000DEFF1BC0DEFF1CC0DEFF02D8DF8E1200B3
:1006A00025C0D9FF26C0DAFF1200010E3D6E0F01F2
:1006B00016D8346A3450460FD96EDA6ADF6A342AA3
:1006C0003450F8E003C045F04550C9EC04F0035045
:1006D00003E1050E416E050C060E416E060C4D6BD6
:1006E0004E6B4F6B506B516B526B536B1200040E81
:1006F000411808E103C05EFF0F015E51050ED8B43A
:10070000030E416E3E04D8A4120076EC01F0020EF6
:10071000401802E108D8040C0401480E08BD080E78
:10072000086F088F1200040E0401086F088F040C74
:10073000030E416E0F015D6B626A7B0E5C6F5E6B38
:100740006FEC03F0160E4C6F658C03D06296FEECD6
:1007500009F062B6FBD7659C6598040E196E000E11
:1007600032EC03F0010E3A6E426A456A000EC9EFA0
:1007700004F081B818EC00F0060EF66E14D80D0ED9
:10078000F5180DE10900600EF51809E1F66A0BD8BD
:10079000F52803E10900F52802E000EF0AF018EC63
:1007A00000F000EF00F0140EF76EF86A0900140C68
:1007B0002306D8A0240623502410D8A412004E0EDD
:1007C000246E236A060E416002D08B80060C8BB02B
:1007D00003D0476A472A01D0476A8B504718FE0B5F
:1007E00047188B6E1200C0BC1200030ED36E6592C8
:1007F0006596F26A0ED808D0C0AC04D02D06D8A0F9
:100800002E0601D006D804002D502E10F5E1FF0071
:100810001200040E2E6E2D6A040C04EEACF014EEE1
:1008200000F0EE6AE550E150FCE1E250FAE100EE42
:1008300060F0820EEE6AE806FDE100EE01F0460E81
:10084000EE6AE806FDE10001B9EF03F00401086B70
:10085000406A00AF02D0006B3A6A04AF03D0046B69
:10086000010E3A6E3E6A3D6A2F6A306A6598C4ECA2
:1008700001F002EC00F027EF01F005D80AD8376A42
:100880000CD8386A12007E0E3B6E116AFC0E126E96
:10089000FC0C010E136E146A000C156816681768BC
:1008A000186812003F6A1E0E0F014D6F400E0401C2
:1008B0000D6F2C0E0E6F040E0F6F080E0C6F0C8F49
:1008C0006C0E126F040E136F400E106F400C476ECB
:1008D000F29EF3EC03F0B50E471804E0030ED36E5E
:1008E0000300FED7550EA76EAA0EA76EA682A6B26B
:1008F000FED7A69412005CCF35F0040E0F015C6F9A
:1009000062986582A198A088AAEC04F0A09835505E
:100910000F015C131200390402E1D1EC04F0656AA6
:10092000150E0F015F6F5C6B658698EC03F0010E8E
:10093000416E396A1200600ED36E9B8CDCEC04F0C1
:10094000BFEC04F0C16AC26A3DEC04F08B90949055
:10095000E7EF04F08B90D3CF31F00300A1B802D0C1
:10096000D0A6FBD731C0D3FF1200D9EC04F06592BA
:100970000F015C9501D0629462A41200FCD705D0EF
:10098000FEEC09F04706D8A0480647504810F8E1A9
:100990001200476E4704D8A4120052EC04F03DEF59
:1009A00004F06592656A48684768BFEC04F0416AE4
:1009B000120002D8BFEF04F0030E486E476A030C22
:1009C000390401E1120065A68BEC04F0120065B653
:0E09D000D1EC04F0396AE0EF04F012001200DE
:1010000000B6046134034D006900630072006F0094
:1010100063006800690070002000540065006300F0
:1010200068006E006F006C006F00670079002000A0
:1010300049006E0063002E000902290001010080B2
:10104000320904000002030000000921110100011F
:10105000221D000705810340000107050103400030
:101060000126034800490044002000550053004277
:1010700000200042006F006F0074006C006F006180
:10108000006400650072000600FF0901A10119015A
:101090002940150026FF0075089540810019012997
:1010A000409100C01201000200000008D8043C007A
:0B10B00001010102000104030904001B
:1010BC00060E4118D8B465B21200375001E017D1B2
:1010CC0004010CBF1200600E476E400E486EDDEC42
:1010DC0002F0010E376E276A286A2750A10FD96ECD
:1010EC00DA6A000EDF6E274A282A285005E1400EE6
:1010FC00275CD8B01200F1D71200020EA16F3A0E85
:10110C00A26F010EA36FA46FA56B140EA66FA76B35
:10111C00A86B000E1124A96FEC0E1220AA6FFF0E03
:10112C001320AB6FFF0E1420AC6F030EAD6FF80ED7
:10113C00AE6FAF69010EB06FB16B080EB26FB36BCF
:10114C00B46BB56BB669A50EDA6F040110BFA50CB4
:10115C00A10E476E400E486EB0EC02F0376A1200DA
:10116C00615106E17F0E3B6EF80E116E126802D0D3
:10117C0043EC04F049EC04F0F1D7286A050E276E15
:10118C000CD0FEEC09F027C048F028C049F00AEC5E
:10119C0003F09EEC09F0274A282A3B50526E536A02
:1011AC00522A000E53225250275C53502858D6E234
:1011BC00E8D715280EE116280CE117280AE11828A3
:1011CC0008E161C015F062C016F063C017F064C08E
:1011DC0018F015506119C2E116506219BFE1175091
:1011EC006319BCE118506419B9E1276A286A1AD04E
:1011FC006551A0082724D96EDA6AAC0E3824E16E4A
:10120C00E26A040EE222DFCFE7FF382A152A000E2D
:10121C001622172218223A0E381802E142EC02F07C
:10122C00274A282A00017CD899E2E2D742EC02F046
:10123C004DEC04F093D7070EA16F61C0A2F062C011
:10124C00A3F063C0A4F064C0A5F065C0A6F063C0B1
:10125C00F8FF62C0F7FF61C0F6FF276A286A0BD05F
:10126C00090000016551E1082724D96EDA6AF5CF2F
:10127C00DFFF274A282A54D8F3E3040110BF1200D9
:10128C0067D780EC00F06AD70C0EA16F010EA36F2C
:10129C00020EA26F160EF66ED3EC03F0F5CFA4F08F
:1012AC000A00F5CFA5F0060EA66F140EA76FA86B5B
:1012BC00A96B600EAB6F0D0EAA6FAC6B040EAD6F0D
:1012CC00000EAE6BAF6BB069B169B269B369B4694A
:1012DC00B569B669B769B86BB96BBA6BBB6BBC6BEC
:1012EC00BD6BBE6BBF6BC9D706EC00F037D70001E6
:1012FC006051020A01E101D7010A01E131D7070A65
:10130C0001E13BD7010A01E154D7030A8FE0010A3E
:10131C0092E00F0AE9E0010AB4E0050AB5E01ED735
:10132C006551526E536A5250275C53502858120024
:10133C00E0EC04F0415001E1120062B4B5EC04F0B1
:10134C0065B2120062B098EC03F062B87BEC04F06A
:10135C00030E416001D0030C3C6A62A6120064507B
:10136C0064CF4AF07C0E4A162AE164B203D02B6A91
:10137C00040E02D0040E2B6E2C6E62962BC0D9FF7D
:10138C002CC0DAFFDF30E8320F0B0D0A20E1336A94
:10139C0023D8DECF4AF0DDCF4BF04AC0D9FF4BC08B
:1013AC00DAFF3350010F1FD817D8DE2A000EDD22CA
:1013BC00332A070E3364ECD726EC04F008D0040E65
:1013CC00641804E1629677EC03F001D062963C2A33
:1013DC00030E3C64C2D7030C20EE02F02B50D9262E
:1013EC002C50DA221200E16EE26ADFCFE7FF120026
:0413FC0004001200D7
:0414000045EF0AF0BA
:101406000D604982FACF17F0FBCF18F0E9CF19F03B
:10141600EACF1AF0E1CF1BF0E2CF1CF0D9CF1DF0D6
:10142600DACF1EF0F3CF1FF0F4CF20F0F6CF21F085
:10143600F7CF22F0F8CF23F0F5CF24F0F292F2B4F2
:10144600F2AA02D01AEC8FF024C0F5FF23C0F8FFF1
:1014560022C0F7FF21C0F6FF20C0F4FF1FC0F3FF34
:101466001EC0DAFF1DC0D9FF1CC0E2FF1BC0E1FF92
:101476001AC0EAFF19C0E9FF18C0FBFF17C0FAFF40
:0814860049921100C4EF89F046
:10FC9A0000001180002C0100B1020035003600007E
:10FCAA00B202003500360000B30200350036000209
:10FCBA00003500360000B4000000C0A20002008433
:10FCCA000000C1C50000C20D00000000C38D002A5B
:10FCDA000000C48D00EE0000C50A000036C800000E
:10FCEA00E012001C001000180033002C0025002828
:10FCFA0000280027002F003C00000003000300102A
:10FD0A00008000780000E112001C00100018002D8D
:10FD1A0000280023002800280026002F003B0000AE
:10FD2A0000030003001000003A0500002A00000248
:10FD3A000000008100002B000003000000A2000068
:10FD4A0029002C0200040008001000200040008056
:10FD5A00000001000102000100010002020000038C
:10FD6A0003030001000A006400E8031027000103EE
:10FD7A00070F1F3F7FFF000201030104100000006C
:10FD8A00000000005F00000007000700147F147FD6
:10FD9A0014242A7F2A1223130864623649552250F2
:10FDAA000005030000001C2241000041221C00083B
:10FDBA002A1C2A0808083E080800503000000808D3
:10FDCA00080808006060000020100804023E51493B
:10FDDA00453E00427F400042615149462141454B20
:10FDEA00311814127F1027454545393C4A49493094
:10FDFA0001710905033649494936064949291E0050
:10FE0A003636000000563600000008142241141449
:10FE1A0014141441221408000201510906324979C6
:10FE2A00413E7E1111117E7F494949363E41414189
:10FE3A00227F4141221C7F494949417F0909010129
:10FE4A003E414151327F0808087F00417F4100202E
:10FE5A0040413F017F081422417F404040407F02D9
:10FE6A0004027F7F0408107F3E4141413E7F090919
:10FE7A0009063E4151215E7F0919294646494949E9
:10FE8A003101017F01013F4040403F1F2040201FB8
:10FE9A007F2018207F631408146303047804036125
:10FEAA005149454300007F41410204081020414165
:10FEBA007F00000402010204404040404000010269
:10FECA00040020545454787F484444383844444405
:10FEDA0020384444487F3854545418087E09010293
:10FEEA00081454543C7F0804047800447D400020E0
:10FEFA0040443D00007F10284400417F40007C04BC
:10FF0A001804787C0804047838444444387C14146F
:10FF1A001408081414187C7C08040408485454541F
:10FF2A0020043F4440203C4040207C1C2040201CB0
:10FF3A003C4030403C44281028440C5050503C442B
:10FF4A0064544C44000836410000007F0000004120
:10FF5A0036080008082A1C08081C2A080800FCFFA2
:10FF6A000F0000FFFFF0FF00FFFF002020202020ED
:10FF7A002020202020202020202020202020202077
:10FF8A00200A004A616D696E204561726C792039D8
:10FF9A00393133333339310A0043757272656E74FD
:10FFAA00204D6F64653A0A00446972656374696F2B
:10FFBA006E3A2025640A0020436F6E74696E756F6D
:10FFCA0075730A0A0020556E646566696E65640A6F
:10FFDA000A0020506F736974696F6E0A0A005370C1
:10FFEA006565643A2025640A0020537465700A0A1C
:05FFFA0000256300007A
:020000040001F9
:10000000080E0001D7250001D46F000E0001D82191
:100010000001D56F000E0001D66F56EC8EF0000186
:10002000EE6F0001EE510001DA6FDB6B0E0ED8901F
:100030000001DA37DB37E82EFAD70001EE51000174
:10004000DC6FDD6B0C0ED8900001DC37DD37E82E5D
:10005000FAD70001EE510001DE6FDF6B0A0ED89077
:100060000001DE37DF37E82EFAD70001EE5100013C
:10007000E16FE06B0001EE510001E26FE36B060EF1
:10008000D8900001E237E337E82EFAD70001EE51AD
:100090000001E46FE56B0001E43BE53BF00EE51782
:1000A000E4510F0BE513F00EE4170001EE510001CF
:1000B000E66FE76B0001D890E637E7370001D8908C
:1000C000E637E7370001EE510001E86FE96B000108
:1000D000E6510001E8130001E7510001E9130001B6
:1000E000E4510001E8130001E5510001E9130001AA
:1000F000E2510001E8130001E3510001E91300019E
:10010000E0510001E8130001E1510001E913000191
:10011000DE510001E8130001DF510001E913000185
:10012000DC510001E8130001DD510001E913000179
:10013000DA510001E8110001EA6F0001DB51000112
:10014000E9110001EB6FEEC0ECF00001ED6B080E61
:100150000001D7250001D46F000E0001D821000155
:10016000D56F010E0001D66F56EC8EF00001DA6FEC
:10017000DB6B0001D890DA37DB370001D890DA3733
:10018000DB370001DA510001EC130001DB51000103
:10019000ED13080E0001D7250001D46F000E0001F9
:1001A000D8210001D56F020E0001D66F56EC8EF0FB
:1001B0000001DA6FDB6B0001DA3BDB3BF00EDB1793
:1001C000DA510F0BDB13F00EDA170001DA510001E0
:1001D000EC130001DB510001ED13080E0001D725DF
:1001E0000001D46F000E0001D8210001D56F030E6D
:1001F0000001D66F56EC8EF00001DA6FDB6B060E55
:10020000D8900001DA37DB37E82EFAD70001DA514F
:100210000001EC130001DB510001ED13080E000199
:10022000D7250001D46F000E0001D8210001D56F41
:10023000040E0001D66F56EC8EF00001DA6F00015B
:10024000DA510001DC6FDB6B0001DB510001EC13C4
:100250000001DC510001ED13080E0001D72500015B
:10026000D46F000E0001D8210001D56F050E0001EA
:10027000D66F56EC8EF00001DA6FDB6B0A0ED89069
:100280000001DA37DB37E82EFAD70001DA51000136
:10029000EC130001DB510001ED13080E0001D7251E
:1002A0000001D46F000E0001D8210001D56F060EA9
:1002B0000001D66F56EC8EF00001DA6FDB6B0C0E8E
:1002C000D8900001DA37DB37E82EFAD70001DA518F
:1002D0000001EC130001DB510001ED13080E0001D9
:1002E000D7250001D46F000E0001D8210001D56F81
:1002F000070E0001D66F56EC8EF00001DA6FDB6B53
:100300000E0ED8900001DA37DB37E82EFAD700015D
:10031000DA510001EC130001DB510001ED13000183
:10032000EC510001EA1948E10001ED510001EB191F
:10033000D8A4120032D0000120EE02F0D751D92605
:10034000D851DA22DECFC8F0DDCFC9F0D9C0CAF06B
:10035000A1EC8FF012000001D91F000120EE02F085
:10036000D751D926D851DA22DECFC8F0DDCFC9F077
:10037000D9C0CAF0A1EC8FF01200000120EE04F009
:10038000D751D926D851DA22DECFC8F0DDCFC9F057
:10039000D9C0CAF0A1EC8FF012000001EE51000AA2
:1003A000D8B41200010AD8B4C6D7030AD8B4D3D738
:1003B000010AD8A41200E1D71200050E0001F76F60
:1003C000C7D0010120EE02F0BF51D926C051DA2278
:1003D000DECFD3F0DDCFD4F0C1C1D5F00F0E0001D8
:1003E000D66F58EC8FF0010120EE04F0BF51D926F2
:1003F000C051DA22DECFD3F0DDCFD4F0C1C1D5F0C9
:10040000000E0001D66F58EC8FF0B0D0BFC1B8F12C
:10041000C0C1B9F1C1C1BAF1030E0101BB6F2AEC31
:100420008DF00001F76F0001F751D8A4120001010F
:1004300020EE02F0BF51D926C051DA22DECFD3F030
:10044000DDCFD4F0C1C1D5F0000E0001D66F58EC5D
:100450008FF0010120EE04F0BF51D926C051DA22FD
:10046000DECFD3F0DDCFD4F0C1C1D5F0000E000156
:10047000D66F58EC8FF07AD0BFC1B8F1C0C1B9F1D6
:10048000C1C1BAF1030E0101BB6F2AEC8DF000016E
:10049000F76F0001F751D8A41200010120EE02F01D
:1004A000BF51D926C051DA22DECFD3F0DDCFD4F050
:1004B000C1C1D5F00F0E0001D66F58EC8FF00101CD
:1004C00020EE04F0BF51D926C051DA22DECFD3F09E
:1004D000DDCFD4F0C1C1D5F00F0E0001D66F58ECBE
:1004E0008FF044D0BFC1B8F1C0C1B9F1C1C1BAF1F8
:1004F000030E0101BB6F2AEC8DF00001F76F0001C4
:10050000F751D8A41200010120EE02F0BF51D92604
:10051000C051DA22DECFD3F0DDCFD4F0C1C1D5F0A7
:10052000000E0001D66F58EC8FF0010120EE04F0B0
:10053000BF51D926C051DA22DECFD3F0DDCFD4F0BF
:10054000C1C1D5F0000E0001D66F58EC8FF00ED06F
:100550000101C251000AD8B434D7010AD8B456D721
:10056000030AD8B489D7010AD8B4BCD7080E010150
:10057000BF250001D76F000E0101C0210001D86F17
:100580000101C151040DF3CFD9F0C2C1DAF0F2EC90
:100590008DF0080E0101BF250001D76F000E01018B
:1005A000C0210001D86F0101C151040DF3280001E1
:1005B000D96FC2C1DAF0F2EC8DF0080E0101BF254F
:1005C0000001D76F000E0101C0210001D86F0101A9
:1005D000C151040DF350020F0001D96FC2C1DAF00E
:1005E000F2EC8DF0080E0101BF250001D76F000E5F
:1005F0000101C0210001D86F0101C151040DF35068
:10060000030F0001D96FC2C1DAF0F2EC8DF01200D5
:10061000050E0101C76F7AD0010120EE02F0C25130
:10062000D926C351DA22DECFC5F1DDCFC6F1C5C16F
:10063000D9FFC6C1DAFFFF0E67D0C2C1BFF1C3C187
:10064000C0F1010E0101C16FCEEC8DF00101C76F49
:100650000101C751D8A41200010120EE02F0C251DD
:10066000D926C351DA22DECFC5F1DDCFC6F1C5C12F
:10067000D9FFC6C1DAFF000EDF6E010120EE04F0E3
:1006800036D0C2C1BFF1C3C1C0F1020E0101C16FBA
:10069000CEEC8DF00101C76F0101C751D8A4120043
:1006A000010120EE02F0C251D926C351DA22DECF79
:1006B000C5F1DDCFC6F1C5C1D9FFC6C1DAFFFF0E56
:1006C000DF6E010120EE04F0AAD7C2C1BFF1C3C1A1
:1006D000C0F1000E0101C16FCEEC8DF00101C76FBA
:1006E0000101C751D8A41200010120EE02F0C2514D
:1006F000D926C351DA22DECFC5F1DDCFC6F1C5C19F
:10070000D9FFC6C1DAFF000EDF6E0ED00101C45161
:10071000000AD8B481D7010AD8B48FD7030AD8B455
:10072000B0D7010AD8B4D1D7080E0101C225000103
:10073000D76F000E0101C3210001D86F000E000128
:10074000D96FC4C1DAF0F2EC8DF0080E0101C225B8
:100750000001D76F000E0101C3210001D86F010E07
:100760000001D96FC4C1DAF0F2EC8DF0080E01017E
:10077000C2250001D76F000E0101C3210001D86F0F
:10078000020E0001D96FC4C1DAF0F2EC8DF0080E50
:100790000101C2250001D76F000E0101C321000134
:1007A000D86F030E0001D96FC4C1DAF0F2EC8DF0FE
:1007B000080E0101C2250001D76F000E0101C321FF
:1007C0000001D86F040E0001D96FC4C1DAF0F2EC59
:1007D0008DF0080E0101C2250001D76F000E010146
:1007E000C3210001D86F050E0001D96FC4C1DAF032
:1007F000F2EC8DF0080E0101C2250001D76F000E4A
:100800000101C3210001D86F060E0001D96FC4C1D8
:10081000DAF0F2EC8DF0080E0101C2250001D76F6D
:10082000000E0101C3210001D86F070E0001D96F2E
:10083000C4C1DAF0F2EC8DF01200EEC0D9FFEFC0C7
:10084000DAFFDECFF3F0DDCFF4F0050E0001F26F3A
:10085000B5D0000120EE02F0EE51D926EF51DA2298
:10086000DECFC8F0DDCFC9F0F0C0CAF0010E000144
:10087000CB6F9AEC8CF0B0D0F3C0D7F0F4C0D8F0C6
:10088000010E0001D96FF0C0DAF0B7EC8BF0000177
:10089000F26F0001F251D8A41200000120EE02F024
:1008A000EE51D926EF51DA22DECFC8F0DDCFC9F004
:1008B000F0C0CAF0000E0001CB6F9AEC8CF0000182
:1008C00020EE04F0EE51D926EF51DA22DECFC8F047
:1008D000DDCFC9F0F0C0CAF0000E0001CB6F9AEC7A
:1008E0008CF07AD0F3C0D7F0F4C0D8F0020E00013B
:1008F000D96FF0C0DAF0B7EC8BF00001F26F0001B5
:10090000F251D8A41200000120EE02F0EE51D926D7
:10091000EF51DA22DECFC8F0DDCFC9F0F0C0CAF067
:10092000010E0001CB6F9AEC8CF0000120EE04F078
:10093000EE51D926EF51DA22DECFC8F0DDCFC9F073
:10094000F0C0CAF0010E0001CB6F9AEC8CF044D0DD
:10095000F3C0D7F0F4C0D8F0000E0001D96FF0C09A
:10096000DAF0B7EC8BF00001F26F0001F251D8A47D
:100970001200000120EE02F0EE51D926EF51DA22EA
:10098000DECFC8F0DDCFC9F0F0C0CAF0000E000124
:10099000CB6F9AEC8CF0000120EE04F0EE51D926DA
:1009A000EF51DA22DECFC8F0DDCFC9F0F0C0CAF0D7
:1009B000000E0001CB6F9AEC8CF00ED00001F151CB
:1009C000000AD8B446D7010AD8B456D7030AD8B417
:1009D00089D7010AD8B4BCD7080E0001EE25000162
:1009E000D76F000E0001EF210001D86FF0C0D9F0E1
:1009F000F1C0DAF0F2EC8DF012000101CA51C3EC43
:100A00008AF0C8C1D9FFC9C1DAFF0001C8C0DEFF42
:100A10000001C9C0DDFF0101CA5116EC8BF00101D4
:100A200020EE06F0C851D926C951DA220001C8C00B
:100A3000DEFF0001C9C0DDFF0101CA5116EC8BF0D9
:100A4000010120EE04F0C851D926C951DA22000173
:100A5000C8C0DEFF0001C9C0DDFF0101CA5170EC52
:100A60008AF0010120EE02F0C851D926C951DA22DC
:100A70000001C8C0DEFF0001C9C0DDFF010120EE9A
:100A800004F0C851D926C951DA22DECFCBF1DDCF2F
:100A9000CCF1CBC1D9FFCCC1DAFF000EDF6E010172
:100AA00020EE02F0C851D926C951DA22DECFCBF1AF
:100AB000DDCFCCF1CBC1D9FFCCC1DAFFFF0EDF6EA9
:100AC000C8C1C2F1C9C1C3F1000E0101C46F08EC75
:100AD00083F0000E0101CD6F070E0101CD6531D00D
:100AE0004BD0C8C1EEF0C9C1EFF0CDC1F0F0030E9C
:100AF0000001F16F1DEC84F03CD0C8C1EEF0C9C11B
:100B0000EFF0CDC1F0F0020E0001F16F1DEC84F0AA
:100B100030D0C8C1EEF0C9C1EFF0CDC1F0F0010E88
:100B20000001F16F1DEC84F024D0C8C1EEF0C9C102
:100B3000EFF0CDC1F0F0000E0001F16F1DEC84F07C
:100B400018D0C8C1D9FFC9C1DAFFDECFD4F0DDCFDC
:100B5000D5F0CDC1D6F056EC8EF0000AD8B4C1D78E
:100B6000010AD8B4D6D7030AD8B4C7D7010AD8B473
:100B7000DCD70101CD2BB0D7C8C1D7F0C9C1D8F09F
:100B8000000E0001D96F00EC80F01200010E446EDF
:100B9000000E256E000E266E000E276E9F0E0101C0
:100BA000C86F010E0101C96F000E0101CA6FFDEC93
:100BB00084F0950E0101C86F010E0101C96F010E8D
:100BC0000101CA6FFDEC84F0930E0101C86F000EA5
:100BD0000101C96F020E0101CA6FFDEC84F0890E9C
:100BE0000101C86F000E0101C96F030E0101CA6F38
:100BF000FDEC84F07F0E0101C86F000E0101C96F8A
:100C0000040E0101CA6FFDEC84F0A90E0101C86F4A
:100C1000010E0101C96F050E0101CA6FFDEC84F0E0
:100C20008B0E0101C86F010E0101C96F060E010193
:100C3000CA6FFDEC84F0A90E0001EE6F010E0001F9
:100C4000EF6F050E0001F06F000E0001F16F1DEC5B
:100C500084F0950E0101BF6F010E0101C06F000EFF
:100C60000101C16F000E0101C26FDDEC81F0A90E20
:100C70000001EE6F010E0001EF6F060E0001F06F34
:100C8000030E0001F16F1DEC84F08B0E0101C26FA9
:100C9000010E0101C36F030E0101C46F08EC83F064
:100CA0008B0E0001D76F010E0001D86F040E0001FA
:100CB000D96F000E0001DA6FA9EC88F0A90E0001CF
:100CC000D76F010E0001D86F060E0001D96F010E1B
:100CD0000001DA6FA9EC88F0000ECCEC8CF0010E6C
:100CE000CCEC8CF0000E9E6E000EA16E000EA46E79
:100CF0009B8E9B8C000E0001C96F640EC86F30EC98
:100D00008CF0D08E1200800E0001DB6F8D0EDC6F38
:100D10005B0EDD6F000EDE6FD59E0001D551000128
:100D2000D6110001D7110001D811D8B41200D59600
:100D3000D59CD59AD598DBC0C8F0DCC0C9F0DDC021
:100D4000CAF0DEC0CBF0D5C0CCF0D6C0CDF0D7C055
:100D5000CEF0D8C0CFF00BEC89F0C8C0DFF0C9C02E
:100D6000E0F0CAC0E1F0CBC0E2F009D0382A020EB0
:100D7000386401D02DD0070E386401D01200DFC0D6
:100D8000C8F0E0C0C9F0E1C0CAF0E2C0CBF0385012
:100D9000020D4D0EF324F66EFD0EF420F76EF86A88
:100DA000000EF8220900F5CFD9F00900F5CFDAF0EE
:100DB000D9C0CCF0DAC0CDF00001CE6BCF6B0BEC1C
:100DC00089F00001CB51D2E10001CA05D8B0CED7DD
:100DD0003850020D4D0EF324F66EFD0EF420F76E22
:100DE000F86A000EF8220800F5CF37F0FF0E000178
:100DF000DF250001646FFF0E0001E0210001656F37
:100E0000FF0E0001E1210001666FFF0E0001E221EB
:100E10000001676F64C0C8F065C0C9F066C0CAF061
:100E200067C0CBF037500001CC6FCD6BCE6BCF6B72
:100E30000BEC89F00001C81F0001C91F0001C84B5D
:100E4000C92BFF0E0001C8252A6EFF0E0001C92123
:100E50002B6EBCEC8FF0D58E120049B2BFEF87F03D
:100E600020EE04F02C50D9262D50DA22DF5015EC5C
:100E70008EF00009D8B47AD02CC0D9FF2DC0DAFF8B
:100E8000DE50DE10D8B46DD02CC0D9FF2DC0DAFFF3
:100E9000010EDBBE26D0010EDB5003E1DE04D8A03C
:100EA00020D02CC0D9FF2DC0DAFFDE2804E17F0E50
:100EB000DE18D8B407D02CC0D9FF2DC0DAFFDE066B
:100EC000000EDD5A7F0E0001D76F000E0001D86FB3
:100ED000000E0001D96F010E0001DA6FA9EC88F055
:100EE0001FD02CC0D9FF2DC0DAFFDE0404E1800E34
:100EF000DE18D8B407D02CC0D9FF2DC0DAFFDE2A07
:100F0000000EDD227F0E0001D76F000E0001D86FAA
:100F1000000E0001D96F000E0001DA6FA9EC88F015
:100F20007F0E0001D76F000E0001D86F010E000187
:100F3000D96F010E0001DA6FA9EC88F07F0E000175
:100F4000D76F000E0001D86F010E0001D96F000E9F
:100F50000001DA6FA9EC88F096EC8FF0B6EC8FF018
:100F6000120096EC8FF0DAEC8FF012006BC0C8F034
:100F70006CC0C9F06DC0CAF0A8EC8FF0120020EE72
:100F800004F02C50D9262D50DA22DF50CFEC8EF011
:100F90000009D8B46AD02CC0D9FF2DC0DAFFDE50CA
:100FA000DE10D8B45DD02CC0D9FF2DC0DAFF010E01
:100FB000DBBE22D0010EDB5003E1DE04D8A01CD042
:100FC0002CC0D9FF2DC0DAFFDE2804E17F0EDE1829
:100FD000D8B407D02CC0D9FF2DC0DAFFDE06000E32
:100FE000DD5A7F0E106E000E116E000E126E010E95
:100FF000136E1BEC8AF01BD02CC0D9FF2DC0DAFF7A
:10100000DE0404E1800EDE18D8B407D02CC0D9FF6E
:101010002DC0DAFFDE2A000EDD227F0E106E000EDC
:10102000116E000E126E000E136E1BEC8AF07F0E16
:10103000106E000E116E010E126E010E136E1BEC7F
:101040008AF07F0E106E000E116E010E126E000EF1
:10105000136E1BEC8AF0E0EC8FF0C2EC8FF0120004
:10106000E0EC8FF0DDEC8FF012006BC001F06CC093
:1010700002F06DC003F0AFEC8FF01200B8C1D9FFE1
:10108000B9C1DAFF000EDE6E000EDD6E010120EE4A
:1010900002F0B851D926B951DA22000EDE6E000EE8
:1010A000DD6E010120EE04F0B851D926B951DA22E3
:1010B000BAC1DEFFBBC1DDFF7F0E0001EE6F000E87
:1010C0000001EF6F000E0001F06F030E0001F16FE1
:1010D0001DEC84F07F0E0001EE6F000E0001EF6F3B
:1010E000010E0001F06F030E0001F16F1DEC84F0A2
:1010F0007F0E0001D76F000E0001D86F000E0001B7
:10110000D96F000E0001DA6FA9EC88F07F0E0001A4
:10111000D76F000E0001D86F010E0001D96F000ECD
:101120000001DA6FA9EC88F05A0E00016B6F0E0E09
:1011300000016C6F010E00016D6FE80E0001D56FAC
:10114000030ED66F000ED76F000ED86F83EC86F0BB
:101150001200080E0001D7250001D46F000E000117
:10116000D8210001D56FD9C0D6F056EC8EF0000121
:10117000DB6F42D0010E0001DA17000120EE02F011
:10118000D751D926D851DA22DECFC8F0DDCFC9F049
:10119000D9C0CAF0DAC0CBF09AEC8CF01200010E84
:1011A0000001DA17010E0001DA1B000120EE02F047
:1011B000D751D926D851DA22DECFC8F0DDCFC9F019
:1011C000D9C0CAF0DAC0CBF09AEC8CF01200010E54
:1011D0000001DA17000120EE04F0D751D926D851CA
:1011E000DA22DECFC8F0DDCFC9F0D9C0CAF0DAC04C
:1011F000CBF09AEC8CF012000001DB51000AD8B45D
:101200001200010AD8B4B6D7030AD8B4C8D7010A65
:10121000D8A41200DCD7000E0001D06F000ED16FF1
:10122000000ED26F000ED36F0001CC510001CD1122
:101230000001CE110001CF11D8B442D0010E00013F
:10124000D46F08D00001D890CC37CD37CE37CF3708
:101250000001D42B0001CFAFF5D70001D890D037D3
:10126000D137D237D3370001CC510001C85D00011E
:10127000CD510001C9590001CE510001CA590001E8
:10128000CF510001CB59D8A012D00001CC510001A0
:10129000C85F0001CD510001C95B0001CE510001C2
:1012A000CA5B0001CF510001CB5B0001D08100017E
:1012B000D890CF33CE33CD33CC330001D42FCDD71C
:1012C000D0C0C8F0D1C0C9F0D2C0CAF0D3C0CBF0F2
:1012D00012000001CC51010D770EF324F66EFD0EC5
:1012E000F420F76EF86A000EF8220800F5CFD2F06D
:1012F000000E0001D16F06D00001CA510001CB5F82
:101300000001D12B0001CA510001CB5DD8B0F4D748
:101310000001CC510001CB03F350CB6F0001D15140
:101320000001CB270001D2510001CD17CBC0CEF078
:10133000D2C0CFF00001CE2B03D00001D890CF3720
:101340000001CE2FFAD70001CF51FF0A0001D06F64
:10135000C8C0D9FFC9C0DAFF0001D051DF16CBC029
:10136000CEF0CDC0CFF00001CE2B03D00001D8903D
:10137000CF370001CE2FFAD7C8C0D9FFC9C0DAFFD6
:101380000001CF51DF121200AB0EF66E1F0EF76E8A
:10139000010EF86E01EECEF010EE08F00900F5CF68
:1013A000EEFFE550E150FAE1A30EF66E1F0EF76E68
:1013B000010EF86E00EEF8F010EE08F00900F5CF1F
:1013C000EEFFE550E150FAE19A0EF66E1F0EF76E51
:1013D000010EF86E00EE40F010EE09F00900F5CFB6
:1013E000EEFFE550E150FAE102EE46F011EE2CF08E
:1013F000EE6AE550E150FCE1E250FAE102EE00F065
:10140000460EEE6AE806FDE101EE00F0B80EEE6A67
:10141000E806FDE100EE60F0680EEE6AE806FDE128
:1014200000EE25F01B0EEE6AE806FDE149904992B8
:101430000001FDEF8CF0080E10240D6E000E11203F
:101440000E6E12C00FF002EC8FF0146E3BD0010E46
:10145000131620EE02F01050D9261150DA22DECFFA
:1014600001F0DDCF02F012C003F013C004F0A8ECCD
:101470008DF01200010E1316010E131A20EE02F069
:101480001050D9261150DA22DECF01F0DDCF02F064
:1014900012C003F013C004F0A8EC8DF01200010E8E
:1014A000131620EE04F01050D9261150DA22DECFA8
:1014B00001F0DDCF02F012C003F013C004F0A8EC7D
:1014C0008DF012001450000AD8B41200010AD8B4EA
:1014D000BED7030AD8B4CED7010AD8A41200DFD7EA
:1014E0000001CA6F38D0920E0001C86F0F0E0001C4
:1014F000C96F1200930E0001C86F0F0E0001C96F73
:101500001200940E0001C86F0F0E0001C96F120087
:10151000950E0001C86F0F0E0001C96F1200960EE4
:101520000001C86F0F0E0001C96F1200970E000175
:10153000C86F0F0E0001C96F1200980E0001C86F2E
:101540000F0E0001C96F1200000E0001C86F000EDF
:101550000001C96F12000001CA51000AD8B4C3D7F4
:10156000010AD8B4C7D7030AD8B4CBD7010AD8B474
:10157000CFD7070AD8B4D3D7010AD8B4D7D7030A2C
:10158000D8B4DBD7E1D70001CA6F38D0730E0001A1
:10159000C86FFF0E0001C96F1200710E0001C86F05
:1015A000FF0E0001C96F12006F0E0001C86FFF0E21
:1015B0000001C96F12006D0E0001C86FFF0E00011F
:1015C000C96F12006B0E0001C86FFF0E0001C96FDA
:1015D0001200690E0001C86FFF0E0001C96F1200F2
:1015E000670E0001C86FFF0E0001C96F1200000EE8
:1015F0000001C86F000E0001C96F12000001CA513E
:10160000000AD8B4C3D7010AD8B4C7D7030AD8B4DC
:10161000CBD7010AD8B4CFD7070AD8B4D3D7010A99
:10162000D8B4D7D7030AD8B4DBD7E1D70001CA6F43
:1016300038D0800E0001C86F0F0E0001C96F120074
:10164000810E0001C86F0F0E0001C96F1200820EDB
:101650000001C86F0F0E0001C96F1200830E000158
:10166000C86F0F0E0001C96F1200840E0001C86F11
:101670000F0E0001C96F1200850E0001C86F0F0E1A
:101680000001C96F1200860E0001C86F0F0E000125
:10169000C96F1200000E0001C86F000E0001C96F73
:1016A00012000001CA51000AD8B4C3D7010AD8B445
:1016B000C7D7030AD8B4CBD7010AD8B4CFD7070A03
:1016C000D8B4D3D7010AD8B4D7D7030AD8B4DBD754
:1016D000E1D7C8C0F6FFC9C0F7FF000EF86E0F0EC5
:1016E000F76403D00800F55005D0F6CFE9FFF7CF37
:1016F000EAFFEF500001D06F0001CC51010D770ED1
:10170000F324F66EFD0EF420F76EF86A000EF82250
:101710000800F5CFCEF0000E0001CF6F06D000011B
:10172000CA510001CB5F0001CF2B0001CA5100015B
:10173000CB5DD8B0F4D70001CC510001CB03F350FE
:10174000CB6F0001CF510001CB270001CB29000155
:10175000CD6F03D00001D890D0330001CD2FFAD740
:101760000001CE510001D0170001D05112005D0ED2
:10177000F66EFD0EF76E000EF86E20EEDDF00F0E29
:101780000900F5CFDEFFE806FBE2D7C0D4F0D8C0F1
:10179000D5F0DAC0D6F056EC8EF00001ED6F040EF5
:1017A0000001D96120D0040E0001ED611CD00001C0
:1017B000D951040DDD0E0001DB6F000E0001DC6F5E
:1017C000F3500001DB27F4500001DC230001ED5150
:1017D000010DF3500001DB25D96EF4500001DC212E
:1017E000DA6EDF501200050E120001C0F6FF02C0D3
:1017F000F7FF000EF86E0F0EF76403D00800F550E7
:1018000005D0F6CFE9FFF7CFEAFFEF50096E05509C
:10181000010D770EF324F66EFD0EF420F76EF86AD4
:10182000000EF8220800F5CF07F0000E086E03D076
:101830000350045E082A0350045CD8B0F9D7055061
:101840000402F350046E085004260428066E02D0E9
:10185000D8900932062EFCD70750091609501200FD
:101860001FD0000E0001CA6F000ECB6F000ECC6FB0
:10187000000ECD6F0001CD510001CC1111E1B00E71
:101880000001CA5D040E0001CB59D8B009D000F0A8
:10189000010E0001CA27000ECB23CC23CD23EAD7AB
:1018A0000001C807D8A0C9070001C829DAE1000172
:1018B000C929D8A4D6D7080E0001CA6F800ECB6FF5
:1018C000000ECC6F000ECD6F1200050E0001F46FFC
:1018D000EEC0D9FFEFC0DAFFDECFF5F0DDCFF6F0D6
:1018E0000001F051020DF3CFF2F00001F051020DB2
:1018F000F3280001F36FF5C0D7F0F6C0D8F0F1C0BF
:10190000D9F0F2C0DAF0B7EC8BF00001F46F00010F
:10191000F451D8A40CD0F5C0D7F0F6C0D8F0F1C07F
:10192000D9F0F3C0DAF0B7EC8BF00001F46F0001EE
:10193000F4511200010E0001CB17CAC0CCF0010E09
:101940000001CD6F0001CC2B03D00001D890CD3722
:101950000001CC2FFAD70001CD51FF0A0001CE6F54
:10196000C8C0D9FFC9C0DAFF0001CE51DF16CAC016
:10197000CCF0CBC0CDF00001CC2B03D00001D8902F
:10198000CD370001CC2FFAD7C8C0D9FFC9C0DAFFC4
:101990000001CD51DF1212000001F56F1ED0930E31
:1019A0000001EE6F000E0001EF6F000E0001F06FFE
:1019B000030E0001F16F1DEC84F017D0930E0001AF
:1019C000EE6F000E0001EF6F010E0001F06F030ECD
:1019D0000001F16F1DEC84F008D00001F551000A00
:1019E000D8B4DDD7010AD8B4E9D7000E0001DC6F06
:1019F0000001F55180EC8DF0120094EC8EF0080E91
:101A000075EC8EF00009D8B445EF0AF0AB0E00017A
:101A1000E36F000E0001E46F010E0001E66F000E9F
:101A2000E56F31EC8FF0AB0E0001CB6F000E0001C3
:101A3000CC6F000E0001CE6F010ECD6FB2EC8EF0B8
:101A400096EC8FF00009D8B445EF0AF0EAEC8EF07E
:101A500045EF0AF0050E0101BE6F0101BA51020DFA
:101A6000F3CFBCF10101BA51020DF3280101BD6FA2
:101A7000B8C1EEF0B9C1EFF0BCC1F0F0BBC1F1F0FC
:101A800065EC8CF00101BE6F0101BE51D8A40CD0F1
:101A9000B8C1EEF0B9C1EFF0BDC1F0F0BBC1F1F0DB
:101AA00065EC8CF00101BE6F0101BE5112001CD02B
:101AB000000E0001CA6F000ECB6F000ECC6F000E3F
:101AC000CD6F0001CA510001CB110001CC11000102
:101AD000CD11D8A409D000F0010E0001CA27000ED4
:101AE000CB23CC23CD23EDD70001C807D8A0C9074D
:101AF0000001C829DDE10001C929D8B41200D8D7F6
:101B00000001DD6F1CD0930E0001D76F000E0001A5
:101B1000D86F000E0001D96FDCC0DAF0A9EC88F0B4
:101B20001200930E0001D76F000E0001D86F010E56
:101B30000001D96FDCC0DAF0A9EC88F012000001D6
:101B4000DD51000AD8B4DFD7010AD8A41200E9D7C2
:101B5000010E041603C005F0010E066E052A02D020
:101B6000D8900636052EFCD70650FF0A076E01C036
:101B7000D9FF02C0DAFF0750DF1603C005F004C02A
:101B800006F0052A02D0D8900636052EFCD701C0F3
:101B9000D9FF02C0DAFF0650DF121200050E000165
:101BA000F76FBFC1B8F1C0C1B9F1000E0101BA6F42
:101BB000C1C1BBF12AEC8DF00001F76F0001F751B4
:101BC000D8A40DD0BFC1B8F1C0C1B9F1010E010157
:101BD000BA6FC1C1BBF12AEC8DF00001F76F0001B3
:101BE000F7511200030E0001D96514D0010E000157
:101BF000D7250001D36F000E0001D8210001D46F5A
:101C00000001D951FC0F0001D56FDAC0D6F069ECA4
:101C10008FF01200D7C0D3F0D8C0D4F0D9C0D5F01F
:101C2000DAC0D6F069EC8FF012000001CF6F865059
:101C30000F0B0001CE6F4450D8A402D0000E12004A
:101C4000000E446E0001CF510001CE19D8B40CD063
:101C5000F00E86160001CF518612000E0001C96FEA
:101C60000A0EC86F57EC8DF0010E120016D0000E50
:101C7000036E000E046E000E056E000E066E03501D
:101C8000041005100610D8A408D000F0010E032699
:101C9000000E042205220622F2D70106D8A0020671
:101CA0000128E5E10228D8B41200E1D7030E0001B3
:101CB000D66512D0010E0001D4250001D16F000EAF
:101CC0000001D5210001D26F0001D651FC0F0001A7
:101CD000D36F7AEC8FF01200D4C0D1F0D5C0D2F01F
:101CE000D6C0D3F07AEC8FF012000001CF6F86508F
:101CF0000F0B0001CE6F4450D8B4FDD7000E446ED8
:101D00000001CF510001CE19D8B40CD0F00E8616C8
:101D10000001CF518612000E0001C96F0A0EC86F74
:101D200057EC8DF0010E1200C6EC85F0080E75EC34
:101D30008EF00009D8B413D0AB0E0101B86F000EBD
:101D40000101B96F000E0101BB6F080EBA6F3EECC6
:101D500088F096EC8FF00009D8A4EAEC8EF0C8EC7D
:101D60008FF01200CBC02CF0CCC02DF0CBC0D9FF2F
:101D7000CCC0DAFFDE50DE10D8A41200CBC0D9FFF1
:101D8000CCC0DAFFCDC0DEFFCEC0DDFF6BC0C8F037
:101D90006CC0C9F06DC0CAF046EC8FF01200086E3E
:101DA00086500F0B076E4450D8A402D0000E1200CC
:101DB000000E446E08500718D8B40AD0F00E8616EC
:101DC00008508612000E026E0A0E016E36EC8EF07E
:101DD000010E1200255026102710D8B40CD001D8BF
:101DE0000AD00500FA6E2550FD6E2650FE6E275073
:101DF000FF6EFA501200000E256E000E266E000EC9
:101E0000276E1200030E0F640CD0010E0D240A6E13
:101E1000000E0E200B6E0F50FC0F0C6E89EC8FF035
:101E200012000DC00AF00EC00BF00FC00CF089ECD0
:101E30008FF01200DDEC8FF0000168510001691194
:101E400000016A11D8B4120001D812000500FA6E20
:101E500000016851FD6E6951FE6E6A51FF6EFA50C5
:101E60001200000120EE02F0E351D926E451DA22FB
:101E7000E5C0DEFFE6C0DDFFE5C0D5F0E6C0D6F088
:101E80000001D76BD86B83EC86F01200C8C068F0F5
:101E9000C9C069F0CAC06AF02AC0D6FF2BC0D7FFFC
:101EA000D5503818F80B3818D56EF294F28A120013
:101EB000D3C0C8F0D4C0C9F0020E0001CA6FD5C0AB
:101EC000CBF0040E0001CC6FD6C0CDF069EC89F0E8
:101ED0001200D3C0C8F0D4C0C9F0040E0001CA6F0C
:101EE000D5C0CBF0020E0001CC6FD6C0CDF069ECAE
:101EF00089F01200D1C0C8F0D2C0C9F0040E0001B0
:101F0000CA6FD3C0CBF0020E0001CC6F69EC8BF02E
:101F100012000AC001F00BC002F0040E036E0CC0E8
:101F200004F0020E056EF5EC8BF01200010E446E0B
:101F3000255026102710D8B402D0010E1200000E32
:101F40001200C8C0D9FFC9C0DAFFCAC0DFFF120043
:101F5000C8C025F0C9C026F0CAC027F0120001C0D1
:101F600025F002C026F003C027F012002AC0D6FFD9
:101F70002BC0D7FFF28A12002AC0D6FF2BC0D7FF92
:101F8000F29412002AC0D6FF2BC0D7FFF28A1200AB
:101F9000F28CF28EF288F292120006000600010125
:101FA00030808005000700FFFF41610600060080C9
:031FB00000070027
:101FB400F29AF2941200F29AF2941200010E446E14
:021FC400120009
:06FFF800AAF705FFF8F175
:00000001FF
