:0614000055EF0AF0120096
:101408005082FACF17F0FBCF18F0E9CF19F0EACFE6
:101418001AF0E1CF1BF0E2CF1CF0D9CF1DF0DACFE4
:101428001EF0F3CF1FF0F4CF20F0F6CF21F0F7CF66
:1014380022F0F8CF23F0F5CF24F050C025F051C0AA
:1014480026F052C027F053C028F0F292F2B4F2AA64
:1014580002D07DECB4F028C053F027C052F026C06B
:1014680051F025C050F024C0F5FF23C0F8FF22C07A
:10147800F7FF21C0F6FF20C0F4FF1FC0F3FF1EC016
:10148800DAFF1DC0D9FF1CC0E2FF1BC0E1FF1AC074
:10149800EAFF19C0E9FF18C0FBFF17C0FAFF509216
:0614A80011005BEFA6F04D
:10FBE20000001180002C0100B10200350036000037
:10FBF200B202003500360000B302003500360002C2
:10FC0200003500360000B4000000C0A200020084EB
:10FC12000000C1C50000C20D00000000C38D002A13
:10FC22000000C48D00EE0000C50A000036C80000C6
:10FC3200E012001C001000180033002C00250028E0
:10FC420000280027002F003C0000000300030010E2
:10FC5200008000780000E112001C00100018002D46
:10FC620000280023002800280026002F003B000067
:10FC720000030003001000003A0500002A00000201
:10FC82000000008100002B000003000000A2000021
:10FC920029002C020004000800100020004000800F
:10FCA2000000010001020001000100020200000345
:10FCB20003030001000A006400E8031027000103A7
:10FCC200070F1F3F7FFF0002010301041000000025
:10FCD200000000005F00000007000700147F147F8F
:10FCE20014242A7F2A1223130864623649552250AB
:10FCF2000005030000001C2241000041221C0008F4
:10FD02002A1C2A0808083E0808005030000008088B
:10FD1200080808006060000020100804023E5149F3
:10FD2200453E00427F400042615149462141454BD8
:10FD3200311814127F1027454545393C4A4949304C
:10FD420001710905033649494936064949291E0008
:10FD52003636000000563600000008142241141402
:10FD6200141414412214080002015109063249797F
:10FD7200413E7E1111117E7F494949363E41414142
:10FD8200227F4141221C7F494949417F09090101E2
:10FD92003E414151327F0808087F00417F410020E7
:10FDA20040413F017F081422417F404040407F0292
:10FDB20004027F7F0408107F3E4141413E7F0909D2
:10FDC20009063E4151215E7F0919294646494949A2
:10FDD2003101017F01013F4040403F1F2040201F71
:10FDE2007F2018207F6314081463030478040361DE
:10FDF2005149454300007F4141020408102041411E
:10FE02007F00000402010204404040404000010221
:10FE1200040020545454787F4844443838444444BD
:10FE220020384444487F3854545418087E0901024B
:10FE3200081454543C7F0804047800447D40002098
:10FE420040443D00007F10284400417F40007C0474
:10FE52001804787C0804047838444444387C141428
:10FE62001408081414187C7C0804040848545454D8
:10FE720020043F4440203C4040207C1C2040201C69
:10FE82003C4030403C44281028440C5050503C44E4
:10FE920064544C44000836410000007F00000041D9
:10FEA20036080008082A1C08081C2A0808000080D6
:10FEB2003F1872313FF0FD753E4758633D58951D1E
:10FEC2003C82C4AE3AA8782139EF938037A092A73A
:10FED200354656153400000000C4FF7F3F80EFFF17
:10FEE200BE90E1A93EEC8276BE82AD2B3E0E3CC3B3
:10FEF200BD87D1133D4178D3BB00FCFF0F0000FF4B
:10FF0200FFF0FF00FFFF0043757272656E74204DB3
:10FF12006F64653A0A20436F6E74696E756F75730C
:10FF2200204D6F64650A0043757272656E74204DD0
:10FF32006F64653A0A20506F736974696F6E204D61
:10FF42006F64650A0A0043757272656E74204D6FA4
:10FF520064653A0A20556E646566696E65640A00D6
:10FF620043757272656E74204D6F64653A0A205350
:10FF7200746570204D6F64650A00202020202020C7
:10FF8200202020202020202020202020202020206F
:10FF92000A004A616D696E204561726C79203939B7
:10FFA2003133333339310A0A0052656D61696E6942
:10FFB2006E672053746570733A2025640A0A0054F0
:10FFC200617267657420416E676C653A0A20256428
:10FFD200200A00446972656374696F6E3A200053A7
:10FFE200706565643A2025640A0053746570733A3B
:0EFFF2002025640A004343570A0025630000DF
:020000040001F9
:1000000000019851800B0001A56F000198519825BF
:100010000001A76F000197AF02D00001A781000186
:10002000A7510001D8B412D00001A729D8A409D043
:10003000000E0001956F000E966F000E976F000E78
:10004000986F0001978F000E000108D0000E00018C
:10005000956F000E966F000E976F000E986F00015F
:100060009C51800B0001A66F0001A5510001A6194B
:10007000D8B402D00001A58D00019C519C2500013F
:10008000A66F00019BAF02D00001A6810001A6511E
:100090000001D8B412D00001A629D8A409D0000EBE
:1000A0000001996F000E9A6F000E9B6F000E9C6FFF
:1000B00000019B8F000E000108D0000E0001996F17
:1000C000000E9A6F000E9B6F000E9C6F0001A751EF
:1000D0000001A65DD8B024D00001A5AD03D0800EEC
:1000E0000001A51BA7C0A8F0A6C0A7F0A8C0A6F055
:1000F00095C0A8F099C095F0A8C099F096C0A8F056
:100100009AC096F0A8C09AF097C0A8F09BC097F04C
:10011000A8C09BF098C0A8F09CC098F0A8C09CF024
:10012000000E0001A86F0001A75100019D6F9E6B9A
:1001300000019D1F9E1F9D4B9E2B0001A65100019B
:100140009F6FA06B00019D5100019F2700019E51F0
:100150000001A0230001A0BF3DD00001A05105E196
:100160001A0E00019F5DD8A035D000019551000105
:1001700096110001971100019811D8B402D0010E18
:1001800001D0000E0001A86F000E0001956F000E57
:10019000966F000E976F000E986FA6C0A7F020D044
:1001A0000001A8A107D00001D890A83101090001E1
:1001B000A86F03D00001D890A833000195A102D008
:1001C0000001A88F00019835983397339633953303
:1001D0000001A72B0001A6510001A75DD8A0E0D720
:1001E0000001A5BD3FD00001A7510001D8A40AD04D
:1001F000000E0001956F000E966F000E976F000EB7
:10020000986F1200000199510001952700019A5141
:100210000001962300019B510001972300019C518E
:1002200000019823000198A1CCD00001A8A109D019
:100230000001D890A8330001A85101090001A86F5E
:1002400003D00001D890A833000195A102D000018D
:10025000A88F000198359833973396339533000172
:10026000A72BAFD0000199510001955D00019A5173
:100270000001965900019B510001975900019851C6
:10028000800A00019D6F00019C51800A00019D5968
:10029000D8B050D095C09DF096C09EF097C09FF00A
:1002A00098C0A0F000019D1F9E1F9F1FA01F9D2BA7
:1002B000000E9E239F23A0230001995100019D253C
:1002C0000001A16F00019A5100019E210001A26F5F
:1002D00000019B5100019F210001A36F00019C516F
:1002E0000001A0210001A46FFF0E0001A125000163
:1002F000956FFF0E0001A2210001966FFF0E000115
:10030000A3210001976FFF0E0001A4210001986F47
:10031000800E0001A51B0001A86D0001A85100017D
:10032000D8A418D0010E00019527000E962397231C
:10033000982310D0000199510001955F00019A5156
:100340000001965B00019B510001975B00019C51ED
:100350000001985B00019551000196110001971171
:1003600000019811D8A42AD00001A8510001D8A4F6
:1003700025D0000E0001956F000E966F000E976F4E
:10038000000E986F12000001D89095379637973776
:1003900098370001A8AF02D0000195810001A8A103
:1003A00003D0D880000102D00001D890A837000106
:1003B000A7510001D8B402D00001A707000197AFF0
:1003C000E2D7000E0001A66F0001A8AF0DD0A8C0B3
:1003D0009DF07F0E00019D17D8A403D0000195A1C8
:1003E00003D0010E0001A66F0001A6510001D8B490
:1003F00026D0010E00019527000E962397239823FF
:10040000000198A11CD095C09DF096C09EF097C0A9
:100410009FF098C0A0F00001A035A0339F339E3319
:100420009D339DC095F09EC096F09FC097F0A0C0F0
:1004300098F00001A729D8B402D00001A72B000131
:10044000A729D8B405D00001A7510001D8A411D024
:10045000000E0001956F000E966F000E976F000E54
:10046000986F0001A7510001D8A403D0000E00012D
:10047000A56F0001A7A103D00001978F02D0000152
:10048000979F0001D890A7310001986F0001A5AF98
:1004900002D00001988F95C095F096C096F097C055
:1004A00097F098C098F0120000017F51800B000176
:1004B000886F00017F517F2500018E6F00017EAFA4
:1004C00002D000018E8100018E510001D8B410D0FD
:1004D00000018E29D8A409D0000E00017C6F000E07
:1004E0007D6F000E7E6F000E7F6F00017E8F09D042
:1004F000000E00017C6F000E7D6F000E7E6F000EFF
:100500007F6F00018351800B0001881B0001835124
:1005100083250001896F000182AF02D0000189812B
:10052000000189510001D8B410D000018929D8A454
:1005300009D0000E0001806F000E816F000E826FE7
:10054000000E836F0001828F09D0000E0001806FC2
:10055000000E816F000E826F000E836F00018951C3
:100560000001D8B405D000018E510001D8A40AD0F2
:10057000000E00017C6F000E7D6F000E7E6F000E7E
:100580007F6F12000001825100017C03F3CF93F0D2
:10059000F4CF94F00001935100018A6F8B6B8C6B48
:1005A0008D6B0001945100018F6F906B916B926B7A
:1005B0000001815100017D03F3CF93F0F4CF94F05B
:1005C0000001935100018A27000E8B238C238D2379
:1005D0000001945100018F27000E90239123922354
:1005E0000001805100017E03F3CF93F0F4CF94F02B
:1005F0000001935100018A27000E8B238C238D2349
:100600000001945100018F27000E90239123922323
:100610008CC08DF08BC08CF08AC08BF000018A6B8F
:100620000001805100017D03F3CF93F0F4CF94F0EB
:100630000001935100018A270001945100018B238E
:10064000000E00018C23000E00018D23000181515A
:1006500000017C03F3CF93F0F4CF94F000019351A9
:1006600000018A270001945100018B23000E000134
:100670008C23000E00018D238CC08DF08BC08CF07C
:100680008AC08BF000018A6B0001805100017C035D
:10069000F3CF93F0F4CF94F00001935100018A2737
:1006A0000001945100018B23000E00018C23000EE9
:1006B00000018D230001825100017D03F3CF93F0EF
:1006C000F4CF94F00001935100018F270001945161
:1006D00000019023000E00019123000E00019223DF
:1006E0000001815100017E03F3CF93F0F4CF94F029
:1006F0000001935100018F270001945100019023C4
:10070000000E00019123000E00019223000182518E
:1007100000017E03F3CF93F0F4CF94F000019351E6
:100720000001846F000194510001856F0001866B08
:100730000001876B86C087F085C086F084C085F095
:100740000001846B0001845100018F270001855155
:10075000000190230001865100019123000187517F
:10076000000192238AC084F08BC085F08CC086F093
:100770008DC087F0190E06D00001D89087338633DC
:1007800085338433E82EF8D70001845100018F2788
:100790000001855100019023000186510001912341
:1007A00000018751000192238CC08DF08BC08CF02A
:1007B0008AC08BF000018A6B000189518EC084F0E1
:1007C0000001856B00018427000E8523820E000145
:1007D00084250001936FFF0E000185210001946FB5
:1007E00015D00001D8908F3790379137923700019C
:1007F0008DAF02D000018F810001D8908A378B37EE
:100800008C378D3700019307D8A09407000191AF72
:10081000E8D7000E0001896F00018DAF24D0FF0ED4
:1008200000018A150001846FFF0E00018B15000185
:10083000856FFF0E00018C150001866F7F0E000191
:100840008D150001876F00018451000185110001A1
:10085000861100018711D8A403D000018FA103D015
:10086000010E0001896F000189510001D8B423D025
:10087000010E00018F27000E902391239223000187
:1008800092A119D08FC084F090C085F091C086F0FD
:1008900092C087F0000187358733863385338433F0
:1008A00084C08FF085C090F086C091F087C092F030
:1008B0000001934B942B000194BF10D00001945180
:1008C00004E100019329D8A009D0000E00018F6F28
:1008D000000E906F800E916F7F0E2BD0000194BFA1
:1008E00007D00001945111E100019305D8B00DD05B
:1008F000000E00018F6F000E906F000E916F000EC2
:10090000926F000E0001886F15D093C08EF0FF0E1D
:1009100000018F17FF0E90177F0E9117000E921790
:1009200000018EA102D00001918F0001D8908E317C
:100930000001926F00018851000192138FC07CF07A
:1009400090C07DF091C07EF092C07FF012000CD07C
:10095000670E0001936F010E04D0720E0001936FB9
:10096000010E0001946F08D000019151000AD8B423
:10097000EFD7010AD8B4F1D7000120EE02F093516D
:10098000D9269451DA2291C0DFFFB1D0350E000193
:10099000866F000E0001876F020E0001886F030E44
:1009A0000001896F2EEC93F0350E0001866F000E6A
:1009B0000001876F030E0001886F030E0001896F2D
:1009C0002EEC93F0350E0001866F000E0001876F4C
:1009D000050E0001886F030E0001896F2EEC93F065
:1009E000350E0001866F000E0001876F040E0001B6
:1009F000886F000E0001896F2EEC93F0000120EE4D
:100A000003F09351D9269451DA22C70EDE6E0F0EF1
:100A1000DD6E000120EE06F09351D9269451DA22C2
:100A2000C60EDE6E0F0EDD6E000120EE09F0935152
:100A3000D9269451DA22C90E56D0A50E0001866F30
:100A4000010E0001876F070E0001886F030E000181
:100A5000896F2EEC93F0A50E0001866F010E000148
:100A6000876F060E0001886F030E0001896F2EEC60
:100A700093F0A50E0001866F010E0001876F040E32
:100A80000001886F030E0001896F2EEC93F0A50E14
:100A90000001866F010E0001876F050E0001886F4F
:100AA000000E0001896F2EEC93F0000120EE03F0A0
:100AB0009351D9269451DA226D0EDE6E0F0EDD6E43
:100AC000000120EE06F09351D9269451DA226C0EE3
:100AD000DE6E0F0EDD6E000120EE09F09351D92677
:100AE0009451DA226F0EDE6E0F0EDD6E09D000011A
:100AF0009151000AD8B44AD7010AD8A412009DD750
:100B0000000120EE06F09351D9269451DA22DECF6F
:100B100060F0DDCF61F0050E0001626F000E000194
:100B2000636F42ECAFF09CD0000120EE06F09351D1
:100B3000D9269451DA22DECF60F0DDCF61F0040EC9
:100B40000001626F000E0001636F42ECAFF0000124
:100B500020EE03F09351D9269451DA22DECF60F0D3
:100B6000DDCF61F0060E0001626F000E0001636FC1
:100B700042ECAFF084D0000120EE06F09351D9266C
:100B80009451DA22DECF60F0DDCF61F0040E000177
:100B9000626F000E0001636F42ECAFF0000120EEC7
:100BA00003F09351D9269451DA22DECF60F0DDCFE5
:100BB00061F0060E0001626F010E0001636F42ECEE
:100BC000AFF05DD0000120EE06F09351D92694518C
:100BD000DA22DECF60F0DDCF61F0040E0001626F3B
:100BE000010E0001636F42ECAFF0000120EE03F054
:100BF0009351D9269451DA22DECF60F0DDCF61F037
:100C0000060E0001626F000E0001636F42ECAFF050
:100C100036D0000120EE06F09351D9269451DA2205
:100C2000DECF60F0DDCF61F0040E0001626F010ED7
:100C30000001636F42ECAFF0000120EE03F093512E
:100C4000D9269451DA22DECF60F0DDCF61F0060EB6
:100C50000001626F010E0001636F42ECAFF00FD034
:100C600000019251000AD8B45FD7010AD8B483D7E3
:100C7000030AD8B4A7D7010AD8A41200CAD7000122
:100C800020EE06F09351D9269451DA22DECF60F09F
:100C9000DDCF61F0070E0001626F000E0001636F8F
:100CA00042ECAFF0000120EE06F09351D9269451AA
:100CB000DA22DECF60F0DDCF61F0060E0001626F58
:100CC000000E0001636F42ECAFF08DC06DF08EC07E
:100CD0006EF08FC06FF090C070F0FAEC9AF093C095
:100CE00060F094C061F0D3ECB4F004D09F860BD0D8
:100CF000A58E09D000019151000AD8B4F7D7010A96
:100D0000D8A41200F5D793C060F094C061F066ECEF
:100D1000B4F093C0D9FF94C0DAFF000EDF6E00017B
:100D200020EE06F09351D9269451DA22DECF6BF0F3
:100D3000DDCF6CF0000E00016D6F030E00016E6FD1
:100D40000BECB5F0000120EE06F09351D92694513A
:100D5000DA22DECF60F0DDCF61F0050E0001626FB8
:100D6000010E0001636F42ECAFF01200000163510D
:100D7000800B00016C6F0001635163250001776FE8
:100D8000000162AF02D000017781000177510001BC
:100D9000D8B412D000017729D8A409D0000E0001E0
:100DA000606F000E616F000E626F000E636F0001D6
:100DB000628F000E000108D0000E0001606F000E6F
:100DC000616F000E626F000E636F00016751800B50
:100DD00000016C1B0001675167250001786F00015D
:100DE00066AF02D000017881000178510001D8B4CB
:100DF00012D000017829D8A409D0000E0001646F38
:100E0000000E656F000E666F000E676F0001668F43
:100E1000000E000108D0000E0001646F000E656F27
:100E2000000E666F000E676F0001645100016511CE
:100E30000001661100016711D8A417D0000E00014F
:100E4000606F000E616F000E626F000E636F000135
:100E5000800E62137F0E631360C060F061C061F0AA
:100E600062C062F063C063F01200000177510001BC
:100E7000D8A412D0000E0001606F000E616F000E4A
:100E8000626F000E636F60C060F061C061F062C0AD
:100E900062F063C063F01200000178510001686FD6
:100EA000696B0001681F691F684B692B000177514E
:100EB00000016A6F6B6B0001685100016A27000135
:100EC000695100016B237F0E00016A250001716FDB
:100ED000000E00016B210001726F60C06DF061C0F7
:100EE0006EF062C06FF063C070F0000E0001606FC2
:100EF000000E616F000E626F000E636F000E000146
:100F0000736F000E746F000E756F000E766F000E1B
:100F10000001786F42D0000178510001D8B417D099
:100F20000001D8906D376E376F3770370001D89059
:100F30006037613762376337000176AF02D0000156
:100F400060810001D89073377437753776370001A8
:100F5000645100016D5D0001655100016E59000191
:100F6000665100016F590001675100017059D8A006
:100F700012D00001768D0001645100016D5F000107
:100F8000655100016E5B0001665100016F5B00015D
:100F900067510001705B0001782B190E0001786524
:100FA000BAD700016D5100016E1100016F110001EF
:100FB0007011D8B418D00001738115D00001D890F9
:100FC0006037613762376337000176AF02D00001C6
:100FD00060810001D8907337743775377637000118
:100FE0007107D8A07207000162AFE8D7000E0001B8
:100FF000786F000176AF24D0FF0E00017315000159
:10100000686FFF0E000174150001696FFF0E00018B
:10101000751500016A6F7F0E0001761500016B6F78
:10102000000168510001691100016A1100016B1192
:10103000D8A403D0000160A103D0010E0001786F95
:10104000000178510001D8B423D0010E00016027BF
:10105000000E612362236323000163A119D060C0E5
:1010600068F061C069F062C06AF063C06BF00001B3
:101070006B356B336A336933683368C060F069C0BD
:1010800061F06AC062F06BC063F00001714B722BBB
:10109000000172BF14D00001725104E100017129F6
:1010A000D8A00DD0000E0001726F7169000E000112
:1010B000606F000E616F000E626F000E636F0001C3
:1010C00072BF07D00001725115E100017105D8B05F
:1010D00011D0000E0001726F000E716F000E000142
:1010E000606F000E616F000E626F000E636F000E86
:1010F00000016C6F71C077F0000177A103D000018F
:10110000628F02D00001629F0001D8907731000108
:10111000636F00016C510001631360C060F061C037
:1011200061F062C062F063C063F01200080E00015B
:101130006F2500016C6F000E0001702100016D6FC2
:10114000000E00016E6F08ECB3F00001866F000125
:1011500086510001726F736B0E0ED89000017237CA
:101160007337E82EFAD7000186510001746F756B52
:101170000C0ED890000174377537E82EFAD70001AD
:1011800086510001766F776B0A0ED8900001763792
:101190007737E82EFAD7000186510001796F786B16
:1011A0000001865100017A6F7B6B060ED89000011A
:1011B0007A377B37E82EFAD70001865100017C6F21
:1011C0007D6B00017C3B7D3BF00E7D177C510F0B4E
:1011D0007D13F00E7C170001865100017E6F7F6B3E
:1011E0000001D8907E377F370001D8907E377F3757
:1011F000000186510001806F816B00017E5100016A
:10120000801300017F510001811300017C51000116
:10121000801300017D510001811300017A5100010A
:10122000801300017B5100018113000178510001FE
:1012300080130001795100018113000176510001F2
:1012400080130001775100018113000174510001E6
:1012500080130001755100018113000172510001DA
:1012600080110001826F00017351000181110001A2
:10127000836F86C084F00001856B080E00016F2526
:1012800000016C6F000E0001702100016D6F010EF6
:1012900000016E6F08ECB3F00001726F736B000118
:1012A000D890723773370001D890723773370001C6
:1012B0007251000184130001735100018513080E5F
:1012C00000016F2500016C6F000E0001702100010C
:1012D0006D6F020E00016E6F08ECB3F00001726FCB
:1012E000736B0001723B733BF00E731772510F0B5F
:1012F0007313F00E72170001725100018413000184
:10130000735100018513080E00016F2500016C6FF9
:10131000000E0001702100016D6F030E00016E6F61
:1013200008ECB3F00001726F736B060ED8900001E9
:1013300072377337E82EFAD7000172510001841317
:101340000001735100018513080E00016F25000193
:101350006C6F000E0001702100016D6F040E000122
:101360006E6F08ECB3F00001726F00017251000162
:10137000746F736B00017351000184130001745189
:1013800000018513080E00016F2500016C6F000E2F
:101390000001702100016D6F050E00016E6F08ECF9
:1013A000B3F00001726F736B0A0ED89000017237B0
:1013B0007337E82EFAD7000172510001841300013F
:1013C000735100018513080E00016F2500016C6F39
:1013D000000E0001702100016D6F060E00016E6F9E
:1013E00008ECB3F00001726F736B0C0ED890000123
:1013F00072377337E82EFAD7000172510001841357
:101400000001735100018513080E00016F250001D2
:101410006C6F000E0001702100016D6F070E00015E
:101420006E6F08ECB3F00001726F736B0E0ED89004
:10143000000172377337E82EFAD7000172510001AC
:1014400084130001735100018513000184510001D0
:10145000821948E10001855100018319D8A41200C6
:1014600032D0000120EE02F06F51D9267051DA22FD
:10147000DECF60F0DDCF61F071C062F047ECB6F016
:1014800012000001711F000120EE02F06F51D926F9
:101490007051DA22DECF60F0DDCF61F071C062F012
:1014A00047ECB6F01200000120EE04F06F51D9268F
:1014B0007051DA22DECF60F0DDCF61F071C062F0F2
:1014C00047ECB6F0120000018651000AD8B41200B1
:1014D000010AD8B4C6D7030AD8B4D3D7010AD8A40E
:1014E0001200E1D712000001C1510001C211000138
:1014F000C3110001C411D8A40AD0000E0001C16FAD
:10150000000EC26F800EC36F3F0EC46F1200180E24
:101510000001606F720E616F310E626F440E636F77
:10152000C1C064F0C2C065F0C3C066F0C4C067F05B
:1015300041EC97F00001D8B00FD0000E01011C6FF4
:10154000220E1B6FFF0E0001C16FFF0EC26F7F0ED8
:10155000C36F7F0EC46F1200C1C060F0C2C061F0E3
:10156000C3C062F0C4C063F0870E0001646F480E10
:10157000656F3A0E666FC40E676F41EC97F000011D
:10158000D8B00FD0000E01011C6F220E1B6F000E91
:101590000001C16F000EC26F000EC36F000EC46F5A
:1015A00012000001C4AF02D0010E01D0000E0001F4
:1015B000CB6F0001CB510001D8B412D0C1C07CF078
:1015C000C2C07DF0C3C07EF0C4C07FF081ECB3F038
:1015D0007CC0C1F07DC0C2F07EC0C3F07FC0C4F04B
:1015E000C1C07CF0C2C07DF0C3C07EF0C4C07FF03B
:1015F0003B0E0001806FAA0E816FB80E826F3F0E06
:10160000836F54EC82F07CC0C1F07DC0C2F07EC01C
:10161000C3F07FC0C4F0C1C0B3F0C2C0B4F0C3C057
:10162000B5F0C4C0B6F013EC9EF0B3C0C5F0B4C0C2
:10163000C6F0B5C0C7F0B6C0C8F0C5C0A9F0C6C0F6
:10164000AAF0C7C0ABF0C8C0ACF031EC9FF0A9C0A5
:10165000C9F0AAC0CAF0C1C0A9F0C2C0AAF0C3C0F4
:10166000ABF0C4C0ACF0C9C06EF0CAC06FF00001EE
:10167000000E6FBFFF0E706F716F010E47EC92F09E
:101680006EC0ADF06FC0AEF070C0AFF071C0B0F022
:101690004FECB1F0A9C0C1F0AAC0C2F0ABC0C3F01A
:1016A000ACC0C4F0C1C0A9F0C2C0AAF0C3C0ABF0C6
:1016B000C4C0ACF0AF0E0001AD6FFE0E0001AE6F06
:1016C000000E0001B06F090EAF6FA5EC9EF0A9C02F
:1016D000B9F0AAC0BAF0ABC0BBF0ACC0BCF0C9C096
:1016E000BDF0CAC0BEF081EC9DF0B9C0C1F0BAC077
:1016F000C2F0BBC0C3F0BCC0C4F00001CB510001BC
:10170000D8B435D00001C12916E10001C22913E186
:101710007F0E0001C3190FE17F0E0001C419D8A488
:101720000AD0000E0001C16F000EC26F000EC36F21
:10173000000EC46F1200000E0001606F000E616F9A
:10174000800E626F3F0E636FC1C064F0C2C065F06F
:10175000C3C066F0C4C067F0B6EC86F060C0C1F0EC
:1017600061C0C2F062C0C3F063C0C4F01200C1C067
:10177000C1F0C2C0C2F0C3C0C3F0C4C0C4F0120004
:101780000001606F7ED03F0E1200060E12005B0E4D
:1017900012004F0E1200660E12006D0E12007D0E2A
:1017A0001200070E12007F0E12006F0E12005F0E65
:1017B00012007C0E1200580E12005E0E12007B0EFC
:1017C0001200710E12006F0E1200740E1200040E41
:1017D00012000E0E12007A0E1200060E1200140EE7
:1017E0001200540E12005C0E1200730E1200670EEF
:1017F0001200500E12006D0E1200780E12001C0E18
:101800001200620E12002A0E1200640E12006E0EFA
:1018100012005B0E1200770E12007F0E1200390EBE
:1018200012003F0E1200790E1200710E12003D0ED2
:101830001200760E1200060E12001E0E1200570E37
:101840001200380E1200760E1200760E12003F0EB5
:101850001200730E12003F0E1200770E12006D0E72
:101860001200310E12003E0E12003E0E12007E0ECD
:101870001200760E1200660E12005B0E1200800E31
:101880001200000160512E0AD8B4F9D71E0AD8B44C
:101890007AD7010AD8B479D7030AD8B478D7010A1D
:1018A000D8B477D7070AD8B476D7010AD8B475D791
:1018B000030AD8B474D7010AD8B473D70F0AD8B4BE
:1018C00072D7010AD8B471D7780AD8B4A4D7030A5A
:1018D000D8B4A3D7010AD8B4A2D7070AD8B4A1D7DD
:1018E000010AD8B4A0D7030AD8B49FD7010AD8B444
:1018F0009ED70F0AD8B49DD7010AD8B49CD7030A43
:10190000D8B49BD7010AD8B49AD7070AD8B499D7C4
:10191000010AD8B498D7030AD8B497D7010AD8B423
:1019200096D71F0AD8B495D7010AD8B494D7030A1A
:10193000D8B493D7010AD8B492D7070AD8B491D7AC
:10194000010AD8B490D7030AD8B48FD7010AD8B403
:101950008ED70F0AD8B48DD7010AD8B48CD7030A12
:10196000D8B48BD73B0AD8B422D7030AD8B421D72E
:10197000010AD8B420D7070AD8B41FD7010AD8B4AF
:101980001ED7030AD8B41DD7010AD8B41CD70F0A32
:10199000D8B41BD7010AD8B41AD7030AD8B419D7B8
:1019A000010AD8B418D7070AD8B417D7010AD8B48F
:1019B00016D7030AD8B415D7010AD8B414D71F0A0A
:1019C000D8B413D7010AD8B412D7030AD8B411D7A0
:1019D000010AD8B410D7070AD8B40FD7010AD8B46F
:1019E0000ED7030AD8B40DD7010AD8B40CD70F0A02
:1019F000D8B40BD7010AD8B40AD7030AD8B409D788
:101A0000000E1200050E00019A6FC7D0000120EEF3
:101A100002F09651D9269751DA22DECF6BF0DDCF56
:101A20006CF098C06DF00F0E00016E6F0BECB5F00E
:101A3000000120EE04F09651D9269751DA22DECF2C
:101A40006BF0DDCF6CF098C06DF0000E00016E6F92
:101A50000BECB5F0B0D096C08FF097C090F098C066
:101A600091F0030E0001926F32ECB0F000019A6F1A
:101A700000019A51D8A41200000120EE02F0965104
:101A8000D9269751DA22DECF6BF0DDCF6CF098C00B
:101A90006DF0000E00016E6F0BECB5F0000120EE52
:101AA00004F09651D9269751DA22DECF6BF0DDCFC4
:101AB0006CF098C06DF0000E00016E6F0BECB5F08D
:101AC0007AD096C08FF097C090F098C091F0030E36
:101AD0000001926F32ECB0F000019A6F00019A5150
:101AE000D8A41200000120EE02F09651D926975199
:101AF000DA22DECF6BF0DDCF6CF098C06DF00F0E08
:101B000000016E6F0BECB5F0000120EE04F0965171
:101B1000D9269751DA22DECF6BF0DDCF6CF098C07A
:101B20006DF00F0E00016E6F0BECB5F044D096C057
:101B30008FF097C090F098C091F0030E0001926F63
:101B400032ECB0F000019A6F00019A51D8A4120053
:101B5000000120EE02F09651D9269751DA22DECF0D
:101B60006BF0DDCF6CF098C06DF0000E00016E6F71
:101B70000BECB5F0000120EE04F09651D9269751F8
:101B8000DA22DECF6BF0DDCF6CF098C06DF0000E86
:101B900000016E6F0BECB5F00ED000019951000AF8
:101BA000D8B434D7010AD8B456D7030AD8B489D7E1
:101BB000010AD8B4BCD7080E0001962500016F6F4A
:101BC000000E000197210001706F00019851040D73
:101BD000F3CF71F099C072F002ECB2F0080E000180
:101BE000962500016F6F000E000197210001706FB4
:101BF00000019851040DF3280001716F99C072F033
:101C000002ECB2F0080E0001962500016F6F000E85
:101C1000000197210001706F00019851040DF350ED
:101C2000020F0001716F99C072F002ECB2F0080E61
:101C30000001962500016F6F000E00019721000141
:101C4000706F00019851040DF350030F0001716F84
:101C500099C072F002ECB2F01200050E00019F6F05
:101C60007AD0000120EE02F09A51D9269B51DA2257
:101C7000DECF9DF0DDCF9EF09DC0D9FF9EC0DAFF84
:101C8000FF0E67D09AC096F09BC097F0010E00013E
:101C9000986F73ECB1F000019F6F00019F51D8A4C1
:101CA0001200000120EE02F09A51D9269B51DA224F
:101CB000DECF9DF0DDCF9EF09DC0D9FF9EC0DAFF44
:101CC000000EDF6E000120EE04F036D09AC096F0D0
:101CD0009BC097F0020E0001986F73ECB1F0000109
:101CE0009F6F00019F51D8A41200000120EE02F066
:101CF0009A51D9269B51DA22DECF9DF0DDCF9EF09E
:101D00009DC0D9FF9EC0DAFFFF0EDF6E000120EEFE
:101D100004F0AAD79AC096F09BC097F0000E00017D
:101D2000986F73ECB1F000019F6F00019F51D8A430
:101D30001200000120EE02F09A51D9269B51DA22BE
:101D4000DECF9DF0DDCF9EF09DC0D9FF9EC0DAFFB3
:101D5000000EDF6E0ED000019C51000AD8B481D76E
:101D6000010AD8B48FD7030AD8B4B0D7010AD8B4BF
:101D7000D1D7080E00019A2500016F6F000E0001F7
:101D80009B210001706F000E0001716F9CC072F00A
:101D900002ECB2F0080E00019A2500016F6F000EF0
:101DA00000019B210001706F010E0001716F9CC04A
:101DB00072F002ECB2F0080E00019A2500016F6F7C
:101DC000000E00019B210001706F020E0001716F77
:101DD0009CC072F002ECB2F0080E00019A250001DE
:101DE0006F6F000E00019B210001706F030E000158
:101DF000716F9CC072F002ECB2F0080E00019A25DF
:101E000000016F6F000E00019B210001706F040E36
:101E10000001716F9CC072F002ECB2F0080E00017C
:101E20009A2500016F6F000E00019B210001706F69
:101E3000050E0001716F9CC072F002ECB2F0080E4A
:101E400000019A2500016F6F000E00019B21000127
:101E5000706F060E0001716F9CC072F002ECB2F060
:101E6000080E00019A2500016F6F000E00019B21F2
:101E70000001706F070E0001716F9CC072F002ECE0
:101E8000B2F012000001FC51D8B41200ECC186F08F
:101E9000EDC187F0EEC188F0EFC189F00001F95182
:101EA000D8B405D0F7C085F00F0E0001F76F000E13
:101EB00000018B6FDFD000018B51020D000EF32467
:101EC000D96E020EF420DA6EDECFFAF0DDCFFBF031
:101ED000000E00018A6F130E00018A6501D0BED08A
:101EE00000018B51140D7B0E0001836F020E000167
:101EF000846FF35000018327F45000018423000114
:101F00008A51010DF35000018325D96EF450000170
:101F10008421DA6EDFAE9AD000018B51140D7B0E56
:101F20000001836F020E0001846FF35000018327CC
:101F3000F4500001842300018A51010DF350000187
:101F40008325D96EF45000018421DA6E7F0EDF16EE
:101F500000018B51140D7B0E0001836F020E0001F6
:101F6000846FF35000018327F450000184230001A3
:101F70008A51010DF35000018325D96EF450000100
:101F80008421DA6EDF50D8B44AD0ECC069F0EDC0DD
:101F90006AF086C06BF087C06CF088C06DF089C0B5
:101FA0006EF0F4C16FF0F5C170F0F6C171F0F7C1D9
:101FB00072F063ECADF000018B51140D7B0E00014B
:101FC000836F020E0001846FF35000018327F450E9
:101FD0000001842300018A51010DF3500001832583
:101FE000D96EF45000018421DA6EDF50E4ECA1F0E8
:101FF00065C072F066C073F086C074F087C075F07B
:1020000088C076F089C077F0F4C178F0F5C179F036
:10201000F6C17AF0F7C17BF054ECA8F017D0000EAF
:1020200000016A6F000E696F86C06BF087C06CF0AC
:1020300088C06DF089C06EF0F4C16FF0F5C170F02A
:10204000F6C171F0F7C172F063ECADF0060E00015D
:102050008627000E872300018A2B3DD7080E00013A
:102060008827000E8923000E0001876F060E866FF9
:1020700000018B2B00018B510001F75DD8B01BD7FD
:102080000001F951D8B41200000E0001F96F85C0AB
:10209000F7F01200000E0201766F0001CC51000132
:1020A000CD110001CE110001CF11D8A425D0000E12
:1020B0000001606F000E616F000E626F000E636FB3
:1020C000D0C064F0D1C065F0D2C066F0D3C067F074
:1020D00041EC97F00001D8A005D0000E01011C6F63
:1020E000210E1B6F000E0001CC6F000ECD6F000E95
:1020F000CE6F000ECF6F12000001D0510001D11140
:102100000001D2110001D311D8A40AD0000E0001A1
:10211000CC6F000ECD6F800ECE6F3F0ECF6F1200D2
:102120000001CFAF58D0D0C0A9F0D1C0AAF0D2C022
:10213000ABF0D3C0ACF031EC9FF0A9C077F2AAC0ED
:1021400078F2ABC079F2ACC07AF277C26EF078C2A6
:102150006FF079C270F07AC271F0000E47EC92F025
:102160000001D05100016E1910E10001D1510001B0
:102170006F190BE10001D2510001701906E1000155
:10218000D35100017119D8B40FD0000E01011C6F9A
:10219000210E1B6F000E0001CC6F000ECD6F000EE4
:1021A000CE6F000ECF6F120002017751010B0201BA
:1021B000766FCCC07CF0CDC07DF0CEC07EF0CFC0BD
:1021C0007FF081ECB3F07CC0CCF07DC0CDF07EC060
:1021D000CEF07FC0CFF0CCC0B9F0CDC0BAF0CEC049
:1021E000BBF0CFC0BCF009EC98F0B9C06EF2BAC039
:1021F0006FF2BBC070F2BCC071F26EC27CF06FC2F5
:102200007DF070C27EF071C27FF0D0C080F0D1C08E
:1022100081F0D2C082F0D3C083F054EC82F07CC055
:1022200072F27DC073F27EC074F27FC075F272C22A
:10223000C1F073C2C2F074C2C3F075C2C4F073ECD3
:102240008AF0C1C0CCF0C2C0CDF0C3C0CEF0C4C0D3
:10225000CFF0020176510201D8B413D0CCC07CF08B
:10226000CDC07DF0CEC07EF0CFC07FF081ECB3F06A
:102270007CC0CCF07DC0CDF07EC0CEF07FC0CFF072
:102280001200CCC0CCF0CDC0CDF0CEC0CEF0CFC0CF
:10229000CFF012005D0E00019B6F010E00019C6FDC
:1022A000000E00019E6F020E9D6F2E0E00019F6FAB
:1022B0006D0E0001A06F010E0001A16FB60E0001AE
:1022C000A26F6B0E0001A36F010E0001A46F040E3C
:1022D0000001A56F140E0001A66F000E0001A76F8C
:1022E0007AECA1F03F0E00019B6F010E00019C6F84
:1022F000000E00019E6F020E9D6F2E0E00019F6F5B
:102300006D0E0001A06F010E0001A16F160E0001FD
:10231000A26F6C0E0001A36F010E0001A46F040EEA
:102320000001A56F140E0001A66F000E0001A76F3B
:102330007AECA1F0350E00019B6F010E00019C6F3D
:10234000000E00019E6F020E9D6F2E0E00019F6F0A
:102350006D0E0001A06F010E0001A16FFE0E0001C5
:10236000A26F6B0E0001A36F010E0001A46F040E9B
:102370000001A56F140E0001A66F000E0001A76FEB
:102380007AECA1F0490E00019B6F010E00019C6FD9
:10239000000E00019E6F020E9D6F2E0E00019F6FBA
:1023A0006D0E0001A06F010E0001A16FE60E00018D
:1023B000A26F6B0E0001A36F010E0001A46F040E4B
:1023C0000001A56F140E0001A66F000E0001A76F9B
:1023D0007AECA1F0530E00019B6F010E00019C6F7F
:1023E000000E00019E6F020E9D6F2E0E00019F6F6A
:1023F0006D0E0001A06F010E0001A16FCE0E000155
:10240000A26F6B0E0001A36F010E0001A46F040EFA
:102410000001A56F140E0001A66F000E0001A76F4A
:102420007AECA1F0A00E00018D6F860E8E6F010E6A
:102430008F6F000E906F000E0001916F020E000171
:10244000926FA7EC84F0670E00016F6F010E000120
:10245000706F29ECADF0000E0001A96F000EA86F9F
:102460000001A95113E1080E0001A85DD8B01200C7
:102470002D0E0001A825D96E010E0001A921DA6EEA
:10248000000EDF6E0001A84BA92BEAD71200000155
:10249000766F000176510001D8B41ED0000171AFF3
:1024A0001BD06EC072F06FC073F070C074F071C05A
:1024B00075F00001721F731F741F751F722B000EC1
:1024C00073237423752372C078F073C079F074C0DD
:1024D0007AF075C07BF008D06EC078F06FC079F0EC
:1024E00070C07AF071C07BF000016E5100016F1175
:1024F0000001701100017111D8A40AD0000E000172
:102500006E6F000E6F6F000E706F000E716F120015
:10251000960E0001776F08D00001772B0001D8904C
:102520007B337A3379337833000E0001781500015C
:10253000726F000E000179150001736F000E00012B
:102540007A150001746FFE0E00017B150001756F96
:102550000001725100017311000174110001751125
:10256000D8B410D0D9D70001772B010E00017827FD
:10257000000E79237A237B230001D8907B337A33B2
:1025800079337833000E000178150001726F000E68
:10259000000179150001736F000E00017A1500012A
:1025A000746FFF0E00017B150001756F0001725101
:1025B000000173110001741100017511D8B409D024
:1025C000D2D7000177070001D890783779377A376A
:1025D0007B3700017ABF04D0020E00017761F1D78A
:1025E000000177B109D0FF0E00017817FF0E7917AF
:1025F0007F0E7A17FF0E7B170001D890773377C0D4
:1026000072F00001736B746B756B72C075F0000132
:10261000746B736B726B00017251000178130001CF
:102620007351000179130001745100017A13000104
:10263000755100017B13000176510001D8B405D01B
:10264000000171AF02D000017B8F78C06EF079C0BD
:102650006FF07AC070F07BC071F0120086C0D9FFB5
:1026600087C0DAFFDECF8BF0DDCF8CF0050E0001E6
:102670008A6FB5D0000120EE02F08651D92687512D
:10268000DA22DECF60F0DDCF61F088C062F0010EAB
:102690000001636F42ECAFF0B0D08BC06FF08CC024
:1026A00070F0010E0001716F88C072F0C3ECABF0E6
:1026B00000018A6F00018A51D8A41200000120EEA7
:1026C00002F08651D9268751DA22DECF60F0DDCFC5
:1026D00061F088C062F0000E0001636F42ECAFF061
:1026E000000120EE04F08651D9268751DA22DECF90
:1026F00060F0DDCF61F088C062F0000E0001636F12
:1027000042ECAFF07AD08BC06FF08CC070F0020E4C
:102710000001716F88C072F0C3ECABF000018A6FEA
:1027200000018A51D8A41200000120EE02F0865167
:10273000D9268751DA22DECF60F0DDCF61F088C084
:1027400062F0010E0001636F42ECAFF0000120EE79
:1027500004F08651D9268751DA22DECF60F0DDCF32
:1027600061F088C062F0010E0001636F42ECAFF0CF
:1027700044D08BC06FF08CC070F0000E0001716F00
:1027800088C072F0C3ECABF000018A6F00018A517F
:10279000D8A41200000120EE02F08651D9268751FC
:1027A000DA22DECF60F0DDCF61F088C062F0000E8B
:1027B0000001636F42ECAFF0000120EE04F086519F
:1027C000D9268751DA22DECF60F0DDCF61F088C0F4
:1027D00062F0000E0001636F42ECAFF00ED000011A
:1027E0008951000AD8B446D7010AD8B456D7030A8B
:1027F000D8B489D7010AD8B4BCD7080E0001862501
:1028000000016F6F000E000187210001706F88C00A
:1028100071F089C072F002ECB2F0120075ECAEF00B
:10282000AAECA5F0010EE9ECB2F00009D8B496D0FC
:10283000D6ECAFF0FC0E00017B6FFF0E00017C6F49
:10284000000E00017E6F230E7D6F78EC96F02DEC6C
:10285000B5F0F80E0001616F000E606F84ECB6F009
:102860000CD04CECA2F01ED0FBECAAF01BD05AEC22
:102870009CF018D069ECB2F015D029C1D4F02AC16F
:10288000D5F00001D551000AD8A4F4D70001D451E5
:10289000010AD8B4E6D7030AD8B4E6D7010AD8B4F7
:1028A000E6D7E8D742EC8FF0DF0E0001956F010EFE
:1028B0000001966FA3ECA0F095C000F196C001F165
:1028C00097C002F198C003F1CD0E0001D06FCC0E7D
:1028D000D16F8C0ED26FBF0ED36F00C1CCF001C18F
:1028E000CDF002C1CEF003C1CFF04AEC90F0CCC0E5
:1028F000FCF1CDC0FDF1CEC0FEF1CFC0FFF1000E66
:102900000001806F000E816F7C0E826F420E836F1C
:10291000FCC17CF0FDC17DF0FEC17EF0FFC17FF007
:1029200054EC82F07CC0A9F07DC0AAF07EC0ABF070
:102930007FC0ACF031EC9FF0A9C025F1AAC026F110
:1029400025C176F026C177F0A9ECB4F027ECB3F0FE
:10295000A6ECB5F00009D8A4CAECB2F0080EE9EC78
:10296000B2F00009D8A40DD05BD794ECB4F020D01D
:1029700006ECB4F01DD010ECAFF01AD0B2ECA2F01F
:1029800017D029C1D4F02AC1D5F00001D551000AD1
:10299000D8A40ED00001D451000AD8B4E6D7010A59
:1029A000D8B4E6D7030AD8B4E6D7010AD8B4E6D734
:1029B000A6ECB5F00009D8B433D7CAECB2F030D7E2
:1029C0000001796FB1D0F7ECA8F0120004ECB0F080
:1029D00012002AECAAF0120079ECA3F01200DDEC50
:1029E000AEF0120088ECB5F0120079C076F07F0EE0
:1029F000000176170001F751140D7B0E0001776F6F
:102A0000020E0001786FF35000017727F4500001A7
:102A100078230001F851010DF35000017725D96E9C
:102A2000F45000017821DA6EDF507F0B0001761937
:102A3000D8B42ED0010E0001FC6F0001F751140D27
:102A40007B0E0001766F020E0001776FF3500001DC
:102A50007627F450000177230001F851010DF3505F
:102A600000017625D96EF45000017721DA6E00015D
:102A700079518009DF6E0001F751020D000EF32439
:102A8000D96E020EF420DA6EFAC0DEFFFBC0DDFF65
:102A9000DDECAEF00009D8B4120079C076F07F0EFC
:102AA000000176170001F751140D7B0E0001776FBE
:102AB000020E0001786FF35000017727F4500001F7
:102AC00078230001F851010DF35000017725D96EEC
:102AD000F45000017821DA6EDF507F0B0001761987
:102AE000D8B41200010E0001FC6F0001F751140D63
:102AF0007B0E0001766F020E0001776FF35000012C
:102B00007627F450000177230001F851010DF350AE
:102B100000017625D96EF45000017721DA6E0001AC
:102B200079518009DF6E120000017951070AD8B48B
:102B300056D70F0AD8B44AD7010AD8B44DD7030ADA
:102B4000D8B441D7060AD8B444D7010AD8B43BD781
:102B50002D0AD8B44AD7030AD8B444D746D70001BF
:102B6000A251AEECA7F0A0C0D9FFA1C0DAFF0001CE
:102B700060C0DEFF000161C0DDFF0001A25101EC79
:102B8000A8F0000120EE06F0A051D926A151DA22CA
:102B9000000160C0DEFF000161C0DDFF0001A25145
:102BA00001ECA8F0000120EE04F0A051D926A151BB
:102BB000DA22000160C0DEFF000161C0DDFF00011C
:102BC000A2515BECA7F0000120EE02F0A051D92643
:102BD000A151DA22000160C0DEFF000161C0DDFF0B
:102BE000000120EE04F0A051D926A151DA22DECF57
:102BF000A3F0DDCFA4F0A3C0D9FFA4C0DAFF000E7C
:102C0000DF6E000120EE02F0A051D926A151DA2298
:102C1000DECFA3F0DDCFA4F0A3C0D9FFA4C0DAFFBC
:102C2000FF0EDF6EA0C09AF0A1C09BF0000E000165
:102C30009C6F2DEC8EF0000E0001A56F070E0001B9
:102C4000A56531D04BD0A0C086F0A1C087F0A5C04B
:102C500088F0030E0001896F2EEC93F03CD0A0C0E9
:102C600086F0A1C087F0A5C088F0020E0001896F30
:102C70002EEC93F030D0A0C086F0A1C087F0A5C0A4
:102C800088F0010E0001896F2EEC93F024D0A0C0D3
:102C900086F0A1C087F0A5C088F0000E0001896F02
:102CA0002EEC93F018D0A0C0D9FFA1C0DAFFDECF80
:102CB0006CF0DDCF6DF0A5C06EF008ECB3F0000A4B
:102CC000D8B4C1D7010AD8B4D6D7030AD8B4C7D765
:102CD000010AD8B4DCD70001A52BB0D7A0C06FF093
:102CE000A1C070F0000E0001716F96EC88F0120028
:102CF0007D0E0001826F000E0001836FB1D0250EA2
:102D000000018619D8B405D00001865155ECB6F003
:102D1000A7D0000E0001806F11D082C0D9FF83C000
:102D2000DAFFDF500001866F020E00018227000EDD
:102D300083230001865155ECB6F092D07BC0F6FF9C
:102D40007CC0F7FF00017B4B7C2B000EF86E080067
:102D5000F5CF86F000018651000AD8B41200630A4C
:102D6000D8B4DBD7070AD8B403D00D0AD8A4E1D76A
:102D700082C0D9FF83C0DAFFDECF84F0DDCF85F0DB
:102D8000020E00018227000E8323000185AF08D0C8
:102D9000030E000180130001846D851FD8B0852BC0
:102DA000010E0001866F050E00018619D8B419D0F6
:102DB00000018651020DB50EF324F66EFC0EF420D0
:102DC000F76EF86A000EF8220900F5500001845DE4
:102DD0000900F55000018559D8A003D00001862BC9
:102DE000E2D780C07FF0030E00017F17D8B403D074
:102DF0002D0E55ECB6F086C081F02CD0000181512B
:102E0000020DB50EF324F66EFC0EF420F76EF86A90
:102E1000000EF8220900F5CF62F00A00F5CF63F04A
:102E200084C060F085C061F03EECACF060C067F03B
:102E300061C068F0000E00016A6F0A0E696FA5ECB0
:102E4000AFF000016751300F0001866F000186511D
:102E500055ECB6F00001810700018129D8A4CED736
:102E60007BC0F6FF7CC0F7FF00017B4B7C2B000E84
:102E7000F86E0800F5CF86F000018651D8B4120034
:102E80003ED7000E000160150001686F000E0001C2
:102E900061150001696F800E0001621500016A6F03
:102EA0007F0E0001631500016B6F00016851000186
:102EB000691100016A1100016B11D8A409D0000E3C
:102EC0000001606F000E616F000E626F000E636F95
:102ED000000E000164150001686F000E0001651509
:102EE0000001696F800E0001661500016A6F7F0E98
:102EF0000001671500016B6F000168510001691145
:102F000000016A1100016B11D8A409D0000E000164
:102F1000646F000E656F000E666F000E676F000134
:102F200063AF26D060C068F061C069F062C06AF02B
:102F300063C06BF00001681F691F6A1F6B1F682B5D
:102F4000000E69236A236B23000E0001682500012F
:102F5000606F000E000169210001616F000E000129
:102F60006A210001626F800E00016B210001636F16
:102F7000000167AF26D064C068F065C069F066C024
:102F80006AF067C06BF00001681F691F6A1F6B1F42
:102F9000682B000E69236A236B23000E000168254D
:102FA0000001646F000E000169210001656F000ED1
:102FB00000016A210001666F800E00016B21000193
:102FC000676F000E0001601B000E611B000E621B8C
:102FD000800E631B000E0001641B000E651B000EBB
:102FE000661B800E671B000164510001605D0001DB
:102FF00065510001615900016651000162590001EB
:10300000675100016359D8B002D0D8901200D8801F
:1030100012000001BCAF0FD0000E01011C6F210E89
:103020001B6F000E0001B96F000EBA6F000EBB6F70
:10303000000EBC6F12000001B9510001BA1100016D
:10304000BB110001BC11D8A40FD0000E01011C6FF0
:10305000220E1B6F000E0001B96F000EBA6F000E3A
:10306000BB6F000EBC6F1200000E0001806F000EDF
:10307000816F000E826F400E836FBD0E0001646F82
:10308000000E0001656FB9C060F0BAC061F0BBC04E
:1030900062F0BCC063F0F4ECA4F060C07CF061C0EE
:1030A0007DF062C07EF063C07FF054EC82F07CC0A3
:1030B00095F07DC096F07EC097F07FC098F0000E2E
:1030C0000001996F000E9A6F800E9B6FBF0E9C6F70
:1030D00000EC80F095C0B9F096C0BAF097C0BBF094
:1030E00098C0BCF00001BD07D8A0BE07B9C0A9F0C8
:1030F000BAC0AAF0BBC0ABF0BCC0ACF0D70E0001A8
:10310000AD6FFE0E0001AE6F000E0001B06F080E35
:10311000AF6FA5EC9EF0A9C0B9F0AAC0BAF0ABC0E1
:10312000BBF0ACC0BCF0180E0001806F720E816F56
:10313000310E826F3F0E836FBDC06EF0BEC06FF068
:103140000001000E6FBFFF0E706F716F010E47EC34
:1031500092F06EC07CF06FC07DF070C07EF071C0E8
:103160007FF054EC82F07CC095F07DC096F07EC07C
:1031700097F07FC098F0B9C099F0BAC09AF0BBC080
:103180009BF0BCC09CF000EC80F095C0B9F096C0FC
:10319000BAF097C0BBF098C0BCF01200010E4A6EA6
:1031A000000E0001DA6F000E0001DB6F000E00015F
:1031B000DC6F640E0001A06F020E0001A16F000E13
:1031C0000001A26FAFEC95F0AF0E0001A06F010EF1
:1031D0000001A16F010E0001A26FAFEC95F0350E5A
:1031E0000001A06F000E0001A16F020E0001A26F8E
:1031F000AFEC95F0A50E0001A06F010E0001A16FCC
:10320000030E0001A26FAFEC95F09B0E0001A06FC2
:10321000010E0001A16F040E0001A26FAFEC95F04A
:10322000B90E0001A06F010E0001A16F050E000193
:10323000A26FAFEC95F0910E0001A06F010E00019E
:10324000A16F060E0001A26FAFEC95F0B90E000160
:10325000866F010E0001876F050E0001886F000E5A
:103260000001896F2EEC93F0AF0E0001966F010EF6
:103270000001976F000E0001986F000E0001996F1A
:1032800002EC8DF0B90E0001866F010E0001876F10
:10329000060E0001886F030E0001896F2EEC93F07B
:1032A000910E00019A6F010E00019B6F030E000149
:1032B0009C6F2DEC8EF0910E00016F6F010E0001DE
:1032C000706F040E0001716F000E0001726F17EC39
:1032D000A3F0B90E00016F6F010E0001706F060EB2
:1032E0000001716F010E0001726F17ECA3F0000E68
:1032F00074ECAFF0010E74ECAFF0000E9E6E000E99
:10330000A16E000EA46E9B8E9B8C000E0001616F5F
:10331000640E606F0BECAEF0D08E12009DECADF041
:10332000000E0001986F000E976F0001985106E1A2
:10333000590E0001975DD8B08BD001D089D0D890BC
:1033400000019735F66E00019835F76EE30EF6260C
:10335000FB0EF722F86A000EF8220900800EF5181D
:103360000900F510D8A422D0000198511FE1580E91
:103370000001975DD8B01AD00001974B982BD890D8
:1033800000019735F66E00019835F76EE30EF626CC
:10339000FB0EF722F86A000EF8220900F5CF60F064
:1033A0000A00F5CF61F00BECAEF04BD0D8900001E5
:1033B0009735F66E00019835F76EE30EF626FB0E94
:1033C000F722F86A000EF8220900000EF55E0900E7
:1033D000010EF55AD8A020D0000E0001636FD890DE
:1033E00000019735F66E00019835F76EE30EF6266C
:1033F000FB0EF722F86A000EF8220900F5CF95F0CF
:103400000900F5CF96F096C095F00001966B00018B
:1034100095511CECB5F015D0010E0001636FD890EA
:1034200000019735F66E00019835F76EE30EF6262B
:10343000FB0EF722F86A000EF8220800F5501CEC8B
:10344000B5F00001974B982B0001985101E170D71E
:10345000000E0001616F640E606F0BECAEF0000EA9
:103460000001636F290E1CECB5F0010E96ECA9F07B
:10347000000E0001616F640E606F0BECAEF0000E89
:1034800000016A6F000E696F5FECB0F0120000017E
:1034900020EE07F07B51D9267C51DA2201D80AD0E0
:1034A0000500FA6EDE50FD6EDE50FE6EDE50FF6EE1
:1034B000FA5012000001836F7BC0D9FF7CC0DAFF95
:1034C00000018351DE18D8A421D0000120EE01F0C4
:1034D0007B51D9267C51DA2200017D51DE5CD8B0C7
:1034E0000AD0000120EE01F07B51D9267C51DA226E
:1034F000000EDF6E1200000120EE01F07B51D92694
:103500007C51DA2200017D51DF5E1200000120EEC5
:1035100001F07B51D9267C51DA22DF5000017E6F09
:103520007F6B00017D5100017E27000E7F2300018B
:1035300020EE01F07B51D9267C51DA22DF500001C8
:10354000806F816B00017E510001805D000181511F
:10355000800A0001826F00017F51800A00018259B8
:10356000D8B01200000120EE01F07B51D9267C5129
:10357000DA2200017D51DF26000120EE02F07B51AE
:10358000D9267C51DA22000110EE01F07B51E126B0
:103590007C51E222E7500001806F816BDE50000118
:1035A000805DDE5000018159D8A012007BC0D9FF98
:1035B0007CC0DAFF83C0DFFF000120EE01F07B5109
:1035C000D9267C51DA22000EDF6E000120EE04F0D5
:1035D0007B51D9267C51DA2201D812000500FA6EFF
:1035E000DE50FD6EDE50FE6EDE50FF6EFA500001C2
:1035F00083511200000E0001766F6C0E776FDC0EA7
:10360000786F020E796F0001D8906D376E376F3783
:103610007037020E0001716FD89000017933783352
:10362000773376330001712FF7D776C060F077C01B
:1036300061F078C062F079C063F06DC064F06EC074
:1036400065F06FC066F070C067F039ECA4F060C040
:103650007AF061C07BF062C07CF063C07DF010D076
:10366000000E0001726F000E736F000E746F000E7B
:10367000756F0001F42B020E0001F46501D026D015
:103680007AC060F07BC061F07CC062F07DC063F006
:103690000001F451010DCC0EF324F66EFC0EF42063
:1036A000F76EF86A000EF8220800F5500001646F0A
:1036B000656B666B676B39ECA4F000016351000128
:1036C0006211CEE100016105D8B0CAD7CA5000012D
:1036D000F419FC0BF419CA6ECA8489ECB6F0000127
:1036E000F451010DCC0EF324F66EFC0EF420F76EAF
:1036F000F86A000EF8220800F5CFF3F0FF0E000183
:103700007A250101046FFF0E00017B210101056F85
:10371000FF0E00017C210101066FFF0E00017D21DB
:103720000101076F04C160F005C161F006C162F0DC
:1037300007C163F00001F3510001646F656B666BB4
:10374000676B39ECA4F0000160510001F46FF4C024
:10375000CBFF1200800E0001736F8D0E746F5B0E35
:10376000756F000E766FD59E00016D5100016E11D0
:1037700000016F1100017011D8B41200D596D59CCC
:10378000D59AD59873C060F074C061F075C062F0CE
:1037900076C063F06DC064F06EC065F06FC066F017
:1037A00070C067F039ECA4F060C077F061C078F0C9
:1037B00062C079F063C07AF00CD00001F62B020EE3
:1037C0000001F66501D02FD0070E0001F66501D08B
:1037D000120077C060F078C061F079C062F07AC002
:1037E00063F00001F651020D950EF324F66EFC0E07
:1037F000F420F76EF86A000EF8220900F5CF71F098
:103800000900F5CF72F071C064F072C065F000017C
:10381000666B676B39ECA4F000016351CEE10001E7
:103820006205D8B0CAD70001F651020D950EF324F7
:10383000F66EFC0EF420F76EF86A000EF82208000F
:10384000F5CFF5F0FF0E000177250101086FFF0E9F
:10385000000178210101096FFF0E000179210101AA
:103860000A6FFF0E00017A2101010B6F08C160F0A1
:1038700009C161F00AC162F00BC163F00001F551AA
:103880000001646F656B666B676B39ECA4F0000137
:10389000601F0001611F0001604B612BFF0E0001E2
:1038A0006025296EFF0E000161212A6E69ECB6F0D9
:1038B000D58E1200000E0001696F640E686FEF0E66
:1038C000010125250001606FFF0E01012621000185
:1038D000616F000E0001636FC80E626F9DECB3F064
:1038E00060C066F061C067F0DAECA3F0000166C06A
:1038F0006EF0000167C06FF00001000E6FBFFF0E99
:10390000706F716F010E47EC92F06EC0D6F06FC011
:10391000D7F070C0D8F071C0D9F0D6C060F0D7C071
:1039200061F0D8C062F0D9C063F0000E0001646F8E
:10393000000E656F340E666F430E676F41EC97F0B3
:103940000001D8A009D0000E0001D66F000ED76F7D
:10395000480ED86F430ED96F0001D9AF09D0000EC1
:103960000001D66F000ED76F480ED86F430ED96F87
:10397000290E00017B6FFF0E00017C6F78EC96F042
:10398000660E0001806F660E816FE60E826F3F0E3D
:10399000836FD6C07CF0D7C07DF0D8C07EF0D9C090
:1039A0007FF054EC82F07CC0A9F07DC0AAF07EC00C
:1039B000ABF07FC0ACF031EC9FF0A9C0B3F0AAC06F
:1039C000B4F0C10E00017B6FFF0E00017C6FB3C02D
:1039D0007DF0B4C07EF078EC96F0120050B2B7EFF4
:1039E0009FF0000120EE04F0E851D926E951DA22D7
:1039F000DF5048ECB2F00009D8B47AD0E8C0D9FF63
:103A0000E9C0DAFFDE50DE10D8B46DD0E8C0D9FFCF
:103A1000E9C0DAFF010EDBBE26D0010EDB5003E168
:103A2000DE04D8A020D0E8C0D9FFE9C0DAFFDE2844
:103A300004E17F0EDE18D8B407D0E8C0D9FFE9C092
:103A4000DAFFDE06000EDD5A9B0E00016F6F010EDD
:103A50000001706F000E0001716F010E0001726FA6
:103A600017ECA3F01FD0E8C0D9FFE9C0DAFFDE04ED
:103A700004E1800EDE18D8B407D0E8C0D9FFE9C051
:103A8000DAFFDE2A000EDD229B0E00016F6F010EB1
:103A90000001706F000E0001716F000E0001726F67
:103AA00017ECA3F09B0E00016F6F010E0001706F09
:103AB000010E0001716F010E0001726F17ECA3F08F
:103AC0009B0E00016F6F010E0001706F010E00016F
:103AD000716F000E0001726F17ECA3F0A6ECB5F049
:103AE00063ECB6F01200A6ECB5F094ECB6F0120060
:103AF000DDC060F0DEC061F0DFC062F04EECB6F019
:103B000012000001B9510001BA110001BB110001FE
:103B1000BC11D8A40AD0000E0001B96F000EBA6F14
:103B2000000EBB6F000EBC6F12000001BC517F0B7A
:103B30000001BF6FC06BD8900001BF37C0370001D4
:103B4000BF510001BD270001C0510001BE2300018B
:103B5000BBAF04D00001BF6BBF2B02D00001BF6B15
:103B60000001BF510001BD27000EBE230001BEAF02
:103B70000FD0000E01011C6F220E1B6F000E000102
:103B8000B96F000EBA6F000EBB6F000EBC6F120053
:103B90000001BEBF1ED00001BE05D8A01AD0000E85
:103BA00001011C6F220E1B6F0001BCAF09D0FF0E7C
:103BB0000001B96FFF0EBA6F7F0EBB6FFF0EE6D725
:103BC000FF0E0001B96FFF0EBA6F7F0EBB6F7F0E45
:103BD000DDD70001BE35BE310001C06F0001BD312F
:103BE0000001BF6F0001BC510001BF19800BBF195C
:103BF0000001BC6FBDC0BFF0010E0001BF17000186
:103C0000BF33BF330001BB510001BF197F0BBF1988
:103C10000001BB6FB9C0B9F0BAC0BAF0BBC0BBF00D
:103C2000BCC0BCF01200B3C060F0B4C061F0B5C05D
:103C300062F0B6C063F0BB0E0001646F000E0001BD
:103C4000656FF4ECA4F00001BCAF17D00001B6AF73
:103C50000AD0000E0001B36F000EB46F800EB56F76
:103C6000BF0EB66F1200000E0001B36F000EB46FEE
:103C7000000EB56F000EB66F12000001BC5105E1D9
:103C80001D0E0001BB5DD8A009D0B3C0B3F0B4C015
:103C9000B4F0B5C0B5F0B6C0B6F01200B3C0A9F02C
:103CA000B4C0AAF0B5C0ABF0B6C0ACF031EC9FF038
:103CB000A9C06EF0AAC06FF0ABC070F0ACC071F0DC
:103CC000010E47EC92F06EC0B7F06FC0B8F070C054
:103CD000B9F071C0BAF0B3C060F0B4C061F0B5C063
:103CE00062F0B6C063F0B7C064F0B8C065F0B9C0A8
:103CF00066F0BAC067F041EC97F00001D8B01CD074
:103D0000B7C095F0B8C096F0B9C097F0BAC098F0B7
:103D1000000E0001996F000E9A6F800E9B6FBF0E10
:103D20009C6F00EC80F095C0B3F096C0B4F097C0E3
:103D3000B5F098C0B6F01200B7C0B3F0B8C0B4F098
:103D4000B9C0B5F0BAC0B6F01200AFC0B1F0B0C0A3
:103D5000B2F00001D890B137B2370001D890B13736
:103D6000B237ADC0B3F0AEC0B4F00001B151000144
:103D7000B3270001B2510001B423B3C0F6FFB4C0B1
:103D8000F7FF000EF86E0900F5CFB5F00900F5CF8A
:103D9000B6F00900F5CFB7F00A00F5CFB8F052D071
:103DA000B5C080F0B6C081F0B7C082F0B8C083F073
:103DB000A9C07CF0AAC07DF0ABC07EF0ACC07FF0A3
:103DC00054EC82F07CC095F07DC096F07EC097F0F8
:103DD0007FC098F00001AF07D8A0B007AFC0B1F026
:103DE000B0C0B2F00001D890B137B2370001D8901E
:103DF000B137B237ADC0B3F0AEC0B4F00001B151CD
:103E00000001B3270001B2510001B423B3C0F6FF93
:103E1000B4C0F7FF000EF86E0900F5CF99F0090065
:103E2000F5CF9AF00900F5CF9BF00A00F5CF9CF092
:103E300000EC80F095C0B5F096C0B6F097C0B7F032
:103E400098C0B8F00001AF510001B011D8A4A8D7B4
:103E5000B5C0A9F0B6C0AAF0B7C0ABF0B8C0ACF01E
:103E600012000001AB35AC350001B26F0001B25158
:103E7000D8A40AD0000E0001A96F000EAA6F000E90
:103E8000AB6F000EAC6F1200A9C0ADF0AAC0AEF0CF
:103E9000ABC0AFF0ACC0B0F0200E06D00001D8909F
:103EA000B033AF33AE33AD33E82EF8D70001AD51A8
:103EB0000001B16F0001AB8FFF0E0001A917FF0ECB
:103EC000AA17FF0EAB17000EAC17960E0001B25FDB
:103ED0000001B2AF1AD00001B251800A970FD8B0DA
:103EE0000AD0000E0001A96F000EAA6F000EAB6F82
:103EF000000EAC6F12000001D890AC33AB33AA3384
:103F0000A9330001B23FF7D71BD01F0E0001B265E5
:103F100012D0000E0001A96F000EAA6F000EAB6F49
:103F2000000EAC6F12000001D890A937AA37AB374A
:103F3000AC370001B2070001B2510001D8A4F3D799
:103F40000001B1510001D8B409D00001AC1FAB1F72
:103F5000AA1FA96D000EAA23AB23AC23A9C0A9F008
:103F6000AAC0AAF0ABC0ABF0ACC0ACF0120000012C
:103F700020EE04F0E851D926E951DA22DF50B8ECFE
:103F8000B3F00009D8B46AD0E8C0D9FFE9C0DAFFBD
:103F9000DE50DE10D8B45DD0E8C0D9FFE9C0DAFF4A
:103FA000010EDBBE22D0010EDB5003E1DE04D8A0FF
:103FB0001CD0E8C0D9FFE9C0DAFFDE2804E17F0E9B
:103FC000DE18D8B407D0E8C0D9FFE9C0DAFFDE06B2
:103FD000000EDD5A9B0E106E010E116E000E126E59
:103FE000010E136E06ECA7F01BD0E8C0D9FFE9C0A4
:103FF000DAFFDE0404E1800EDE18D8B407D0E8C092
:10400000D9FFE9C0DAFFDE2A000EDD229B0E106E1A
:10401000010E116E000E126E000E136E06ECA7F06C
:104020009B0E106E010E116E010E126E010E136EBC
:1040300006ECA7F09B0E106E010E116E010E126EB3
:10404000000E136E06ECA7F0A0ECB6F06FECB6F025
:104050001200A0ECB6F09DECB6F01200DDC001F04D
:10406000DEC002F0DFC003F05CECB6F012006CC002
:1040700074F06DC075F0000E0001736F000E726F6A
:104080006EC070F06FC071F00001745100017511C5
:10409000D8A434D070C0D9FF71C0DAFF300EDF6E03
:1040A000000E0001736F010E726F40D074C067F094
:1040B00075C068F0000E00016A6F0A0E696FA5EC0A
:1040C000AFF000016751300F70C0D9FF71C0DAFF47
:1040D000DF6E74C060F075C061F0000E0001636FA8
:1040E0000A0E626F3EECACF060C074F061C075F017
:1040F0000001724B732B0001704B712B0001745146
:1041000000017511D8B408D00001735105E1060E05
:104110000001725DD8A0CAD76EC060F06FC061F0B8
:1041200072C062F073C063F0D5ECADF00001725163
:1041300000016E25D96E0001735100016F21DA6E06
:10414000000EDF6E1200000E00019B6F000E9C6FD0
:10415000800E9D6F440E9E6F330E00019F6F330ED5
:10416000A06F530EA16F400EA26F000120EE01F070
:104170009551D9269651DA22DECF99F0DDCF9AF00B
:1041800099C06EF09AC06FF00001706B716B000EF9
:1041900047EC92F06EC0A3F06FC0A4F070C0A5F021
:1041A00071C0A6F0A3C060F0A4C061F0A5C062F029
:1041B000A6C063F09BC064F09CC065F09DC066F033
:1041C0009EC067F0B6EC86F060C0A3F061C0A4F0BA
:1041D00062C0A5F063C0A6F0A3C07CF0A4C07DF0CF
:1041E000A5C07EF0A6C07FF09FC080F0A0C081F087
:1041F000A1C082F0A2C083F054EC82F07CC0A3F096
:104200007DC0A4F07EC0A5F07FC0A6F0A3C095F04D
:10421000A4C096F0A5C097F0A6C098F012008DC07B
:10422000D9FF8EC0DAFF000EDE6E000EDD6E0001DB
:1042300020EE02F08D51D9268E51DA22000EDE6E6C
:10424000000EDD6E000120EE04F08D51D9268E5156
:10425000DA228FC0DEFF90C0DDFF9B0E0001866F6B
:10426000010E0001876F000E0001886F030E000130
:10427000896F2EEC93F09B0E0001866F010E0001FA
:10428000876F010E0001886F030E0001896F2EEC0D
:1042900093F09B0E00016F6F010E0001706F000E16
:1042A0000001716F000E0001726F17ECA3F09B0EFE
:1042B00000016F6F010E0001706F010E0001716F40
:1042C000000E0001726F17ECA3F0DC0E0001DD6F31
:1042D000390E0001DE6F010E0001DF6FE80E0001F4
:1042E0006D6F030E6E6F000E6F6F000E706FAAEC95
:1042F0009BF0120000019B5100019C11D8B41200E8
:1043000000019F510001A0110001A111D8B41200B9
:104310000001A2510001A3110001A411D8B41200A0
:104320000001A5510001A6110001A711D8B4120087
:1043300000019D5100019E11D8A405D0000E00017E
:104340009E6F010E9D6F9BC0D9FF9CC0DAFF000ECF
:10435000DF6E000120EE01F09B51D9269C51DA223C
:10436000000EDF6E000120EE02F09B51D9269C5119
:10437000DA229DC0DEFF9EC0DDFF000120EE04F0CA
:104380009B51D9269C51DA22A5C0DEFFA6C0DEFFD4
:10439000A7C0DEFF000120EE07F09B51D9269C51FB
:1043A000DA22A2C0DEFFA3C0DEFFA4C0DEFF01D878
:1043B00012000500FA6E00019F51FD6EA051FE6EC5
:1043C000A151FF6EFA50120000016B6F200E000128
:1043D0006B5F00016B51050DF3CF69F0F4CF6AF00C
:1043E000CF0E0001692500016C6FFC0E00016A21EF
:1043F00000016D6F000E0001706F040E000170650A
:1044000001D043D0000E0001716F060E00017165EE
:1044100001D035D06CC060F06DC061F071C062F049
:10442000D3ECB3F00009D8A405D0ECC06EF0EDC019
:104430006FF004D0FAC06EF0FBC06FF00001715154
:104440000A0D1E0E0001676F020E0001686FF35027
:1044500000016727F4500001682300017051020D2C
:10446000F35000016725D96EF45000016821DA6E1F
:104470006EC0DEFF6FC0DDFF0001712BC6D70001EB
:104480006C4B6D2B0001702BB8D71E0E0001656FB1
:10449000020E0001666F1200090E00017B6FFF0E15
:1044A00000017C6F78EC96F0D50E00017B6FFF0E5B
:1044B00000017C6F78EC96F00101FBBF10D0010188
:1044C000FB5104E10101FA05D8A009D0F80E000162
:1044D0007B6FFF0E00017C6F78EC96F008D0F70E32
:1044E00000017B6FFF0E00017C6F78EC96F0E10E0F
:1044F00000017B6FFF0E00017C6FE2C07DF0E3C026
:104500007EF078EC96F00001EE51D8B406D0000EA3
:104510000101FB6FC80EFA6F12000001EF51D8B411
:1045200006D0FF0E0101FB6F380EFA6F120000017A
:10453000F151D8B404D00001E24BE32B120000018A
:10454000F051D8B412000001E3BF12000001E351A2
:1045500004E10001E205D8A012000001E207D8A0A2
:10456000E3071200D6C099F0D7C09AF0D8C09BF0EC
:10457000D9C09CF0F8C16EF0F9C16FF00001000ED7
:104580006FBFFF0E706F716F010E47EC92F06EC03F
:104590007CF06FC07DF070C07EF071C07FF081EC68
:1045A000B3F07CC095F07DC096F07EC097F07FC0E0
:1045B00098F000EC80F095C0A9F096C0AAF097C0E2
:1045C000ABF098C0ACF031EC9FF0A9C023F1AAC0C9
:1045D00024F10101CA510101CB11D8A41200CA0E65
:1045E00000017B6F010E00017C6F000E00017E6FE9
:1045F000C80E7D6FBEECB4F0CA0E0001636F010EF1
:104600000001646F23C165F024C166F064ECB3F06F
:10461000D6C0A9F0D7C0AAF0D8C0ABF0D9C0ACF0D2
:1046200031EC9FF0A9C0F8F1AAC0F9F11200080E10
:1046300000016F2500016C6F000E00017021000168
:104640006D6F71C06EF008ECB3F00001736F42D073
:10465000010E00017217000120EE02F06F51D92601
:104660007051DA22DECF60F0DDCF61F071C062F010
:1046700072C063F042ECAFF01200010E000172173D
:10468000010E0001721B000120EE02F06F51D926CD
:104690007051DA22DECF60F0DDCF61F071C062F0E0
:1046A00072C063F042ECAFF01200010E000172170D
:1046B000000120EE04F06F51D9267051DA22DECFCE
:1046C00060F0DDCF61F071C062F072C063F042EC67
:1046D000AFF0120000017351000AD8B41200010AB1
:1046E000D8B4B6D7030AD8B4C8D7010AD8A41200E0
:1046F000DCD7000E0001746FFA0E46240001666FCD
:10470000FF0E47200001676F000E0001696F060E63
:10471000686FDAECA3F0000166510001756F75C097
:1047200066F00001676B000E0001696F040E686F90
:10473000DAECA3F0000166510001736F000E000176
:10474000746F06D08AECB2F0DDECAEF00001742B91
:1047500000017351040DF31EF41EF34AF42A000104
:10476000755100016E6F6F6BF35000016E27F450AE
:1047700000016F2300016E1F6F1F6E4B6F2B040E25
:1047800000016E27000E6F23000174510001706F4D
:10479000716B00016E510001705D00017151800A62
:1047A0000001726F00016F51800A00017259D8B088
:1047B0001200C8D7000E00016B6F000169AF08D06E
:1047C0000001686D691FD8B0692B010E00016B6F85
:1047D000000167AF08D00001666D671FD8B0672B76
:1047E000010E00016B1B000E00016D6F000E6C6F5F
:1047F0000001685100016911D8B42CD0010E0001EC
:104800006A6F06D00001D8906837693700016A2BBB
:10481000000169AFF7D70001D8906C376D37000100
:1048200068510001665D0001695100016759D8A017
:104830000AD0000168510001665F00016951000162
:10484000675B00016C810001D89069336833000117
:104850006A2FE1D700016B510001D8B405D00001E7
:104860006C6D6D1FD8B06D2B6CC066F06DC067F0BD
:104870001200000E0001686F000E696F000E6A6F73
:10488000000E6B6F0001645100016511000166119B
:1048900000016711D8B442D0010E00016C6F08D03E
:1048A0000001D890643765376637673700016C2B95
:1048B000000167AFF5D70001D890683769376A37CC
:1048C0006B37000164510001605D0001655100011A
:1048D00061590001665100016259000167510001F0
:1048E0006359D8A012D0000164510001605F00013B
:1048F00065510001615B000166510001625B0001CE
:1049000067510001635B000168810001D890673343
:1049100066336533643300016C2FCDD768C060F017
:1049200069C061F06AC062F06BC063F01200000EF3
:104930000001656F000E646F38D02D0E00016425F4
:10494000D96E010E00016521DA6E61C0E1FF62C01F
:10495000E2FFE750C0EC8BF0DF6E2D0E0001642506
:10496000D96E010E00016521DA6E800EDE18D8A422
:104970000ED000016407D8A065072D0E0001642544
:10498000D96E010E00016521DA6E000EDB8E00018A
:10499000614B622B0001644B652B000165511AE1EC
:1049A000060E0001645DD8B015D061C0D9FF62C0A9
:1049B000DAFFDF50D8B40ED0C0D72D0E0001642529
:1049C000D96E010E00016521DA6E000EDF6E000166
:1049D000644B652B0001655106E1060E0001645D24
:1049E000D8B01200EAD71200000160510001611135
:1049F0000001621100016311D8A412D064C0D9FF74
:104A000065C0DAFF000EDE6E000EDD6E000E0001E6
:104A1000606F000E616F000E626F000E636F120018
:104A2000000163517F0B0001666F676BD890000136
:104A30006637673764C0D9FF65C0DAFF66C0DEFF3E
:104A400067C0DDFF000162AF04D00001666B662B1A
:104A500002D00001666B0001665164C0D9FF65C0D9
:104A6000DAFFDE12000EDD1264C0D9FF65C0DAFF86
:104A7000820EDE26FF0EDD220001638163836385E3
:104A800063876389638B639D0001629F60C060F0F0
:104A900061C061F062C062F063C063F012000001A7
:104AA0006451010DBF0EF324F66EFC0EF420F76E78
:104AB000F86A000EF8220800F5CF6AF0000E000137
:104AC000696F06D0000162510001635F0001692B2C
:104AD000000162510001635DD8B0F4D70001645158
:104AE00000016303F350636F000169510001632704
:104AF00000016A510001651763C066F06AC067F083
:104B00000001662B03D00001D89067370001662FA3
:104B1000FAD700016751FF0A0001686F60C0D9FF32
:104B200061C0DAFF00016851DF1663C066F065C03E
:104B300067F00001662B03D00001D89067370001B1
:104B4000662FFAD760C0D9FF61C0DAFF0001675154
:104B5000DF1212002DECB6F0B5ECACF021EE84F0D3
:104B600001D80AD00500FA6EDE50FD6EDE50FE6EF2
:104B7000DE50FF6EFA5012000001846F0001845174
:104B80000101276F286B21EE50F001D80AD00500F3
:104B9000FA6EDE50FD6EDE50FE6EDE50FF6EFA5095
:104BA00012000001F16F21EE5AF001D80AD0050081
:104BB000FA6EDE50FD6EDE50FE6EDE50FF6EFA5075
:104BC00012000001F06F21EE46F001D80AD0050076
:104BD000FA6EDE50FD6EDE50FE6EDE50FF6EFA5055
:104BE00012000001EF6F21EE3CF001D80AD0050061
:104BF000FA6EDE50FD6EDE50FE6EDE50FF6EFA5035
:104C000012000001EE6F1200DF0E0001646F010E52
:104C10000001656F000E0001666F01ECACF0DA0E6A
:104C20000001646F010E0001656F010E0001666FE7
:104C300001ECACF0D50E0001646F010E0001656F50
:104C4000020E0001666F01ECACF0D00E0001646F43
:104C5000010E0001656F030E0001666F01ECACF000
:104C6000DF0E0001606F010E0001616FDA0E0001BE
:104C7000626F010E0001636F25ECB2F0DA0E0001E5
:104C8000606F010E0001616FD50E0001626F010EB1
:104C90000001636F25ECB2F0D50E0001606F010ECC
:104CA0000001616FD00E0001626F010E0001636FA1
:104CB00025ECB2F012007E0EF66E6C0EF76E010E51
:104CC000F86E01EEECF010EE10F00900F5CFEEFFFB
:104CD000E550E150FAE1460EF66E6D0EF76E010EEC
:104CE000F86E0900F5CFFAF00900F5CFFBF00900E6
:104CF000F5CFFCF0EA0EF66E6C0EF76E010EF86E54
:104D000000EE46F010EE0AF00900F5CFEEFFE55098
:104D1000E150FAE102EE7BF011EE2CF0EE6AE55084
:104D2000E150FCE1E250FAE102EE00F06E0EEE6AB4
:104D3000E806FDE101EE00F0EC0EEE6AE806FDE1AA
:104D400000EED6F0240EEE6AE806FDE100EE29F052
:104D50001D0EEE6AE806FDE15090509200010EEF44
:104D600094F00001686F020E00016527020E000139
:104D70006727030E00016827030E00016627000E57
:104D80000001636F2A0E1CECB5F0010E0001636F89
:104D9000000E1CECB5F0010E0001636F00016851BC
:104DA0001CECB5F0010E0001636F000E1CECB5F0B9
:104DB000010E0001636F000166511CECB5F0000E9E
:104DC0000001636F2B0E1CECB5F0010E0001636F48
:104DD000000E1CECB5F0010E0001636F000165517F
:104DE0001CECB5F0010E0001636F000E1CECB5F079
:104DF000010E0001636F000167511CECB5F0000E5D
:104E00000001636F2C0E1CECB5F01200080E10248C
:104E10000D6E000E11200E6E12C00FF037ECB4F0C4
:104E2000146E3BD0010E131620EE02F01050D9265E
:104E30001150DA22DECF01F0DDCF02F012C003F014
:104E400013C004F004ECB1F01200010E1316010EB1
:104E5000131A20EE02F01050D9261150DA22DECFBC
:104E600001F0DDCF02F012C003F013C004F004EC37
:104E7000B1F01200010E131620EE04F01050D926E6
:104E80001150DA22DECF01F0DDCF02F012C003F0C4
:104E900013C004F004ECB1F012001450000AD8B4AE
:104EA0001200010AD8B4BED7030AD8B4CED7010A7B
:104EB000D8A41200DFD70001626F38D0920E000133
:104EC000606F0F0E0001616F1200930E0001606FA2
:104ED0000F0E0001616F1200940E0001606F0F0E43
:104EE0000001616F1200950E0001606F0F0E00014E
:104EF000616F1200960E0001606F0F0E0001616F6E
:104F00001200970E0001606F0F0E0001616F12001A
:104F1000980E0001606F0F0E0001616F1200000E0D
:104F20000001606F000E0001616F1200000162510C
:104F3000000AD8B4C3D7010AD8B4C7D7030AD8B473
:104F4000CBD7010AD8B4CFD7070AD8B4D3D7010A30
:104F5000D8B4D7D7030AD8B4DBD7E1D70001626F42
:104F600038D0070E0001606FFF0E0001616F120064
:104F7000050E0001606FFF0E0001616F1200030E4D
:104F80000001606FFF0E0001616F1200010E000151
:104F9000606FFF0E0001616F1200FF0E0001606F75
:104FA000FE0E0001616F1200FD0E0001606FFE0E2B
:104FB0000001616F1200FB0E0001606FFE0E000128
:104FC000616F1200000E0001606F000E0001616F42
:104FD000120000016251000AD8B4C3D7010AD8B444
:104FE000C7D7030AD8B4CBD7010AD8B4CFD7070A9A
:104FF000D8B4D3D7010AD8B4D7D7030AD8B4DBD7EB
:10500000E1D70001626F38D0800E0001606F0F0E93
:105010000001616F1200810E0001606F0F0E000130
:10502000616F1200820E0001606F0F0E0001616F50
:105030001200830E0001606F0F0E0001616F1200FD
:10504000840E0001606F0F0E0001616F1200850E6B
:105050000001606F0F0E0001616F1200860E0001EB
:10506000606F0F0E0001616F1200000E0001606F93
:10507000000E0001616F120000016251000AD8B4F5
:10508000C3D7010AD8B4C7D7030AD8B4CBD7010A0B
:10509000D8B4CFD7070AD8B4D3D7010AD8B4D7D752
:1050A000030AD8B4DBD7E1D7000E0001826F0001FC
:1050B0007451000178250001806F000176510001D4
:1050C0007A250001816F7AC060F07BC061F078C002
:1050D00062F079C063F09DECB3F060C07EF061C017
:1050E0007FF076C065F0000180050001666F000169
:1050F00081050001676F00017451B1ECA6F0000E4C
:105100000001826F13D000018251020DF3500001A3
:105110007225D96EF45000017321DA6EDECF65F08E
:10512000DDCF66F097ECB5F00001822B00018251D3
:1051300000017C6F7D6B00017E5100017C5D0001F0
:105140007F5100017D59D8B01200DDD7870E0001D4
:105150009B6F010E00019C6F000E00019E6F020EFE
:105160009D6FD40E00019F6F6A0E0001A06F010EAB
:105170000001A16F2E0E0001A26F6C0E0001A36F43
:10518000010E0001A46F8C0E0001A56F660E0001D8
:10519000A66F010E0001A76F7AECA1F07D0E000151
:1051A0009B6F010E00019C6F000E00019E6F020EAE
:1051B0009D6FB60E00019F6F6A0E0001A06F010E79
:1051C0000001A16F9E0E0001A26F6B0E0001A36F84
:1051D000010E0001A46F9E0E0001A56F680E000174
:1051E000A66F010E0001A76F7AECA1F012003ED06D
:1051F0000001F751140D7B0E0001606F020E0001DB
:10520000616FF35000016027F45000016123000139
:10521000F851010DF35000016025D96EF4500001E2
:105220006121DA6EDF50D8B41FD0010E0001FC6F8F
:105230000001F751140D7B0E0001606F020E00019A
:10524000616FF35000016027F450000161230001F9
:10525000F851010DF35000016025D96EF4500001A2
:105260006121DA6E800EDF6E0001F82B130E000153
:10527000F865BED7000E0001F86F0001F72B080E8D
:105280004826000E4922000E476E060E466E12009A
:1052900060C0F6FF61C0F7FF000EF86E0F0EF764F6
:1052A00003D00800F55005D0F6CFE9FFF7CFEAFFAD
:1052B000EF500001686F00016451010DBF0EF3242F
:1052C000F66EFC0EF420F76EF86A000EF822080065
:1052D000F5CF66F0000E0001676F06D00001625145
:1052E0000001635F0001672B000162510001635DF3
:1052F000D8B0F4D70001645100016303F350636F29
:105300000001675100016327000163290001656FF7
:1053100003D00001D89068330001652FFAD700014F
:105320006651000168170001685112000001656FA5
:10533000000E0001666F000E0001636F360E1CEC5C
:10534000B5F000016551030B0001666F2CD0010E12
:105350000001636FC80E1CECB5F0800E4F6E800E1E
:105360004E6E1200010E0001636FA80E1CECB5F02A
:10537000800E4F6E800E4E6E1200010E0001636FA4
:10538000080E1CECB5F0800E4F6E800E4E6E1200B3
:10539000010E0001636F680E1CECB5F0800E4F6EBD
:1053A000800E4E6E120000016651000AD8B4CFD7AD
:1053B000010AD8B4D7D7030AD8B4DFD7010AD8A4D2
:1053C0001200E6D70001666FC80EF66EFC0EF76E8F
:1053D000000EF86E0900F5CF62F00900F5CF63F01A
:1053E0000900F5CF64F00A00F5CF65F0110E000159
:1053F000676F030E0001661700016651010D620E12
:10540000F324D96E000EF420DA6EDF500001606FD5
:1054100067C061F00001602B03D00001D8906137B4
:105420000001602FFAD7000161510001676F000190
:1054300067390F0B0001676F000167510F0B000107
:10544000676F0101335100016719F00B6719010102
:10545000336F1200000E0001F86F000E0001F76FAD
:10546000000E0001636F0E0E0001636501D02DD0A8
:10547000000E0001626F130E0001626501D022D0A0
:10548000010E0001FC6F00016351140D7B0E000141
:10549000606F020E0001616FF35000016027F4504D
:1054A0000001612300016251010DF35000016025EC
:1054B000D96EF45000016121DA6E800EDF6E0001BA
:1054C000622BD9D70001632BCED7010E0001F96FF3
:1054D000000E476E060E466E000E496E060E486EB2
:1054E00012000001606F000E0001616F010E02D01A
:1054F000000E0CD00001626F2DD0040E07D0010EFB
:1055000005D0050E03D0020E01D0060E0001616F1A
:10551000000EF0D7020E0001606503D000016007A5
:1055200019D0020E0001606F15D000016051020A0F
:10553000D8B4DED7060AD8B4E0D70C0AD8B4DFD77F
:10554000180AD8B4DED7300AD8B4DDD7600AD8B488
:10555000DCD7E0D7000162510001D8A4E6D7C150E2
:1055600000016119F80B6119C16E1200000E0001F3
:10557000F86F000E0001F76F000E0001626F130E4E
:105580000001626501D01200000E0001636F0E0E73
:105590000001636501D02CD000016351140D7B0E16
:1055A0000001606F020E0001616FF350000160277F
:1055B000F4500001612300016251010DF35000011C
:1055C0006025D96EF45000016121DA6E000EDF6EA5
:1055D00000016351020D000EF324D96E020EF42077
:1055E000DA6EFF0EDE6EFF0EDD6E0001632BCFD78D
:1055F0000001622BC4D7620E00017B6FFF0E000119
:105600007C6F78EC96F0EC0E00017B6FFF0E0001D2
