:100000000DEF04F026EF00F004EF0AF0D1EC04F05D
:10001000FF0000F000F012000CEF0AF018EF00F003
:10003000F26AFC6A9BEC04F004009EEC09F0D8EC38
:1000400003F0F3EC03F05EEC08F0F6D701501F0B61
:10005000E80601E01200055001E01200060E021849
:1000600014E01AD0020E3D6E4A0E3FD8306A090ED7
:100070000AD0020E3D6E450402E1870E36D84504D3
:100080000AE1306A1D0E2F6E06D00450210AEAE004
:10009000030AEFE0010A42820138E832030BE80666
:1000A00014E01200020E3D6E440E206E24D0020EAB
:1000B0003D6E04C044F0020C020E3D6E430EF5D7B7
:1000C000020E3D6E03C043F0020C0250010AD8B488
:1000D0001200030AE7E0010AEFE00A0AD8B41200AE
:1000E000030AE5E0010AECE01200206E2050D8A4DB
:1000F000100E216E1200216A4292010E2F6E010C29
:100100004F6A140E506E516A296A2A6A4FC0F6FF70
:1001100050C0F7FF51C0F8FF42D80800F5CFDFFF0D
:100120004F2A000E50225122294A2A2A040E2A5C04
:10013000EDE30D0EE8CFB2F4600EE8CFB3F4000E9D
:10014000496E050E486E0AEC03F04F68170E506EAC
:10015000516A030E2A6E296851C0F8FF50C0F7FF9C
:100160004FC0F6FF1CD8DF50F56E0C0029C04EF0D2
:100170003F0E4E1607E1FEEC09F0040EA66EB50E1A
:1001800067EC04F04F06000E505A515A0A002950ED
:100190002A1001E112002906D8A02A06DDD7AC0EEC
:1001A0002924D96E040E2A20DA6E120003040BE112
:1001B00001501F0B08E1010E3D6E030E021802E113
:1001C000428001D042900350D8A4120001501F0B6E
:1001D000020AD8A4120005500F0BD8B4120028D878
:1001E000476A040E486E4726000E4822F350472601
:1001F000F450482223D847241D6EF45048201E6E28
:10020000030E021805E10FD8040EDF6E0CD81CD0C7
:1002100005AE04D008D8400EDF6E400C04D8080E9E
:10022000DF6E01D811D01DC0D9FF1EC0DAFF120049
:10023000010E3D6E05500F0B080D1200010E05AEAC
:10024000000E040DF3501200000EDB8E000C3D502A
:1002500010E193EC03F0196E3A0405E1010E32EC63
:1002600003F03A6A1200000E32EC03F0010E3A6E0F
:10027000010C01AE1BD0010E3E6E2F50075C3050BA
:10028000085804E207C02FF008C030F076EC01F007
:10029000480E196E010E32EC03F0000E32EC03F042
:1002A000240E04010A6F040E0B6F1CD0020E3E6E6A
:1002B000040E196E0750081002E1480E196E3A0438
:1002C00005E1010E32EC03F03A6A05D0000E32EC83
:1002D00003F0010E3A6E07500810D8A41200040172
:1002E000096B00D0480E086F088F480C080E326E5C
:1002F00030500DE1080E2F5C0AE22FC032F0405062
:1003000002E1010E03D0400402E1020E406E32C051
:1003100009F432502F5E000E305A240E1D6E040E6A
:100320001E6E42A21AD00BD01BD813EC01F00F0E98
:10033000F76403D00800F55001D019D81ED8325008
:10034000F3E112000DD813EC01F00F0EF76403D0A7
:100350000800F55001D00BD810D83250F3E112004C
:1003600020C0F6FF21C0F7FF000EF86E1200F6CF96
:10037000E1FFF7CFE2FFE7501200DF6E1D4A1E2AB1
:10038000204A212A320612000138E832030B18E015
:100390001200010E3D6E040E416E040C010E3D6E06
:1003A000450E206E7BEF00F02CD8496E49C020F03E
:1003B0007BEF00F026D8D96EDA6A03C0DFFF1200A7
:1003C000025002E179EF02F0010A02E1D6EF00F0FB
:1003D000020A02E1D6EF00F0060ADBE0030A02E1BE
:1003E00006EF02F0010AD8B412000F0AD7E0010AA2
:1003F00002E155EF03F0030AD7E0010ADBE0070A48
:100400001200010E3D6E0550460F1200800E0118BD
:1004100030E01200010E3D6EA40E75EC00F0120EDD
:1004200009D003502DE1010E3D6E380E75EC00F041
:10043000306A290E2F6E24D0010E3D6E0350010F3D
:10044000476E47C0F6FF100EF76E000EF86E0900FB
:10045000F5CF20F0100E216EB0EC01F00F0EF76416
:1004600003D00800F55002D0B7EC01F02F6E306ACF
:1004700007D00450010ACEE0030AD3E0010ADCE011
:1004800042821200366A27D03850486E000E48BEAD
:10049000FF0E496E4A6E4B6E4850155C0D6E49500A
:1004A00016580E6E4A5017580F6E4B501858106E53
:1004B0000FC0F8FF0EC0F7FF0DC0F6FF11D80D00FA
:1004C000362A0ED80C00362A240EA66EB50E67EC1E
:1004D00004F0FE0E38263850800A7F0FD5E2120055
:1004E000AC0E3624D96EDA6A040EDA22DF50F56ECD
:1004F0001200246B256B22D0010E3D6E42B0248386
:1005000024D0010E3D6E21D018EC01F0476A040E94
:10051000486E4726000E4822F3504726F4504822E2
:100520001EEC01F047241D6EF45048201E6E13ECA3
:1005300001F0DFA40AD0010E246F07D001501F0B79
:10054000DBE0010ADEE0030ADFE03D04D8A412008C
:10055000240E206E040E216E4292020E2F6E020CAB
:10056000400E486401D0486E4A6A0DD047504A2474
:10057000D96EDA6A6C0E4A24E16EE26A040EE22257
:10058000DFCFE7FF4A2A48504A5CF0E348C011F445
:10059000400E0401101710BD03D0496A492A01D04A
:1005A000496A493A49464946040110514918BF0B66
:1005B0004918106F1087108F12003F6A0CBF12008D
:1005C00048500D5D02E20DC448F03F6A0BD02C0E7E
:1005D0003F24D96EDA6A040EDA2247503F24F9EC40
:1005E00009F03F2A48503F5CF2E3400E0D6F0C17B4
:1005F0000CBD03D0496A492A01D0496A493A4946A3
:10060000494604010C514918BF0B49180C6F0C875F
:100610000C8F1200495006E1050E485C03E2496A5E
:10062000050E486E48504A6E49504B6E4C6A4D6AF2
:100630000A0ED8904A364B364C364D36E82EF9D74E
:100640004AC009F04BC00AF04CC00BF04DC00CF092
:100650000BC0F8FF0AC0F7FFF66A140EA66EB50EBF
:1006600067EF04F0476E080E1A6E1C0E1B6E040E28
:100670001C6E475006E1140E1B6E040E1C6E256A9C
:1006800002D0040E256E266E0BD819C0DEFF1AC0EC
:10069000DEFF1BC0DEFF1CC0DEFF02D8DF8E1200B3
:1006A00025C0D9FF26C0DAFF1200010E3D6E0F01F2
:1006B00016D8346A3450460FD96EDA6ADF6A342AA3
:1006C0003450F8E003C045F04550C9EC04F0035045
:1006D00003E1050E416E050C060E416E060C4D6BD6
:1006E0004E6B4F6B506B516B526B536B1200040E81
:1006F000411808E103C05EFF0F015E51050ED8B43A
:10070000030E416E3E04D8A4120076EC01F0020EF6
:10071000401802E108D8040C0401480E08BD080E78
:10072000086F088F1200040E0401086F088F040C74
:10073000030E416E0F015D6B626A7B0E5C6F5E6B38
:100740006FEC03F0160E4C6F658C03D06296FEECD6
:1007500009F062B6FBD7659C6598040E196E000E11
:1007600032EC03F0010E3A6E426A456A000EC9EFA0
:1007700004F081B818EC00F0060EF66E14D80D0ED9
:10078000F5180DE10900600EF51809E1F66A0BD8BD
:10079000F52803E10900F52802E000EF0AF018EC63
:1007A00000F000EF00F0140EF76EF86A0900140C68
:1007B0002306D8A0240623502410D8A412004E0EDD
:1007C000246E236A060E416002D08B80060C8BB02B
:1007D00003D0476A472A01D0476A8B504718FE0B5F
:1007E00047188B6E1200C0BC1200030ED36E6592C8
:1007F0006596F26A0ED808D0C0AC04D02D06D8A0F9
:100800002E0601D006D804002D502E10F5E1FF0071
:100810001200040E2E6E2D6A040C04EEACF014EEE1
:1008200000F0EE6AE550E150FCE1E250FAE100EE42
:1008300060F0820EEE6AE806FDE100EE01F0460E81
:10084000EE6AE806FDE10001B9EF03F00401086B70
:10085000406A00AF02D0006B3A6A04AF03D0046B69
:10086000010E3A6E3E6A3D6A2F6A306A6598C4ECA2
:1008700001F002EC00F027EF01F005D80AD8376A42
:100880000CD8386A12007E0E3B6E116AFC0E126E96
:10089000FC0C010E136E146A000C156816681768BC
:1008A000186812003F6A1E0E0F014D6F400E0401C2
:1008B0000D6F2C0E0E6F040E0F6F080E0C6F0C8F49
:1008C0006C0E126F040E136F400E106F400C476ECB
:1008D000F29EF3EC03F0B50E471804E0030ED36E5E
:1008E0000300FED7550EA76EAA0EA76EA682A6B26B
:1008F000FED7A69412005CCF35F0040E0F015C6F9A
:1009000062986582A198A088AAEC04F0A09835505E
:100910000F015C131200390402E1D1EC04F0656AA6
:10092000150E0F015F6F5C6B658698EC03F0010E8E
:10093000416E396A1200600ED36E9B8CDCEC04F0C1
:10094000BFEC04F0C16AC26A3DEC04F08B90949055
:10095000E7EF04F08B90D3CF31F00300A1B802D0C1
:10096000D0A6FBD731C0D3FF1200D9EC04F06592BA
:100970000F015C9501D0629462A41200FCD705D0EF
:10098000FEEC09F04706D8A0480647504810F8E1A9
:100990001200476E4704D8A4120052EC04F03DEF59
:1009A00004F06592656A48684768BFEC04F0416AE4
:1009B000120002D8BFEF04F0030E486E476A030C22
:1009C000390401E1120065A68BEC04F0120065B653
:0E09D000D1EC04F0396AE0EF04F012001200DE
:1010000000B6046134034D006900630072006F0094
:1010100063006800690070002000540065006300F0
:1010200068006E006F006C006F00670079002000A0
:1010300049006E0063002E000902290001010080B2
:10104000320904000002030000000921110100011F
:10105000221D000705810340000107050103400030
:101060000126034800490044002000550053004277
:1010700000200042006F006F0074006C006F006180
:10108000006400650072000600FF0901A10119015A
:101090002940150026FF0075089540810019012997
:1010A000409100C01201000200000008D8043C007A
:0B10B00001010102000104030904001B
:1010BC00060E4118D8B465B21200375001E017D1B2
:1010CC0004010CBF1200600E476E400E486EDDEC42
:1010DC0002F0010E376E276A286A2750A10FD96ECD
:1010EC00DA6A000EDF6E274A282A285005E1400EE6
:1010FC00275CD8B01200F1D71200020EA16F3A0E85
:10110C00A26F010EA36FA46FA56B140EA66FA76B35
:10111C00A86B000E1124A96FEC0E1220AA6FFF0E03
:10112C001320AB6FFF0E1420AC6F030EAD6FF80ED7
:10113C00AE6FAF69010EB06FB16B080EB26FB36BCF
:10114C00B46BB56BB669A50EDA6F040110BFA50CB4
:10115C00A10E476E400E486EB0EC02F0376A1200DA
:10116C00615106E17F0E3B6EF80E116E126802D0D3
:10117C0043EC04F049EC04F0F1D7286A050E276E15
:10118C000CD0FEEC09F027C048F028C049F00AEC5E
:10119C0003F09EEC09F0274A282A3B50526E536A02
:1011AC00522A000E53225250275C53502858D6E234
:1011BC00E8D715280EE116280CE117280AE11828A3
:1011CC0008E161C015F062C016F063C017F064C08E
:1011DC0018F015506119C2E116506219BFE1175091
:1011EC006319BCE118506419B9E1276A286A1AD04E
:1011FC006551A0082724D96EDA6AAC0E3824E16E4A
:10120C00E26A040EE222DFCFE7FF382A152A000E2D
:10121C001622172218223A0E381802E142EC02F07C
:10122C00274A282A00017CD899E2E2D742EC02F046
:10123C004DEC04F093D7070EA16F61C0A2F062C011
:10124C00A3F063C0A4F064C0A5F065C0A6F063C0B1
:10125C00F8FF62C0F7FF61C0F6FF276A286A0BD05F
:10126C00090000016551E1082724D96EDA6AF5CF2F
:10127C00DFFF274A282A54D8F3E3040110BF1200D9
:10128C0067D780EC00F06AD70C0EA16F010EA36F2C
:10129C00020EA26F160EF66ED3EC03F0F5CFA4F08F
:1012AC000A00F5CFA5F0060EA66F140EA76FA86B5B
:1012BC00A96B600EAB6F0D0EAA6FAC6B040EAD6F0D
:1012CC00000EAE6BAF6BB069B169B269B369B4694A
:1012DC00B569B669B769B86BB96BBA6BBB6BBC6BEC
:1012EC00BD6BBE6BBF6BC9D706EC00F037D70001E6
:1012FC006051020A01E101D7010A01E131D7070A65
:10130C0001E13BD7010A01E154D7030A8FE0010A3E
:10131C0092E00F0AE9E0010AB4E0050AB5E01ED735
:10132C006551526E536A5250275C53502858120024
:10133C00E0EC04F0415001E1120062B4B5EC04F0B1
:10134C0065B2120062B098EC03F062B87BEC04F06A
:10135C00030E416001D0030C3C6A62A6120064507B
:10136C0064CF4AF07C0E4A162AE164B203D02B6A91
:10137C00040E02D0040E2B6E2C6E62962BC0D9FF7D
:10138C002CC0DAFFDF30E8320F0B0D0A20E1336A94
:10139C0023D8DECF4AF0DDCF4BF04AC0D9FF4BC08B
:1013AC00DAFF3350010F1FD817D8DE2A000EDD22CA
:1013BC00332A070E3364ECD726EC04F008D0040E65
:1013CC00641804E1629677EC03F001D062963C2A33
:1013DC00030E3C64C2D7030C20EE02F02B50D9262E
:1013EC002C50DA221200E16EE26ADFCFE7FF120026
:0413FC0004001200D7
:1014000045EF0AF012000D604982FACF17F0FBCFCA
:1014100018F0E9CF19F0EACF1AF0E1CF1BF0E2CFD4
:101420001CF0D9CF1DF0DACF1EF0F3CF1FF0F4CFB0
:1014300020F0F6CF21F0F7CF22F0F8CF23F0F5CF50
:1014400024F0F292F2B4F2AA02D065ECA3F024C028
:10145000F5FF23C0F8FF22C0F7FF21C0F6FF20C030
:10146000F4FF1FC0F3FF1EC0DAFF1DC0D9FF1CC070
:10147000E2FF1BC0E1FF1AC0EAFF19C0E9FF18C074
:0E148000FBFF17C0FAFF49921100B8EF96F07B
:10FC700000001180002C0100B102003500360000A8
:10FC8000B202003500360000B30200350036000233
:10FC9000003500360000B4000000C0A2000200845D
:10FCA0000000C1C50000C20D00000000C38D002A85
:10FCB0000000C48D00EE0000C50A000036C8000038
:10FCC000E012001C001000180033002C0025002852
:10FCD00000280027002F003C000000030003001054
:10FCE000008000780000E112001C00100018002DB8
:10FCF00000280023002800280026002F003B0000D9
:10FD000000030003001000003A0500002A00000272
:10FD10000000008100002B000003000000A2000092
:10FD200029002C010000000A00000064000000E827
:10FD300003000010270000A086010040420F008051
:10FD400096980000E1F50500CA9A3B0200040008FD
:10FD500000100020004000800000010001020001AE
:10FD60000001000202000003030300000103070F6B
:10FD70001F3F7FFF0002010301041000000000008C
:10FD800000005F00000007000700147F147F1424A8
:10FD90002A7F2A122313086462364955225000052F
:10FDA000030000001C2241000041221C00082A1C04
:10FDB0002A0808083E080800503000000808080813
:10FDC00008006060000020100804023E5149453ED2
:10FDD00000427F400042615149462141454B311864
:10FDE00014127F1027454545393C4A494930017175
:10FDF0000905033649494936064949291E00363660
:10FE00000000005636000000081422411414141497
:10FE10001441221408000201510906324979413E79
:10FE20007E1111117E7F494949363E414141227F71
:10FE30004141221C7F494949417F090901013E4155
:10FE40004151327F0808087F00417F410020404136
:10FE50003F017F081422417F404040407F0204025E
:10FE60007F7F0408107F3E4141413E7F090909061A
:10FE70003E4151215E7F09192946464949493101D0
:10FE8000017F01013F4040403F1F2040201F7F2055
:10FE900018207F6314081463030478040361514934
:10FEA000454300007F4141020408102041417F008A
:10FEB00000040201020440404040400001020400EE
:10FEC00020545454787F48444438384444442038BB
:10FED0004444487F3854545418087E0901020814D9
:10FEE00054543C7F0804047800447D400020404482
:10FEF0003D00007F10284400417F40007C0418042E
:10FF0000787C0804047838444444387C1414140879
:10FF1000081414187C7C0804040848545454200421
:10FF20003F4440203C4040207C1C2040201C3C4062
:10FF300030403C44281028440C5050503C446454F9
:10FF40004C44000836410000007F000000413608A4
:10FF50000008082A1C08081C2A080800FCFF0F00DB
:10FF600000FFFFF0FF00FFFF0020202020202020C6
:10FF70002020202020202020202020202020200A97
:10FF8000004A616D696E204561726C7920393931A2
:10FF900033333339310A0043757272656E74204D04
:10FFA0006F64653A0A00446972656374696F6E3AFA
:10FFB0002025640A0020436F6E74696E756F757337
:10FFC0000A0A0020556E646566696E65640A0A0057
:10FFD0006D44656C74613A20256C640A0020506F92
:10FFE000736974696F6E0A0A0053706565643A201C
:10FFF00025640A0020537465700A0A002563000016
:020000040001F9
:100000000CD0640E0101B66F010E04D06F0E010119
:10001000B66F010E0101B76F08D00001F651000A5A
:10002000D8B4EFD7010AD8B4F1D7010120EE02F01D
:10003000B651D926B751DA22F6C0DFFFB1D0920E01
:100040000001EB6F000E0001EC6F020E0001ED6F7E
:10005000030E0001EE6FDBEC8BF0920E0001EB6FF4
:10006000000E0001EC6F030E0001ED6F030E0001A6
:10007000EE6FDBEC8BF0920E0001EB6F000E0001D7
:10008000EC6F050E0001ED6F030E0001EE6FDBEC6F
:100090008BF0920E0001EB6F000E0001EC6F040E6E
:1000A0000001ED6F000E0001EE6FDBEC8BF0010143
:1000B00020EE03F0B651D926B751DA22C70EDE6E14
:1000C0000F0EDD6E010120EE06F0B651D926B751B4
:1000D000DA22C60EDE6E0F0EDD6E010120EE09F093
:1000E000B651D926B751DA22C90E56D0880E000172
:1000F000EB6F000E0001EC6F070E0001ED6F030EB9
:100100000001EE6FDBEC8BF0880E0001EB6F000E50
:100110000001EC6F060E0001ED6F030E0001EE6FA3
:10012000DBEC8BF0880E0001EB6F000E0001EC6F32
:10013000040E0001ED6F030E0001EE6FDBEC8BF09F
:10014000880E0001EB6F000E0001EC6F050E000140
:10015000ED6F000E0001EE6FDBEC8BF0010120EE85
:1001600003F0B651D926B751DA226D0EDE6E0F0EAE
:10017000DD6E010120EE06F0B651D926B751DA2224
:100180006C0EDE6E0F0EDD6E010120EE09F0B65131
:10019000D926B751DA226F0EDE6E0F0EDD6E09D052
:1001A0000001F651000AD8B44AD7010AD8A41200B7
:1001B0009DD7010120EE06F0B651D926B751DA22BB
:1001C000DECFC5F0DDCFC6F0050E0001C76F000E13
:1001D0000001C86F6CEC9EF09CD0010120EE06F08F
:1001E000B651D926B751DA22DECFC5F0DDCFC6F041
:1001F000040E0001C76F000E0001C86F6CEC9EF08A
:10020000010120EE03F0B651D926B751DA22DECF34
:10021000C5F0DDCFC6F0060E0001C76F000E00016D
:10022000C86F6CEC9EF084D0010120EE06F0B65150
:10023000D926B751DA22DECFC5F0DDCFC6F0040EE5
:100240000001C76F000E0001C86F6CEC9EF0010149
:1002500020EE03F0B651D926B751DA22DECFC5F031
:10026000DDCFC6F0060E0001C76F010E0001C86F9A
:100270006CEC9EF05DD0010120EE06F0B651D9265F
:10028000B751DA22DECFC5F0DDCFC6F0040E000193
:10029000C76F010E0001C86F6CEC9EF0010120EEEB
:1002A00003F0B651D926B751DA22DECFC5F0DDCF43
:1002B000C6F0060E0001C76F000E0001C86F6CEC9F
:1002C0009EF036D0010120EE06F0B651D926B75186
:1002D000DA22DECFC5F0DDCFC6F0040E0001C76F15
:1002E000010E0001C86F6CEC9EF0010120EE03F0DE
:1002F000B651D926B751DA22DECFC5F0DDCFC6F030
:10030000060E0001C76F010E0001C86F6CEC9EF075
:100310000FD00001F751000AD8B45FD7010AD8B452
:1003200083D7030AD8B4A7D7010AD8A41200CAD722
:10033000010120EE06F0B651D926B751DA22DECF00
:10034000C5F0DDCFC6F0070E0001C76F000E00013B
:10035000C86F6CEC9EF0010120EE06F0B651D92674
:10036000B751DA22DECFC5F0DDCFC6F0060E0001B0
:10037000C76F000E0001C86F6CEC9EF0F2C0D2F0A7
:10038000F3C0D3F0F4C0D4F0F5C0D5F01DEC91F07B
:10039000B6C1C5F0B7C1C6F0E4ECA3F004D09F86A7
:1003A0000BD0A58E09D00001F651000AD8B4F7D7BA
:1003B000010AD8A41200F5D7B6C1C5F0B7C1C6F07E
:1003C0001EECA3F0B6C1D9FFB7C1DAFF000EDF6E95
:1003D000010120EE06F0B651D926B751DA22DECF60
:1003E000D0F0DDCFD1F0000E0001D26F030E00017E
:1003F000D36F2CECA4F0010120EE06F0B651D92603
:10040000B751DA22DECFC5F0DDCFC6F0050E000110
:10041000C76F010E0001C86F6CEC9EF01200080E51
:100420000001D4250001D16F000E0001D52100018B
:10043000D26F000E0001D36FD8ECA1F00001EB6F7A
:100440000001EB510001D76FD86B0E0ED890000160
:10045000D737D837E82EFAD70001EB510001D96F12
:10046000DA6B0C0ED8900001D937DA37E82EFAD7BC
:100470000001EB510001DB6FDC6B0A0ED89000012C
:10048000DB37DC37E82EFAD70001EB510001DE6FD5
:10049000DD6B0001EB510001DF6FE06B060ED890C1
:1004A0000001DF37E037E82EFAD70001EB510001F9
:1004B000E16FE26B0001E13BE23BF00EE217E1513C
:1004C0000F0BE213F00EE1170001EB510001E36F97
:1004D000E46B0001D890E337E4370001D890E337AC
:1004E000E4370001EB510001E56FE66B0001E351D9
:1004F0000001E5130001E4510001E6130001E151A0
:100500000001E5130001E2510001E6130001DF5193
:100510000001E5130001E0510001E6130001DD5187
:100520000001E5130001DE510001E6130001DB517B
:100530000001E5130001DC510001E6130001D9516F
:100540000001E5130001DA510001E6130001D75163
:100550000001E5110001E76F0001D8510001E6112B
:100560000001E86FEBC0E9F00001EA6B080E000142
:10057000D4250001D16F000E0001D5210001D26FFA
:10058000010E0001D36FD8ECA1F00001D76FD86B3A
:100590000001D890D737D8370001D890D737D8374F
:1005A0000001D7510001E9130001D8510001EA13FD
:1005B000080E0001D4250001D16F000E0001D521E5
:1005C0000001D26F020E0001D36FD8ECA1F0000140
:1005D000D76FD86B0001D73BD83BF00ED817D75157
:1005E0000F0BD813F00ED7170001D7510001E913F4
:1005F0000001D8510001EA13080E0001D4250001C2
:10060000D16F000E0001D5210001D26F030E000151
:10061000D36FD8ECA1F00001D76FD86B060ED8903D
:100620000001D737D837E82EFAD70001D75100019B
:10063000E9130001D8510001EA13080E0001D42586
:100640000001D16F000E0001D5210001D26F040E10
:100650000001D36FD8ECA1F00001D76F0001D75192
:100660000001D96FD86B0001D8510001E9130001D6
:10067000D9510001EA13080E0001D4250001D16F01
:10068000000E0001D5210001D26F050E0001D36FCD
:10069000D8ECA1F00001D76FD86B0A0ED8900001FA
:1006A000D737D837E82EFAD70001D7510001E91320
:1006B0000001D8510001EA13080E0001D425000101
:1006C000D16F000E0001D5210001D26F060E00018E
:1006D000D36FD8ECA1F00001D76FD86B0C0ED89077
:1006E0000001D737D837E82EFAD70001D7510001DB
:1006F000E9130001D8510001EA13080E0001D425C6
:100700000001D16F000E0001D5210001D26F070E4C
:100710000001D36FD8ECA1F00001D76FD86B0E0E9B
:10072000D8900001D737D837E82EFAD70001D75133
:100730000001E9130001D8510001EA130001E95159
:100740000001E71948E10001EA510001E819D8A4C5
:10075000120032D0000120EE02F0D451D926D5513A
:10076000DA22DECFC5F0DDCFC6F0D6C0C7F05CEC34
:10077000A5F012000001D61F000120EE02F0D451B6
:10078000D926D551DA22DECFC5F0DDCFC6F0D6C0EE
:10079000C7F05CECA5F01200000120EE04F0D4518B
:1007A000D926D551DA22DECFC5F0DDCFC6F0D6C0CE
:1007B000C7F05CECA5F012000001EB51000AD8B4C0
:1007C0001200010AD8B4C6D7030AD8B4D3D7010A95
:1007D000D8A41200E1D71200000E0001F66F000E3F
:1007E000F56F000E0001F46F000EF36F000E0001B4
:1007F000F26F010EF16F3AD121EE4DF001D80AD01F
:100800000500FA6EDE50FD6EDE50FE6EDE50FF6EAD
:10081000FA501200E806D8A430D021EE57F001D8E3
:100820000AD00500FA6EDE50FD6EDE50FE6EDE5020
:10083000FF6EFA5012000009D8A41FD00001F6BFC5
:1008400008D00001F65119E10A0E0001F55DD8B09B
:1008500014D021EE4DF001D80AD00500FA6EDE501A
:10086000FD6EDE50FE6EDE50FF6EFA501200E8069E
:10087000D8B4EFD70001F54BF62B21EE57F001D895
:100880000AD00500FA6EDE50FD6EDE50FE6EDE50C0
:10089000FF6EFA501200E806D8A430D021EE4DF0D9
:1008A00001D80AD00500FA6EDE50FD6EDE50FE6EF5
:1008B000DE50FF6EFA5012000009D8A41FD00001CC
:1008C000F6BF1CD00001F65104E10001F505D8A0E7
:1008D00015D021EE57F001D80AD00500FA6EDE508F
:1008E000FD6EDE50FE6EDE50FF6EFA501200E8061E
:1008F000D8B4EFD70001F507D8A0F60721EE43F0F2
:1009000001D80AD00500FA6EDE50FD6EDE50FE6E94
:10091000DE50FF6EFA501200E806D8A416D021EE81
:1009200039F001D80AD00500FA6EDE50FD6EDE50B7
:10093000FE6EDE50FF6EFA5012000009D8A405D0FA
:10094000000E0001F46F010EF36F21EE39F001D8B3
:100950000AD00500FA6EDE50FD6EDE50FE6EDE50EF
:10096000FF6EFA501200E806D8A414D021EE43F02E
:1009700001D80AD00500FA6EDE50FD6EDE50FE6E24
:10098000DE50FF6EFA5012000009D8A403D0000117
:10099000F369F469D0ECA3F0FF0E0001C66FE00E1E
:1009A000C56F8DECA5F0E90E0001DB6FFF0E0001B5
:1009B000DC6FF5C0DDF0F6C0DEF0AAEC87F0A60E25
:1009C0000001DB6FFF0E0001DC6FF3C0DDF0F4C04F
:1009D000DEF0AAEC87F0D00E0001DB6FFF0E000105
:1009E000DC6FA3C0DDF0A4C0DEF00001000EDEBFAE
:1009F000FF0EDF6FE06FAAEC87F0D8EC89F0080EED
:100A0000B9ECA1F00009D8B429D0A30E0001E06F21
:100A1000000E0001E16FF5C0C5F0F6C0C6F0420E51
:100A20000001C86F400EC76F6DECA2F0C5C0E2F0C8
:100A3000C6C0E3F0A7ECA3F0A30E0001C86F000E40
:100A40000001C96FF3C0CAF0F4C0CBF050ECA2F0C3
:100A500041ECA5F00009D8A4EEECA2F0F3EC9CF078
:100A600008EC9BF0E9C0F1F0EAC0F2F00001F105FA
:100A70000001F211D8A41200BFD60001C56F7ED0CC
:100A80003F0E1200060E12005B0E12004F0E1200F7
:100A9000660E12006D0E12007D0E1200070E12007F
:100AA0007F0E12006F0E12005F0E12007C0E1200FD
:100AB000580E12005E0E12007B0E1200710E120014
:100AC0006F0E1200740E1200040E12000E0E1200B1
:100AD0007A0E1200060E1200140E1200540E1200AE
:100AE0005C0E1200730E1200670E1200500E120000
:100AF0006D0E1200780E12001C0E1200620E120013
:100B00002A0E1200640E12006E0E12005B0E12000E
:100B1000770E12007F0E1200390E12003F0E1200E7
:100B2000790E1200710E12003D0E1200760E1200A8
:100B3000060E12001E0E1200570E1200380E120082
:100B4000760E1200760E12003F0E1200730E120087
:100B50003F0E1200770E12006D0E1200310E1200C1
:100B60003E0E12003E0E12007E0E1200760E120095
:100B7000660E12005B0E1200800E12000001C551BD
:100B80002E0AD8B4F9D71E0AD8B47AD7010AD8B435
:100B900079D7030AD8B478D7010AD8B477D7070A27
:100BA000D8B476D7010AD8B475D7030AD8B474D7A5
:100BB000010AD8B473D70F0AD8B472D7010AD8B4CF
:100BC00071D7780AD8B4A4D7030AD8B4A3D7010A36
:100BD000D8B4A2D7070AD8B4A1D7010AD8B4A0D7ED
:100BE000030AD8B49FD7010AD8B49ED70F0AD8B445
:100BF0009DD7010AD8B49CD7030AD8B49BD7010A61
:100C0000D8B49AD7070AD8B499D7010AD8B498D7D4
:100C1000030AD8B497D7010AD8B496D71F0AD8B414
:100C200095D7010AD8B494D7030AD8B493D7010A48
:100C3000D8B492D7070AD8B491D7010AD8B490D7BC
:100C4000030AD8B48FD7010AD8B48ED70F0AD8B404
:100C50008DD7010AD8B48CD7030AD8B48BD73B0AF6
:100C6000D8B422D7030AD8B421D7010AD8B420D7E0
:100C7000070AD8B41FD7010AD8B41ED7030AD8B4BC
:100C80001DD7010AD8B41CD70F0AD8B41BD7010A44
:100C9000D8B41AD7030AD8B419D7010AD8B418D7C8
:100CA000070AD8B417D7010AD8B416D7030AD8B49C
:100CB00015D7010AD8B414D71F0AD8B413D7010A1C
:100CC000D8B412D7030AD8B411D7010AD8B410D7B0
:100CD000070AD8B40FD7010AD8B40ED7030AD8B47C
:100CE0000DD7010AD8B40CD70F0AD8B40BD7010A14
:100CF000D8B40AD7030AD8B409D7000E1200050EDB
:100D00000001F86FC7D0010120EE02F0B951D926D9
:100D1000BA51DA22DECFD0F0DDCFD1F0BBC1D2F0B4
:100D20000F0E0001D36F2CECA4F0010120EE04F0B3
:100D3000B951D926BA51DA22DECFD0F0DDCFD1F0C9
:100D4000BBC1D2F0000E0001D36F2CECA4F0B0D0E8
:100D5000B9C1F4F0BAC1F5F0BBC1F6F0030E000161
:100D6000F76F30EC9FF00001F86F0001F851D8A444
:100D70001200010120EE02F0B951D926BA51DA224F
:100D8000DECFD0F0DDCFD1F0BBC1D2F0000E00013C
:100D9000D36F2CECA4F0010120EE04F0B951D92658
:100DA000BA51DA22DECFD0F0DDCFD1F0BBC1D2F024
:100DB000000E0001D36F2CECA4F07AD0B9C1F4F08E
:100DC000BAC1F5F0BBC1F6F0030E0001F76F30ECCD
:100DD0009FF00001F86F0001F851D8A41200010142
:100DE00020EE02F0B951D926BA51DA22DECFD0F086
:100DF000DDCFD1F0BBC1D2F00F0E0001D36F2CECD0
:100E0000A4F0010120EE04F0B951D926BA51DA223A
:100E1000DECFD0F0DDCFD1F0BBC1D2F00F0E00019C
:100E2000D36F2CECA4F044D0B9C1F4F0BAC1F5F002
:100E3000BBC1F6F0030E0001F76F30EC9FF000012C
:100E4000F86F0001F851D8A41200010120EE02F061
:100E5000B951D926BA51DA22DECFD0F0DDCFD1F0A8
:100E6000BBC1D2F0000E0001D36F2CECA4F0010145
:100E700020EE04F0B951D926BA51DA22DECFD0F0F3
:100E8000DDCFD1F0BBC1D2F0000E0001D36F2CEC4E
:100E9000A4F00ED00101BC51000AD8B434D7010A25
:100EA000D8B456D7030AD8B489D7010AD8B4BCD766
:100EB000080E0101B9250001D46F000E0101BA210D
:100EC0000001D56F0101BB51040DF3CFD6F0BCC1B9
:100ED000D7F033ECA1F0080E0101B9250001D46F61
:100EE000000E0101BA210001D56F0101BB51040DB3
:100EF000F3280001D66FBCC1D7F033ECA1F0080E87
:100F00000101B9250001D46F000E0101BA210001D1
:100F1000D56F0101BB51040DF350020F0001D66FD4
:100F2000BCC1D7F033ECA1F0080E0101B9250001D6
:100F3000D46F000E0101BA210001D56F0101BB5130
:100F4000040DF350030F0001D66FBCC1D7F033EC92
:100F5000A1F01200DD0E0001E66F000E0001E76F48
:100F600001D1250E0001EC19D8B405D00001EC51D7
:100F700055ECA5F0F7D0000E0001E56F14D000018C
:100F8000E58911D0E6C0D9FFE7C0DAFFDF500001E4
:100F9000EC6F020E0001E627000EE7230001EC5182
:100FA00055ECA5F0DFD0DBC0F6FFDCC0F7FF000199
:100FB000DB4BDC2B000EF86E0800F5CFECF00001E7
:100FC000EC51000AD8B41200630AD8B4DBD7070A80
:100FD000D8B407D00D0AD8B404D0050AD8B4CFD7F6
:100FE000DDD70001E5A90ED0E6C0D9FFE7C0DAFFE2
:100FF000DECFE8F0DECFE9F0DECFEAF0DECFEBF0D7
:10100000040E0FD0E6C0D9FFE7C0DAFFDECFE8F06C
:10101000DDCFE9F00001000EE9BFFF0EEA6FEB6FD4
:10102000020E0001E627000EE7230001EBAF0CD013
:10103000030E0001E5130001EB1FEA1FE91FE86D35
:10104000000EE923EA23EB23010E0001EC6F0A0EE8
:101050000001EC19D8B421D00001EC51040D230E8D
:10106000F324F66EFD0EF420F76EF86A000EF822F7
:101070000900F5500001E85D0900F5500001E9594B
:101080000900F5500001EA590900F5500001EB593B
:10109000D8A003D00001EC2BDAD7E5C0E1F0030EB5
:1010A0000001E117D8B403D02D0E55ECA5F00001D6
:1010B000EC510001E36FE46BE3BFE40748D0E3C009
:1010C000E1F0E4C0E2F00001D890E137E23700013E
:1010D000D890E137E237230E0001E125F66EFD0ED0
:1010E000E221F76EF86A000EF8220900F5CFC9F088
:1010F0000900F5CFCAF00900F5CFCBF00A00F5CF13
:10110000CCF0E8C0C5F0E9C0C6F0EAC0C7F0EBC05B
:10111000C8F0A2EC95F0C5C0D2F0C6C0D3F0C7C0ED
:10112000D4F0C8C0D5F00A0E0001D66F000ED76FFC
:10113000000ED86F000ED96F52EC99F00001D25119
:10114000300F0001EC6F0001EC5155ECA5F00001EF
:10115000E307D8A0E4070001E329B1E10001E42995
:10116000D8A4ADD7DBC0F6FFDCC0F7FF0001DB4B36
:10117000DC2B000EF86E0800F5CFECF00001EC510E
:10118000D8B41200EED6050E0101C16F7AD001016C
:1011900020EE02F0BC51D926BD51DA22DECFBFF1DC
:1011A000DDCFC0F1BFC1D9FFC0C1DAFFFF0E67D0EC
:1011B000BCC1B9F1BDC1BAF1010E0101BB6FC8ECF0
:1011C000A0F00101C16F0101C151D8A412000101B9
:1011D00020EE02F0BC51D926BD51DA22DECFBFF19C
:1011E000DDCFC0F1BFC1D9FFC0C1DAFF000EDF6E95
:1011F000010120EE04F036D0BCC1B9F1BDC1BAF195
:10120000020E0101BB6FC8ECA0F00101C16F01012A
:10121000C151D8A41200010120EE02F0BC51D92620
:10122000BD51DA22DECFBFF1DDCFC0F1BFC1D9FFA2
:10123000C0C1DAFFFF0EDF6E010120EE04F0AAD775
:10124000BCC1B9F1BDC1BAF1000E0101BB6FC8EC60
:10125000A0F00101C16F0101C151D8A41200010128
:1012600020EE02F0BC51D926BD51DA22DECFBFF10B
:10127000DDCFC0F1BFC1D9FFC0C1DAFF000EDF6E04
:101280000ED00101BE51000AD8B481D7010AD8B4EA
:101290008FD7030AD8B4B0D7010AD8B4D1D7080E73
:1012A0000101BC250001D46F000E0101BD21000128
:1012B000D56F000E0001D66FBEC1D7F033ECA1F0A0
:1012C000080E0101BC250001D46F000E0101BD21F3
:1012D0000001D56F010E0001D66FBEC1D7F033EC0F
:1012E000A1F0080E0101BC250001D46F000E010120
:1012F000BD210001D56F020E0001D66FBEC1D7F02F
:1013000033ECA1F0080E0101BC250001D46F000EE2
:101310000101BD210001D56F030E0001D66FBEC1D2
:10132000D7F033ECA1F0080E0101BC250001D46F09
:10133000000E0101BD210001D56F040E0001D66F22
:10134000BEC1D7F033ECA1F0080E0101BC250001AD
:10135000D46F000E0101BD210001D56F050E000103
:10136000D66FBEC1D7F033ECA1F0080E0101BC2549
:101370000001D46F000E0101BD210001D56F060EE2
:101380000001D66FBEC1D7F033ECA1F0080E010109
:10139000BC250001D46F000E0101BD210001D56FF5
:1013A000070E0001D66FBEC1D7F033ECA1F01200DA
:1013B0000001FF51D8B41200CCC1EBF0CDC1ECF06C
:1013C000CEC1EDF0CFC1EEF000017D51D8B404D014
:1013D00036C0EAF00F0E366E000E0001F06FDFD05F
:1013E0000001F051020D000EF324D96E010EF4201D
:1013F000DA6EDECFFDF0DDCFFEF0000E0001EF6F04
:10140000130E0001EF6501D0BED00001F051140DA4
:10141000460E0001E86F020E0001E96FF350000173
:10142000E827F4500001E9230001EF51010DF350CA
:101430000001E825D96EF4500001E921DA6EDFAE33
:101440009AD00001F051140D460E0001E86F020E13
:101450000001E96FF3500001E827F4500001E9238F
:101460000001EF51010DF3500001E825D96EF45051
:101470000001E921DA6E7F0EDF160001F051140D34
:10148000460E0001E86F020E0001E96FF350000103
:10149000E827F4500001E9230001EF51010DF3505A
:1014A0000001E825D96EF4500001E921DA6EDF5021
:1014B000D8B44AD074C0CEF075C0CFF0EBC0D0F035
:1014C000ECC0D1F0EDC0D2F0EEC0D3F0F9C0D4F052
:1014D000FAC0D5F0FBC0D6F0FCC0D7F045EC9CF0CC
:1014E0000001F051140D460E0001E86F020E0001DC
:1014F000E96FF3500001E827F4500001E9230001EF
:10150000EF51010DF3500001E825D96EF4500001B0
:10151000E921DA6EDF5018EC94F0CAC0D7F0CBC0E6
:10152000D8F0EBC0D9F0ECC0DAF0EDC0DBF0EEC0E3
:10153000DCF0F9C0DDF0FAC0DEF0FBC0DFF0FCC08B
:10154000E0F0B2EC98F017D0000E0001CF6F000E63
:10155000CE6FEBC0D0F0ECC0D1F0EDC0D2F0EEC059
:10156000D3F0F9C0D4F0FAC0D5F0FBC0D6F0FCC07F
:10157000D7F045EC9CF0060E0001EB27000EEC23A3
:101580000001EF2B3DD7080E0001ED27000EEE23E2
:10159000000E0001EC6F060EEB6F0001F02B000156
:1015A000F051365CD8B01CD700017D51D8B4120080
:1015B000000E00017D6FEAC036F012005A0E0101E4
:1015C000BD6F010E0101BE6F000E0101C06F020E62
:1015D000BF6F5E0E0101C16F4B0E0101C26F010EA4
:1015E0000101C36F9A0E0101C46F490E0101C56F5D
:1015F000010E0101C66FF80E0101C76F460E010111
:10160000C86F010E0101C96FAEEC93F03C0E0101F1
:10161000BD6F010E0101BE6F000E0101C06F020E11
:10162000BF6F5E0E0101C16F4B0E0101C26F010E53
:101630000101C36FFA0E0101C46F490E0101C56FAC
:10164000010E0101C66FBA0E0101C76F3E0E010106
:10165000C86F010E0101C96FAEEC93F0320E0101AB
:10166000BD6F010E0101BE6F000E0101C06F020EC1
:10167000BF6F5E0E0101C16F4B0E0101C26F010E03
:101680000101C36FE20E0101C46F490E0101C56F74
:10169000010E0101C66FAC0E0101C76F420E0101C0
:1016A000C86F010E0101C96FAEEC93F0460E010147
:1016B000BD6F010E0101BE6F000E0101C06F020E71
:1016C000BF6F5E0E0101C16F4B0E0101C26F010EB3
:1016D0000101C36FCA0E0101C46F490E0101C56F3C
:1016E000010E0101C66FAC0E0101C76F450E01016D
:1016F000C86F010E0101C96FAEEC93F0500E0101ED
:10170000BD6F010E0101BE6F000E0101C06F020E20
:10171000BF6F5E0E0101C16F4B0E0101C26F010E62
:101720000101C36FB20E0101C46F490E0101C56F03
:10173000010E0101C66F7A0E0101C76F450E01014E
:10174000C86F010E0101C96FAEEC93F0A00E00014D
:10175000F26F860EF36F010EF46F000EF56F000E40
:101760000001F66F020E0001F76F00EC80F0640ECE
:101770000001D46F010E0001D56FB9EC9CF0000E92
:101780000101CB6F000ECA6F0101CB5113E1080EAE
:101790000101CA5DD8B012002A0E0101CA25D96E16
:1017A000010E0101CB21DA6E000EDF6E0101CA4B82
:1017B000CB2BEAD71200EBC0D9FFECC0DAFFDECFAB
:1017C000F0F0DDCFF1F0050E0001EF6FB5D00001B4
:1017D00020EE02F0EB51D926EC51DA22DECFC5F033
:1017E000DDCFC6F0EDC0C7F0010E0001C86F6CEC94
:1017F0009EF0B0D0F0C0D4F0F1C0D5F0010E0001E1
:10180000D66FEDC0D7F090EC9BF00001EF6F0001B8
:10181000EF51D8A41200000120EE02F0EB51D926BE
:10182000EC51DA22DECFC5F0DDCFC6F0EDC0C7F057
:10183000000E0001C86F6CEC9EF0000120EE04F079
:10184000EB51D926EC51DA22DECFC5F0DDCFC6F060
:10185000EDC0C7F0000E0001C86F6CEC9EF07AD0AE
:10186000F0C0D4F0F1C0D5F0020E0001D66FEDC08B
:10187000D7F090EC9BF00001EF6F0001EF51D8A47E
:101880001200000120EE02F0EB51D926EC51DA22D1
:10189000DECFC5F0DDCFC6F0EDC0C7F0010E000110
:1018A000C86F6CEC9EF0000120EE04F0EB51D926DD
:1018B000EC51DA22DECFC5F0DDCFC6F0EDC0C7F0C7
:1018C000010E0001C86F6CEC9EF044D0F0C0D4F063
:1018D000F1C0D5F0000E0001D66FEDC0D7F090EC4E
:1018E0009BF00001EF6F0001EF51D8A4120000013E
:1018F00020EE02F0EB51D926EC51DA22DECFC5F012
:10190000DDCFC6F0EDC0C7F0000E0001C86F6CEC73
:101910009EF0000120EE04F0EB51D926EC51DA22C2
:10192000DECFC5F0DDCFC6F0EDC0C7F0000E000180
:10193000C86F6CEC9EF00ED00001EE51000AD8B4D6
:1019400046D7010AD8B456D7030AD8B489D7010AB2
:10195000D8B4BCD7080E0001EB250001D46F000EEF
:101960000001EC210001D56FEDC0D6F0EEC0D7F03C
:1019700033ECA1F012000101C4510CEC98F0C2C18B
:10198000D9FFC3C1DAFF0001C5C0DEFF0001C6C038
:10199000DDFF0101C4515FEC98F0010120EE06F07B
:1019A000C251D926C351DA220001C5C0DEFF0001B1
:1019B000C6C0DDFF0101C4515FEC98F0010120EECB
:1019C00004F0C251D926C351DA220001C5C0DEFF9E
:1019D0000001C6C0DDFF0101C451B9EC97F001015F
:1019E00020EE02F0C251D926C351DA220001C5C04F
:1019F000DEFF0001C6C0DDFF010120EE04F0C25190
:101A0000D926C351DA22DECFC5F1DDCFC6F1C5C17B
:101A1000D9FFC6C1DAFF000EDF6E010120EE02F031
:101A2000C251D926C351DA22DECFC5F1DDCFC6F1CE
:101A3000C5C1D9FFC6C1DAFFFF0EDF6EC2C1BCF15E
:101A4000C3C1BDF1000E0101BE6FC3EC88F0000EF2
:101A50000101C76F070E0101C76531D04BD0C2C16C
:101A6000EBF0C3C1ECF0C7C1EDF0030E0001EE6F67
:101A7000DBEC8BF03CD0C2C1EBF0C3C1ECF0C7C1D2
:101A8000EDF0020E0001EE6FDBEC8BF030D0C2C146
:101A9000EBF0C3C1ECF0C7C1EDF0010E0001EE6F39
:101AA000DBEC8BF024D0C2C1EBF0C3C1ECF0C7C1BA
:101AB000EDF0000E0001EE6FDBEC8BF018D0C2C130
:101AC000D9FFC3C1DAFFDECFD1F0DDCFD2F0C7C17D
:101AD000D3F0D8ECA1F0000AD8B4C1D7010AD8B429
:101AE000D6D7030AD8B4C7D7010AD8B4DCD70101C6
:101AF000C72BB0D7C2C1D4F0C3C1D5F0000E0001CE
:101B0000D66F0FEC82F012000001D86FA8D0EBEC7A
:101B100099F0120056ECA0F01200C3EC9AF01200FB
:101B2000E2EC94F012003AEC9EF01200A7ECA4F064
:101B30001200D8C0D5F07F0E0001D5173650140D15
:101B4000460E0001D66F020E0001D76FF350000160
:101B5000D627F4500001D7233750010DF350000170
:101B6000D625D96EF4500001D721DA6EDF507F0BF5
:101B70000001D519D8B42BD0010E0001FF6F3650EB
:101B8000140D460E0001D56F020E0001D66FF35002
:101B90000001D527F4500001D6233750010DF35032
:101BA0000001D525D96EF4500001D621DA6E00016E
:101BB000D8518009DF6E3650020D000EF324D96E25
:101BC000010EF420DA6EFDC0DEFFFEC0DDFF3AEC50
:101BD0009EF00009D8B41200D8C0D5F07F0E0001E5
:101BE000D5173650140D460E0001D66F020E0001B7
:101BF000D76FF3500001D627F4500001D723375098
:101C0000010DF3500001D625D96EF4500001D72103
:101C1000DA6EDF507F0B0001D519D8B41200010E27
:101C20000001FF6F3650140D460E0001D56F020EF5
:101C30000001D66FF3500001D527F4500001D623E0
:101C40003750010DF3500001D525D96EF450000135
:101C5000D621DA6E0001D8518009DF6E1200000132
:101C6000D851070AD8B45FD70F0AD8B453D7010A9E
:101C7000D8B456D7030AD8B44AD7060AD8B44DD731
:101C8000010AD8B444D72D0AD8B453D7030AD8B41C
:101C90004DD74FD7010E436E000E256E000E266EF7
:101CA000000E276EA20E0101C26F010E0101C36F6B
:101CB000000E0101C46FBBEC8CF0980E0101C26FE5
:101CC000010E0101C36F010E0101C46FBBEC8CF06A
:101CD000920E0101C26F000E0101C36F020E0101DD
:101CE000C46FBBEC8CF0880E0101C26F000E0101C5
:101CF000C36F030E0101C46FBBEC8CF07E0E0101BB
:101D0000C26F000E0101C36F040E0101C46FBBEC72
:101D10008CF0AC0E0101C26F010E0101C36F050E04
:101D20000101C46FBBEC8CF08E0E0101C26F010E7D
:101D30000101C36F060E0101C46FBBEC8CF0AC0E49
:101D40000001EB6F010E0001EC6F050E0001ED6F5D
:101D5000000E0001EE6FDBEC8BF0980E0101B96F05
:101D6000010E0101BA6F000E0101BB6F000E0101EF
:101D7000BC6F7FEC86F0AC0E0001EB6F010E000132
:101D8000EC6F060E0001ED6F030E0001EE6FDBEC51
:101D90008BF08E0E0101BC6F010E0101BD6F030EB1
:101DA0000101BE6FC3EC88F08E0E0001D46F010EEE
:101DB0000001D56F040E0001D66F000E0001D76F31
:101DC00080EC94F0AC0E0001D46F010E0001D56FD1
:101DD000060E0001D66F010E0001D76F80EC94F063
:101DE000000ECFEC9EF0010ECFEC9EF0000E9E6E2A
:101DF000000EA16E000EA46E9B8E9B8C000E000147
:101E0000C66F640EC56FD0EC9DF0D08E12002CEC26
:101E10009DF0000E0101BB6F000EBA6F0101BB51B6
:101E200006E1590E0101BA5DD8B08BD001D089D03E
:101E3000D8900101BA35F66E0101BB35F76E710E0F
:101E4000F626FC0EF722F86A000EF8220900800E32
:101E5000F5180900F510D8A422D00101BB511FE1EB
:101E6000580E0101BA5DD8B01AD00101BA4BBB2B94
:101E7000D8900101BA35F66E0101BB35F76E710ECF
:101E8000F626FC0EF722F86A000EF8220900F5CFBC
:101E9000C5F00A00F5CFC6F0D0EC9DF04BD0D8903D
:101EA0000101BA35F66E0101BB35F76E710EF626EB
:101EB000FC0EF722F86A000EF8220900000EF55E0B
:101EC0000900010EF55AD8A020D0000E0001C86FFD
:101ED000D8900101BA35F66E0101BB35F76E710E6F
:101EE000F626FC0EF722F86A000EF8220900F5CF5C
:101EF000B8F10900F5CFB9F1B9C1B8F10101B96B79
:101F00000101B8510AECA4F015D0010E0001C86F10
:101F1000D8900101BA35F66E0101BB35F76E710E2E
:101F2000F626FC0EF722F86A000EF8220800F5509B
:101F30000AECA4F00101BA4BBB2B0101BB5101E13A
:101F400070D7000E0001C66F640EC56FD0EC9DF017
:101F5000000E0001C86F290E0AECA4F0010E9FECE0
:101F600099F0000E0001C66F640EC56FD0EC9DF0B5
:101F7000000E0001CF6F000ECE6F89EC9FF01200B3
:101F8000000120EE07F0E051D926E151DA2201D814
:101F90000AD00500FA6EDE50FD6EDE50FE6EDE5099
:101FA000FF6EFA5012000001E86FE0C0D9FFE1C0F7
:101FB000DAFF0001E851DE18D8A421D0000120EE9C
:101FC00001F0E051D926E151DA220001E251DE5C54
:101FD000D8B00AD0000120EE01F0E051D926E1513D
:101FE000DA22000EDF6E1200000120EE01F0E05157
:101FF000D926E151DA220001E251DF5E1200000130
:1020000020EE01F0E051D926E151DA22DF50000143
:10201000E36FE46B0001E2510001E327000EE423CB
:10202000000120EE01F0E051D926E151DA22DF5023
:102030000001E56FE66B0001E3510001E55D000181
:10204000E651800A0001E76F0001E451800A0001B7
:10205000E759D8B01200000120EE01F0E051D92676
:10206000E151DA220001E251DF26000120EE02F008
:10207000E051D926E151DA22000110EE01F0E051E1
:10208000E126E151E222E7500001E56FE66BDE5008
:102090000001E55DDE500001E659D8A01200E0C065
:1020A000D9FFE1C0DAFFE8C0DFFF000120EE01F058
:1020B000E051D926E151DA22000EDF6E000120EE58
:1020C00004F0E051D926E151DA2201D812000500CE
:1020D000FA6EDE50FD6EDE50FE6EDE50FF6EFA5080
:1020E0000001E8511200800E0001D86F8D0ED96FEB
:1020F0005B0EDA6F000EDB6FD59E0001D25100013E
:10210000D3110001D4110001D511D8B41200D59615
:10211000D59CD59AD598D8C0C5F0D9C0C6F0DAC03C
:10212000C7F0DBC0C8F0D2C0C9F0D3C0CAF0D4C079
:10213000CBF0D5C0CCF0A2EC95F0C5C0DCF0C6C0A9
:10214000DDF0C7C0DEF0C8C0DFF009D0312A020ED2
:10215000316401D02DD0070E316401D01200DCC0F3
:10216000C5F0DDC0C6F0DEC0C7F0DFC0C8F031503A
:10217000020D4B0EF324F66EFD0EF420F76EF86A96
:10218000000EF8220900F5CFD6F00900F5CFD7F000
:10219000D6C0C9F0D7C0CAF00001CB6BCC6BA2ECA3
:1021A00095F00001C851D2E10001C705D8B0CED7E3
:1021B0003150020D4B0EF324F66EFD0EF420F76E37
:1021C000F86A000EF8220800F5CF30F0FF0E00018B
:1021D000DC250001646FFF0E0001DD210001656F49
:1021E000FF0E0001DE210001666FFF0E0001DF21FE
:1021F0000001676F64C0C5F065C0C6F066C0C7F077
:1022000067C0C8F030500001C96FCA6BCB6BCC6B94
:10221000A2EC95F00001C51F0001C61F0001C54BCF
:10222000C62BFF0E0001C525286EFF0E0001C6213A
:10223000296E71ECA5F0D58E1200000E0001DB6F47
:102240006C0EDC6FDC0EDD6F020EDE6F0001D890CD
:10225000D237D337D437D537020E0001D66FD89096
:102260000001DE33DD33DC33DB330001D62FF7D75B
:10227000DBC0C5F0DCC0C6F0DDC0C7F0DEC0C8F012
:10228000D2C0C9F0D3C0CAF0D4C0CBF0D5C0CCF016
:10229000A2EC95F0C5C0DFF0C6C0E0F0C7C0E1F029
:1022A000C8C0E2F00ED0000E0001D76F000ED86F4C
:1022B000000ED96F000EDA6F2F2A020E2F6401D0A4
:1022C00025D0DFC0C5F0E0C0C6F0E1C0C7F0E2C075
:1022D000C8F02F50010D780EF324F66EFD0EF42099
:1022E000F76EF86A000EF8220800F5500001C96F79
:1022F000CA6BCB6BCC6BA2EC95F00001C85100010E
:10230000C711D1E10001C605D8B0CDD7CA502F18EA
:10231000FC0B2F18CA6ECA849BECA5F02F50010D40
:10232000780EF324F66EFD0EF420F76EF86A000EB8
:10233000F8220800F5CF2EF0FF0E0001DF25000186
:10234000606FFF0E0001E0210001616FFF0E0001D0
:10235000E1210001626FFF0E0001E2210001636FC5
:1023600060C0C5F061C0C6F062C0C7F063C0C8F00D
:102370002E500001C96FCA6BCB6BCC6BA2EC95F0F1
:102380000001C5512F6E2FC0CBFF120049B258EF8C
:1023900092F020EE04F02A50D9262B50DA22DF509A
:1023A00078ECA1F00009D8B47AD02AC0D9FF2BC0AC
:1023B000DAFFDE50DE10D8B46DD02AC0D9FF2BC0B2
:1023C000DAFF010EDBBE26D0010EDB5003E1DE0496
:1023D000D8A020D02AC0D9FF2BC0DAFFDE2804E124
:1023E0007F0EDE18D8B407D02AC0D9FF2BC0DAFF81
:1023F000DE06000EDD5A7E0E0001D46F000E0001D5
:10240000D56F000E0001D66F010E0001D76F80EC72
:1024100094F01FD02AC0D9FF2BC0DAFFDE0404E1FC
:10242000800EDE18D8B407D02AC0D9FF2BC0DAFF3F
:10243000DE2A000EDD227E0E0001D46F000E0001A8
:10244000D56F000E0001D66F000E0001D76F80EC33
:1024500094F07E0E0001D46F000E0001D56F010EC6
:102460000001D66F010E0001D76F80EC94F07E0E54
:102470000001D46F000E0001D56F010E0001D66F70
:10248000000E0001D76F80EC94F041ECA5F077ECE2
:10249000A5F0120041ECA5F0A6ECA5F012006BC06F
:1024A000C5F06CC0C6F06DC0C7F063ECA5F01200BB
:1024B00020EE04F02A50D9262B50DA22DF5088EC87
:1024C000A2F00009D8B46AD02AC0D9FF2BC0DAFF25
:1024D000DE50DE10D8B45DD02AC0D9FF2BC0DAFFA1
:1024E000010EDBBE22D0010EDB5003E1DE04D8A0DA
:1024F0001CD02AC0D9FF2BC0DAFFDE2804E17F0EF2
:10250000DE18D8B407D02AC0D9FF2BC0DAFFDE0608
:10251000000EDD5A7E0E106E000E116E000E126E51
:10252000010E136E64EC97F01BD02AC0D9FF2BC0AC
:10253000DAFFDE0404E1800EDE18D8B407D02AC02A
:10254000D9FF2BC0DAFFDE2A000EDD227E0E106ED0
:10255000000E116E000E126E000E136E64EC97F0FA
:102560007E0E106E000E116E010E126E010E136EB5
:1025700064EC97F07E0E106E000E116E010E126E5E
:10258000000E136E64EC97F0ACECA5F07DECA5F0BA
:102590001200ACECA5F0A9ECA5F012006BC001F0A4
:1025A0006CC002F06DC003F06AECA5F01200CCC064
:1025B000D4F0CDC0D5F0000E0001D36F000ED26F65
:1025C000CEC0D0F0CFC0D1F00001D4510001D51160
:1025D000D8A434D0D0C0D9FFD1C0DAFF300EDF6E1E
:1025E000000E0001D36F010ED26F40D0D4C0C5F0F1
:1025F000D5C0C6F0000E0001C86F0A0EC76F9EEC72
:102600009EF00001C551300FD0C0D9FFD1C0DAFF14
:10261000DF6ED4C0C5F0D5C0C6F0000E0001C86F93
:102620000A0EC76FCEEC9BF0C5C0D4F0C6C0D5F083
:102630000001D24BD32B0001D04BD12B0001D45140
:102640000001D511D8B408D00001D35105E1060E20
:102650000001D25DD8A0CAD7CEC0C5F0CFC0C6F0A9
:10266000D2C0C7F0D3C0C8F064EC9DF00001D251D5
:102670000001CE25D96E0001D3510001CF21DA6EC1
:10268000000EDF6E1200F2C0D9FFF3C0DAFF000EB9
:10269000DE6E000EDD6E000120EE02F0F251D92652
:1026A000F351DA22000EDE6E000EDD6E000120EE28
:1026B00004F0F251D926F351DA22F4C0DEFFF5C05E
:1026C000DDFF7E0E0001EB6F000E0001EC6F000ECF
:1026D0000001ED6F030E0001EE6FDBEC8BF07E0E60
:1026E0000001EB6F000E0001EC6F010E0001ED6FB9
:1026F000030E0001EE6FDBEC8BF07E0E0001D46F59
:10270000000E0001D56F000E0001D66F000E000113
:10271000D76F80EC94F07E0E0001D46F000E0001A4
:10272000D56F010E0001D66F000E0001D76F80EC4F
:1027300094F08C0E00016B6F230E00016C6F010E84
:1027400000016D6FE80E0001D26F030ED36F000E13
:10275000D46F000ED56F73EC90F012000101BD51E3
:102760000101BE11D8B412000101C1510101C21111
:102770000101C311D8B412000101C4510101C511F6
:102780000101C611D8B412000101C7510101C811DD
:102790000101C911D8B412000101BF510101C011DA
:1027A000D8A405D0000E0101C06F010EBF6FBDC1DE
:1027B000D9FFBEC1DAFF000EDF6E010120EE01F08D
:1027C000BD51D926BE51DA22000EDF6E010120EE86
:1027D00002F0BD51D926BE51DA22BFC1DEFFC0C111
:1027E000DDFF010120EE04F0BD51D926BE51DA22F1
:1027F000C7C1DEFFC8C1DEFFC9C1DEFF010120EE97
:1028000007F0BD51D926BE51DA22C4C1DEFFC5C1D1
:10281000DEFFC6C1DEFF01D812000500FA6E01011D
:10282000C151FD6EC251FE6EC351FF6EFA501200CF
:102830000001D06F200E0001D05F0001D051050DC6
:10284000F3CFCEF0F4CFCFF07B0E0001CE25000108
:10285000D16FFD0E0001CF210001D26F000E0001EB
:10286000D56F040E0001D56501D043D0000E0001E4
:10287000D66F060E0001D66501D035D0D1C0C5F0A7
:10288000D2C0C6F0D6C0C7F0A3ECA2F00009D8A40D
:1028900005D074C0D3F075C0D4F004D0FDC0D3F01F
:1028A000FEC0D4F00001D6510A0D000E0001CC6F1D
:1028B000020E0001CD6FF3500001CC27F45000014F
:1028C000CD230001D551020DF3500001CC25D96E66
:1028D000F4500001CD21DA6ED3C0DEFFD4C0DDFF9D
:1028E0000001D62BC6D70001D14BD22B0001D52B2E
:1028F000B8D7000E0001CA6F020E0001CB6F1200A4
:10290000080E0001D4250001D16F000E0001D52171
:102910000001D26FD6C0D3F0D8ECA1F00001D86F7F
:1029200042D0010E0001D717000120EE02F0D45171
:10293000D926D551DA22DECFC5F0DDCFC6F0D6C01C
:10294000C7F0D7C0C8F06CEC9EF01200010E000179
:10295000D717010E0001D71B000120EE02F0D45161
:10296000D926D551DA22DECFC5F0DDCFC6F0D6C0EC
:10297000C7F0D7C0C8F06CEC9EF01200010E000149
:10298000D717000120EE04F0D451D926D551DA2210
:10299000DECFC5F0DDCFC6F0D6C0C7F0D7C0C8F0D7
:1029A0006CEC9EF012000001D851000AD8B412005D
:1029B000010AD8B4B6D7030AD8B4C8D7010AD8A434
:1029C0001200DCD7000E0001D36FFA0E3F24000185
:1029D000C56FFF0E40200001C66F000E0001C86FDA
:1029E000060EC76F43EC95F00001C5510001D46F8E
:1029F000D4C0C5F00001C66B000E0001C86F040E04
:102A0000C76F43EC95F00001C5510001D26F000E75
:102A10000001D36F06D0F7ECA1F03AEC9EF0000174
:102A2000D32B0001D251040DF31EF41EF34AF42AF5
:102A30000001D4510001CD6FCE6BF3500001CD27C2
:102A4000F4500001CE230001CD1FCE1FCD4BCE2B65
:102A5000040E0001CD27000ECE230001D35100014A
:102A6000CF6FD06B0001CD510001CF5D0001D0517F
:102A7000800A0001D16F0001CE51800A0001D159B6
:102A8000D8B01200C8D7000E0001CA6F0001C8AF4D
:102A900008D00001C76DC81FD8B0C82B010E0001B7
:102AA000CA6F0001C6AF08D00001C56DC61FD8B0FF
:102AB000C62B010E0001CA1B000E0001CC6F000ED8
:102AC000CB6F0001C7510001C811D8B42CD0010E42
:102AD0000001C96F06D00001D890C737C837000180
:102AE000C92B0001C8AFF7D70001D890CB37CC373E
:102AF0000001C7510001C55D0001C8510001C65960
:102B0000D8A00AD00001C7510001C55F0001C8511B
:102B10000001C65B0001CB810001D890C833C733E8
:102B20000001C92FE1D70001CA510001D8B405D076
:102B30000001CB6DCC1FD8B0CC2BCBC0C5F0CCC026
:102B4000C6F01200000E0001CD6F000ECE6F000E19
:102B5000CF6F000ED06F0001C9510001CA110001F2
:102B6000CB110001CC11D8B442D0010E0001D16FBD
:102B700008D00001D890C937CA37CB37CC3700010D
:102B8000D12B0001CCAFF5D70001D890CD37CE378F
:102B9000CF37D0370001C9510001C55D0001CA51CE
:102BA0000001C6590001CB510001C7590001CC51A9
:102BB0000001C859D8A012D00001C9510001C55F59
:102BC0000001CA510001C65B0001CB510001C75B87
:102BD0000001CC510001C85B0001CD810001D890FB
:102BE000CC33CB33CA33C9330001D12FCDD7CDC0BD
:102BF000C5F0CEC0C6F0CFC0C7F0D0C0C8F012003C
:102C0000000E0001CA6F000EC96F38D02A0E0001F5
:102C1000C925D96E010E0001CA21DA6EC6C0E1FFD6
:102C2000C7C0E2FFE7503DEC85F0DF6E2A0E0001E1
:102C3000C925D96E010E0001CA21DA6E800EDE1898
:102C4000D8A40ED00001C907D8A0CA072A0E0001D7
:102C5000C925D96E010E0001CA21DA6E000EDB8E85
:102C60000001C64BC72B0001C94BCA2B0001CA513A
:102C70001AE1060E0001C95DD8B015D0C6C0D9FF53
:102C8000C7C0DAFFDF50D8B40ED0C0D72A0E00017B
:102C9000C925D96E010E0001CA21DA6E000EDF6E61
:102CA0000001C94BCA2B0001CA5106E1060E000102
:102CB000C95DD8B01200EAD712000001C951010D58
:102CC0006B0EF324F66EFD0EF420F76EF86A000E1C
:102CD000F8220800F5CFCFF0000E0001CE6F06D02D
:102CE0000001C7510001C85F0001CE2B0001C75190
:102CF0000001C85DD8B0F4D70001C9510001C80374
:102D0000F350C86F0001CE510001C8270001CF5118
:102D10000001CA17C8C0CBF0CFC0CCF00001CB2B4C
:102D200003D00001D890CC370001CB2FFAD7000197
:102D3000CC51FF0A0001CD6FC5C0D9FFC6C0DAFF74
:102D40000001CD51DF16C8C0CBF0CAC0CCF00001E5
:102D5000CB2B03D00001D890CC370001CB2FFAD772
:102D6000C5C0D9FFC6C0DAFF0001CC51DF12120086
:102D70002E0EF66E4B0EF76E010EF86E01EECCF0D5
:102D800010EE08F00900F5CFEEFFE550E150FAE152
:102D90003E0EF66E4B0EF76E010EF86E00EEF9F079
:102DA00010EE07F00900F5CFEEFFE550E150FAE133
:102DB000060EF66E4B0EF76E010EF86E00EE3FF04B
:102DC00010EE0AF00900F5CFEEFFE550E150FAE110
:102DD00002EE46F011EE2CF0EE6AE550E150FCE117
:102DE000E250FAE102EE00F0460EEE6AE806FDE17E
:102DF00001EE00F0B60EEE6AE806FDE100EE60F0CE
:102E0000650EEE6AE806FDE100EE25F01A0EEE6AA8
:102E1000E806FDE1499049920001BCEFA3F00001F2
:102E2000CD6F020E0001CA27020E0001CC27030E4F
:102E30000001CD27030E0001CB27000E0001C86F53
:102E40002A0E0AECA4F0010E0001C86F000E0AEC75
:102E5000A4F0010E0001C86F0001CD510AECA4F0EE
:102E6000010E0001C86F000E0AECA4F0010E000173
:102E7000C86F0001CB510AECA4F0000E0001C86F2E
:102E80002B0E0AECA4F0010E0001C86F000E0AEC34
:102E9000A4F0010E0001C86F0001CA510AECA4F0B1
:102EA000010E0001C86F000E0AECA4F0010E000133
:102EB000C86F0001CC510AECA4F0000E0001C86FED
:102EC0002C0E0AECA4F01200080E10240D6E000E59
:102ED00011200E6E12C00FF036ECA3F0146E3BD032
:102EE000010E131620EE02F01050D9261150DA22EE
:102EF000DECF01F0DDCF02F012C003F013C004F00A
:102F00007DECA0F01200010E1316010E131A20EE34
:102F100002F01050D9261150DA22DECF01F0DDCFB9
:102F200002F012C003F013C004F07DECA0F0120018
:102F3000010E131620EE04F01050D9261150DA229B
:102F4000DECF01F0DDCF02F012C003F013C004F0B9
:102F50007DECA0F012001450000AD8B41200010A4F
:102F6000D8B4BED7030AD8B4CED7010AD8A4120069
:102F7000DFD70001C76F38D0920E0001C56F0F0E6A
:102F80000001C66F1200930E0001C56F0F0E000105
:102F9000C66F1200940E0001C56F0F0E0001C66FC0
:102FA0001200950E0001C56F0F0E0001C66F1200D2
:102FB000960E0001C56F0F0E0001C66F1200970E2E
:102FC0000001C56F0F0E0001C66F1200980E0001C0
:102FD000C56F0F0E0001C66F1200000E0001C56F15
:102FE000000E0001C66F12000001C751000AD8B4DC
:102FF000C3D7010AD8B4C7D7030AD8B4CBD7010ABC
:10300000D8B4CFD7070AD8B4D3D7010AD8B4D7D702
:10301000030AD8B4DBD7E1D70001C76F38D0670EF9
:103020000001C56FFF0E0001C66F1200650E0001A2
:10303000C56FFF0E0001C66F1200630E0001C56F61
:10304000FF0E0001C66F1200610E0001C56FFF0E7A
:103050000001C66F12005F0E0001C56FFF0E000178
:10306000C66F12005D0E0001C56FFF0E0001C66F36
:1030700012005B0E0001C56FFF0E0001C66F12004B
:10308000000E0001C56F000E0001C66F12000001A6
:10309000C751000AD8B4C3D7010AD8B4C7D7030AA6
:1030A000D8B4CBD7010AD8B4CFD7070AD8B4D3D76E
:1030B000010AD8B4D7D7030AD8B4DBD7E1D70001C7
:1030C000C76F38D0800E0001C56F0F0E0001C66FAC
:1030D0001200810E0001C56F0F0E0001C66F1200B5
:1030E000820E0001C56F0F0E0001C66F1200830E25
:1030F0000001C56F0F0E0001C66F1200840E0001A3
:10310000C56F0F0E0001C66F1200850E0001C56F5E
:103110000F0E0001C66F1200860E0001C56F0F0E64
:103120000001C66F1200000E0001C56F000E000105
:10313000C66F12000001C751000AD8B4C3D7010AF4
:10314000D8B4C7D7030AD8B4CBD7010AD8B4CFD7DD
:10315000070AD8B4D3D7010AD8B4D7D7030AD8B44A
:10316000DBD7E1D7000E0001E76F0001D951000164
:10317000DD250001E56F0001DB510001DF250001C5
:10318000E66FDFC0C5F0E0C0C6F0DDC0C7F0DEC04E
:10319000C8F06DECA2F0C5C0E3F0C6C0E4F0DBC03F
:1031A000CAF00001E5050001CB6F0001E605000152
:1031B000CC6F0001D9510FEC97F0000E0001E76FC2
:1031C00013D00001E751020DF3500001D725D96E4D
:1031D000F4500001D821DA6EDECFCAF0DDCFCBF09B
:1031E0004DECA4F00001E72B0001E7510001E16F75
:1031F000E26B0001E3510001E15D0001E4510001D7
:10320000E259D8B01200DDD7C5C0F6FFC6C0F7FF3F
:10321000000EF86E0F0EF76403D00800F55005D0CD
:10322000F6CFE9FFF7CFEAFFEF500001CD6F0001C5
:10323000C951010D6B0EF324F66EFD0EF420F76EEE
:10324000F86A000EF8220800F5CFCBF0000E00015E
:10325000CC6F06D00001C7510001C85F0001CC2B24
:103260000001C7510001C85DD8B0F4D70001C951B1
:103270000001C803F350C86F0001CC510001C827FA
:103280000001C8290001CA6F03D00001D890CD33D6
:103290000001CA2FFAD70001CB510001CD17000160
:1032A000CD5112000001D6510001D7110001D811F3
:1032B0000001D911D8B43AD0010E0001DA6F08D05C
:1032C0000001D890D637D737D837D9370001DA2B55
:1032D0000001D9AFF5D70001D6510001D25D000140
:1032E000D7510001D3590001D8510001D459000130
:1032F000D9510001D559D8A010D00001D6510001F4
:10330000D25F0001D7510001D35B0001D851000109
:10331000D45B0001D9510001D55B0001D890D933AD
:10332000D833D733D6330001DA2FD5D7D2C0D2F075
:10333000D3C0D3F0D4C0D4F0D5C0D5F01200000172
:10334000CA6F000E0001CB6F000E0001C86F360E71
:103350000AECA4F00001CA51030B0001CB6F2CD082
:10336000010E0001C86FC80E0AECA4F0800E486E72
:10337000800E476E1200010E0001C86FA80E0AEC05
:10338000A4F0800E486E800E476E1200010E000100
:10339000C86F080E0AECA4F0800E486E800E476ECF
:1033A0001200010E0001C86F680E0AECA4F0800E36
:1033B000486E800E476E12000001CB51000AD8B44F
:1033C000CFD7010AD8B4D7D7030AD8B4DFD7010AB8
:1033D000D8A41200E6D739D03650140D460E00019D
:1033E000C56F020E0001C66FF3500001C527F450EF
:1033F0000001C6233750010DF3500001C525D96ED9
:10340000F4500001C621DA6EDF50D8B41DD0010E91
:103410000001FF6F3650140D460E0001C56F020EFD
:103420000001C66FF3500001C527F4500001C62308
:103430003750010DF3500001C525D96EF45000013D
:10344000C621DA6E800EDF6E372A130E3764C4D7BA
:10345000000E376E362A080E4126000E4222000E5C
:10346000406E060E3F6E12000001CB6F740EF66EBA
:10347000FD0EF76E000EF86E0900F5CFC7F00900DB
:10348000F5CFC8F00900F5CFC9F00A00F5CFCAF0B2
:10349000110E0001CC6F030E0001CB170001CB51C0
:1034A000010DC70EF324D96E000EF420DA6EDF5042
:1034B0000001C56FCCC0C6F00001C52B03D00001D0
:1034C000D890C6370001C52FFAD70001C6510001B8
:1034D000CC6F0001CC390F0B0001CC6F0001CC5137
:1034E0000F0B0001CC6F010130510001CC19F00B22
:1034F000CC190101306F1200F80E0001C66F000EEA
:10350000C56F8DECA5F0970E0001DB6FFF0E00017B
:10351000DC6FAAEC87F024D0DD0E0001DB6FFF0E1C
:103520000001DC6FAAEC87F01200F40E0001DB6FE3
:10353000FF0E0001DC6FAAEC87F01200B50E00014F
:10354000DB6FFF0E0001DC6FAAEC87F01200C30EE8
:103550000001DB6FFF0E0001DC6FAAEC87F01200A8
:1035600008EC9BF00001EA51000AD8A4F0D7000152
:10357000E951010AD8B4E2D7030AD8B4D6D7010A70
:10358000D8B4CAD7E4D7000E376E000E366E000EE0
:103590000001C86F0E0E0001C86501D02DD0000ECD
:1035A0000001C76F130E0001C76501D022D0010EC4
:1035B0000001FF6F0001C851140D460E0001C56FD8
:1035C000020E0001C66FF3500001C527F450000140
:1035D000C6230001C751010DF3500001C525D96E66
:1035E000F4500001C621DA6E800EDF6E0001C72B99
:1035F000D9D70001C82BCED7010E00017D6F000E78
:10360000406E060E3F6E000E426E060E416E1200B8
:10361000F3EC9CF021EE61F001D80AD00500FA6EBF
:10362000DE50FD6EDE50FE6EDE50FF6EFA50120070
:103630000001EB6F0001EB510001ED6FEE6B18D054
:10364000000E0001EA6F030EE96F1200000E000188
:10365000EA6F020EE96F1200000E0001EA6F010E20
:10366000E96F1200000E0001EA6F000EE96F120010
:10367000EDC0EBF0EEC0ECF00001EC51000AD8A474
:10368000F1D70001EB51020AD8B4DAD7060AD8B450
:10369000DDD70C0AD8B4E0D7E5D7000E376E000EA0
:1036A000366E000E0001C76F130E0001C76501D012
:1036B0001200000E0001C86F0E0E0001C86501D097
:1036C0002CD00001C851140D460E0001C56F020E2A
:1036D0000001C66FF3500001C527F4500001C62356
:1036E0000001C751010DF3500001C525D96EF450FA
:1036F0000001C621DA6E000EDF6E0001C851020D16
:10370000000EF324D96E010EF420DA6EFF0EDE6E89
:10371000FF0EDD6E0001C82BCFD70001C72BC4D729
:103720005B0EF66EFD0EF76E000EF86E20EEDAF010
:103730000F0E0900F5CFDEFFE806FBE2D4C0D1F0A2
:10374000D5C0D2F0D7C0D3F0D8ECA1F00001EA6F19
:10375000040E0001D66120D0040E0001EA611CD0E5
:103760000001D651040DDA0E0001D86F000E0001E1
:10377000D96FF3500001D827F4500001D92300017C
:10378000EA51010DF3500001D825D96EF450000123
:10379000D921DA6EDF501200050E1200000E000172
:1037A000CB6F000ECA6F0001C7510001C811D8B419
:1037B0002CD0010E0001C96F06D00001D890C73788
:1037C000C8370001C92B0001C8AFF7D70001D89056
:1037D000CA37CB370001C7510001C55D0001C85190
:1037E0000001C659D8A00AD00001C7510001C55F29
:1037F0000001C8510001C65B0001CA810001D890D8
:10380000C833C7330001C92FE1D7CAC0C5F0CBC048
:10381000C6F0120001C0F6FF02C0F7FF000EF86EFE
:103820000F0EF76403D00800F55005D0F6CFE9FF7E
:10383000F7CFEAFFEF50096E0550010D6B0EF32430
:10384000F66EFD0EF420F76EF86A000EF8220800FE
:10385000F5CF07F0000E086E03D00350045E082A6F
:103860000350045CD8B0F9D705500402F350046E3D
:10387000085004260428066E02D0D8900932062E7D
:10388000FCD70750091609501200000E0001DA6F2C
:10389000000E0001DB6FD2C0CAF00001D051000160
:1038A000D4250001D86F0001D8050001CB6F0001BD
:1038B000D2510001D6250001D96F0001D9050001C0
:1038C000CC6F0001D0510FEC97F0D6C0DBF00001B7
:1038D000DB510001D8B41200D4C0DAF00001DA5193
:1038E0000001D8B409D0CEC0CAF0CFC0CBF04DECA7
:1038F000A4F00001DA07F2D70001DB07E8D70001E6
:1039000020EE06F0D451D926D551DA22DECFC5F00B
:10391000DDCFC6F0050E0001C76F000E0001C86FB5
:103920006CEC9EF0000120EE06F0D451D926D55162
:10393000DA22DECFD0F0DDCFD1F0000E0001D26F61
:10394000000E0001D36F2CECA4F0000120EE06F075
:10395000D451D926D551DA22DECFC5F0DDCFC6F05D
:10396000050E0001C76F010E0001C86F6CEC9EF0E0
:103970001200000120EE06F0D451D926D551DA22EA
:10398000DECFC5F0DDCFC6F0050E0001C76F000E1B
:103990000001C86F6CEC9EF0000120EE06F0D451DF
:1039A000D926D551DA22DECFD0F0DDCFD1F0000E0E
:1039B0000001D26F020E0001D36F2CECA4F00001C5
:1039C00020EE06F0D451D926D551DA22DECFC5F04B
:1039D000DDCFC6F0050E0001C76F010E0001C86FF4
:1039E0006CEC9EF0120096685A0E0001E06F010E1A
:1039F0000001E16F010E0001E26FC0EC8FF03C0EA0
:103A00000001E06F010E0001E16F010E0001E26FA5
:103A1000C0EC8FF0320E0001E06F010E0001E16F8B
:103A2000010E0001E26FC0EC8FF0460E0001E06F66
:103A3000010E0001E16F010E0001E26FC0EC8FF09A
:103A4000500E0001E06F010E0001E16F010E000158
:103A5000E26FC0EC8FF01200AC0E0001EB6F010EB4
:103A60000001EC6F070E0001ED6F030E0001EE6F19
:103A7000DBEC8BF0AC0E0001EB6F010E0001EC6F84
:103A8000060E0001ED6F030E0001EE6FDBEC8BF014
:103A90002EECA0F0C00E0001F26FC60EF36F2D0EDB
:103AA000F46F000EF56F010E0001F66F010E0001BC
:103AB000F76F00EC80F06F0E0001D46F010E000173
:103AC000D56F7FEC9CF012000001C7510001C525A5
:103AD0000001CA6F0001C8510001C6210001CB6F6F
:103AE0001AD0C5C0D9FFC6C0DAFFDF500001C96FC8
:103AF000CAC0D9FFCBC0DAFFC5C0E1FFC6C0E2FF34
:103B0000DFCFE7FF0001C54BC62BCAC0D9FFCBC032
:103B1000DAFFC9C0DFFF0001CA07D8A0CB07000148
:103B2000CA510001C55D0001CB510001C659D8B092
:103B30001200D7D726D096C0D9FF97C0DAFF000170
:103B4000DF94C7C0C9FFC7A0FED7C9CFC7F096C0D2
:103B5000D9FF97C0DAFF0001DF8412008CC0D9FFC3
:103B60008DC0DAFF0001DF9EC7C06FFF6DA0FED7DA
:103B70006FCFC7F08CC0D9FF8DC0DAFF0001DF8E98
:103B80001200000120EE02F0C551D926C651DA22FA
:103B9000DF50000AD8B4CFD7010AD8A41200DED76C
:103BA0001FD0000E0001C76F000EC86F000EC96F56
:103BB000000ECA6F0001CA510001C91111E1B00E17
:103BC0000001C75D040E0001C859D8B009D000F04B
:103BD000010E0001C727000EC823C923CA23EAD754
:103BE0000001C507D8A0C6070001C529DAE1000118
:103BF000C629D8A4D6D7080E0001C76F800EC86F9B
:103C0000000EC96F000ECA6F1200050E0001F16FA1
:103C1000EBC0D9FFECC0DAFFDECFF2F0DDCFF3F07E
:103C20000001ED51020DF3CFEFF00001ED51020D57
:103C3000F3280001F06FF2C0D4F0F3C0D5F0EEC06D
:103C4000D6F0EFC0D7F090EC9BF00001F16F0001CF
:103C5000F151D8A40CD0F2C0D4F0F3C0D5F0EEC02E
:103C6000D6F0F0C0D7F090EC9BF00001F16F0001AE
:103C7000F1511200372A060E3F26000E4022060E92
:103C80003F240001C96F000E40200001CA6F0001EF
:103C9000CABF09D00001CA5104E1800E0001C95D0C
:103CA000D8B0EBEC99F0080E41240001C96F000E6A
:103CB00042200001CA6F0001CABF0CD00001CA51E6
:103CC00005E1800E0001C95DD8A004D0C3EC9AF0D4
:103CD000010E1200000E1200010E0001C817C7C02D
:103CE000C9F0010E0001CA6F0001C92B03D0000109
:103CF000D890CA370001C92FFAD70001CA51FF0A6C
:103D00000001CB6FC5C0D9FFC6C0DAFF0001CB519F
:103D1000DF16C7C0C9F0C8C0CAF00001C92B03D064
:103D20000001D890CA370001C92FFAD7C5C0D9FF02
:103D3000C6C0DAFF0001CA51DF1212000001C751EC
:103D40000001C811D8B426D0010E0001C96F06D0F9
:103D50000001D890C737C8370001C92B0001C8AF90
:103D6000F7D70001C7510001C55D0001C85100012E
:103D7000C659D8A008D00001C7510001C55F000195
:103D8000C8510001C65B0001D890C833C733000199
:103D9000C92FE7D7C5C0C5F0C6C0C6F012000001E4
:103DA000F26F1ED0920E0001EB6F000E0001EC6F5F
:103DB000000E0001ED6F030E0001EE6FDBEC8BF0E7
:103DC00017D0920E0001EB6F000E0001EC6F010E98
:103DD0000001ED6F030E0001EE6FDBEC8BF008D0FD
:103DE0000001F251000AD8B4DDD7010AD8B4E9D7EE
:103DF000000E0001D96F0001F25106ECA0F0120094
:103E00004AEC8EF0010EB9ECA1F00009D8B40CD048
:103E100007EC8FF04DEC9BF0DEEC8AF041ECA5F066
:103E20000009D8A4EEECA2F0080EB9ECA1F000094C
:103E3000D8B413D0A30E0001F26F000E0001F36F8F
:103E4000000E0001F56F080EF46F43EC93F041ECA7
:103E5000A5F00009D8A4EEECA2F092ECA5F01200B7
:103E6000050E0101B86F0001F651020DF3CFB6F156
:103E70000001F651020DF3280101B76FF4C0EBF019
:103E8000F5C0ECF0B6C1EDF0F7C0EEF005EC9EF039
:103E90000101B86F0101B851D8A40CD0F4C0EBF007
:103EA000F5C0ECF0B7C1EDF0F7C0EEF005EC9EF018
:103EB0000101B86F0101B85112000001DE6F00016D
:103EC000DE512BECA5F00001DE510001D8A41DD07D
:103ED0000001D8906E376F3700016F2900016E1115
:103EE000D8A406D0000E00016F6F000E6E6F09D0CF
:103EF00000016F5106E100016E29D8B002D0000127
:103F00006E8100016E5188ECA5F0000EECECA0F083
:103F10001200000E0001D06F000E0001D16F000EE4
:103F20000001CA6F48040001CB6F47040001CC6F49
:103F3000000E0FEC97F047C0D1F00001D151000105
:103F4000D8B4120048C0D0F00001D0510001D8B45C
:103F500009D0CEC0CAF0CFC0CBF04DECA4F0000128
:103F6000D007F2D70001D107E8D71CD0000E00011E
:103F7000C76F000EC86F000EC96F000ECA6F000138
:103F8000C7510001C8110001C9110001CA11D8A40C
:103F900009D000F0010E0001C727000EC823C92375
:103FA000CA23EDD70001C507D8A0C6070001C5295F
:103FB000DDE10001C629D8B41200D8D708EC9BF087
:103FC000E9C0B6F1EAC0B7F10CD0ECEC83F0120016
:103FD00002EC0AF01200B1ECA5F0120033ECA2F0F2
:103FE0001200B6C1F7F0B7C1F8F00001F851000AAD
:103FF000D8A4F4D70001F751010AD8B4E6D7030AD0
:10400000D8B4E6D7010AD8B4E6D7E8D70001DA6F0A
:104010001CD0920E0001D46F000E0001D56F000E6F
:104020000001D66FD9C0D7F080EC94F01200920E48
:104030000001D46F000E0001D56F010E0001D66F94
:10404000D9C0D7F080EC94F012000001DA51000AD8
:10405000D8B4DFD7010AD8A41200E9D76BECA4F0DA
:10406000010EECECA0F0000E0001C66F800EC56FD3
:10407000D0EC9DF0010EECECA0F05CECA4F0000E96
:104080000001C66F800EC56FD0EC9DF0010EECEC08
:10409000A0F06BECA4F0000E0001C66F800EC56F9F
:1040A000D0EC9DF0010EECECA0F012003750D8B42B
:1040B00006D0FA0E3F26FF0E402237061BD03650A0
:1040C000D8B40CD0000E406E720E3F6EF80E412632
:1040D000FF0E4222130E376E36060CD0000E406ED5
:1040E000060E3F6E000E426E060E416E000E376EDB
:1040F000000E366EF7ECA1F01200010E041603C09C
:1041000005F0010E066E052A02D0D8900636052E5F
:10411000FCD70650FF0A076E01C0D9FF02C0DAFFC4
:104120000750DF1603C005F004C006F0052A02D0D0
:10413000D8900636052EFCD701C0D9FF02C0DAFFA1
:104140000650DF121200000120EE06F0C551D926FC
:10415000C651DA22DECFC8F0DDCFC9F0C8C0D9FF22
:10416000C9C0DAFFDF500001CA6F0001C751040D5A
:10417000F3280001C86F03D00001D890CA330001B2
:10418000C82FFAD70F0E0001CA170001CA5112003A
:10419000050E0001F86FB9C1F4F0BAC1F5F0000ED8
:1041A0000001F66FBBC1F7F030EC9FF00001F86F33
:1041B0000001F851D8A40DD0B9C1F4F0BAC1F5F09E
:1041C000010E0001F66FBBC1F7F030EC9FF000016B
:1041D000F86F0001F85112000001DD6F18D0920E47
:1041E0000001D96F000E0001DA6F000E0001DB6FD5
:1041F00006ECA3F01200920E0001D96F000E000130
:10420000DA6F010E0001DB6F06ECA3F01200000173
:10421000DD51000AD8B4E3D7010AD8A41200EBD7C5
:10422000000120EE06F0C551D926C651DA22DECFB4
:10423000C8F0DDCFC9F0C8C0D9FFC9C0DAFFDF5070
:104240000001CA6F0001C7290001C86F03D0000137
:10425000D890CA330001C82FFAD7010E0001CA173F
:104260000001CA511200030E0001D66514D0010EE0
:104270000001D4250001D06F000E0001D5210001FE
:10428000D16F0001D651FC0F0001D26FD7C0D3F01F
:104290001BECA4F01200D4C0D0F0D5C0D1F0D6C031
:1042A000D2F0D7C0D3F01BECA4F012000001DE6FF7
:1042B0000001DE5120ECA5F00001DE510001D8A480
:1042C00013D000016E5100016F11D8A405D0FF0E6C
:1042D00000016F6F000E6E6F0001D8906F336E3368
:1042E00000016E5188ECA5F0000EECECA0F012007D
:1042F0000001CC6F86500F0B0001CB6F4350D8A448
:1043000002D0000E1200000E436E0001CC510001DD
:10431000CB19D8B40CD0F00E86160001CC51861201
:10432000000E0001C66F0A0EC56FB5EC9FF0010EBE
:10433000120016D0000E036E000E046E000E056E05
:10434000000E066E0350041005100610D8A408D005
:1043500000F0010E0326000E042205220622F2D7E9
:104360000106D8A002060128E5E10228D8B412000F
:10437000E1D70001CC6F86500F0B0001CB6F43508B
:10438000D8B4FDD7000E436E0001CC510001CB190B
:10439000D8B40CD0F00E86160001CC518612000E57
:1043A0000001C66F0A0EC56FB5EC9FF0010E12003A
:1043B000030E0001D36512D0010E0001D1250001CA
:1043C000CE6F000E0001D2210001CF6F0001D3514A
:1043D000FC0F0001D06F98ECA4F01200D1C0CEF019
:1043E000D2C0CFF0D3C0D0F098ECA4F01200010EF0
:1043F0000001FF6F3650140D460E0001C56F020E0E
:104400000001C66FF3500001C527F4500001C62318
:104410003750010DF3500001C525D96EF45000014D
:10442000C621DA6E800EDF6E12000001DE6F000121
:10443000DE510001D8A413D00001782B000178517F
:1044400000017027000E712370C0D6F071C0D7F044
:1044500092ECA3F000017851030B34EC9AF0000EBB
:10446000ECECA0F01200D0ECA3F0690E0001DB6FC1
:10447000FF0E0001DC6FAAEC87F0690E0001DB6F14
:10448000FF0E0001DC6FAAEC87F0690E0001DB6F04
:10449000FF0E0001DC6FAAEC87F0D8EC89F0120067
:1044A000C8C02AF0C9C02BF0C8C0D9FFC9C0DAFF04
:1044B000DE50DE10D8A41200C8C0D9FFC9C0DAFF90
:1044C000CAC0DEFFCBC0DDFF6BC0C5F06CC0C6F05C
:1044D0006DC0C7F0F8ECA3F012000001C551000157
:1044E000C703F3CFC9F0F4CFCAF00001C5510001F2
:1044F000C803F3500001CA270001C6510001C703D9
:10450000F3500001CA27C9C0C5F0CAC0C6F01200E6
:10451000086E86500F0B076E4350D8A402D0000ED1
:104520001200000E436E08500718D8B40AD0F00EDF
:10453000861608508612000E026E0A0E016E99EC65
:10454000A1F0010E1200C5C0F6FFC6C0F7FF000EB5
:10455000F86E0800F5CFC9F00001C7290001C86F47
:1045600003D00001D890C9330001C82FFAD7010E3B
:104570000001C9170001C95112000001DE6F0001DE
:10458000DE5136ECA5F00001DE510001D8A40AD0BE
:1045900000017007D8A0710770C0D6F071C0D7F0C5
:1045A00092ECA3F0000EECECA0F012000001DE6F24
:1045B0000001DE5115ECA5F00001DE510001D8A488
:1045C00009D00001704B712B70C0D6F071C0D7F0CC
:1045D00092ECA3F0000EECECA0F012002550261097
:1045E0002710D8B40CD001D80AD00500FA6E255097
:1045F000FD6E2650FE6E2750FF6EFA501200000E20
:10460000256E000E266E000E276E1200D9C0C5F072
:10461000DAC0C6F0DBC0C7F010ECA1F00001DC6F1F
:10462000010E0001DC1BD9C0D4F0DAC0D5F0DBC02C
:10463000D6F0DCC0D7F080EC94F01200000120EE40
:1046400002F0C551D926C651DA22DF50D8A407D0CE
:1046500096C0D9FF97C0DAFF0001DF8412008CC03A
:10466000D9FF8DC0DAFF0001DF8E1200030E0F6448
:104670000CD0010E0D240A6E000E0E200B6E0F5092
:10468000FC0F0C6EB4ECA4F012000DC00AF00EC0CA
:104690000BF00FC00CF0B4ECA4F012000001DE6FC0
:1046A000A3ECA5F00001DF6F0F0E0001DF17000182
:1046B000DE3BF00EDE170001DE510001DF1188EC59
:1046C000A5F0000EECECA0F01200A9ECA5F00001A2
:1046D00068510001691100016A11D8B4120001D8B3
:1046E00012000500FA6E00016851FD6E6951FE6E00
:1046F0006A51FF6EFA5012000001DE6FA3ECA5F0C4
:104700000001DF6F0001DE510001DF1188ECA5F030
:10471000F00E0001DF170F0E0001DE17000EECECAB
:10472000A0F01200D6C0CCF0D7C0CDF02A0E000108
:10473000CE6F010E0001CF6FD7EC92F02A0E000170
:10474000C66F010E0001C76F00EC96F01200000169
:1047500020EE02F0E051D926E151DA22E2C0DEFF7C
:10476000E3C0DDFFE2C0D2F0E3C0D3F00001D46BC0
:10477000D56B73EC90F0120000EC9FF0010EB9ECD9
:10478000A1F00009D8B4FAD7D0ECA3F0DEEC9FF08A
:1047900041ECA5F00009D8B4F1D7EEECA2F0EED7C9
:1047A000FC0E0001DB6FFF0E0001DC6F000E00014C
:1047B000DE6F230EDD6FAAEC87F03DECA4F07CECFD
:1047C0009AF0D8EC89F0120004D09D961200A39EB6
:1047D0001200000120EE02F0C551D926C651DA229E
:1047E000DF50000AD8B4F1D7010AD8A41200EFD7DD
:1047F000C5C068F0C6C069F0C7C06AF028C0D6FF5F
:1048000029C0D7FFD5503118F80B3118D56EF29466
:10481000F28A12000001C96F0001C8514CECA5F0EA
:104820006F0E0001C56F010E0001C66FC9C0C7F051
:104830009AEC9DF01200D0C0C5F0D1C0C6F0040EB5
:104840000001C76FD2C0C8F0020E0001C96FD3C00B
:10485000CAF05DEC96F01200D0C0C5F0D1C0C6F031
:10486000020E0001C76FD2C0C8F0040E0001C96F6C
:10487000D3C0CAF05DEC96F01200070E0001C66FBF
:10488000E00EC56F8DECA5F0810E0001DB6FFF0E11
:104890000001DC6FAAEC87F01200010E0001C86F66
:1048A0000001CB510AECA4F0010E0001C86F000119
:1048B000CA510AECA4F01200AC0E0001D46F010E34
:1048C0000001D56F060E0001D66F010E0001D76FF3
:1048D00080EC94F01200AC0E0001D46F010E0001C8
:1048E000D56F060E0001D66F000E0001D76F80EC69
