:100000000DEF04F026EF00F004EF0AF0D1EC04F05D
:10001000FF0000F000F012000CEF0AF018EF00F003
:10003000F26AFC6A9BEC04F004009EEC09F0D8EC38
:1000400003F0F3EC03F05EEC08F0F6D701501F0B61
:10005000E80601E01200055001E01200060E021849
:1000600014E01AD0020E3D6E4A0E3FD8306A090ED7
:100070000AD0020E3D6E450402E1870E36D84504D3
:100080000AE1306A1D0E2F6E06D00450210AEAE004
:10009000030AEFE0010A42820138E832030BE80666
:1000A00014E01200020E3D6E440E206E24D0020EAB
:1000B0003D6E04C044F0020C020E3D6E430EF5D7B7
:1000C000020E3D6E03C043F0020C0250010AD8B488
:1000D0001200030AE7E0010AEFE00A0AD8B41200AE
:1000E000030AE5E0010AECE01200206E2050D8A4DB
:1000F000100E216E1200216A4292010E2F6E010C29
:100100004F6A140E506E516A296A2A6A4FC0F6FF70
:1001100050C0F7FF51C0F8FF42D80800F5CFDFFF0D
:100120004F2A000E50225122294A2A2A040E2A5C04
:10013000EDE30D0EE8CFB2F4600EE8CFB3F4000E9D
:10014000496E050E486E0AEC03F04F68170E506EAC
:10015000516A030E2A6E296851C0F8FF50C0F7FF9C
:100160004FC0F6FF1CD8DF50F56E0C0029C04EF0D2
:100170003F0E4E1607E1FEEC09F0040EA66EB50E1A
:1001800067EC04F04F06000E505A515A0A002950ED
:100190002A1001E112002906D8A02A06DDD7AC0EEC
:1001A0002924D96E040E2A20DA6E120003040BE112
:1001B00001501F0B08E1010E3D6E030E021802E113
:1001C000428001D042900350D8A4120001501F0B6E
:1001D000020AD8A4120005500F0BD8B4120028D878
:1001E000476A040E486E4726000E4822F350472601
:1001F000F450482223D847241D6EF45048201E6E28
:10020000030E021805E10FD8040EDF6E0CD81CD0C7
:1002100005AE04D008D8400EDF6E400C04D8080E9E
:10022000DF6E01D811D01DC0D9FF1EC0DAFF120049
:10023000010E3D6E05500F0B080D1200010E05AEAC
:10024000000E040DF3501200000EDB8E000C3D502A
:1002500010E193EC03F0196E3A0405E1010E32EC63
:1002600003F03A6A1200000E32EC03F0010E3A6E0F
:10027000010C01AE1BD0010E3E6E2F50075C3050BA
:10028000085804E207C02FF008C030F076EC01F007
:10029000480E196E010E32EC03F0000E32EC03F042
:1002A000240E04010A6F040E0B6F1CD0020E3E6E6A
:1002B000040E196E0750081002E1480E196E3A0438
:1002C00005E1010E32EC03F03A6A05D0000E32EC83
:1002D00003F0010E3A6E07500810D8A41200040172
:1002E000096B00D0480E086F088F480C080E326E5C
:1002F00030500DE1080E2F5C0AE22FC032F0405062
:1003000002E1010E03D0400402E1020E406E32C051
:1003100009F432502F5E000E305A240E1D6E040E6A
:100320001E6E42A21AD00BD01BD813EC01F00F0E98
:10033000F76403D00800F55001D019D81ED8325008
:10034000F3E112000DD813EC01F00F0EF76403D0A7
:100350000800F55001D00BD810D83250F3E112004C
:1003600020C0F6FF21C0F7FF000EF86E1200F6CF96
:10037000E1FFF7CFE2FFE7501200DF6E1D4A1E2AB1
:10038000204A212A320612000138E832030B18E015
:100390001200010E3D6E040E416E040C010E3D6E06
:1003A000450E206E7BEF00F02CD8496E49C020F03E
:1003B0007BEF00F026D8D96EDA6A03C0DFFF1200A7
:1003C000025002E179EF02F0010A02E1D6EF00F0FB
:1003D000020A02E1D6EF00F0060ADBE0030A02E1BE
:1003E00006EF02F0010AD8B412000F0AD7E0010AA2
:1003F00002E155EF03F0030AD7E0010ADBE0070A48
:100400001200010E3D6E0550460F1200800E0118BD
:1004100030E01200010E3D6EA40E75EC00F0120EDD
:1004200009D003502DE1010E3D6E380E75EC00F041
:10043000306A290E2F6E24D0010E3D6E0350010F3D
:10044000476E47C0F6FF100EF76E000EF86E0900FB
:10045000F5CF20F0100E216EB0EC01F00F0EF76416
:1004600003D00800F55002D0B7EC01F02F6E306ACF
:1004700007D00450010ACEE0030AD3E0010ADCE011
:1004800042821200366A27D03850486E000E48BEAD
:10049000FF0E496E4A6E4B6E4850155C0D6E49500A
:1004A00016580E6E4A5017580F6E4B501858106E53
:1004B0000FC0F8FF0EC0F7FF0DC0F6FF11D80D00FA
:1004C000362A0ED80C00362A240EA66EB50E67EC1E
:1004D00004F0FE0E38263850800A7F0FD5E2120055
:1004E000AC0E3624D96EDA6A040EDA22DF50F56ECD
:1004F0001200246B256B22D0010E3D6E42B0248386
:1005000024D0010E3D6E21D018EC01F0476A040E94
:10051000486E4726000E4822F3504726F4504822E2
:100520001EEC01F047241D6EF45048201E6E13ECA3
:1005300001F0DFA40AD0010E246F07D001501F0B79
:10054000DBE0010ADEE0030ADFE03D04D8A412008C
:10055000240E206E040E216E4292020E2F6E020CAB
:10056000400E486401D0486E4A6A0DD047504A2474
:10057000D96EDA6A6C0E4A24E16EE26A040EE22257
:10058000DFCFE7FF4A2A48504A5CF0E348C011F445
:10059000400E0401101710BD03D0496A492A01D04A
:1005A000496A493A49464946040110514918BF0B66
:1005B0004918106F1087108F12003F6A0CBF12008D
:1005C00048500D5D02E20DC448F03F6A0BD02C0E7E
:1005D0003F24D96EDA6A040EDA2247503F24F9EC40
:1005E00009F03F2A48503F5CF2E3400E0D6F0C17B4
:1005F0000CBD03D0496A492A01D0496A493A4946A3
:10060000494604010C514918BF0B49180C6F0C875F
:100610000C8F1200495006E1050E485C03E2496A5E
:10062000050E486E48504A6E49504B6E4C6A4D6AF2
:100630000A0ED8904A364B364C364D36E82EF9D74E
:100640004AC009F04BC00AF04CC00BF04DC00CF092
:100650000BC0F8FF0AC0F7FFF66A140EA66EB50EBF
:1006600067EF04F0476E080E1A6E1C0E1B6E040E28
:100670001C6E475006E1140E1B6E040E1C6E256A9C
:1006800002D0040E256E266E0BD819C0DEFF1AC0EC
:10069000DEFF1BC0DEFF1CC0DEFF02D8DF8E1200B3
:1006A00025C0D9FF26C0DAFF1200010E3D6E0F01F2
:1006B00016D8346A3450460FD96EDA6ADF6A342AA3
:1006C0003450F8E003C045F04550C9EC04F0035045
:1006D00003E1050E416E050C060E416E060C4D6BD6
:1006E0004E6B4F6B506B516B526B536B1200040E81
:1006F000411808E103C05EFF0F015E51050ED8B43A
:10070000030E416E3E04D8A4120076EC01F0020EF6
:10071000401802E108D8040C0401480E08BD080E78
:10072000086F088F1200040E0401086F088F040C74
:10073000030E416E0F015D6B626A7B0E5C6F5E6B38
:100740006FEC03F0160E4C6F658C03D06296FEECD6
:1007500009F062B6FBD7659C6598040E196E000E11
:1007600032EC03F0010E3A6E426A456A000EC9EFA0
:1007700004F081B818EC00F0060EF66E14D80D0ED9
:10078000F5180DE10900600EF51809E1F66A0BD8BD
:10079000F52803E10900F52802E000EF0AF018EC63
:1007A00000F000EF00F0140EF76EF86A0900140C68
:1007B0002306D8A0240623502410D8A412004E0EDD
:1007C000246E236A060E416002D08B80060C8BB02B
:1007D00003D0476A472A01D0476A8B504718FE0B5F
:1007E00047188B6E1200C0BC1200030ED36E6592C8
:1007F0006596F26A0ED808D0C0AC04D02D06D8A0F9
:100800002E0601D006D804002D502E10F5E1FF0071
:100810001200040E2E6E2D6A040C04EEACF014EEE1
:1008200000F0EE6AE550E150FCE1E250FAE100EE42
:1008300060F0820EEE6AE806FDE100EE01F0460E81
:10084000EE6AE806FDE10001B9EF03F00401086B70
:10085000406A00AF02D0006B3A6A04AF03D0046B69
:10086000010E3A6E3E6A3D6A2F6A306A6598C4ECA2
:1008700001F002EC00F027EF01F005D80AD8376A42
:100880000CD8386A12007E0E3B6E116AFC0E126E96
:10089000FC0C010E136E146A000C156816681768BC
:1008A000186812003F6A1E0E0F014D6F400E0401C2
:1008B0000D6F2C0E0E6F040E0F6F080E0C6F0C8F49
:1008C0006C0E126F040E136F400E106F400C476ECB
:1008D000F29EF3EC03F0B50E471804E0030ED36E5E
:1008E0000300FED7550EA76EAA0EA76EA682A6B26B
:1008F000FED7A69412005CCF35F0040E0F015C6F9A
:1009000062986582A198A088AAEC04F0A09835505E
:100910000F015C131200390402E1D1EC04F0656AA6
:10092000150E0F015F6F5C6B658698EC03F0010E8E
:10093000416E396A1200600ED36E9B8CDCEC04F0C1
:10094000BFEC04F0C16AC26A3DEC04F08B90949055
:10095000E7EF04F08B90D3CF31F00300A1B802D0C1
:10096000D0A6FBD731C0D3FF1200D9EC04F06592BA
:100970000F015C9501D0629462A41200FCD705D0EF
:10098000FEEC09F04706D8A0480647504810F8E1A9
:100990001200476E4704D8A4120052EC04F03DEF59
:1009A00004F06592656A48684768BFEC04F0416AE4
:1009B000120002D8BFEF04F0030E486E476A030C22
:1009C000390401E1120065A68BEC04F0120065B653
:0E09D000D1EC04F0396AE0EF04F012001200DE
:1010000000B6046134034D006900630072006F0094
:1010100063006800690070002000540065006300F0
:1010200068006E006F006C006F00670079002000A0
:1010300049006E0063002E000902290001010080B2
:10104000320904000002030000000921110100011F
:10105000221D000705810340000107050103400030
:101060000126034800490044002000550053004277
:1010700000200042006F006F0074006C006F006180
:10108000006400650072000600FF0901A10119015A
:101090002940150026FF0075089540810019012997
:1010A000409100C01201000200000008D8043C007A
:0B10B00001010102000104030904001B
:1010BC00060E4118D8B465B21200375001E017D1B2
:1010CC0004010CBF1200600E476E400E486EDDEC42
:1010DC0002F0010E376E276A286A2750A10FD96ECD
:1010EC00DA6A000EDF6E274A282A285005E1400EE6
:1010FC00275CD8B01200F1D71200020EA16F3A0E85
:10110C00A26F010EA36FA46FA56B140EA66FA76B35
:10111C00A86B000E1124A96FEC0E1220AA6FFF0E03
:10112C001320AB6FFF0E1420AC6F030EAD6FF80ED7
:10113C00AE6FAF69010EB06FB16B080EB26FB36BCF
:10114C00B46BB56BB669A50EDA6F040110BFA50CB4
:10115C00A10E476E400E486EB0EC02F0376A1200DA
:10116C00615106E17F0E3B6EF80E116E126802D0D3
:10117C0043EC04F049EC04F0F1D7286A050E276E15
:10118C000CD0FEEC09F027C048F028C049F00AEC5E
:10119C0003F09EEC09F0274A282A3B50526E536A02
:1011AC00522A000E53225250275C53502858D6E234
:1011BC00E8D715280EE116280CE117280AE11828A3
:1011CC0008E161C015F062C016F063C017F064C08E
:1011DC0018F015506119C2E116506219BFE1175091
:1011EC006319BCE118506419B9E1276A286A1AD04E
:1011FC006551A0082724D96EDA6AAC0E3824E16E4A
:10120C00E26A040EE222DFCFE7FF382A152A000E2D
:10121C001622172218223A0E381802E142EC02F07C
:10122C00274A282A00017CD899E2E2D742EC02F046
:10123C004DEC04F093D7070EA16F61C0A2F062C011
:10124C00A3F063C0A4F064C0A5F065C0A6F063C0B1
:10125C00F8FF62C0F7FF61C0F6FF276A286A0BD05F
:10126C00090000016551E1082724D96EDA6AF5CF2F
:10127C00DFFF274A282A54D8F3E3040110BF1200D9
:10128C0067D780EC00F06AD70C0EA16F010EA36F2C
:10129C00020EA26F160EF66ED3EC03F0F5CFA4F08F
:1012AC000A00F5CFA5F0060EA66F140EA76FA86B5B
:1012BC00A96B600EAB6F0D0EAA6FAC6B040EAD6F0D
:1012CC00000EAE6BAF6BB069B169B269B369B4694A
:1012DC00B569B669B769B86BB96BBA6BBB6BBC6BEC
:1012EC00BD6BBE6BBF6BC9D706EC00F037D70001E6
:1012FC006051020A01E101D7010A01E131D7070A65
:10130C0001E13BD7010A01E154D7030A8FE0010A3E
:10131C0092E00F0AE9E0010AB4E0050AB5E01ED735
:10132C006551526E536A5250275C53502858120024
:10133C00E0EC04F0415001E1120062B4B5EC04F0B1
:10134C0065B2120062B098EC03F062B87BEC04F06A
:10135C00030E416001D0030C3C6A62A6120064507B
:10136C0064CF4AF07C0E4A162AE164B203D02B6A91
:10137C00040E02D0040E2B6E2C6E62962BC0D9FF7D
:10138C002CC0DAFFDF30E8320F0B0D0A20E1336A94
:10139C0023D8DECF4AF0DDCF4BF04AC0D9FF4BC08B
:1013AC00DAFF3350010F1FD817D8DE2A000EDD22CA
:1013BC00332A070E3364ECD726EC04F008D0040E65
:1013CC00641804E1629677EC03F001D062963C2A33
:1013DC00030E3C64C2D7030C20EE02F02B50D9262E
:1013EC002C50DA221200E16EE26ADFCFE7FF120026
:0413FC0004001200D7
:1014000055EF0AF012000D605082FACF17F0FBCFB3
:1014100018F0E9CF19F0EACF1AF0E1CF1BF0E2CFD4
:101420001CF0D9CF1DF0DACF1EF0F3CF1FF0F4CFB0
:1014300020F0F6CF21F0F7CF22F0F8CF23F0F5CF50
:1014400024F050C025F051C026F052C027F053C000
:1014500028F0F292F2B4F2AA02D05BECB3F028C00A
:1014600053F027C052F026C051F025C050F024C0E0
:10147000F5FF23C0F8FF22C0F7FF21C0F6FF20C010
:10148000F4FF1FC0F3FF1EC0DAFF1DC0D9FF1CC050
:10149000E2FF1BC0E1FF1AC0EAFF19C0E9FF18C054
:0E14A000FBFF17C0FAFF509211004CEFA6F0B0
:10FC360000001180002C0100B102003500360000E2
:10FC4600B202003500360000B3020035003600026D
:10FC5600003500360000B4000000C0A20002008497
:10FC66000000C1C50000C20D00000000C38D002ABF
:10FC76000000C48D00EE0000C50A000036C8000072
:10FC8600E012001C001000180033002C002500288C
:10FC960000280027002F003C00000003000300108E
:10FCA600008000780000E112001C00100018002DF2
:10FCB60000280023002800280026002F003B000013
:10FCC60000030003001000003A0500002A000002AD
:10FCD6000000008100002B000003000000A20000CD
:10FCE60029002C02000400080010002000400080BB
:10FCF60000000100010200010001000202000003F1
:10FD060003030001000A006400E803102700010352
:10FD1600070F1F3F7FFF00020103010410000000D0
:10FD2600000000005F00000007000700147F147F3A
:10FD360014242A7F2A122313086462364955225056
:10FD46000005030000001C2241000041221C00089F
:10FD56002A1C2A0808083E08080050300000080837
:10FD6600080808006060000020100804023E51499F
:10FD7600453E00427F400042615149462141454B84
:10FD8600311814127F1027454545393C4A494930F8
:10FD960001710905033649494936064949291E00B4
:10FDA60036360000005636000000081422411414AE
:10FDB600141414412214080002015109063249792B
:10FDC600413E7E1111117E7F494949363E414141EE
:10FDD600227F4141221C7F494949417F090901018E
:10FDE6003E414151327F0808087F00417F41002093
:10FDF60040413F017F081422417F404040407F023E
:10FE060004027F7F0408107F3E4141413E7F09097D
:10FE160009063E4151215E7F09192946464949494D
:10FE26003101017F01013F4040403F1F2040201F1C
:10FE36007F2018207F631408146303047804036189
:10FE46005149454300007F414102040810204141C9
:10FE56007F000004020102044040404040000102CD
:10FE6600040020545454787F484444383844444469
:10FE760020384444487F3854545418087E090102F7
:10FE8600081454543C7F0804047800447D40002044
:10FE960040443D00007F10284400417F40007C0420
:10FEA6001804787C0804047838444444387C1414D4
:10FEB6001408081414187C7C080404084854545484
:10FEC60020043F4440203C4040207C1C2040201C15
:10FED6003C4030403C44281028440C5050503C4490
:10FEE60064544C44000836410000007F0000004185
:10FEF60036080008082A1C08081C2A080800008082
:10FF06003F1872313FF0FD753E4758633D58951DC9
:10FF16003C82C4AE3AA8782139EF938037A092A7E5
:10FF2600354656153400000000C4FF7F3F80EFFFC2
:10FF3600BE90E1A93EEC8276BE82AD2B3E0E3CC35E
:10FF4600BD87D1133D4178D3BB00FCFF0F0000FFF6
:10FF5600FFF0FF00FFFF004D61747420576F6F6460
:10FF6600730A393931343531370A41737369676E2B
:10FF76006D656E74310A0A00496E76616C6964209B
:10FF86004D6F6465210A0A0A0A0A0A00436F6E74F5
:10FF9600696E756F7573204D6F64653A0A00444942
:10FFA600502053776974636865733A2025640A00A4
:10FFB600506F736974696F6E204D6F64650A0053E4
:10FFC600706565643A202564487A0A005374657042
:10FFD600733A2025640A0A0053746570204D6F64D5
:10FFE600653A0A00446972656374696F6E3A200067
:09FFF6004343570A002563000093
:020000040001F9
:1000000078EC9AF0010E02017A6F000E0201766F11
:10001000C80E756F000E02017C6F000E7B6F000E24
:1000200002017E6F000E7D6F010EE0ECB1F0000961
:10003000D8B40CD0C6EC93F038EC9BF0A7ECAAF047
:100040005FECB4F00009D8A4C1ECB1F0080EE0EC0C
:10005000B1F00009D8B413D07F0E00018D6F020EED
:1000600000018E6F000E0001906F080E8F6F25EC5F
:10007000A2F05FECB4F00009D8A4C1ECB1F031EC0F
:10008000B5F0F5ECA5F0E8ECA8F0E6ECB4F09BECEC
:10009000ACF021EE75F001D80AD00500FA6EDE5002
:1000A000FD6EDE50FE6EDE50FF6EFA501200000153
:1000B000D36F0001D3510201776F786B21EE41F0CD
:1000C00001D80AD00500FA6EDE50FD6EDE50FE6EDD
:1000D000DE50FF6EFA5012000201726F21EE4BF0FB
:1000E00001D80AD00500FA6EDE50FD6EDE50FE6EBD
:1000F000DE50FF6EFA5012000201796F21EE37F0E8
:1001000001D80AD00500FA6EDE50FD6EDE50FE6E9C
:10011000DE50FF6EFA5012000201736F21EE2DF0D7
:1001200001D80AD00500FA6EDE50FD6EDE50FE6E7C
:10013000DE50FF6EFA5012000201746F010EE0EC07
:10014000B1F00009D8B44CD1FB0E0001756FFF0E61
:100150000001766F000E0001786F230E776F59EC67
:1001600097F05D0E0001756FFF0E0001766F59EC80
:1001700097F0A40E0001756FFF0E0001766F77C235
:1001800077F078C278F059EC97F0B9D0920E000170
:10019000756FFF0E0001766F59EC97F0EA0E0001C3
:1001A000756FFF0E0001766F59EC97F0020176BF74
:1001B00010D00201765104E102017505D8A009D0E2
:1001C000F60E0001756FFF0E0001766F59EC97F087
:1001D00008D0F70E0001756FFF0E0001766F59EC25
:1001E00097F0C50E0001756FFF0E0001766F7BC2A0
:1001F00077F07CC278F059EC97F00201735102015C
:10020000D8B405D0FF0E0201766F380E09D0020176
:1002100074510201D8B406D0000E0201766FC80EE8
:10022000756F82D0020172510201D8B404D002016C
:100230007B4B7C2B79D0020179510201D8B474D068
:1002400002017CBF71D002017C5104E102017B05F7
:10025000D8A06AD002017B07D8A07C0765D0DE0E4B
:100260000001756FFF0E0001766F59EC97F0D20E0A
:100270000001756FFF0E0001766F7DC277F07EC2C0
:1002800078F059EC97F002017305D8A40FD0020161
:100290007EBF0CD002017E5104E102017D05D8A091
:1002A00005D002017D07D8A07E073ED0020174511F
:1002B0000201D8B404D002017D4B7E2B35D002015F
:1002C00072510201D8B430D0000E02017E6F000ED0
:1002D0007D6F2AD0B60E0001756FFF0E0001766F9C
:1002E00059EC97F021D0010E02017A6F7E0E0001C9
:1002F000756FFF0E0001766F59EC97F015D077C23D
:10030000D3F078C2D4F00001D451000AD8A4EBD7BE
:100310000001D351010AD8B439D7030AD8B49FD702
:10032000060AD8B4D7D7DFD7BEEC91F0D40E0001BF
:10033000876F010E0001886FB9ECA1F087C068F2E9
:1003400088C069F289C06AF28AC06BF2CD0E0001E2
:10035000C26FCC0EC36F8C0EC46FBF0EC56F68C268
:10036000BEF069C2BFF06AC2C0F06BC2C1F0C6EC99
:1003700092F0BEC06CF2BFC06DF2C0C06EF2C1C0E0
:100380006FF2000E0001726F000E736F820E746FB9
:10039000420E756F6CC26EF06DC26FF06EC270F07F
:1003A0006FC271F0D0EC84F06EC087F06FC088F03F
:1003B00070C089F071C08AF047ECA0F087C070F27D
:1003C00088C071F270C276F071C277F087ECB3F03A
:1003D000FFECB1F05FECB4F00009D8A4C1ECB1F0CF
:1003E000080EE0ECB1F00009D8A46AD04ED67F0E1A
:1003F00000017B6F020E00017C6F7BC260F07CC24B
:1004000061F0030E0001636FE80E626F94ECB2F0CE
:1004100060C07DF061C07EF072ECB3F07F0E000131
:10042000636F020E0001646F75C265F076C266F0FC
:100430005BECB2F059D002017A510201D8B408D075
:10044000000E02017A6F000E0201806F000E7F6FB6
:10045000020179510201D8B447D002017F51020153
:100460008011D8A441D07F0E00017B6F020E0001E5
:100470007C6F030E00017E6FE80E7D6F72ECB3F0AF
:100480007F0E0001636F020E0001646F7DC265F094
:100490007EC266F05BECB2F027D002017A51020115
:1004A000D8B422D0000E0201656F000E646F000EFA
:1004B00002017A6F000E0201676F000E666F14D0A2
:1004C00077C2D3F078C2D4F00001D451000AD8A486
:1004D0000BD00001D351010AD8B489D7030AD8B48C
:1004E000AAD7060AD8B4D9D75FECB4F00009D8B4BB
:1004F000CCD5C1ECB1F0C9D500018A51800B000107
:10050000976F00018A518A250001996F000189AF18
:1005100002D000019981000199510001D8B412D094
:1005200000019929D8A409D0000E0001876F000EA0
:10053000886F000E896F000E8A6F0001898F000E90
:10054000000108D0000E0001876F000E886F000EBA
:10055000896F000E8A6F00018E51800B0001986F29
:100560000001975100019819D8B402D00001978D6D
:1005700000018E518E250001986F00018DAF02D0D1
:1005800000019881000198510001D8B412D00001F7
:100590009829D8A409D0000E00018B6F000E8C6F33
:1005A000000E8D6F000E8E6F00018D8F000E00010A
:1005B00008D0000E00018B6F000E8C6F000E8D6F47
:1005C000000E8E6F000199510001985DD8B024D0C3
:1005D000000197AD03D0800E0001971B99C09AF0DF
:1005E00098C099F09AC098F087C09AF08BC087F0B5
:1005F0009AC08BF088C09AF08CC088F09AC08CF0BA
:1006000089C09AF08DC089F09AC08DF08AC09AF0A6
:100610008EC08AF09AC08EF0000E00019A6F000121
:10062000995100018F6F906B00018F1F901F8F4BAE
:10063000902B000198510001916F926B00018F5136
:10064000000191270001905100019223000192BF07
:100650003DD00001925105E11A0E0001915DD8A034
:1006600035D0000187510001881100018911000176
:100670008A11D8B402D0010E01D0000E00019A6F89
:10068000000E0001876F000E886F000E896F000E4C
:100690008A6F98C099F020D000019AA107D000017C
:1006A000D8909A31010900019A6F03D00001D890C7
:1006B0009A33000187A102D000019A8F00018A3588
:1006C0008A338933883387330001992B000198518D
:1006D0000001995DD8A0E0D7000197BD3FD000018F
:1006E00099510001D8A40AD0000E0001876F000EB6
:1006F000886F000E896F000E8A6F120000018B5107
:100700000001872700018C510001882300018D51D1
:100710000001892300018E5100018A2300018AA172
:10072000CCD000019AA109D00001D8909A330001E1
:100730009A51010900019A6F03D00001D8909A33B1
:10074000000187A102D000019A8F00018A358A3307
:100750008933883387330001992BAFD000018B5147
:100760000001875D00018C510001885900018D5105
:100770000001895900018A51800A00018F6F000130
:100780008E51800A00018F59D8B050D087C08FF0A9
:1007900088C090F089C091F08AC092F000018F1F4C
:1007A000901F911F921F8F2B000E90239123922355
:1007B00000018B5100018F250001936F00018C51C6
:1007C000000190210001946F00018D5100019121E1
:1007D0000001956F00018E51000192210001966F7A
:1007E000FF0E000193250001876FFF0E0001942189
:1007F0000001886FFF0E000195210001896FFF0E37
:100800000001962100018A6F800E0001971B0001F4
:100810009A6D00019A510001D8A418D0010E000170
:100820008727000E882389238A2310D000018B514B
:100830000001875F00018C510001885B00018D5130
:100840000001895B00018E5100018A5B0001875124
:10085000000188110001891100018A11D8A42AD051
:1008600000019A510001D8A425D0000E0001876F25
:10087000000E886F000E896F000E8A6F1200000153
:10088000D8908737883789378A3700019AAF02D0E6
:100890000001878100019AA103D0D880000102D015
:1008A0000001D8909A37000199510001D8B402D0C4
:1008B00000019907000189AFE2D7000E0001986F8F
:1008C00000019AAF0DD09AC08FF07F0E00018F17F4
:1008D000D8A403D0000187A103D0010E0001986FB6
:1008E000000198510001D8B426D0010E00018727DD
:1008F000000E882389238A2300018AA11CD087C087
:100900008FF088C090F089C091F08AC092F0000109
:1009100092359233913390338F338FC087F090C0EC
:1009200088F091C089F092C08AF000019929D8B46A
:1009300002D00001992B00019929D8B405D00001FB
:1009400099510001D8A411D0000E0001876F000E4C
:10095000886F000E896F000E8A6F000199510001A7
:10096000D8A403D0000E0001976F000199A103D015
:100970000001898F02D00001899F0001D890993130
:1009800000018A6F000197AF02D000018A8F87C0F3
:1009900087F088C088F089C089F08AC08AF0120088
:1009A00000017151800B00017A6F000171517125B6
:1009B0000001806F000170AF02D000018081000152
:1009C00080510001D8B410D000018029D8A409D0EA
:1009D000000E00016E6F000E6F6F000E706F000E44
:1009E000716F0001708F09D0000E00016E6F000E54
:1009F0006F6F000E706F000E716F00017551800BEC
:100A000000017A1B00017551752500017B6F000103
:100A100074AF02D000017B8100017B510001D8B48A
:100A200010D000017B29D8A409D0000E0001726FFC
:100A3000000E736F000E746F000E756F0001748FDF
:100A400009D0000E0001726F000E736F000E746FFC
:100A5000000E756F00017B510001D8B405D0000174
:100A600080510001D8A40AD0000E00016E6F000E64
:100A70006F6F000E706F000E716F120000017451E5
:100A800000016E03F3CF85F0F4CF86F000018551AD
:100A900000017C6F7D6B7E6B7F6B000186510001D6
:100AA000816F826B836B846B0001735100016F0354
:100AB000F3CF85F0F4CF86F00001855100017C274B
:100AC000000E7D237E237F230001865100018127B4
:100AD000000E8223832384230001725100017003DE
:100AE000F3CF85F0F4CF86F00001855100017C271B
:100AF000000E7D237E237F23000186510001812784
:100B0000000E8223832384237EC07FF07DC07EF08D
:100B10007CC07DF000017C6B0001725100016F030D
:100B2000F3CF85F0F4CF86F00001855100017C27DA
:100B30000001865100017D23000E00017E23000E7E
:100B400000017F230001735100016E03F3CF85F094
:100B5000F4CF86F00001855100017C270001865109
:100B600000017D23000E00017E23000E00017F2383
:100B70007EC07FF07DC07EF07CC07DF000017C6B8C
:100B80000001725100016E03F3CF85F0F4CF86F0BF
:100B90000001855100017C270001865100017D2361
:100BA000000E00017E23000E00017F23000174511E
:100BB00000016F03F3CF85F0F4CF86F0000185517B
:100BC000000181270001865100018223000E0001EF
:100BD0008323000E00018423000173510001700380
:100BE000F3CF85F0F4CF86F0000185510001812715
:100BF0000001865100018223000E00018323000EB4
:100C0000000184230001745100017003F3CF85F0CB
:100C1000F4CF86F0000185510001766F0001865106
:100C20000001776F0001786B0001796B78C079F073
:100C300077C078F076C077F00001766B00017651CE
:100C400000018127000177510001822300017851C2
:100C50000001832300017951000184237CC076F0D8
:100C60007DC077F07EC078F07FC079F0190E06D095
:100C70000001D8907933783377337633E82EF8D77C
:100C80000001765100018127000177510001822384
:100C90000001785100018323000179510001842370
:100CA0007EC07FF07DC07EF07CC07DF000017C6B5B
:100CB00000017B5180C076F00001776B0001762740
:100CC000000E7723820E000176250001856FFF0E4E
:100CD000000177210001866F15D00001D89081377F
:100CE00082378337843700017FAF02D000018181D2
:100CF0000001D8907C377D377E377F37000185072C
:100D0000D8A08607000183AFE8D7000E00017B6FF3
:100D100000017FAF24D0FF0E00017C150001766F2B
:100D2000FF0E00017D150001776FFF0E00017E159B
:100D30000001786F7F0E00017F150001796F0001BF
:100D40007651000177110001781100017911D8A4C2
:100D500003D0000181A103D0010E00017B6F0001CF
:100D60007B510001D8B423D0010E00018127000E71
:100D7000822383238423000184A119D081C076F0CB
:100D800082C077F083C078F084C079F000017935B3
:100D9000793378337733763376C081F077C082F059
:100DA00078C083F079C084F00001854B862B000168
:100DB00086BF10D00001865104E100018529D8A02A
:100DC00009D0000E0001816F000E826F800E836FCC
:100DD0007F0E2BD0000186BF07D00001865111E1A4
:100DE00000018505D8B00DD0000E0001816F000E06
:100DF000826F000E836F000E846F000E00017A6F09
:100E000015D085C080F0FF0E00018117FF0E8217FC
:100E10007F0E8317000E8417000180A102D000010D
:100E2000838F0001D89080310001846F00017A51D6
:100E30000001841381C06EF082C06FF083C070F037
:100E400084C071F012000CD0580E0001936F010E97
:100E500004D0630E0001936F010E0001946F08D05F
:100E600000019151000AD8B4EFD7010AD8B4F1D7E4
:100E7000000120EE02F09351D9269451DA2291C05C
:100E8000DFFFB1D0350E0001866F000E0001876FC5
:100E9000020E0001886F030E0001896FAAEC95F025
:100EA000350E0001866F000E0001876F030E0001F2
:100EB000886F030E0001896FAAEC95F0350E0001D2
:100EC000866F000E0001876F050E0001886F030E0C
:100ED0000001896FAAEC95F0350E0001866F000EB7
:100EE0000001876F040E0001886F000E0001896FFA
:100EF000AAEC95F0000120EE03F09351D92694510D
:100F0000DA22C70EDE6E0F0EDD6E000120EE06F057
:100F10009351D9269451DA22C60EDE6E0F0EDD6E85
:100F2000000120EE09F09351D9269451DA22C90E1E
:100F300056D0960E0001866F010E0001876F070ED6
:100F40000001886F030E0001896FAAEC95F0960EE0
:100F50000001866F010E0001876F060E0001886F89
:100F6000030E0001896FAAEC95F0960E0001866FC2
:100F7000010E0001876F040E0001886F030E00014F
:100F8000896FAAEC95F0960E0001866F010E0001A4
:100F9000876F050E0001886F000E0001896FAAECB3
:100FA00095F0000120EE03F09351D9269451DA22F6
:100FB0006D0EDE6E0F0EDD6E000120EE06F0935119
:100FC000D9269451DA226C0EDE6E0F0EDD6E000112
:100FD00020EE09F09351D9269451DA226F0EDE6E7D
:100FE0000F0EDD6E09D000019151000AD8B44AD726
:100FF000010AD8A412009DD7000120EE06F09351FB
:10100000D9269451DA22DECF60F0DDCF61F0050EF3
:101010000001626F000E0001636F88ECAEF09CD09F
:10102000000120EE06F09351D9269451DA22DECF4A
:1010300060F0DDCF61F0040E0001626F000E000170
:10104000636F88ECAEF0000120EE03F09351D926D7
:101050009451DA22DECF60F0DDCF61F0060E0001A0
:10106000626F000E0001636F88ECAEF084D0000167
:1010700020EE06F09351D9269451DA22DECF60F0AB
:10108000DDCF61F0040E0001626F000E0001636F9E
:1010900088ECAEF0000120EE03F09351D926945174
:1010A000DA22DECF60F0DDCF61F0060E0001626F64
:1010B000010E0001636F88ECAEF05DD0000120EE00
:1010C00006F09351D9269451DA22DECF60F0DDCFBD
:1010D00061F0040E0001626F010E0001636F88EC85
:1010E000AEF0000120EE03F09351D9269451DA229C
:1010F000DECF60F0DDCF61F0060E0001626F000E02
:101100000001636F88ECAEF036D0000120EE06F0EF
:101110009351D9269451DA22DECF60F0DDCF61F011
:10112000040E0001626F010E0001636F88ECAEF0E7
:10113000000120EE03F09351D9269451DA22DECF3C
:1011400060F0DDCF61F0060E0001626F010E00015C
:10115000636F88ECAEF00FD000019251000AD8B452
:101160005FD7010AD8B483D7030AD8B4A7D7010A36
:10117000D8A41200CAD7000120EE06F09351D92658
:101180009451DA22DECF60F0DDCF61F0070E00016E
:10119000626F000E0001636F88ECAEF0000120EE7C
:1011A00006F09351D9269451DA22DECF60F0DDCFDC
:1011B00061F0060E0001626F000E0001636F88ECA3
:1011C000AEF08DC06DF08EC06EF08FC06FF090C02D
:1011D00070F054EC9DF093C060F094C061F09CEC12
:1011E000B3F004D09F860BD0A58E09D00001915199
:1011F000000AD8B4F7D7010AD8A41200F5D793C0D3
:1012000060F094C061F044ECB3F093C0D9FF94C097
:10121000DAFF000EDF6E000120EE06F09351D926B2
:101220009451DA22DECF6BF0DDCF6CF0000E0001BE
:101230006D6F030E00016E6FD4ECB3F0000120EE71
:1012400006F09351D9269451DA22DECF60F0DDCF3B
:1012500061F0050E0001626F010E0001636F88EC02
:10126000AEF0120000016351800B00016C6F0001B1
:10127000635163250001776F000162AF02D0000166
:101280007781000177510001D8B412D0000177298D
:10129000D8A409D0000E0001606F000E616F000E2F
:1012A000626F000E636F0001628F000E000108D0B4
:1012B000000E0001606F000E616F000E626F000E85
:1012C000636F00016751800B00016C1B00016751C7
:1012D00067250001786F000166AF02D000017881B8
:1012E000000178510001D8B412D000017829D8A4A7
:1012F00009D0000E0001646F000E656F000E666F6E
:10130000000E676F0001668F000E000108D0000E0E
:101310000001646F000E656F000E666F000E676F50
:10132000000164510001651100016611000167119F
:10133000D8A417D0000E0001606F000E616F000E80
:10134000626F000E636F0001800E62137F0E6313E5
:1013500060C060F061C061F062C062F063C063F0C1
:101360001200000177510001D8A412D0000E000134
:10137000606F000E616F000E626F000E636F60C0E1
:1013800060F061C061F062C062F063C063F012009F
:10139000000178510001686F696B0001681F691FC7
:1013A000684B692B0001775100016A6F6B6B00017C
:1013B000685100016A270001695100016B237F0E0B
:1013C00000016A250001716F000E00016B21000110
:1013D000726F60C06DF061C06EF062C06FF063C08C
:1013E00070F0000E0001606F000E616F000E626F02
:1013F000000E636F000E0001736F000E746F000E1D
:10140000756F000E766F000E0001786F42D00001FC
:1014100078510001D8B417D00001D8906D376E37DD
:101420006F3770370001D8906037613762376337A4
:10143000000176AF02D0000160810001D8907337BF
:101440007437753776370001645100016D5D000116
:10145000655100016E590001665100016F5900018C
:10146000675100017059D8A012D00001768D00019B
:10147000645100016D5F0001655100016E5B000168
:10148000665100016F5B000167510001705B000154
:10149000782B190E00017865BAD700016D51000153
:1014A0006E1100016F1100017011D8B418D0000145
:1014B000738115D00001D890603761376237633788
:1014C000000176AF02D0000160810001D89073372F
:1014D00074377537763700017107D8A0720700019D
:1014E00062AFE8D7000E0001786F000176AF24D01C
:1014F000FF0E000173150001686FFF0E00017415E7
:101500000001696FFF0E0001751500016A6F7F0E03
:101510000001761500016B6F00016851000169112F
:1015200000016A1100016B11D8A403D0000160A171
:1015300003D0010E0001786F000178510001D8B48A
:1015400023D0010E00016027000E61236223632374
:10155000000163A119D060C068F061C069F062C089
:101560006AF063C06BF000016B356B336A3369332B
:10157000683368C060F069C061F06AC062F06BC037
:1015800063F00001714B722B000172BF14D0000197
:10159000725104E100017129D8A00DD0000E0001A4
:1015A000726F7169000E0001606F000E616F000EB6
:1015B000626F000E636F000172BF07D000017251AD
:1015C00015E100017105D8B011D0000E0001726F55
:1015D000000E716F000E0001606F000E616F000E53
:1015E000626F000E636F000E00016C6F71C077F0C8
:1015F000000177A103D00001628F02D00001629F39
:101600000001D89077310001636F00016C51000137
:10161000631360C060F061C061F062C062F063C0DB
:1016200063F01200080E00016F2500016C6F000EC0
:101630000001702100016D6F000E00016E6F1EEC45
:10164000B2F00001866F000186510001726F736B6A
:101650000E0ED890000172377337E82EFAD70001CA
:1016600086510001746F756B0C0ED89000017437B1
:101670007537E82EFAD7000186510001766F776B37
:101680000A0ED890000176377737E82EFAD7000196
:1016900086510001796F786B0001865100017A6FE5
:1016A0007B6B060ED89000017A377B37E82EFAD78D
:1016B0000001865100017C6F7D6B00017C3B7D3B0E
:1016C000F00E7D177C510F0B7D13F00E7C1700017F
:1016D000865100017E6F7F6B0001D8907E377F3787
:1016E0000001D8907E377F37000186510001806F5E
:1016F000816B00017E510001801300017F510001C8
:10170000811300017C510001801300017D51000113
:10171000811300017A510001801300017B51000107
:1017200081130001785100018013000179510001FB
:1017300081130001765100018013000177510001EF
:1017400081130001745100018013000175510001E3
:10175000811300017251000180110001826F0001AC
:101760007351000181110001836F86C084F0000174
:10177000856B080E00016F2500016C6F000E0001E3
:10178000702100016D6F010E00016E6F1EECB2F052
:101790000001726F736B0001D890723773370001CC
:1017A000D890723773370001725100018413000121
:1017B000735100018513080E00016F2500016C6F45
:1017C000000E0001702100016D6F020E00016E6FAE
:1017D0001EECB2F00001726F736B0001723B733B41
:1017E000F00E731772510F0B7313F00E7217000186
:1017F0007251000184130001735100018513080E1A
:1018000000016F2500016C6F000E000170210001C6
:101810006D6F030E00016E6F1EECB2F00001726F6F
:10182000736B060ED890000172377337E82EFAD723
:1018300000017251000184130001735100018513EE
:10184000080E00016F2500016C6F000E0001702171
:1018500000016D6F040E00016E6F1EECB2F000010E
:10186000726F000172510001746F736B000173514C
:10187000000184130001745100018513080E00015A
:101880006F2500016C6F000E0001702100016D6F6B
:10189000050E00016E6F1EECB2F00001726F736BEB
:1018A0000A0ED890000172377337E82EFAD700017C
:1018B0007251000184130001735100018513080E59
:1018C00000016F2500016C6F000E00017021000106
:1018D0006D6F060E00016E6F1EECB2F00001726FAC
:1018E000736B0C0ED890000172377337E82EFAD75D
:1018F000000172510001841300017351000185132E
:10190000080E00016F2500016C6F000E00017021B0
:1019100000016D6F070E00016E6F1EECB2F000014A
:10192000726F736B0E0ED890000172377337E82E0A
:10193000FAD70001725100018413000173510001B4
:101940008513000184510001821948E1000185518D
:1019500000018319D8A4120032D0000120EE02F059
:101960006F51D9267051DA22DECF60F0DDCF61F001
:1019700071C062F0FFECB4F012000001711F0001B1
:1019800020EE02F06F51D9267051DA22DECF60F0DE
:10199000DDCF61F071C062F0FFECB4F01200000125
:1019A00020EE04F06F51D9267051DA22DECF60F0BC
:1019B000DDCF61F071C062F0FFECB4F01200000105
:1019C0008651000AD8B41200010AD8B4C6D7030A57
:1019D000D8B4D3D7010AD8A41200E1D7120000016D
:1019E000B3510001B4110001B5110001B611D8A422
:1019F0000AD0000E0001B36F000EB46F800EB56FF9
:101A00003F0EB66F1200180E0001606F720E616F0C
:101A1000310E626F440E636FB3C064F0B4C065F002
:101A2000B5C066F0B6C067F0EBEC98F00001D8B036
:101A30000FD0000E01011B6F220E1A6FFF0E000166
:101A4000B36FFF0EB46F7F0EB56F7F0EB66F1200CF
:101A5000B3C060F0B4C061F0B5C062F0B6C063F06E
:101A6000870E0001646F480E656F3A0E666FC40EF4
:101A7000676FEBEC98F00001D8B00FD0000E0101B9
:101A80001B6F220E1A6F000E0001B36F000EB46FB1
:101A9000000EB56F000EB66F12000001B6AF02D097
:101AA000010E01D0000E0001BD6F0001BD5100010B
:101AB000D8B412D0B3C060F0B4C061F0B5C062F069
:101AC000B6C063F078ECB2F060C0B3F061C0B4F0BF
:101AD00062C0B5F063C0B6F0B3C06EF0B4C06FF0D2
:101AE000B5C070F0B6C071F03B0E0001726FAA0E67
:101AF000736FB80E746F3F0E756FD0EC84F06EC0CC
:101B0000B3F06FC0B4F070C0B5F071C0B6F0B3C040
:101B10009BF0B4C09CF0B5C09DF0B6C09EF029EC1F
:101B20009FF09BC0B7F09CC0B8F09DC0B9F09EC0BC
:101B3000BAF0B7C087F0B8C088F0B9C089F0BAC0B1
:101B40008AF047ECA0F087C0BBF088C0BCF0B3C0FF
:101B50009BF0B4C09CF0B5C09DF0B6C09EF0BBC079
:101B600060F0BCC061F00001000E61BFFF0E626F4B
:101B7000636F010EC3EC94F060C09FF061C0A0F0F1
:101B800062C0A1F063C0A2F067ECB0F09BC0B3F0FC
:101B90009CC0B4F09DC0B5F09EC0B6F0B3C09BF041
:101BA000B4C09CF0B5C09DF0B6C09EF0030E00011D
:101BB0009F6FFF0E0001A06F000E0001A26F090EC3
:101BC000A16FBBEC9FF09BC0ABF09CC0ACF09DC084
:101BD000ADF09EC0AEF0BBC0AFF0BCC0B0F097ECB3
:101BE0009EF0ABC0B3F0ACC0B4F0ADC0B5F0AEC0C9
:101BF000B6F00001BD510001D8B435D00001B329C1
:101C000016E10001B42913E17F0E0001B5190FE1BF
:101C10007F0E0001B619D8A40AD0000E0001B36FE0
:101C2000000EB46F000EB56F000EB66F1200000EFE
:101C30000001606F000E616F800E626F3F0E636F78
:101C4000B3C064F0B4C065F0B5C066F0B6C067F06C
:101C500032EC89F060C0B3F061C0B4F062C0B5F09E
:101C600063C0B6F01200B3C0B3F0B4C0B4F0B5C0F6
:101C7000B5F0B6C0B6F012000001606F7ED03F0E26
:101C80001200060E12005B0E12004F0E1200660EBE
:101C900012006D0E12007D0E1200070E12007F0E54
:101CA00012006F0E12005F0E12007C0E1200580E12
:101CB00012005E0E12007B0E1200710E12006F0EEB
:101CC0001200740E1200040E12000E0E12007A0E94
:101CD0001200060E1200140E1200540E12005C0EBA
:101CE0001200730E1200670E1200500E12006D0EDD
:101CF0001200780E12001C0E1200620E12002A0E44
:101D00001200640E12006E0E12005B0E1200770EAF
:101D100012007F0E1200390E12003F0E1200790ED3
:101D20001200710E12003D0E1200760E1200060E09
:101D300012001E0E1200570E1200380E1200760E00
:101D40001200760E12003F0E1200730E12003F0EAC
:101D50001200770E12006D0E1200310E12003E0EB0
:101D600012003E0E12007E0E1200760E1200660E5B
:101D700012005B0E1200800E1200000160512E0A4C
:101D8000D8B4F9D71E0AD8B47AD7010AD8B479D70B
:101D9000030AD8B478D7010AD8B477D7070AD8B4D9
:101DA00076D7010AD8B475D7030AD8B474D7010A14
:101DB000D8B473D70F0AD8B472D7010AD8B471D780
:101DC000780AD8B4A4D7030AD8B4A3D7010AD8B4E0
:101DD000A2D7070AD8B4A1D7010AD8B4A0D7030A5A
:101DE000D8B49FD7010AD8B49ED70F0AD8B49DD7CC
:101DF000010AD8B49CD7030AD8B49BD7010AD8B437
:101E00009AD7070AD8B499D7010AD8B498D7030A41
:101E1000D8B497D7010AD8B496D71F0AD8B495D7A3
:101E2000010AD8B494D7030AD8B493D7010AD8B416
:101E300092D7070AD8B491D7010AD8B490D7030A29
:101E4000D8B48FD7010AD8B48ED70F0AD8B48DD79B
:101E5000010AD8B48CD7030AD8B48BD73B0AD8B4BC
:101E600022D7030AD8B421D7010AD8B420D7070A49
:101E7000D8B41FD7010AD8B41ED7030AD8B41DD7C7
:101E8000010AD8B41CD70F0AD8B41BD7010AD8B49A
:101E90001AD7030AD8B419D7010AD8B418D7070A31
:101EA000D8B417D7010AD8B416D7030AD8B415D7AF
:101EB000010AD8B414D71F0AD8B413D7010AD8B46A
:101EC00012D7030AD8B411D7010AD8B410D7070A19
:101ED000D8B40FD7010AD8B40ED7030AD8B40DD797
:101EE000010AD8B40CD70F0AD8B40BD7010AD8B45A
:101EF0000AD7030AD8B409D7000E1200050E000154
:101F00009A6FC7D0000120EE02F09651D926975162
:101F1000DA22DECF6BF0DDCF6CF098C06DF00F0EE3
:101F200000016E6FD4ECB3F0000120EE04F0965186
:101F3000D9269751DA22DECF6BF0DDCF6CF098C056
:101F40006DF0000E00016E6FD4ECB3F0B0D096C00F
:101F50008FF097C090F098C091F0030E0001926F3F
:101F60004AECAFF000019A6F00019A51D8A4120018
:101F7000000120EE02F09651D9269751DA22DECFE9
:101F80006BF0DDCF6CF098C06DF0000E00016E6F4D
:101F9000D4ECB3F0000120EE04F09651D92697510D
:101FA000DA22DECF6BF0DDCF6CF098C06DF0000E62
:101FB00000016E6FD4ECB3F07AD096C08FF097C06A
:101FC00090F098C091F0030E0001926F4AECAFF0D0
:101FD00000019A6F00019A51D8A41200000120EE6E
:101FE00002F09651D9269751DA22DECF6BF0DDCF81
:101FF0006CF098C06DF00F0E00016E6FD4ECB3F072
:10200000000120EE04F09651D9269751DA22DECF56
:102010006BF0DDCF6CF098C06DF00F0E00016E6FAD
:10202000D4ECB3F044D096C08FF097C090F098C035
:1020300091F0030E0001926F4AECAFF000019A6F2D
:1020400000019A51D8A41200000120EE02F096512E
:10205000D9269751DA22DECF6BF0DDCF6CF098C035
:102060006DF0000E00016E6FD4ECB3F0000120EEB5
:1020700004F09651D9269751DA22DECF6BF0DDCFEE
:102080006CF098C06DF0000E00016E6FD4ECB3F0F0
:102090000ED000019951000AD8B434D7010AD8B43F
:1020A00056D7030AD8B489D7010AD8B4BCD7080ECA
:1020B0000001962500016F6F000E000197210001BD
:1020C000706F00019851040DF3CF71F099C072F058
:1020D0001AECB1F0080E0001962500016F6F000E9A
:1020E000000197210001706F00019851040DF32841
:1020F0000001716F99C072F01AECB1F0080E000186
:10210000962500016F6F000E000197210001706F8E
:1021100000019851040DF350020F0001716F99C036
:1021200072F01AECB1F0080E0001962500016F6FF5
:10213000000E000197210001706F00019851040DFD
:10214000F350030F0001716F99C072F01AECB1F0F7
:102150001200050E00019F6F7AD0000120EE02F000
:102160009A51D9269B51DA22DECF9DF0DDCF9EF029
:102170009DC0D9FF9EC0DAFFFF0E67D09AC096F0CF
:102180009BC097F0010E0001986F8BECB0F000013E
:102190009F6F00019F51D8A41200000120EE02F0B1
:1021A0009A51D9269B51DA22DECF9DF0DDCF9EF0E9
:1021B0009DC0D9FF9EC0DAFF000EDF6E000120EE49
:1021C00004F036D09AC096F09BC097F0020E000142
:1021D000986F8BECB0F000019F6F00019F51D8A465
:1021E0001200000120EE02F09A51D9269B51DA220A
:1021F000DECF9DF0DDCF9EF09DC0D9FF9EC0DAFFFF
:10220000FF0EDF6E000120EE04F0AAD79AC096F010
:102210009BC097F0000E0001986F8BECB0F00001AE
:102220009F6F00019F51D8A41200000120EE02F020
:102230009A51D9269B51DA22DECF9DF0DDCF9EF058
:102240009DC0D9FF9EC0DAFF000EDF6E0ED00001E8
:102250009C51000AD8B481D7010AD8B48FD7030A99
:10226000D8B4B0D7010AD8B4D1D7080E00019A2546
:1022700000016F6F000E00019B210001706F000EC6
:102280000001716F9CC072F01AECB1F0080E0001F1
:102290009A2500016F6F000E00019B210001706FF5
:1022A000010E0001716F9CC072F01AECB1F0080EC3
:1022B00000019A2500016F6F000E00019B210001B3
:1022C000706F020E0001716F9CC072F01AECB1F0D9
:1022D000080E00019A2500016F6F000E00019B217E
:1022E0000001706F030E0001716F9CC072F01AEC58
:1022F000B1F0080E00019A2500016F6F000E000179
:102300009B210001706F040E0001716F9CC072F080
:102310001AECB1F0080E00019A2500016F6F000E53
:1023200000019B210001706F050E0001716F9CC0C0
:1023300072F01AECB1F0080E00019A2500016F6FDF
:10234000000E00019B210001706F060E0001716FED
:102350009CC072F01AECB1F0080E00019A25000141
:102360006F6F000E00019B210001706F070E0001CE
:10237000716F9CC072F01AECB1F012000001EC51C8
:10238000D8B41200E1C186F0E2C187F0E3C188F061
:10239000E4C189F00001E951D8B405D0E7C085F067
:1023A0000F0E0001E76F000E00018B6FDFD0000100
:1023B0008B51020D000EF324D96E020EF420DA6E5A
:1023C000DECFEAF0DDCFEBF0000E00018A6F130ED6
:1023D00000018A6501D0BED000018B51140D850E1D
:1023E0000001836F020E0001846FF3500001832708
:1023F000F4500001842300018A51010DF3500001C3
:102400008325D96EF45000018421DA6EDFAE9AD0B4
:1024100000018B51140D850E0001836F020E000127
:10242000846FF35000018327F450000184230001DE
:102430008A51010DF35000018325D96EF45000013B
:102440008421DA6E7F0EDF1600018B51140D850E8C
:102450000001836F020E0001846FF3500001832797
:10246000F4500001842300018A51010DF350000152
:102470008325D96EF45000018421DA6EDF50D8B480
:102480004AD0E0C069F0E1C06AF086C06BF087C056
:102490006CF088C06DF089C06EF0E9C16FF0EAC1E0
:1024A00070F0EBC171F0ECC172F00FECADF0000117
:1024B0008B51140D850E0001836F020E0001846F95
:1024C000F35000018327F4500001842300018A5156
:1024D000010DF35000018325D96EF45000018421D1
:1024E000DA6EDF50FAECA2F065C072F066C073F0ED
:1024F00086C074F087C075F088C076F089C077F028
:10250000E9C178F0EAC179F0EBC17AF0ECC17BF077
:1025100045ECA8F017D0000E00016A6F000E696F3D
:1025200086C06BF087C06CF088C06DF089C06EF01B
:10253000E9C16FF0EAC170F0EBC171F0ECC172F06B
:102540000FECADF0060E00018627000E8723000178
:102550008A2B3DD7080E00018827000E8923000E24
:102560000001876F060E866F00018B2B00018B51D7
:102570000001E75DD8B01BD70001E951D8B41200C3
:10258000000E0001E96F85C0E7F01200000E0001A7
:10259000CE6F0001BE510001BF110001C01100014A
:1025A000C111D8A425D0000E0001606F000E616F2C
:1025B000000E626F000E636FC2C064F0C3C065F0AE
:1025C000C4C066F0C5C067F0EBEC98F00001D8A07D
:1025D00005D0000E01011B6F210E1A6F000E0001C5
:1025E000BE6F000EBF6F000EC06F000EC16F1200F5
:1025F0000001C2510001C3110001C4110001C51145
:10260000D8A40AD0000E0001BE6F000EBF6F800E6E
:10261000C06F3F0EC16F12000001C1AF58D0C2C0E1
:1026200087F0C3C088F0C4C089F0C5C08AF047EC09
:10263000A0F087C0CFF088C0D0F089C0D1F08AC0A8
:10264000D2F0CFC060F0D0C061F0D1C062F0D2C093
:1026500063F0000EC3EC94F00001C2510001601958
:1026600010E10001C351000161190BE10001C451E7
:102670000001621906E10001C55100016319D8B4D7
:102680000FD0000E01011B6F210E1A6F000E00010A
:10269000BE6F000EBF6F000EC06F000EC16F120044
:1026A0000001CF51010B0001CE6FBEC060F0BFC072
:1026B00061F0C0C062F0C1C063F078ECB2F060C0FD
:1026C000BEF061C0BFF062C0C0F063C0C1F0BEC068
:1026D000ABF0BFC0ACF0C0C0ADF0C1C0AEF0B3EC69
:1026E00099F0ABC0C6F0ACC0C7F0ADC0C8F0AEC08A
:1026F000C9F0C6C06EF0C7C06FF0C8C070F0C9C0E6
:1027000071F0C2C072F0C3C073F0C4C074F0C5C031
:1027100075F0D0EC84F06EC0CAF06FC0CBF070C022
:10272000CCF071C0CDF0CAC0B3F0CBC0B4F0CCC017
:10273000B5F0CDC0B6F0EFEC8CF0B3C0BEF0B4C0D5
:10274000BFF0B5C0C0F0B6C0C1F00001CE5100016D
:10275000D8B413D0BEC060F0BFC061F0C0C062F09A
:10276000C1C063F078ECB2F060C0BEF061C0BFF0F1
:1027700062C0C0F063C0C1F01200BEC0BEF0BFC0F6
:10278000BFF0C0C0C0F0C1C0C1F012004E0E0001C9
:102790009B6F010E00019C6F000E00019E6F020EE8
:1027A0009D6F920E00019F6F6A0E0001A06F010ED7
:1027B0000001A16F280E0001A26F690E0001A36F36
:1027C000010E0001A46F040E0001A56F140E00019C
:1027D000A66F000E0001A76F90ECA2F0300E000172
:1027E0009B6F010E00019C6F000E00019E6F020E98
:1027F0009D6F920E00019F6F6A0E0001A06F010E87
:102800000001A16F880E0001A26F690E0001A36F85
:10281000010E0001A46F040E0001A56F140E00014B
:10282000A66F000E0001A76F90ECA2F0260E00012B
:102830009B6F010E00019C6F000E00019E6F020E47
:102840009D6F920E00019F6F6A0E0001A06F010E36
:102850000001A16F700E0001A26F690E0001A36F4D
:10286000010E0001A46F040E0001A56F140E0001FB
:10287000A66F000E0001A76F90ECA2F03A0E0001C7
:102880009B6F010E00019C6F000E00019E6F020EF7
:102890009D6F920E00019F6F6A0E0001A06F010EE6
:1028A0000001A16F580E0001A26F690E0001A36F15
:1028B000010E0001A46F040E0001A56F140E0001AB
:1028C000A66F000E0001A76F90ECA2F0440E00016D
:1028D0009B6F010E00019C6F000E00019E6F020EA7
:1028E0009D6F920E00019F6F6A0E0001A06F010E96
:1028F0000001A16F400E0001A26F690E0001A36FDD
:10290000010E0001A46F040E0001A56F140E00015A
:10291000A66F000E0001A76F90ECA2F0A00E0001C0
:102920008D6F860E8E6F010E8F6F000E906F000EF2
:102930000001916F020E0001926F23EC87F0580E98
:1029400000016F6F010E0001706FD5ECACF0000E4E
:102950000001A96F000EA86F0001A95113E1080E34
:102960000001A85DD8B012001E0E0001A825D96E86
:10297000010E0001A921DA6E000EDF6E0001A84BE6
:10298000A92BEAD712000001686F0001685100010D
:10299000D8B41ED0000163AF1BD060C064F061C02A
:1029A00065F062C066F063C067F00001641F651FD8
:1029B000661F671F642B000E65236623672364C0B0
:1029C0006AF065C06BF066C06CF067C06DF008D04F
:1029D00060C06AF061C06BF062C06CF063C06DF003
:1029E00000016051000161110001621100016311D9
:1029F000D8A40AD0000E0001606F000E616F000EB7
:102A0000626F000E636F1200960E0001696F08D0AE
:102A10000001692B0001D8906D336C336B336A333E
:102A2000000E00016A150001646F000E00016B15B5
:102A30000001656F000E00016C150001666FFE0E4F
:102A400000016D150001676F0001645100016511FF
:102A50000001661100016711D8B410D0D9D7000168
:102A6000692B010E00016A27000E6B236C236D2376
:102A70000001D8906D336C336B336A33000E000164
:102A80006A150001646F000E00016B150001656F8F
:102A9000000E00016C150001666FFF0E00016D1540
:102AA0000001676F000164510001651100016611AA
:102AB00000016711D8B409D0D2D70001690700011D
:102AC000D8906A376B376C376D3700016CBF04D014
:102AD000020E00016961F1D7000169B109D0FF0E52
:102AE00000016A17FF0E6B177F0E6C17FF0E6D1734
:102AF0000001D890693369C064F00001656B666BB2
:102B0000676B64C067F00001666B656B646B000106
:102B1000645100016A130001655100016B1300014B
:102B2000665100016C130001675100016D13000133
:102B300068510001D8B405D0000163AF02D0000194
:102B40006D8F6AC060F06BC061F06CC062F06DC0E8
:102B500063F0120086C0D9FF87C0DAFFDECF8BF0AA
:102B6000DDCF8CF0050E00018A6FB5D0000120EE9C
:102B700002F08651D9268751DA22DECF60F0DDCF10
:102B800061F088C062F0010E0001636F88ECAEF066
:102B9000B0D08BC06FF08CC070F0010E0001716F6F
:102BA00088C072F06FECABF000018A6F00018A51AF
:102BB000D8A41200000120EE02F08651D9268751D8
:102BC000DA22DECF60F0DDCF61F088C062F0000E67
:102BD0000001636F88ECAEF0000120EE04F0865136
:102BE000D9268751DA22DECF60F0DDCF61F088C0D0
:102BF00062F0000E0001636F88ECAEF07AD08BC0FB
:102C00006FF08CC070F0020E0001716F88C072F01E
:102C10006FECABF000018A6F00018A51D8A412005A
:102C2000000120EE02F08651D9268751DA22DECF4C
:102C300060F0DDCF61F088C062F0010E0001636FCB
:102C400088ECAEF0000120EE04F08651D9268751C1
:102C5000DA22DECF60F0DDCF61F088C062F0010ED5
:102C60000001636F88ECAEF044D08BC06FF08CC075
:102C700070F0000E0001716F88C072F06FECABF065
:102C800000018A6F00018A51D8A41200000120EED1
:102C900002F08651D9268751DA22DECF60F0DDCFEF
:102CA00061F088C062F0000E0001636F88ECAEF046
:102CB000000120EE04F08651D9268751DA22DECFBA
:102CC00060F0DDCF61F088C062F0000E0001636F3C
:102CD00088ECAEF00ED000018951000AD8B446D776
:102CE000010AD8B456D7030AD8B489D7010AD8B490
:102CF000BCD7080E0001862500016F6F000E000191
:102D000087210001706F88C071F089C072F01AECE1
:102D1000B1F012000001736FB1D097ECA8F012006F
:102D20001CECAFF012001BECAAF01200C4ECA3F0F4
:102D3000120055ECAEF01200F6ECB3F0120073C0C6
:102D400070F07F0E000170170001E751140D850E21
:102D50000001716F020E0001726FF35000017127C4
:102D6000F450000172230001E851010DF3500001FD
:102D70007125D96EF45000017221DA6EDF507F0B9D
:102D800000017019D8B42ED0010E0001EC6F0001C3
:102D9000E751140D850E0001706F020E0001716F76
:102DA000F35000017027F450000171230001E85135
:102DB000010DF35000017025D96EF450000171210E
:102DC000DA6E000173518009DF6E0001E751020DD8
:102DD000000EF324D96E020EF420DA6EEAC0DEFF94
:102DE000EBC0DDFF55ECAEF00009D8B4120073C0A3
:102DF00070F07F0E000170170001E751140D850E71
:102E00000001716F020E0001726FF3500001712713
:102E1000F450000172230001E851010DF35000014C
:102E20007125D96EF45000017221DA6EDF507F0BEC
:102E300000017019D8B41200010E0001EC6F0001FE
:102E4000E751140D850E0001706F020E0001716FC5
:102E5000F35000017027F450000171230001E85184
:102E6000010DF35000017025D96EF450000171215D
:102E7000DA6E000173518009DF6E12000001735198
:102E8000070AD8B456D70F0AD8B44AD7010AD8B41B
:102E90004DD7030AD8B441D7060AD8B444D7010A9B
:102EA000D8B43BD72D0AD8B44AD7030AD8B444D7EC
:102EB00046D7770E00017C6F000E00017D6FB1D008
:102EC000250E00018019D8B405D000018051F8EC1E
:102ED000B4F0A7D0000E00017A6F11D07CC0D9FFEA
:102EE0007DC0DAFFDF500001806F020E00017C27F9
:102EF000000E7D2300018051F8ECB4F092D075C033
:102F0000F6FF76C0F7FF0001754B762B000EF86ECA
:102F10000800F5CF80F000018051000AD8B41200FB
:102F2000630AD8B4DBD7070AD8B403D00D0AD8A4F3
:102F3000E1D77CC0D9FF7DC0DAFFDECF7EF0DDCFE8
:102F40007FF0020E00017C27000E7D2300017FAF81
:102F500008D0030E00017A1300017E6D7F1FD8B0E8
:102F60007F2B010E0001806F050E00018019D8B47F
:102F700019D000018051020D090EF324F66EFD0EEA
:102F8000F420F76EF86A000EF8220900F5500001EF
:102F90007E5D0900F55000017F59D8A003D00001E3
:102FA000802BE2D77AC079F0030E00017917D8B4EC
:102FB00003D02D0EF8ECB4F080C07BF02CD00001D3
:102FC0007B51020D090EF324F66EFD0EF420F76E10
:102FD000F86A000EF8220900F5CF62F00A00F5CF7A
:102FE00063F07EC060F07FC061F0EAECABF060C0DF
:102FF00067F061C068F0000E00016A6F0A0E696F29
:10300000EBECAEF000016751300F0001806F000162
:103010008051F8ECB4F000017B0700017B29D8A4B3
:10302000CED775C0F6FF76C0F7FF0001754B762B43
:10303000000EF86E0800F5CF80F000018051D8B482
:1030400012003ED70001A2519FECA7F0A0C0D9FF0B
:10305000A1C0DAFF000160C0DEFF000161C0DDFF3A
:103060000001A251F2ECA7F0000120EE06F0A05101
:10307000D926A151DA22000160C0DEFF000161C043
:10308000DDFF0001A251F2ECA7F0000120EE04F0F8
:10309000A051D926A151DA22000160C0DEFF000153
:1030A00061C0DDFF0001A2514CECA7F0000120EE51
:1030B00002F0A051D926A151DA22000160C0DEFF42
:1030C000000161C0DDFF000120EE04F0A051D9260F
:1030D000A151DA22DECFA3F0DDCFA4F0A3C0D9FF47
:1030E000A4C0DAFF000EDF6E000120EE02F0A05156
:1030F000D926A151DA22DECFA3F0DDCFA4F0A3C000
:10310000D9FFA4C0DAFFFF0EDF6EA0C09AF0A1C005
:103110009BF0000E00019C6FA9EC90F0000E0001E6
:10312000A56F070E0001A56531D04BD0A0C086F079
:10313000A1C087F0A5C088F0030E0001896FAAEC3A
:1031400095F03CD0A0C086F0A1C087F0A5C088F063
:10315000020E0001896FAAEC95F030D0A0C086F075
:10316000A1C087F0A5C088F0010E0001896FAAEC0C
:1031700095F024D0A0C086F0A1C087F0A5C088F04B
:10318000000E0001896FAAEC95F018D0A0C0D9FFFD
:10319000A1C0DAFFDECF6CF0DDCF6DF0A5C06EF020
:1031A0001EECB2F0000AD8B4C1D7010AD8B4D6D701
:1031B000030AD8B4C7D7010AD8B4DCD70001A52BBD
:1031C000B0D7A0C06FF0A1C070F0000E0001716F09
:1031D00012EC8BF01200000E000160150001686F08
:1031E000000E000161150001696F800E000162157B
:1031F00000016A6F7F0E0001631500016B6F000113
:1032000068510001691100016A1100016B11D8A415
:1032100009D0000E0001606F000E616F000E626F3A
:10322000000E636F000E000164150001686F000E50
:10323000000165150001696F800E0001661500012F
:103240006A6F7F0E0001671500016B6F0001685106
:103250000001691100016A1100016B11D8A409D0A5
:10326000000E0001646F000E656F000E666F000EA9
:10327000676F000163AF26D060C068F061C069F07D
:1032800062C06AF063C06BF00001681F691F6A1FAB
:103290006B1F682B000E69236A236B23000E00014D
:1032A00068250001606F000E000169210001616F57
:1032B000000E00016A210001626F800E00016B2187
:1032C0000001636F000167AF26D064C068F065C07D
:1032D00069F066C06AF067C06BF00001681F691F83
:1032E0006A1F6B1F682B000E69236A236B23000E75
:1032F000000168250001646F000E000169210001D2
:10330000656F000E00016A210001666F800E0001EA
:103310006B210001676F000E0001601B000E611B36
:10332000000E621B800E631B000E0001641B000E6A
:10333000651B000E661B800E671B000164510001B7
:10334000605D000165510001615900016651000195
:1033500062590001675100016359D8B002D0D8907A
:103360001200D88012000001AEAF0FD0000E010194
:103370001B6F210E1A6F000E0001AB6F000EAC6FB9
:10338000000EAD6F000EAE6F12000001AB510001D8
:10339000AC110001AD110001AE11D8A40FD0000E88
:1033A00001011B6F220E1A6F000E0001AB6F000EA1
:1033B000AC6F000EAD6F000EAE6F1200000E00017C
:1033C000726F000E736F000E746F400E756FAF0E4C
:1033D0000001646F000E0001656FABC060F0ACC00F
:1033E00061F0ADC062F0AEC063F03FECA5F060C02C
:1033F0006EF061C06FF062C070F063C071F0D0EC2D
:1034000084F06EC087F06FC088F070C089F071C022
:103410008AF0000E00018B6F000E8C6F800E8D6F96
:10342000BF0E8E6F7CEC82F087C0ABF088C0ACF032
:1034300089C0ADF08AC0AEF00001AF07D8A0B007D8
:10344000ABC09BF0ACC09CF0ADC09DF0AEC09EF098
:103450002B0E00019F6FFF0E0001A06F000E0001F8
:10346000A26F080EA16FBBEC9FF09BC0ABF09CC09D
:10347000ACF09DC0ADF09EC0AEF0180E0001726FB2
:10348000720E736F310E746F3F0E756FAFC060F0C8
:10349000B0C061F00001000E61BFFF0E626F636F8C
:1034A000010EC3EC94F060C06EF061C06FF062C0BA
:1034B00070F063C071F0D0EC84F06EC087F06FC024
:1034C00088F070C089F071C08AF0ABC08BF0ACC0DE
:1034D0008CF0ADC08DF0AEC08EF07CEC82F087C079
:1034E000ABF088C0ACF089C0ADF08AC0AEF012007D
:1034F000010E4A6E000E0001D56F000E0001D66F5E
:10350000000E0001D76FAA0E0001A06F010E00018E
:10351000A16F000E0001A26F22EC98F0A00E000136
:10352000A06F010E0001A16F010E0001A26F22EC3D
:1035300098F0350E0001A06F000E0001A16F020E81
:103540000001A26F22EC98F0960E0001A06F010E10
:103550000001A16F030E0001A26F22EC98F08C0E07
:103560000001A06F010E0001A16F040E0001A26F07
:1035700022EC98F0B40E0001A06F010E0001A16FC3
:10358000050E0001A26F22EC98F0820E0001A06FE0
:10359000010E0001A16F060E0001A26F22EC98F04F
:1035A000B40E0001866F010E0001876F050E000149
:1035B000886F000E0001896FAAEC95F0A00E000143
:1035C000966F010E0001976F000E0001986F000EBC
:1035D0000001996F7EEC8FF0B40E0001866F010E32
:1035E0000001876F060E0001886F030E0001896FCE
:1035F000AAEC95F0820E00019A6F010E00019B6FFC
:10360000030E00019C6FA9EC90F0820E00016F6F19
:10361000010E0001706F040E0001716F000E0001B9
:10362000726F62ECA3F0B40E00016F6F010E000127
:10363000706F060E0001716F010E0001726F62EC77
:10364000A3F0000EBAECAEF0010EBAECAEF0000E34
:103650009E6E000EA16E000EA46E9B8E9B8C000EC3
:103660000001616F640E606FB7ECADF0D08E120098
:1036700049ECADF0000E0001986F000E976F00014D
:10368000985106E1590E0001975DD8B08BD001D05A
:1036900089D0D89000019735F66E00019835F76E05
:1036A000370EF626FC0EF722F86A000EF822090003
:1036B000800EF5180900F510D8A422D00001985109
:1036C0001FE1580E0001975DD8B01AD00001974B4A
:1036D000982BD89000019735F66E00019835F76E5B
:1036E000370EF626FC0EF722F86A000EF8220900C3
:1036F000F5CF60F00A00F5CF61F0B7ECADF04BD03C
:10370000D89000019735F66E00019835F76E370EA8
:10371000F626FC0EF722F86A000EF8220900000EC9
:10372000F55E0900010EF55AD8A020D0000E000168
:10373000636FD89000019735F66E00019835F76EEB
:10374000370EF626FC0EF722F86A000EF822090062
:10375000F5CF95F00900F5CF96F096C095F00001F1
:10376000966B00019551E5ECB3F015D0010E000108
:10377000636FD89000019735F66E00019835F76EAB
:10378000370EF626FC0EF722F86A000EF822080023
:10379000F550E5ECB3F00001974B982B00019851E0
:1037A00001E170D7000E0001616F640E606FB7EC2D
:1037B000ADF0000E0001636F290EE5ECB3F0010ED1
:1037C00087ECA9F0000E0001616F640E606FB7EC2A
:1037D000ADF0000E00016A6F000E696F77ECAFF07C
:1037E0001200000120EE07F07B51D9267C51DA222D
:1037F00001D80AD00500FA6EDE50FD6EDE50FE6E76
:10380000DE50FF6EFA5012000001836F7BC0D9FFBB
:103810007CC0DAFF00018351DE18D8A421D000015A
:1038200020EE01F07B51D9267C51DA2200017D5136
:10383000DE5CD8B00AD0000120EE01F07B51D92621
:103840007C51DA22000EDF6E1200000120EE01F042
:103850007B51D9267C51DA2200017D51DF5E1200B6
:10386000000120EE01F07B51D9267C51DA22DF5095
:1038700000017E6F7F6B00017D5100017E27000EED
:103880007F23000120EE01F07B51D9267C51DA2202
:10389000DF500001806F816B00017E510001805D6F
:1038A00000018151800A0001826F00017F51800A6E
:1038B00000018259D8B01200000120EE01F07B51C6
:1038C000D9267C51DA2200017D51DF26000120EE4D
:1038D00002F07B51D9267C51DA22000110EE01F072
:1038E0007B51E1267C51E222E7500001806F816B21
:1038F000DE500001805DDE5000018159D8A0120029
:103900007BC0D9FF7CC0DAFF83C0DFFF000120EE5F
:1039100001F07B51D9267C51DA22000EDF6E0001C6
:1039200020EE04F07B51D9267C51DA2201D8120016
:103930000500FA6EDE50FD6EDE50FE6EDE50FF6E4C
:10394000FA50000183511200800E0001736F8D0E3A
:10395000746F5B0E756F000E766FD59E00016D5112
:1039600000016E1100016F1100017011D8B4120036
:10397000D596D59CD59AD59873C060F074C061F087
:1039800075C062F076C063F06DC064F06EC065F023
:103990006FC066F070C067F084ECA4F060C077F090
:1039A00061C078F062C079F063C07AF00CD0000199
:1039B000E62B020E0001E66501D02FD0070E0001B4
:1039C000E66501D0120077C060F078C061F079C080
:1039D00062F07AC063F00001E651020DE90EF324B3
:1039E000F66EFC0EF420F76EF86A000EF82209005D
:1039F000F5CF71F00900F5CF72F071C064F072C0BC
:103A000065F00001666B676B84ECA4F00001635104
:103A1000CEE100016205D8B0CAD70001E651020D1F
:103A2000E90EF324F66EFC0EF420F76EF86A000E31
:103A3000F8220800F5CFE5F0FF0E0001772501011F
:103A4000046FFF0E000178210101056FFF0E0001D8
:103A500079210101066FFF0E00017A210101076F34
:103A600004C160F005C161F006C162F007C163F0F6
:103A70000001E5510001646F656B666B676B84EC58
:103A8000A4F00001601F0001611F0001604B612B69
:103A9000FF0E00016025296EFF0E000161212A6ED4
:103AA0001AECB5F0D58E1200000E0001766F6C0E88
:103AB000776FDC0E786F020E796F0001D8906D374A
:103AC0006E376F377037020E0001716FD8900001AA
:103AD00079337833773376330001712FF7D776C097
:103AE00060F077C061F078C062F079C063F06DC0BB
:103AF00064F06EC065F06FC066F070C067F084EC73
:103B0000A4F060C07AF061C07BF062C07CF063C05A
:103B10007DF010D0000E0001726F000E736F000E6A
:103B2000746F000E756F0001E42B020E0001E46556
:103B300001D026D07AC060F07BC061F07CC062F01A
:103B40007DC063F00001E451010D200EF324F66EF8
:103B5000FD0EF420F76EF86A000EF8220800F5500A
:103B60000001646F656B666B676B84ECA4F0000109
:103B7000635100016211CEE100016105D8B0CAD7DE
:103B8000CA500001E419FC0BE419CA6ECA843BEC6C
:103B9000B5F00001E451010D200EF324F66EFD0E88
:103BA000F420F76EF86A000EF8220800F5CFE3F073
:103BB000FF0E00017A250101006FFF0E00017B213D
:103BC0000101016FFF0E00017C210101026FFF0E58
:103BD00000017D210101036F00C160F001C161F0AE
:103BE00002C162F003C163F00001E3510001646FA0
:103BF000656B666B676B84ECA4F00001605100019B
:103C0000E46FE4C0CBFF120050B2CDEFA0F0000192
:103C100020EE04F0DC51D926DD51DA22DF5060ECD1
:103C2000B1F00009D8B47AD0DCC0D9FFDDC0DAFF2A
:103C3000DE50DE10D8B46DD0DCC0D9FFDDC0DAFFB5
:103C4000010EDBBE26D0010EDB5003E1DE04D8A05E
:103C500020D0DCC0D9FFDDC0DAFFDE2804E17F0E12
:103C6000DE18D8B407D0DCC0D9FFDDC0DAFFDE062D
:103C7000000EDD5A8C0E00016F6F010E0001706F97
:103C8000000E0001716F010E0001726F62ECA3F073
:103C90001FD0DCC0D9FFDDC0DAFFDE0404E1800EF6
:103CA000DE18D8B407D0DCC0D9FFDDC0DAFFDE2AC9
:103CB000000EDD228C0E00016F6F010E0001706F8F
:103CC000000E0001716F000E0001726F62ECA3F034
:103CD0008C0E00016F6F010E0001706F010E00016C
:103CE000716F010E0001726F62ECA3F08C0E000187
:103CF0006F6F010E0001706F010E0001716F000EF9
:103D00000001726F62ECA3F05FECB4F020ECB5F050
:103D100012005FECB4F043ECB5F012000BC160F0A0
:103D20000CC161F00DC162F006ECB5F012000001AB
:103D3000AB510001AC110001AD110001AE11D8A4CE
:103D40000AD0000E0001AB6F000EAC6F000EAD6F1D
:103D5000000EAE6F12000001AE517F0B0001B16F7B
:103D6000B26BD8900001B137B2370001B1510001F8
:103D7000AF270001B2510001B0230001ADAF04D064
:103D80000001B16BB12B02D00001B16B0001B15148
:103D90000001AF27000EB0230001B0AF0FD0000E1E
:103DA00001011B6F220E1A6F000E0001AB6F000E97
:103DB000AC6F000EAD6F000EAE6F12000001B0BF11
:103DC0001ED00001B005D8A01AD0000E01011B6F53
:103DD000220E1A6F0001AEAF09D0FF0E0001AB6FCB
:103DE000FF0EAC6F7F0EAD6FFF0EE6D7FF0E00012A
:103DF000AB6FFF0EAC6F7F0EAD6F7F0EDDD7000196
:103E0000B035B0310001B26F0001AF310001B16FC8
:103E10000001AE510001B119800BB1190001AE6F64
:103E2000AFC0B1F0010E0001B1170001B133B133E1
:103E30000001AD510001B1197F0BB1190001AD6F47
:103E4000ABC0ABF0ACC0ACF0ADC0ADF0AEC0AEF04E
:103E500012009BC060F09CC061F09DC062F09EC0EB
:103E600063F0A30E0001646F000E0001656F3FEC6C
:103E7000A5F00001A4AF17D000019EAF0AD0000E3C
:103E800000019B6F000E9C6F800E9D6FBF0E9E6F9A
:103E90001200000E00019B6F000E9C6F000E9D6FC4
:103EA000000E9E6F12000001A45105E11D0E0001DD
:103EB000A35DD8A009D09BC09BF09CC09CF09DC086
:103EC0009DF09EC09EF012009BC087F09CC088F0C1
:103ED0009DC089F09EC08AF047ECA0F087C060F0DA
:103EE00088C061F089C062F08AC063F0010EC3EC43
:103EF00094F060C09FF061C0A0F062C0A1F063C008
:103F0000A2F09BC060F09CC061F09DC062F09EC0BA
:103F100063F09FC064F0A0C065F0A1C066F0A2C0CD
:103F200067F0EBEC98F00001D8B01CD09FC087F090
:103F3000A0C088F0A1C089F0A2C08AF0000E0001E4
:103F40008B6F000E8C6F800E8D6FBF0E8E6F7CECB2
:103F500082F087C09BF088C09CF089C09DF08AC029
:103F60009EF012009FC09BF0A0C09CF0A1C09DF0ED
:103F7000A2C09EF01200A1C0A3F0A2C0A4F0000154
:103F8000D890A337A4370001D890A337A4379FC097
:103F9000A5F0A0C0A6F00001A3510001A5270001D3
:103FA000A4510001A623A5C0F6FFA6C0F7FF000E8E
:103FB000F86E0900F5CFA7F00900F5CFA8F00900C9
:103FC000F5CFA9F00A00F5CFAAF052D0A7C072F041
:103FD000A8C073F0A9C074F0AAC075F09BC06EF0C1
:103FE0009CC06FF09DC070F09EC071F0D0EC84F06A
:103FF0006EC087F06FC088F070C089F071C08AF021
:104000000001A107D8A0A207A1C0A3F0A2C0A4F0FC
:104010000001D890A337A4370001D890A337A43764
:104020009FC0A5F0A0C0A6F00001A3510001A527E4
:104030000001A4510001A623A5C0F6FFA6C0F7FF0A
:10404000000EF86E0900F5CF8BF00900F5CF8CF06B
:104050000900F5CF8DF00A00F5CF8EF07CEC82F0F0
:1040600087C0A7F088C0A8F089C0A9F08AC0AAF0CC
:104070000001A1510001A211D8A4A8D7A7C09BF0AC
:10408000A8C09CF0A9C09DF0AAC09EF0120000013B
:1040900089358A350001906F00019051D8A40AD06B
:1040A000000E0001876F000E886F000E896F000EF2
:1040B0008A6F120087C08BF088C08CF089C08DF0A9
:1040C0008AC08EF0200E06D00001D8908E338D333A
:1040D0008C338B33E82EF8D700018B5100018F6FA2
:1040E0000001898FFF0E00018717FF0E8817FF0E52
:1040F0008917000E8A17960E0001905F000190AF9D
:104100001AD000019051800A970FD8B00AD0000E43
:104110000001876F000E886F000E896F000E8A6F96
:1041200012000001D8908A33893388338733000125
:10413000903FF7D71BD01F0E0001906512D0000EE4
:104140000001876F000E886F000E896F000E8A6F66
:1041500012000001D8908737883789378A370001E5
:104160009007000190510001D8A4F3D700018F51AE
:104170000001D8B409D000018A1F891F881F876DEC
:10418000000E882389238A2387C087F088C088F09F
:1041900089C089F08AC08AF01200000120EE04F084
:1041A000DC51D926DD51DA22DF50AFECB2F0000944
:1041B000D8B46AD0DCC0D9FFDDC0DAFFDE50DE1033
:1041C000D8B45DD0DCC0D9FFDDC0DAFF010EDBBEA4
:1041D00022D0010EDB5003E1DE04D8A01CD0DCC0ED
:1041E000D9FFDDC0DAFFDE2804E17F0EDE18D8B487
:1041F00007D0DCC0D9FFDDC0DAFFDE06000EDD5AD5
:104200008C0E106E010E116E000E126E010E136EEA
:10421000F7ECA6F01BD0DCC0D9FFDDC0DAFFDE046E
:1042200004E1800EDE18D8B407D0DCC0D9FFDDC0B1
:10423000DAFFDE2A000EDD228C0E106E010E116EEA
:10424000000E126E000E136EF7ECA6F08C0E106EC0
:10425000010E116E010E126E010E136EF7ECA6F038
:104260008C0E106E010E116E010E126E000E136E8A
:10427000F7ECA6F052ECB5F026ECB5F0120052ECDB
:10428000B5F04FECB5F012000BC101F00CC102F01B
:104290000DC103F00DECB5F012006CC074F06DC0F0
:1042A00075F0000E0001736F000E726F6EC070F03B
:1042B0006FC071F00001745100017511D8A434D0A1
:1042C00070C0D9FF71C0DAFF300EDF6E000E000142
:1042D000736F010E726F40D074C067F075C068F0E4
:1042E000000E00016A6F0A0E696FEBECAEF0000180
:1042F0006751300F70C0D9FF71C0DAFFDF6E74C034
:1043000060F075C061F0000E0001636F0A0E626F0D
:10431000EAECABF060C074F061C075F00001724B64
:10432000732B0001704B712B00017451000175114A
:10433000D8B408D00001735105E1060E0001725D8A
:10434000D8A0CAD76EC060F06FC061F072C062F0D2
:1043500073C063F081ECADF00001725100016E2575
:10436000D96E0001735100016F21DA6E000EDF6E0D
:104370001200000E00018D6F000E8E6F800E8F6F89
:10438000440E906F330E0001916F330E926F530EF7
:10439000936F400E946F000120EE01F08751D926F3
:1043A0008851DA22DECF8BF0DDCF8CF08BC060F04D
:1043B0008CC061F00001626B636B000EC3EC94F083
:1043C00060C095F061C096F062C097F063C098F04D
:1043D00095C060F096C061F097C062F098C063F03D
:1043E0008DC064F08EC065F08FC066F090C067F03D
:1043F00032EC89F060C095F061C096F062C097F031
:1044000063C098F095C06EF096C06FF097C070F0E2
:1044100098C071F091C072F092C073F093C074F0C4
:1044200094C075F0D0EC84F06EC095F06FC096F03B
:1044300070C097F071C098F095C087F096C088F072
:1044400097C089F098C08AF012008DC0D9FF8EC045
:10445000DAFF000EDE6E000EDD6E000120EE02F0CF
:104460008D51D9268E51DA22000EDE6E000EDD6EE1
:10447000000120EE04F08D51D9268E51DA228FC032
:10448000DEFF90C0DDFF8C0E0001866F010E000183
:10449000876F000E0001886F030E0001896FAAEC80
:1044A00095F08C0E0001866F010E0001876F010EE2
:1044B0000001886F030E0001896FAAEC95F08C0E45
:1044C00000016F6F010E0001706F000E0001716F2F
:1044D000000E0001726F62ECA3F08C0E00016F6F92
:1044E000010E0001706F010E0001716F000E0001DE
:1044F000726F62ECA3F0080E01010B6F3C0E01011C
:104500000C6F010E01010D6FE80E00016D6F030EBF
:104510006E6F000E6F6F000E706FA4EC9CF01200B7
:1045200000019B5100019C11D8B4120000019F5161
:104530000001A0110001A111D8B412000001A25184
:104540000001A3110001A411D8B412000001A5516B
:104550000001A6110001A711D8B4120000019D515D
:1045600000019E11D8A405D0000E00019E6F010E1F
:104570009D6F9BC0D9FF9CC0DAFF000EDF6E00016B
:1045800020EE01F09B51D9269C51DA22000EDF6EFD
:10459000000120EE02F09B51D9269C51DA229DC0E9
:1045A000DEFF9EC0DDFF000120EE04F09B51D92606
:1045B0009C51DA22A5C0DEFFA6C0DEFFA7C0DEFF49
:1045C000000120EE07F09B51D9269C51DA22A2C0AF
:1045D000DEFFA3C0DEFFA4C0DEFF01D8120005008D
:1045E000FA6E00019F51FD6EA051FE6EA151FF6E4B
:1045F000FA50120000016B6F200E00016B5F00018A
:104600006B51050DF3CF69F0F4CF6AF0230E000172
:10461000692500016C6FFD0E00016A2100016D6FBC
:10462000000E0001706F040E0001706501D043D0D0
:10463000000E0001716F060E0001716501D035D0CA
:104640006CC060F06DC061F071C062F0CAECB2F095
:104650000009D8A405D0E0C06EF0E1C06FF004D02E
:10466000EAC06EF0EBC06FF0000171510A0D1E0E32
:104670000001676F020E0001686FF35000016727A9
:10468000F4500001682300017051020DF350000145
:104690006725D96EF45000016821DA6E6EC0DEFF26
:1046A0006FC0DDFF0001712BC6D700016C4B6D2B75
:1046B0000001702BB8D71E0E0001656F020E0001BD
:1046C000666F1200080E00016F2500016C6F000E6E
:1046D0000001702100016D6F71C06EF01EECB2F030
:1046E0000001736F42D0010E00017217000120EE2D
:1046F00002F06F51D9267051DA22DECF60F0DDCFA3
:1047000061F071C062F072C063F088ECAEF012002C
:10471000010E00017217010E0001721B000120EE54
:1047200002F06F51D9267051DA22DECF60F0DDCF72
:1047300061F071C062F072C063F088ECAEF01200FC
:10474000010E00017217000120EE04F06F51D9260E
:104750007051DA22DECF60F0DDCF61F071C062F01F
:1047600072C063F088ECAEF0120000017351000AD1
:10477000D8B41200010AD8B4B6D7030AD8B4C8D73F
:10478000010AD8A41200DCD7000E00016E6FFA0EE9
:1047900046240001606FFF0E47200001616F000E8C
:1047A0000001636F060E626F25ECA4F000016051FA
:1047B00000016F6F6FC060F00001616B000E0001BF
:1047C000636F040E626F25ECA4F0000160510001DC
:1047D0006D6F000E00016E6F06D081ECB1F055ECEC
:1047E000AEF000016E2B00016D51040DF31EF41E9E
:1047F000F34AF42A00016F510001686F696BF350AE
:1048000000016827F450000169230001681F691F37
:10481000684B692B040E00016827000E6923000114
:104820006E5100016A6F6B6B0001685100016A5D97
:1048300000016B51800A00016C6F00016951800A10
:1048400000016C59D8B01200C8D7000E0001656F86
:10485000000163AF08D00001626D631FD8B0632B05
:10486000010E0001656F000161AF08D00001606DAD
:10487000611FD8B0612B010E0001651B000E000105
:10488000676F000E666F0001625100016311D8B4BA
