:100000000DEF04F026EF00F004EF0AF0D1EC04F05D
:10001000FF0000F000F012000CEF0AF018EF00F003
:10003000F26AFC6A9BEC04F004009EEC09F0D8EC38
:1000400003F0F3EC03F05EEC08F0F6D701501F0B61
:10005000E80601E01200055001E01200060E021849
:1000600014E01AD0020E3D6E4A0E3FD8306A090ED7
:100070000AD0020E3D6E450402E1870E36D84504D3
:100080000AE1306A1D0E2F6E06D00450210AEAE004
:10009000030AEFE0010A42820138E832030BE80666
:1000A00014E01200020E3D6E440E206E24D0020EAB
:1000B0003D6E04C044F0020C020E3D6E430EF5D7B7
:1000C000020E3D6E03C043F0020C0250010AD8B488
:1000D0001200030AE7E0010AEFE00A0AD8B41200AE
:1000E000030AE5E0010AECE01200206E2050D8A4DB
:1000F000100E216E1200216A4292010E2F6E010C29
:100100004F6A140E506E516A296A2A6A4FC0F6FF70
:1001100050C0F7FF51C0F8FF42D80800F5CFDFFF0D
:100120004F2A000E50225122294A2A2A040E2A5C04
:10013000EDE30D0EE8CFB2F4600EE8CFB3F4000E9D
:10014000496E050E486E0AEC03F04F68170E506EAC
:10015000516A030E2A6E296851C0F8FF50C0F7FF9C
:100160004FC0F6FF1CD8DF50F56E0C0029C04EF0D2
:100170003F0E4E1607E1FEEC09F0040EA66EB50E1A
:1001800067EC04F04F06000E505A515A0A002950ED
:100190002A1001E112002906D8A02A06DDD7AC0EEC
:1001A0002924D96E040E2A20DA6E120003040BE112
:1001B00001501F0B08E1010E3D6E030E021802E113
:1001C000428001D042900350D8A4120001501F0B6E
:1001D000020AD8A4120005500F0BD8B4120028D878
:1001E000476A040E486E4726000E4822F350472601
:1001F000F450482223D847241D6EF45048201E6E28
:10020000030E021805E10FD8040EDF6E0CD81CD0C7
:1002100005AE04D008D8400EDF6E400C04D8080E9E
:10022000DF6E01D811D01DC0D9FF1EC0DAFF120049
:10023000010E3D6E05500F0B080D1200010E05AEAC
:10024000000E040DF3501200000EDB8E000C3D502A
:1002500010E193EC03F0196E3A0405E1010E32EC63
:1002600003F03A6A1200000E32EC03F0010E3A6E0F
:10027000010C01AE1BD0010E3E6E2F50075C3050BA
:10028000085804E207C02FF008C030F076EC01F007
:10029000480E196E010E32EC03F0000E32EC03F042
:1002A000240E04010A6F040E0B6F1CD0020E3E6E6A
:1002B000040E196E0750081002E1480E196E3A0438
:1002C00005E1010E32EC03F03A6A05D0000E32EC83
:1002D00003F0010E3A6E07500810D8A41200040172
:1002E000096B00D0480E086F088F480C080E326E5C
:1002F00030500DE1080E2F5C0AE22FC032F0405062
:1003000002E1010E03D0400402E1020E406E32C051
:1003100009F432502F5E000E305A240E1D6E040E6A
:100320001E6E42A21AD00BD01BD813EC01F00F0E98
:10033000F76403D00800F55001D019D81ED8325008
:10034000F3E112000DD813EC01F00F0EF76403D0A7
:100350000800F55001D00BD810D83250F3E112004C
:1003600020C0F6FF21C0F7FF000EF86E1200F6CF96
:10037000E1FFF7CFE2FFE7501200DF6E1D4A1E2AB1
:10038000204A212A320612000138E832030B18E015
:100390001200010E3D6E040E416E040C010E3D6E06
:1003A000450E206E7BEF00F02CD8496E49C020F03E
:1003B0007BEF00F026D8D96EDA6A03C0DFFF1200A7
:1003C000025002E179EF02F0010A02E1D6EF00F0FB
:1003D000020A02E1D6EF00F0060ADBE0030A02E1BE
:1003E00006EF02F0010AD8B412000F0AD7E0010AA2
:1003F00002E155EF03F0030AD7E0010ADBE0070A48
:100400001200010E3D6E0550460F1200800E0118BD
:1004100030E01200010E3D6EA40E75EC00F0120EDD
:1004200009D003502DE1010E3D6E380E75EC00F041
:10043000306A290E2F6E24D0010E3D6E0350010F3D
:10044000476E47C0F6FF100EF76E000EF86E0900FB
:10045000F5CF20F0100E216EB0EC01F00F0EF76416
:1004600003D00800F55002D0B7EC01F02F6E306ACF
:1004700007D00450010ACEE0030AD3E0010ADCE011
:1004800042821200366A27D03850486E000E48BEAD
:10049000FF0E496E4A6E4B6E4850155C0D6E49500A
:1004A00016580E6E4A5017580F6E4B501858106E53
:1004B0000FC0F8FF0EC0F7FF0DC0F6FF11D80D00FA
:1004C000362A0ED80C00362A240EA66EB50E67EC1E
:1004D00004F0FE0E38263850800A7F0FD5E2120055
:1004E000AC0E3624D96EDA6A040EDA22DF50F56ECD
:1004F0001200246B256B22D0010E3D6E42B0248386
:1005000024D0010E3D6E21D018EC01F0476A040E94
:10051000486E4726000E4822F3504726F4504822E2
:100520001EEC01F047241D6EF45048201E6E13ECA3
:1005300001F0DFA40AD0010E246F07D001501F0B79
:10054000DBE0010ADEE0030ADFE03D04D8A412008C
:10055000240E206E040E216E4292020E2F6E020CAB
:10056000400E486401D0486E4A6A0DD047504A2474
:10057000D96EDA6A6C0E4A24E16EE26A040EE22257
:10058000DFCFE7FF4A2A48504A5CF0E348C011F445
:10059000400E0401101710BD03D0496A492A01D04A
:1005A000496A493A49464946040110514918BF0B66
:1005B0004918106F1087108F12003F6A0CBF12008D
:1005C00048500D5D02E20DC448F03F6A0BD02C0E7E
:1005D0003F24D96EDA6A040EDA2247503F24F9EC40
:1005E00009F03F2A48503F5CF2E3400E0D6F0C17B4
:1005F0000CBD03D0496A492A01D0496A493A4946A3
:10060000494604010C514918BF0B49180C6F0C875F
:100610000C8F1200495006E1050E485C03E2496A5E
:10062000050E486E48504A6E49504B6E4C6A4D6AF2
:100630000A0ED8904A364B364C364D36E82EF9D74E
:100640004AC009F04BC00AF04CC00BF04DC00CF092
:100650000BC0F8FF0AC0F7FFF66A140EA66EB50EBF
:1006600067EF04F0476E080E1A6E1C0E1B6E040E28
:100670001C6E475006E1140E1B6E040E1C6E256A9C
:1006800002D0040E256E266E0BD819C0DEFF1AC0EC
:10069000DEFF1BC0DEFF1CC0DEFF02D8DF8E1200B3
:1006A00025C0D9FF26C0DAFF1200010E3D6E0F01F2
:1006B00016D8346A3450460FD96EDA6ADF6A342AA3
:1006C0003450F8E003C045F04550C9EC04F0035045
:1006D00003E1050E416E050C060E416E060C4D6BD6
:1006E0004E6B4F6B506B516B526B536B1200040E81
:1006F000411808E103C05EFF0F015E51050ED8B43A
:10070000030E416E3E04D8A4120076EC01F0020EF6
:10071000401802E108D8040C0401480E08BD080E78
:10072000086F088F1200040E0401086F088F040C74
:10073000030E416E0F015D6B626A7B0E5C6F5E6B38
:100740006FEC03F0160E4C6F658C03D06296FEECD6
:1007500009F062B6FBD7659C6598040E196E000E11
:1007600032EC03F0010E3A6E426A456A000EC9EFA0
:1007700004F081B818EC00F0060EF66E14D80D0ED9
:10078000F5180DE10900600EF51809E1F66A0BD8BD
:10079000F52803E10900F52802E000EF0AF018EC63
:1007A00000F000EF00F0140EF76EF86A0900140C68
:1007B0002306D8A0240623502410D8A412004E0EDD
:1007C000246E236A060E416002D08B80060C8BB02B
:1007D00003D0476A472A01D0476A8B504718FE0B5F
:1007E00047188B6E1200C0BC1200030ED36E6592C8
:1007F0006596F26A0ED808D0C0AC04D02D06D8A0F9
:100800002E0601D006D804002D502E10F5E1FF0071
:100810001200040E2E6E2D6A040C04EEACF014EEE1
:1008200000F0EE6AE550E150FCE1E250FAE100EE42
:1008300060F0820EEE6AE806FDE100EE01F0460E81
:10084000EE6AE806FDE10001B9EF03F00401086B70
:10085000406A00AF02D0006B3A6A04AF03D0046B69
:10086000010E3A6E3E6A3D6A2F6A306A6598C4ECA2
:1008700001F002EC00F027EF01F005D80AD8376A42
:100880000CD8386A12007E0E3B6E116AFC0E126E96
:10089000FC0C010E136E146A000C156816681768BC
:1008A000186812003F6A1E0E0F014D6F400E0401C2
:1008B0000D6F2C0E0E6F040E0F6F080E0C6F0C8F49
:1008C0006C0E126F040E136F400E106F400C476ECB
:1008D000F29EF3EC03F0B50E471804E0030ED36E5E
:1008E0000300FED7550EA76EAA0EA76EA682A6B26B
:1008F000FED7A69412005CCF35F0040E0F015C6F9A
:1009000062986582A198A088AAEC04F0A09835505E
:100910000F015C131200390402E1D1EC04F0656AA6
:10092000150E0F015F6F5C6B658698EC03F0010E8E
:10093000416E396A1200600ED36E9B8CDCEC04F0C1
:10094000BFEC04F0C16AC26A3DEC04F08B90949055
:10095000E7EF04F08B90D3CF31F00300A1B802D0C1
:10096000D0A6FBD731C0D3FF1200D9EC04F06592BA
:100970000F015C9501D0629462A41200FCD705D0EF
:10098000FEEC09F04706D8A0480647504810F8E1A9
:100990001200476E4704D8A4120052EC04F03DEF59
:1009A00004F06592656A48684768BFEC04F0416AE4
:1009B000120002D8BFEF04F0030E486E476A030C22
:1009C000390401E1120065A68BEC04F0120065B653
:0E09D000D1EC04F0396AE0EF04F012001200DE
:1010000000B6046134034D006900630072006F0094
:1010100063006800690070002000540065006300F0
:1010200068006E006F006C006F00670079002000A0
:1010300049006E0063002E000902290001010080B2
:10104000320904000002030000000921110100011F
:10105000221D000705810340000107050103400030
:101060000126034800490044002000550053004277
:1010700000200042006F006F0074006C006F006180
:10108000006400650072000600FF0901A10119015A
:101090002940150026FF0075089540810019012997
:1010A000409100C01201000200000008D8043C007A
:0B10B00001010102000104030904001B
:1010BC00060E4118D8B465B21200375001E017D1B2
:1010CC0004010CBF1200600E476E400E486EDDEC42
:1010DC0002F0010E376E276A286A2750A10FD96ECD
:1010EC00DA6A000EDF6E274A282A285005E1400EE6
:1010FC00275CD8B01200F1D71200020EA16F3A0E85
:10110C00A26F010EA36FA46FA56B140EA66FA76B35
:10111C00A86B000E1124A96FEC0E1220AA6FFF0E03
:10112C001320AB6FFF0E1420AC6F030EAD6FF80ED7
:10113C00AE6FAF69010EB06FB16B080EB26FB36BCF
:10114C00B46BB56BB669A50EDA6F040110BFA50CB4
:10115C00A10E476E400E486EB0EC02F0376A1200DA
:10116C00615106E17F0E3B6EF80E116E126802D0D3
:10117C0043EC04F049EC04F0F1D7286A050E276E15
:10118C000CD0FEEC09F027C048F028C049F00AEC5E
:10119C0003F09EEC09F0274A282A3B50526E536A02
:1011AC00522A000E53225250275C53502858D6E234
:1011BC00E8D715280EE116280CE117280AE11828A3
:1011CC0008E161C015F062C016F063C017F064C08E
:1011DC0018F015506119C2E116506219BFE1175091
:1011EC006319BCE118506419B9E1276A286A1AD04E
:1011FC006551A0082724D96EDA6AAC0E3824E16E4A
:10120C00E26A040EE222DFCFE7FF382A152A000E2D
:10121C001622172218223A0E381802E142EC02F07C
:10122C00274A282A00017CD899E2E2D742EC02F046
:10123C004DEC04F093D7070EA16F61C0A2F062C011
:10124C00A3F063C0A4F064C0A5F065C0A6F063C0B1
:10125C00F8FF62C0F7FF61C0F6FF276A286A0BD05F
:10126C00090000016551E1082724D96EDA6AF5CF2F
:10127C00DFFF274A282A54D8F3E3040110BF1200D9
:10128C0067D780EC00F06AD70C0EA16F010EA36F2C
:10129C00020EA26F160EF66ED3EC03F0F5CFA4F08F
:1012AC000A00F5CFA5F0060EA66F140EA76FA86B5B
:1012BC00A96B600EAB6F0D0EAA6FAC6B040EAD6F0D
:1012CC00000EAE6BAF6BB069B169B269B369B4694A
:1012DC00B569B669B769B86BB96BBA6BBB6BBC6BEC
:1012EC00BD6BBE6BBF6BC9D706EC00F037D70001E6
:1012FC006051020A01E101D7010A01E131D7070A65
:10130C0001E13BD7010A01E154D7030A8FE0010A3E
:10131C0092E00F0AE9E0010AB4E0050AB5E01ED735
:10132C006551526E536A5250275C53502858120024
:10133C00E0EC04F0415001E1120062B4B5EC04F0B1
:10134C0065B2120062B098EC03F062B87BEC04F06A
:10135C00030E416001D0030C3C6A62A6120064507B
:10136C0064CF4AF07C0E4A162AE164B203D02B6A91
:10137C00040E02D0040E2B6E2C6E62962BC0D9FF7D
:10138C002CC0DAFFDF30E8320F0B0D0A20E1336A94
:10139C0023D8DECF4AF0DDCF4BF04AC0D9FF4BC08B
:1013AC00DAFF3350010F1FD817D8DE2A000EDD22CA
:1013BC00332A070E3364ECD726EC04F008D0040E65
:1013CC00641804E1629677EC03F001D062963C2A33
:1013DC00030E3C64C2D7030C20EE02F02B50D9262E
:1013EC002C50DA221200E16EE26ADFCFE7FF120026
:0413FC0004001200D7
:1014000055EF0AF012000D605182FACF17F0FBCFB2
:1014100018F0E9CF19F0EACF1AF0E1CF1BF0E2CFD4
:101420001CF0D9CF1DF0DACF1EF0F3CF1FF0F4CFB0
:1014300020F0F6CF21F0F7CF22F0F8CF23F0F5CF50
:1014400024F051C025F052C026F053C027F054C0FC
:1014500028F0F292F2B4F2AA02D0AEECA3F028C0C7
:1014600054F027C053F026C052F025C051F024C0DC
:10147000F5FF23C0F8FF22C0F7FF21C0F6FF20C010
:10148000F4FF1FC0F3FF1EC0DAFF1DC0D9FF1CC050
:10149000E2FF1BC0E1FF1AC0EAFF19C0E9FF18C054
:0E14A000FBFF17C0FAFF5192110092EF96F079
:10FC980000001180002C0100B10200350036000080
:10FCA800B202003500360000B3020035003600020B
:10FCB800003500360000B4000000C0A20002008435
:10FCC8000000C1C50000C20D00000000C38D002A5D
:10FCD8000000C48D00EE0000C50A000036C8000010
:10FCE800E012001C001000180033002C002500282A
:10FCF80000280027002F003C00000003000300102C
:10FD0800008000780000E112001C00100018002D8F
:10FD180000280023002800280026002F003B0000B0
:10FD280000030003001000003A0500002A0000024A
:10FD38000000008100002B000003000000A200006A
:10FD480029002C0200040008001000200040008058
:10FD5800000001000102000100010002020000038E
:10FD680003030001000A006400E8031027000103F0
:10FD7800070F1F3F7FFF000201030104100A000064
:10FD88000000000000005F00000007000700147F6B
:10FD9800147F14242A7F2A122313086462364955D3
:10FDA80022500005030000001C2241000041221CD3
:10FDB80000082A1C2A0808083E08080050300000DD
:10FDC8000808080808006060000020100804023EC7
:10FDD8005149453E00427F40004261514946214118
:10FDE800454B311814127F1027454545393C4A497F
:10FDF80049300171090503364949493606494929F7
:10FE08001E00363600000056360000000814224155
:10FE18001414141414412214080002015109063262
:10FE28004979413E7E1111117E7F494949363E414B
:10FE38004141227F4141221C7F494949417F0909AB
:10FE480001013E414151327F0808087F00417F414E
:10FE5800002040413F017F081422417F404040403C
:10FE68007F0204027F7F0408107F3E4141413E7FAC
:10FE7800090909063E4151215E7F0919294646496B
:10FE880049493101017F01013F4040403F1F204067
:10FE9800201F7F2018207F6314081463030478044C
:10FEA80003615149454300007F4141020408102085
:10FEB80041417F00000402010204404040404000EC
:10FEC8000102040020545454787F4844443838448C
:10FED800444420384444487F3854545418087E0910
:10FEE8000102081454543C7F0804047800447D40FF
:10FEF800002040443D00007F10284400417F40001E
:10FF08007C041804787C0804047838444444387C19
:10FF180014141408081414187C7C080404084854A1
:10FF2800545420043F4440203C4040207C1C204046
:10FF3800201C3C4030403C44281028440C50505071
:10FF48003C4464544C44000836410000007F0000E3
:10FF5800004136080008082A1C08081C2A0808005E
:10FF6800FCFF0F0000FFFFF0FF00FFFF0020202034
:10FF78002020202020202020202020202020202079
:10FF88002020200A004A616D696E204561726C79F3
:10FF98002039393133333339310A00437572726588
:10FFA8006E74204D6F64653A0A0044697265637423
:10FFB800696F6E3A2025640A0020436F6E74696E7B
:10FFC800756F75730A0A0020556E646566696E65FB
:10FFD800640A0A0020506F736974696F6E0A0A0018
:10FFE80053706565643A2025640A0020537465706F
:07FFF8000A0A002563000066
:020000040001F9
:100000000CD0640E0001E56F010E04D06F0E0001EC
:10001000E56F010E0001E66F08D00001E351000A10
:10002000D8B4EFD7010AD8B4F1D7000120EE02F01E
:10003000E551D926E651DA22E3C0DFFFB1D0910EB7
:100040000001D86F000E0001D96F020E0001DA6FB7
:10005000030E0001DB6FD4EC8AF0910E0001D86F23
:10006000000E0001D96F030E0001DA6F030E0001CC
:10007000DB6FD4EC8AF0910E0001D86F000E000106
:10008000D96F050E0001DA6F030E0001DB6FD4ECAF
:100090008AF0910E0001D86F000E0001D96F040E96
:1000A0000001DA6F000E0001DB6FD4EC8AF0000172
:1000B00020EE03F0E551D926E651DA22C70EDE6EB6
:1000C0000F0EDD6E000120EE06F0E551D926E65157
:1000D000DA22C60EDE6E0F0EDD6E000120EE09F094
:1000E000E551D926E651DA22C90E56D0870E000115
:1000F000D86F000E0001D96F070E0001DA6F030EF2
:100100000001DB6FD4EC8AF0870E0001D86F000E7F
:100110000001D96F060E0001DA6F030E0001DB6FDC
:10012000D4EC8AF0870E0001D86F000E0001D96F61
:10013000040E0001DA6F030E0001DB6FD4EC8AF0CD
:10014000870E0001D86F000E0001D96F050E000167
:10015000DA6F000E0001DB6FD4EC8AF0000120EEB4
:1001600003F0E551D926E651DA226D0EDE6E0F0E50
:10017000DD6E000120EE06F0E551D926E651DA22C7
:100180006C0EDE6E0F0EDD6E000120EE09F0E55103
:10019000D926E651DA226F0EDE6E0F0EDD6E09D023
:1001A0000001E351000AD8B44AD7010AD8A41200CA
:1001B0009DD7000120EE06F0E551D926E651DA225E
:1001C000DECFB2F0DDCFB3F0050E0001B46F000E4C
:1001D0000001B56F0EEC9EF09CD0000120EE06F001
:1001E000E551D926E651DA22DECFB2F0DDCFB3F009
:1001F000040E0001B46F000E0001B56F0EEC9EF00E
:10020000000120EE03F0E551D926E651DA22DECFD7
:10021000B2F0DDCFB3F0060E0001B46F000E0001A6
:10022000B56F0EEC9EF084D0000120EE06F0E55193
:10023000D926E651DA22DECFB2F0DDCFB3F0040EDC
:100240000001B46F000E0001B56F0EEC9EF00001CE
:1002500020EE03F0E551D926E651DA22DECFB2F0E6
:10026000DDCFB3F0060E0001B46F010E0001B56FD3
:100270000EEC9EF05DD0000120EE06F0E551D9268F
:10028000E651DA22DECFB2F0DDCFB3F0040E00018A
:10029000B46F010E0001B56F0EEC9EF0000120EE70
:1002A00003F0E551D926E651DA22DECFB2F0DDCFF8
:1002B000B3F0060E0001B46F000E0001B56F0EEC36
:1002C0009EF036D0000120EE06F0E551D926E65129
:1002D000DA22DECFB2F0DDCFB3F0040E0001B46F4E
:1002E000010E0001B56F0EEC9EF0000120EE03F050
:1002F000E551D926E651DA22DECFB2F0DDCFB3F0F8
:10030000060E0001B46F010E0001B56F0EEC9EF0F9
:100310000FD00001E451000AD8B45FD7010AD8B465
:1003200083D7030AD8B4A7D7010AD8A41200CAD722
:10033000000120EE06F0E551D926E651DA22DECFA3
:10034000B2F0DDCFB3F0070E0001B46F000E000174
:10035000B56F0EEC9EF0000120EE06F0E551D926B7
:10036000E651DA22DECFB2F0DDCFB3F0060E0001A7
:10037000B46F000E0001B56F0EEC9EF0DFC0BFF051
:10038000E0C0C0F0E1C0C1F0E2C0C2F0F1EC90F01A
:10039000E5C0B2F0E6C0B3F087ECA3F004D09F86CE
:1003A0000BD0A58E09D00001E351000AD8B4F7D7CD
:1003B000010AD8A41200F5D7E5C0B2F0E6C0B3F048
:1003C000ECECA2F0E5C0D9FFE6C0DAFF000EDF6E6C
:1003D000000120EE06F0E551D926E651DA22DECF03
:1003E000BDF0DDCFBEF0000E0001BF6F030E0001B7
:1003F000C06FE3ECA3F0000120EE06F0E551D92632
:10040000E651DA22DECFB2F0DDCFB3F0050E000107
:10041000B46F010E0001B56F0EEC9EF01200080ED5
:100420000001C1250001BE6F000E0001C2210001C4
:10043000BF6F000E0001C06FBFECA1F00001D86FCC
:100440000001D8510001C46FC56B0E0ED890000199
:10045000C437C537E82EFAD70001D8510001C66F5E
:10046000C76B0C0ED8900001C637C737E82EFAD7F5
:100470000001D8510001C86FC96B0A0ED890000165
:10048000C837C937E82EFAD70001D8510001CB6F21
:10049000CA6B0001D8510001CC6FCD6B060ED8900D
:1004A0000001CC37CD37E82EFAD70001D851000132
:1004B000CE6FCF6B0001CE3BCF3BF00ECF17CE51AE
:1004C0000F0BCF13F00ECE170001D8510001D06FE3
:1004D000D16B0001D890D037D1370001D890D037F8
:1004E000D1370001D8510001D26FD36B0001D05138
:1004F0000001D2130001D1510001D3130001CE51EC
:100500000001D2130001CF510001D3130001CC51DF
:100510000001D2130001CD510001D3130001CA51D3
:100520000001D2130001CB510001D3130001C851C7
:100530000001D2130001C9510001D3130001C651BB
:100540000001D2130001C7510001D3130001C451AF
:100550000001D2110001D46F0001C5510001D31177
:100560000001D56FD8C0D6F00001D76B080E00018E
:10057000C1250001BE6F000E0001C2210001BF6F46
:10058000010E0001C06FBFECA1F00001C46FC56B8C
:100590000001D890C437C5370001D890C437C5379B
:1005A0000001C4510001D6130001C5510001D71349
:1005B000080E0001C1250001BE6F000E0001C2211E
:1005C0000001BF6F020E0001C06FBFECA1F000017F
:1005D000C46FC56B0001C43BC53BF00EC517C451C9
:1005E0000F0BC513F00EC4170001C4510001D61340
:1005F0000001C5510001D713080E0001C1250001FB
:10060000BE6F000E0001C2210001BF6F030E00018A
:10061000C06FBFECA1F00001C46FC56B060ED8908F
:100620000001C437C537E82EFAD70001C4510001D4
:10063000D6130001C5510001D713080E0001C125D2
:100640000001BE6F000E0001C2210001BF6F040E49
:100650000001C06FBFECA1F00001C46F0001C451E4
:100660000001C66FC56B0001C5510001D613000122
:10067000C6510001D713080E0001C1250001BE6F4D
:10068000000E0001C2210001BF6F050E0001C06F06
:10069000BFECA1F00001C46FC56B0A0ED890000139
:1006A000C437C537E82EFAD70001C4510001D6136C
:1006B0000001C5510001D713080E0001C12500013A
:1006C000BE6F000E0001C2210001BF6F060E0001C7
:1006D000C06FBFECA1F00001C46FC56B0C0ED890C9
:1006E0000001C437C537E82EFAD70001C451000114
:1006F000D6130001C5510001D713080E0001C12512
:100700000001BE6F000E0001C2210001BF6F070E85
:100710000001C06FBFECA1F00001C46FC56B0E0EED
:10072000D8900001C437C537E82EFAD70001C4516C
:100730000001D6130001C5510001D7130001D651A5
:100740000001D41948E10001D7510001D519D8A4FE
:10075000120032D0000120EE02F0C151D926C25160
:10076000DA22DECFB2F0DDCFB3F0C3C0B4F018ECC4
:10077000A5F012000001C31F000120EE02F0C151DC
:10078000D926C251DA22DECFB2F0DDCFB3F0C3C03A
:10079000B4F018ECA5F01200000120EE04F0C151F5
:1007A000D926C251DA22DECFB2F0DDCFB3F0C3C01A
:1007B000B4F018ECA5F012000001D851000AD8B42A
:1007C0001200010AD8B4C6D7030AD8B4D3D7010A95
:1007D000D8A41200E1D71200A7EC9AF0D6C0E2F03C
:1007E000D7C0E3F0000E0001E76F000EE66F000EC9
:1007F0000001E56F000EE46F49D121EE4DF001D804
:100800000AD00500FA6EDE50FD6EDE50FE6EDE5040
:10081000FF6EFA501200E806D8A430D021EE57F04F
:1008200001D80AD00500FA6EDE50FD6EDE50FE6E75
:10083000DE50FF6EFA5012000009D8A41FD000014C
:10084000E7BF08D00001E75119E10A0E0001E65D9B
:10085000D8B014D021EE4DF001D80AD00500FA6EC0
:10086000DE50FD6EDE50FE6EDE50FF6EFA5012005E
:10087000E806D8B4EFD70001E64BE72B21EE57F09E
:1008800001D80AD00500FA6EDE50FD6EDE50FE6E15
:10089000DE50FF6EFA501200E806D8A430D021EEE8
:1008A0004DF001D80AD00500FA6EDE50FD6EDE5024
:1008B000FE6EDE50FF6EFA5012000009D8A41FD061
:1008C0000001E7BF1CD00001E75104E10001E6058B
:1008D000D8A015D021EE57F001D80AD00500FA6E45
:1008E000DE50FD6EDE50FE6EDE50FF6EFA501200DE
:1008F000E806D8B4EFD70001E607D8A0E70721EE55
:1009000043F001D80AD00500FA6EDE50FD6EDE50CD
:10091000FE6EDE50FF6EFA501200E806D8A416D024
:1009200021EE39F001D80AD00500FA6EDE50FD6ED6
:10093000DE50FE6EDE50FF6EFA5012000009D8A4A1
:1009400005D0000E0001E56F010EE46F21EE39F0D5
:1009500001D80AD00500FA6EDE50FD6EDE50FE6E44
:10096000DE50FF6EFA501200E806D8A414D021EE33
:1009700043F001D80AD00500FA6EDE50FD6EDE505D
:10098000FE6EDE50FF6EFA5012000009D8A403D0AC
:100990000001E469E56973ECA3F0FF0E0001B36F99
:1009A000E00EB26F4FECA5F0E80E0001C76FFF0E2E
:1009B0000001C86FE6C0C9F0E7C0CAF083EC8CF054
:1009C000B20E0001C76FFF0E0001C86FE4C0C9F08E
:1009D000E5C0CAF083EC8CF0CFEC88F00101BD518A
:1009E0000101BE11D8A44AD0850EF66EFD0EF76E39
:1009F000000EF86E0900F5CFE0F00900F5CFE1F048
:100A00000001E0510001FB270001E1510001FC233E
:100A10000001F9510001FB5D0001FA510001FC5990
:100A2000D8A00CD0850EF66EFD0EF76E000EF86E97
:100A30000900F5CFFBF00A00F5CFFCF0000E94ECB6
:100A4000A0F00001F96DFA1FD8B0FA2BBD0E00011D
:100A5000CD6F010E0001CE6FFBC0CFF0FCC0D0F017
:100A60005EECA3F0BD0E0001B56F010E0001B66F84
:100A7000F9C0B7F0FAC0B8F036ECA2F0A7EC9AF0E3
:100A8000D6C0E2F0D7C0E3F094EC9CF00001E205A0
:100A90000001E311D8A41200B0D60001B26F7ED0DD
:100AA0003F0E1200060E12005B0E12004F0E1200D7
:100AB000660E12006D0E12007D0E1200070E12005F
:100AC0007F0E12006F0E12005F0E12007C0E1200DD
:100AD000580E12005E0E12007B0E1200710E1200F4
:100AE0006F0E1200740E1200040E12000E0E120091
:100AF0007A0E1200060E1200140E1200540E12008E
:100B00005C0E1200730E1200670E1200500E1200DF
:100B10006D0E1200780E12001C0E1200620E1200F2
:100B20002A0E1200640E12006E0E12005B0E1200EE
:100B3000770E12007F0E1200390E12003F0E1200C7
:100B4000790E1200710E12003D0E1200760E120088
:100B5000060E12001E0E1200570E1200380E120062
:100B6000760E1200760E12003F0E1200730E120067
:100B70003F0E1200770E12006D0E1200310E1200A1
:100B80003E0E12003E0E12007E0E1200760E120075
:100B9000660E12005B0E1200800E12000001B251B0
:100BA0002E0AD8B4F9D71E0AD8B47AD7010AD8B415
:100BB00079D7030AD8B478D7010AD8B477D7070A07
:100BC000D8B476D7010AD8B475D7030AD8B474D785
:100BD000010AD8B473D70F0AD8B472D7010AD8B4AF
:100BE00071D7780AD8B4A4D7030AD8B4A3D7010A16
:100BF000D8B4A2D7070AD8B4A1D7010AD8B4A0D7CD
:100C0000030AD8B49FD7010AD8B49ED70F0AD8B424
:100C10009DD7010AD8B49CD7030AD8B49BD7010A40
:100C2000D8B49AD7070AD8B499D7010AD8B498D7B4
:100C3000030AD8B497D7010AD8B496D71F0AD8B4F4
:100C400095D7010AD8B494D7030AD8B493D7010A28
:100C5000D8B492D7070AD8B491D7010AD8B490D79C
:100C6000030AD8B48FD7010AD8B48ED70F0AD8B4E4
:100C70008DD7010AD8B48CD7030AD8B48BD73B0AD6
:100C8000D8B422D7030AD8B421D7010AD8B420D7C0
:100C9000070AD8B41FD7010AD8B41ED7030AD8B49C
:100CA0001DD7010AD8B41CD70F0AD8B41BD7010A24
:100CB000D8B41AD7030AD8B419D7010AD8B418D7A8
:100CC000070AD8B417D7010AD8B416D7030AD8B47C
:100CD00015D7010AD8B414D71F0AD8B413D7010AFC
:100CE000D8B412D7030AD8B411D7010AD8B410D790
:100CF000070AD8B40FD7010AD8B40ED7030AD8B45C
:100D00000DD7010AD8B40CD70F0AD8B40BD7010AF3
:100D1000D8B40AD7030AD8B409D7000E1200050EBA
:100D20000001EC6FC7D0000120EE02F0E851D92697
:100D3000E951DA22DECFBDF0DDCFBEF0EAC0BFF070
:100D40000F0E0001C06FE3ECA3F0000120EE04F0F1
:100D5000E851D926E951DA22DECFBDF0DDCFBEF071
:100D6000EAC0BFF0000E0001C06FE3ECA3F0B0D00A
:100D7000E8C0E1F0E9C0E2F0EAC0E3F0030E0001F0
:100D8000E46FFFEC9EF00001EC6F0001EC51D8A481
:100D90001200000120EE02F0E851D926E951DA22D2
:100DA000DECFBDF0DDCFBEF0EAC0BFF0000E000127
:100DB000C06FE3ECA3F0000120EE04F0E851D92667
:100DC000E951DA22DECFBDF0DDCFBEF0EAC0BFF0E0
:100DD000000E0001C06FE3ECA3F07AD0E8C0E1F0B0
:100DE000E9C0E2F0EAC0E3F0030E0001E46FFFECBB
:100DF0009EF00001EC6F0001EC51D8A4120000013C
:100E000020EE02F0E851D926E951DA22DECFBDF01A
:100E1000DDCFBEF0EAC0BFF00F0E0001C06FE3EC03
:100E2000A3F0000120EE04F0E851D926E951DA22BE
:100E3000DECFBDF0DDCFBEF0EAC0BFF00F0E000187
:100E4000C06FE3ECA3F044D0E8C0E1F0E9C0E2F009
:100E5000EAC0E3F0030E0001E46FFFEC9EF0000136
:100E6000EC6F0001EC51D8A41200000120EE02F05A
:100E7000E851D926E951DA22DECFBDF0DDCFBEF050
:100E8000EAC0BFF0000E0001C06FE3ECA3F0000168
:100E900020EE04F0E851D926E951DA22DECFBDF088
:100EA000DDCFBEF0EAC0BFF0000E0001C06FE3EC82
:100EB000A3F00ED00001EB51000AD8B434D7010AD8
:100EC000D8B456D7030AD8B489D7010AD8B4BCD746
:100ED000080E0001E8250001C16F000E0001E921A4
:100EE0000001C26F0001EA51040DF3CFC3F0EBC063
:100EF000C4F0DBECA0F0080E0001E8250001C16F92
:100F0000000E0001E9210001C26F0001EA51040D49
:100F1000F3280001C36FEBC0C4F0DBECA0F0080EB7
:100F20000001E8250001C16F000E0001E921000168
:100F3000C26F0001EA51040DF350020F0001C36FAC
:100F4000EBC0C4F0DBECA0F0080E0001E8250001C6
:100F5000C16F000E0001E9210001C26F0001EA51DA
:100F6000040DF350030F0001C36FEBC0C4F0DBECC2
:100F7000A0F01200050E0001F16F7AD0000120EE02
:100F800002F0EC51D926ED51DA22DECFEFF0DDCFC1
:100F9000F0F0EFC0D9FFF0C0DAFFFF0E67D0ECC071
:100FA000E8F0EDC0E9F0010E0001EA6F70ECA0F08E
:100FB0000001F16F0001F151D8A41200000120EEF0
:100FC00002F0EC51D926ED51DA22DECFEFF0DDCF81
:100FD000F0F0EFC0D9FFF0C0DAFF000EDF6E0001C5
:100FE00020EE04F036D0ECC0E8F0EDC0E9F0020EDF
:100FF0000001EA6F70ECA0F00001F16F0001F15107
:10100000D8A41200000120EE02F0EC51D926ED51D7
:10101000DA22DECFEFF0DDCFF0F0EFC0D9FFF0C085
:10102000DAFFFF0EDF6E000120EE04F0AAD7ECC05D
:10103000E8F0EDC0E9F0000E0001EA6F70ECA0F0FE
:101040000001F16F0001F151D8A41200000120EE5F
:1010500002F0EC51D926ED51DA22DECFEFF0DDCFF0
:10106000F0F0EFC0D9FFF0C0DAFF000EDF6E0ED057
:101070000001EE51000AD8B481D7010AD8B48FD745
:10108000030AD8B4B0D7010AD8B4D1D7080E0001EA
:10109000EC250001C16F000E0001ED210001C26FBF
:1010A000000E0001C36FEEC0C4F0DBECA0F0080E30
:1010B0000001EC250001C16F000E0001ED210001CF
:1010C000C26F010E0001C36FEEC0C4F0DBECA0F0F4
:1010D000080E0001EC250001C16F000E0001ED219A
:1010E0000001C26F020E0001C36FEEC0C4F0DBEC62
:1010F000A0F0080E0001EC250001C16F000E0001F8
:10110000ED210001C26F030E0001C36FEEC0C4F0F9
:10111000DBECA0F0080E0001EC250001C16F000E11
:101120000001ED210001C26F040E0001C36FEEC08B
:10113000C4F0DBECA0F0080E0001EC250001C16F4B
:10114000000E0001ED210001C26F050E0001C36F0A
:10115000EEC0C4F0DBECA0F0080E0001EC250001AD
:10116000C16F000E0001ED210001C26F060E0001EB
:10117000C36FEEC0C4F0DBECA0F0080E0001EC255C
:101180000001C16F000E0001ED210001C26F070ECA
:101190000001C36FEEC0C4F0DBECA0F01200000150
:1011A000FF51D8B41200DBC1D8F0DCC1D9F0DDC1E9
:1011B000DAF0DEC1DBF000017C51D8B405D07AC092
:1011C000D7F00F0E00017A6F000E0001DD6FDFD047
:1011D0000001DD51020D000EF324D96E010EF42042
:1011E000DA6EDECFFDF0DDCFFEF0000E0001DC6F29
:1011F000130E0001DC6501D0BED00001DD51140DDD
:10120000460E0001D56F020E0001D66FF3500001AB
:10121000D527F4500001D6230001DC51010DF35015
:101220000001D525D96EF4500001D621DA6EDFAE6B
:101230009AD00001DD51140D460E0001D56F020E4B
:101240000001D66FF3500001D527F4500001D623DA
:101250000001DC51010DF3500001D525D96EF45089
:101260000001D621DA6E7F0EDF160001DD51140D6C
:10127000460E0001D56F020E0001D66FF35000013B
:10128000D527F4500001D6230001DC51010DF350A5
:101290000001D525D96EF4500001D621DA6EDF5059
:1012A000D8B44AD073C0BBF074C0BCF0D8C0BDF095
:1012B000D9C0BEF0DAC0BFF0DBC0C0F0F5C0C1F0ED
:1012C000F6C0C2F0F7C0C3F0F8C0C4F0E6EC9BF083
:1012D0000001DD51140D460E0001D56F020E000114
:1012E000D66FF3500001D527F4500001D62300013A
:1012F000DC51010DF3500001D525D96EF4500001E9
:10130000D621DA6EDF508AEC93F0B7C0C4F0B8C0D3
:10131000C5F0D8C0C6F0D9C0C7F0DAC0C8F0DBC08D
:10132000C9F0F5C0CAF0F6C0CBF0F7C0CCF0F8C0F9
:10133000CDF08CEC98F017D0000E0001BC6F000EC1
:10134000BB6FD8C0BDF0D9C0BEF0DAC0BFF0DBC003
:10135000C0F0F5C0C1F0F6C0C2F0F7C0C3F0F8C0ED
:10136000C4F0E6EC9BF0060E0001D827000ED9234E
:101370000001DC2B3DD7080E0001DA27000EDB232D
:10138000000E0001D96F060ED86F0001DD2B0001A1
:10139000DD5100017A5DD8B01BD700017C51D8B473
:1013A0001200000E00017C6FD7C07AF012005A0EB6
:1013B0000101C86F010E0101C96F000E0101CB6F61
:1013C000020ECA6FD00E0101CC6F4A0E0101CD6F23
:1013D000010E0101CE6F280E0101CF6F490E0101F0
:1013E000D06F010E0101D16F660E0101D26F460E62
:1013F0000101D36F010E0101D46F20EC93F03C0E7C
:101400000101C86F010E0101C96F000E0101CB6F10
:10141000020ECA6FD00E0101CC6F4A0E0101CD6FD2
:10142000010E0101CE6F880E0101CF6F490E01013F
:10143000D06F010E0101D16F580E0101D26F3E0E27
:101440000101D36F010E0101D46F20EC93F0320E35
:101450000101C86F010E0101C96F000E0101CB6FC0
:10146000020ECA6FD00E0101CC6F4A0E0101CD6F82
:10147000010E0101CE6F700E0101CF6F490E010107
:10148000D06F010E0101D16FFC0E0101D26F410E30
:101490000101D36F010E0101D46F20EC93F0460ED1
:1014A0000101C86F010E0101C96F000E0101CB6F70
:1014B000020ECA6FD00E0101CC6F4A0E0101CD6F32
:1014C000010E0101CE6F580E0101CF6F490E0101CF
:1014D000D06F010E0101D16F780E0101D26F450E60
:1014E0000101D36F010E0101D46F20EC93F0500E77
:1014F0000101C86F010E0101C96F000E0101CB6F20
:10150000020ECA6FD00E0101CC6F4A0E0101CD6FE1
:10151000010E0101CE6F400E0101CF6F490E010196
:10152000D06F010E0101D16F460E0101D26F450E41
:101530000101D36F010E0101D46F20EC93F0A00ED6
:101540000001DF6F860EE06F010EE16F000EE26FAB
:10155000000E0001E36F020E0001E46F00EC80F06A
:10156000640E0001C16F010E0001C26F5AEC9CF0C5
:10157000000E0001EE6F000EED6F0001EE5113E161
:10158000080E0001ED5DD8B012002A0E0001ED2515
:10159000D96E010E0001EE21DA6E000EDF6E000141
:1015A000ED4BEE2BEAD71200D8C0D9FFD9C0DAFF35
:1015B000DECFDDF0DDCFDEF0050E0001DC6FB5D053
:1015C000000120EE02F0D851D926D951DA22DECF1F
:1015D000B2F0DDCFB3F0DAC0B4F0010E0001B56FA8
:1015E0000EEC9EF0B0D0DDC0C1F0DEC0C2F0010E46
:1015F0000001C36FDAC0C4F031EC9BF00001DC6F76
:101600000001DC51D8A41200000120EE02F0D851F4
:10161000D926D951DA22DECFB2F0DDCFB3F0DAC06D
:10162000B4F0000E0001B56F0EEC9EF0000120EE4C
:1016300004F0D851D926D951DA22DECFB2F0DDCF6D
:10164000B3F0DAC0B4F0000E0001B56F0EEC9EF0FE
:101650007AD0DDC0C1F0DEC0C2F0020E0001C36F5F
:10166000DAC0C4F031EC9BF00001DC6F0001DC510A
:10167000D8A41200000120EE02F0D851D926D95189
:10168000DA22DECFB2F0DDCFB3F0DAC0B4F0010E73
:101690000001B56F0EEC9EF0000120EE04F0D85171
:1016A000D926D951DA22DECFB2F0DDCFB3F0DAC0DD
:1016B000B4F0010E0001B56F0EEC9EF044D0DDC019
:1016C000C1F0DEC0C2F0000E0001C36FDAC0C4F08A
:1016D00031EC9BF00001DC6F0001DC51D8A412005A
:1016E000000120EE02F0D851D926D951DA22DECFFE
:1016F000B2F0DDCFB3F0DAC0B4F0000E0001B56F88
:101700000EEC9EF0000120EE04F0D851D926D951FC
:10171000DA22DECFB2F0DDCFB3F0DAC0B4F0000EE3
:101720000001B56F0EEC9EF00ED00001DB51000AF7
:10173000D8B446D7010AD8B456D7030AD8B489D743
:10174000010AD8B4BCD7080E0001D8250001C16F2A
:10175000000E0001D9210001C26FDAC0C3F0DBC066
:10176000C4F0DBECA0F012000001C56FB1D0DEECDC
:1017700098F01200D1EC9EF0120060EC9AF012008A
:10178000BCEC94F01200DBEC9DF0120004ECA4F031
:101790001200C5C0C2F07F0E0001C21700017A51CD
:1017A000140D460E0001C36F020E0001C46FF3500A
:1017B0000001C327F4500001C42300017B51010D37
:1017C000F3500001C325D96EF4500001C421DA6E34
:1017D000DF507F0B0001C219D8B42ED0010E0001DA
:1017E000FF6F00017A51140D460E0001C26F020E08
:1017F0000001C36FF3500001C227F4500001C3235E
:1018000000017B51010DF3500001C225D96EF45047
:101810000001C321DA6E0001C5518009DF6E0001AD
:101820007A51020D000EF324D96E010EF420DA6E07
:10183000FDC0DEFFFEC0DDFFDBEC9DF00009D8B48B
:101840001200C5C0C2F07F0E0001C21700017A511C
:10185000140D460E0001C36F020E0001C46FF35059
:101860000001C327F4500001C42300017B51010D86
:10187000F3500001C325D96EF4500001C421DA6E83
:10188000DF507F0B0001C219D8B41200010E000115
:10189000FF6F00017A51140D460E0001C26F020E57
:1018A0000001C36FF3500001C227F4500001C323AD
:1018B00000017B51010DF3500001C225D96EF45097
:1018C0000001C321DA6E0001C5518009DF6E1200EC
:1018D0000001C551070AD8B456D70F0AD8B44AD761
:1018E000010AD8B44DD7030AD8B441D7060AD8B4F0
:1018F00044D7010AD8B43BD72D0AD8B44AD7030A33
:10190000D8B444D746D7C90E0001CE6F000E0001EF
:10191000CF6FB1D0250E0001D219D8B405D0000187
:10192000D25111ECA5F0A7D0000E0001CC6F11D060
:10193000CEC0D9FFCFC0DAFFDF500001D26F020E58
:101940000001CE27000ECF230001D25111ECA5F0EB
:1019500092D0C7C0F6FFC8C0F7FF0001C74BC82B25
:10196000000EF86E0800F5CFD2F00001D251000A47
:10197000D8B41200630AD8B4DBD7070AD8B403D0AE
:101980000D0AD8A4E1D7CEC0D9FFCFC0DAFFDECF91
:10199000D0F0DDCFD1F0020E0001CE27000ECF2314
:1019A0000001D1AF08D0030E0001CC130001D06DAF
:1019B000D11FD8B0D12B010E0001D26F050E00014E
:1019C000D219D8B419D00001D251020D6B0EF324F4
:1019D000F66EFD0EF420F76EF86A000EF82209008C
:1019E000F5500001D05D0900F5500001D159D8A093
:1019F00003D00001D22BE2D7CCC0CBF0030E000104
:101A0000CB17D8B403D02D0E11ECA5F0D2C0CDF079
:101A10002CD00001CD51020D6B0EF324F66EFD0E9D
:101A2000F420F76EF86A000EF8220900F5CFB4F042
:101A30000A00F5CFB5F0D0C0B2F0D1C0B3F06FEC72
:101A40009BF0B2C0B9F0B3C0BAF0000E0001BC6F99
:101A50000A0EBB6F40EC9EF00001B951300F00013F
:101A6000D26F0001D25111ECA5F00001CD070001A9
:101A7000CD29D8A4CED7C7C0F6FFC8C0F7FF000154
:101A8000C74BC82B000EF86E0800F5CFD2F000014E
:101A9000D251D8B412003ED70001F451E6EC97F0D1
:101AA000F2C0D9FFF3C0DAFF0001B2C0DEFF0001CF
:101AB000B3C0DDFF0001F45139EC98F0000120EED5
:101AC00006F0F251D926F351DA220001B2C0DEFF4E
:101AD0000001B3C0DDFF0001F45139EC98F00001C2
:101AE00020EE04F0F251D926F351DA220001B2C0FF
:101AF000DEFF0001B3C0DDFF0001F45193EC97F06D
:101B0000000120EE02F0F251D926F351DA22000151
:101B1000B2C0DEFF0001B3C0DDFF000120EE04F023
:101B2000F251D926F351DA22DECFC8F1DDCFC9F167
:101B3000C8C1D9FFC9C1DAFF000EDF6E000120EE77
:101B400002F0F251D926F351DA22DECFC8F1DDCF0F
:101B5000C9F1C8C1D9FFC9C1DAFFFF0EDF6EF2C0FB
:101B6000ECF0F3C0EDF0000E0001EE6FBAEC87F080
:101B7000000E0101CA6F070E0101CA6531D04BD0BA
:101B8000F2C0D8F0F3C0D9F0CAC1DAF0030E0001F8
:101B9000DB6FD4EC8AF03CD0F2C0D8F0F3C0D9F0BF
:101BA000CAC1DAF0020E0001DB6FD4EC8AF030D04B
:101BB000F2C0D8F0F3C0D9F0CAC1DAF0010E0001CA
:101BC000DB6FD4EC8AF024D0F2C0D8F0F3C0D9F0A7
:101BD000CAC1DAF0000E0001DB6FD4EC8AF018D035
:101BE000F2C0D9FFF3C0DAFFDECFBEF0DDCFBFF029
:101BF000CAC1C0F0BFECA1F0000AD8B4C1D7010A35
:101C0000D8B4D6D7030AD8B4C7D7010AD8B4DCD71A
:101C10000101CA2BB0D7F2C0C1F0F3C0C2F0000E70
:101C20000001C36F0FEC82F01200010E4B6E000E2C
:101C30000001686F000E0001696F000E00016A6FFD
:101C4000A20E0001F26F010E0001F36F000E000101
:101C5000F46F4CEC8DF0980E0001F26F010E000154
:101C6000F36F010E0001F46F4CEC8DF0910E00014A
:101C7000F26F000E0001F36F020E0001F46F4CECE6
:101C80008DF0870E0001F26F000E0001F36F030E5E
:101C90000001F46F4CEC8DF07D0E0001F26F000E30
:101CA0000001F36F040E0001F46F4CEC8DF0AC0EEC
:101CB0000001F26F010E0001F36F050E0001F46FD9
:101CC0004CEC8DF08E0E0001F26F010E0001F36FEF
:101CD000060E0001F46F4CEC8DF0AC0E0001D86FD5
:101CE000010E0001D96F050E0001DA6F000E000130
:101CF000DB6FD4EC8AF0980E0001E86F010E000152
:101D0000E96F000E0001EA6F000E0001EB6F8FEC2F
:101D100086F0AC0E0001D86F010E0001D96F060EDF
:101D20000001DA6F030E0001DB6FD4EC8AF08E0E37
:101D30000001EC6F010E0001ED6F030E0001EE6F6C
:101D4000BAEC87F08E0E0001C16F010E0001C26F68
:101D5000040E0001C36F000E0001C46F5AEC94F032
:101D6000AC0E0001C16F010E0001C26F060E000132
:101D7000C36F010E0001C46F5AEC94F0000E71ECB9
:101D80009EF0010E71EC9EF0000E9E6E000EA16E94
:101D9000000EA46E9B8E9B8C000E0001B36F640E30
:101DA000B26F71EC9DF0D08E1200CDEC9CF0000E65
:101DB0000001EA6F000EE96F0001EA5106E1590ED9
:101DC0000001E95DD8B08BD001D089D0D890000156
:101DD000E935F66E0001EA35F76E990EF626FC0E2F
:101DE000F722F86A000EF8220900800EF5180900A3
:101DF000F510D8A422D00001EA511FE1580E0001CD
:101E0000E95DD8B01AD00001E94BEA2BD890000167
:101E1000E935F66E0001EA35F76E990EF626FC0EEE
:101E2000F722F86A000EF8220900F5CFB2F00A0096
:101E3000F5CFB3F071EC9DF04BD0D8900001E935AF
:101E4000F66E0001EA35F76E990EF626FC0EF722C3
:101E5000F86A000EF8220900000EF55E0900010E76
:101E6000F55AD8A020D0000E0001B56FD89000011F
:101E7000E935F66E0001EA35F76E990EF626FC0E8E
:101E8000F722F86A000EF8220900F5CFE7F0090002
:101E9000F5CFE8F0E8C0E7F00001E86B0001E7519A
:101EA000C1ECA3F015D0010E0001B56FD890000170
:101EB000E935F66E0001EA35F76E990EF626FC0E4E
:101EC000F722F86A000EF8220800F550C1ECA3F0E2
:101ED0000001E94BEA2B0001EA5101E170D7000E45
:101EE0000001B36F640EB26F71EC9DF0000E000143
:101EF000B56F290EC1ECA3F0010ECCEC99F0000EE9
:101F00000001B36F640EB26F71EC9DF0000E000122
:101F1000BC6F000EBB6F58EC9FF01200000120EE6A
:101F200007F0CD51D926CE51DA2201D80AD00500CA
:101F3000FA6EDE50FD6EDE50FE6EDE50FF6EFA5021
:101F400012000001D56FCDC0D9FFCEC0DAFF00016D
:101F5000D551DE18D8A421D0000120EE01F0CD51DA
:101F6000D926CE51DA220001CF51DE5CD8B00AD09A
:101F7000000120EE01F0CD51D926CE51DA22000E1B
:101F8000DF6E1200000120EE01F0CD51D926CE51B6
:101F9000DA220001CF51DF5E1200000120EE01F0D5
:101FA000CD51D926CE51DA22DF500001D06FD16B4E
:101FB0000001CF510001D027000ED123000120EEF7
:101FC00001F0CD51D926CE51DA22DF500001D26F77
:101FD000D36B0001D0510001D25D0001D351800AC2
:101FE0000001D46F0001D151800A0001D459D8B04A
:101FF0001200000120EE01F0CD51D926CE51DA2297
:102000000001CF51DF26000120EE02F0CD51D9268C
:10201000CE51DA22000110EE01F0CD51E126CE5171
:10202000E222E7500001D26FD36BDE500001D25D97
:10203000DE500001D359D8A01200CDC0D9FFCEC0C8
:10204000DAFFD5C0DFFF000120EE01F0CD51D92627
:10205000CE51DA22000EDF6E000120EE04F0CD51E9
:10206000D926CE51DA2201D812000500FA6EDE50D0
:10207000FD6EDE50FE6EDE50FF6EFA500001D5514F
:102080001200800E0001C56F8D0EC66F5B0EC76F0C
:10209000000EC86FD59E0001BF510001C0110001A4
:1020A000C1110001C211D8B41200D596D59CD59AA1
:1020B000D598C5C0B2F0C6C0B3F0C7C0B4F0C8C0B0
:1020C000B5F0BFC0B6F0C0C0B7F0C1C0B8F0C2C074
:1020D000B9F07CEC95F0B2C0C9F0B3C0CAF0B4C09E
:1020E000CBF0B5C0CCF00CD00001792B020E000172
:1020F000796501D02FD0070E0001796501D012005B
:10210000C9C0B2F0CAC0B3F0CBC0B4F0CCC0B5F017
:1021100000017951020D4B0EF324F66EFD0EF420F2
:10212000F76EF86A000EF8220900F5CFC3F0090037
:10213000F5CFC4F0C3C0B6F0C4C0B7F00001B86BAF
:10214000B96B7CEC95F00001B551CEE10001B4050E
:10215000D8B0CAD700017951020D4B0EF324F66EA8
:10216000FD0EF420F76EF86A000EF8220800F5CF95
:1021700078F0FF0E0001C9250001646FFF0E000119
:10218000CA210001656FFF0E0001CB210001666FBF
:10219000FF0E0001CC210001676F64C0B2F065C082
:1021A000B3F066C0B4F067C0B5F00001785100012B
:1021B000B66FB76BB86BB96B7CEC95F00001B21FD2
:1021C0000001B31F0001B24BB32BFF0E0001B2257B
:1021D000316EFF0E0001B321326E2DECA5F0D58ECD
:1021E0001200000E0001C86F6C0EC96FDC0ECA6FC2
:1021F000020ECB6F0001D890BF37C037C137C2374E
:10220000020E0001C36FD8900001CB33CA33C9332B
:10221000C8330001C32FF7D7C8C0B2F0C9C0B3F0AC
:10222000CAC0B4F0CBC0B5F0BFC0B6F0C0C0B7F004
:10223000C1C0B8F0C2C0B9F07CEC95F0B2C0CCF02F
:10224000B3C0CDF0B4C0CEF0B5C0CFF010D0000E0A
:102250000001C46F000EC56F000EC66F000EC76F81
:102260000001772B020E0001776501D026D0CCC08B
:10227000B2F0CDC0B3F0CEC0B4F0CFC0B5F0000125
:102280007751010D820EF324F66EFD0EF420F76EE9
:10229000F86A000EF8220800F5500001B66FB76B1F
:1022A000B86BB96B7CEC95F00001B5510001B4112D
:1022B000CEE10001B305D8B0CAD7CA5000017719E2
:1022C000FC0B7719CA6ECA8458ECA5F0000177514F
:1022D000010D820EF324F66EFD0EF420F76EF86AFF
:1022E000000EF8220800F5CF76F0FF0E0001CC2595
:1022F0000001606FFF0E0001CD210001616FFF0E34
:102300000001CE210001626FFF0E0001CF2100010C
:10231000636F60C0B2F061C0B3F062C0B4F063C07C
:10232000B5F0000176510001B66FB76BB86BB96BB1
:102330007CEC95F00001B2510001776F77C0CBFFC4
:10234000120051B234EF92F0000120EE04F06F5110
:10235000D9267051DA22DF5020ECA1F00009D8B460
:102360007AD06FC0D9FF70C0DAFFDE50DE10D8B46B
:102370006DD06FC0D9FF70C0DAFF010EDBBE26D072
:10238000010EDB5003E1DE04D8A020D06FC0D9FFDE
:1023900070C0DAFFDE2804E17F0EDE18D8B407D063
:1023A0006FC0D9FF70C0DAFFDE06000EDD5A7D0E69
:1023B0000001C16F000E0001C26F000E0001C36F6B
:1023C000010E0001C46F5AEC94F01FD06FC0D9FF0A
:1023D00070C0DAFFDE0404E1800EDE18D8B407D046
:1023E0006FC0D9FF70C0DAFFDE2A000EDD227D0E3D
:1023F0000001C16F000E0001C26F000E0001C36F2B
:10240000000E0001C46F5AEC94F07D0E0001C16F04
:10241000000E0001C26F010E0001C36F010E00012A
:10242000C46F5AEC94F07D0E0001C16F000E0001E4
:10243000C26F010E0001C36F000E0001C46F5AECA1
:1024400094F06DECA4F033ECA5F012006DECA4F068
:102450005FECA5F012002CC0B2F02DC0B3F02EC07E
:10246000B4F01FECA5F01200000120EE04F06F5153
:10247000D9267051DA22DF506EECA2F00009D8B4F0
:102480006AD06FC0D9FF70C0DAFFDE50DE10D8B45A
:102490005DD06FC0D9FF70C0DAFF010EDBBE22D065
:1024A000010EDB5003E1DE04D8A01CD06FC0D9FFC1
:1024B00070C0DAFFDE2804E17F0EDE18D8B407D042
:1024C0006FC0D9FF70C0DAFFDE06000EDD5A7D0E48
:1024D000106E000E116E000E126E010E136E3EECA9
:1024E00097F01BD06FC0D9FF70C0DAFFDE0404E1A3
:1024F000800EDE18D8B407D06FC0D9FF70C0DAFFE5
:10250000DE2A000EDD227D0E106E000E116E000E12
:10251000126E000E136E3EEC97F07D0E106E000EE4
:10252000116E010E126E010E136E3EEC97F07D0ED1
:10253000106E000E116E010E126E000E136E3EEC48
:1025400097F065ECA5F039ECA5F0120065ECA5F06C
:1025500062ECA5F012002CC001F02DC002F02EC0DC
:1025600003F026ECA5F01200BEC0C6F0BFC0C7F055
:10257000000E0001C56F000EC46FC0C0C2F0C1C024
:10258000C3F00001C6510001C711D8A434D0C2C0A5
:10259000D9FFC3C0DAFF300EDF6E000E0001C56F39
:1025A000010EC46F40D0C6C0B9F0C7C0BAF0000E6B
:1025B0000001BC6F0A0EBB6F40EC9EF00001B951E8
:1025C000300FC2C0D9FFC3C0DAFFDF6EC6C0B2F0A1
:1025D000C7C0B3F0000E0001B56F0A0EB46F6FEC08
:1025E0009BF0B2C0C6F0B3C0C7F00001C44BC52B0E
:1025F0000001C24BC32B0001C6510001C711D8B462
:1026000008D00001C55105E1060E0001C45DD8A047
:10261000CAD7C0C0B2F0C1C0B3F0C4C0B4F0C5C026
:10262000B5F005EC9DF00001C4510001C025D96E44
:102630000001C5510001C121DA6E000EDF6E1200EB
:102640000101C8510101C911D8B412000101CC51D6
:102650000101CD110101CE11D8B412000101CF51F9
:102660000101D0110101D111D8B412000101D251E0
:102670000101D3110101D411D8B412000101CA51D2
:102680000101CB11D8A405D0000E0101CB6F010EC2
:10269000CA6FC8C1D9FFC9C1DAFF000EDF6E0101E0
:1026A00020EE01F0C851D926C951DA22000EDF6EA2
:1026B000010120EE02F0C851D926C951DA22CAC15F
:1026C000DEFFCBC1DDFF010120EE04F0C851D926A9
:1026D000C951DA22D2C1DEFFD3C1DEFFD4C1DEFF91
:1026E000010120EE07F0C851D926C951DA22CFC125
:1026F000DEFFD0C1DEFFD1C1DEFF01D81200050030
:10270000FA6E0101CC51FD6ECD51FE6ECE51FF6EC1
:10271000FA5012000001BD6F200E0001BD5F0001E4
:10272000BD51050DF3CFBBF0F4CFBCF0870E000117
:10273000BB250001BE6FFD0E0001BC210001BF6F73
:10274000000E0001C26F040E0001C26501D043D02B
:10275000000E0001C36F060E0001C36501D035D025
:10276000BEC0B2F0BFC0B3F0C3C0B4F089ECA2F0F9
:102770000009D8A405D073C0C0F074C0C1F004D063
:10278000FDC0C0F0FEC0C1F00001C3510A0D000E33
:102790000001B96F020E0001BA6FF3500001B927B2
:1027A000F4500001BA230001C251020DF3500001A0
:1027B000B925D96EF4500001BA21DA6EC0C0DEFF2F
:1027C000C1C0DDFF0001C32BC6D70001BE4BBF2B2C
:1027D0000001C22BB8D7000E0001B76F020E000136
:1027E000B86F1200DFC0D9FFE0C0DAFF000EDE6E66
:1027F000000EDD6E000120EE02F0DF51D926E0511F
:10280000DA22000EDE6E000EDD6E000120EE04F016
:10281000DF51D926E051DA22E1C0DEFFE2C0DDFF60
:102820007D0E0001D86F000E0001D96F000E00016F
:10283000DA6F030E0001DB6FD4EC8AF07D0E00012D
:10284000D86F000E0001D96F010E0001DA6F030E80
:102850000001DB6FD4EC8AF07D0E0001C16F000E29
:102860000001C26F000E0001C36F000E0001C46FB3
:102870005AEC94F07D0E0001C16F000E0001C26F92
:10288000010E0001C36F000E0001C46F5AEC94F0FA
:10289000420E2C6E230E2D6E010E2E6EE80E0001E0
:1028A000BF6F030EC06F000EC16F000EC26F41EC10
:1028B00090F01200080E0001C1250001BE6F000E4D
:1028C0000001C2210001BF6FC3C0C0F0BFECA1F086
:1028D0000001C56F42D0010E0001C417000120EEB7
:1028E00002F0C151D926C251DA22DECFB2F0DDCFDB
:1028F000B3F0C3C0B4F0C4C0B5F00EEC9EF012004B
:10290000010E0001C417010E0001C41B000120EEDE
:1029100002F0C151D926C251DA22DECFB2F0DDCFAA
:10292000B3F0C3C0B4F0C4C0B5F00EEC9EF012001A
:10293000010E0001C417000120EE04F0C151D92698
:10294000C251DA22DECFB2F0DDCFB3F0C3C0B4F0B3
:10295000C4C0B5F00EEC9EF012000001C551000A93
:10296000D8B41200010AD8B4B6D7030AD8B4C8D76D
:10297000010AD8A41200DCD7000E0001C06FFA0EC5
:1029800047240001B26FFF0E48200001B36F000E14
:102990000001B56F060EB46F1DEC95F00001B25149
:1029A0000001C16FC1C0B2F00001B36B000E0001A5
:1029B000B56F040EB46F1DEC95F00001B25100012B
:1029C000BF6F000E0001C06F06D041ECA1F0DBEC40
:1029D0009DF00001C02B0001BF51040DF31EF41E39
:1029E000F34AF42A0001C1510001BA6FBB6BF350E6
:1029F0000001BA27F4500001BB230001BA1FBB1F1E
:102A0000BA4BBB2B040E0001BA27000EBB230001FA
:102A1000C0510001BC6FBD6B0001BA510001BC5D2B
:102A20000001BD51800A0001BE6F0001BB51800A48
:102A30000001BE59D8B01200C8D7000E0001B76F10
:102A40000001B5AF08D00001B46DB51FD8B0B52BEB
:102A5000010E0001B76F0001B3AF08D00001B26DE5
:102A6000B31FD8B0B32B010E0001B71B000E00013D
:102A7000B96F000EB86F0001B4510001B511D8B4A0
:102A80002CD0010E0001B66F06D00001D890B437EB
:102A9000B5370001B62B0001B5AFF7D70001D890CC
:102AA000B837B9370001B4510001B25D0001B5512A
:102AB0000001B359D8A00AD00001B4510001B25F9F
:102AC0000001B5510001B35B0001B8810001D8904D
:102AD000B533B4330001B62FE1D70001B75100017F
:102AE000D8B405D00001B86DB91FD8B0B92BB8C0A3
:102AF000B2F0B9C0B3F01200000E0001BA6F000EC0
:102B0000BB6F000EBC6F000EBD6F0001B65100011F
:102B1000B7110001B8110001B911D8B442D0010EAB
:102B20000001BE6F08D00001D890B637B737B8376C
:102B3000B9370001BE2B0001B9AFF5D70001D8901D
:102B4000BA37BB37BC37BD370001B6510001B25DA3
:102B50000001B7510001B3590001B8510001B45947
:102B60000001B9510001B559D8A012D00001B651E9
:102B70000001B25F0001B7510001B35B0001B85121
:102B80000001B45B0001B9510001B55B0001BA81DD
:102B90000001D890B933B833B733B6330001BE2F34
:102BA000CDD7BAC0B2F0BBC0B3F0BCC0B4F0BDC0AA
:102BB000B5F01200000E0001B76F000EB66F38D0EE
:102BC0002A0E0001B625D96E010E0001B721DA6E7A
:102BD000B3C0E1FFB4C0E2FFE7504DEC85F0DF6E1B
:102BE0002A0E0001B625D96E010E0001B721DA6E5A
:102BF000800EDE18D8A40ED00001B607D8A0B70703
:102C00002A0E0001B625D96E010E0001B721DA6E39
:102C1000000EDB8E0001B34BB42B0001B64BB72B7B
:102C20000001B7511AE1060E0001B65DD8B015D00B
:102C3000B3C0D9FFB4C0DAFFDF50D8B40ED0C0D7CC
:102C40002A0E0001B625D96E010E0001B721DA6EF9
:102C5000000EDF6E0001B64BB72B0001B75106E145
:102C6000060E0001B65DD8B01200EAD712000001CE
:102C7000B651010D750EF324F66EFD0EF420F76EBD
:102C8000F86A000EF8220800F5CFBCF0000E000133
:102C9000BB6F06D00001B4510001B55F0001BB2B32
:102CA0000001B4510001B55DD8B0F4D70001B651B0
:102CB0000001B503F350B56F0001BB510001B5270A
:102CC0000001BC510001B717B5C0B8F0BCC0B9F0E5
:102CD0000001B82B03D00001D890B9370001B82FFC
:102CE000FAD70001B951FF0A0001BA6FB2C0D9FF8B
:102CF000B3C0DAFF0001BA51DF16B5C0B8F0B7C0F3
:102D0000B9F00001B82B03D00001D890B937000109
:102D1000B82FFAD7B2C0D9FFB3C0DAFF0001B9515A
:102D2000DF121200A80EF66E4A0EF76E010EF86E54
:102D300001EEDBF010EE08F00900F5CFEEFFE550F4
:102D4000E150FAE17E0EF66E4A0EF76E010EF86E55
:102D500000EEF5F010EE0BF00900F5CFEEFFE550B8
:102D6000E150FAE1890EF66E4A0EF76E010EF86E2A
:102D700000EE47F010EE0AF00900F5CFEEFFE55047
:102D8000E150FAE102EE46F011EE2CF0EE6AE55069
:102D9000E150FCE1E250FAE102EE00F0460EEE6A8C
:102DA000E806FDE101EE00F0C80EEE6AE806FDE17E
:102DB00000EE60F0520EEE6AE806FDE100EE29F04A
:102DC0001E0EEE6AE806FDE1519051920001FCEF03
:102DD000A1F00001BA6F020E0001B727020E000138
:102DE000B927030E0001BA27030E0001B827000E11
:102DF0000001B56F2A0EC1ECA3F0010E0001B56F02
:102E0000000EC1ECA3F0010E0001B56F0001BA5134
:102E1000C1ECA3F0010E0001B56F000EC1ECA3F0F0
:102E2000010E0001B56F0001B851C1ECA3F0000E16
:102E30000001B56F2B0EC1ECA3F0010E0001B56FC0
:102E4000000EC1ECA3F0010E0001B56F0001B751F7
:102E5000C1ECA3F0010E0001B56F000EC1ECA3F0B0
:102E6000010E0001B56F0001B951C1ECA3F0000ED5
:102E70000001B56F2C0EC1ECA3F01200080E102457
:102E80000D6E000E11200E6E12C00FF004ECA3F0B8
:102E9000146E3BD0010E131620EE02F01050D9260E
:102EA0001150DA22DECF01F0DDCF02F012C003F0C4
:102EB00013C004F025ECA0F01200010E1316010E51
:102EC000131A20EE02F01050D9261150DA22DECF6C
:102ED00001F0DDCF02F012C003F013C004F025ECC6
:102EE000A0F01200010E131620EE04F01050D926A7
:102EF0001150DA22DECF01F0DDCF02F012C003F074
:102F000013C004F025ECA0F012001450000AD8B44D
:102F10001200010AD8B4BED7030AD8B4CED7010A2A
:102F2000D8A41200DFD70001B46F38D0920E000190
:102F3000B26F0F0E0001B36F1200930E0001B26F5B
:102F40000F0E0001B36F1200940E0001B26F0F0E4E
:102F50000001B36F1200950E0001B26F0F0E000159
:102F6000B36F1200960E0001B26F0F0E0001B36F27
:102F70001200970E0001B26F0F0E0001B36F120026
:102F8000980E0001B26F0F0E0001B36F1200000E19
:102F90000001B26F000E0001B36F12000001B451C6
:102FA000000AD8B4C3D7010AD8B4C7D7030AD8B423
:102FB000CBD7010AD8B4CFD7070AD8B4D3D7010AE0
:102FC000D8B4D7D7030AD8B4DBD7E1D70001B46FA0
:102FD00038D0730E0001B26FFF0E0001B36F120004
:102FE000710E0001B26FFF0E0001B36F12006F0E81
:102FF0000001B26FFF0E0001B36F12006D0E0001F1
:10300000B26FFF0E0001B36F12006B0E0001B26FC2
:10301000FF0E0001B36F1200690E0001B26FFF0EC8
:103020000001B36F1200670E0001B26FFF0E0001C6
:10303000B36F1200000E0001B26F000E0001B36FFB
:1030400012000001B451000AD8B4C3D7010AD8B4A1
:10305000C7D7030AD8B4CBD7010AD8B4CFD7070A49
:10306000D8B4D3D7010AD8B4D7D7030AD8B4DBD79A
:10307000E1D70001B46F38D0800E0001B26F0F0E9F
:103080000001B36F1200810E0001B26F0F0E00013C
:10309000B36F1200820E0001B26F0F0E0001B36F0A
:1030A0001200830E0001B26F0F0E0001B36F120009
:1030B000840E0001B26F0F0E0001B36F1200850E77
:1030C0000001B26F0F0E0001B36F1200860E0001F7
:1030D000B26F0F0E0001B36F1200000E0001B26F4D
:1030E000000E0001B36F12000001B451000AD8B401
:1030F000C3D7010AD8B4C7D7030AD8B4CBD7010ABB
:10310000D8B4CFD7070AD8B4D3D7010AD8B4D7D701
:10311000030AD8B4DBD7E1D7000E0001D46F000159
:10312000C6510001CA250001D26F0001C85100013B
:10313000CC250001D36FCCC0B2F0CDC0B3F0CAC073
:10314000B4F0CBC0B5F053ECA2F0B2C0D0F0B3C035
:10315000D1F0C8C0B7F00001D2050001B86F00017E
:10316000D3050001B96F0001C651E9EC96F0000EDD
:103170000001D46F13D00001D451020DF3500001AF
:10318000C425D96EF4500001C521DA6EDECFB7F048
:10319000DDCFB8F013ECA4F00001D42B0001D45122
:1031A0000001CE6FCF6B0001D0510001CE5D000158
:1031B000D1510001CF59D8B01200DDD73ED0000167
:1031C0007A51140D460E0001B26F020E0001B36F6A
:1031D000F3500001B227F4500001B32300017B51EA
:1031E000010DF3500001B225D96EF4500001B32156
:1031F000DA6EDF50D8B41FD0010E0001FF6F00015E
:103200007A51140D460E0001B26F020E0001B36F29
:10321000F3500001B227F4500001B32300017B51A9
:10322000010DF3500001B225D96EF4500001B32115
:10323000DA6E800EDF6E00017B2B130E00017B65C2
:10324000BED7000E00017B6F00017A2B080E4926C5
:10325000000E4A22000E486E060E476E1200F80E4F
:103260000001B36F000EB26F4FECA5F0A7EC9AF01F
:10327000D6C0DEF0D7C0DFF0A30E0001C76FFF0E8F
:103280000001C86F83EC8CF024D0DC0E0001C76F06
:10329000FF0E0001C86F83EC8CF01200F30E0001EA
:1032A000C76FFF0E0001C86F83EC8CF01200C10ED7
:1032B0000001C76FFF0E0001C86F83EC8CF0120095
:1032C000CF0E0001C76FFF0E0001C86F83EC8CF0BA
:1032D0001200DEC0DCF0DFC0DDF00001DD51000ACD
:1032E000D8A4EED70001DC51010AD8B4E0D7030A14
:1032F000D8B4D4D7010AD8B4C8D7E2D7B2C0F6FF41
:10330000B3C0F7FF000EF86E0F0EF76403D008008D
:10331000F55005D0F6CFE9FFF7CFEAFFEF500001F7
:10332000BA6F0001B651010D750EF324F66EFD0E55
:10333000F420F76EF86A000EF8220800F5CFB8F016
:10334000000E0001B96F06D00001B4510001B55F55
:103350000001B92B0001B4510001B55DD8B0F4D71C
:103360000001B6510001B503F350B56F0001B9512A
:103370000001B5270001B5290001B76F03D0000196
:10338000D890BA330001B72FFAD70001B851000125
:10339000BA170001BA5112000001B76F000E000108
:1033A000B86F000E0001B56F360EC1ECA3F000013E
:1033B000B751030B0001B86F2CD0010E0001B56F9F
:1033C000C80EC1ECA3F0800E506E800E4F6E12003E
:1033D000010E0001B56FA80EC1ECA3F0800E506E77
:1033E000800E4F6E1200010E0001B56F080EC1EC89
:1033F000A3F0800E506E800E4F6E1200010E000181
:10340000B56F680EC1ECA3F0800E506E800E4F6E4B
:1034100012000001B851000AD8B4CFD7010AD8B4BD
:10342000D7D7030AD8B4DFD7010AD8A41200E6D749
:103430000001B86F7E0EF66EFD0EF76E000EF86E90
:103440000900F5CFB4F00900F5CFB5F00900F5CFCC
:10345000B6F00A00F5CFB7F0110E0001B96F030EF8
:103460000001B8170001B851010DB40EF324D96E54
:10347000000EF420DA6EDF500001B26FB9C0B3F075
:103480000001B22B03D00001D890B3370001B22F56
:10349000FAD70001B3510001B96F0001B9390F0B20
:1034A0000001B96F0001B9510F0B0001B96F0101A3
:1034B00030510001B919F00BB9190101306F120038
:1034C000000E00017B6F000E00017A6F000E0001FC
:1034D000B56F0E0E0001B56501D02DD0000E0001B4
:1034E000B46F130E0001B46501D022D0010E0001AB
:1034F000FF6F0001B551140D460E0001B26F020EB0
:103500000001B36FF3500001B227F4500001B32360
:103510000001B451010DF3500001B225D96EF450F1
:103520000001B321DA6E800EDF6E0001B42BD9D713
:103530000001B52BCED7010E00017C6F000E486E46
:10354000060E476E000E4A6E060E496E120094EC8F
:103550009CF021EE61F001D80AD00500FA6EDE5031
:10356000FD6EDE50FE6EDE50FF6EFA50120000015E
:10357000D86F0001D8510001DA6FDB6B18D0000E54
:103580000001D76F030ED66F1200000E0001D76F37
:10359000020ED66F1200000E0001D76F010ED66F1B
:1035A0001200000E0001D76F000ED66F1200DAC0B5
:1035B000D8F0DBC0D9F00001D951000AD8A4F1D766
:1035C0000001D851020AD8B4DAD7060AD8B4DDD738
:1035D0000C0AD8B4E0D7E5D7000E00017B6F000ECF
:1035E00000017A6F000E0001B46F130E0001B46584
:1035F00001D01200000E0001B56F0E0E0001B5657E
:1036000001D02CD00001B551140D460E0001B26F4F
:10361000020E0001B36FF3500001B227F450000115
:10362000B3230001B451010DF3500001B225D96E4E
:10363000F4500001B321DA6E000EDF6E0001B551C7
:10364000020D000EF324D96E010EF420DA6EFF0E87
:10365000DE6EFF0EDD6E0001B52BCFD70001B42B5F
:10366000C4D75B0EF66EFD0EF76E000EF86E20EE00
:10367000C7F00F0E0900F5CFDEFFE806FBE2C1C080
:10368000BEF0C2C0BFF0C4C0C0F0BFECA1F00001EA
:10369000D76F040E0001C36120D0040E0001D76172
:1036A0001CD00001C351040DC70E0001C56F000EF0
:1036B0000001C66FF3500001C527F4500001C62376
:1036C0000001D751010DF3500001C525D96EF4500A
:1036D0000001C621DA6EDF501200050E1200000E46
:1036E0000001B86F000EB76F0001B4510001B511B1
:1036F000D8B42CD0010E0001B66F06D00001D890CE
:10370000B437B5370001B62B0001B5AFF7D70001CC
:10371000D890B737B8370001B4510001B25D00014D
:10372000B5510001B359D8A00AD00001B45100012D
:10373000B25F0001B5510001B35B0001B781000128
:10374000D890B533B4330001B62FE1D7B7C0B2F08B
:10375000B8C0B3F0120001C0F6FF02C0F7FF000EC0
:10376000F86E0F0EF76403D00800F55005D0F6CFC1
:10377000E9FFF7CFEAFFEF50096E0550010D750E16
:10378000F324F66EFD0EF420F76EF86A000EF822B0
:103790000800F5CF07F0000E086E03D00350045E5A
:1037A000082A0350045CD8B0F9D705500402F3503E
:1037B000046E085004260428066E02D0D890093200
:1037C000062EFCD70750091609501200000E000102
:1037D000C76F000E0001C86FBFC0B7F00001BD5138
:1037E0000001C1250001C56F0001C5050001B86FCA
:1037F0000001BF510001C3250001C66F0001C605CD
:103800000001B96F0001BD51E9EC96F0C3C0C8F0EA
:103810000001C8510001D8B41200C1C0C7F00001B6
:10382000C7510001D8B409D0BBC0B7F0BCC0B8F0D4
:1038300013ECA4F00001C707F2D70001C807E8D7CE
:10384000000120EE06F0C151D926C251DA22DECFA6
:10385000B2F0DDCFB3F0050E0001B46F000E000131
:10386000B56F0EEC9EF0000120EE06F0C151D92696
:10387000C251DA22DECFBDF0DDCFBEF0000E000176
:10388000BF6F000E0001C06FE3ECA3F0000120EE5B
:1038900006F0C151D926C251DA22DECFB2F0DDCF17
:1038A000B3F0050E0001B46F010E0001B56F0EEC10
:1038B0009EF01200000120EE06F0C151D926C2513F
:1038C000DA22DECFB2F0DDCFB3F0050E0001B46F27
:1038D000000E0001B56F0EEC9EF0000120EE06F028
:1038E000C151D926C251DA22DECFBDF0DDCFBEF004
:1038F000000E0001BF6F020E0001C06FE3ECA3F0E9
:10390000000120EE06F0C151D926C251DA22DECFE5
:10391000B2F0DDCFB3F0050E0001B46F010E00016F
:10392000B56F0EEC9EF0120096685A0E0001CD6F36
:10393000010E0001CE6F010E0001CF6F8EEC8FF0F3
:103940003C0E0001CD6F010E0001CE6F010E000193
:10395000CF6F8EEC8FF0320E0001CD6F010E0001A3
:10396000CE6F010E0001CF6F8EEC8FF0460E00017E
:10397000CD6F010E0001CE6F010E0001CF6F8EECF6
:103980008FF0500E0001CD6F010E0001CE6F010EC1
:103990000001CF6F8EEC8FF01200AC0E0001D86FDB
:1039A000010E0001D96F070E0001DA6F030E00014E
:1039B000DB6FD4EC8AF0AC0E0001D86F010E000171
:1039C000D96F060E0001DA6F030E0001DB6FD4EC35
:1039D0008AF0FDEC9FF0C00E0001DF6FC60EE06FB5
:1039E0002D0EE16F000EE26F010E0001E36F010E7C
:1039F0000001E46F00EC80F06F0E0001C16F010E5A
:103A00000001C26F20EC9CF012000001B4510001D3
:103A1000B2250001B76F0001B5510001B3210001CB
:103A2000B86F1AD0B2C0D9FFB3C0DAFFDF500001BF
:103A3000B66FB7C0D9FFB8C0DAFFB2C0E1FFB3C0FC
:103A4000E2FFDFCFE7FF0001B24BB32BB7C0D9FFD6
:103A5000B8C0DAFFB6C0DFFF0001B707D8A0B807CB
:103A60000001B7510001B25D0001B8510001B35926
:103A7000D8B01200D7D726D095C0D9FF96C0DAFFAC
:103A80000001DF94B4C0C9FFC7A0FED7C9CFB4F00E
:103A900095C0D9FF96C0DAFF0001DF8412008BC009
:103AA000D9FF8CC0DAFF0001DF9EB4C06FFF6DA0AC
:103AB000FED76FCFB4F08BC0D9FF8CC0DAFF000106
:103AC000DF8E1200000120EE02F0B251D926B35170
:103AD000DA22DF50000AD8B4CFD7010AD8A41200E6
:103AE000DED71FD0000E0001B46F000EB56F000EC0
:103AF000B66F000EB76F0001B7510001B61111E1AA
:103B0000B00E0001B45D040E0001B559D8B009D063
:103B100000F0010E0001B427000EB523B623B72331
:103B2000EAD70001B207D8A0B3070001B229DAE151
:103B30000001B329D8A4D6D7080E0001B46F800EB7
:103B4000B56F000EB66F000EB76F1200050E0001C4
:103B5000DE6FD8C0D9FFD9C0DAFFDECFDFF0DDCF0E
:103B6000E0F00001DA51020DF3CFDCF00001DA5190
:103B7000020DF3280001DD6FDFC0C1F0E0C0C2F02C
:103B8000DBC0C3F0DCC0C4F031EC9BF00001DE6FA1
:103B90000001DE51D8A40CD0DFC0C1F0E0C0C2F0FB
:103BA000DBC0C3F0DDC0C4F031EC9BF00001DE6F80
:103BB0000001DE51120000017B2B060E4726000E8D
:103BC0004822060E47240001B66F000E482000016F
:103BD000B76F0001B7BF09D00001B75104E1800EF3
:103BE0000001B65DD8B0DEEC98F0080E4924000163
:103BF000B66F000E4A200001B76F0001B7BF0CD0AE
:103C00000001B75105E1800E0001B65DD8A004D0D7
:103C100060EC9AF0010E1200000E1200010E00017D
:103C2000B517B4C0B6F0010E0001B76F0001B62B96
:103C300003D00001D890B7370001B62FFAD70001A2
:103C4000B751FF0A0001B86FB2C0D9FFB3C0DAFFA5
:103C50000001B851DF16B4C0B6F0B5C0B7F000012E
:103C6000B62B03D00001D890B7370001B62FFAD792
:103C7000B2C0D9FFB3C0DAFF0001B751DF121200A2
:103C80000001BB510001BC11D8B426D0010E0001C7
:103C9000BD6F06D00001D890BB37BC370001BD2BEB
:103CA0000001BCAFF7D70001BB510001B95D0001B5
:103CB000BC510001BA59D8A008D00001BB51000185
:103CC000B95F0001BC510001BA5B0001D890BC3360
:103CD000BB330001BD2FE7D7B9C0B9F0BAC0BAF005
:103CE00012000001DF6F1ED0910E0001D86F000E90
:103CF0000001D96F000E0001DA6F030E0001DB6FC7
:103D0000D4EC8AF017D0910E0001D86F000E00019C
:103D1000D96F010E0001DA6F030E0001DB6FD4ECE6
:103D20008AF008D00001DF51000AD8B4DDD7010ABB
:103D3000D8B4E9D7000E0001C66F0001DF51D5EC01
:103D40009FF0120015EC8EF0010EA0ECA1F000091E
:103D5000D8B40CD0D5EC8EF0ECEC9AF0D7EC89F01E
:103D60006DECA4F00009D8A481ECA1F0080EA0EC41
:103D7000A1F00009D8B41200BD0E0001DF6F010EE2
:103D80000001E06F000E0001E26F080EE16FF2EC3F
:103D900093F06DECA4F00009D8B4120081ECA1F00E
:103DA000120000017B51D8B407D0FA0E4726FF0E4F
:103DB000482200017B0720D000017A51D8B40ED0F0
:103DC000000E486E720E476EF80E4926FF0E4A220C
:103DD000130E00017B6F00017A070ED0000E486EB3
:103DE000060E476E000E4A6E060E496E000E00016A
:103DF0007B6F000E00017A6F41ECA1F01200050EFE
:103E00000001E76F0001E351020DF3CFE5F000017F
:103E1000E351020DF3280001E66FE1C0D8F0E2C0E3
:103E2000D9F0E5C0DAF0E4C0DBF0A6EC9DF00001CB
:103E3000E76F0001E751D8A40CD0E1C0D8F0E2C090
:103E4000D9F0E6C0DAF0E4C0DBF0A6EC9DF00001AA
:103E5000E76F0001E75112000001CB6F0001CB5169
:103E6000F2ECA4F00001CB510001D8A41DD0000158
:103E7000D8906B376C3700016C2900016B11D8A406
:103E800006D0000E00016C6F000E6B6F09D00001B0
:103E90006C5106E100016B29D8B002D000016B81A2
:103EA00000016B514AECA5F0000E94ECA0F012005A
:103EB000000E0001BD6F000E0001BE6F000E00017C
:103EC000B76F50040001B86F4F040001B96F000EC6
:103ED000E9EC96F04FC0BEF00001BE510001D8B42D
:103EE000120050C0BDF00001BD510001D8B409D08E
:103EF000BBC0B7F0BCC0B8F013ECA4F00001BD0724
:103F0000F2D70001BE07E8D71CD0000E0001B46F45
:103F1000000EB56F000EB66F000EB76F0001B45102
:103F20000001B5110001B6110001B711D8A409D0E4
:103F300000F0010E0001B427000EB523B623B7230D
:103F4000EDD70001B207D8A0B3070001B229DDE127
:103F50000001B329D8B41200D8D7A7EC9AF0D6C084
:103F6000F0F0D7C0F1F00CD0ECEC83F0120002ECD2
:103F70000AF012006AECA5F0120019ECA2F012008F
:103F8000F0C0EEF0F1C0EFF00001EF51000AD8A44C
:103F9000F4D70001EE51010AD8B4E6D7030AD8B429
:103FA000E6D7010AD8B4E6D7E8D70001C76F1CD01E
:103FB000910E0001C16F000E0001C26F000E0001E2
:103FC000C36FC6C0C4F05AEC94F01200910E000109
:103FD000C16F000E0001C26F010E0001C36FC6C0A9
:103FE000C4F05AEC94F012000001C751000AD8B492
:103FF000DFD7010AD8A41200E9D731ECA4F0010EF2
:1040000094ECA0F0000E0001B36F800EB26F71EC63
:104010009DF0010E94ECA0F022ECA4F0000E000143
:10402000B36F800EB26F71EC9DF0010E94ECA0F0B6
:1040300031ECA4F0000E0001B36F800EB26F71EC92
:104040009DF0010E94ECA0F01200010E041603C0C6
:1040500005F0010E066E052A02D0D8900636052E10
:10406000FCD70650FF0A076E01C0D9FF02C0DAFF75
:104070000750DF1603C005F004C006F0052A02D081
:10408000D8900636052EFCD701C0D9FF02C0DAFF52
:104090000650DF121200000120EE06F0B251D926C0
:1040A000B351DA22DECFB5F0DDCFB6F0B5C0D9FF1F
:1040B000B6C0DAFFDF500001B76F0001B451040D44
:1040C000F3280001B56F03D00001D890B733000189
:1040D000B52FFAD70F0E0001B7170001B751120024
:1040E000050E0001EB6FE8C0E1F0E9C0E2F0000E60
:1040F0000001E36FEAC0E4F0FFEC9EF00001EB6F1B
:104100000001EB51D8A40DD0E8C0E1F0E9C0E2F025
:10411000010E0001E36FEAC0E4F0FFEC9EF0000145
:10412000EB6F0001EB5112000001CA6F18D0910E25
:104130000001C66F000E0001C76F000E0001C86FBE
:10414000D4ECA2F01200910E0001C66F000E000127
:10415000C76F010E0001C86FD4ECA2F0120000017D
:10416000CA51000AD8B4E3D7010AD8A41200EBD789
:10417000000120EE06F0B251D926B351DA22DECF8B
:10418000B5F0DDCFB6F0B5C0D9FFB6C0DAFFDF506D
:104190000001B76F0001B4290001B56F03D0000121
:1041A000D890B7330001B52FFAD7010E0001B71729
:1041B0000001B7511200030E0001C36514D0010EB7
:1041C0000001C1250001BD6F000E0001C2210001E8
:1041D000BE6F0001C351FC0F0001BF6FC4C0C0F02F
:1041E000D2ECA3F01200C1C0BDF0C2C0BEF0C3C08B
:1041F000BFF0C4C0C0F0D2ECA3F012000001CB6F3E
:104200000001CB51E7ECA4F00001CB510001D8A490
:1042100013D000016B5100016C11D8A405D0FF0E22
:1042200000016C6F000E6B6F0001D8906C336B3324
:1042300000016B514AECA5F0000E94ECA0F01200C6
:104240000001B96F86500F0B0001B86F4B50D8A416
:1042500002D0000E1200000E4B6E0001B951000199
:10426000B819D8B40CD0F00E86160001B9518612D8
:10427000000E0001B36F0A0EB26F84EC9FF0010EC6
:104280001200010E0001FF6F00017A51140D460E5D
:104290000001B26F020E0001B36FF3500001B227AC
:1042A000F4500001B32300017B51010DF3500001D4
:1042B000B225D96EF4500001B321DA6E800EDF6EA4
:1042C000120016D0000E036E000E046E000E056E76
:1042D000000E066E0350041005100610D8A408D076
:1042E00000F0010E0326000E042205220622F2D75A
:1042F0000106D8A002060128E5E10228D8B4120080
:10430000E1D7000168510001691100016A11D8B4B8
:104310000DD001D80BD00500FA6E00016851FD6E7A
:104320006951FE6E6A51FF6EFA501200000E0001D4
:10433000686F000E0001696F000E00016A6F1200C5
:104340000001B96F86500F0B0001B86F4B50D8B405
:10435000FDD7000E4B6E0001B9510001B819D8B459
:104360000CD0F00E86160001B9518612000E000125
:10437000B36F0A0EB26F84EC9FF0010E1200030EB1
:104380000001C06512D0010E0001BE250001BB6F07
:10439000000E0001BF210001BC6F0001C051FC0FE5
:1043A0000001BD6F5EECA4F01200BEC0BBF0BFC048
:1043B000BCF0C0C0BDF05EECA4F012000001CB6FF9
:1043C0000001CB510001D8A413D00001752B0001CE
:1043D000755100016D27000E6E236DC0C8F06EC0D0
:1043E000C9F049ECA3F000017551030B18EC9AF0E9
:1043F000000E94ECA0F01200A2EC9EF0010EA0ECD6
:10440000A1F00009D8B4FAD773ECA3F021EED5F0EF
:1044100000EEE8F0050EDBCFEBFFE806FCE2ADECCA
:104420009FF06DECA4F00009D8B4E8D781ECA1F0BE
:10443000E5D773ECA3F0750E0001C76FFF0E000106
:10444000C86F83EC8CF0750E0001C76FFF0E000182
:10445000C86F83EC8CF0750E0001C76FFF0E000172
:10446000C86F83EC8CF0CFEC88F01200B5C06FF011
:10447000B6C070F0B5C0D9FFB6C0DAFFDE50DE10AE
:10448000D8A41200B5C0D9FFB6C0DAFFB7C0DEFFAE
:10449000B8C0DDFF2CC0B2F02DC0B3F02EC0B4F018
:1044A0009BECA3F012000001B2510001B403F3CF62
:1044B000B6F0F4CFB7F00001B2510001B503F350EC
:1044C0000001B7270001B3510001B403F35000010C
:1044D000B727B6C0B2F0B7C0B3F01200086E86506E
:1044E0000F0B076E4B50D8A402D0000E1200000E26
:1044F0004B6E08500718D8B40AD0F00E8616085034
:104500008612000E026E0A0E016E61ECA1F0010E21
:104510001200B2C0F6FFB3C0F7FF000EF86E08003D
:10452000F5CFB6F00001B4290001B56F03D000014A
:10453000D890B6330001B52FFAD7010E0001B61797
:104540000001B65112000001CB6F0001CB51FDEC10
:10455000A4F00001CB510001D8A40AD000016D07DE
:10456000D8A06E076DC0C8F06EC0C9F049ECA3F0CA
:10457000000E94ECA0F012000001CB6F0001CB51B3
:10458000DCECA4F00001CB510001D8A409D000015B
:104590006D4B6E2B6DC0C8F06EC0C9F049ECA3F036
:1045A000000E94ECA0F01200C6C0B2F0C7C0B3F089
:1045B000C8C0B4F0B8ECA0F00001C96F010E000152
:1045C000C91BC6C0C1F0C7C0C2F0C8C0C3F0C9C0D3
:1045D000C4F05AEC94F01200000120EE02F0B25147
:1045E000D926B351DA22DF50D8A407D095C0D9FF1D
:1045F00096C0DAFF0001DF8412008BC0D9FF8CC0A7
:10460000DAFF0001DF8E1200030E0F640CD0010EE2
:104610000D240A6E000E0E200B6E0F50FC0F0C6E58
:104620007BECA4F012000DC00AF00EC00BF00FC01E
:104630000CF07BECA4F012000001CB6F5CECA5F059
:104640000001CC6F0F0E0001CC170001CB3BF00E28
:10465000CB170001CB510001CC114AECA5F0000EA4
:1046600094ECA0F012000001CB6F5CECA5F000010F
:10467000CC6F0001CB510001CC114AECA5F0F00E3B
:104680000001CC170F0E0001CB17000E94ECA0F028
:104690001200C8C0BEF0C9C0BFF02A0E0001C06F32
:1046A000010E0001C16FB4EC92F02A0E0001B36F4D
:1046B000010E0001B46FDAEC95F01200000120EE5B
:1046C00002F0CD51D926CE51DA22CFC0DEFFD0C0C4
:1046D000DDFFCFC0BFF0D0C0C0F00001C16BC26B26
:1046E00041EC90F01200FB0E0001C76FFF0E0001BD
:1046F000C86F000E0001CA6F230EC96F83EC8CF0E7
:10470000F4ECA3F02FEC99F0CFEC88F0120004D079
:104710009D961200A39E1200000120EE02F0B251FD
:10472000D926B351DA22DF50000AD8B4F1D7010AF2
:10473000D8A41200EFD7B2C029F0B3C02AF0B4C099
:104740002BF031C0D6FF32C0D7FFD5500001791908
:10475000F80B7919D56EF294F28A120062ECA5F08A
:1047600029502A102B10D8B4120001D812000500CD
:10477000FA6E2950FD6E2A50FE6E2B50FF6EFA50D5
:1047800012000001B66F0001B55108ECA5F06F0EE4
:104790000001B26F010E0001B36FB6C0B4F03BEC84
:1047A0009DF01200BDC0B2F0BEC0B3F0040E000117
:1047B000B46FBFC0B5F0020E0001B66FC0C0B7F055
:1047C00037EC96F01200BDC0B2F0BEC0B3F0020EDE
:1047D0000001B46FBFC0B5F0040E0001B66FC0C0D9
:1047E000B7F037EC96F01200070E0001B36FE00E41
:1047F000B26F4FECA5F08D0E0001C76FFF0E0001E8
:10480000C86F83EC8CF01200000E486E060E476EE7
:10481000000E4A6E060E496E000E00017B6F000E00
:1048200000017A6F1200010E0001B56F0001B8514E
:10483000C1ECA3F0010E0001B56F0001B751C1EC4E
:10484000A3F01200AC0E0001C16F010E0001C26F97
:10485000060E0001C36F010E0001C46F5AEC94F004
:104860001200AC0E0001C16F010E0001C26F060EF6
:104870000001C36F000E0001C46F5AEC94F01200E7
:10488000870E0001E86F000E0001E96F000E0001C5
:10489000EA6F000E0001EB6F8FEC86F01200980EAD
:1048A0000001D86F010E0001D96F040E0001DA6F0C
:1048B000000E0001DB6FD4EC8AF01200BBC0B2F036
:1048C000BCC0B3F0040E0001B46FBDC0B5F0020E61
:1048D0000001B66F7EEC99F01200010E4B6E0001E4
:1048E00068510001691100016A11D8B402D0010EAB
