:100000000DEF04F026EF00F004EF0AF0D1EC04F05D
:10001000FF0000F000F012000CEF0AF018EF00F003
:10003000F26AFC6A9BEC04F004009EEC09F0D8EC38
:1000400003F0F3EC03F05EEC08F0F6D701501F0B61
:10005000E80601E01200055001E01200060E021849
:1000600014E01AD0020E3D6E4A0E3FD8306A090ED7
:100070000AD0020E3D6E450402E1870E36D84504D3
:100080000AE1306A1D0E2F6E06D00450210AEAE004
:10009000030AEFE0010A42820138E832030BE80666
:1000A00014E01200020E3D6E440E206E24D0020EAB
:1000B0003D6E04C044F0020C020E3D6E430EF5D7B7
:1000C000020E3D6E03C043F0020C0250010AD8B488
:1000D0001200030AE7E0010AEFE00A0AD8B41200AE
:1000E000030AE5E0010AECE01200206E2050D8A4DB
:1000F000100E216E1200216A4292010E2F6E010C29
:100100004F6A140E506E516A296A2A6A4FC0F6FF70
:1001100050C0F7FF51C0F8FF42D80800F5CFDFFF0D
:100120004F2A000E50225122294A2A2A040E2A5C04
:10013000EDE30D0EE8CFB2F4600EE8CFB3F4000E9D
:10014000496E050E486E0AEC03F04F68170E506EAC
:10015000516A030E2A6E296851C0F8FF50C0F7FF9C
:100160004FC0F6FF1CD8DF50F56E0C0029C04EF0D2
:100170003F0E4E1607E1FEEC09F0040EA66EB50E1A
:1001800067EC04F04F06000E505A515A0A002950ED
:100190002A1001E112002906D8A02A06DDD7AC0EEC
:1001A0002924D96E040E2A20DA6E120003040BE112
:1001B00001501F0B08E1010E3D6E030E021802E113
:1001C000428001D042900350D8A4120001501F0B6E
:1001D000020AD8A4120005500F0BD8B4120028D878
:1001E000476A040E486E4726000E4822F350472601
:1001F000F450482223D847241D6EF45048201E6E28
:10020000030E021805E10FD8040EDF6E0CD81CD0C7
:1002100005AE04D008D8400EDF6E400C04D8080E9E
:10022000DF6E01D811D01DC0D9FF1EC0DAFF120049
:10023000010E3D6E05500F0B080D1200010E05AEAC
:10024000000E040DF3501200000EDB8E000C3D502A
:1002500010E193EC03F0196E3A0405E1010E32EC63
:1002600003F03A6A1200000E32EC03F0010E3A6E0F
:10027000010C01AE1BD0010E3E6E2F50075C3050BA
:10028000085804E207C02FF008C030F076EC01F007
:10029000480E196E010E32EC03F0000E32EC03F042
:1002A000240E04010A6F040E0B6F1CD0020E3E6E6A
:1002B000040E196E0750081002E1480E196E3A0438
:1002C00005E1010E32EC03F03A6A05D0000E32EC83
:1002D00003F0010E3A6E07500810D8A41200040172
:1002E000096B00D0480E086F088F480C080E326E5C
:1002F00030500DE1080E2F5C0AE22FC032F0405062
:1003000002E1010E03D0400402E1020E406E32C051
:1003100009F432502F5E000E305A240E1D6E040E6A
:100320001E6E42A21AD00BD01BD813EC01F00F0E98
:10033000F76403D00800F55001D019D81ED8325008
:10034000F3E112000DD813EC01F00F0EF76403D0A7
:100350000800F55001D00BD810D83250F3E112004C
:1003600020C0F6FF21C0F7FF000EF86E1200F6CF96
:10037000E1FFF7CFE2FFE7501200DF6E1D4A1E2AB1
:10038000204A212A320612000138E832030B18E015
:100390001200010E3D6E040E416E040C010E3D6E06
:1003A000450E206E7BEF00F02CD8496E49C020F03E
:1003B0007BEF00F026D8D96EDA6A03C0DFFF1200A7
:1003C000025002E179EF02F0010A02E1D6EF00F0FB
:1003D000020A02E1D6EF00F0060ADBE0030A02E1BE
:1003E00006EF02F0010AD8B412000F0AD7E0010AA2
:1003F00002E155EF03F0030AD7E0010ADBE0070A48
:100400001200010E3D6E0550460F1200800E0118BD
:1004100030E01200010E3D6EA40E75EC00F0120EDD
:1004200009D003502DE1010E3D6E380E75EC00F041
:10043000306A290E2F6E24D0010E3D6E0350010F3D
:10044000476E47C0F6FF100EF76E000EF86E0900FB
:10045000F5CF20F0100E216EB0EC01F00F0EF76416
:1004600003D00800F55002D0B7EC01F02F6E306ACF
:1004700007D00450010ACEE0030AD3E0010ADCE011
:1004800042821200366A27D03850486E000E48BEAD
:10049000FF0E496E4A6E4B6E4850155C0D6E49500A
:1004A00016580E6E4A5017580F6E4B501858106E53
:1004B0000FC0F8FF0EC0F7FF0DC0F6FF11D80D00FA
:1004C000362A0ED80C00362A240EA66EB50E67EC1E
:1004D00004F0FE0E38263850800A7F0FD5E2120055
:1004E000AC0E3624D96EDA6A040EDA22DF50F56ECD
:1004F0001200246B256B22D0010E3D6E42B0248386
:1005000024D0010E3D6E21D018EC01F0476A040E94
:10051000486E4726000E4822F3504726F4504822E2
:100520001EEC01F047241D6EF45048201E6E13ECA3
:1005300001F0DFA40AD0010E246F07D001501F0B79
:10054000DBE0010ADEE0030ADFE03D04D8A412008C
:10055000240E206E040E216E4292020E2F6E020CAB
:10056000400E486401D0486E4A6A0DD047504A2474
:10057000D96EDA6A6C0E4A24E16EE26A040EE22257
:10058000DFCFE7FF4A2A48504A5CF0E348C011F445
:10059000400E0401101710BD03D0496A492A01D04A
:1005A000496A493A49464946040110514918BF0B66
:1005B0004918106F1087108F12003F6A0CBF12008D
:1005C00048500D5D02E20DC448F03F6A0BD02C0E7E
:1005D0003F24D96EDA6A040EDA2247503F24F9EC40
:1005E00009F03F2A48503F5CF2E3400E0D6F0C17B4
:1005F0000CBD03D0496A492A01D0496A493A4946A3
:10060000494604010C514918BF0B49180C6F0C875F
:100610000C8F1200495006E1050E485C03E2496A5E
:10062000050E486E48504A6E49504B6E4C6A4D6AF2
:100630000A0ED8904A364B364C364D36E82EF9D74E
:100640004AC009F04BC00AF04CC00BF04DC00CF092
:100650000BC0F8FF0AC0F7FFF66A140EA66EB50EBF
:1006600067EF04F0476E080E1A6E1C0E1B6E040E28
:100670001C6E475006E1140E1B6E040E1C6E256A9C
:1006800002D0040E256E266E0BD819C0DEFF1AC0EC
:10069000DEFF1BC0DEFF1CC0DEFF02D8DF8E1200B3
:1006A00025C0D9FF26C0DAFF1200010E3D6E0F01F2
:1006B00016D8346A3450460FD96EDA6ADF6A342AA3
:1006C0003450F8E003C045F04550C9EC04F0035045
:1006D00003E1050E416E050C060E416E060C4D6BD6
:1006E0004E6B4F6B506B516B526B536B1200040E81
:1006F000411808E103C05EFF0F015E51050ED8B43A
:10070000030E416E3E04D8A4120076EC01F0020EF6
:10071000401802E108D8040C0401480E08BD080E78
:10072000086F088F1200040E0401086F088F040C74
:10073000030E416E0F015D6B626A7B0E5C6F5E6B38
:100740006FEC03F0160E4C6F658C03D06296FEECD6
:1007500009F062B6FBD7659C6598040E196E000E11
:1007600032EC03F0010E3A6E426A456A000EC9EFA0
:1007700004F081B818EC00F0060EF66E14D80D0ED9
:10078000F5180DE10900600EF51809E1F66A0BD8BD
:10079000F52803E10900F52802E000EF0AF018EC63
:1007A00000F000EF00F0140EF76EF86A0900140C68
:1007B0002306D8A0240623502410D8A412004E0EDD
:1007C000246E236A060E416002D08B80060C8BB02B
:1007D00003D0476A472A01D0476A8B504718FE0B5F
:1007E00047188B6E1200C0BC1200030ED36E6592C8
:1007F0006596F26A0ED808D0C0AC04D02D06D8A0F9
:100800002E0601D006D804002D502E10F5E1FF0071
:100810001200040E2E6E2D6A040C04EEACF014EEE1
:1008200000F0EE6AE550E150FCE1E250FAE100EE42
:1008300060F0820EEE6AE806FDE100EE01F0460E81
:10084000EE6AE806FDE10001B9EF03F00401086B70
:10085000406A00AF02D0006B3A6A04AF03D0046B69
:10086000010E3A6E3E6A3D6A2F6A306A6598C4ECA2
:1008700001F002EC00F027EF01F005D80AD8376A42
:100880000CD8386A12007E0E3B6E116AFC0E126E96
:10089000FC0C010E136E146A000C156816681768BC
:1008A000186812003F6A1E0E0F014D6F400E0401C2
:1008B0000D6F2C0E0E6F040E0F6F080E0C6F0C8F49
:1008C0006C0E126F040E136F400E106F400C476ECB
:1008D000F29EF3EC03F0B50E471804E0030ED36E5E
:1008E0000300FED7550EA76EAA0EA76EA682A6B26B
:1008F000FED7A69412005CCF35F0040E0F015C6F9A
:1009000062986582A198A088AAEC04F0A09835505E
:100910000F015C131200390402E1D1EC04F0656AA6
:10092000150E0F015F6F5C6B658698EC03F0010E8E
:10093000416E396A1200600ED36E9B8CDCEC04F0C1
:10094000BFEC04F0C16AC26A3DEC04F08B90949055
:10095000E7EF04F08B90D3CF31F00300A1B802D0C1
:10096000D0A6FBD731C0D3FF1200D9EC04F06592BA
:100970000F015C9501D0629462A41200FCD705D0EF
:10098000FEEC09F04706D8A0480647504810F8E1A9
:100990001200476E4704D8A4120052EC04F03DEF59
:1009A00004F06592656A48684768BFEC04F0416AE4
:1009B000120002D8BFEF04F0030E486E476A030C22
:1009C000390401E1120065A68BEC04F0120065B653
:0E09D000D1EC04F0396AE0EF04F012001200DE
:1010000000B6046134034D006900630072006F0094
:1010100063006800690070002000540065006300F0
:1010200068006E006F006C006F00670079002000A0
:1010300049006E0063002E000902290001010080B2
:10104000320904000002030000000921110100011F
:10105000221D000705810340000107050103400030
:101060000126034800490044002000550053004277
:1010700000200042006F006F0074006C006F006180
:10108000006400650072000600FF0901A10119015A
:101090002940150026FF0075089540810019012997
:1010A000409100C01201000200000008D8043C007A
:0B10B00001010102000104030904001B
:1010BC00060E4118D8B465B21200375001E017D1B2
:1010CC0004010CBF1200600E476E400E486EDDEC42
:1010DC0002F0010E376E276A286A2750A10FD96ECD
:1010EC00DA6A000EDF6E274A282A285005E1400EE6
:1010FC00275CD8B01200F1D71200020EA16F3A0E85
:10110C00A26F010EA36FA46FA56B140EA66FA76B35
:10111C00A86B000E1124A96FEC0E1220AA6FFF0E03
:10112C001320AB6FFF0E1420AC6F030EAD6FF80ED7
:10113C00AE6FAF69010EB06FB16B080EB26FB36BCF
:10114C00B46BB56BB669A50EDA6F040110BFA50CB4
:10115C00A10E476E400E486EB0EC02F0376A1200DA
:10116C00615106E17F0E3B6EF80E116E126802D0D3
:10117C0043EC04F049EC04F0F1D7286A050E276E15
:10118C000CD0FEEC09F027C048F028C049F00AEC5E
:10119C0003F09EEC09F0274A282A3B50526E536A02
:1011AC00522A000E53225250275C53502858D6E234
:1011BC00E8D715280EE116280CE117280AE11828A3
:1011CC0008E161C015F062C016F063C017F064C08E
:1011DC0018F015506119C2E116506219BFE1175091
:1011EC006319BCE118506419B9E1276A286A1AD04E
:1011FC006551A0082724D96EDA6AAC0E3824E16E4A
:10120C00E26A040EE222DFCFE7FF382A152A000E2D
:10121C001622172218223A0E381802E142EC02F07C
:10122C00274A282A00017CD899E2E2D742EC02F046
:10123C004DEC04F093D7070EA16F61C0A2F062C011
:10124C00A3F063C0A4F064C0A5F065C0A6F063C0B1
:10125C00F8FF62C0F7FF61C0F6FF276A286A0BD05F
:10126C00090000016551E1082724D96EDA6AF5CF2F
:10127C00DFFF274A282A54D8F3E3040110BF1200D9
:10128C0067D780EC00F06AD70C0EA16F010EA36F2C
:10129C00020EA26F160EF66ED3EC03F0F5CFA4F08F
:1012AC000A00F5CFA5F0060EA66F140EA76FA86B5B
:1012BC00A96B600EAB6F0D0EAA6FAC6B040EAD6F0D
:1012CC00000EAE6BAF6BB069B169B269B369B4694A
:1012DC00B569B669B769B86BB96BBA6BBB6BBC6BEC
:1012EC00BD6BBE6BBF6BC9D706EC00F037D70001E6
:1012FC006051020A01E101D7010A01E131D7070A65
:10130C0001E13BD7010A01E154D7030A8FE0010A3E
:10131C0092E00F0AE9E0010AB4E0050AB5E01ED735
:10132C006551526E536A5250275C53502858120024
:10133C00E0EC04F0415001E1120062B4B5EC04F0B1
:10134C0065B2120062B098EC03F062B87BEC04F06A
:10135C00030E416001D0030C3C6A62A6120064507B
:10136C0064CF4AF07C0E4A162AE164B203D02B6A91
:10137C00040E02D0040E2B6E2C6E62962BC0D9FF7D
:10138C002CC0DAFFDF30E8320F0B0D0A20E1336A94
:10139C0023D8DECF4AF0DDCF4BF04AC0D9FF4BC08B
:1013AC00DAFF3350010F1FD817D8DE2A000EDD22CA
:1013BC00332A070E3364ECD726EC04F008D0040E65
:1013CC00641804E1629677EC03F001D062963C2A33
:1013DC00030E3C64C2D7030C20EE02F02B50D9262E
:1013EC002C50DA221200E16EE26ADFCFE7FF120026
:0413FC0004001200D7
:0414000045EF0AF0BA
:101406000D604982FACF17F0FBCF18F0E9CF19F03B
:10141600EACF1AF0E1CF1BF0E2CF1CF0D9CF1DF0D6
:10142600DACF1EF0F3CF1FF0F4CF20F0F6CF21F085
:10143600F7CF22F0F8CF23F0F5CF24F0F292F2B4F2
:10144600F2AA02D043ECA2F024C0F5FF23C0F8FFB5
:1014560022C0F7FF21C0F6FF20C0F4FF1FC0F3FF34
:101466001EC0DAFF1DC0D9FF1CC0E2FF1BC0E1FF92
:101476001AC0EAFF19C0E9FF18C0FBFF17C0FAFF40
:081486004992110084EF96F079
:10FCC00000001180002C0100B10200350036000058
:10FCD000B202003500360000B302003500360002E3
:10FCE000003500360000B4000000C0A2000200840D
:10FCF0000000C1C50000C20D00000000C38D002A35
:10FD00000000C48D00EE0000C50A000036C80000E7
:10FD1000E012001C001000180033002C0025002801
:10FD200000280027002F003C000000030003001003
:10FD3000008000780000E112001C00100018002D67
:10FD400000280023002800280026002F003B000088
:10FD500000030003001000003A0500002A00000222
:10FD60000000008100002B000003000000A2000042
:10FD700029002C0001020001000100020200000322
:10FD8000030300020004000800100020004000806F
:10FD900000000101000A006400E8031027000103CD
:10FDA000070F1F3F7FFF0002010301041000000046
:10FDB000000000005F00000007000700147F147FB0
:10FDC00014242A7F2A1223130864623649552250CC
:10FDD0000005030000001C2241000041221C000815
:10FDE0002A1C2A0808083E080800503000000808AD
:10FDF000080808006060000020100804023E514915
:10FE0000453E00427F400042615149462141454BF9
:10FE1000311814127F1027454545393C4A4949306D
:10FE200001710905033649494936064949291E0029
:10FE30003636000000563600000008142241141423
:10FE400014141441221408000201510906324979A0
:10FE5000413E7E1111117E7F494949363E41414163
:10FE6000227F4141221C7F494949417F0909010103
:10FE70003E414151327F0808087F00417F41002008
:10FE800040413F017F081422417F404040407F02B3
:10FE900004027F7F0408107F3E4141413E7F0909F3
:10FEA00009063E4151215E7F0919294646494949C3
:10FEB0003101017F01013F4040403F1F2040201F92
:10FEC0007F2018207F6314081463030478040361FF
:10FED0005149454300007F4141020408102041413F
:10FEE0007F00000402010204404040404000010243
:10FEF000040020545454787F4844443838444444DF
:10FF000020384444487F3854545418087E0901026C
:10FF1000081454543C7F0804047800447D400020B9
:10FF200040443D00007F10284400417F40007C0495
:10FF30001804787C0804047838444444387C141449
:10FF40001408081414187C7C0804040848545454F9
:10FF500020043F4440203C4040207C1C2040201C8A
:10FF60003C4030403C44281028440C5050503C4405
:10FF700064544C44000836410000007F00000041FA
:10FF800036080008082A1C08081C2A0808FF000078
:10FF9000FFF0FFFFFF0000FF0F00FC0A55703A253D
:10FFA00075200920446F776E3A25750A4C65667492
:10FFB0003A257520092052696768743A25750A0048
:10FFC000537465707065722064656C74613A2025A5
:10FFD000640A004D6563686174726F6E69637320B3
:10FFE000320A0A004C6F6F7020696E6465783A209F
:0FFFF00025640A0069726F626F74002563000058
:020000040001F9
:100000000CD0640E0001ED6F010E04D06F0E0001E4
:10001000ED6F010E0001EE6F08D00001EB51000AF8
:10002000D8B4EFD7010AD8B4F1D7000120EE02F01E
:10003000ED51D926EE51DA22EBC0DFFFB1D07E0EB2
:100040000001E06F000E0001E16F020E0001E26F9F
:10005000030E0001E36F8EEC8BF07E0E0001E06F6B
:10006000000E0001E16F030E0001E26F030E0001BC
:10007000E36F8EEC8BF07E0E0001E06F000E00014E
:10008000E16F050E0001E26F030E0001E36F8EECDD
:100090008BF07E0E0001E06F000E0001E16F040E98
:1000A0000001E26F000E0001E36F8EEC8BF00001A7
:1000B00020EE03F0ED51D926EE51DA22C70EDE6EA6
:1000C0000F0EDD6E000120EE06F0ED51D926EE5147
:1000D000DA22C60EDE6E0F0EDD6E000120EE09F094
:1000E000ED51D926EE51DA22C90E56D0880E000104
:1000F000E06F000E0001E16F070E0001E26F030EDA
:100100000001E36F8EEC8BF0880E0001E06F000EB3
:100110000001E16F060E0001E26F030E0001E36FC4
:100120008EEC8BF0880E0001E06F000E0001E16F95
:10013000040E0001E26F030E0001E36F8EEC8BF002
:10014000880E0001E06F000E0001E16F050E000156
:10015000E26F000E0001E36F8EEC8BF0000120EEE9
:1001600003F0ED51D926EE51DA226D0EDE6E0F0E40
:10017000DD6E000120EE06F0ED51D926EE51DA22B7
:100180006C0EDE6E0F0EDD6E000120EE09F0ED51FB
:10019000D926EE51DA226F0EDE6E0F0EDD6E09D01B
:1001A0000001EB51000AD8B44AD7010AD8A41200C2
:1001B0009DD7000120EE06F0ED51D926EE51DA224E
:1001C000DECFBAF0DDCFBBF0050E0001BC6F000E34
:1001D0000001BD6FA0EC9DF09CD0000120EE06F068
:1001E000ED51D926EE51DA22DECFBAF0DDCFBBF0E9
:1001F000040E0001BC6F000E0001BD6FA0EC9DF06D
:10020000000120EE03F0ED51D926EE51DA22DECFC7
:10021000BAF0DDCFBBF0060E0001BC6F000E00018E
:10022000BD6FA0EC9DF084D0000120EE06F0ED51F2
:10023000D926EE51DA22DECFBAF0DDCFBBF0040EC4
:100240000001BC6F000E0001BD6FA0EC9DF000012D
:1002500020EE03F0ED51D926EE51DA22DECFBAF0CE
:10026000DDCFBBF0060E0001BC6F010E0001BD6FBB
:10027000A0EC9DF05DD0000120EE06F0ED51D926F6
:10028000EE51DA22DECFBAF0DDCFBBF0040E000172
:10029000BC6F010E0001BD6FA0EC9DF0000120EECF
:1002A00003F0ED51D926EE51DA22DECFBAF0DDCFE0
:1002B000BBF0060E0001BC6F000E0001BD6FA0EC8C
:1002C0009DF036D0000120EE06F0ED51D926EE511A
:1002D000DA22DECFBAF0DDCFBBF0040E0001BC6F36
:1002E000010E0001BD6FA0EC9DF0000120EE03F0B7
:1002F000ED51D926EE51DA22DECFBAF0DDCFBBF0D8
:10030000060E0001BC6F010E0001BD6FA0EC9DF058
:100310000FD00001EC51000AD8B45FD7010AD8B45D
:1003200083D7030AD8B4A7D7010AD8A41200CAD722
:10033000000120EE06F0ED51D926EE51DA22DECF93
:10034000BAF0DDCFBBF0070E0001BC6F000E00015C
:10035000BD6FA0EC9DF0000120EE06F0ED51D92616
:10036000EE51DA22DECFBAF0DDCFBBF0060E00018F
:10037000BC6F000E0001BD6FA0EC9DF0E7C0C7F0A0
:10038000E8C0C8F0E9C0C9F0EAC0CAF0D0EC90F00B
:10039000EDC0BAF0EEC0BBF09AECA2F004D09F869C
:1003A0000BD0A58E09D00001EB51000AD8B4F7D7C5
:1003B000010AD8A41200F5D7EDC0BAF0EEC0BBF028
:1003C000FCECA1F0EDC0D9FFEEC0DAFF000EDF6E4D
:1003D000000120EE06F0ED51D926EE51DA22DECFF3
:1003E000C5F0DDCFC6F0000E0001C76F030E00019F
:1003F000C86FD1ECA2F0000120EE06F0ED51D92635
:10040000EE51DA22DECFBAF0DDCFBBF0050E0001EF
:10041000BC6F010E0001BD6FA0EC9DF01200080E34
:100420000001C9250001C66F000E0001CA210001AC
:10043000C76F000E0001C86FD3ECA0F00001E06FA1
:100440000001E0510001CC6FCD6B0E0ED890000181
:10045000CC37CD37E82EFAD70001E0510001CE6F3E
:10046000CF6B0C0ED8900001CE37CF37E82EFAD7DD
:100470000001E0510001D06FD16B0A0ED89000014D
:10048000D037D137E82EFAD70001E0510001D36F01
:10049000D26B0001E0510001D46FD56B060ED890ED
:1004A0000001D437D537E82EFAD70001E05100011A
:1004B000D66FD76B0001D63BD73BF00ED717D6517E
:1004C0000F0BD713F00ED6170001E0510001D86FC3
:1004D000D96B0001D890D837D9370001D890D837D8
:1004E000D9370001E0510001DA6FDB6B0001D85110
:1004F0000001DA130001D9510001DB130001D651CC
:100500000001DA130001D7510001DB130001D451BF
:100510000001DA130001D5510001DB130001D251B3
:100520000001DA130001D3510001DB130001D051A7
:100530000001DA130001D1510001DB130001CE519B
:100540000001DA130001CF510001DB130001CC518F
:100550000001DA110001DC6F0001CD510001DB1157
:100560000001DD6FE0C0DEF00001DF6B080E00016E
:10057000C9250001C66F000E0001CA210001C76F26
:10058000010E0001C86FD3ECA0F00001CC6FCD6B61
:100590000001D890CC37CD370001D890CC37CD377B
:1005A0000001CC510001DE130001CD510001DF1329
:1005B000080E0001C9250001C66F000E0001CA2106
:1005C0000001C76F020E0001C86FD3ECA0F000015C
:1005D000CC6FCD6B0001CC3BCD3BF00ECD17CC5199
:1005E0000F0BCD13F00ECC170001CC510001DE1320
:1005F0000001CD510001DF13080E0001C9250001E3
:10060000C66F000E0001CA210001C76F030E000172
:10061000C86FD3ECA0F00001CC6FCD6B060ED89064
:100620000001CC37CD37E82EFAD70001CC510001BC
:10063000DE130001CD510001DF13080E0001C925B2
:100640000001C66F000E0001CA210001C76F040E31
:100650000001C86FD3ECA0F00001CC6F0001CC51B9
:100660000001CE6FCD6B0001CD510001DE13000102
:10067000CE510001DF13080E0001C9250001C66F2D
:10068000000E0001CA210001C76F050E0001C86FEE
:10069000D3ECA0F00001CC6FCD6B0A0ED890000116
:1006A000CC37CD37E82EFAD70001CC510001DE134C
:1006B0000001CD510001DF13080E0001C925000122
:1006C000C66F000E0001CA210001C76F060E0001AF
:1006D000C86FD3ECA0F00001CC6FCD6B0C0ED8909E
:1006E0000001CC37CD37E82EFAD70001CC510001FC
:1006F000DE130001CD510001DF13080E0001C925F2
:100700000001C66F000E0001CA210001C76F070E6D
:100710000001C86FD3ECA0F00001CC6FCD6B0E0EC2
:10072000D8900001CC37CD37E82EFAD70001CC5154
:100730000001DE130001CD510001DF130001DE5185
:100740000001DC1948E10001DF510001DD19D8A4E6
:10075000120032D0000120EE02F0C951D926CA5150
:10076000DA22DECFBAF0DDCFBBF0CBC0BCF002ECBA
:10077000A4F012000001CB1F000120EE02F0C951CD
:10078000D926CA51DA22DECFBAF0DDCFBBF0CBC01A
:10079000BCF002ECA4F01200000120EE04F0C951FC
:1007A000D926CA51DA22DECFBAF0DDCFBBF0CBC0FA
:1007B000BCF002ECA4F012000001E051000AD8B431
:1007C0001200010AD8B4C6D7030AD8B4D3D7010A95
:1007D000D8A41200E1D712000001BA6F7ED03F0EFC
:1007E0001200060E12005B0E12004F0E1200660E73
:1007F00012006D0E12007D0E1200070E12007F0E09
:1008000012006F0E12005F0E12007C0E1200580EC6
:1008100012005E0E12007B0E1200710E12006F0E9F
:100820001200740E1200040E12000E0E12007A0E48
:100830001200060E1200140E1200540E12005C0E6E
:100840001200730E1200670E1200500E12006D0E91
:100850001200780E12001C0E1200620E12002A0EF8
:100860001200640E12006E0E12005B0E1200770E64
:1008700012007F0E1200390E12003F0E1200790E88
:100880001200710E12003D0E1200760E1200060EBE
:1008900012001E0E1200570E1200380E1200760EB5
:1008A0001200760E12003F0E1200730E12003F0E61
:1008B0001200770E12006D0E1200310E12003E0E65
:1008C00012003E0E12007E0E1200760E1200660E10
:1008D00012005B0E1200800E12000001BA512E0AA7
:1008E000D8B4F9D71E0AD8B47AD7010AD8B479D7C0
:1008F000030AD8B478D7010AD8B477D7070AD8B48E
:1009000076D7010AD8B475D7030AD8B474D7010AC8
:10091000D8B473D70F0AD8B472D7010AD8B471D734
:10092000780AD8B4A4D7030AD8B4A3D7010AD8B494
:10093000A2D7070AD8B4A1D7010AD8B4A0D7030A0E
:10094000D8B49FD7010AD8B49ED70F0AD8B49DD780
:10095000010AD8B49CD7030AD8B49BD7010AD8B4EB
:100960009AD7070AD8B499D7010AD8B498D7030AF6
:10097000D8B497D7010AD8B496D71F0AD8B495D758
:10098000010AD8B494D7030AD8B493D7010AD8B4CB
:1009900092D7070AD8B491D7010AD8B490D7030ADE
:1009A000D8B48FD7010AD8B48ED70F0AD8B48DD750
:1009B000010AD8B48CD7030AD8B48BD73B0AD8B471
:1009C00022D7030AD8B421D7010AD8B420D7070AFE
:1009D000D8B41FD7010AD8B41ED7030AD8B41DD77C
:1009E000010AD8B41CD70F0AD8B41BD7010AD8B44F
:1009F0001AD7030AD8B419D7010AD8B418D7070AE6
:100A0000D8B417D7010AD8B416D7030AD8B415D763
:100A1000010AD8B414D71F0AD8B413D7010AD8B41E
:100A200012D7030AD8B411D7010AD8B410D7070ACD
:100A3000D8B40FD7010AD8B40ED7030AD8B40DD74B
:100A4000010AD8B40CD70F0AD8B40BD7010AD8B40E
:100A50000AD7030AD8B409D7000E1200FDEC8DF0B6
:100A6000010E95ECA0F00009D8B40AD0BAEC8EF0D3
:100A700040EC9AF0BBECA3F00009D8A4B4ECA1F0D0
:100A8000010E95ECA0F00009D8B413D0B0EC89F0B9
:100A9000000E2EECA4F0F40E0001BB6FFF0E00015F
:100AA000BC6F8AEC92F0BBECA3F00009D8A4B4ECC4
:100AB000A1F0080E95ECA0F00009D8B42DD0CD0E11
:100AC0000001E76F010E0001E86F000E0001EA6F00
:100AD000080EE96F6CEC93F0CD0E0001D56F010E9E
:100AE0000001D66F000E0001D86F320ED76F70EC88
:100AF000A2F0CD0E0001BD6F010E0001BE6F000E11
:100B00000001C06F640EBF6F2EECA1F0BBECA3F030
:100B10000009D8A4B4ECA1F0F28CF28EF288F29223
:100B2000000E0101CC6F0101CC2B010E95ECA0F061
:100B30000009D8B49AD0F80E0001BB6F000EBA6F4E
:100B400033ECA4F0FB0E0001CF6FFF0E0001D06F5D
:100B5000000E0001D26F230ED16FADEC8AF0D30EE0
:100B60000001CF6FFF0E0001D06FADEC8AF0E40EF4
:100B70000001CF6FFF0E0001D06FCCC1D1F000019A
:100B8000D26BADEC8AF0C00E0001CF6FFF0E0001FA
:100B9000D06FCDC1D1F0CEC1D2F0ADEC8AF027EC50
:100BA0009CF09B0E0001CF6FFF0E0001D06F21EE75
:100BB0004DF001D80AD00500FA6EDE50FD6EDE5011
:100BC000FE6EDE50FF6EFA5012000101C86F010187
:100BD000C8510001D16FD26B21EE57F001D80AD075
:100BE0000500FA6EDE50FD6EDE50FE6EDE50FF6ECA
:100BF000FA5012000101C96F0101C9510001D36F00
:100C0000D46B21EE43F001D80AD00500FA6EDE5015
:100C1000FD6EDE50FE6EDE50FF6EFA5012000101D6
:100C2000CA6F0101CA510001D56FD66B21EE39F0B0
:100C300001D80AD00500FA6EDE50FD6EDE50FE6E61
:100C4000DE50FF6EFA5012000101CB6F0101CB5153
:100C50000001D76FD86BADEC8AF0AAEC88F0BBEC42
:100C6000A3F00009D8A4B4ECA1F0010E95ECA0F01B
:100C70000009D8B40ED0CDC1D0F0CEC1D1F085ECF2
:100C8000A2F0B4ECA0F0BBECA3F00009D8A4B4EC43
:100C9000A1F0080E95ECA0F00009D8B444D70101EA
:100CA000CD510101CE11D8A40DD0CD0E0001BD6FE4
:100CB000010E0001BE6F000E0001C06F640EBF6F19
:100CC0002EECA1F0BBECA3F00009D8B42CD7B4EC07
:100CD000A1F029D7050E0001F46FC7D0000120EE66
:100CE00002F0F051D926F151DA22DECFC5F0DDCF86
:100CF000C6F0F2C0C7F00F0E0001C86FD1ECA2F031
:100D0000000120EE04F0F051D926F151DA22DECFB5
:100D1000C5F0DDCFC6F0F2C0C7F0000E0001C86F0D
:100D2000D1ECA2F0B0D0F0C0E9F0F1C0EAF0F2C02E
:100D3000EBF0030E0001EC6F34EC9EF00001F46F59
:100D40000001F451D8A41200000120EE02F0F0518D
:100D5000D926F151DA22DECFC5F0DDCFC6F0F2C0E0
:100D6000C7F0000E0001C86FD1ECA2F0000120EE28
:100D700004F0F051D926F151DA22DECFC5F0DDCFF3
:100D8000C6F0F2C0C7F0000E0001C86FD1ECA2F0AF
:100D90007AD0F0C0E9F0F1C0EAF0F2C0EBF0030E57
:100DA0000001EC6F34EC9EF00001F46F0001F4518F
:100DB000D8A41200000120EE02F0F051D926F15122
:100DC000DA22DECFC5F0DDCFC6F0F2C0C7F00F0EDD
:100DD0000001C86FD1ECA2F0000120EE04F0F05148
:100DE000D926F151DA22DECFC5F0DDCFC6F0F2C050
:100DF000C7F00F0E0001C86FD1ECA2F044D0F0C0D4
:100E0000E9F0F1C0EAF0F2C0EBF0030E0001EC6F84
:100E100034EC9EF00001F46F0001F451D8A41200EC
:100E2000000120EE02F0F051D926F151DA22DECF96
:100E3000C5F0DDCFC6F0F2C0C7F0000E0001C86FEC
:100E4000D1ECA2F0000120EE04F0F051D926F151CE
:100E5000DA22DECFC5F0DDCFC6F0F2C0C7F0000E5B
:100E60000001C86FD1ECA2F00ED00001F351000ACE
:100E7000D8B434D7010AD8B456D7030AD8B489D71E
:100E8000010AD8B4BCD7080E0001F0250001C96FD3
:100E9000000E0001F1210001CA6F0001F251040DA2
:100EA000F3CFCBF0F3C0CCF00FECA0F0080E0001B4
:100EB000F0250001C96F000E0001F1210001CA6F89
:100EC0000001F251040DF3280001CB6FF3C0CCF008
:100ED0000FECA0F0080E0001F0250001C96F000E14
:100EE0000001F1210001CA6F0001F251040DF3501D
:100EF000020F0001CB6FF3C0CCF00FECA0F0080E96
:100F00000001F0250001C96F000E0001F121000170
:100F1000CA6F0001F251040DF350030F0001CB6FB3
:100F2000F3C0CCF00FECA0F01200050E0101BB6F76
:100F30007AD0000120EE02F0F451D926F551DA22E0
:100F4000DECFF7F0DDCFF8F0F7C0D9FFF8C0DAFF59
:100F5000FF0E67D0F4C0F0F0F5C0F1F0010E000113
:100F6000F26FA4EC9FF00101BB6F0101BB51D8A44B
:100F70001200000120EE02F0F451D926F551DA22D8
:100F8000DECFF7F0DDCFF8F0F7C0D9FFF8C0DAFF19
:100F9000000EDF6E000120EE04F036D0F4C0F0F059
:100FA000F5C0F1F0020E0001F26FA4EC9FF0010118
:100FB000BB6F0101BB51D8A41200000120EE02F06A
:100FC000F451D926F551DA22DECFF7F0DDCFF8F073
:100FD000F7C0D9FFF8C0DAFFFF0EDF6E000120EE88
:100FE00004F0AAD7F4C0F0F0F5C0F1F0000E000153
:100FF000F26FA4EC9FF00101BB6F0101BB51D8A4BB
:101000001200000120EE02F0F451D926F551DA2247
:10101000DECFF7F0DDCFF8F0F7C0D9FFF8C0DAFF88
:10102000000EDF6E0ED00001F651000AD8B481D751
:10103000010AD8B48FD7030AD8B4B0D7010AD8B4FC
:10104000D1D7080E0001F4250001C96F000E000180
:10105000F5210001CA6F000E0001CB6FF6C0CCF085
:101060000FECA0F0080E0001F4250001C96F000E7E
:101070000001F5210001CA6F010E0001CB6FF6C01F
:10108000CCF00FECA0F0080E0001F4250001C96FB0
:10109000000E0001F5210001CA6F020E0001CB6FA6
:1010A000F6C0CCF00FECA0F0080E0001F425000112
:1010B000C96F000E0001F5210001CA6F030E000187
:1010C000CB6FF6C0CCF00FECA0F0080E0001F425B9
:1010D0000001C96F000E0001F5210001CA6F040E66
:1010E0000001CB6FF6C0CCF00FECA0F0080E0001B1
:1010F000F4250001C96F000E0001F5210001CA6F3F
:10110000050E0001CB6FF6C0CCF00FECA0F0080E7E
:101110000001F4250001C96F000E0001F521000156
:10112000CA6F060E0001CB6FF6C0CCF00FECA0F03A
:10113000080E0001F4250001C96F000E0001F52121
:101140000001CA6F070E0001CB6FF6C0CCF00FECA8
:10115000A0F012000001FF51D8B41200D3C1E0F09A
:10116000D4C1E1F0D5C1E2F0D6C1E3F000017A517B
:10117000D8B404D036C0DFF00F0E366E000E00017A
:10118000E56FDFD00001E551020D000EF324D96EAA
:10119000010EF420DA6EDECFFDF0DDCFFEF0000EA2
:1011A0000001E46F130E0001E46501D0BED0000120
:1011B000E551140D460E0001DD6F020E0001DE6FD9
:1011C000F3500001DD27F4500001DE230001E4515B
:1011D000010DF3500001DD25D96EF4500001DE2130
:1011E000DA6EDFAE9AD00001E551140D460E000113
:1011F000DD6F020E0001DE6FF3500001DD27F450B9
:101200000001DE230001E451010DF3500001DD2552
:10121000D96EF4500001DE21DA6E7F0EDF16000178
:10122000E551140D460E0001DD6F020E0001DE6F68
:10123000F3500001DD27F4500001DE230001E451EA
:10124000010DF3500001DD25D96EF4500001DE21BF
:10125000DA6EDF50D8B44AD070C0C3F071C0C4F0A9
:10126000E0C0C5F0E1C0C6F0E2C0C7F0E3C0C8F01E
:10127000F9C0C9F0FAC0CAF0FBC0CBF0FCC0CCF09A
:10128000EDEC9BF00001E551140D460E0001DD6F01
:10129000020E0001DE6FF3500001DD27F450000163
:1012A000DE230001E451010DF3500001DD25D96E6C
:1012B000F4500001DE21DA6EDF5041EC94F0BFC043
:1012C000CCF0C0C0CDF0E0C0CEF0E1C0CFF0E2C0C5
:1012D000D0F0E3C0D1F0F9C0D2F0FAC0D3F0FBC037
:1012E000D4F0FCC0D5F07EEC98F017D0000E0001D1
:1012F000C46F000EC36FE0C0C5F0E1C0C6F0E2C02D
:10130000C7F0E3C0C8F0F9C0C9F0FAC0CAF0FBC02A
:10131000CBF0FCC0CCF0EDEC9BF0060E0001E0271A
:10132000000EE1230001E42B3DD7080E0001E22767
:10133000000EE323000E0001E16F060EE06F0001D6
:10134000E52B0001E551365CD8B01CD700017A517D
:10135000D8B41200000E00017A6FDFC036F0120020
:101360005A0E0101BB6F010E0101BC6F000E01019D
:10137000BE6F020EBD6FA00E0101BF6F480E0101CE
:10138000C06F010E0101C16FE60E0101C26F460E72
:101390000101C36F010E0101C46FB40E0101C56FDD
:1013A000440E0101C66F010E0101C76FD7EC93F027
:1013B0003C0E0101BB6F010E0101BC6F000E01016B
:1013C000BE6F020EBD6FA00E0101BF6F480E01017E
:1013D000C06F010E0101C16F460E0101C26F470EC1
:1013E0000101C36F010E0101C46F1A0E0101C56F27
:1013F0003D0E0101C66F010E0101C76FD7EC93F0DE
:10140000320E0101BB6F010E0101BC6F000E010124
:10141000BE6F020EBD6FA00E0101BF6F480E01012D
:10142000C06F010E0101C16F2E0E0101C26F470E88
:101430000101C36F010E0101C46F640E0101C56F8C
:10144000400E0101C66F010E0101C76FD7EC93F08A
:10145000460E0101BB6F010E0101BC6F000E0101C0
:10146000BE6F020EBD6FA00E0101BF6F480E0101DD
:10147000C06F010E0101C16F160E0101C26F470E50
:101480000101C36F010E0101C46F980E0101C56F08
:10149000430E0101C66F010E0101C76FD7EC93F037
:1014A000500E0101BB6F010E0101BC6F000E010166
:1014B000BE6F020EBD6FA00E0101BF6F480E01018D
:1014C000C06F010E0101C16FFE0E0101C26F460E19
:1014D0000101C36F010E0101C46F360E0101C56F1A
:1014E000430E0101C66F010E0101C76FD7EC93F0E7
:1014F000A00E0001E76F860EE86F010EE96F000E87
:10150000EA6F000E0001EB6F020E0001EC6F00ECC1
:1015100080F0640E0001C96F010E0001CA6FB3ECC8
:101520009BF0000E0001F66F000EF56F0001F65102
:1015300013E1080E0001F55DD8B012002A0E00017B
:10154000F525D96E010E0001F621DA6E000EDF6E70
:101550000001F54BF62BEAD71200D10E0001DC6F2B
:10156000000E0001DD6FC9D0250E0001E019D8B4CE
:1015700005D00001E051FBECA3F0BFD0000E00014C
:10158000DB6F14D0DCC0D9FFDDC0DAFFDF50000113
:10159000E06F020E0001DC27000EDD230001E051A8
:1015A000FBECA3F0AAD00001DB8D1ED0CFC0F6FF6C
:1015B000D0C0F7FF0001CF4BD02B000EF86E080013
:1015C000F5CFE0F00001E051000AD8B41200630A40
:1015D000D8B4D8D7070AD8B407D00D0AD8B404D0E5
:1015E0001C0AD8B4E0D7DAD70001DBBD19D0DCC0C3
:1015F000D9FFDDC0DAFFDECFDEF0DDCFDFF0020E97
:101600000001DC27000EDD230001DFAF16D0030E42
:101610000001DB130001DE6DDF1FD8B0DF2B0DD022
:10162000DCC0D9FFDDC0DAFFDECFDEF0DDCFDFF0DA
:10163000020E0001DC27000EDD23010E0001E06F29
:10164000050E0001E019D8B419D00001E051020DD7
:10165000930EF324F66EFD0EF420F76EF86A000E7A
:10166000F8220900F5500001DE5D0900F550000187
:10167000DF59D8A003D00001E02BE2D7DBC0D9F0BE
:10168000030E0001D917D8B403D02D0EFBECA3F044
:10169000E0C0DAF02CD00001DA51020D930EF324F1
:1016A000F66EFD0EF420F76EF86A000EF8220900BF
:1016B000F5CFBCF00A00F5CFBDF0DEC0BAF0DFC058
:1016C000BBF002EC9BF0BAC0C1F0BBC0C2F0000E90
:1016D0000001C46F0A0EC36F03EC9EF00001C151FC
:1016E000300F0001E06F0001E051FBECA3F00001BE
:1016F000DA070001DA29D8A4CED7CFC0F6FFD0C0D0
:10170000F7FF0001CF4BD02B000EF86E0800F5CF8D
:10171000E0F00001E051D8B4120026D7E0C0D9FFB4
:10172000E1C0DAFFDECFE5F0DDCFE6F0050E000127
:10173000E46FB5D0000120EE02F0E051D926E1516E
:10174000DA22DECFBAF0DDCFBBF0E2C0BCF0010E92
:101750000001BD6FA0EC9DF0B0D0E5C0C9F0E6C0BF
:10176000CAF0010E0001CB6FE2C0CCF0C4EC9AF0DD
:101770000001E46F0001E451D8A41200000120EE42
:1017800002F0E051D926E151DA22DECFBAF0DDCF06
:10179000BBF0E2C0BCF0000E0001BD6FA0EC9DF0FC
:1017A000000120EE04F0E051D926E151DA22DECF2B
:1017B000BAF0DDCFBBF0E2C0BCF0000E0001BD6F9F
:1017C000A0EC9DF07AD0E5C0C9F0E6C0CAF0020EE8
:1017D0000001CB6FE2C0CCF0C4EC9AF00001E46FE2
:1017E0000001E451D8A41200000120EE02F0E05103
:1017F000D926E151DA22DECFBAF0DDCFBBF0E2C06C
:10180000BCF0010E0001BD6FA0EC9DF0000120EEC8
:1018100004F0E051D926E151DA22DECFBAF0DDCF73
:10182000BBF0E2C0BCF0010E0001BD6FA0EC9DF06A
:1018300044D0E5C0C9F0E6C0CAF0000E0001CB6F8D
:10184000E2C0CCF0C4EC9AF00001E46F0001E45176
:10185000D8A41200000120EE02F0E051D926E15197
:10186000DA22DECFBAF0DDCFBBF0E2C0BCF0000E72
:101870000001BD6FA0EC9DF0000120EE04F0E051EE
:10188000D926E151DA22DECFBAF0DDCFBBF0E2C0DB
:10189000BCF0000E0001BD6FA0EC9DF00ED0000169
:1018A000E351000AD8B446D7010AD8B456D7030A80
:1018B000D8B489D7010AD8B4BCD7080E0001E025F6
:1018C0000001C96F000E0001E1210001CA6FE2C0F2
:1018D000CBF0E3C0CCF00FECA0F012000101BE5140
:1018E000D8EC97F0BCC1D9FFBDC1DAFF0001BAC086
:1018F000DEFF0001BBC0DDFF0101BE512BEC98F003
:10190000010120EE06F0BC51D926BD51DA220001BA
:10191000BAC0DEFF0001BBC0DDFF0101BE512BECF0
:1019200098F0010120EE04F0BC51D926BD51DA2215
:101930000001BAC0DEFF0001BBC0DDFF0101BE51E6
:1019400085EC97F0010120EE02F0BC51D926BD5183
:10195000DA220001BAC0DEFF0001BBC0DDFF0101D9
:1019600020EE04F0BC51D926BD51DA22DECFBFF102
:10197000DDCFC0F1BFC1D9FFC0C1DAFF000EDF6EFD
:10198000010120EE02F0BC51D926BD51DA22DECF92
:10199000BFF1DDCFC0F1BFC1D9FFC0C1DAFFFF0E7B
:1019A000DF6EBCC1F4F0BDC1F5F0000E0001F66FB2
:1019B00095EC87F0000E0101C16F070E0101C165B2
:1019C00031D04BD0BCC1E0F0BDC1E1F0C1C1E2F00B
:1019D000030E0001E36F8EEC8BF03CD0BCC1E0F055
:1019E000BDC1E1F0C1C1E2F0020E0001E36F8EEC77
:1019F0008BF030D0BCC1E0F0BDC1E1F0C1C1E2F07C
:101A0000010E0001E36F8EEC8BF024D0BCC1E0F03E
:101A1000BDC1E1F0C1C1E2F0000E0001E36F8EEC48
:101A20008BF018D0BCC1D9FFBDC1DAFFDECFC6F044
:101A3000DDCFC7F0C1C1C8F0D3ECA0F0000AD8B424
:101A4000C1D7010AD8B4D6D7030AD8B4C7D7010A78
:101A5000D8B4DCD70101C12BB0D7BCC1C9F0BDC11E
:101A6000CAF0000E0001CB6F0FEC82F012000001F3
:101A7000CD6FA8D06AEC99F0120032EC9FF0120002
:101A8000FBEC99F012000BEC95F012006EEC9DF05F
:101A900012004DECA3F01200CDC0CAF07F0E000181
:101AA000CA173650140D460E0001CB6F020E00010E
:101AB000CC6FF3500001CB27F4500001CC233550FC
:101AC000010DF3500001CB25D96EF4500001CC215B
:101AD000DA6EDF507F0B0001CA19D8B42BD0010E8B
:101AE0000001FF6F3650140D460E0001CA6F020E42
:101AF0000001CB6FF3500001CA27F4500001CB2343
:101B00003550010DF3500001CA25D96EF450000183
:101B1000CB21DA6E0001CD518009DF6E3650020D07
:101B2000000EF324D96E010EF420DA6EFDC0DEFF44
:101B3000FEC0DDFF6EEC9DF00009D8B41200CDC0F0
:101B4000CAF07F0E0001CA173650140D460E000170
:101B5000CB6F020E0001CC6FF3500001CB27F45085
:101B60000001CC233550010DF3500001CB25D96E77
:101B7000F4500001CC21DA6EDF507F0B0001CA194E
:101B8000D8B41200010E0001FF6F3650140D460E3E
:101B90000001CA6F020E0001CB6FF3500001CA278B
:101BA000F4500001CB233550010DF3500001CA253C
:101BB000D96EF4500001CB21DA6E0001CD518009BD
:101BC000DF6E12000001CD51070AD8B45FD70F0AAB
:101BD000D8B453D7010AD8B456D7030AD8B44AD7D1
:101BE000060AD8B44DD7010AD8B444D72D0AD8B4C0
:101BF00053D7030AD8B44DD74FD7010E446E000E09
:101C0000256E000E266E000E276E840E0101BC6F3D
:101C1000010E0101BD6F000E0101BE6F6EEC8CF074
:101C20008E0E0101BC6F010E0101BD6F010E01019D
:101C3000BE6F6EEC8CF07E0E0101BC6F000E0101D8
:101C4000BD6F020E0101BE6F6EEC8CF0880E0101BB
:101C5000BC6F000E0101BD6F030E0101BE6F6EEC83
:101C60008CF0920E0101BC6F000E0101BD6F040EDD
:101C70000101BE6F6EEC8CF0980E0101BC6F010E7D
:101C80000101BD6F050E0101BE6F6EEC8CF0A20E5E
:101C90000101BC6F010E0101BD6F060E0101BE6F97
:101CA0006EEC8CF0980E0001E06F010E0001E16F08
:101CB000050E0001E26F000E0001E36F8EEC8BF069
:101CC0008E0E0001F06F010E0001F16F000E000199
:101CD000F26F000E0001F36F6AEC86F0980E0001BF
:101CE000E06F010E0001E16F060E0001E26F030ECE
:101CF0000001E36F8EEC8BF0A20E0001F46F010E79
:101D00000001F56F030E0001F66F95EC87F0A20E4F
:101D10000001C96F010E0001CA6F040E0001CB6FF4
:101D2000000E0001CC6FA9EC94F0980E0001C96F71
:101D3000010E0001CA6F060E0001CB6F010E0001FB
:101D4000CC6FA9EC94F0000ED2EC9DF0010ED2EC19
:101D50009DF0000E9E6E000EA16E000EA46E9B8E76
:101D60009B8C000E0001BB6F640EBA6F04EC9DF0FB
:101D7000D08E120060EC9CF0000E0001F26F000E9D
:101D8000F16F0001F25106E1590E0001F15DD8B08A
:101D90008BD001D089D0D8900001F135F66E0001CA
:101DA000F235F76EC10EF626FC0EF722F86A000E29
:101DB000F8220900800EF5180900F510D8A422D0E9
:101DC0000001F2511FE1580E0001F15DD8B01AD0A8
:101DD0000001F14BF22BD8900001F135F66E0001B5
:101DE000F235F76EC10EF626FC0EF722F86A000EE9
:101DF000F8220900F5CFBAF00A00F5CFBBF004ECE9
:101E00009DF04BD0D8900001F135F66E0001F2350F
:101E1000F76EC10EF626FC0EF722F86A000EF822C5
:101E20000900000EF55E0900010EF55AD8A020D079
:101E3000000E0001BD6FD8900001F135F66E000173
:101E4000F235F76EC10EF626FC0EF722F86A000E88
:101E5000F8220900F5CFEFF00900F5CFF0F0F0C05F
:101E6000EFF00001F06B0001EF51E2ECA2F015D0B1
:101E7000010E0001BD6FD8900001F135F66E000132
:101E8000F235F76EC10EF626FC0EF722F86A000E48
:101E9000F8220800F550E2ECA2F00001F14BF22B21
:101EA0000001F25101E170D7000E0001BB6F640E1A
:101EB000BA6F04EC9DF0000E0001BD6F290EE2EC3C
:101EC000A2F0010E1EEC99F0000E0001BB6F640E33
:101ED000BA6F04EC9DF0000E0001C46F000EC36FDA
:101EE00061EC9EF01200000120EE07F0D551D926DA
:101EF000D651DA2201D80AD00500FA6EDE50FD6E06
:101F0000DE50FE6EDE50FF6EFA5012000001DD6FF3
:101F1000D5C0D9FFD6C0DAFF0001DD51DE18D8A444
:101F200021D0000120EE01F0D551D926D651DA2278
:101F30000001D751DE5CD8B00AD0000120EE01F0DC
:101F4000D551D926D651DA22000EDF6E12000001DB
:101F500020EE01F0D551D926D651DA220001D75111
:101F6000DF5E1200000120EE01F0D551D926D651D6
:101F7000DA22DF500001D86FD96B0001D751000180
:101F8000D827000ED923000120EE01F0D551D92623
:101F9000D651DA22DF500001DA6FDB6B0001D85135
:101FA0000001DA5D0001DB51800A0001DC6F0001F5
:101FB000D951800A0001DC59D8B01200000120EE8E
:101FC00001F0D551D926D651DA220001D751DF26AA
:101FD000000120EE02F0D551D926D651DA220001B7
:101FE00010EE01F0D551E126D651E222E750000172
:101FF000DA6FDB6BDE500001DA5DDE500001DB5989
:10200000D8A01200D5C0D9FFD6C0DAFFDDC0DFFFEF
:10201000000120EE01F0D551D926D651DA22000E6A
:10202000DF6E000120EE04F0D551D926D651DA2218
:1020300001D812000500FA6EDE50FD6EDE50FE6E15
:10204000DE50FF6EFA500001DD511200800E0001DB
:10205000CD6F8D0ECE6F5B0ECF6F000ED06FD59E05
:102060000001C7510001C8110001C9110001CA11C6
:10207000D8B41200D596D59CD59AD598CDC0BAF0D3
:10208000CEC0BBF0CFC0BCF0D0C0BDF0C7C0BEF06A
:10209000C8C0BFF0C9C0C0F0CAC0C1F0CBEC95F059
:1020A000BAC0D1F0BBC0D2F0BCC0D3F0BDC0D4F038
:1020B00009D0342A020E346401D02DD0070E3464C6
:1020C00001D01200D1C0BAF0D2C0BBF0D3C0BCF076
:1020D000D4C0BDF03450020D830EF324F66EFD0E15
:1020E000F420F76EF86A000EF8220900F5CFCBF065
:1020F0000900F5CFCCF0CBC0BEF0CCC0BFF00001E2
:10210000C06BC16BCBEC95F00001BD51D2E1000179
:10211000BC05D8B0CED73450020D830EF324F66E32
:10212000FD0EF420F76EF86A000EF8220800F5CFD5
:1021300031F0FF0E0001D1250001606FFF0E00019C
:10214000D2210001616FFF0E0001D3210001626FF7
:10215000FF0E0001D4210001636F60C0BAF061C0BE
:10216000BBF062C0BCF063C0BDF031500001BE6F77
:10217000BF6BC06BC16BCBEC95F00001BA1F0001C7
:10218000BB1F0001BA4BBB2BFF0E0001BA252A6E04
:10219000FF0E0001BB212B6E17ECA4F0D58E1200B0
:1021A000000E0001D06F6C0ED16FDC0ED26F020EEC
:1021B000D36F0001D890C737C837C937CA37020E66
:1021C0000001CB6FD8900001D333D233D133D03359
:1021D0000001CB2FF7D7D0C0BAF0D1C0BBF0D2C02E
:1021E000BCF0D3C0BDF0C7C0BEF0C8C0BFF0C9C00E
:1021F000C0F0CAC0C1F0CBEC95F0BAC0D4F0BBC0FF
:10220000D5F0BCC0D6F0BDC0D7F00ED0000E000196
:10221000CC6F000ECD6F000ECE6F000ECF6F322A46
:10222000020E326401D025D0D4C0BAF0D5C0BBF0C4
:10223000D6C0BCF0D7C0BDF03250010DAA0EF324B9
:10224000F66EFD0EF420F76EF86A000EF822080014
:10225000F5500001BE6FBF6BC06BC16BCBEC95F04E
:102260000001BD510001BC11D1E10001BB05D8B096
:10227000CDD7CA503218FC0B3218CA6ECA843CEC57
:10228000A4F03250010DAA0EF324F66EFD0EF420D8
:10229000F76EF86A000EF8220800F5CF33F0FF0E53
:1022A0000001D4250001646FFF0E0001D52100015B
:1022B000656FFF0E0001D6210001666FFF0E000161
:1022C000D7210001676F64C0BAF065C0BBF066C07B
:1022D000BCF067C0BDF033500001BE6FBF6BC06B78
:1022E000C16BCBEC95F00001BA51326E32C0CBFF1E
:1022F000120049B20BEF92F020EE04F02C50D926D8
:102300002D50DA22DF5054ECA0F00009D8B47AD076
:102310002CC0D9FF2DC0DAFFDE50DE10D8B46DD04E
:102320002CC0D9FF2DC0DAFF010EDBBE26D0010E76
:10233000DB5003E1DE04D8A020D02CC0D9FF2DC093
:10234000DAFFDE2804E17F0EDE18D8B407D02CC0F7
:10235000D9FF2DC0DAFFDE06000EDD5A920E000115
:10236000C96F000E0001CA6F000E0001CB6F010E95
:102370000001CC6FA9EC94F01FD02CC0D9FF2DC068
:10238000DAFFDE0404E1800EDE18D8B407D02CC0DA
:10239000D9FF2DC0DAFFDE2A000EDD22920E0001E9
:1023A000C96F000E0001CA6F000E0001CB6F000E56
:1023B0000001CC6FA9EC94F0920E0001C96F000EE1
:1023C0000001CA6F010E0001CB6F010E0001CC6F3E
:1023D000A9EC94F0920E0001C96F000E0001CA6FC3
:1023E000010E0001CB6F000E0001CC6FA9EC94F040
:1023F000BBECA3F01DECA4F01200BBECA3F044EC8A
:10240000A4F012006BC0BAF06CC0BBF06DC0BCF0A1
:1024100009ECA4F0120020EE04F02C50D9262D5027
:10242000DA22DF5066ECA1F00009D8B46AD02CC0E3
:10243000D9FF2DC0DAFFDE50DE10D8B45DD02CC03D
:10244000D9FF2DC0DAFF010EDBBE22D0010EDB501A
:1024500003E1DE04D8A01CD02CC0D9FF2DC0DAFFC8
:10246000DE2804E17F0EDE18D8B407D02CC0D9FFD7
:102470002DC0DAFFDE06000EDD5A920E106E000E41
:10248000116E000E126E010E136E30EC97F01BD021
:102490002CC0D9FF2DC0DAFFDE0404E1800EDE1867
:1024A000D8B407D02CC0D9FF2DC0DAFFDE2A000E29
:1024B000DD22920E106E000E116E000E126E000ED6
:1024C000136E30EC97F0920E106E000E116E010E2E
:1024D000126E010E136E30EC97F0920E106E000E1D
:1024E000116E010E126E000E136E30EC97F04DEC73
:1024F000A4F023ECA4F012004DECA4F04AECA4F0FC
:1025000012006BC001F06CC002F06DC003F010EC63
:10251000A4F01200000E0001BF6F000EBE6F44D089
:102520002A0E0001BE25D96E010E0001BF21DA6E10
:10253000BBC0F6FFBCC0F7FF000EF86E0F0EF764CD
:1025400003D00800F55005D0F6CFE9FFF7CFEAFF3A
:10255000EF50ECEC83F0DF6E2A0E0001BE25D96E41
:10256000010E0001BF21DA6E800EDE18D8A40ED055
:102570000001BE07D8A0BF072A0E0001BE25D96EF4
:10258000010E0001BF21DA6E000EDB8E0001BB4B95
:10259000BC2B0001BE4BBF2B0001BF5127E1060E33
:1025A0000001BE5DD8B022D0BBC0F6FFBCC0F7FFB3
:1025B000000EF86E0F0EF76403D00800F55005D03A
:1025C000F6CFE9FFF7CFEAFFEF500009D8B40ED0FD
:1025D000A7D72A0E0001BE25D96E010E0001BF212A
:1025E000DA6E000EDF6E0001BE4BBF2B0001BF5143
:1025F00006E1060E0001BE5DD8B01200EAD7120057
:10260000C6C0CEF0C7C0CFF0000E0001CD6F000EE7
:10261000CC6FC8C0CAF0C9C0CBF00001CE510001D8
:10262000CF11D8A434D0CAC0D9FFCBC0DAFF300E46
:10263000DF6E000E0001CD6F010ECC6F40D0CEC01A
:10264000C1F0CFC0C2F0000E0001C46F0A0EC36F0C
:1026500003EC9EF00001C151300FCAC0D9FFCBC0BE
:10266000DAFFDF6ECEC0BAF0CFC0BBF0000E0001C3
:10267000BD6F0A0EBC6F02EC9BF0BAC0CEF0BBC0BF
:10268000CFF00001CC4BCD2B0001CA4BCB2B00016E
:10269000CE510001CF11D8B408D00001CD5105E1D1
:1026A000060E0001CC5DD8A0CAD7C8C0BAF0C9C018
:1026B000BBF0CCC0BCF0CDC0BDF098EC9CF00001EC
:1026C000CC510001C825D96E0001CD510001C921AE
:1026D000DA6E000EDF6E1200E7C0D9FFE8C0DAFF45
:1026E000000EDE6E000EDD6E000120EE02F0E751FE
:1026F000D926E851DA22000EDE6E000EDD6E0001F2
:1027000020EE04F0E751D926E851DA22E9C0DEFFD5
:10271000EAC0DDFF920E0001E06F000E0001E16FE4
:10272000000E0001E26F030E0001E36F8EEC8BF0F0
:10273000920E0001E06F000E0001E16F010E00013A
:10274000E26F030E0001E36F8EEC8BF0920E00013E
:10275000C96F000E0001CA6F000E0001CB6F000EA2
:102760000001CC6FA9EC94F0920E0001C96F000E2D
:102770000001CA6F010E0001CB6F000E0001CC6F8B
:10278000A9EC94F0F20E00016B6F220E00016C6F49
:10279000010E00016D6FE80E0001C76F030EC86FD8
:1027A000000EC96F000ECA6F26EC90F012000101F6
:1027B000BB510101BC11D8B412000101BF5101018C
:1027C000C0110101C111D8B412000101C2510101AF
:1027D000C3110101C411D8B412000101C551010196
:1027E000C6110101C711D8B412000101BD51010188
:1027F000BE11D8A405D0000E0101BE6F010EBD6F41
:10280000BBC1D9FFBCC1DAFF000EDF6E010120EEB3
:1028100001F0BB51D926BC51DA22000EDF6E010156
:1028200020EE02F0BB51D926BC51DA22BDC1DEFF39
:10283000BEC1DDFF010120EE04F0BB51D926BC5121
:10284000DA22C5C1DEFFC6C1DEFFC7C1DEFF01015E
:1028500020EE07F0BB51D926BC51DA22C2C1DEFFFF
:10286000C3C1DEFFC4C1DEFF01D812000500FA6E4D
:102870000101BF51FD6EC051FE6EC151FF6EFA5095
:1028800012000001C56F200E0001C55F0001C55197
:10289000050DF3CFC3F0F4CFC4F0AD0E0001C32596
:1028A0000001C66FFD0E0001C4210001C76F000EBC
:1028B0000001CA6F040E0001CA6501D043D0000EAA
:1028C0000001CB6F060E0001CB6501D035D0C6C02C
:1028D000BAF0C7C0BBF0CBC0BCF081ECA1F00009DE
:1028E000D8A405D070C0C8F071C0C9F004D0FDC034
:1028F000C8F0FEC0C9F00001CB510A0D000E000166
:10290000C16F020E0001C26FF3500001C127F450E5
:102910000001C2230001CA51020DF3500001C1257C
:10292000D96EF4500001C221DA6EC8C0DEFFC9C002
:10293000DDFF0001CB2BC6D70001C64BC72B000122
:10294000CA2BB8D7000E0001BF6F020E0001C06F86
:102950001200080E0001C9250001C66F000E00011B
:10296000CA210001C76FCBC0C8F0D3ECA0F00001B2
:10297000CD6F42D0010E0001CC17000120EE02F015
:10298000C951D926CA51DA22DECFBAF0DDCFBBF069
:10299000CBC0BCF0CCC0BDF0A0EC9DF01200010E8D
:1029A0000001CC17010E0001CC1B000120EE02F04B
:1029B000C951D926CA51DA22DECFBAF0DDCFBBF039
:1029C000CBC0BCF0CCC0BDF0A0EC9DF01200010E5D
:1029D0000001CC17000120EE04F0C951D926CA51DC
:1029E000DA22DECFBAF0DDCFBBF0CBC0BCF0CCC07A
:1029F000BDF0A0EC9DF012000001CD51000AD8B44A
:102A00001200010AD8B4B6D7030AD8B4C8D7010A4D
:102A1000D8A41200DCD7000E0001C86FFA0E3F24C4
:102A20000001BA6FFF0E40200001BB6F000E0001D5
:102A3000BD6F060EBC6F6CEC95F00001BA51000141
:102A4000C96FC9C0BAF00001BB6B000E0001BD6FB9
:102A5000040EBC6F6CEC95F00001BA510001C76F19
:102A6000000E0001C86F06D0F2ECA0F06EEC9DF0F5
:102A70000001C82B0001C751040DF31EF41EF34AD8
:102A8000F42A0001C9510001C26FC36BF350000169
:102A9000C227F4500001C3230001C21FC31FC24B51
:102AA000C32B040E0001C227000EC3230001C8512E
:102AB0000001C46FC56B0001C2510001C45D00017B
:102AC000C551800A0001C66F0001C351800A000190
:102AD000C659D8B01200C8D7000E0001BF6F000160
:102AE000BDAF08D00001BC6DBD1FD8B0BD2B010E1D
:102AF0000001BF6F0001BBAF08D00001BA6DBB1F62
:102B0000D8B0BB2B010E0001BF1B000E0001C16F2E
:102B1000000EC06F0001BC510001BD11D8B42CD013
:102B2000010E0001BE6F06D00001D890BC37BD3742
:102B30000001BE2B0001BDAFF7D70001D890C03710
:102B4000C1370001BC510001BA5D0001BD51000157
:102B5000BB59D8A00AD00001BC510001BA5F0001E6
:102B6000BD510001BB5B0001C0810001D890BD33A5
:102B7000BC330001BE2FE1D70001BF510001D8B422
:102B800005D00001C06DC11FD8B0C12BC0C0BAF0C4
:102B9000C1C0BBF01200000E0001C26F000EC36F77
:102BA000000EC46F000EC56F0001BE510001BF11C1
:102BB0000001C0110001C111D8B442D0010E0001C2
:102BC000C66F08D00001D890BE37BF37C037C137B5
:102BD0000001C62B0001C1AFF5D70001D890C23764
:102BE000C337C437C5370001BE510001BA5D0001CB
:102BF000BF510001BB590001C0510001BC59000187
:102C0000C1510001BD59D8A012D00001BE51000130
:102C1000BA5F0001BF510001BB5B0001C051000160
:102C2000BC5B0001C1510001BD5B0001C28100011C
:102C3000D890C133C033BF33BE330001C62FCDD7C8
:102C4000C2C0BAF0C3C0BBF0C4C0BCF0C5C0BDF0C8
:102C500012000001BE51010D9D0EF324F66EFD0E13
:102C6000F420F76EF86A000EF8220800F5CFC4F0E1
:102C7000000E0001C36F06D00001BC510001BD5F12
:102C80000001C32B0001BC510001BD5DD8B0F4D7D9
:102C90000001BE510001BD03F350BD6F0001C351DF
:102CA0000001BD270001C4510001BF17BDC0C0F025
:102CB000C4C0C1F00001C02B03D00001D890C137BF
:102CC0000001C02FFAD70001C151FF0A0001C26FF5
:102CD000BAC0D9FFBBC0DAFF0001C251DF16BDC0C8
:102CE000C0F0BFC0C1F00001C02B03D00001D890DC
:102CF000C1370001C02FFAD7BAC0D9FFBBC0DAFF75
:102D00000001C151DF121200700EF66E480EF76E10
:102D1000010EF86E01EED3F010EE08F00900F5CFC9
:102D2000EEFFE550E150FAE1800EF66E480EF76EC8
:102D3000010EF86E00EEF9F010EE07F00900F5CF85
:102D4000EEFFE550E150FAE1520EF66E480EF76ED6
:102D5000010EF86E00EE3FF010EE0AF00900F5CF1C
:102D6000EEFFE550E150FAE102EE46F011EE2CF0F4
:102D7000EE6AE550E150FCE1E250FAE102EE00F0CB
:102D8000460EEE6AE806FDE101EE00F0BB0EEE6ACB
:102D9000E806FDE100EE60F05A0EEE6AE806FDE19D
:102DA00000EE25F01A0EEE6AE806FDE14990499220
:102DB00000012EEF85F00001C26F020E0001BF2757
:102DC000020E0001C127030E0001C227030E0001FD
:102DD000C027000E0001BD6F2A0EE2ECA2F0010E2A
:102DE0000001BD6F000EE2ECA2F0010E0001BD6F0C
:102DF0000001C251E2ECA2F0010E0001BD6F000E15
:102E0000E2ECA2F0010E0001BD6F0001C051E2EC46
:102E1000A2F0000E0001BD6F2B0EE2ECA2F0010E3D
:102E20000001BD6F000EE2ECA2F0010E0001BD6FCB
:102E30000001BF51E2ECA2F0010E0001BD6F000ED7
:102E4000E2ECA2F0010E0001BD6F0001C151E2EC05
:102E5000A2F0000E0001BD6F2C0EE2ECA2F01200F9
:102E6000080E10240D6E000E11200E6E12C00FF011
:102E700014ECA2F0146E3BD0010E131620EE02F0FB
:102E80001050D9261150DA22DECF01F0DDCF02F04A
:102E900012C003F013C004F059EC9FF01200010EB1
:102EA0001316010E131A20EE02F01050D9261150FD
:102EB000DA22DECF01F0DDCF02F012C003F013C042
:102EC00004F059EC9FF01200010E131620EE04F0EE
:102ED0001050D9261150DA22DECF01F0DDCF02F0FA
:102EE00012C003F013C004F059EC9FF0120014500C
:102EF000000AD8B41200010AD8B4BED7030AD8B465
:102F0000CED7010AD8A41200DFD70001BC6F38D099
:102F1000920E0001BA6F0F0E0001BB6F1200930EEC
:102F20000001BA6F0F0E0001BB6F1200940E00017A
:102F3000BA6F0F0E0001BB6F1200950E0001BA6F41
:102F40000F0E0001BB6F1200960E0001BA6F0F0E3C
:102F50000001BB6F1200970E0001BA6F0F0E000147
:102F6000BB6F1200980E0001BA6F0F0E0001BB6F0D
:102F70001200000E0001BA6F000E0001BB6F1200BC
:102F80000001BC51000AD8B4C3D7010AD8B4C7D7CE
:102F9000030AD8B4CBD7010AD8B4CFD7070AD8B41C
:102FA000D3D7010AD8B4D7D7030AD8B4DBD7E1D72F
:102FB0000001BC6F38D08D0E0001BA6FFF0E00010A
:102FC000BB6F12008F0E0001BA6FFF0E0001BB6FC6
:102FD0001200910E0001BA6FFF0E0001BB6F1200CC
:102FE000930E0001BA6FFF0E0001BB6F1200950E29
:102FF0000001BA6FFF0E0001BB6F1200970E0001B7
:10300000BA6FFF0E0001BB6F1200990E0001BA6F7C
:10301000FF0E0001BB6F1200000E0001BA6F000E20
:103020000001BB6F12000001BC51000AD8B4C3D725
:10303000010AD8B4C7D7030AD8B4CBD7010AD8B489
:10304000CFD7070AD8B4D3D7010AD8B4D7D7030A41
:10305000D8B4DBD7E1D70001BC6F38D0800E0001B7
:10306000BA6F0F0E0001BB6F1200810E0001BA6F24
:103070000F0E0001BB6F1200820E0001BA6F0F0E1F
:103080000001BB6F1200830E0001BA6F0F0E00012A
:10309000BB6F1200840E0001BA6F0F0E0001BB6FF0
:1030A0001200850E0001BA6F0F0E0001BB6F1200F7
:1030B000860E0001BA6F0F0E0001BB6F1200000EEA
:1030C0000001BA6F000E0001BB6F12000001BC517D
:1030D000000AD8B4C3D7010AD8B4C7D7030AD8B4F2
:1030E000CBD7010AD8B4CFD7070AD8B4D3D7010AAF
:1030F000D8B4D7D7030AD8B4DBD7E1D7000E000184
:10310000DC6F0001CE510001D2250001DA6F000111
:10311000D0510001D4250001DB6FD4C0BAF0D5C076
:10312000BBF0D2C0BCF0D3C0BDF04BECA1F0BAC034
:10313000D8F0BBC0D9F0D0C0BFF00001DA05000163
:10314000C06F0001DB050001C16F0001CE51DBEC57
:1031500096F0000E0001DC6F13D00001DC51020D6F
:10316000F3500001CC25D96EF4500001CD21DA6E68
:10317000DECFBFF0DDCFC0F03EECA3F00001DC2BD2
:103180000001DC510001D66FD76B0001D85100015E
:10319000D65D0001D9510001D759D8B01200DDD752
:1031A000BAC0F6FFBBC0F7FF000EF86E0F0EF76453
:1031B00003D00800F55005D0F6CFE9FFF7CFEAFFBE
:1031C000EF500001C26F0001BE51010D9D0EF324AE
:1031D000F66EFD0EF420F76EF86A000EF822080075
:1031E000F5CFC0F0000E0001C16F06D00001BC5148
:1031F0000001BD5F0001C12B0001BC510001BD5D9C
:10320000D8B0F4D70001BE510001BD03F350BD6F2B
:103210000001C1510001BD270001BD290001BF6FA0
:1032200003D00001D890C2330001BF2FFAD70001AC
:10323000C0510001C2170001C25112000001BF6F4E
:10324000000E0001C06F000E0001BD6F360EE2ECF3
:10325000A2F00001BF51030B0001C06F2CD0010E82
:103260000001BD6FC80EE2ECA2F0800E476E800E2A
:10327000466E1200010E0001BD6FA80EE2ECA2F036
:10328000800E476E800E466E1200010E0001BD6F6B
:10329000080EE2ECA2F0800E476E800E466E120021
:1032A000010E0001BD6F680EE2ECA2F0800E476EC9
:1032B000800E466E12000001C051000AD8B4CFD76C
:1032C000010AD8B4D7D7030AD8B4DFD7010AD8A4E3
:1032D0001200E6D739D03650140D460E0001BA6FF1
:1032E000020E0001BB6FF3500001BA27F450000139
:1032F000BB233550010DF3500001BA25D96EF450AF
:103300000001BB21DA6EDF50D8B41DD0010E0001E0
:10331000FF6F3650140D460E0001BA6F020E000109
:10332000BB6FF3500001BA27F4500001BB233550A6
:10333000010DF3500001BA25D96EF4500001BB21F4
:10334000DA6E800EDF6E352A130E3564C4D7000E98
:10335000356E362A080E4126000E4222000E406EBF
:10336000060E3F6E12000001C06FA60EF66EFD0E37
:10337000F76E000EF86E0900F5CFBCF00900F5CF2E
:10338000BDF00900F5CFBEF00A00F5CFBFF0110E79
:103390000001C16F030E0001C0170001C051010DF3
:1033A000BC0EF324D96E000EF420DA6EDF5000015B
:1033B000BA6FC1C0BBF00001BA2B03D00001D89096
:1033C000BB370001BA2FFAD70001BB510001C16F12
:1033D0000001C1390F0B0001C16F0001C1510F0B7A
:1033E0000001C16F010130510001C119F00BC11979
:1033F0000101306F1200000E356E000E366E000EA9
:103400000001BD6F0E0E0001BD6501D02DD0000E74
:103410000001BC6F130E0001BC6501D022D0010E6B
:103420000001FF6F0001BD51140D460E0001BA6F7F
:10343000020E0001BB6FF3500001BA27F4500001E7
:10344000BB230001BC51010DF3500001BA25D96E18
:10345000F4500001BB21DA6E800EDF6E0001BC2B40
:10346000D9D70001BD2BCED7010E00017A6F000E17
:10347000406E060E3F6E000E426E060E416E12004A
:10348000000E356E000E366E000E0001BC6F130E7E
:103490000001BC6501D01200000E0001BD6F0E0ED0
:1034A0000001BD6501D02CD00001BD51140D460EA8
:1034B0000001BA6F020E0001BB6FF3500001BA2782
:1034C000F4500001BB230001BC51010DF350000179
:1034D000BA25D96EF4500001BB21DA6E000EDF6E02
:1034E0000001BD51020D000EF324D96E010EF4202F
:1034F000DA6EFF0EDE6EFF0EDD6E0001BD2BCFD744
:103500000001BC2BC4D70001C06F090E0001BD61D2
:103510001200C0C02FF0000E2E6E070E2E6401D0D8
:1035200027D02FC0BEF0010E0001BE17060E00010D
:10353000BF6F0001D890BE370001BF2FFAD700013E
:10354000BE51306E0001BD39E842F80B2E1030102C
:103550000001C16FD8902F32640E0001BA6F010EC6
:103560000001BB6FC1C0BCF0CEEC9CF02E2AD5D7B9
:10357000640E0001BA6F010E0001BB6F000E000166
:10358000BC6FCEEC9CF01200730EF66EFD0EF76E63
:10359000000EF86E20EECFF00F0E0900F5CFDEFF23
:1035A000E806FBE2C9C0C6F0CAC0C7F0CCC0C8F08C
:1035B000D3ECA0F00001DF6F040E0001CB6120D03E
:1035C000040E0001DF611CD00001CB51040DCF0EB1
:1035D0000001CD6F000E0001CE6FF3500001CD272A
:1035E000F4500001CE230001DF51010DF350000122
:1035F000CD25D96EF4500001CE21DA6EDF501200D5
:10360000050E1200000E0001C06F000EBF6F00011A
:10361000BC510001BD11D8B42CD0010E0001BE6F09
:1036200006D00001D890BC37BD370001BE2B000189
:10363000BDAFF7D70001D890BF37C0370001BC51EC
:103640000001BA5D0001BD510001BB59D8A00AD0EC
:103650000001BC510001BA5F0001BD510001BB5B1C
:103660000001BF810001D890BD33BC330001BE2FE3
:10367000E1D7BFC0BAF0C0C0BBF0120001C0F6FF76
:1036800002C0F7FF000EF86E0F0EF76403D00800BB
:10369000F55005D0F6CFE9FFF7CFEAFFEF50096EFE
:1036A0000550010D9D0EF324F66EFD0EF420F76E0D
:1036B000F86A000EF8220800F5CF07F0000E086E39
:1036C00003D00350045E082A0350045CD8B0F9D735
:1036D00005500402F350046E085004260428066EB8
:1036E00002D0D8900932062EFCD70750091609508F
:1036F0001200000120EE06F0C951D926CA51DA2283
:10370000DECFBAF0DDCFBBF0050E0001BC6F000EBE
:103710000001BD6FA0EC9DF0000120EE06F0C95144
:10372000D926CA51DA22DECFC5F0DDCFC6F0000EB1
:103730000001C76F000E0001C86FD1ECA2F00001BC
:1037400020EE06F0C951D926CA51DA22DECFBAF0EE
:10375000DDCFBBF0050E0001BC6F010E0001BD6F97
:10376000A0EC9DF01200000120EE06F0C951D92610
:10377000CA51DA22DECFBAF0DDCFBBF0050E000170
:10378000BC6F000E0001BD6FA0EC9DF0000120EEAB
:1037900006F0C951D926CA51DA22DECFC5F0DDCFF5
:1037A000C6F0000E0001C76F020E0001C86FD1EC19
:1037B000A2F0000120EE06F0C951D926CA51DA2242
:1037C000DECFBAF0DDCFBBF0050E0001BC6F010EFD
:1037D0000001BD6FA0EC9DF01200000E0001CF6F44
:1037E000000E0001D06FC7C0BFF00001C55100013D
:1037F000C9250001CD6F0001CD050001C06F00019A
:10380000C7510001CB250001CE6F0001CE0500019C
:10381000C16F0001C551DBEC96F0CBC0D0F00001C8
:10382000D0510001D8B41200C9C0CFF00001CF516F
:103830000001D8B409D0C3C0BFF0C4C0C0F03EEC92
:10384000A3F00001CF07F2D70001D007E8D79668B0
:103850005A0E0001D56F010E0001D66F010E000156
:10386000D76F73EC8FF03C0E0001D56F010E000195
:10387000D66F010E0001D76F73EC8FF0320E00018E
:10388000D56F010E0001D66F010E0001D76F73ECEA
:103890008FF0460E0001D56F010E0001D66F010EAC
:1038A0000001D76F73EC8FF0500E0001D56F010E41
:1038B0000001D66F010E0001D76F73EC8FF012007C
:1038C000980E0001E06F010E0001E16F070E00018C
:1038D000E26F030E0001E36F8EEC8BF0980E000197
:1038E000E06F010E0001E16F060E0001E26F030EB2
:1038F0000001E36F8EEC8BF00AEC9FF0C00E00012C
:10390000E76FC60EE86F2D0EE96F000EEA6F010E2D
:103910000001EB6F010E0001EC6F00EC80F06F0E08
:103920000001C96F010E0001CA6F79EC9BF0120013
:103930000001BC510001BA250001BF6F0001BD515B
:103940000001BB210001C06F1AD0BAC0D9FFBBC0B3
:10395000DAFFDF500001BE6FBFC0D9FFC0C0DAFF81
:10396000BAC0E1FFBBC0E2FFDFCFE7FF0001BA4B07
:10397000BB2BBFC0D9FFC0C0DAFFBEC0DFFF000154
:10398000BF07D8A0C0070001BF510001BA5D000108
:10399000C0510001BB59D8B01200D7D726D082C081
:1039A000D9FF83C0DAFF0001DF94BCC0C9FFC7A004
:1039B000FED7C9CFBCF082C0D9FF83C0DAFF0001B7
:1039C000DF8412008CC0D9FF8DC0DAFF0001DF9EBA
:1039D000BCC06FFF6DA0FED76FCFBCF08CC0D9FF0D
:1039E0008DC0DAFF0001DF8E1200000120EE02F030
:1039F000BA51D926BB51DA22DF50000AD8B4CFD74A
:103A0000010AD8A41200DED71FD0000E0001BC6F3F
:103A1000000EBD6F000EBE6F000EBF6F0001BF51E4
:103A20000001BE1111E1B00E0001BC5D040E0001E9
:103A3000BD59D8B009D000F0010E0001BC27000E1E
:103A4000BD23BE23BF23EAD70001BA07D8A0BB0716
:103A50000001BA29DAE10001BB29D8A4D6D7080EA3
:103A60000001BC6F800EBD6F000EBE6F000EBF6FF9
:103A70001200050E0001E66FE0C0D9FFE1C0DAFFD9
:103A8000DECFE7F0DDCFE8F00001E251020DF3CF29
:103A9000E4F00001E251020DF3280001E56FE7C0F8
:103AA000C9F0E8C0CAF0E3C0CBF0E4C0CCF0C4EC8D
:103AB0009AF00001E66F0001E651D8A40CD0E7C0EF
:103AC000C9F0E8C0CAF0E3C0CBF0E5C0CCF0C4EC6C
:103AD0009AF00001E66F0001E6511200352A060E49
:103AE0003F26000E4022060E3F240001BE6F000E4E
:103AF00040200001BF6F0001BFBF09D00001BF51CE
:103B000004E1800E0001BE5DD8B06AEC99F0080EA9
:103B100041240001BE6F000E42200001BF6F000172
:103B2000BFBF0CD00001BF5105E1800E0001BE5D9A
:103B3000D8A004D0FBEC99F0010E1200000E120088
:103B4000010E0001BD17BCC0BEF0010E0001BF6F29
:103B50000001BE2B03D00001D890BF370001BE2F5B
:103B6000FAD70001BF51FF0A0001C06FBAC0D9FFE8
:103B7000BBC0DAFF0001C051DF16BCC0BEF0BDC043
:103B8000BFF00001BE2B03D00001D890BF37000169
:103B9000BE2FFAD7BAC0D9FFBBC0DAFF0001BF51B0
:103BA000DF1212000001E76F1ED07E0E0001E06FF1
:103BB000000E0001E16F000E0001E26F030E000134
:103BC000E36F8EEC8BF017D07E0E0001E06F000EDD
:103BD0000001E16F010E0001E26F030E0001E36FCF
:103BE0008EEC8BF008D00001E751000AD8B4DDD785
:103BF000010AD8B4E9D7000E0001CE6F0001E751E9
:103C0000E2EC9EF012000001C3510001C411D8B4CF
:103C100026D0010E0001C56F06D00001D890C33731
:103C2000C4370001C52B0001C4AFF7D70001C35151
:103C30000001C15D0001C4510001C259D8A008D0E3
:103C40000001C3510001C15F0001C4510001C25B0A
:103C50000001D890C433C3330001C52FE7D7C1C0DA
:103C6000C1F0C2C0C2F01200050E0001EF6F0001EA
:103C7000EB51020DF3CFEDF00001EB51020DF328F3
:103C80000001EE6FE9C0E0F0EAC0E1F0EDC0E2F063
:103C9000ECC0E3F039EC9DF00001EF6F0001EF5153
:103CA000D8A40CD0E9C0E0F0EAC0E1F0EEC0E2F048
:103CB000ECC0E3F039EC9DF00001EF6F0001EF5133
:103CC0001200000E0001C56F000E0001C66F000E4D
:103CD0000001BF6F47040001C06F46040001C16FBF
:103CE000000EDBEC96F046C0C6F00001C6510001A4
:103CF000D8B4120047C0C5F00001C5510001D8B4C6
:103D000009D0C3C0BFF0C4C0C0F03EECA3F00001B6
:103D1000C507F2D70001C607E8D70001D36F00013D
:103D2000D351DCECA3F00001D3510001D8A41DD085
:103D30000001D8907437753700017529000174119E
:103D4000D8A406D0000E0001756F000E746F09D064
:103D50000001755106E100017429D8B002D00001BC
:103D60007481000174512EECA4F0000EC8EC9FF099
:103D700012001CD0000E0001BC6F000EBD6F000EC3
:103D8000BE6F000EBF6F0001BC510001BD110001EC
:103D9000BE110001BF11D8A409D000F0010E00012E
:103DA000BC27000EBD23BE23BF23EDD70001BA07F9
:103DB000D8A0BB070001BA29DDE10001BB29D8B4B6
:103DC0001200D8D70001CF6F1CD07E0E0001C96F42
:103DD000000E0001CA6F000E0001CB6FCEC0CCF008
:103DE000A9EC94F012007E0E0001C96F000E0001D4
:103DF000CA6F010E0001CB6FCEC0CCF0A9EC94F0DD
:103E000012000001CF51000AD8B4DFD7010AD8A4AC
:103E10001200E9D702ECA3F0010EC8EC9FF0000EEF
:103E20000001BB6F800EBA6F04EC9DF0010EC8EC70
:103E30009FF0F3ECA2F0000E0001BB6F800EBA6F92
:103E400004EC9DF0010EC8EC9FF002ECA3F0000E14
:103E50000001BB6F800EBA6F04EC9DF0010EC8EC40
:103E60009FF012003550D8B406D0FA0E3F26FF0E50
:103E7000402235061BD03650D8B40CD0000E406E10
:103E8000720E3F6EF80E4126FF0E4222130E356E63
:103E900036060CD0000E406E060E3F6E000E426ECF
:103EA000060E416E000E356E000E366EF2ECA0F07E
:103EB0001200010E041603C005F0010E066E052A5D
:103EC00002D0D8900636052EFCD70650FF0A076EA2
:103ED00001C0D9FF02C0DAFF0750DF1603C005F0AA
:103EE00004C006F0052A02D0D8900636052EFCD76D
:103EF00001C0D9FF02C0DAFF0650DF121200000134
:103F000020EE06F0BA51D926BB51DA22DECFBDF041
:103F1000DDCFBEF0BDC0D9FFBEC0DAFFDF5000016B
:103F2000BF6F0001BC51040DF3280001BD6F03D029
:103F30000001D890BF330001BD2FFAD70F0E00014A
:103F4000BF170001BF511200050E0001F36FF0C052
:103F5000E9F0F1C0EAF0000E0001EB6FF2C0ECF006
:103F600034EC9EF00001F36F0001F351D8A40DD0A2
:103F7000F0C0E9F0F1C0EAF0010E0001EB6FF2C011
:103F8000ECF034EC9EF00001F36F0001F3511200ED
:103F90000001D26F18D07E0E0001CE6F000E00011E
:103FA000CF6F000E0001D06FE4ECA1F012007E0E86
:103FB0000001CE6F000E0001CF6F010E0001D06F27
:103FC000E4ECA1F012000001D251000AD8B4E3D70A
:103FD000010AD8A41200EBD7000120EE06F0BA5176
:103FE000D926BB51DA22DECFBDF0DDCFBEF0BDC099
:103FF000D9FFBEC0DAFFDF500001BF6F0001BC294E
:104000000001BD6F03D00001D890BF330001BD2F68
:10401000FAD7010E0001BF170001BF511200030EB5
:104020000001CB6514D0010E0001C9250001C56F48
:10403000000E0001CA210001C66F0001CB51FC0F28
:104040000001C76FCCC0C8F0C0ECA2F01200C9C01C
:10405000C5F0CAC0C6F0CBC0C7F0CCC0C8F0C0EC39
:10406000A2F012000001D36F0001D351D1ECA3F0F4
:104070000001D3510001D8A413D0000174510001F4
:104080007511D8A405D0FF0E0001756F000E746F76
:104090000001D89075337433000174512EECA4F0F4
:1040A000000EC8EC9FF012000001C16F86500F0B8C
:1040B0000001C06F4450D8A402D0000E1200000EC0
:1040C000446E0001C1510001C019D8B40CD0F00EEB
:1040D00086160001C1518612000E0001BB6F0A0E48
:1040E000BA6FB9EC9EF0010E120016D0000E036EEE
:1040F000000E046E000E056E000E066E03500410D6
:1041000005100610D8A408D000F0010E0326000EFA
:10411000042205220622F2D70106D8A002060128B1
:10412000E5E10228D8B41200E1D70001C16F865042
:104130000F0B0001C06F4450D8B4FDD7000E446E81
:104140000001C1510001C019D8B40CD0F00E861680
:104150000001C1518612000E0001BB6F0A0EBA6F3A
:10416000B9EC9EF0010E1200000E0001C36F000EAC
:10417000C26F0001C35116E1080E0001C25DD8B044
:104180001200C2C0BDF02A0E0001C225D96E010E78
:104190000001C321DA6EDF5083EC9AF00001C24BBC
:1041A000C32BE7D71200030E0001C86512D0010E21
:1041B0000001C6250001C36F000E0001C7210001E8
:1041C000C46F0001C851FC0F0001C56F2FECA3F0B4
:1041D0001200C6C0C3F0C7C0C4F0C8C0C5F02FEC01
:1041E000A3F01200010E0001FF6F3650140D460EB1
:1041F0000001BA6F020E0001BB6FF3500001BA2735
:10420000F4500001BB233550010DF3500001BA25D5
:10421000D96EF4500001BB21DA6E800EDF6E120001
:104220000001D36F0001D3510001D8A413D00001C5
:10423000782B0001785100017627000E772376C095
:10424000D0F077C0D1F085ECA2F000017851030BDB
:10425000B3EC99F0000EC8EC9FF01200BDC02CF03A
:10426000BEC02DF0BDC0D9FFBEC0DAFFDE50DE10EB
:10427000D8A41200BDC0D9FFBEC0DAFFBFC0DEFFA8
:10428000C0C0DDFF6BC0BAF06CC0BBF06DC0BCF04D
:10429000AEECA2F012000001BA510001BC03F3CF52
:1042A000BEF0F4CFBFF00001BA510001BD03F350DE
:1042B0000001BF270001BB510001BC03F350000106
:1042C000BF27BEC0BAF0BFC0BBF01200086E865058
:1042D0000F0B076E4450D8A402D0000E1200000E3F
:1042E000446E08500718D8B40AD0F00E861608504D
:1042F0008612000E026E0A0E016E75ECA0F0010E21
:104300001200BAC0F6FFBBC0F7FF000EF86E08003F
:10431000F5CFBEF00001BC290001BD6F03D0000144
:10432000D890BE330001BD2FFAD7010E0001BE1791
:104330000001BE5112000001D36F0001D351E7EC20
:10434000A3F00001D3510001D8A40AD000017607E0
:10435000D8A0770776C0D0F077C0D1F085ECA2F076
:10436000000EC8EC9FF01200255026102710D8B47C
:104370000CD001D80AD00500FA6E2550FD6E2650EB
:10438000FE6E2750FF6EFA501200000E256E000ED2
:10439000266E000E276E12000001D36F0001D3516C
:1043A000C6ECA3F00001D3510001D8A409D000014C
:1043B000764B772B76C0D0F077C0D1F085ECA2F0A9
:1043C000000EC8EC9FF01200CEC0BAF0CFC0BBF018
:1043D000D0C0BCF0ECEC9FF00001D16F010E0001E9
:1043E000D11BCEC0C9F0CFC0CAF0D0C0CBF0D1C075
:1043F000CCF0A9EC94F01200000120EE02F0BA51CA
:10440000D926BB51DA22DF50D8A407D082C0D9FF09
:1044100083C0DAFF0001DF8412008CC0D9FF8DC099
:10442000DAFF0001DF8E1200030E0F640CD0010EC4
:104430000D240A6E000E0E200B6E0F50FC0F0C6E3A
:104440005AECA3F012000DC00AF00EC00BF00FC022
:104450000CF05AECA3F012000001D36F47ECA4F06B
:104460000001D46F0F0E0001D4170001D33BF00EF2
:10447000D3170001D3510001D4112EECA4F0000E8B
:10448000C8EC9FF012004AECA4F000016851000152
:10449000691100016A11D8B4120001D81200050098
:1044A000FA6E00016851FD6E6951FE6E6A51FF6E31
:1044B000FA5012000001D36F47ECA4F00001D46F52
:1044C0000001D3510001D4112EECA4F0F00E000134
:1044D000D4170F0E0001D317000EC8EC9FF0120086
:1044E000000120EE02F0D551D926D651DA22D7C0EC
:1044F000DEFFD8C0DDFFD7C0C7F0D8C0C8F00001CC
:10450000C96BCA6B26EC90F01200D0C0C6F0D1C0C7
:10451000C7F02A0E0001C86F010E0001C96F00EC40
:1045200093F02A0E0001BB6F010E0001BC6F8AECF4
:1045300092F0120004D09D961200A39E120000017A
:1045400020EE02F0BA51D926BB51DA22DF50000A20
:10455000D8B4F1D7010AD8A41200EFD7BAC068F0D6
:10456000BBC069F0BCC06AF02AC0D6FF2BC0D7FF21
:10457000D5503418F80B3418D56EF294F28A120024
:10458000C5C0BAF0C6C0BBF0040E0001BC6FC7C006
:10459000BDF0020E0001BE6FC8C0BFF029EC96F05E
:1045A0001200C5C0BAF0C6C0BBF0020E0001BC6F5D
:1045B000C7C0BDF0040E0001BE6FC8C0BFF029EC3B
:1045C00096F012000001BE6F0001BD51F2ECA3F0A5
:1045D0006F0E0001BA6F010E0001BB6FBEC0BCF0D0
:1045E000CEEC9CF01200980E0001C96F010E000184
:1045F000CA6F060E0001CB6F010E0001CC6FA9EC53
:1046000094F01200980E0001C96F010E0001CA6FEC
:10461000060E0001CB6F000E0001CC6FA9EC94F0E8
:104620001200880E0001F06F000E0001F16F000E05
:104630000001F26F000E0001F36F6AEC86F01200C9
:104640008E0E0001E06F010E0001E16F040E00010B
:10465000E26F000E0001E36F8EEC8BF01200C3C01E
:10466000BAF0C4C0BBF0040E0001BC6FC5C0BDF001
:10467000020E0001BE6FD0EC98F01200010E000196
:10468000BD6F0001C051E2ECA2F0010E0001BD6F50
:104690000001BF51E2ECA2F01200000E406E060EC7
:1046A0003F6E000E426E060E416E000E356E000E1D
:1046B000366E12000AC001F00BC002F0040E036E49
:1046C0000CC004F0020E056E3EEC9BF01200880E4A
:1046D0000001BA6F000E0001BB6F000E0001BC6F3D
:1046E0007FEC9FF01200920E0001BA6F000E0001E5
:1046F000BB6F000E0001BC6F7FEC9FF01200920EAA
:104700000001BA6F000E0001BB6F060E0001BC6F06
:10471000ECEC9FF01200920E0001BA6F000E000147
:10472000BB6F070E0001BC6FECEC9FF01200920E05
:104730000001BA6F000E0001BB6F040E0001BC6FD8
:10474000ECEC9FF01200920E0001BA6F000E000117
:10475000BB6F050E0001BC6FECEC9FF012008E0EDB
:104760000001BA6F010E0001BB6F040E0001BC6FA7
:10477000ECEC9FF01200010E446E2550261027101D
:10478000D8B402D0010E1200000E12000001BA6F60
:104790000001BAB103D00101309102D00101308192
:1047A00012000001BA6F0001BAB103D001013097C5
:1047B00002D00101308712000001BA6F0001BAB1C6
:1047C00003D00101309502D00101308512000001B3
:1047D000BA6F0001BAB103D00101309302D00101D8
:1047E000308312000001BA6F0001BAB102D0859E79
:1047F00001D0858E12000001CE6F0001CE5137EC42
:104800008DF01200BAC0D9FFBBC0DAFFBCC0DFFF19
:104810001200BAC025F0BBC026F0BCC027F01200C1
:1048200001C025F002C026F003C027F012002AC004
:10483000D6FF2BC0D7FFF29412002AC0D6FF2BC0A0
:10484000D7FFF28A12002AC0D6FF2BC0D7FFF28A08
:104850001200060006004101618080300001BA6F3D
:10486000BAC031F11200BAC0FDF0BBC0FEF01200B8
:1048700006000600800007009E929D929F92120003
:0748800005000700FFFF0126
:10488800F29AF2941200010131511200F29AF29454
:0C4898001200010E446E1200966812001F
:06FFF800AAF705FFF8F175
:00000001FF
